{
  "_format": "hh-sol-artifact-1",
  "contractName": "RefThroneTypes",
  "sourceName": "contracts/RefThroneTypes.sol",
  "abi": [
    {
      "inputs": [
        {
          "internalType": "address",
          "name": "ownerGroupContractAddress",
          "type": "address"
        },
        {
          "internalType": "address",
          "name": "blastPointsContractAddress",
          "type": "address"
        },
        {
          "internalType": "address",
          "name": "blastPointsOperatorAddress",
          "type": "address"
        }
      ],
      "stateMutability": "nonpayable",
      "type": "constructor"
    },
    {
      "inputs": [
        {
          "internalType": "string",
          "name": "benefitType",
          "type": "string"
        }
      ],
      "name": "addBenefitType",
      "outputs": [],
      "stateMutability": "nonpayable",
      "type": "function"
    },
    {
      "inputs": [
        {
          "internalType": "string",
          "name": "serviceType",
          "type": "string"
        }
      ],
      "name": "addServiceType",
      "outputs": [],
      "stateMutability": "nonpayable",
      "type": "function"
    },
    {
      "inputs": [],
      "name": "claimAllGas",
      "outputs": [],
      "stateMutability": "nonpayable",
      "type": "function"
    },
    {
      "inputs": [
        {
          "internalType": "string",
          "name": "benefitType",
          "type": "string"
        }
      ],
      "name": "deleteBenefitType",
      "outputs": [],
      "stateMutability": "nonpayable",
      "type": "function"
    },
    {
      "inputs": [
        {
          "internalType": "string",
          "name": "serviceType",
          "type": "string"
        }
      ],
      "name": "deleteServiceType",
      "outputs": [],
      "stateMutability": "nonpayable",
      "type": "function"
    },
    {
      "inputs": [],
      "name": "getBenefitTypes",
      "outputs": [
        {
          "internalType": "string[]",
          "name": "",
          "type": "string[]"
        }
      ],
      "stateMutability": "view",
      "type": "function"
    },
    {
      "inputs": [],
      "name": "getBlastPointsContractAddress",
      "outputs": [
        {
          "internalType": "address",
          "name": "",
          "type": "address"
        }
      ],
      "stateMutability": "view",
      "type": "function"
    },
    {
      "inputs": [],
      "name": "getBlastPointsOperatorAddress",
      "outputs": [
        {
          "internalType": "address",
          "name": "",
          "type": "address"
        }
      ],
      "stateMutability": "view",
      "type": "function"
    },
    {
      "inputs": [],
      "name": "getServiceTypes",
      "outputs": [
        {
          "internalType": "string[]",
          "name": "",
          "type": "string[]"
        }
      ],
      "stateMutability": "view",
      "type": "function"
    },
    {
      "inputs": [],
      "name": "readGasParams",
      "outputs": [
        {
          "internalType": "uint256",
          "name": "etherSeconds",
          "type": "uint256"
        },
        {
          "internalType": "uint256",
          "name": "etherBalance",
          "type": "uint256"
        },
        {
          "internalType": "uint256",
          "name": "lastUpdated",
          "type": "uint256"
        },
        {
          "internalType": "enum GasMode",
          "name": "",
          "type": "uint8"
        }
      ],
      "stateMutability": "view",
      "type": "function"
    }
  ],
  "bytecode": "0x60806040523480156200001157600080fd5b5060405162002458380380620024588339818101604052810190620000379190620006a6565b82600560006101000a81548173ffffffffffffffffffffffffffffffffffffffff021916908373ffffffffffffffffffffffffffffffffffffffff160217905550734300000000000000000000000000000000000002600260006101000a81548173ffffffffffffffffffffffffffffffffffffffff021916908373ffffffffffffffffffffffffffffffffffffffff160217905550600260009054906101000a900473ffffffffffffffffffffffffffffffffffffffff166000806101000a81548173ffffffffffffffffffffffffffffffffffffffff021916908373ffffffffffffffffffffffffffffffffffffffff16021790555060008054906101000a900473ffffffffffffffffffffffffffffffffffffffff1673ffffffffffffffffffffffffffffffffffffffff16634e606c476040518163ffffffff1660e01b8152600401600060405180830381600087803b1580156200019857600080fd5b505af1158015620001ad573d6000803e3d6000fd5b5050505081600360006101000a81548173ffffffffffffffffffffffffffffffffffffffff021916908373ffffffffffffffffffffffffffffffffffffffff16021790555080600460006101000a81548173ffffffffffffffffffffffffffffffffffffffff021916908373ffffffffffffffffffffffffffffffffffffffff160217905550600360009054906101000a900473ffffffffffffffffffffffffffffffffffffffff16600160006101000a81548173ffffffffffffffffffffffffffffffffffffffff021916908373ffffffffffffffffffffffffffffffffffffffff160217905550600160009054906101000a900473ffffffffffffffffffffffffffffffffffffffff1673ffffffffffffffffffffffffffffffffffffffff166336b91f2b600460009054906101000a900473ffffffffffffffffffffffffffffffffffffffff166040518263ffffffff1660e01b815260040162000315919062000713565b600060405180830381600087803b1580156200033057600080fd5b505af115801562000345573d6000803e3d6000fd5b505050506200038f6040518060400160405280600381526020017f4345580000000000000000000000000000000000000000000000000000000000815250620005c860201b60201c565b620003d56040518060400160405280600381526020017f4445580000000000000000000000000000000000000000000000000000000000815250620005c860201b60201c565b6200041b6040518060400160405280600481526020017f4d49534300000000000000000000000000000000000000000000000000000000815250620005c860201b60201c565b620004616040518060400160405280600481526020017f4e6f6e65000000000000000000000000000000000000000000000000000000008152506200060260201b60201c565b620004a76040518060400160405280600c81526020017f46656520446973636f756e7400000000000000000000000000000000000000008152506200060260201b60201c565b620004ed6040518060400160405280600481526020017f55534454000000000000000000000000000000000000000000000000000000008152506200060260201b60201c565b620005336040518060400160405280600481526020017f55534443000000000000000000000000000000000000000000000000000000008152506200060260201b60201c565b620005796040518060400160405280600381526020017f42544300000000000000000000000000000000000000000000000000000000008152506200060260201b60201c565b620005bf6040518060400160405280600381526020017f45544800000000000000000000000000000000000000000000000000000000008152506200060260201b60201c565b50505062000a91565b600681908060018154018082558091505060019003906000526020600020016000909190919091509081620005fe9190620009aa565b5050565b600781908060018154018082558091505060019003906000526020600020016000909190919091509081620006389190620009aa565b5050565b600080fd5b600073ffffffffffffffffffffffffffffffffffffffff82169050919050565b60006200066e8262000641565b9050919050565b620006808162000661565b81146200068c57600080fd5b50565b600081519050620006a08162000675565b92915050565b600080600060608486031215620006c257620006c16200063c565b5b6000620006d2868287016200068f565b9350506020620006e5868287016200068f565b9250506040620006f8868287016200068f565b9150509250925092565b6200070d8162000661565b82525050565b60006020820190506200072a600083018462000702565b92915050565b600081519050919050565b7f4e487b7100000000000000000000000000000000000000000000000000000000600052604160045260246000fd5b7f4e487b7100000000000000000000000000000000000000000000000000000000600052602260045260246000fd5b60006002820490506001821680620007b257607f821691505b602082108103620007c857620007c76200076a565b5b50919050565b60008190508160005260206000209050919050565b60006020601f8301049050919050565b600082821b905092915050565b600060088302620008327fffffffffffffffffffffffffffffffffffffffffffffffffffffffffffffffff82620007f3565b6200083e8683620007f3565b95508019841693508086168417925050509392505050565b6000819050919050565b6000819050919050565b60006200088b620008856200087f8462000856565b62000860565b62000856565b9050919050565b6000819050919050565b620008a7836200086a565b620008bf620008b68262000892565b84845462000800565b825550505050565b600090565b620008d6620008c7565b620008e38184846200089c565b505050565b5b818110156200090b57620008ff600082620008cc565b600181019050620008e9565b5050565b601f8211156200095a576200092481620007ce565b6200092f84620007e3565b810160208510156200093f578190505b620009576200094e85620007e3565b830182620008e8565b50505b505050565b600082821c905092915050565b60006200097f600019846008026200095f565b1980831691505092915050565b60006200099a83836200096c565b9150826002028217905092915050565b620009b58262000730565b67ffffffffffffffff811115620009d157620009d06200073b565b5b620009dd825462000799565b620009ea8282856200090f565b600060209050601f83116001811462000a22576000841562000a0d578287015190505b62000a1985826200098c565b86555062000a89565b601f19841662000a3286620007ce565b60005b8281101562000a5c5784890151825560018201915060208501945060208101905062000a35565b8683101562000a7c578489015162000a78601f8916826200096c565b8355505b6001600288020188555050505b505050505050565b6119b78062000aa16000396000f3fe608060405234801561001057600080fd5b506004361061009e5760003560e01c80635f897959116100665780635f89795914610138578063645dd1fa146101545780639cabff661461015e578063a40612ba1461017c578063e19d62b8146101985761009e565b8063057d82ad146100a357806320dacb98146100c157806334138bab146100dd578063491ae348146100fb5780635616f4dc1461011c575b600080fd5b6100ab6101b6565b6040516100b89190610e7d565b60405180910390f35b6100db60048036038101906100d69190610ff2565b6101e0565b005b6100e56102c7565b6040516100f2919061117c565b60405180910390f35b6101036103a0565b604051610113949392919061122e565b60405180910390f35b61013660048036038101906101319190610ff2565b610529565b005b610152600480360381019061014d9190610ff2565b610610565b005b61015c6106f7565b005b610166610895565b604051610173919061117c565b60405180910390f35b61019660048036038101906101919190610ff2565b61096e565b005b6101a0610a55565b6040516101ad9190610e7d565b60405180910390f35b6000600460009054906101000a900473ffffffffffffffffffffffffffffffffffffffff16905090565b600560009054906101000a900473ffffffffffffffffffffffffffffffffffffffff1673ffffffffffffffffffffffffffffffffffffffff166324d7806c336040518263ffffffff1660e01b815260040161023b9190610e7d565b602060405180830381865afa158015610258573d6000803e3d6000fd5b505050506040513d601f19601f8201168201806040525081019061027c91906112ab565b6102bb576040517f08c379a00000000000000000000000000000000000000000000000000000000081526004016102b290611335565b60405180910390fd5b6102c481610a7f565b50565b60606006805480602002602001604051908101604052809291908181526020016000905b8282101561039757838290600052602060002001805461030a90611384565b80601f016020809104026020016040519081016040528092919081815260200182805461033690611384565b80156103835780601f1061035857610100808354040283529160200191610383565b820191906000526020600020905b81548152906001019060200180831161036657829003601f168201915b5050505050815260200190600101906102eb565b50505050905090565b600080600080600560009054906101000a900473ffffffffffffffffffffffffffffffffffffffff1673ffffffffffffffffffffffffffffffffffffffff16632f54bf6e336040518263ffffffff1660e01b81526004016104019190610e7d565b602060405180830381865afa15801561041e573d6000803e3d6000fd5b505050506040513d601f19601f8201168201806040525081019061044291906112ab565b610481576040517f08c379a000000000000000000000000000000000000000000000000000000000815260040161047890611401565b60405180910390fd5b60008054906101000a900473ffffffffffffffffffffffffffffffffffffffff1673ffffffffffffffffffffffffffffffffffffffff1663dde798a4306040518263ffffffff1660e01b81526004016104da9190610e7d565b608060405180830381865afa1580156104f7573d6000803e3d6000fd5b505050506040513d601f19601f8201168201806040525081019061051b9190611472565b935093509350935090919293565b600560009054906101000a900473ffffffffffffffffffffffffffffffffffffffff1673ffffffffffffffffffffffffffffffffffffffff166324d7806c336040518263ffffffff1660e01b81526004016105849190610e7d565b602060405180830381865afa1580156105a1573d6000803e3d6000fd5b505050506040513d601f19601f820116820180604052508101906105c591906112ab565b610604576040517f08c379a00000000000000000000000000000000000000000000000000000000081526004016105fb90611335565b60405180910390fd5b61060d81610ab7565b50565b600560009054906101000a900473ffffffffffffffffffffffffffffffffffffffff1673ffffffffffffffffffffffffffffffffffffffff166324d7806c336040518263ffffffff1660e01b815260040161066b9190610e7d565b602060405180830381865afa158015610688573d6000803e3d6000fd5b505050506040513d601f19601f820116820180604052508101906106ac91906112ab565b6106eb576040517f08c379a00000000000000000000000000000000000000000000000000000000081526004016106e290611335565b60405180910390fd5b6106f481610c1c565b50565b600560009054906101000a900473ffffffffffffffffffffffffffffffffffffffff1673ffffffffffffffffffffffffffffffffffffffff16632f54bf6e336040518263ffffffff1660e01b81526004016107529190610e7d565b602060405180830381865afa15801561076f573d6000803e3d6000fd5b505050506040513d601f19601f8201168201806040525081019061079391906112ab565b6107d2576040517f08c379a00000000000000000000000000000000000000000000000000000000081526004016107c990611401565b60405180910390fd5b60008054906101000a900473ffffffffffffffffffffffffffffffffffffffff1673ffffffffffffffffffffffffffffffffffffffff1663954fa5ee30600560009054906101000a900473ffffffffffffffffffffffffffffffffffffffff166040518363ffffffff1660e01b815260040161084f9291906114d9565b6020604051808303816000875af115801561086e573d6000803e3d6000fd5b505050506040513d601f19601f820116820180604052508101906108929190611502565b50565b60606007805480602002602001604051908101604052809291908181526020016000905b828210156109655783829060005260206000200180546108d890611384565b80601f016020809104026020016040519081016040528092919081815260200182805461090490611384565b80156109515780601f1061092657610100808354040283529160200191610951565b820191906000526020600020905b81548152906001019060200180831161093457829003601f168201915b5050505050815260200190600101906108b9565b50505050905090565b600560009054906101000a900473ffffffffffffffffffffffffffffffffffffffff1673ffffffffffffffffffffffffffffffffffffffff166324d7806c336040518263ffffffff1660e01b81526004016109c99190610e7d565b602060405180830381865afa1580156109e6573d6000803e3d6000fd5b505050506040513d601f19601f82011682018060405250810190610a0a91906112ab565b610a49576040517f08c379a0000000000000000000000000000000000000000000000000000000008152600401610a4090611335565b60405180910390fd5b610a5281610c54565b50565b6000600360009054906101000a900473ffffffffffffffffffffffffffffffffffffffff16905090565b600781908060018154018082558091505060019003906000526020600020016000909190919091509081610ab391906116db565b5050565b60005b600680549050811015610c1857610b7760068281548110610ade57610add6117ad565b5b906000526020600020018054610af390611384565b80601f0160208091040260200160405190810160405280929190818152602001828054610b1f90611384565b8015610b6c5780601f10610b4157610100808354040283529160200191610b6c565b820191906000526020600020905b815481529060010190602001808311610b4f57829003601f168201915b505050505083610db9565b15610c0b5760066001600680549050610b90919061180b565b81548110610ba157610ba06117ad565b5b9060005260206000200160068281548110610bbf57610bbe6117ad565b5b906000526020600020019081610bd5919061186a565b506006805480610be857610be7611952565b5b600190038181906000526020600020016000610c049190610ddf565b9055610c18565b8080600101915050610aba565b5050565b600681908060018154018082558091505060019003906000526020600020016000909190919091509081610c5091906116db565b5050565b60005b600780549050811015610db557610d1460078281548110610c7b57610c7a6117ad565b5b906000526020600020018054610c9090611384565b80601f0160208091040260200160405190810160405280929190818152602001828054610cbc90611384565b8015610d095780601f10610cde57610100808354040283529160200191610d09565b820191906000526020600020905b815481529060010190602001808311610cec57829003601f168201915b505050505083610db9565b15610da85760076001600780549050610d2d919061180b565b81548110610d3e57610d3d6117ad565b5b9060005260206000200160078281548110610d5c57610d5b6117ad565b5b906000526020600020019081610d72919061186a565b506007805480610d8557610d84611952565b5b600190038181906000526020600020016000610da19190610ddf565b9055610db5565b8080600101915050610c57565b5050565b600080838051906020012090506000838051906020012090508082149250505092915050565b508054610deb90611384565b6000825580601f10610dfd5750610e1c565b601f016020900490600052602060002090810190610e1b9190610e1f565b5b50565b5b80821115610e38576000816000905550600101610e20565b5090565b600073ffffffffffffffffffffffffffffffffffffffff82169050919050565b6000610e6782610e3c565b9050919050565b610e7781610e5c565b82525050565b6000602082019050610e926000830184610e6e565b92915050565b6000604051905090565b600080fd5b600080fd5b600080fd5b600080fd5b6000601f19601f8301169050919050565b7f4e487b7100000000000000000000000000000000000000000000000000000000600052604160045260246000fd5b610eff82610eb6565b810181811067ffffffffffffffff82111715610f1e57610f1d610ec7565b5b80604052505050565b6000610f31610e98565b9050610f3d8282610ef6565b919050565b600067ffffffffffffffff821115610f5d57610f5c610ec7565b5b610f6682610eb6565b9050602081019050919050565b82818337600083830152505050565b6000610f95610f9084610f42565b610f27565b905082815260208101848484011115610fb157610fb0610eb1565b5b610fbc848285610f73565b509392505050565b600082601f830112610fd957610fd8610eac565b5b8135610fe9848260208601610f82565b91505092915050565b60006020828403121561100857611007610ea2565b5b600082013567ffffffffffffffff81111561102657611025610ea7565b5b61103284828501610fc4565b91505092915050565b600081519050919050565b600082825260208201905092915050565b6000819050602082019050919050565b600081519050919050565b600082825260208201905092915050565b60005b838110156110a1578082015181840152602081019050611086565b60008484015250505050565b60006110b882611067565b6110c28185611072565b93506110d2818560208601611083565b6110db81610eb6565b840191505092915050565b60006110f283836110ad565b905092915050565b6000602082019050919050565b60006111128261103b565b61111c8185611046565b93508360208202850161112e85611057565b8060005b8581101561116a578484038952815161114b85826110e6565b9450611156836110fa565b925060208a01995050600181019050611132565b50829750879550505050505092915050565b600060208201905081810360008301526111968184611107565b905092915050565b6000819050919050565b6111b18161119e565b82525050565b7f4e487b7100000000000000000000000000000000000000000000000000000000600052602160045260246000fd5b600281106111f7576111f66111b7565b5b50565b6000819050611208826111e6565b919050565b6000611218826111fa565b9050919050565b6112288161120d565b82525050565b600060808201905061124360008301876111a8565b61125060208301866111a8565b61125d60408301856111a8565b61126a606083018461121f565b95945050505050565b60008115159050919050565b61128881611273565b811461129357600080fd5b50565b6000815190506112a58161127f565b92915050565b6000602082840312156112c1576112c0610ea2565b5b60006112cf84828501611296565b91505092915050565b600082825260208201905092915050565b7f4f6e6c792041646d696e20686176652061207065726d697373696f6e2e000000600082015250565b600061131f601d836112d8565b915061132a826112e9565b602082019050919050565b6000602082019050818103600083015261134e81611312565b9050919050565b7f4e487b7100000000000000000000000000000000000000000000000000000000600052602260045260246000fd5b6000600282049050600182168061139c57607f821691505b6020821081036113af576113ae611355565b5b50919050565b7f4f6e6c79204f776e657220686176652061207065726d697373696f6e2e000000600082015250565b60006113eb601d836112d8565b91506113f6826113b5565b602082019050919050565b6000602082019050818103600083015261141a816113de565b9050919050565b61142a8161119e565b811461143557600080fd5b50565b60008151905061144781611421565b92915050565b6002811061145a57600080fd5b50565b60008151905061146c8161144d565b92915050565b6000806000806080858703121561148c5761148b610ea2565b5b600061149a87828801611438565b94505060206114ab87828801611438565b93505060406114bc87828801611438565b92505060606114cd8782880161145d565b91505092959194509250565b60006040820190506114ee6000830185610e6e565b6114fb6020830184610e6e565b9392505050565b60006020828403121561151857611517610ea2565b5b600061152684828501611438565b91505092915050565b60008190508160005260206000209050919050565b60006020601f8301049050919050565b600082821b905092915050565b6000600883026115917fffffffffffffffffffffffffffffffffffffffffffffffffffffffffffffffff82611554565b61159b8683611554565b95508019841693508086168417925050509392505050565b6000819050919050565b60006115d86115d36115ce8461119e565b6115b3565b61119e565b9050919050565b6000819050919050565b6115f2836115bd565b6116066115fe826115df565b848454611561565b825550505050565b600090565b61161b61160e565b6116268184846115e9565b505050565b5b8181101561164a5761163f600082611613565b60018101905061162c565b5050565b601f82111561168f576116608161152f565b61166984611544565b81016020851015611678578190505b61168c61168485611544565b83018261162b565b50505b505050565b600082821c905092915050565b60006116b260001984600802611694565b1980831691505092915050565b60006116cb83836116a1565b9150826002028217905092915050565b6116e482611067565b67ffffffffffffffff8111156116fd576116fc610ec7565b5b6117078254611384565b61171282828561164e565b600060209050601f8311600181146117455760008415611733578287015190505b61173d85826116bf565b8655506117a5565b601f1984166117538661152f565b60005b8281101561177b57848901518255600182019150602085019450602081019050611756565b868310156117985784890151611794601f8916826116a1565b8355505b6001600288020188555050505b505050505050565b7f4e487b7100000000000000000000000000000000000000000000000000000000600052603260045260246000fd5b7f4e487b7100000000000000000000000000000000000000000000000000000000600052601160045260246000fd5b60006118168261119e565b91506118218361119e565b9250828203905081811115611839576118386117dc565b5b92915050565b60008154905061184e81611384565b9050919050565b60008190508160005260206000209050919050565b818103611878575050611950565b6118818261183f565b67ffffffffffffffff81111561189a57611899610ec7565b5b6118a48254611384565b6118af82828561164e565b6000601f8311600181146118de57600084156118cc578287015490505b6118d685826116bf565b865550611949565b601f1984166118ec87611855565b96506118f78661152f565b60005b8281101561191f578489015482556001820191506001850194506020810190506118fa565b8683101561193c5784890154611938601f8916826116a1565b8355505b6001600288020188555050505b5050505050505b565b7f4e487b7100000000000000000000000000000000000000000000000000000000600052603160045260246000fdfea26469706673582212207e8d9e62f987123d1becefe13fd5c7549227b59667cf27fb6207ecca81b1abad64736f6c63430008180033",
  "linkReferences": {},
  "deployedLinkReferences": {}
}