{
  "data": {
    "bytecode": {
      "linkReferences": {},
      "object": "60806040525f600b555f600e55348015610017575f80fd5b5060405161630f38038061630f833981810160405281019061003991906106ee565b82600a5f6101000a81548173ffffffffffffffffffffffffffffffffffffffff021916908373ffffffffffffffffffffffffffffffffffffffff1602179055508260045f6101000a81548173ffffffffffffffffffffffffffffffffffffffff021916908373ffffffffffffffffffffffffffffffffffffffff16021790555073430000000000000000000000000000000000000260055f6101000a81548173ffffffffffffffffffffffffffffffffffffffff021916908373ffffffffffffffffffffffffffffffffffffffff16021790555060055f9054906101000a900473ffffffffffffffffffffffffffffffffffffffff165f806101000a81548173ffffffffffffffffffffffffffffffffffffffff021916908373ffffffffffffffffffffffffffffffffffffffff1602179055505f8054906101000a900473ffffffffffffffffffffffffffffffffffffffff1673ffffffffffffffffffffffffffffffffffffffff16634e606c476040518163ffffffff1660e01b81526004015f604051808303815f87803b1580156101d1575f80fd5b505af11580156101e3573d5f803e3d5ffd5b505050508160065f6101000a81548173ffffffffffffffffffffffffffffffffffffffff021916908373ffffffffffffffffffffffffffffffffffffffff1602179055508060075f6101000a81548173ffffffffffffffffffffffffffffffffffffffff021916908373ffffffffffffffffffffffffffffffffffffffff16021790555060065f9054906101000a900473ffffffffffffffffffffffffffffffffffffffff1660015f6101000a81548173ffffffffffffffffffffffffffffffffffffffff021916908373ffffffffffffffffffffffffffffffffffffffff16021790555060015f9054906101000a900473ffffffffffffffffffffffffffffffffffffffff1673ffffffffffffffffffffffffffffffffffffffff166336b91f2b60075f9054906101000a900473ffffffffffffffffffffffffffffffffffffffff166040518263ffffffff1660e01b81526004016103439190610774565b5f604051808303815f87803b15801561035a575f80fd5b505af115801561036c573d5f803e3d5ffd5b5050505061037f8561039860201b60201c565b61038e8461051460201b60201c565b5050505050610865565b60045f9054906101000a900473ffffffffffffffffffffffffffffffffffffffff1673ffffffffffffffffffffffffffffffffffffffff16632f54bf6e336040518263ffffffff1660e01b81526004016103f29190610774565b602060405180830381865afa15801561040d573d5f803e3d5ffd5b505050506040513d601f19601f8201168201806040525081019061043191906107c2565b610470576040517f08c379a000000000000000000000000000000000000000000000000000000000815260040161046790610847565b60405180910390fd5b8060085f6101000a81548173ffffffffffffffffffffffffffffffffffffffff021916908373ffffffffffffffffffffffffffffffffffffffff16021790555060085f9054906101000a900473ffffffffffffffffffffffffffffffffffffffff1660025f6101000a81548173ffffffffffffffffffffffffffffffffffffffff021916908373ffffffffffffffffffffffffffffffffffffffff16021790555050565b60045f9054906101000a900473ffffffffffffffffffffffffffffffffffffffff1673ffffffffffffffffffffffffffffffffffffffff16632f54bf6e336040518263ffffffff1660e01b815260040161056e9190610774565b602060405180830381865afa158015610589573d5f803e3d5ffd5b505050506040513d601f19601f820116820180604052508101906105ad91906107c2565b6105ec576040517f08c379a00000000000000000000000000000000000000000000000000000000081526004016105e390610847565b60405180910390fd5b8060095f6101000a81548173ffffffffffffffffffffffffffffffffffffffff021916908373ffffffffffffffffffffffffffffffffffffffff16021790555060095f9054906101000a900473ffffffffffffffffffffffffffffffffffffffff1660035f6101000a81548173ffffffffffffffffffffffffffffffffffffffff021916908373ffffffffffffffffffffffffffffffffffffffff16021790555050565b5f80fd5b5f73ffffffffffffffffffffffffffffffffffffffff82169050919050565b5f6106bd82610694565b9050919050565b6106cd816106b3565b81146106d7575f80fd5b50565b5f815190506106e8816106c4565b92915050565b5f805f805f60a0868803121561070757610706610690565b5b5f610714888289016106da565b9550506020610725888289016106da565b9450506040610736888289016106da565b9350506060610747888289016106da565b9250506080610758888289016106da565b9150509295509295909350565b61076e816106b3565b82525050565b5f6020820190506107875f830184610765565b92915050565b5f8115159050919050565b6107a18161078d565b81146107ab575f80fd5b50565b5f815190506107bc81610798565b92915050565b5f602082840312156107d7576107d6610690565b5b5f6107e4848285016107ae565b91505092915050565b5f82825260208201905092915050565b7f4f6e6c79204f776e657220686176652061207065726d697373696f6e2e0000005f82015250565b5f610831601d836107ed565b915061083c826107fd565b602082019050919050565b5f6020820190508181035f83015261085e81610825565b9050919050565b615a9d806108725f395ff3fe608060405234801561000f575f80fd5b5060043610610135575f3560e01c80637c7a61d5116100b6578063b5394d1f1161007a578063b5394d1f14610328578063b762ee7914610344578063baf5470814610362578063cdb219c514610392578063e19d62b8146103b0578063e6c227ce146103ce57610135565b80637c7a61d5146102605780639b174dc01461027c5780639d443a00146102ac578063a3b6710c146102dc578063b0b8a591146102f857610135565b8063491ae348116100fd578063491ae348146101dd5780634b36859e146101fe5780635992df6b1461021a5780636100f95114610238578063645dd1fa1461025657610135565b806303ca540b14610139578063057d82ad14610155578063092b2410146101735780630ee524e2146101915780632cfebe0a146101c1575b5f80fd5b610153600480360381019061014e9190614433565b6103ec565b005b61015d610568565b60405161016a919061446d565b60405180910390f35b61017b610590565b604051610188919061449e565b60405180910390f35b6101ab60048036038101906101a691906144e1565b6105a0565b6040516101b89190614715565b60405180910390f35b6101db60048036038101906101d691906144e1565b6109a7565b005b6101e5610ef7565b6040516101f5949392919061477b565b60405180910390f35b610218600480360381019061021391906144e1565b611078565b005b6102226112f5565b60405161022f9190614981565b60405180910390f35b61024061186e565b60405161024d919061446d565b60405180910390f35b61025e611896565b005b61027a60048036038101906102759190614433565b611a2c565b005b61029660048036038101906102919190614433565b611ba8565b6040516102a39190614981565b60405180910390f35b6102c660048036038101906102c19190614433565b6120a2565b6040516102d3919061449e565b60405180910390f35b6102f660048036038101906102f191906144e1565b6120e8565b005b610312600480360381019061030d9190614acd565b6122c6565b60405161031f919061449e565b60405180910390f35b610342600480360381019061033d9190614bf6565b612839565b005b61034c612a26565b6040516103599190614981565b60405180910390f35b61037c600480360381019061037791906144e1565b612ec9565b6040516103899190614cf7565b60405180910390f35b61039a6130c5565b6040516103a7919061446d565b60405180910390f35b6103b86130ed565b6040516103c5919061446d565b60405180910390f35b6103d6613115565b6040516103e3919061449e565b60405180910390f35b60045f9054906101000a900473ffffffffffffffffffffffffffffffffffffffff1673ffffffffffffffffffffffffffffffffffffffff16632f54bf6e336040518263ffffffff1660e01b8152600401610446919061446d565b602060405180830381865afa158015610461573d5f803e3d5ffd5b505050506040513d601f19601f820116820180604052508101906104859190614d3a565b6104c4576040517f08c379a00000000000000000000000000000000000000000000000000000000081526004016104bb90614dbf565b60405180910390fd5b8060095f6101000a81548173ffffffffffffffffffffffffffffffffffffffff021916908373ffffffffffffffffffffffffffffffffffffffff16021790555060095f9054906101000a900473ffffffffffffffffffffffffffffffffffffffff1660035f6101000a81548173ffffffffffffffffffffffffffffffffffffffff021916908373ffffffffffffffffffffffffffffffffffffffff16021790555050565b5f60075f9054906101000a900473ffffffffffffffffffffffffffffffffffffffff16905090565b5f61059b600161311e565b905090565b6105a86142f4565b5f600c5f8481526020019081526020015f205f0154116105fd576040517f08c379a00000000000000000000000000000000000000000000000000000000081526004016105f490614e27565b60405180910390fd5b600c5f8381526020019081526020015f20604051806101600160405290815f820154815260200160018201805461063390614e72565b80601f016020809104026020016040519081016040528092919081815260200182805461065f90614e72565b80156106aa5780601f10610681576101008083540402835291602001916106aa565b820191905f5260205f20905b81548152906001019060200180831161068d57829003601f168201915b505050505081526020016002820180546106c390614e72565b80601f01602080910402602001604051908101604052809291908181526020018280546106ef90614e72565b801561073a5780601f106107115761010080835404028352916020019161073a565b820191905f5260205f20905b81548152906001019060200180831161071d57829003601f168201915b5050505050815260200160038201805461075390614e72565b80601f016020809104026020016040519081016040528092919081815260200182805461077f90614e72565b80156107ca5780601f106107a1576101008083540402835291602001916107ca565b820191905f5260205f20905b8154815290600101906020018083116107ad57829003601f168201915b5050505050815260200160048201548152602001600582015f9054906101000a900473ffffffffffffffffffffffffffffffffffffffff1673ffffffffffffffffffffffffffffffffffffffff1673ffffffffffffffffffffffffffffffffffffffff16815260200160068201805461084290614e72565b80601f016020809104026020016040519081016040528092919081815260200182805461086e90614e72565b80156108b95780601f10610890576101008083540402835291602001916108b9565b820191905f5260205f20905b81548152906001019060200180831161089c57829003601f168201915b50505050508152602001600782015481526020016008820180546108dc90614e72565b80601f016020809104026020016040519081016040528092919081815260200182805461090890614e72565b80156109535780601f1061092a57610100808354040283529160200191610953565b820191905f5260205f20905b81548152906001019060200180831161093657829003601f168201915b50505050508152602001600982015f9054906101000a900460ff1660038111156109805761097f61459a565b5b60038111156109925761099161459a565b5b8152602001600a820154815250509050919050565b60045f9054906101000a900473ffffffffffffffffffffffffffffffffffffffff1673ffffffffffffffffffffffffffffffffffffffff166324d7806c336040518263ffffffff1660e01b8152600401610a01919061446d565b602060405180830381865afa158015610a1c573d5f803e3d5ffd5b505050506040513d601f19601f82011682018060405250810190610a409190614d3a565b610a7f576040517f08c379a0000000000000000000000000000000000000000000000000000000008152600401610a7690614eec565b60405180910390fd5b5f600c5f8381526020019081526020015f206005015f9054906101000a900473ffffffffffffffffffffffffffffffffffffffff1690505f73ffffffffffffffffffffffffffffffffffffffff168173ffffffffffffffffffffffffffffffffffffffff1603610b24576040517f08c379a0000000000000000000000000000000000000000000000000000000008152600401610b1b90614f54565b60405180910390fd5b5f6003811115610b3757610b3661459a565b5b600c5f8481526020019081526020015f206009015f9054906101000a900460ff166003811115610b6a57610b6961459a565b5b14610baa576040517f08c379a0000000000000000000000000000000000000000000000000000000008152600401610ba190614fbc565b60405180910390fd5b5f600c5f8481526020019081526020015f206001018054610bca90614e72565b80601f0160208091040260200160405190810160405280929190818152602001828054610bf690614e72565b8015610c415780601f10610c1857610100808354040283529160200191610c41565b820191905f5260205f20905b815481529060010190602001808311610c2457829003601f168201915b505050505090505f600c5f8581526020019081526020015f206003018054610c6890614e72565b80601f0160208091040260200160405190810160405280929190818152602001828054610c9490614e72565b8015610cdf5780601f10610cb657610100808354040283529160200191610cdf565b820191905f5260205f20905b815481529060010190602001808311610cc257829003601f168201915b505050505090505f610cf360018484613183565b90505f811115610df057610d59600c5f8381526020019081526020015f2060040154600c5f8481526020019081526020015f2060070154600c5f8981526020019081526020015f2060040154600c5f8a81526020019081526020015f206007015461337e565b610d628161341d565b60035f9054906101000a900473ffffffffffffffffffffffffffffffffffffffff1673ffffffffffffffffffffffffffffffffffffffff166319e9ee7585426040518363ffffffff1660e01b8152600401610dbe929190614fda565b5f604051808303815f87803b158015610dd5575f80fd5b505af1158015610de7573d5f803e3d5ffd5b50505050610e7a565b60035f9054906101000a900473ffffffffffffffffffffffffffffffffffffffff1673ffffffffffffffffffffffffffffffffffffffff166372316ef385426040518363ffffffff1660e01b8152600401610e4c929190614fda565b5f604051808303815f87803b158015610e63575f80fd5b505af1158015610e75573d5f803e3d5ffd5b505050505b6001600c5f8781526020019081526020015f206009015f6101000a81548160ff02191690836003811115610eb157610eb061459a565b5b02179055507fbf010aba48e49020ed90d2f6b9ae36c27e06a48f276aa44d6594e44347cb5cad856001604051610ee8929190615010565b60405180910390a15050505050565b5f805f8060045f9054906101000a900473ffffffffffffffffffffffffffffffffffffffff1673ffffffffffffffffffffffffffffffffffffffff16632f54bf6e336040518263ffffffff1660e01b8152600401610f55919061446d565b602060405180830381865afa158015610f70573d5f803e3d5ffd5b505050506040513d601f19601f82011682018060405250810190610f949190614d3a565b610fd3576040517f08c379a0000000000000000000000000000000000000000000000000000000008152600401610fca90614dbf565b60405180910390fd5b5f8054906101000a900473ffffffffffffffffffffffffffffffffffffffff1673ffffffffffffffffffffffffffffffffffffffff1663dde798a4306040518263ffffffff1660e01b815260040161102b919061446d565b608060405180830381865afa158015611046573d5f803e3d5ffd5b505050506040513d601f19601f8201168201806040525081019061106a919061506e565b935093509350935090919293565b60045f9054906101000a900473ffffffffffffffffffffffffffffffffffffffff1673ffffffffffffffffffffffffffffffffffffffff166324d7806c336040518263ffffffff1660e01b81526004016110d2919061446d565b602060405180830381865afa1580156110ed573d5f803e3d5ffd5b505050506040513d601f19601f820116820180604052508101906111119190614d3a565b611150576040517f08c379a000000000000000000000000000000000000000000000000000000000815260040161114790614eec565b60405180910390fd5b5f600c5f8381526020019081526020015f205f0154116111a5576040517f08c379a000000000000000000000000000000000000000000000000000000000815260040161119c90614e27565b60405180910390fd5b5f60038111156111b8576111b761459a565b5b600c5f8381526020019081526020015f206009015f9054906101000a900460ff1660038111156111eb576111ea61459a565b5b1461122b576040517f08c379a000000000000000000000000000000000000000000000000000000000815260040161122290614fbc565b60405180910390fd5b61127c600c5f8381526020019081526020015f206005015f9054906101000a900473ffffffffffffffffffffffffffffffffffffffff16600c5f8481526020019081526020015f206007015461369b565b6002600c5f8381526020019081526020015f206009015f6101000a81548160ff021916908360038111156112b3576112b261459a565b5b02179055507fbf010aba48e49020ed90d2f6b9ae36c27e06a48f276aa44d6594e44347cb5cad8160026040516112ea929190615010565b60405180910390a150565b606060045f9054906101000a900473ffffffffffffffffffffffffffffffffffffffff1673ffffffffffffffffffffffffffffffffffffffff166324d7806c336040518263ffffffff1660e01b8152600401611351919061446d565b602060405180830381865afa15801561136c573d5f803e3d5ffd5b505050506040513d601f19601f820116820180604052508101906113909190614d3a565b6113cf576040517f08c379a00000000000000000000000000000000000000000000000000000000081526004016113c690614eec565b60405180910390fd5b5f6113d95f61311e565b90505f8167ffffffffffffffff8111156113f6576113f56149a9565b5b60405190808252806020026020018201604052801561142f57816020015b61141c6142f4565b8152602001906001900390816114145790505b5090505f805b600d8054905081101561186457611468600d8281548110611459576114586150d2565b5b905f5260205f2001545f6139f7565b1561185757600c5f600d8381548110611484576114836150d2565b5b905f5260205f20015481526020019081526020015f20604051806101600160405290815f82015481526020016001820180546114bf90614e72565b80601f01602080910402602001604051908101604052809291908181526020018280546114eb90614e72565b80156115365780601f1061150d57610100808354040283529160200191611536565b820191905f5260205f20905b81548152906001019060200180831161151957829003601f168201915b5050505050815260200160028201805461154f90614e72565b80601f016020809104026020016040519081016040528092919081815260200182805461157b90614e72565b80156115c65780601f1061159d576101008083540402835291602001916115c6565b820191905f5260205f20905b8154815290600101906020018083116115a957829003601f168201915b505050505081526020016003820180546115df90614e72565b80601f016020809104026020016040519081016040528092919081815260200182805461160b90614e72565b80156116565780601f1061162d57610100808354040283529160200191611656565b820191905f5260205f20905b81548152906001019060200180831161163957829003601f168201915b5050505050815260200160048201548152602001600582015f9054906101000a900473ffffffffffffffffffffffffffffffffffffffff1673ffffffffffffffffffffffffffffffffffffffff1673ffffffffffffffffffffffffffffffffffffffff1681526020016006820180546116ce90614e72565b80601f01602080910402602001604051908101604052809291908181526020018280546116fa90614e72565b80156117455780601f1061171c57610100808354040283529160200191611745565b820191905f5260205f20905b81548152906001019060200180831161172857829003601f168201915b505050505081526020016007820154815260200160088201805461176890614e72565b80601f016020809104026020016040519081016040528092919081815260200182805461179490614e72565b80156117df5780601f106117b6576101008083540402835291602001916117df565b820191905f5260205f20905b8154815290600101906020018083116117c257829003601f168201915b50505050508152602001600982015f9054906101000a900460ff16600381111561180c5761180b61459a565b5b600381111561181e5761181d61459a565b5b8152602001600a820154815250508383806118389061512c565b94508151811061184b5761184a6150d2565b5b60200260200101819052505b8080600101915050611435565b5081935050505090565b5f60085f9054906101000a900473ffffffffffffffffffffffffffffffffffffffff16905090565b60045f9054906101000a900473ffffffffffffffffffffffffffffffffffffffff1673ffffffffffffffffffffffffffffffffffffffff16632f54bf6e336040518263ffffffff1660e01b81526004016118f0919061446d565b602060405180830381865afa15801561190b573d5f803e3d5ffd5b505050506040513d601f19601f8201168201806040525081019061192f9190614d3a565b61196e576040517f08c379a000000000000000000000000000000000000000000000000000000000815260040161196590614dbf565b60405180910390fd5b5f8054906101000a900473ffffffffffffffffffffffffffffffffffffffff1673ffffffffffffffffffffffffffffffffffffffff1663954fa5ee30600a5f9054906101000a900473ffffffffffffffffffffffffffffffffffffffff166040518363ffffffff1660e01b81526004016119e9929190615173565b6020604051808303815f875af1158015611a05573d5f803e3d5ffd5b505050506040513d601f19601f82011682018060405250810190611a29919061519a565b50565b60045f9054906101000a900473ffffffffffffffffffffffffffffffffffffffff1673ffffffffffffffffffffffffffffffffffffffff16632f54bf6e336040518263ffffffff1660e01b8152600401611a86919061446d565b602060405180830381865afa158015611aa1573d5f803e3d5ffd5b505050506040513d601f19601f82011682018060405250810190611ac59190614d3a565b611b04576040517f08c379a0000000000000000000000000000000000000000000000000000000008152600401611afb90614dbf565b60405180910390fd5b8060085f6101000a81548173ffffffffffffffffffffffffffffffffffffffff021916908373ffffffffffffffffffffffffffffffffffffffff16021790555060085f9054906101000a900473ffffffffffffffffffffffffffffffffffffffff1660025f6101000a81548173ffffffffffffffffffffffffffffffffffffffff021916908373ffffffffffffffffffffffffffffffffffffffff16021790555050565b60605f611bb483613a47565b90505f8167ffffffffffffffff811115611bd157611bd06149a9565b5b604051908082528060200260200182016040528015611c0a57816020015b611bf76142f4565b815260200190600190039081611bef5790505b5090505f805b600d80549050811015612096578573ffffffffffffffffffffffffffffffffffffffff16600c5f600d8481548110611c4b57611c4a6150d2565b5b905f5260205f20015481526020019081526020015f206005015f9054906101000a900473ffffffffffffffffffffffffffffffffffffffff1673ffffffffffffffffffffffffffffffffffffffff160361208957600c5f600d8381548110611cb657611cb56150d2565b5b905f5260205f20015481526020019081526020015f20604051806101600160405290815f8201548152602001600182018054611cf190614e72565b80601f0160208091040260200160405190810160405280929190818152602001828054611d1d90614e72565b8015611d685780601f10611d3f57610100808354040283529160200191611d68565b820191905f5260205f20905b815481529060010190602001808311611d4b57829003601f168201915b50505050508152602001600282018054611d8190614e72565b80601f0160208091040260200160405190810160405280929190818152602001828054611dad90614e72565b8015611df85780601f10611dcf57610100808354040283529160200191611df8565b820191905f5260205f20905b815481529060010190602001808311611ddb57829003601f168201915b50505050508152602001600382018054611e1190614e72565b80601f0160208091040260200160405190810160405280929190818152602001828054611e3d90614e72565b8015611e885780601f10611e5f57610100808354040283529160200191611e88565b820191905f5260205f20905b815481529060010190602001808311611e6b57829003601f168201915b5050505050815260200160048201548152602001600582015f9054906101000a900473ffffffffffffffffffffffffffffffffffffffff1673ffffffffffffffffffffffffffffffffffffffff1673ffffffffffffffffffffffffffffffffffffffff168152602001600682018054611f0090614e72565b80601f0160208091040260200160405190810160405280929190818152602001828054611f2c90614e72565b8015611f775780601f10611f4e57610100808354040283529160200191611f77565b820191905f5260205f20905b815481529060010190602001808311611f5a57829003601f168201915b5050505050815260200160078201548152602001600882018054611f9a90614e72565b80601f0160208091040260200160405190810160405280929190818152602001828054611fc690614e72565b80156120115780601f10611fe857610100808354040283529160200191612011565b820191905f5260205f20905b815481529060010190602001808311611ff457829003601f168201915b50505050508152602001600982015f9054906101000a900460ff16600381111561203e5761203d61459a565b5b60038111156120505761204f61459a565b5b8152602001600a8201548152505083838061206a9061512c565b94508151811061207d5761207c6150d2565b5b60200260200101819052505b8080600101915050611c10565b50819350505050919050565b5f600f5f8373ffffffffffffffffffffffffffffffffffffffff1673ffffffffffffffffffffffffffffffffffffffff1681526020019081526020015f20549050919050565b60045f9054906101000a900473ffffffffffffffffffffffffffffffffffffffff1673ffffffffffffffffffffffffffffffffffffffff166324d7806c336040518263ffffffff1660e01b8152600401612142919061446d565b602060405180830381865afa15801561215d573d5f803e3d5ffd5b505050506040513d601f19601f820116820180604052508101906121819190614d3a565b6121c0576040517f08c379a00000000000000000000000000000000000000000000000000000000081526004016121b790614eec565b60405180910390fd5b5f600c5f8381526020019081526020015f205f015411612215576040517f08c379a000000000000000000000000000000000000000000000000000000000815260040161220c90614e27565b60405180910390fd5b600160038111156122295761222861459a565b5b600c5f8381526020019081526020015f206009015f9054906101000a900460ff16600381111561225c5761225b61459a565b5b1461229c576040517f08c379a00000000000000000000000000000000000000000000000000000000081526004016122939061520f565b60405180910390fd5b6122ba33600c5f8481526020019081526020015f206007015461369b565b6122c381613b03565b50565b5f8260025f9054906101000a900473ffffffffffffffffffffffffffffffffffffffff1673ffffffffffffffffffffffffffffffffffffffff166370a08231336040518263ffffffff1660e01b8152600401612322919061446d565b602060405180830381865afa15801561233d573d5f803e3d5ffd5b505050506040513d601f19601f82011682018060405250810190612361919061519a565b10156123a2576040517f08c379a000000000000000000000000000000000000000000000000000000000815260040161239990615277565b60405180910390fd5b8260025f9054906101000a900473ffffffffffffffffffffffffffffffffffffffff1673ffffffffffffffffffffffffffffffffffffffff1663dd62ed3e33306040518363ffffffff1660e01b81526004016123ff929190615173565b602060405180830381865afa15801561241a573d5f803e3d5ffd5b505050506040513d601f19601f8201168201806040525081019061243e919061519a565b101561247f576040517f08c379a0000000000000000000000000000000000000000000000000000000008152600401612476906152df565b60405180910390fd5b61248a338988613c84565b156124ca576040517f08c379a00000000000000000000000000000000000000000000000000000000081526004016124c190615347565b60405180910390fd5b5f6124d760018a89613183565b90505f81111561251657612515600c5f8381526020019081526020015f2060040154600c5f8481526020019081526020015f2060070154888761337e565b5b60025f9054906101000a900473ffffffffffffffffffffffffffffffffffffffff1673ffffffffffffffffffffffffffffffffffffffff166323b872dd3330876040518463ffffffff1660e01b815260040161257493929190615365565b6020604051808303815f875af1158015612590573d5f803e3d5ffd5b505050506040513d601f19601f820116820180604052508101906125b49190614d3a565b5083600e5f8282546125c6919061539a565b9250508190555083600f5f3373ffffffffffffffffffffffffffffffffffffffff1673ffffffffffffffffffffffffffffffffffffffff1681526020019081526020015f205f828254612619919061539a565b925050819055505f612629613eea565b90506040518061016001604052808281526020018b81526020018a81526020018981526020018881526020013373ffffffffffffffffffffffffffffffffffffffff1681526020018781526020018681526020018581526020015f60038111156126965761269561459a565b5b815260200142815250600c5f8381526020019081526020015f205f820151815f015560208201518160010190816126cd919061556a565b5060408201518160020190816126e3919061556a565b5060608201518160030190816126f9919061556a565b506080820151816004015560a0820151816005015f6101000a81548173ffffffffffffffffffffffffffffffffffffffff021916908373ffffffffffffffffffffffffffffffffffffffff16021790555060c082015181600601908161275f919061556a565b5060e08201518160070155610100820151816008019081612780919061556a565b50610120820151816009015f6101000a81548160ff021916908360038111156127ac576127ab61459a565b5b021790555061014082015181600a0155905050600d81908060018154018082558091505060019003905f5260205f20015f90919091909150556127f0338b8a613f04565b7fbf010aba48e49020ed90d2f6b9ae36c27e06a48f276aa44d6594e44347cb5cad835f604051612821929190615010565b60405180910390a18092505050979650505050505050565b60045f9054906101000a900473ffffffffffffffffffffffffffffffffffffffff1673ffffffffffffffffffffffffffffffffffffffff166324d7806c336040518263ffffffff1660e01b8152600401612893919061446d565b602060405180830381865afa1580156128ae573d5f803e3d5ffd5b505050506040513d601f19601f820116820180604052508101906128d29190614d3a565b612911576040517f08c379a000000000000000000000000000000000000000000000000000000000815260040161290890614eec565b60405180910390fd5b5f60038111156129245761292361459a565b5b600c5f8781526020019081526020015f206009015f9054906101000a900460ff1660038111156129575761295661459a565b5b14612997576040517f08c379a000000000000000000000000000000000000000000000000000000000815260040161298e90614fbc565b60405180910390fd5b83600c5f8781526020019081526020015f2060010190816129b8919061556a565b5082600c5f8781526020019081526020015f2060020190816129da919061556a565b5081600c5f8781526020019081526020015f2060030190816129fc919061556a565b5080600c5f8781526020019081526020015f206008019081612a1e919061556a565b505050505050565b60605f612a33600161311e565b90505f8167ffffffffffffffff811115612a5057612a4f6149a9565b5b604051908082528060200260200182016040528015612a8957816020015b612a766142f4565b815260200190600190039081612a6e5790505b5090505f805b600d80549050811015612ebf57612ac3600d8281548110612ab357612ab26150d2565b5b905f5260205f20015460016139f7565b15612eb257600c5f600d8381548110612adf57612ade6150d2565b5b905f5260205f20015481526020019081526020015f20604051806101600160405290815f8201548152602001600182018054612b1a90614e72565b80601f0160208091040260200160405190810160405280929190818152602001828054612b4690614e72565b8015612b915780601f10612b6857610100808354040283529160200191612b91565b820191905f5260205f20905b815481529060010190602001808311612b7457829003601f168201915b50505050508152602001600282018054612baa90614e72565b80601f0160208091040260200160405190810160405280929190818152602001828054612bd690614e72565b8015612c215780601f10612bf857610100808354040283529160200191612c21565b820191905f5260205f20905b815481529060010190602001808311612c0457829003601f168201915b50505050508152602001600382018054612c3a90614e72565b80601f0160208091040260200160405190810160405280929190818152602001828054612c6690614e72565b8015612cb15780601f10612c8857610100808354040283529160200191612cb1565b820191905f5260205f20905b815481529060010190602001808311612c9457829003601f168201915b5050505050815260200160048201548152602001600582015f9054906101000a900473ffffffffffffffffffffffffffffffffffffffff1673ffffffffffffffffffffffffffffffffffffffff1673ffffffffffffffffffffffffffffffffffffffff168152602001600682018054612d2990614e72565b80601f0160208091040260200160405190810160405280929190818152602001828054612d5590614e72565b8015612da05780601f10612d7757610100808354040283529160200191612da0565b820191905f5260205f20905b815481529060010190602001808311612d8357829003601f168201915b5050505050815260200160078201548152602001600882018054612dc390614e72565b80601f0160208091040260200160405190810160405280929190818152602001828054612def90614e72565b8015612e3a5780601f10612e1157610100808354040283529160200191612e3a565b820191905f5260205f20905b815481529060010190602001808311612e1d57829003601f168201915b50505050508152602001600982015f9054906101000a900460ff166003811115612e6757612e6661459a565b5b6003811115612e7957612e7861459a565b5b8152602001600a82015481525050838380612e939061512c565b945081518110612ea657612ea56150d2565b5b60200260200101819052505b8080600101915050612a8f565b5081935050505090565b5f3373ffffffffffffffffffffffffffffffffffffffff16600c5f8481526020019081526020015f206005015f9054906101000a900473ffffffffffffffffffffffffffffffffffffffff1673ffffffffffffffffffffffffffffffffffffffff1614612f6b576040517f08c379a0000000000000000000000000000000000000000000000000000000008152600401612f6290615683565b60405180910390fd5b5f600c5f8481526020019081526020015f205f015411612fc0576040517f08c379a0000000000000000000000000000000000000000000000000000000008152600401612fb790614e27565b60405180910390fd5b60016003811115612fd457612fd361459a565b5b600c5f8481526020019081526020015f206009015f9054906101000a900460ff1660038111156130075761300661459a565b5b148061305657505f60038111156130215761302061459a565b5b600c5f8481526020019081526020015f206009015f9054906101000a900460ff1660038111156130545761305361459a565b5b145b613095576040517f08c379a000000000000000000000000000000000000000000000000000000000815260040161308c906156eb565b60405180910390fd5b6130b333600c5f8581526020019081526020015f206007015461369b565b6130bc82613b03565b60019050919050565b5f60095f9054906101000a900473ffffffffffffffffffffffffffffffffffffffff16905090565b5f60065f9054906101000a900473ffffffffffffffffffffffffffffffffffffffff16905090565b5f600e54905090565b5f805f90505f5b600d8054905081101561317957613158600d8281548110613149576131486150d2565b5b905f5260205f200154856139f7565b1561316c5781806131689061512c565b9250505b8080600101915050613125565b5080915050919050565b5f805f90505b600d80549050811015613372575f600d82815481106131ab576131aa6150d2565b5b905f5260205f20015490508560038111156131c9576131c861459a565b5b600c5f8381526020019081526020015f206009015f9054906101000a900460ff1660038111156131fc576131fb61459a565b5b1480156132a957506132a8600c5f8381526020019081526020015f20600101805461322690614e72565b80601f016020809104026020016040519081016040528092919081815260200182805461325290614e72565b801561329d5780601f106132745761010080835404028352916020019161329d565b820191905f5260205f20905b81548152906001019060200180831161328057829003601f168201915b5050505050866142d0565b5b80156133555750613354600c5f8381526020019081526020015f2060030180546132d290614e72565b80601f01602080910402602001604051908101604052809291908181526020018280546132fe90614e72565b80156133495780601f1061332057610100808354040283529160200191613349565b820191905f5260205f20905b81548152906001019060200180831161332c57829003601f168201915b5050505050856142d0565b5b15613364578092505050613377565b508080600101915050613189565b505f90505b9392505050565b5f81116133c0576040517f08c379a00000000000000000000000000000000000000000000000000000000081526004016133b790615753565b60405180910390fd5b838211806133d8575083821480156133d757508281115b5b613417576040517f08c379a000000000000000000000000000000000000000000000000000000000815260040161340e906157e1565b60405180910390fd5b50505050565b60045f9054906101000a900473ffffffffffffffffffffffffffffffffffffffff1673ffffffffffffffffffffffffffffffffffffffff166324d7806c336040518263ffffffff1660e01b8152600401613477919061446d565b602060405180830381865afa158015613492573d5f803e3d5ffd5b505050506040513d601f19601f820116820180604052508101906134b69190614d3a565b6134f5576040517f08c379a00000000000000000000000000000000000000000000000000000000081526004016134ec90614eec565b60405180910390fd5b5f600c5f8381526020019081526020015f205f01541161354a576040517f08c379a000000000000000000000000000000000000000000000000000000000815260040161354190614e27565b60405180910390fd5b6001600381111561355e5761355d61459a565b5b600c5f8381526020019081526020015f206009015f9054906101000a900460ff1660038111156135915761359061459a565b5b146135d1576040517f08c379a00000000000000000000000000000000000000000000000000000000081526004016135c89061520f565b60405180910390fd5b613622600c5f8381526020019081526020015f206005015f9054906101000a900473ffffffffffffffffffffffffffffffffffffffff16600c5f8481526020019081526020015f206007015461369b565b6003600c5f8381526020019081526020015f206009015f6101000a81548160ff021916908360038111156136595761365861459a565b5b02179055507fbf010aba48e49020ed90d2f6b9ae36c27e06a48f276aa44d6594e44347cb5cad816003604051613690929190615010565b60405180910390a150565b5f73ffffffffffffffffffffffffffffffffffffffff168273ffffffffffffffffffffffffffffffffffffffff1603613709576040517f08c379a000000000000000000000000000000000000000000000000000000000815260040161370090615849565b60405180910390fd5b5f811161374b576040517f08c379a0000000000000000000000000000000000000000000000000000000008152600401613742906158b1565b60405180910390fd5b80600e541015613790576040517f08c379a000000000000000000000000000000000000000000000000000000000815260040161378790615919565b60405180910390fd5b80600f5f8473ffffffffffffffffffffffffffffffffffffffff1673ffffffffffffffffffffffffffffffffffffffff1681526020019081526020015f20541015613810576040517f08c379a000000000000000000000000000000000000000000000000000000000815260040161380790615981565b60405180910390fd5b8060025f9054906101000a900473ffffffffffffffffffffffffffffffffffffffff1673ffffffffffffffffffffffffffffffffffffffff166370a08231306040518263ffffffff1660e01b815260040161386b919061446d565b602060405180830381865afa158015613886573d5f803e3d5ffd5b505050506040513d601f19601f820116820180604052508101906138aa919061519a565b10156138eb576040517f08c379a00000000000000000000000000000000000000000000000000000000081526004016138e2906159e9565b60405180910390fd5b60025f9054906101000a900473ffffffffffffffffffffffffffffffffffffffff1673ffffffffffffffffffffffffffffffffffffffff1663a9059cbb83836040518363ffffffff1660e01b8152600401613947929190614fda565b6020604051808303815f875af1158015613963573d5f803e3d5ffd5b505050506040513d601f19601f820116820180604052508101906139879190614d3a565b5080600e5f8282546139999190615a07565b9250508190555080600f5f8473ffffffffffffffffffffffffffffffffffffffff1673ffffffffffffffffffffffffffffffffffffffff1681526020019081526020015f205f8282546139ec9190615a07565b925050819055505050565b5f816003811115613a0b57613a0a61459a565b5b600c5f8581526020019081526020015f206009015f9054906101000a900460ff166003811115613a3e57613a3d61459a565b5b14905092915050565b5f805f90505f5b600d80549050811015613af9578373ffffffffffffffffffffffffffffffffffffffff16600c5f600d8481548110613a8957613a886150d2565b5b905f5260205f20015481526020019081526020015f206005015f9054906101000a900473ffffffffffffffffffffffffffffffffffffffff1673ffffffffffffffffffffffffffffffffffffffff1603613aec578180613ae89061512c565b9250505b8080600101915050613a4e565b5080915050919050565b5f600d8054905090505f5b81811015613c7f5782600c5f600d8481548110613b2e57613b2d6150d2565b5b905f5260205f20015481526020019081526020015f205f015403613c7257600d600183613b5b9190615a07565b81548110613b6c57613b6b6150d2565b5b905f5260205f200154600d8281548110613b8957613b886150d2565b5b905f5260205f200181905550600d805480613ba757613ba6615a3a565b5b600190038181905f5260205f20015f90559055600c5f8481526020019081526020015f205f8082015f9055600182015f613be19190614370565b600282015f613bf09190614370565b600382015f613bff9190614370565b600482015f9055600582015f6101000a81549073ffffffffffffffffffffffffffffffffffffffff0219169055600682015f613c3b9190614370565b600782015f9055600882015f613c519190614370565b600982015f6101000a81549060ff0219169055600a82015f90555050613c7f565b8080600101915050613b0e565b505050565b5f805f90505b600d80549050811015613ede575f600d8281548110613cac57613cab6150d2565b5b905f5260205f20015490508573ffffffffffffffffffffffffffffffffffffffff16600c5f8381526020019081526020015f206005015f9054906101000a900473ffffffffffffffffffffffffffffffffffffffff1673ffffffffffffffffffffffffffffffffffffffff16148015613d6857505f6003811115613d3357613d3261459a565b5b600c5f8381526020019081526020015f206009015f9054906101000a900460ff166003811115613d6657613d6561459a565b5b145b8015613e145750613e13600c5f8381526020019081526020015f206001018054613d9190614e72565b80601f0160208091040260200160405190810160405280929190818152602001828054613dbd90614e72565b8015613e085780601f10613ddf57610100808354040283529160200191613e08565b820191905f5260205f20905b815481529060010190602001808311613deb57829003601f168201915b5050505050866142d0565b5b8015613ec05750613ebf600c5f8381526020019081526020015f206003018054613e3d90614e72565b80601f0160208091040260200160405190810160405280929190818152602001828054613e6990614e72565b8015613eb45780601f10613e8b57610100808354040283529160200191613eb4565b820191905f5260205f20905b815481529060010190602001808311613e9757829003601f168201915b5050505050856142d0565b5b15613ed057600192505050613ee3565b508080600101915050613c8a565b505f90505b9392505050565b5f600b5f8154613ef99061512c565b919050819055905090565b5f600d8054905090505f5b818110156142c9575f600d8281548110613f2c57613f2b6150d2565b5b905f5260205f2001549050600380811115613f4a57613f4961459a565b5b600c5f8381526020019081526020015f206009015f9054906101000a900460ff166003811115613f7d57613f7c61459a565b5b1480613fcd575060026003811115613f9857613f9761459a565b5b600c5f8381526020019081526020015f206009015f9054906101000a900460ff166003811115613fcb57613fca61459a565b5b145b801561403757508573ffffffffffffffffffffffffffffffffffffffff16600c5f8381526020019081526020015f206005015f9054906101000a900473ffffffffffffffffffffffffffffffffffffffff1673ffffffffffffffffffffffffffffffffffffffff16145b80156140e357506140e2600c5f8381526020019081526020015f20600101805461406090614e72565b80601f016020809104026020016040519081016040528092919081815260200182805461408c90614e72565b80156140d75780601f106140ae576101008083540402835291602001916140d7565b820191905f5260205f20905b8154815290600101906020018083116140ba57829003601f168201915b5050505050866142d0565b5b801561418f575061418e600c5f8381526020019081526020015f20600301805461410c90614e72565b80601f016020809104026020016040519081016040528092919081815260200182805461413890614e72565b80156141835780601f1061415a57610100808354040283529160200191614183565b820191905f5260205f20905b81548152906001019060200180831161416657829003601f168201915b5050505050856142d0565b5b156142bb57600d6001846141a39190615a07565b815481106141b4576141b36150d2565b5b905f5260205f200154600d83815481106141d1576141d06150d2565b5b905f5260205f200181905550600d8054806141ef576141ee615a3a565b5b600190038181905f5260205f20015f90559055600c5f8281526020019081526020015f205f8082015f9055600182015f6142299190614370565b600282015f6142389190614370565b600382015f6142479190614370565b600482015f9055600582015f6101000a81549073ffffffffffffffffffffffffffffffffffffffff0219169055600682015f6142839190614370565b600782015f9055600882015f6142999190614370565b600982015f6101000a81549060ff0219169055600a82015f90555050506142c9565b508080600101915050613f0f565b5050505050565b5f80838051906020012090505f838051906020012090508082149250505092915050565b6040518061016001604052805f81526020016060815260200160608152602001606081526020015f81526020015f73ffffffffffffffffffffffffffffffffffffffff168152602001606081526020015f8152602001606081526020015f60038111156143645761436361459a565b5b81526020015f81525090565b50805461437c90614e72565b5f825580601f1061438d57506143aa565b601f0160209004905f5260205f20908101906143a991906143ad565b5b50565b5b808211156143c4575f815f9055506001016143ae565b5090565b5f604051905090565b5f80fd5b5f80fd5b5f73ffffffffffffffffffffffffffffffffffffffff82169050919050565b5f614402826143d9565b9050919050565b614412816143f8565b811461441c575f80fd5b50565b5f8135905061442d81614409565b92915050565b5f60208284031215614448576144476143d1565b5b5f6144558482850161441f565b91505092915050565b614467816143f8565b82525050565b5f6020820190506144805f83018461445e565b92915050565b5f819050919050565b61449881614486565b82525050565b5f6020820190506144b15f83018461448f565b92915050565b6144c081614486565b81146144ca575f80fd5b50565b5f813590506144db816144b7565b92915050565b5f602082840312156144f6576144f56143d1565b5b5f614503848285016144cd565b91505092915050565b61451581614486565b82525050565b5f81519050919050565b5f82825260208201905092915050565b8281835e5f83830152505050565b5f601f19601f8301169050919050565b5f61455d8261451b565b6145678185614525565b9350614577818560208601614535565b61458081614543565b840191505092915050565b614594816143f8565b82525050565b7f4e487b71000000000000000000000000000000000000000000000000000000005f52602160045260245ffd5b600481106145d8576145d761459a565b5b50565b5f8190506145e8826145c7565b919050565b5f6145f7826145db565b9050919050565b614607816145ed565b82525050565b5f61016083015f8301516146235f86018261450c565b506020830151848203602086015261463b8282614553565b915050604083015184820360408601526146558282614553565b9150506060830151848203606086015261466f8282614553565b9150506080830151614684608086018261450c565b5060a083015161469760a086018261458b565b5060c083015184820360c08601526146af8282614553565b91505060e08301516146c460e086018261450c565b506101008301518482036101008601526146de8282614553565b9150506101208301516146f56101208601826145fe565b5061014083015161470a61014086018261450c565b508091505092915050565b5f6020820190508181035f83015261472d818461460d565b905092915050565b600281106147465761474561459a565b5b50565b5f81905061475682614735565b919050565b5f61476582614749565b9050919050565b6147758161475b565b82525050565b5f60808201905061478e5f83018761448f565b61479b602083018661448f565b6147a8604083018561448f565b6147b5606083018461476c565b95945050505050565b5f81519050919050565b5f82825260208201905092915050565b5f819050602082019050919050565b5f61016083015f8301516147fd5f86018261450c565b50602083015184820360208601526148158282614553565b9150506040830151848203604086015261482f8282614553565b915050606083015184820360608601526148498282614553565b915050608083015161485e608086018261450c565b5060a083015161487160a086018261458b565b5060c083015184820360c08601526148898282614553565b91505060e083015161489e60e086018261450c565b506101008301518482036101008601526148b88282614553565b9150506101208301516148cf6101208601826145fe565b506101408301516148e461014086018261450c565b508091505092915050565b5f6148fa83836147e7565b905092915050565b5f602082019050919050565b5f614918826147be565b61492281856147c8565b935083602082028501614934856147d8565b805f5b8581101561496f578484038952815161495085826148ef565b945061495b83614902565b925060208a01995050600181019050614937565b50829750879550505050505092915050565b5f6020820190508181035f830152614999818461490e565b905092915050565b5f80fd5b5f80fd5b7f4e487b71000000000000000000000000000000000000000000000000000000005f52604160045260245ffd5b6149df82614543565b810181811067ffffffffffffffff821117156149fe576149fd6149a9565b5b80604052505050565b5f614a106143c8565b9050614a1c82826149d6565b919050565b5f67ffffffffffffffff821115614a3b57614a3a6149a9565b5b614a4482614543565b9050602081019050919050565b828183375f83830152505050565b5f614a71614a6c84614a21565b614a07565b905082815260208101848484011115614a8d57614a8c6149a5565b5b614a98848285614a51565b509392505050565b5f82601f830112614ab457614ab36149a1565b5b8135614ac4848260208601614a5f565b91505092915050565b5f805f805f805f60e0888a031215614ae857614ae76143d1565b5b5f88013567ffffffffffffffff811115614b0557614b046143d5565b5b614b118a828b01614aa0565b975050602088013567ffffffffffffffff811115614b3257614b316143d5565b5b614b3e8a828b01614aa0565b965050604088013567ffffffffffffffff811115614b5f57614b5e6143d5565b5b614b6b8a828b01614aa0565b9550506060614b7c8a828b016144cd565b945050608088013567ffffffffffffffff811115614b9d57614b9c6143d5565b5b614ba98a828b01614aa0565b93505060a0614bba8a828b016144cd565b92505060c088013567ffffffffffffffff811115614bdb57614bda6143d5565b5b614be78a828b01614aa0565b91505092959891949750929550565b5f805f805f60a08688031215614c0f57614c0e6143d1565b5b5f614c1c888289016144cd565b955050602086013567ffffffffffffffff811115614c3d57614c3c6143d5565b5b614c4988828901614aa0565b945050604086013567ffffffffffffffff811115614c6a57614c696143d5565b5b614c7688828901614aa0565b935050606086013567ffffffffffffffff811115614c9757614c966143d5565b5b614ca388828901614aa0565b925050608086013567ffffffffffffffff811115614cc457614cc36143d5565b5b614cd088828901614aa0565b9150509295509295909350565b5f8115159050919050565b614cf181614cdd565b82525050565b5f602082019050614d0a5f830184614ce8565b92915050565b614d1981614cdd565b8114614d23575f80fd5b50565b5f81519050614d3481614d10565b92915050565b5f60208284031215614d4f57614d4e6143d1565b5b5f614d5c84828501614d26565b91505092915050565b5f82825260208201905092915050565b7f4f6e6c79204f776e657220686176652061207065726d697373696f6e2e0000005f82015250565b5f614da9601d83614d65565b9150614db482614d75565b602082019050919050565b5f6020820190508181035f830152614dd681614d9d565b9050919050565b7f496e76616c6964206964000000000000000000000000000000000000000000005f82015250565b5f614e11600a83614d65565b9150614e1c82614ddd565b602082019050919050565b5f6020820190508181035f830152614e3e81614e05565b9050919050565b7f4e487b71000000000000000000000000000000000000000000000000000000005f52602260045260245ffd5b5f6002820490506001821680614e8957607f821691505b602082108103614e9c57614e9b614e45565b5b50919050565b7f4f6e6c792041646d696e20686176652061207065726d697373696f6e2e0000005f82015250565b5f614ed6601d83614d65565b9150614ee182614ea2565b602082019050919050565b5f6020820190508181035f830152614f0381614eca565b9050919050565b7f496e76616c6964207265666572726572206164647265737300000000000000005f82015250565b5f614f3e601883614d65565b9150614f4982614f0a565b602082019050919050565b5f6020820190508181035f830152614f6b81614f32565b9050919050565b7f4e6f7420696e20496e52657669657720737461746500000000000000000000005f82015250565b5f614fa6601583614d65565b9150614fb182614f72565b602082019050919050565b5f6020820190508181035f830152614fd381614f9a565b9050919050565b5f604082019050614fed5f83018561445e565b614ffa602083018461448f565b9392505050565b61500a816145ed565b82525050565b5f6040820190506150235f83018561448f565b6150306020830184615001565b9392505050565b5f81519050615045816144b7565b92915050565b60028110615057575f80fd5b50565b5f815190506150688161504b565b92915050565b5f805f8060808587031215615086576150856143d1565b5b5f61509387828801615037565b94505060206150a487828801615037565b93505060406150b587828801615037565b92505060606150c68782880161505a565b91505092959194509250565b7f4e487b71000000000000000000000000000000000000000000000000000000005f52603260045260245ffd5b7f4e487b71000000000000000000000000000000000000000000000000000000005f52601160045260245ffd5b5f61513682614486565b91507fffffffffffffffffffffffffffffffffffffffffffffffffffffffffffffffff8203615168576151676150ff565b5b600182019050919050565b5f6040820190506151865f83018561445e565b615193602083018461445e565b9392505050565b5f602082840312156151af576151ae6143d1565b5b5f6151bc84828501615037565b91505092915050565b7f4e6f7420696e204f776e656420737461746500000000000000000000000000005f82015250565b5f6151f9601283614d65565b9150615204826151c5565b602082019050919050565b5f6020820190508181035f830152615226816151ed565b9050919050565b7f4e6f7420656e6f75676820544f522062616c616e63652e0000000000000000005f82015250565b5f615261601783614d65565b915061526c8261522d565b602082019050919050565b5f6020820190508181035f83015261528e81615255565b9050919050565b7f496e73756666696369656e7420616c6c6f77616e6365000000000000000000005f82015250565b5f6152c9601683614d65565b91506152d482615295565b602082019050919050565b5f6020820190508181035f8301526152f6816152bd565b9050919050565b7f416c726561647920696e207265766965770000000000000000000000000000005f82015250565b5f615331601183614d65565b915061533c826152fd565b602082019050919050565b5f6020820190508181035f83015261535e81615325565b9050919050565b5f6060820190506153785f83018661445e565b615385602083018561445e565b615392604083018461448f565b949350505050565b5f6153a482614486565b91506153af83614486565b92508282019050808211156153c7576153c66150ff565b5b92915050565b5f819050815f5260205f209050919050565b5f6020601f8301049050919050565b5f82821b905092915050565b5f600883026154297fffffffffffffffffffffffffffffffffffffffffffffffffffffffffffffffff826153ee565b61543386836153ee565b95508019841693508086168417925050509392505050565b5f819050919050565b5f61546e61546961546484614486565b61544b565b614486565b9050919050565b5f819050919050565b61548783615454565b61549b61549382615475565b8484546153fa565b825550505050565b5f90565b6154af6154a3565b6154ba81848461547e565b505050565b5b818110156154dd576154d25f826154a7565b6001810190506154c0565b5050565b601f821115615522576154f3816153cd565b6154fc846153df565b8101602085101561550b578190505b61551f615517856153df565b8301826154bf565b50505b505050565b5f82821c905092915050565b5f6155425f1984600802615527565b1980831691505092915050565b5f61555a8383615533565b9150826002028217905092915050565b6155738261451b565b67ffffffffffffffff81111561558c5761558b6149a9565b5b6155968254614e72565b6155a18282856154e1565b5f60209050601f8311600181146155d2575f84156155c0578287015190505b6155ca858261554f565b865550615631565b601f1984166155e0866153cd565b5f5b82811015615607578489015182556001820191506020850194506020810190506155e2565b868310156156245784890151615620601f891682615533565b8355505b6001600288020188555050505b505050505050565b7f61646472657373657320617265206e6f74206d617463680000000000000000005f82015250565b5f61566d601783614d65565b915061567882615639565b602082019050919050565b5f6020820190508181035f83015261569a81615661565b9050919050565b7f4e6f7420696e204f776e6564206f7220496e52657669657720737461746500005f82015250565b5f6156d5601e83614d65565b91506156e0826156a1565b602082019050919050565b5f6020820190508181035f830152615702816156c9565b9050919050565b7f4174206c65617374203120544f522069732072657175697265640000000000005f82015250565b5f61573d601a83614d65565b915061574882615709565b602082019050919050565b5f6020820190508181035f83015261576a81615731565b9050919050565b7f42656e65666974206f7220544f5220616d6f756e742073686f756c64206265205f8201527f67726561746572207468616e2063757272656e74207468726f6e650000000000602082015250565b5f6157cb603b83614d65565b91506157d682615771565b604082019050919050565b5f6020820190508181035f8301526157f8816157bf565b9050919050565b7f496e76616c6964206164647265737300000000000000000000000000000000005f82015250565b5f615833600f83614d65565b915061583e826157ff565b602082019050919050565b5f6020820190508181035f83015261586081615827565b9050919050565b7f496e76616c696420544f5220616d6f756e7420746f20776974686472617700005f82015250565b5f61589b601e83614d65565b91506158a682615867565b602082019050919050565b5f6020820190508181035f8301526158c88161588f565b9050919050565b7f4e6f7420656e6f75676820746f74616c20544f5220616d6f756e7400000000005f82015250565b5f615903601b83614d65565b915061590e826158cf565b602082019050919050565b5f6020820190508181035f830152615930816158f7565b9050919050565b7f4e6f7420656e6f75676820544f52206465706f736974656400000000000000005f82015250565b5f61596b601883614d65565b915061597682615937565b602082019050919050565b5f6020820190508181035f8301526159988161595f565b9050919050565b7f4e6f7420656e6f75676820544f522062616c616e6365000000000000000000005f82015250565b5f6159d3601683614d65565b91506159de8261599f565b602082019050919050565b5f6020820190508181035f830152615a00816159c7565b9050919050565b5f615a1182614486565b9150615a1c83614486565b9250828203905081811115615a3457615a336150ff565b5b92915050565b7f4e487b71000000000000000000000000000000000000000000000000000000005f52603160045260245ffdfea2646970667358221220911a568f3252c8e7bd2d80aa88761715cd54b3ce28c354bad1fd49c4d8f003ef64736f6c63430008190033",
      "opcodes": "PUSH1 0x80 PUSH1 0x40 MSTORE PUSH0 PUSH1 0xB SSTORE PUSH0 PUSH1 0xE SSTORE CALLVALUE DUP1 ISZERO PUSH2 0x17 JUMPI PUSH0 DUP1 REVERT JUMPDEST POP PUSH1 0x40 MLOAD PUSH2 0x630F CODESIZE SUB DUP1 PUSH2 0x630F DUP4 CODECOPY DUP2 DUP2 ADD PUSH1 0x40 MSTORE DUP2 ADD SWAP1 PUSH2 0x39 SWAP2 SWAP1 PUSH2 0x6EE JUMP JUMPDEST DUP3 PUSH1 0xA PUSH0 PUSH2 0x100 EXP DUP2 SLOAD DUP2 PUSH20 0xFFFFFFFFFFFFFFFFFFFFFFFFFFFFFFFFFFFFFFFF MUL NOT AND SWAP1 DUP4 PUSH20 0xFFFFFFFFFFFFFFFFFFFFFFFFFFFFFFFFFFFFFFFF AND MUL OR SWAP1 SSTORE POP DUP3 PUSH1 0x4 PUSH0 PUSH2 0x100 EXP DUP2 SLOAD DUP2 PUSH20 0xFFFFFFFFFFFFFFFFFFFFFFFFFFFFFFFFFFFFFFFF MUL NOT AND SWAP1 DUP4 PUSH20 0xFFFFFFFFFFFFFFFFFFFFFFFFFFFFFFFFFFFFFFFF AND MUL OR SWAP1 SSTORE POP PUSH20 0x4300000000000000000000000000000000000002 PUSH1 0x5 PUSH0 PUSH2 0x100 EXP DUP2 SLOAD DUP2 PUSH20 0xFFFFFFFFFFFFFFFFFFFFFFFFFFFFFFFFFFFFFFFF MUL NOT AND SWAP1 DUP4 PUSH20 0xFFFFFFFFFFFFFFFFFFFFFFFFFFFFFFFFFFFFFFFF AND MUL OR SWAP1 SSTORE POP PUSH1 0x5 PUSH0 SWAP1 SLOAD SWAP1 PUSH2 0x100 EXP SWAP1 DIV PUSH20 0xFFFFFFFFFFFFFFFFFFFFFFFFFFFFFFFFFFFFFFFF AND PUSH0 DUP1 PUSH2 0x100 EXP DUP2 SLOAD DUP2 PUSH20 0xFFFFFFFFFFFFFFFFFFFFFFFFFFFFFFFFFFFFFFFF MUL NOT AND SWAP1 DUP4 PUSH20 0xFFFFFFFFFFFFFFFFFFFFFFFFFFFFFFFFFFFFFFFF AND MUL OR SWAP1 SSTORE POP PUSH0 DUP1 SLOAD SWAP1 PUSH2 0x100 EXP SWAP1 DIV PUSH20 0xFFFFFFFFFFFFFFFFFFFFFFFFFFFFFFFFFFFFFFFF AND PUSH20 0xFFFFFFFFFFFFFFFFFFFFFFFFFFFFFFFFFFFFFFFF AND PUSH4 0x4E606C47 PUSH1 0x40 MLOAD DUP2 PUSH4 0xFFFFFFFF AND PUSH1 0xE0 SHL DUP2 MSTORE PUSH1 0x4 ADD PUSH0 PUSH1 0x40 MLOAD DUP1 DUP4 SUB DUP2 PUSH0 DUP8 DUP1 EXTCODESIZE ISZERO DUP1 ISZERO PUSH2 0x1D1 JUMPI PUSH0 DUP1 REVERT JUMPDEST POP GAS CALL ISZERO DUP1 ISZERO PUSH2 0x1E3 JUMPI RETURNDATASIZE PUSH0 DUP1 RETURNDATACOPY RETURNDATASIZE PUSH0 REVERT JUMPDEST POP POP POP POP DUP2 PUSH1 0x6 PUSH0 PUSH2 0x100 EXP DUP2 SLOAD DUP2 PUSH20 0xFFFFFFFFFFFFFFFFFFFFFFFFFFFFFFFFFFFFFFFF MUL NOT AND SWAP1 DUP4 PUSH20 0xFFFFFFFFFFFFFFFFFFFFFFFFFFFFFFFFFFFFFFFF AND MUL OR SWAP1 SSTORE POP DUP1 PUSH1 0x7 PUSH0 PUSH2 0x100 EXP DUP2 SLOAD DUP2 PUSH20 0xFFFFFFFFFFFFFFFFFFFFFFFFFFFFFFFFFFFFFFFF MUL NOT AND SWAP1 DUP4 PUSH20 0xFFFFFFFFFFFFFFFFFFFFFFFFFFFFFFFFFFFFFFFF AND MUL OR SWAP1 SSTORE POP PUSH1 0x6 PUSH0 SWAP1 SLOAD SWAP1 PUSH2 0x100 EXP SWAP1 DIV PUSH20 0xFFFFFFFFFFFFFFFFFFFFFFFFFFFFFFFFFFFFFFFF AND PUSH1 0x1 PUSH0 PUSH2 0x100 EXP DUP2 SLOAD DUP2 PUSH20 0xFFFFFFFFFFFFFFFFFFFFFFFFFFFFFFFFFFFFFFFF MUL NOT AND SWAP1 DUP4 PUSH20 0xFFFFFFFFFFFFFFFFFFFFFFFFFFFFFFFFFFFFFFFF AND MUL OR SWAP1 SSTORE POP PUSH1 0x1 PUSH0 SWAP1 SLOAD SWAP1 PUSH2 0x100 EXP SWAP1 DIV PUSH20 0xFFFFFFFFFFFFFFFFFFFFFFFFFFFFFFFFFFFFFFFF AND PUSH20 0xFFFFFFFFFFFFFFFFFFFFFFFFFFFFFFFFFFFFFFFF AND PUSH4 0x36B91F2B PUSH1 0x7 PUSH0 SWAP1 SLOAD SWAP1 PUSH2 0x100 EXP SWAP1 DIV PUSH20 0xFFFFFFFFFFFFFFFFFFFFFFFFFFFFFFFFFFFFFFFF AND PUSH1 0x40 MLOAD DUP3 PUSH4 0xFFFFFFFF AND PUSH1 0xE0 SHL DUP2 MSTORE PUSH1 0x4 ADD PUSH2 0x343 SWAP2 SWAP1 PUSH2 0x774 JUMP JUMPDEST PUSH0 PUSH1 0x40 MLOAD DUP1 DUP4 SUB DUP2 PUSH0 DUP8 DUP1 EXTCODESIZE ISZERO DUP1 ISZERO PUSH2 0x35A JUMPI PUSH0 DUP1 REVERT JUMPDEST POP GAS CALL ISZERO DUP1 ISZERO PUSH2 0x36C JUMPI RETURNDATASIZE PUSH0 DUP1 RETURNDATACOPY RETURNDATASIZE PUSH0 REVERT JUMPDEST POP POP POP POP PUSH2 0x37F DUP6 PUSH2 0x398 PUSH1 0x20 SHL PUSH1 0x20 SHR JUMP JUMPDEST PUSH2 0x38E DUP5 PUSH2 0x514 PUSH1 0x20 SHL PUSH1 0x20 SHR JUMP JUMPDEST POP POP POP POP POP PUSH2 0x865 JUMP JUMPDEST PUSH1 0x4 PUSH0 SWAP1 SLOAD SWAP1 PUSH2 0x100 EXP SWAP1 DIV PUSH20 0xFFFFFFFFFFFFFFFFFFFFFFFFFFFFFFFFFFFFFFFF AND PUSH20 0xFFFFFFFFFFFFFFFFFFFFFFFFFFFFFFFFFFFFFFFF AND PUSH4 0x2F54BF6E CALLER PUSH1 0x40 MLOAD DUP3 PUSH4 0xFFFFFFFF AND PUSH1 0xE0 SHL DUP2 MSTORE PUSH1 0x4 ADD PUSH2 0x3F2 SWAP2 SWAP1 PUSH2 0x774 JUMP JUMPDEST PUSH1 0x20 PUSH1 0x40 MLOAD DUP1 DUP4 SUB DUP2 DUP7 GAS STATICCALL ISZERO DUP1 ISZERO PUSH2 0x40D JUMPI RETURNDATASIZE PUSH0 DUP1 RETURNDATACOPY RETURNDATASIZE PUSH0 REVERT JUMPDEST POP POP POP POP PUSH1 0x40 MLOAD RETURNDATASIZE PUSH1 0x1F NOT PUSH1 0x1F DUP3 ADD AND DUP3 ADD DUP1 PUSH1 0x40 MSTORE POP DUP2 ADD SWAP1 PUSH2 0x431 SWAP2 SWAP1 PUSH2 0x7C2 JUMP JUMPDEST PUSH2 0x470 JUMPI PUSH1 0x40 MLOAD PUSH32 0x8C379A000000000000000000000000000000000000000000000000000000000 DUP2 MSTORE PUSH1 0x4 ADD PUSH2 0x467 SWAP1 PUSH2 0x847 JUMP JUMPDEST PUSH1 0x40 MLOAD DUP1 SWAP2 SUB SWAP1 REVERT JUMPDEST DUP1 PUSH1 0x8 PUSH0 PUSH2 0x100 EXP DUP2 SLOAD DUP2 PUSH20 0xFFFFFFFFFFFFFFFFFFFFFFFFFFFFFFFFFFFFFFFF MUL NOT AND SWAP1 DUP4 PUSH20 0xFFFFFFFFFFFFFFFFFFFFFFFFFFFFFFFFFFFFFFFF AND MUL OR SWAP1 SSTORE POP PUSH1 0x8 PUSH0 SWAP1 SLOAD SWAP1 PUSH2 0x100 EXP SWAP1 DIV PUSH20 0xFFFFFFFFFFFFFFFFFFFFFFFFFFFFFFFFFFFFFFFF AND PUSH1 0x2 PUSH0 PUSH2 0x100 EXP DUP2 SLOAD DUP2 PUSH20 0xFFFFFFFFFFFFFFFFFFFFFFFFFFFFFFFFFFFFFFFF MUL NOT AND SWAP1 DUP4 PUSH20 0xFFFFFFFFFFFFFFFFFFFFFFFFFFFFFFFFFFFFFFFF AND MUL OR SWAP1 SSTORE POP POP JUMP JUMPDEST PUSH1 0x4 PUSH0 SWAP1 SLOAD SWAP1 PUSH2 0x100 EXP SWAP1 DIV PUSH20 0xFFFFFFFFFFFFFFFFFFFFFFFFFFFFFFFFFFFFFFFF AND PUSH20 0xFFFFFFFFFFFFFFFFFFFFFFFFFFFFFFFFFFFFFFFF AND PUSH4 0x2F54BF6E CALLER PUSH1 0x40 MLOAD DUP3 PUSH4 0xFFFFFFFF AND PUSH1 0xE0 SHL DUP2 MSTORE PUSH1 0x4 ADD PUSH2 0x56E SWAP2 SWAP1 PUSH2 0x774 JUMP JUMPDEST PUSH1 0x20 PUSH1 0x40 MLOAD DUP1 DUP4 SUB DUP2 DUP7 GAS STATICCALL ISZERO DUP1 ISZERO PUSH2 0x589 JUMPI RETURNDATASIZE PUSH0 DUP1 RETURNDATACOPY RETURNDATASIZE PUSH0 REVERT JUMPDEST POP POP POP POP PUSH1 0x40 MLOAD RETURNDATASIZE PUSH1 0x1F NOT PUSH1 0x1F DUP3 ADD AND DUP3 ADD DUP1 PUSH1 0x40 MSTORE POP DUP2 ADD SWAP1 PUSH2 0x5AD SWAP2 SWAP1 PUSH2 0x7C2 JUMP JUMPDEST PUSH2 0x5EC JUMPI PUSH1 0x40 MLOAD PUSH32 0x8C379A000000000000000000000000000000000000000000000000000000000 DUP2 MSTORE PUSH1 0x4 ADD PUSH2 0x5E3 SWAP1 PUSH2 0x847 JUMP JUMPDEST PUSH1 0x40 MLOAD DUP1 SWAP2 SUB SWAP1 REVERT JUMPDEST DUP1 PUSH1 0x9 PUSH0 PUSH2 0x100 EXP DUP2 SLOAD DUP2 PUSH20 0xFFFFFFFFFFFFFFFFFFFFFFFFFFFFFFFFFFFFFFFF MUL NOT AND SWAP1 DUP4 PUSH20 0xFFFFFFFFFFFFFFFFFFFFFFFFFFFFFFFFFFFFFFFF AND MUL OR SWAP1 SSTORE POP PUSH1 0x9 PUSH0 SWAP1 SLOAD SWAP1 PUSH2 0x100 EXP SWAP1 DIV PUSH20 0xFFFFFFFFFFFFFFFFFFFFFFFFFFFFFFFFFFFFFFFF AND PUSH1 0x3 PUSH0 PUSH2 0x100 EXP DUP2 SLOAD DUP2 PUSH20 0xFFFFFFFFFFFFFFFFFFFFFFFFFFFFFFFFFFFFFFFF MUL NOT AND SWAP1 DUP4 PUSH20 0xFFFFFFFFFFFFFFFFFFFFFFFFFFFFFFFFFFFFFFFF AND MUL OR SWAP1 SSTORE POP POP JUMP JUMPDEST PUSH0 DUP1 REVERT JUMPDEST PUSH0 PUSH20 0xFFFFFFFFFFFFFFFFFFFFFFFFFFFFFFFFFFFFFFFF DUP3 AND SWAP1 POP SWAP2 SWAP1 POP JUMP JUMPDEST PUSH0 PUSH2 0x6BD DUP3 PUSH2 0x694 JUMP JUMPDEST SWAP1 POP SWAP2 SWAP1 POP JUMP JUMPDEST PUSH2 0x6CD DUP2 PUSH2 0x6B3 JUMP JUMPDEST DUP2 EQ PUSH2 0x6D7 JUMPI PUSH0 DUP1 REVERT JUMPDEST POP JUMP JUMPDEST PUSH0 DUP2 MLOAD SWAP1 POP PUSH2 0x6E8 DUP2 PUSH2 0x6C4 JUMP JUMPDEST SWAP3 SWAP2 POP POP JUMP JUMPDEST PUSH0 DUP1 PUSH0 DUP1 PUSH0 PUSH1 0xA0 DUP7 DUP9 SUB SLT ISZERO PUSH2 0x707 JUMPI PUSH2 0x706 PUSH2 0x690 JUMP JUMPDEST JUMPDEST PUSH0 PUSH2 0x714 DUP9 DUP3 DUP10 ADD PUSH2 0x6DA JUMP JUMPDEST SWAP6 POP POP PUSH1 0x20 PUSH2 0x725 DUP9 DUP3 DUP10 ADD PUSH2 0x6DA JUMP JUMPDEST SWAP5 POP POP PUSH1 0x40 PUSH2 0x736 DUP9 DUP3 DUP10 ADD PUSH2 0x6DA JUMP JUMPDEST SWAP4 POP POP PUSH1 0x60 PUSH2 0x747 DUP9 DUP3 DUP10 ADD PUSH2 0x6DA JUMP JUMPDEST SWAP3 POP POP PUSH1 0x80 PUSH2 0x758 DUP9 DUP3 DUP10 ADD PUSH2 0x6DA JUMP JUMPDEST SWAP2 POP POP SWAP3 SWAP6 POP SWAP3 SWAP6 SWAP1 SWAP4 POP JUMP JUMPDEST PUSH2 0x76E DUP2 PUSH2 0x6B3 JUMP JUMPDEST DUP3 MSTORE POP POP JUMP JUMPDEST PUSH0 PUSH1 0x20 DUP3 ADD SWAP1 POP PUSH2 0x787 PUSH0 DUP4 ADD DUP5 PUSH2 0x765 JUMP JUMPDEST SWAP3 SWAP2 POP POP JUMP JUMPDEST PUSH0 DUP2 ISZERO ISZERO SWAP1 POP SWAP2 SWAP1 POP JUMP JUMPDEST PUSH2 0x7A1 DUP2 PUSH2 0x78D JUMP JUMPDEST DUP2 EQ PUSH2 0x7AB JUMPI PUSH0 DUP1 REVERT JUMPDEST POP JUMP JUMPDEST PUSH0 DUP2 MLOAD SWAP1 POP PUSH2 0x7BC DUP2 PUSH2 0x798 JUMP JUMPDEST SWAP3 SWAP2 POP POP JUMP JUMPDEST PUSH0 PUSH1 0x20 DUP3 DUP5 SUB SLT ISZERO PUSH2 0x7D7 JUMPI PUSH2 0x7D6 PUSH2 0x690 JUMP JUMPDEST JUMPDEST PUSH0 PUSH2 0x7E4 DUP5 DUP3 DUP6 ADD PUSH2 0x7AE JUMP JUMPDEST SWAP2 POP POP SWAP3 SWAP2 POP POP JUMP JUMPDEST PUSH0 DUP3 DUP3 MSTORE PUSH1 0x20 DUP3 ADD SWAP1 POP SWAP3 SWAP2 POP POP JUMP JUMPDEST PUSH32 0x4F6E6C79204F776E657220686176652061207065726D697373696F6E2E000000 PUSH0 DUP3 ADD MSTORE POP JUMP JUMPDEST PUSH0 PUSH2 0x831 PUSH1 0x1D DUP4 PUSH2 0x7ED JUMP JUMPDEST SWAP2 POP PUSH2 0x83C DUP3 PUSH2 0x7FD JUMP JUMPDEST PUSH1 0x20 DUP3 ADD SWAP1 POP SWAP2 SWAP1 POP JUMP JUMPDEST PUSH0 PUSH1 0x20 DUP3 ADD SWAP1 POP DUP2 DUP2 SUB PUSH0 DUP4 ADD MSTORE PUSH2 0x85E DUP2 PUSH2 0x825 JUMP JUMPDEST SWAP1 POP SWAP2 SWAP1 POP JUMP JUMPDEST PUSH2 0x5A9D DUP1 PUSH2 0x872 PUSH0 CODECOPY PUSH0 RETURN INVALID PUSH1 0x80 PUSH1 0x40 MSTORE CALLVALUE DUP1 ISZERO PUSH2 0xF JUMPI PUSH0 DUP1 REVERT JUMPDEST POP PUSH1 0x4 CALLDATASIZE LT PUSH2 0x135 JUMPI PUSH0 CALLDATALOAD PUSH1 0xE0 SHR DUP1 PUSH4 0x7C7A61D5 GT PUSH2 0xB6 JUMPI DUP1 PUSH4 0xB5394D1F GT PUSH2 0x7A JUMPI DUP1 PUSH4 0xB5394D1F EQ PUSH2 0x328 JUMPI DUP1 PUSH4 0xB762EE79 EQ PUSH2 0x344 JUMPI DUP1 PUSH4 0xBAF54708 EQ PUSH2 0x362 JUMPI DUP1 PUSH4 0xCDB219C5 EQ PUSH2 0x392 JUMPI DUP1 PUSH4 0xE19D62B8 EQ PUSH2 0x3B0 JUMPI DUP1 PUSH4 0xE6C227CE EQ PUSH2 0x3CE JUMPI PUSH2 0x135 JUMP JUMPDEST DUP1 PUSH4 0x7C7A61D5 EQ PUSH2 0x260 JUMPI DUP1 PUSH4 0x9B174DC0 EQ PUSH2 0x27C JUMPI DUP1 PUSH4 0x9D443A00 EQ PUSH2 0x2AC JUMPI DUP1 PUSH4 0xA3B6710C EQ PUSH2 0x2DC JUMPI DUP1 PUSH4 0xB0B8A591 EQ PUSH2 0x2F8 JUMPI PUSH2 0x135 JUMP JUMPDEST DUP1 PUSH4 0x491AE348 GT PUSH2 0xFD JUMPI DUP1 PUSH4 0x491AE348 EQ PUSH2 0x1DD JUMPI DUP1 PUSH4 0x4B36859E EQ PUSH2 0x1FE JUMPI DUP1 PUSH4 0x5992DF6B EQ PUSH2 0x21A JUMPI DUP1 PUSH4 0x6100F951 EQ PUSH2 0x238 JUMPI DUP1 PUSH4 0x645DD1FA EQ PUSH2 0x256 JUMPI PUSH2 0x135 JUMP JUMPDEST DUP1 PUSH4 0x3CA540B EQ PUSH2 0x139 JUMPI DUP1 PUSH4 0x57D82AD EQ PUSH2 0x155 JUMPI DUP1 PUSH4 0x92B2410 EQ PUSH2 0x173 JUMPI DUP1 PUSH4 0xEE524E2 EQ PUSH2 0x191 JUMPI DUP1 PUSH4 0x2CFEBE0A EQ PUSH2 0x1C1 JUMPI JUMPDEST PUSH0 DUP1 REVERT JUMPDEST PUSH2 0x153 PUSH1 0x4 DUP1 CALLDATASIZE SUB DUP2 ADD SWAP1 PUSH2 0x14E SWAP2 SWAP1 PUSH2 0x4433 JUMP JUMPDEST PUSH2 0x3EC JUMP JUMPDEST STOP JUMPDEST PUSH2 0x15D PUSH2 0x568 JUMP JUMPDEST PUSH1 0x40 MLOAD PUSH2 0x16A SWAP2 SWAP1 PUSH2 0x446D JUMP JUMPDEST PUSH1 0x40 MLOAD DUP1 SWAP2 SUB SWAP1 RETURN JUMPDEST PUSH2 0x17B PUSH2 0x590 JUMP JUMPDEST PUSH1 0x40 MLOAD PUSH2 0x188 SWAP2 SWAP1 PUSH2 0x449E JUMP JUMPDEST PUSH1 0x40 MLOAD DUP1 SWAP2 SUB SWAP1 RETURN JUMPDEST PUSH2 0x1AB PUSH1 0x4 DUP1 CALLDATASIZE SUB DUP2 ADD SWAP1 PUSH2 0x1A6 SWAP2 SWAP1 PUSH2 0x44E1 JUMP JUMPDEST PUSH2 0x5A0 JUMP JUMPDEST PUSH1 0x40 MLOAD PUSH2 0x1B8 SWAP2 SWAP1 PUSH2 0x4715 JUMP JUMPDEST PUSH1 0x40 MLOAD DUP1 SWAP2 SUB SWAP1 RETURN JUMPDEST PUSH2 0x1DB PUSH1 0x4 DUP1 CALLDATASIZE SUB DUP2 ADD SWAP1 PUSH2 0x1D6 SWAP2 SWAP1 PUSH2 0x44E1 JUMP JUMPDEST PUSH2 0x9A7 JUMP JUMPDEST STOP JUMPDEST PUSH2 0x1E5 PUSH2 0xEF7 JUMP JUMPDEST PUSH1 0x40 MLOAD PUSH2 0x1F5 SWAP5 SWAP4 SWAP3 SWAP2 SWAP1 PUSH2 0x477B JUMP JUMPDEST PUSH1 0x40 MLOAD DUP1 SWAP2 SUB SWAP1 RETURN JUMPDEST PUSH2 0x218 PUSH1 0x4 DUP1 CALLDATASIZE SUB DUP2 ADD SWAP1 PUSH2 0x213 SWAP2 SWAP1 PUSH2 0x44E1 JUMP JUMPDEST PUSH2 0x1078 JUMP JUMPDEST STOP JUMPDEST PUSH2 0x222 PUSH2 0x12F5 JUMP JUMPDEST PUSH1 0x40 MLOAD PUSH2 0x22F SWAP2 SWAP1 PUSH2 0x4981 JUMP JUMPDEST PUSH1 0x40 MLOAD DUP1 SWAP2 SUB SWAP1 RETURN JUMPDEST PUSH2 0x240 PUSH2 0x186E JUMP JUMPDEST PUSH1 0x40 MLOAD PUSH2 0x24D SWAP2 SWAP1 PUSH2 0x446D JUMP JUMPDEST PUSH1 0x40 MLOAD DUP1 SWAP2 SUB SWAP1 RETURN JUMPDEST PUSH2 0x25E PUSH2 0x1896 JUMP JUMPDEST STOP JUMPDEST PUSH2 0x27A PUSH1 0x4 DUP1 CALLDATASIZE SUB DUP2 ADD SWAP1 PUSH2 0x275 SWAP2 SWAP1 PUSH2 0x4433 JUMP JUMPDEST PUSH2 0x1A2C JUMP JUMPDEST STOP JUMPDEST PUSH2 0x296 PUSH1 0x4 DUP1 CALLDATASIZE SUB DUP2 ADD SWAP1 PUSH2 0x291 SWAP2 SWAP1 PUSH2 0x4433 JUMP JUMPDEST PUSH2 0x1BA8 JUMP JUMPDEST PUSH1 0x40 MLOAD PUSH2 0x2A3 SWAP2 SWAP1 PUSH2 0x4981 JUMP JUMPDEST PUSH1 0x40 MLOAD DUP1 SWAP2 SUB SWAP1 RETURN JUMPDEST PUSH2 0x2C6 PUSH1 0x4 DUP1 CALLDATASIZE SUB DUP2 ADD SWAP1 PUSH2 0x2C1 SWAP2 SWAP1 PUSH2 0x4433 JUMP JUMPDEST PUSH2 0x20A2 JUMP JUMPDEST PUSH1 0x40 MLOAD PUSH2 0x2D3 SWAP2 SWAP1 PUSH2 0x449E JUMP JUMPDEST PUSH1 0x40 MLOAD DUP1 SWAP2 SUB SWAP1 RETURN JUMPDEST PUSH2 0x2F6 PUSH1 0x4 DUP1 CALLDATASIZE SUB DUP2 ADD SWAP1 PUSH2 0x2F1 SWAP2 SWAP1 PUSH2 0x44E1 JUMP JUMPDEST PUSH2 0x20E8 JUMP JUMPDEST STOP JUMPDEST PUSH2 0x312 PUSH1 0x4 DUP1 CALLDATASIZE SUB DUP2 ADD SWAP1 PUSH2 0x30D SWAP2 SWAP1 PUSH2 0x4ACD JUMP JUMPDEST PUSH2 0x22C6 JUMP JUMPDEST PUSH1 0x40 MLOAD PUSH2 0x31F SWAP2 SWAP1 PUSH2 0x449E JUMP JUMPDEST PUSH1 0x40 MLOAD DUP1 SWAP2 SUB SWAP1 RETURN JUMPDEST PUSH2 0x342 PUSH1 0x4 DUP1 CALLDATASIZE SUB DUP2 ADD SWAP1 PUSH2 0x33D SWAP2 SWAP1 PUSH2 0x4BF6 JUMP JUMPDEST PUSH2 0x2839 JUMP JUMPDEST STOP JUMPDEST PUSH2 0x34C PUSH2 0x2A26 JUMP JUMPDEST PUSH1 0x40 MLOAD PUSH2 0x359 SWAP2 SWAP1 PUSH2 0x4981 JUMP JUMPDEST PUSH1 0x40 MLOAD DUP1 SWAP2 SUB SWAP1 RETURN JUMPDEST PUSH2 0x37C PUSH1 0x4 DUP1 CALLDATASIZE SUB DUP2 ADD SWAP1 PUSH2 0x377 SWAP2 SWAP1 PUSH2 0x44E1 JUMP JUMPDEST PUSH2 0x2EC9 JUMP JUMPDEST PUSH1 0x40 MLOAD PUSH2 0x389 SWAP2 SWAP1 PUSH2 0x4CF7 JUMP JUMPDEST PUSH1 0x40 MLOAD DUP1 SWAP2 SUB SWAP1 RETURN JUMPDEST PUSH2 0x39A PUSH2 0x30C5 JUMP JUMPDEST PUSH1 0x40 MLOAD PUSH2 0x3A7 SWAP2 SWAP1 PUSH2 0x446D JUMP JUMPDEST PUSH1 0x40 MLOAD DUP1 SWAP2 SUB SWAP1 RETURN JUMPDEST PUSH2 0x3B8 PUSH2 0x30ED JUMP JUMPDEST PUSH1 0x40 MLOAD PUSH2 0x3C5 SWAP2 SWAP1 PUSH2 0x446D JUMP JUMPDEST PUSH1 0x40 MLOAD DUP1 SWAP2 SUB SWAP1 RETURN JUMPDEST PUSH2 0x3D6 PUSH2 0x3115 JUMP JUMPDEST PUSH1 0x40 MLOAD PUSH2 0x3E3 SWAP2 SWAP1 PUSH2 0x449E JUMP JUMPDEST PUSH1 0x40 MLOAD DUP1 SWAP2 SUB SWAP1 RETURN JUMPDEST PUSH1 0x4 PUSH0 SWAP1 SLOAD SWAP1 PUSH2 0x100 EXP SWAP1 DIV PUSH20 0xFFFFFFFFFFFFFFFFFFFFFFFFFFFFFFFFFFFFFFFF AND PUSH20 0xFFFFFFFFFFFFFFFFFFFFFFFFFFFFFFFFFFFFFFFF AND PUSH4 0x2F54BF6E CALLER PUSH1 0x40 MLOAD DUP3 PUSH4 0xFFFFFFFF AND PUSH1 0xE0 SHL DUP2 MSTORE PUSH1 0x4 ADD PUSH2 0x446 SWAP2 SWAP1 PUSH2 0x446D JUMP JUMPDEST PUSH1 0x20 PUSH1 0x40 MLOAD DUP1 DUP4 SUB DUP2 DUP7 GAS STATICCALL ISZERO DUP1 ISZERO PUSH2 0x461 JUMPI RETURNDATASIZE PUSH0 DUP1 RETURNDATACOPY RETURNDATASIZE PUSH0 REVERT JUMPDEST POP POP POP POP PUSH1 0x40 MLOAD RETURNDATASIZE PUSH1 0x1F NOT PUSH1 0x1F DUP3 ADD AND DUP3 ADD DUP1 PUSH1 0x40 MSTORE POP DUP2 ADD SWAP1 PUSH2 0x485 SWAP2 SWAP1 PUSH2 0x4D3A JUMP JUMPDEST PUSH2 0x4C4 JUMPI PUSH1 0x40 MLOAD PUSH32 0x8C379A000000000000000000000000000000000000000000000000000000000 DUP2 MSTORE PUSH1 0x4 ADD PUSH2 0x4BB SWAP1 PUSH2 0x4DBF JUMP JUMPDEST PUSH1 0x40 MLOAD DUP1 SWAP2 SUB SWAP1 REVERT JUMPDEST DUP1 PUSH1 0x9 PUSH0 PUSH2 0x100 EXP DUP2 SLOAD DUP2 PUSH20 0xFFFFFFFFFFFFFFFFFFFFFFFFFFFFFFFFFFFFFFFF MUL NOT AND SWAP1 DUP4 PUSH20 0xFFFFFFFFFFFFFFFFFFFFFFFFFFFFFFFFFFFFFFFF AND MUL OR SWAP1 SSTORE POP PUSH1 0x9 PUSH0 SWAP1 SLOAD SWAP1 PUSH2 0x100 EXP SWAP1 DIV PUSH20 0xFFFFFFFFFFFFFFFFFFFFFFFFFFFFFFFFFFFFFFFF AND PUSH1 0x3 PUSH0 PUSH2 0x100 EXP DUP2 SLOAD DUP2 PUSH20 0xFFFFFFFFFFFFFFFFFFFFFFFFFFFFFFFFFFFFFFFF MUL NOT AND SWAP1 DUP4 PUSH20 0xFFFFFFFFFFFFFFFFFFFFFFFFFFFFFFFFFFFFFFFF AND MUL OR SWAP1 SSTORE POP POP JUMP JUMPDEST PUSH0 PUSH1 0x7 PUSH0 SWAP1 SLOAD SWAP1 PUSH2 0x100 EXP SWAP1 DIV PUSH20 0xFFFFFFFFFFFFFFFFFFFFFFFFFFFFFFFFFFFFFFFF AND SWAP1 POP SWAP1 JUMP JUMPDEST PUSH0 PUSH2 0x59B PUSH1 0x1 PUSH2 0x311E JUMP JUMPDEST SWAP1 POP SWAP1 JUMP JUMPDEST PUSH2 0x5A8 PUSH2 0x42F4 JUMP JUMPDEST PUSH0 PUSH1 0xC PUSH0 DUP5 DUP2 MSTORE PUSH1 0x20 ADD SWAP1 DUP2 MSTORE PUSH1 0x20 ADD PUSH0 KECCAK256 PUSH0 ADD SLOAD GT PUSH2 0x5FD JUMPI PUSH1 0x40 MLOAD PUSH32 0x8C379A000000000000000000000000000000000000000000000000000000000 DUP2 MSTORE PUSH1 0x4 ADD PUSH2 0x5F4 SWAP1 PUSH2 0x4E27 JUMP JUMPDEST PUSH1 0x40 MLOAD DUP1 SWAP2 SUB SWAP1 REVERT JUMPDEST PUSH1 0xC PUSH0 DUP4 DUP2 MSTORE PUSH1 0x20 ADD SWAP1 DUP2 MSTORE PUSH1 0x20 ADD PUSH0 KECCAK256 PUSH1 0x40 MLOAD DUP1 PUSH2 0x160 ADD PUSH1 0x40 MSTORE SWAP1 DUP2 PUSH0 DUP3 ADD SLOAD DUP2 MSTORE PUSH1 0x20 ADD PUSH1 0x1 DUP3 ADD DUP1 SLOAD PUSH2 0x633 SWAP1 PUSH2 0x4E72 JUMP JUMPDEST DUP1 PUSH1 0x1F ADD PUSH1 0x20 DUP1 SWAP2 DIV MUL PUSH1 0x20 ADD PUSH1 0x40 MLOAD SWAP1 DUP2 ADD PUSH1 0x40 MSTORE DUP1 SWAP3 SWAP2 SWAP1 DUP2 DUP2 MSTORE PUSH1 0x20 ADD DUP3 DUP1 SLOAD PUSH2 0x65F SWAP1 PUSH2 0x4E72 JUMP JUMPDEST DUP1 ISZERO PUSH2 0x6AA JUMPI DUP1 PUSH1 0x1F LT PUSH2 0x681 JUMPI PUSH2 0x100 DUP1 DUP4 SLOAD DIV MUL DUP4 MSTORE SWAP2 PUSH1 0x20 ADD SWAP2 PUSH2 0x6AA JUMP JUMPDEST DUP3 ADD SWAP2 SWAP1 PUSH0 MSTORE PUSH1 0x20 PUSH0 KECCAK256 SWAP1 JUMPDEST DUP2 SLOAD DUP2 MSTORE SWAP1 PUSH1 0x1 ADD SWAP1 PUSH1 0x20 ADD DUP1 DUP4 GT PUSH2 0x68D JUMPI DUP3 SWAP1 SUB PUSH1 0x1F AND DUP3 ADD SWAP2 JUMPDEST POP POP POP POP POP DUP2 MSTORE PUSH1 0x20 ADD PUSH1 0x2 DUP3 ADD DUP1 SLOAD PUSH2 0x6C3 SWAP1 PUSH2 0x4E72 JUMP JUMPDEST DUP1 PUSH1 0x1F ADD PUSH1 0x20 DUP1 SWAP2 DIV MUL PUSH1 0x20 ADD PUSH1 0x40 MLOAD SWAP1 DUP2 ADD PUSH1 0x40 MSTORE DUP1 SWAP3 SWAP2 SWAP1 DUP2 DUP2 MSTORE PUSH1 0x20 ADD DUP3 DUP1 SLOAD PUSH2 0x6EF SWAP1 PUSH2 0x4E72 JUMP JUMPDEST DUP1 ISZERO PUSH2 0x73A JUMPI DUP1 PUSH1 0x1F LT PUSH2 0x711 JUMPI PUSH2 0x100 DUP1 DUP4 SLOAD DIV MUL DUP4 MSTORE SWAP2 PUSH1 0x20 ADD SWAP2 PUSH2 0x73A JUMP JUMPDEST DUP3 ADD SWAP2 SWAP1 PUSH0 MSTORE PUSH1 0x20 PUSH0 KECCAK256 SWAP1 JUMPDEST DUP2 SLOAD DUP2 MSTORE SWAP1 PUSH1 0x1 ADD SWAP1 PUSH1 0x20 ADD DUP1 DUP4 GT PUSH2 0x71D JUMPI DUP3 SWAP1 SUB PUSH1 0x1F AND DUP3 ADD SWAP2 JUMPDEST POP POP POP POP POP DUP2 MSTORE PUSH1 0x20 ADD PUSH1 0x3 DUP3 ADD DUP1 SLOAD PUSH2 0x753 SWAP1 PUSH2 0x4E72 JUMP JUMPDEST DUP1 PUSH1 0x1F ADD PUSH1 0x20 DUP1 SWAP2 DIV MUL PUSH1 0x20 ADD PUSH1 0x40 MLOAD SWAP1 DUP2 ADD PUSH1 0x40 MSTORE DUP1 SWAP3 SWAP2 SWAP1 DUP2 DUP2 MSTORE PUSH1 0x20 ADD DUP3 DUP1 SLOAD PUSH2 0x77F SWAP1 PUSH2 0x4E72 JUMP JUMPDEST DUP1 ISZERO PUSH2 0x7CA JUMPI DUP1 PUSH1 0x1F LT PUSH2 0x7A1 JUMPI PUSH2 0x100 DUP1 DUP4 SLOAD DIV MUL DUP4 MSTORE SWAP2 PUSH1 0x20 ADD SWAP2 PUSH2 0x7CA JUMP JUMPDEST DUP3 ADD SWAP2 SWAP1 PUSH0 MSTORE PUSH1 0x20 PUSH0 KECCAK256 SWAP1 JUMPDEST DUP2 SLOAD DUP2 MSTORE SWAP1 PUSH1 0x1 ADD SWAP1 PUSH1 0x20 ADD DUP1 DUP4 GT PUSH2 0x7AD JUMPI DUP3 SWAP1 SUB PUSH1 0x1F AND DUP3 ADD SWAP2 JUMPDEST POP POP POP POP POP DUP2 MSTORE PUSH1 0x20 ADD PUSH1 0x4 DUP3 ADD SLOAD DUP2 MSTORE PUSH1 0x20 ADD PUSH1 0x5 DUP3 ADD PUSH0 SWAP1 SLOAD SWAP1 PUSH2 0x100 EXP SWAP1 DIV PUSH20 0xFFFFFFFFFFFFFFFFFFFFFFFFFFFFFFFFFFFFFFFF AND PUSH20 0xFFFFFFFFFFFFFFFFFFFFFFFFFFFFFFFFFFFFFFFF AND PUSH20 0xFFFFFFFFFFFFFFFFFFFFFFFFFFFFFFFFFFFFFFFF AND DUP2 MSTORE PUSH1 0x20 ADD PUSH1 0x6 DUP3 ADD DUP1 SLOAD PUSH2 0x842 SWAP1 PUSH2 0x4E72 JUMP JUMPDEST DUP1 PUSH1 0x1F ADD PUSH1 0x20 DUP1 SWAP2 DIV MUL PUSH1 0x20 ADD PUSH1 0x40 MLOAD SWAP1 DUP2 ADD PUSH1 0x40 MSTORE DUP1 SWAP3 SWAP2 SWAP1 DUP2 DUP2 MSTORE PUSH1 0x20 ADD DUP3 DUP1 SLOAD PUSH2 0x86E SWAP1 PUSH2 0x4E72 JUMP JUMPDEST DUP1 ISZERO PUSH2 0x8B9 JUMPI DUP1 PUSH1 0x1F LT PUSH2 0x890 JUMPI PUSH2 0x100 DUP1 DUP4 SLOAD DIV MUL DUP4 MSTORE SWAP2 PUSH1 0x20 ADD SWAP2 PUSH2 0x8B9 JUMP JUMPDEST DUP3 ADD SWAP2 SWAP1 PUSH0 MSTORE PUSH1 0x20 PUSH0 KECCAK256 SWAP1 JUMPDEST DUP2 SLOAD DUP2 MSTORE SWAP1 PUSH1 0x1 ADD SWAP1 PUSH1 0x20 ADD DUP1 DUP4 GT PUSH2 0x89C JUMPI DUP3 SWAP1 SUB PUSH1 0x1F AND DUP3 ADD SWAP2 JUMPDEST POP POP POP POP POP DUP2 MSTORE PUSH1 0x20 ADD PUSH1 0x7 DUP3 ADD SLOAD DUP2 MSTORE PUSH1 0x20 ADD PUSH1 0x8 DUP3 ADD DUP1 SLOAD PUSH2 0x8DC SWAP1 PUSH2 0x4E72 JUMP JUMPDEST DUP1 PUSH1 0x1F ADD PUSH1 0x20 DUP1 SWAP2 DIV MUL PUSH1 0x20 ADD PUSH1 0x40 MLOAD SWAP1 DUP2 ADD PUSH1 0x40 MSTORE DUP1 SWAP3 SWAP2 SWAP1 DUP2 DUP2 MSTORE PUSH1 0x20 ADD DUP3 DUP1 SLOAD PUSH2 0x908 SWAP1 PUSH2 0x4E72 JUMP JUMPDEST DUP1 ISZERO PUSH2 0x953 JUMPI DUP1 PUSH1 0x1F LT PUSH2 0x92A JUMPI PUSH2 0x100 DUP1 DUP4 SLOAD DIV MUL DUP4 MSTORE SWAP2 PUSH1 0x20 ADD SWAP2 PUSH2 0x953 JUMP JUMPDEST DUP3 ADD SWAP2 SWAP1 PUSH0 MSTORE PUSH1 0x20 PUSH0 KECCAK256 SWAP1 JUMPDEST DUP2 SLOAD DUP2 MSTORE SWAP1 PUSH1 0x1 ADD SWAP1 PUSH1 0x20 ADD DUP1 DUP4 GT PUSH2 0x936 JUMPI DUP3 SWAP1 SUB PUSH1 0x1F AND DUP3 ADD SWAP2 JUMPDEST POP POP POP POP POP DUP2 MSTORE PUSH1 0x20 ADD PUSH1 0x9 DUP3 ADD PUSH0 SWAP1 SLOAD SWAP1 PUSH2 0x100 EXP SWAP1 DIV PUSH1 0xFF AND PUSH1 0x3 DUP2 GT ISZERO PUSH2 0x980 JUMPI PUSH2 0x97F PUSH2 0x459A JUMP JUMPDEST JUMPDEST PUSH1 0x3 DUP2 GT ISZERO PUSH2 0x992 JUMPI PUSH2 0x991 PUSH2 0x459A JUMP JUMPDEST JUMPDEST DUP2 MSTORE PUSH1 0x20 ADD PUSH1 0xA DUP3 ADD SLOAD DUP2 MSTORE POP POP SWAP1 POP SWAP2 SWAP1 POP JUMP JUMPDEST PUSH1 0x4 PUSH0 SWAP1 SLOAD SWAP1 PUSH2 0x100 EXP SWAP1 DIV PUSH20 0xFFFFFFFFFFFFFFFFFFFFFFFFFFFFFFFFFFFFFFFF AND PUSH20 0xFFFFFFFFFFFFFFFFFFFFFFFFFFFFFFFFFFFFFFFF AND PUSH4 0x24D7806C CALLER PUSH1 0x40 MLOAD DUP3 PUSH4 0xFFFFFFFF AND PUSH1 0xE0 SHL DUP2 MSTORE PUSH1 0x4 ADD PUSH2 0xA01 SWAP2 SWAP1 PUSH2 0x446D JUMP JUMPDEST PUSH1 0x20 PUSH1 0x40 MLOAD DUP1 DUP4 SUB DUP2 DUP7 GAS STATICCALL ISZERO DUP1 ISZERO PUSH2 0xA1C JUMPI RETURNDATASIZE PUSH0 DUP1 RETURNDATACOPY RETURNDATASIZE PUSH0 REVERT JUMPDEST POP POP POP POP PUSH1 0x40 MLOAD RETURNDATASIZE PUSH1 0x1F NOT PUSH1 0x1F DUP3 ADD AND DUP3 ADD DUP1 PUSH1 0x40 MSTORE POP DUP2 ADD SWAP1 PUSH2 0xA40 SWAP2 SWAP1 PUSH2 0x4D3A JUMP JUMPDEST PUSH2 0xA7F JUMPI PUSH1 0x40 MLOAD PUSH32 0x8C379A000000000000000000000000000000000000000000000000000000000 DUP2 MSTORE PUSH1 0x4 ADD PUSH2 0xA76 SWAP1 PUSH2 0x4EEC JUMP JUMPDEST PUSH1 0x40 MLOAD DUP1 SWAP2 SUB SWAP1 REVERT JUMPDEST PUSH0 PUSH1 0xC PUSH0 DUP4 DUP2 MSTORE PUSH1 0x20 ADD SWAP1 DUP2 MSTORE PUSH1 0x20 ADD PUSH0 KECCAK256 PUSH1 0x5 ADD PUSH0 SWAP1 SLOAD SWAP1 PUSH2 0x100 EXP SWAP1 DIV PUSH20 0xFFFFFFFFFFFFFFFFFFFFFFFFFFFFFFFFFFFFFFFF AND SWAP1 POP PUSH0 PUSH20 0xFFFFFFFFFFFFFFFFFFFFFFFFFFFFFFFFFFFFFFFF AND DUP2 PUSH20 0xFFFFFFFFFFFFFFFFFFFFFFFFFFFFFFFFFFFFFFFF AND SUB PUSH2 0xB24 JUMPI PUSH1 0x40 MLOAD PUSH32 0x8C379A000000000000000000000000000000000000000000000000000000000 DUP2 MSTORE PUSH1 0x4 ADD PUSH2 0xB1B SWAP1 PUSH2 0x4F54 JUMP JUMPDEST PUSH1 0x40 MLOAD DUP1 SWAP2 SUB SWAP1 REVERT JUMPDEST PUSH0 PUSH1 0x3 DUP2 GT ISZERO PUSH2 0xB37 JUMPI PUSH2 0xB36 PUSH2 0x459A JUMP JUMPDEST JUMPDEST PUSH1 0xC PUSH0 DUP5 DUP2 MSTORE PUSH1 0x20 ADD SWAP1 DUP2 MSTORE PUSH1 0x20 ADD PUSH0 KECCAK256 PUSH1 0x9 ADD PUSH0 SWAP1 SLOAD SWAP1 PUSH2 0x100 EXP SWAP1 DIV PUSH1 0xFF AND PUSH1 0x3 DUP2 GT ISZERO PUSH2 0xB6A JUMPI PUSH2 0xB69 PUSH2 0x459A JUMP JUMPDEST JUMPDEST EQ PUSH2 0xBAA JUMPI PUSH1 0x40 MLOAD PUSH32 0x8C379A000000000000000000000000000000000000000000000000000000000 DUP2 MSTORE PUSH1 0x4 ADD PUSH2 0xBA1 SWAP1 PUSH2 0x4FBC JUMP JUMPDEST PUSH1 0x40 MLOAD DUP1 SWAP2 SUB SWAP1 REVERT JUMPDEST PUSH0 PUSH1 0xC PUSH0 DUP5 DUP2 MSTORE PUSH1 0x20 ADD SWAP1 DUP2 MSTORE PUSH1 0x20 ADD PUSH0 KECCAK256 PUSH1 0x1 ADD DUP1 SLOAD PUSH2 0xBCA SWAP1 PUSH2 0x4E72 JUMP JUMPDEST DUP1 PUSH1 0x1F ADD PUSH1 0x20 DUP1 SWAP2 DIV MUL PUSH1 0x20 ADD PUSH1 0x40 MLOAD SWAP1 DUP2 ADD PUSH1 0x40 MSTORE DUP1 SWAP3 SWAP2 SWAP1 DUP2 DUP2 MSTORE PUSH1 0x20 ADD DUP3 DUP1 SLOAD PUSH2 0xBF6 SWAP1 PUSH2 0x4E72 JUMP JUMPDEST DUP1 ISZERO PUSH2 0xC41 JUMPI DUP1 PUSH1 0x1F LT PUSH2 0xC18 JUMPI PUSH2 0x100 DUP1 DUP4 SLOAD DIV MUL DUP4 MSTORE SWAP2 PUSH1 0x20 ADD SWAP2 PUSH2 0xC41 JUMP JUMPDEST DUP3 ADD SWAP2 SWAP1 PUSH0 MSTORE PUSH1 0x20 PUSH0 KECCAK256 SWAP1 JUMPDEST DUP2 SLOAD DUP2 MSTORE SWAP1 PUSH1 0x1 ADD SWAP1 PUSH1 0x20 ADD DUP1 DUP4 GT PUSH2 0xC24 JUMPI DUP3 SWAP1 SUB PUSH1 0x1F AND DUP3 ADD SWAP2 JUMPDEST POP POP POP POP POP SWAP1 POP PUSH0 PUSH1 0xC PUSH0 DUP6 DUP2 MSTORE PUSH1 0x20 ADD SWAP1 DUP2 MSTORE PUSH1 0x20 ADD PUSH0 KECCAK256 PUSH1 0x3 ADD DUP1 SLOAD PUSH2 0xC68 SWAP1 PUSH2 0x4E72 JUMP JUMPDEST DUP1 PUSH1 0x1F ADD PUSH1 0x20 DUP1 SWAP2 DIV MUL PUSH1 0x20 ADD PUSH1 0x40 MLOAD SWAP1 DUP2 ADD PUSH1 0x40 MSTORE DUP1 SWAP3 SWAP2 SWAP1 DUP2 DUP2 MSTORE PUSH1 0x20 ADD DUP3 DUP1 SLOAD PUSH2 0xC94 SWAP1 PUSH2 0x4E72 JUMP JUMPDEST DUP1 ISZERO PUSH2 0xCDF JUMPI DUP1 PUSH1 0x1F LT PUSH2 0xCB6 JUMPI PUSH2 0x100 DUP1 DUP4 SLOAD DIV MUL DUP4 MSTORE SWAP2 PUSH1 0x20 ADD SWAP2 PUSH2 0xCDF JUMP JUMPDEST DUP3 ADD SWAP2 SWAP1 PUSH0 MSTORE PUSH1 0x20 PUSH0 KECCAK256 SWAP1 JUMPDEST DUP2 SLOAD DUP2 MSTORE SWAP1 PUSH1 0x1 ADD SWAP1 PUSH1 0x20 ADD DUP1 DUP4 GT PUSH2 0xCC2 JUMPI DUP3 SWAP1 SUB PUSH1 0x1F AND DUP3 ADD SWAP2 JUMPDEST POP POP POP POP POP SWAP1 POP PUSH0 PUSH2 0xCF3 PUSH1 0x1 DUP5 DUP5 PUSH2 0x3183 JUMP JUMPDEST SWAP1 POP PUSH0 DUP2 GT ISZERO PUSH2 0xDF0 JUMPI PUSH2 0xD59 PUSH1 0xC PUSH0 DUP4 DUP2 MSTORE PUSH1 0x20 ADD SWAP1 DUP2 MSTORE PUSH1 0x20 ADD PUSH0 KECCAK256 PUSH1 0x4 ADD SLOAD PUSH1 0xC PUSH0 DUP5 DUP2 MSTORE PUSH1 0x20 ADD SWAP1 DUP2 MSTORE PUSH1 0x20 ADD PUSH0 KECCAK256 PUSH1 0x7 ADD SLOAD PUSH1 0xC PUSH0 DUP10 DUP2 MSTORE PUSH1 0x20 ADD SWAP1 DUP2 MSTORE PUSH1 0x20 ADD PUSH0 KECCAK256 PUSH1 0x4 ADD SLOAD PUSH1 0xC PUSH0 DUP11 DUP2 MSTORE PUSH1 0x20 ADD SWAP1 DUP2 MSTORE PUSH1 0x20 ADD PUSH0 KECCAK256 PUSH1 0x7 ADD SLOAD PUSH2 0x337E JUMP JUMPDEST PUSH2 0xD62 DUP2 PUSH2 0x341D JUMP JUMPDEST PUSH1 0x3 PUSH0 SWAP1 SLOAD SWAP1 PUSH2 0x100 EXP SWAP1 DIV PUSH20 0xFFFFFFFFFFFFFFFFFFFFFFFFFFFFFFFFFFFFFFFF AND PUSH20 0xFFFFFFFFFFFFFFFFFFFFFFFFFFFFFFFFFFFFFFFF AND PUSH4 0x19E9EE75 DUP6 TIMESTAMP PUSH1 0x40 MLOAD DUP4 PUSH4 0xFFFFFFFF AND PUSH1 0xE0 SHL DUP2 MSTORE PUSH1 0x4 ADD PUSH2 0xDBE SWAP3 SWAP2 SWAP1 PUSH2 0x4FDA JUMP JUMPDEST PUSH0 PUSH1 0x40 MLOAD DUP1 DUP4 SUB DUP2 PUSH0 DUP8 DUP1 EXTCODESIZE ISZERO DUP1 ISZERO PUSH2 0xDD5 JUMPI PUSH0 DUP1 REVERT JUMPDEST POP GAS CALL ISZERO DUP1 ISZERO PUSH2 0xDE7 JUMPI RETURNDATASIZE PUSH0 DUP1 RETURNDATACOPY RETURNDATASIZE PUSH0 REVERT JUMPDEST POP POP POP POP PUSH2 0xE7A JUMP JUMPDEST PUSH1 0x3 PUSH0 SWAP1 SLOAD SWAP1 PUSH2 0x100 EXP SWAP1 DIV PUSH20 0xFFFFFFFFFFFFFFFFFFFFFFFFFFFFFFFFFFFFFFFF AND PUSH20 0xFFFFFFFFFFFFFFFFFFFFFFFFFFFFFFFFFFFFFFFF AND PUSH4 0x72316EF3 DUP6 TIMESTAMP PUSH1 0x40 MLOAD DUP4 PUSH4 0xFFFFFFFF AND PUSH1 0xE0 SHL DUP2 MSTORE PUSH1 0x4 ADD PUSH2 0xE4C SWAP3 SWAP2 SWAP1 PUSH2 0x4FDA JUMP JUMPDEST PUSH0 PUSH1 0x40 MLOAD DUP1 DUP4 SUB DUP2 PUSH0 DUP8 DUP1 EXTCODESIZE ISZERO DUP1 ISZERO PUSH2 0xE63 JUMPI PUSH0 DUP1 REVERT JUMPDEST POP GAS CALL ISZERO DUP1 ISZERO PUSH2 0xE75 JUMPI RETURNDATASIZE PUSH0 DUP1 RETURNDATACOPY RETURNDATASIZE PUSH0 REVERT JUMPDEST POP POP POP POP JUMPDEST PUSH1 0x1 PUSH1 0xC PUSH0 DUP8 DUP2 MSTORE PUSH1 0x20 ADD SWAP1 DUP2 MSTORE PUSH1 0x20 ADD PUSH0 KECCAK256 PUSH1 0x9 ADD PUSH0 PUSH2 0x100 EXP DUP2 SLOAD DUP2 PUSH1 0xFF MUL NOT AND SWAP1 DUP4 PUSH1 0x3 DUP2 GT ISZERO PUSH2 0xEB1 JUMPI PUSH2 0xEB0 PUSH2 0x459A JUMP JUMPDEST JUMPDEST MUL OR SWAP1 SSTORE POP PUSH32 0xBF010ABA48E49020ED90D2F6B9AE36C27E06A48F276AA44D6594E44347CB5CAD DUP6 PUSH1 0x1 PUSH1 0x40 MLOAD PUSH2 0xEE8 SWAP3 SWAP2 SWAP1 PUSH2 0x5010 JUMP JUMPDEST PUSH1 0x40 MLOAD DUP1 SWAP2 SUB SWAP1 LOG1 POP POP POP POP POP JUMP JUMPDEST PUSH0 DUP1 PUSH0 DUP1 PUSH1 0x4 PUSH0 SWAP1 SLOAD SWAP1 PUSH2 0x100 EXP SWAP1 DIV PUSH20 0xFFFFFFFFFFFFFFFFFFFFFFFFFFFFFFFFFFFFFFFF AND PUSH20 0xFFFFFFFFFFFFFFFFFFFFFFFFFFFFFFFFFFFFFFFF AND PUSH4 0x2F54BF6E CALLER PUSH1 0x40 MLOAD DUP3 PUSH4 0xFFFFFFFF AND PUSH1 0xE0 SHL DUP2 MSTORE PUSH1 0x4 ADD PUSH2 0xF55 SWAP2 SWAP1 PUSH2 0x446D JUMP JUMPDEST PUSH1 0x20 PUSH1 0x40 MLOAD DUP1 DUP4 SUB DUP2 DUP7 GAS STATICCALL ISZERO DUP1 ISZERO PUSH2 0xF70 JUMPI RETURNDATASIZE PUSH0 DUP1 RETURNDATACOPY RETURNDATASIZE PUSH0 REVERT JUMPDEST POP POP POP POP PUSH1 0x40 MLOAD RETURNDATASIZE PUSH1 0x1F NOT PUSH1 0x1F DUP3 ADD AND DUP3 ADD DUP1 PUSH1 0x40 MSTORE POP DUP2 ADD SWAP1 PUSH2 0xF94 SWAP2 SWAP1 PUSH2 0x4D3A JUMP JUMPDEST PUSH2 0xFD3 JUMPI PUSH1 0x40 MLOAD PUSH32 0x8C379A000000000000000000000000000000000000000000000000000000000 DUP2 MSTORE PUSH1 0x4 ADD PUSH2 0xFCA SWAP1 PUSH2 0x4DBF JUMP JUMPDEST PUSH1 0x40 MLOAD DUP1 SWAP2 SUB SWAP1 REVERT JUMPDEST PUSH0 DUP1 SLOAD SWAP1 PUSH2 0x100 EXP SWAP1 DIV PUSH20 0xFFFFFFFFFFFFFFFFFFFFFFFFFFFFFFFFFFFFFFFF AND PUSH20 0xFFFFFFFFFFFFFFFFFFFFFFFFFFFFFFFFFFFFFFFF AND PUSH4 0xDDE798A4 ADDRESS PUSH1 0x40 MLOAD DUP3 PUSH4 0xFFFFFFFF AND PUSH1 0xE0 SHL DUP2 MSTORE PUSH1 0x4 ADD PUSH2 0x102B SWAP2 SWAP1 PUSH2 0x446D JUMP JUMPDEST PUSH1 0x80 PUSH1 0x40 MLOAD DUP1 DUP4 SUB DUP2 DUP7 GAS STATICCALL ISZERO DUP1 ISZERO PUSH2 0x1046 JUMPI RETURNDATASIZE PUSH0 DUP1 RETURNDATACOPY RETURNDATASIZE PUSH0 REVERT JUMPDEST POP POP POP POP PUSH1 0x40 MLOAD RETURNDATASIZE PUSH1 0x1F NOT PUSH1 0x1F DUP3 ADD AND DUP3 ADD DUP1 PUSH1 0x40 MSTORE POP DUP2 ADD SWAP1 PUSH2 0x106A SWAP2 SWAP1 PUSH2 0x506E JUMP JUMPDEST SWAP4 POP SWAP4 POP SWAP4 POP SWAP4 POP SWAP1 SWAP2 SWAP3 SWAP4 JUMP JUMPDEST PUSH1 0x4 PUSH0 SWAP1 SLOAD SWAP1 PUSH2 0x100 EXP SWAP1 DIV PUSH20 0xFFFFFFFFFFFFFFFFFFFFFFFFFFFFFFFFFFFFFFFF AND PUSH20 0xFFFFFFFFFFFFFFFFFFFFFFFFFFFFFFFFFFFFFFFF AND PUSH4 0x24D7806C CALLER PUSH1 0x40 MLOAD DUP3 PUSH4 0xFFFFFFFF AND PUSH1 0xE0 SHL DUP2 MSTORE PUSH1 0x4 ADD PUSH2 0x10D2 SWAP2 SWAP1 PUSH2 0x446D JUMP JUMPDEST PUSH1 0x20 PUSH1 0x40 MLOAD DUP1 DUP4 SUB DUP2 DUP7 GAS STATICCALL ISZERO DUP1 ISZERO PUSH2 0x10ED JUMPI RETURNDATASIZE PUSH0 DUP1 RETURNDATACOPY RETURNDATASIZE PUSH0 REVERT JUMPDEST POP POP POP POP PUSH1 0x40 MLOAD RETURNDATASIZE PUSH1 0x1F NOT PUSH1 0x1F DUP3 ADD AND DUP3 ADD DUP1 PUSH1 0x40 MSTORE POP DUP2 ADD SWAP1 PUSH2 0x1111 SWAP2 SWAP1 PUSH2 0x4D3A JUMP JUMPDEST PUSH2 0x1150 JUMPI PUSH1 0x40 MLOAD PUSH32 0x8C379A000000000000000000000000000000000000000000000000000000000 DUP2 MSTORE PUSH1 0x4 ADD PUSH2 0x1147 SWAP1 PUSH2 0x4EEC JUMP JUMPDEST PUSH1 0x40 MLOAD DUP1 SWAP2 SUB SWAP1 REVERT JUMPDEST PUSH0 PUSH1 0xC PUSH0 DUP4 DUP2 MSTORE PUSH1 0x20 ADD SWAP1 DUP2 MSTORE PUSH1 0x20 ADD PUSH0 KECCAK256 PUSH0 ADD SLOAD GT PUSH2 0x11A5 JUMPI PUSH1 0x40 MLOAD PUSH32 0x8C379A000000000000000000000000000000000000000000000000000000000 DUP2 MSTORE PUSH1 0x4 ADD PUSH2 0x119C SWAP1 PUSH2 0x4E27 JUMP JUMPDEST PUSH1 0x40 MLOAD DUP1 SWAP2 SUB SWAP1 REVERT JUMPDEST PUSH0 PUSH1 0x3 DUP2 GT ISZERO PUSH2 0x11B8 JUMPI PUSH2 0x11B7 PUSH2 0x459A JUMP JUMPDEST JUMPDEST PUSH1 0xC PUSH0 DUP4 DUP2 MSTORE PUSH1 0x20 ADD SWAP1 DUP2 MSTORE PUSH1 0x20 ADD PUSH0 KECCAK256 PUSH1 0x9 ADD PUSH0 SWAP1 SLOAD SWAP1 PUSH2 0x100 EXP SWAP1 DIV PUSH1 0xFF AND PUSH1 0x3 DUP2 GT ISZERO PUSH2 0x11EB JUMPI PUSH2 0x11EA PUSH2 0x459A JUMP JUMPDEST JUMPDEST EQ PUSH2 0x122B JUMPI PUSH1 0x40 MLOAD PUSH32 0x8C379A000000000000000000000000000000000000000000000000000000000 DUP2 MSTORE PUSH1 0x4 ADD PUSH2 0x1222 SWAP1 PUSH2 0x4FBC JUMP JUMPDEST PUSH1 0x40 MLOAD DUP1 SWAP2 SUB SWAP1 REVERT JUMPDEST PUSH2 0x127C PUSH1 0xC PUSH0 DUP4 DUP2 MSTORE PUSH1 0x20 ADD SWAP1 DUP2 MSTORE PUSH1 0x20 ADD PUSH0 KECCAK256 PUSH1 0x5 ADD PUSH0 SWAP1 SLOAD SWAP1 PUSH2 0x100 EXP SWAP1 DIV PUSH20 0xFFFFFFFFFFFFFFFFFFFFFFFFFFFFFFFFFFFFFFFF AND PUSH1 0xC PUSH0 DUP5 DUP2 MSTORE PUSH1 0x20 ADD SWAP1 DUP2 MSTORE PUSH1 0x20 ADD PUSH0 KECCAK256 PUSH1 0x7 ADD SLOAD PUSH2 0x369B JUMP JUMPDEST PUSH1 0x2 PUSH1 0xC PUSH0 DUP4 DUP2 MSTORE PUSH1 0x20 ADD SWAP1 DUP2 MSTORE PUSH1 0x20 ADD PUSH0 KECCAK256 PUSH1 0x9 ADD PUSH0 PUSH2 0x100 EXP DUP2 SLOAD DUP2 PUSH1 0xFF MUL NOT AND SWAP1 DUP4 PUSH1 0x3 DUP2 GT ISZERO PUSH2 0x12B3 JUMPI PUSH2 0x12B2 PUSH2 0x459A JUMP JUMPDEST JUMPDEST MUL OR SWAP1 SSTORE POP PUSH32 0xBF010ABA48E49020ED90D2F6B9AE36C27E06A48F276AA44D6594E44347CB5CAD DUP2 PUSH1 0x2 PUSH1 0x40 MLOAD PUSH2 0x12EA SWAP3 SWAP2 SWAP1 PUSH2 0x5010 JUMP JUMPDEST PUSH1 0x40 MLOAD DUP1 SWAP2 SUB SWAP1 LOG1 POP JUMP JUMPDEST PUSH1 0x60 PUSH1 0x4 PUSH0 SWAP1 SLOAD SWAP1 PUSH2 0x100 EXP SWAP1 DIV PUSH20 0xFFFFFFFFFFFFFFFFFFFFFFFFFFFFFFFFFFFFFFFF AND PUSH20 0xFFFFFFFFFFFFFFFFFFFFFFFFFFFFFFFFFFFFFFFF AND PUSH4 0x24D7806C CALLER PUSH1 0x40 MLOAD DUP3 PUSH4 0xFFFFFFFF AND PUSH1 0xE0 SHL DUP2 MSTORE PUSH1 0x4 ADD PUSH2 0x1351 SWAP2 SWAP1 PUSH2 0x446D JUMP JUMPDEST PUSH1 0x20 PUSH1 0x40 MLOAD DUP1 DUP4 SUB DUP2 DUP7 GAS STATICCALL ISZERO DUP1 ISZERO PUSH2 0x136C JUMPI RETURNDATASIZE PUSH0 DUP1 RETURNDATACOPY RETURNDATASIZE PUSH0 REVERT JUMPDEST POP POP POP POP PUSH1 0x40 MLOAD RETURNDATASIZE PUSH1 0x1F NOT PUSH1 0x1F DUP3 ADD AND DUP3 ADD DUP1 PUSH1 0x40 MSTORE POP DUP2 ADD SWAP1 PUSH2 0x1390 SWAP2 SWAP1 PUSH2 0x4D3A JUMP JUMPDEST PUSH2 0x13CF JUMPI PUSH1 0x40 MLOAD PUSH32 0x8C379A000000000000000000000000000000000000000000000000000000000 DUP2 MSTORE PUSH1 0x4 ADD PUSH2 0x13C6 SWAP1 PUSH2 0x4EEC JUMP JUMPDEST PUSH1 0x40 MLOAD DUP1 SWAP2 SUB SWAP1 REVERT JUMPDEST PUSH0 PUSH2 0x13D9 PUSH0 PUSH2 0x311E JUMP JUMPDEST SWAP1 POP PUSH0 DUP2 PUSH8 0xFFFFFFFFFFFFFFFF DUP2 GT ISZERO PUSH2 0x13F6 JUMPI PUSH2 0x13F5 PUSH2 0x49A9 JUMP JUMPDEST JUMPDEST PUSH1 0x40 MLOAD SWAP1 DUP1 DUP3 MSTORE DUP1 PUSH1 0x20 MUL PUSH1 0x20 ADD DUP3 ADD PUSH1 0x40 MSTORE DUP1 ISZERO PUSH2 0x142F JUMPI DUP2 PUSH1 0x20 ADD JUMPDEST PUSH2 0x141C PUSH2 0x42F4 JUMP JUMPDEST DUP2 MSTORE PUSH1 0x20 ADD SWAP1 PUSH1 0x1 SWAP1 SUB SWAP1 DUP2 PUSH2 0x1414 JUMPI SWAP1 POP JUMPDEST POP SWAP1 POP PUSH0 DUP1 JUMPDEST PUSH1 0xD DUP1 SLOAD SWAP1 POP DUP2 LT ISZERO PUSH2 0x1864 JUMPI PUSH2 0x1468 PUSH1 0xD DUP3 DUP2 SLOAD DUP2 LT PUSH2 0x1459 JUMPI PUSH2 0x1458 PUSH2 0x50D2 JUMP JUMPDEST JUMPDEST SWAP1 PUSH0 MSTORE PUSH1 0x20 PUSH0 KECCAK256 ADD SLOAD PUSH0 PUSH2 0x39F7 JUMP JUMPDEST ISZERO PUSH2 0x1857 JUMPI PUSH1 0xC PUSH0 PUSH1 0xD DUP4 DUP2 SLOAD DUP2 LT PUSH2 0x1484 JUMPI PUSH2 0x1483 PUSH2 0x50D2 JUMP JUMPDEST JUMPDEST SWAP1 PUSH0 MSTORE PUSH1 0x20 PUSH0 KECCAK256 ADD SLOAD DUP2 MSTORE PUSH1 0x20 ADD SWAP1 DUP2 MSTORE PUSH1 0x20 ADD PUSH0 KECCAK256 PUSH1 0x40 MLOAD DUP1 PUSH2 0x160 ADD PUSH1 0x40 MSTORE SWAP1 DUP2 PUSH0 DUP3 ADD SLOAD DUP2 MSTORE PUSH1 0x20 ADD PUSH1 0x1 DUP3 ADD DUP1 SLOAD PUSH2 0x14BF SWAP1 PUSH2 0x4E72 JUMP JUMPDEST DUP1 PUSH1 0x1F ADD PUSH1 0x20 DUP1 SWAP2 DIV MUL PUSH1 0x20 ADD PUSH1 0x40 MLOAD SWAP1 DUP2 ADD PUSH1 0x40 MSTORE DUP1 SWAP3 SWAP2 SWAP1 DUP2 DUP2 MSTORE PUSH1 0x20 ADD DUP3 DUP1 SLOAD PUSH2 0x14EB SWAP1 PUSH2 0x4E72 JUMP JUMPDEST DUP1 ISZERO PUSH2 0x1536 JUMPI DUP1 PUSH1 0x1F LT PUSH2 0x150D JUMPI PUSH2 0x100 DUP1 DUP4 SLOAD DIV MUL DUP4 MSTORE SWAP2 PUSH1 0x20 ADD SWAP2 PUSH2 0x1536 JUMP JUMPDEST DUP3 ADD SWAP2 SWAP1 PUSH0 MSTORE PUSH1 0x20 PUSH0 KECCAK256 SWAP1 JUMPDEST DUP2 SLOAD DUP2 MSTORE SWAP1 PUSH1 0x1 ADD SWAP1 PUSH1 0x20 ADD DUP1 DUP4 GT PUSH2 0x1519 JUMPI DUP3 SWAP1 SUB PUSH1 0x1F AND DUP3 ADD SWAP2 JUMPDEST POP POP POP POP POP DUP2 MSTORE PUSH1 0x20 ADD PUSH1 0x2 DUP3 ADD DUP1 SLOAD PUSH2 0x154F SWAP1 PUSH2 0x4E72 JUMP JUMPDEST DUP1 PUSH1 0x1F ADD PUSH1 0x20 DUP1 SWAP2 DIV MUL PUSH1 0x20 ADD PUSH1 0x40 MLOAD SWAP1 DUP2 ADD PUSH1 0x40 MSTORE DUP1 SWAP3 SWAP2 SWAP1 DUP2 DUP2 MSTORE PUSH1 0x20 ADD DUP3 DUP1 SLOAD PUSH2 0x157B SWAP1 PUSH2 0x4E72 JUMP JUMPDEST DUP1 ISZERO PUSH2 0x15C6 JUMPI DUP1 PUSH1 0x1F LT PUSH2 0x159D JUMPI PUSH2 0x100 DUP1 DUP4 SLOAD DIV MUL DUP4 MSTORE SWAP2 PUSH1 0x20 ADD SWAP2 PUSH2 0x15C6 JUMP JUMPDEST DUP3 ADD SWAP2 SWAP1 PUSH0 MSTORE PUSH1 0x20 PUSH0 KECCAK256 SWAP1 JUMPDEST DUP2 SLOAD DUP2 MSTORE SWAP1 PUSH1 0x1 ADD SWAP1 PUSH1 0x20 ADD DUP1 DUP4 GT PUSH2 0x15A9 JUMPI DUP3 SWAP1 SUB PUSH1 0x1F AND DUP3 ADD SWAP2 JUMPDEST POP POP POP POP POP DUP2 MSTORE PUSH1 0x20 ADD PUSH1 0x3 DUP3 ADD DUP1 SLOAD PUSH2 0x15DF SWAP1 PUSH2 0x4E72 JUMP JUMPDEST DUP1 PUSH1 0x1F ADD PUSH1 0x20 DUP1 SWAP2 DIV MUL PUSH1 0x20 ADD PUSH1 0x40 MLOAD SWAP1 DUP2 ADD PUSH1 0x40 MSTORE DUP1 SWAP3 SWAP2 SWAP1 DUP2 DUP2 MSTORE PUSH1 0x20 ADD DUP3 DUP1 SLOAD PUSH2 0x160B SWAP1 PUSH2 0x4E72 JUMP JUMPDEST DUP1 ISZERO PUSH2 0x1656 JUMPI DUP1 PUSH1 0x1F LT PUSH2 0x162D JUMPI PUSH2 0x100 DUP1 DUP4 SLOAD DIV MUL DUP4 MSTORE SWAP2 PUSH1 0x20 ADD SWAP2 PUSH2 0x1656 JUMP JUMPDEST DUP3 ADD SWAP2 SWAP1 PUSH0 MSTORE PUSH1 0x20 PUSH0 KECCAK256 SWAP1 JUMPDEST DUP2 SLOAD DUP2 MSTORE SWAP1 PUSH1 0x1 ADD SWAP1 PUSH1 0x20 ADD DUP1 DUP4 GT PUSH2 0x1639 JUMPI DUP3 SWAP1 SUB PUSH1 0x1F AND DUP3 ADD SWAP2 JUMPDEST POP POP POP POP POP DUP2 MSTORE PUSH1 0x20 ADD PUSH1 0x4 DUP3 ADD SLOAD DUP2 MSTORE PUSH1 0x20 ADD PUSH1 0x5 DUP3 ADD PUSH0 SWAP1 SLOAD SWAP1 PUSH2 0x100 EXP SWAP1 DIV PUSH20 0xFFFFFFFFFFFFFFFFFFFFFFFFFFFFFFFFFFFFFFFF AND PUSH20 0xFFFFFFFFFFFFFFFFFFFFFFFFFFFFFFFFFFFFFFFF AND PUSH20 0xFFFFFFFFFFFFFFFFFFFFFFFFFFFFFFFFFFFFFFFF AND DUP2 MSTORE PUSH1 0x20 ADD PUSH1 0x6 DUP3 ADD DUP1 SLOAD PUSH2 0x16CE SWAP1 PUSH2 0x4E72 JUMP JUMPDEST DUP1 PUSH1 0x1F ADD PUSH1 0x20 DUP1 SWAP2 DIV MUL PUSH1 0x20 ADD PUSH1 0x40 MLOAD SWAP1 DUP2 ADD PUSH1 0x40 MSTORE DUP1 SWAP3 SWAP2 SWAP1 DUP2 DUP2 MSTORE PUSH1 0x20 ADD DUP3 DUP1 SLOAD PUSH2 0x16FA SWAP1 PUSH2 0x4E72 JUMP JUMPDEST DUP1 ISZERO PUSH2 0x1745 JUMPI DUP1 PUSH1 0x1F LT PUSH2 0x171C JUMPI PUSH2 0x100 DUP1 DUP4 SLOAD DIV MUL DUP4 MSTORE SWAP2 PUSH1 0x20 ADD SWAP2 PUSH2 0x1745 JUMP JUMPDEST DUP3 ADD SWAP2 SWAP1 PUSH0 MSTORE PUSH1 0x20 PUSH0 KECCAK256 SWAP1 JUMPDEST DUP2 SLOAD DUP2 MSTORE SWAP1 PUSH1 0x1 ADD SWAP1 PUSH1 0x20 ADD DUP1 DUP4 GT PUSH2 0x1728 JUMPI DUP3 SWAP1 SUB PUSH1 0x1F AND DUP3 ADD SWAP2 JUMPDEST POP POP POP POP POP DUP2 MSTORE PUSH1 0x20 ADD PUSH1 0x7 DUP3 ADD SLOAD DUP2 MSTORE PUSH1 0x20 ADD PUSH1 0x8 DUP3 ADD DUP1 SLOAD PUSH2 0x1768 SWAP1 PUSH2 0x4E72 JUMP JUMPDEST DUP1 PUSH1 0x1F ADD PUSH1 0x20 DUP1 SWAP2 DIV MUL PUSH1 0x20 ADD PUSH1 0x40 MLOAD SWAP1 DUP2 ADD PUSH1 0x40 MSTORE DUP1 SWAP3 SWAP2 SWAP1 DUP2 DUP2 MSTORE PUSH1 0x20 ADD DUP3 DUP1 SLOAD PUSH2 0x1794 SWAP1 PUSH2 0x4E72 JUMP JUMPDEST DUP1 ISZERO PUSH2 0x17DF JUMPI DUP1 PUSH1 0x1F LT PUSH2 0x17B6 JUMPI PUSH2 0x100 DUP1 DUP4 SLOAD DIV MUL DUP4 MSTORE SWAP2 PUSH1 0x20 ADD SWAP2 PUSH2 0x17DF JUMP JUMPDEST DUP3 ADD SWAP2 SWAP1 PUSH0 MSTORE PUSH1 0x20 PUSH0 KECCAK256 SWAP1 JUMPDEST DUP2 SLOAD DUP2 MSTORE SWAP1 PUSH1 0x1 ADD SWAP1 PUSH1 0x20 ADD DUP1 DUP4 GT PUSH2 0x17C2 JUMPI DUP3 SWAP1 SUB PUSH1 0x1F AND DUP3 ADD SWAP2 JUMPDEST POP POP POP POP POP DUP2 MSTORE PUSH1 0x20 ADD PUSH1 0x9 DUP3 ADD PUSH0 SWAP1 SLOAD SWAP1 PUSH2 0x100 EXP SWAP1 DIV PUSH1 0xFF AND PUSH1 0x3 DUP2 GT ISZERO PUSH2 0x180C JUMPI PUSH2 0x180B PUSH2 0x459A JUMP JUMPDEST JUMPDEST PUSH1 0x3 DUP2 GT ISZERO PUSH2 0x181E JUMPI PUSH2 0x181D PUSH2 0x459A JUMP JUMPDEST JUMPDEST DUP2 MSTORE PUSH1 0x20 ADD PUSH1 0xA DUP3 ADD SLOAD DUP2 MSTORE POP POP DUP4 DUP4 DUP1 PUSH2 0x1838 SWAP1 PUSH2 0x512C JUMP JUMPDEST SWAP5 POP DUP2 MLOAD DUP2 LT PUSH2 0x184B JUMPI PUSH2 0x184A PUSH2 0x50D2 JUMP JUMPDEST JUMPDEST PUSH1 0x20 MUL PUSH1 0x20 ADD ADD DUP2 SWAP1 MSTORE POP JUMPDEST DUP1 DUP1 PUSH1 0x1 ADD SWAP2 POP POP PUSH2 0x1435 JUMP JUMPDEST POP DUP2 SWAP4 POP POP POP POP SWAP1 JUMP JUMPDEST PUSH0 PUSH1 0x8 PUSH0 SWAP1 SLOAD SWAP1 PUSH2 0x100 EXP SWAP1 DIV PUSH20 0xFFFFFFFFFFFFFFFFFFFFFFFFFFFFFFFFFFFFFFFF AND SWAP1 POP SWAP1 JUMP JUMPDEST PUSH1 0x4 PUSH0 SWAP1 SLOAD SWAP1 PUSH2 0x100 EXP SWAP1 DIV PUSH20 0xFFFFFFFFFFFFFFFFFFFFFFFFFFFFFFFFFFFFFFFF AND PUSH20 0xFFFFFFFFFFFFFFFFFFFFFFFFFFFFFFFFFFFFFFFF AND PUSH4 0x2F54BF6E CALLER PUSH1 0x40 MLOAD DUP3 PUSH4 0xFFFFFFFF AND PUSH1 0xE0 SHL DUP2 MSTORE PUSH1 0x4 ADD PUSH2 0x18F0 SWAP2 SWAP1 PUSH2 0x446D JUMP JUMPDEST PUSH1 0x20 PUSH1 0x40 MLOAD DUP1 DUP4 SUB DUP2 DUP7 GAS STATICCALL ISZERO DUP1 ISZERO PUSH2 0x190B JUMPI RETURNDATASIZE PUSH0 DUP1 RETURNDATACOPY RETURNDATASIZE PUSH0 REVERT JUMPDEST POP POP POP POP PUSH1 0x40 MLOAD RETURNDATASIZE PUSH1 0x1F NOT PUSH1 0x1F DUP3 ADD AND DUP3 ADD DUP1 PUSH1 0x40 MSTORE POP DUP2 ADD SWAP1 PUSH2 0x192F SWAP2 SWAP1 PUSH2 0x4D3A JUMP JUMPDEST PUSH2 0x196E JUMPI PUSH1 0x40 MLOAD PUSH32 0x8C379A000000000000000000000000000000000000000000000000000000000 DUP2 MSTORE PUSH1 0x4 ADD PUSH2 0x1965 SWAP1 PUSH2 0x4DBF JUMP JUMPDEST PUSH1 0x40 MLOAD DUP1 SWAP2 SUB SWAP1 REVERT JUMPDEST PUSH0 DUP1 SLOAD SWAP1 PUSH2 0x100 EXP SWAP1 DIV PUSH20 0xFFFFFFFFFFFFFFFFFFFFFFFFFFFFFFFFFFFFFFFF AND PUSH20 0xFFFFFFFFFFFFFFFFFFFFFFFFFFFFFFFFFFFFFFFF AND PUSH4 0x954FA5EE ADDRESS PUSH1 0xA PUSH0 SWAP1 SLOAD SWAP1 PUSH2 0x100 EXP SWAP1 DIV PUSH20 0xFFFFFFFFFFFFFFFFFFFFFFFFFFFFFFFFFFFFFFFF AND PUSH1 0x40 MLOAD DUP4 PUSH4 0xFFFFFFFF AND PUSH1 0xE0 SHL DUP2 MSTORE PUSH1 0x4 ADD PUSH2 0x19E9 SWAP3 SWAP2 SWAP1 PUSH2 0x5173 JUMP JUMPDEST PUSH1 0x20 PUSH1 0x40 MLOAD DUP1 DUP4 SUB DUP2 PUSH0 DUP8 GAS CALL ISZERO DUP1 ISZERO PUSH2 0x1A05 JUMPI RETURNDATASIZE PUSH0 DUP1 RETURNDATACOPY RETURNDATASIZE PUSH0 REVERT JUMPDEST POP POP POP POP PUSH1 0x40 MLOAD RETURNDATASIZE PUSH1 0x1F NOT PUSH1 0x1F DUP3 ADD AND DUP3 ADD DUP1 PUSH1 0x40 MSTORE POP DUP2 ADD SWAP1 PUSH2 0x1A29 SWAP2 SWAP1 PUSH2 0x519A JUMP JUMPDEST POP JUMP JUMPDEST PUSH1 0x4 PUSH0 SWAP1 SLOAD SWAP1 PUSH2 0x100 EXP SWAP1 DIV PUSH20 0xFFFFFFFFFFFFFFFFFFFFFFFFFFFFFFFFFFFFFFFF AND PUSH20 0xFFFFFFFFFFFFFFFFFFFFFFFFFFFFFFFFFFFFFFFF AND PUSH4 0x2F54BF6E CALLER PUSH1 0x40 MLOAD DUP3 PUSH4 0xFFFFFFFF AND PUSH1 0xE0 SHL DUP2 MSTORE PUSH1 0x4 ADD PUSH2 0x1A86 SWAP2 SWAP1 PUSH2 0x446D JUMP JUMPDEST PUSH1 0x20 PUSH1 0x40 MLOAD DUP1 DUP4 SUB DUP2 DUP7 GAS STATICCALL ISZERO DUP1 ISZERO PUSH2 0x1AA1 JUMPI RETURNDATASIZE PUSH0 DUP1 RETURNDATACOPY RETURNDATASIZE PUSH0 REVERT JUMPDEST POP POP POP POP PUSH1 0x40 MLOAD RETURNDATASIZE PUSH1 0x1F NOT PUSH1 0x1F DUP3 ADD AND DUP3 ADD DUP1 PUSH1 0x40 MSTORE POP DUP2 ADD SWAP1 PUSH2 0x1AC5 SWAP2 SWAP1 PUSH2 0x4D3A JUMP JUMPDEST PUSH2 0x1B04 JUMPI PUSH1 0x40 MLOAD PUSH32 0x8C379A000000000000000000000000000000000000000000000000000000000 DUP2 MSTORE PUSH1 0x4 ADD PUSH2 0x1AFB SWAP1 PUSH2 0x4DBF JUMP JUMPDEST PUSH1 0x40 MLOAD DUP1 SWAP2 SUB SWAP1 REVERT JUMPDEST DUP1 PUSH1 0x8 PUSH0 PUSH2 0x100 EXP DUP2 SLOAD DUP2 PUSH20 0xFFFFFFFFFFFFFFFFFFFFFFFFFFFFFFFFFFFFFFFF MUL NOT AND SWAP1 DUP4 PUSH20 0xFFFFFFFFFFFFFFFFFFFFFFFFFFFFFFFFFFFFFFFF AND MUL OR SWAP1 SSTORE POP PUSH1 0x8 PUSH0 SWAP1 SLOAD SWAP1 PUSH2 0x100 EXP SWAP1 DIV PUSH20 0xFFFFFFFFFFFFFFFFFFFFFFFFFFFFFFFFFFFFFFFF AND PUSH1 0x2 PUSH0 PUSH2 0x100 EXP DUP2 SLOAD DUP2 PUSH20 0xFFFFFFFFFFFFFFFFFFFFFFFFFFFFFFFFFFFFFFFF MUL NOT AND SWAP1 DUP4 PUSH20 0xFFFFFFFFFFFFFFFFFFFFFFFFFFFFFFFFFFFFFFFF AND MUL OR SWAP1 SSTORE POP POP JUMP JUMPDEST PUSH1 0x60 PUSH0 PUSH2 0x1BB4 DUP4 PUSH2 0x3A47 JUMP JUMPDEST SWAP1 POP PUSH0 DUP2 PUSH8 0xFFFFFFFFFFFFFFFF DUP2 GT ISZERO PUSH2 0x1BD1 JUMPI PUSH2 0x1BD0 PUSH2 0x49A9 JUMP JUMPDEST JUMPDEST PUSH1 0x40 MLOAD SWAP1 DUP1 DUP3 MSTORE DUP1 PUSH1 0x20 MUL PUSH1 0x20 ADD DUP3 ADD PUSH1 0x40 MSTORE DUP1 ISZERO PUSH2 0x1C0A JUMPI DUP2 PUSH1 0x20 ADD JUMPDEST PUSH2 0x1BF7 PUSH2 0x42F4 JUMP JUMPDEST DUP2 MSTORE PUSH1 0x20 ADD SWAP1 PUSH1 0x1 SWAP1 SUB SWAP1 DUP2 PUSH2 0x1BEF JUMPI SWAP1 POP JUMPDEST POP SWAP1 POP PUSH0 DUP1 JUMPDEST PUSH1 0xD DUP1 SLOAD SWAP1 POP DUP2 LT ISZERO PUSH2 0x2096 JUMPI DUP6 PUSH20 0xFFFFFFFFFFFFFFFFFFFFFFFFFFFFFFFFFFFFFFFF AND PUSH1 0xC PUSH0 PUSH1 0xD DUP5 DUP2 SLOAD DUP2 LT PUSH2 0x1C4B JUMPI PUSH2 0x1C4A PUSH2 0x50D2 JUMP JUMPDEST JUMPDEST SWAP1 PUSH0 MSTORE PUSH1 0x20 PUSH0 KECCAK256 ADD SLOAD DUP2 MSTORE PUSH1 0x20 ADD SWAP1 DUP2 MSTORE PUSH1 0x20 ADD PUSH0 KECCAK256 PUSH1 0x5 ADD PUSH0 SWAP1 SLOAD SWAP1 PUSH2 0x100 EXP SWAP1 DIV PUSH20 0xFFFFFFFFFFFFFFFFFFFFFFFFFFFFFFFFFFFFFFFF AND PUSH20 0xFFFFFFFFFFFFFFFFFFFFFFFFFFFFFFFFFFFFFFFF AND SUB PUSH2 0x2089 JUMPI PUSH1 0xC PUSH0 PUSH1 0xD DUP4 DUP2 SLOAD DUP2 LT PUSH2 0x1CB6 JUMPI PUSH2 0x1CB5 PUSH2 0x50D2 JUMP JUMPDEST JUMPDEST SWAP1 PUSH0 MSTORE PUSH1 0x20 PUSH0 KECCAK256 ADD SLOAD DUP2 MSTORE PUSH1 0x20 ADD SWAP1 DUP2 MSTORE PUSH1 0x20 ADD PUSH0 KECCAK256 PUSH1 0x40 MLOAD DUP1 PUSH2 0x160 ADD PUSH1 0x40 MSTORE SWAP1 DUP2 PUSH0 DUP3 ADD SLOAD DUP2 MSTORE PUSH1 0x20 ADD PUSH1 0x1 DUP3 ADD DUP1 SLOAD PUSH2 0x1CF1 SWAP1 PUSH2 0x4E72 JUMP JUMPDEST DUP1 PUSH1 0x1F ADD PUSH1 0x20 DUP1 SWAP2 DIV MUL PUSH1 0x20 ADD PUSH1 0x40 MLOAD SWAP1 DUP2 ADD PUSH1 0x40 MSTORE DUP1 SWAP3 SWAP2 SWAP1 DUP2 DUP2 MSTORE PUSH1 0x20 ADD DUP3 DUP1 SLOAD PUSH2 0x1D1D SWAP1 PUSH2 0x4E72 JUMP JUMPDEST DUP1 ISZERO PUSH2 0x1D68 JUMPI DUP1 PUSH1 0x1F LT PUSH2 0x1D3F JUMPI PUSH2 0x100 DUP1 DUP4 SLOAD DIV MUL DUP4 MSTORE SWAP2 PUSH1 0x20 ADD SWAP2 PUSH2 0x1D68 JUMP JUMPDEST DUP3 ADD SWAP2 SWAP1 PUSH0 MSTORE PUSH1 0x20 PUSH0 KECCAK256 SWAP1 JUMPDEST DUP2 SLOAD DUP2 MSTORE SWAP1 PUSH1 0x1 ADD SWAP1 PUSH1 0x20 ADD DUP1 DUP4 GT PUSH2 0x1D4B JUMPI DUP3 SWAP1 SUB PUSH1 0x1F AND DUP3 ADD SWAP2 JUMPDEST POP POP POP POP POP DUP2 MSTORE PUSH1 0x20 ADD PUSH1 0x2 DUP3 ADD DUP1 SLOAD PUSH2 0x1D81 SWAP1 PUSH2 0x4E72 JUMP JUMPDEST DUP1 PUSH1 0x1F ADD PUSH1 0x20 DUP1 SWAP2 DIV MUL PUSH1 0x20 ADD PUSH1 0x40 MLOAD SWAP1 DUP2 ADD PUSH1 0x40 MSTORE DUP1 SWAP3 SWAP2 SWAP1 DUP2 DUP2 MSTORE PUSH1 0x20 ADD DUP3 DUP1 SLOAD PUSH2 0x1DAD SWAP1 PUSH2 0x4E72 JUMP JUMPDEST DUP1 ISZERO PUSH2 0x1DF8 JUMPI DUP1 PUSH1 0x1F LT PUSH2 0x1DCF JUMPI PUSH2 0x100 DUP1 DUP4 SLOAD DIV MUL DUP4 MSTORE SWAP2 PUSH1 0x20 ADD SWAP2 PUSH2 0x1DF8 JUMP JUMPDEST DUP3 ADD SWAP2 SWAP1 PUSH0 MSTORE PUSH1 0x20 PUSH0 KECCAK256 SWAP1 JUMPDEST DUP2 SLOAD DUP2 MSTORE SWAP1 PUSH1 0x1 ADD SWAP1 PUSH1 0x20 ADD DUP1 DUP4 GT PUSH2 0x1DDB JUMPI DUP3 SWAP1 SUB PUSH1 0x1F AND DUP3 ADD SWAP2 JUMPDEST POP POP POP POP POP DUP2 MSTORE PUSH1 0x20 ADD PUSH1 0x3 DUP3 ADD DUP1 SLOAD PUSH2 0x1E11 SWAP1 PUSH2 0x4E72 JUMP JUMPDEST DUP1 PUSH1 0x1F ADD PUSH1 0x20 DUP1 SWAP2 DIV MUL PUSH1 0x20 ADD PUSH1 0x40 MLOAD SWAP1 DUP2 ADD PUSH1 0x40 MSTORE DUP1 SWAP3 SWAP2 SWAP1 DUP2 DUP2 MSTORE PUSH1 0x20 ADD DUP3 DUP1 SLOAD PUSH2 0x1E3D SWAP1 PUSH2 0x4E72 JUMP JUMPDEST DUP1 ISZERO PUSH2 0x1E88 JUMPI DUP1 PUSH1 0x1F LT PUSH2 0x1E5F JUMPI PUSH2 0x100 DUP1 DUP4 SLOAD DIV MUL DUP4 MSTORE SWAP2 PUSH1 0x20 ADD SWAP2 PUSH2 0x1E88 JUMP JUMPDEST DUP3 ADD SWAP2 SWAP1 PUSH0 MSTORE PUSH1 0x20 PUSH0 KECCAK256 SWAP1 JUMPDEST DUP2 SLOAD DUP2 MSTORE SWAP1 PUSH1 0x1 ADD SWAP1 PUSH1 0x20 ADD DUP1 DUP4 GT PUSH2 0x1E6B JUMPI DUP3 SWAP1 SUB PUSH1 0x1F AND DUP3 ADD SWAP2 JUMPDEST POP POP POP POP POP DUP2 MSTORE PUSH1 0x20 ADD PUSH1 0x4 DUP3 ADD SLOAD DUP2 MSTORE PUSH1 0x20 ADD PUSH1 0x5 DUP3 ADD PUSH0 SWAP1 SLOAD SWAP1 PUSH2 0x100 EXP SWAP1 DIV PUSH20 0xFFFFFFFFFFFFFFFFFFFFFFFFFFFFFFFFFFFFFFFF AND PUSH20 0xFFFFFFFFFFFFFFFFFFFFFFFFFFFFFFFFFFFFFFFF AND PUSH20 0xFFFFFFFFFFFFFFFFFFFFFFFFFFFFFFFFFFFFFFFF AND DUP2 MSTORE PUSH1 0x20 ADD PUSH1 0x6 DUP3 ADD DUP1 SLOAD PUSH2 0x1F00 SWAP1 PUSH2 0x4E72 JUMP JUMPDEST DUP1 PUSH1 0x1F ADD PUSH1 0x20 DUP1 SWAP2 DIV MUL PUSH1 0x20 ADD PUSH1 0x40 MLOAD SWAP1 DUP2 ADD PUSH1 0x40 MSTORE DUP1 SWAP3 SWAP2 SWAP1 DUP2 DUP2 MSTORE PUSH1 0x20 ADD DUP3 DUP1 SLOAD PUSH2 0x1F2C SWAP1 PUSH2 0x4E72 JUMP JUMPDEST DUP1 ISZERO PUSH2 0x1F77 JUMPI DUP1 PUSH1 0x1F LT PUSH2 0x1F4E JUMPI PUSH2 0x100 DUP1 DUP4 SLOAD DIV MUL DUP4 MSTORE SWAP2 PUSH1 0x20 ADD SWAP2 PUSH2 0x1F77 JUMP JUMPDEST DUP3 ADD SWAP2 SWAP1 PUSH0 MSTORE PUSH1 0x20 PUSH0 KECCAK256 SWAP1 JUMPDEST DUP2 SLOAD DUP2 MSTORE SWAP1 PUSH1 0x1 ADD SWAP1 PUSH1 0x20 ADD DUP1 DUP4 GT PUSH2 0x1F5A JUMPI DUP3 SWAP1 SUB PUSH1 0x1F AND DUP3 ADD SWAP2 JUMPDEST POP POP POP POP POP DUP2 MSTORE PUSH1 0x20 ADD PUSH1 0x7 DUP3 ADD SLOAD DUP2 MSTORE PUSH1 0x20 ADD PUSH1 0x8 DUP3 ADD DUP1 SLOAD PUSH2 0x1F9A SWAP1 PUSH2 0x4E72 JUMP JUMPDEST DUP1 PUSH1 0x1F ADD PUSH1 0x20 DUP1 SWAP2 DIV MUL PUSH1 0x20 ADD PUSH1 0x40 MLOAD SWAP1 DUP2 ADD PUSH1 0x40 MSTORE DUP1 SWAP3 SWAP2 SWAP1 DUP2 DUP2 MSTORE PUSH1 0x20 ADD DUP3 DUP1 SLOAD PUSH2 0x1FC6 SWAP1 PUSH2 0x4E72 JUMP JUMPDEST DUP1 ISZERO PUSH2 0x2011 JUMPI DUP1 PUSH1 0x1F LT PUSH2 0x1FE8 JUMPI PUSH2 0x100 DUP1 DUP4 SLOAD DIV MUL DUP4 MSTORE SWAP2 PUSH1 0x20 ADD SWAP2 PUSH2 0x2011 JUMP JUMPDEST DUP3 ADD SWAP2 SWAP1 PUSH0 MSTORE PUSH1 0x20 PUSH0 KECCAK256 SWAP1 JUMPDEST DUP2 SLOAD DUP2 MSTORE SWAP1 PUSH1 0x1 ADD SWAP1 PUSH1 0x20 ADD DUP1 DUP4 GT PUSH2 0x1FF4 JUMPI DUP3 SWAP1 SUB PUSH1 0x1F AND DUP3 ADD SWAP2 JUMPDEST POP POP POP POP POP DUP2 MSTORE PUSH1 0x20 ADD PUSH1 0x9 DUP3 ADD PUSH0 SWAP1 SLOAD SWAP1 PUSH2 0x100 EXP SWAP1 DIV PUSH1 0xFF AND PUSH1 0x3 DUP2 GT ISZERO PUSH2 0x203E JUMPI PUSH2 0x203D PUSH2 0x459A JUMP JUMPDEST JUMPDEST PUSH1 0x3 DUP2 GT ISZERO PUSH2 0x2050 JUMPI PUSH2 0x204F PUSH2 0x459A JUMP JUMPDEST JUMPDEST DUP2 MSTORE PUSH1 0x20 ADD PUSH1 0xA DUP3 ADD SLOAD DUP2 MSTORE POP POP DUP4 DUP4 DUP1 PUSH2 0x206A SWAP1 PUSH2 0x512C JUMP JUMPDEST SWAP5 POP DUP2 MLOAD DUP2 LT PUSH2 0x207D JUMPI PUSH2 0x207C PUSH2 0x50D2 JUMP JUMPDEST JUMPDEST PUSH1 0x20 MUL PUSH1 0x20 ADD ADD DUP2 SWAP1 MSTORE POP JUMPDEST DUP1 DUP1 PUSH1 0x1 ADD SWAP2 POP POP PUSH2 0x1C10 JUMP JUMPDEST POP DUP2 SWAP4 POP POP POP POP SWAP2 SWAP1 POP JUMP JUMPDEST PUSH0 PUSH1 0xF PUSH0 DUP4 PUSH20 0xFFFFFFFFFFFFFFFFFFFFFFFFFFFFFFFFFFFFFFFF AND PUSH20 0xFFFFFFFFFFFFFFFFFFFFFFFFFFFFFFFFFFFFFFFF AND DUP2 MSTORE PUSH1 0x20 ADD SWAP1 DUP2 MSTORE PUSH1 0x20 ADD PUSH0 KECCAK256 SLOAD SWAP1 POP SWAP2 SWAP1 POP JUMP JUMPDEST PUSH1 0x4 PUSH0 SWAP1 SLOAD SWAP1 PUSH2 0x100 EXP SWAP1 DIV PUSH20 0xFFFFFFFFFFFFFFFFFFFFFFFFFFFFFFFFFFFFFFFF AND PUSH20 0xFFFFFFFFFFFFFFFFFFFFFFFFFFFFFFFFFFFFFFFF AND PUSH4 0x24D7806C CALLER PUSH1 0x40 MLOAD DUP3 PUSH4 0xFFFFFFFF AND PUSH1 0xE0 SHL DUP2 MSTORE PUSH1 0x4 ADD PUSH2 0x2142 SWAP2 SWAP1 PUSH2 0x446D JUMP JUMPDEST PUSH1 0x20 PUSH1 0x40 MLOAD DUP1 DUP4 SUB DUP2 DUP7 GAS STATICCALL ISZERO DUP1 ISZERO PUSH2 0x215D JUMPI RETURNDATASIZE PUSH0 DUP1 RETURNDATACOPY RETURNDATASIZE PUSH0 REVERT JUMPDEST POP POP POP POP PUSH1 0x40 MLOAD RETURNDATASIZE PUSH1 0x1F NOT PUSH1 0x1F DUP3 ADD AND DUP3 ADD DUP1 PUSH1 0x40 MSTORE POP DUP2 ADD SWAP1 PUSH2 0x2181 SWAP2 SWAP1 PUSH2 0x4D3A JUMP JUMPDEST PUSH2 0x21C0 JUMPI PUSH1 0x40 MLOAD PUSH32 0x8C379A000000000000000000000000000000000000000000000000000000000 DUP2 MSTORE PUSH1 0x4 ADD PUSH2 0x21B7 SWAP1 PUSH2 0x4EEC JUMP JUMPDEST PUSH1 0x40 MLOAD DUP1 SWAP2 SUB SWAP1 REVERT JUMPDEST PUSH0 PUSH1 0xC PUSH0 DUP4 DUP2 MSTORE PUSH1 0x20 ADD SWAP1 DUP2 MSTORE PUSH1 0x20 ADD PUSH0 KECCAK256 PUSH0 ADD SLOAD GT PUSH2 0x2215 JUMPI PUSH1 0x40 MLOAD PUSH32 0x8C379A000000000000000000000000000000000000000000000000000000000 DUP2 MSTORE PUSH1 0x4 ADD PUSH2 0x220C SWAP1 PUSH2 0x4E27 JUMP JUMPDEST PUSH1 0x40 MLOAD DUP1 SWAP2 SUB SWAP1 REVERT JUMPDEST PUSH1 0x1 PUSH1 0x3 DUP2 GT ISZERO PUSH2 0x2229 JUMPI PUSH2 0x2228 PUSH2 0x459A JUMP JUMPDEST JUMPDEST PUSH1 0xC PUSH0 DUP4 DUP2 MSTORE PUSH1 0x20 ADD SWAP1 DUP2 MSTORE PUSH1 0x20 ADD PUSH0 KECCAK256 PUSH1 0x9 ADD PUSH0 SWAP1 SLOAD SWAP1 PUSH2 0x100 EXP SWAP1 DIV PUSH1 0xFF AND PUSH1 0x3 DUP2 GT ISZERO PUSH2 0x225C JUMPI PUSH2 0x225B PUSH2 0x459A JUMP JUMPDEST JUMPDEST EQ PUSH2 0x229C JUMPI PUSH1 0x40 MLOAD PUSH32 0x8C379A000000000000000000000000000000000000000000000000000000000 DUP2 MSTORE PUSH1 0x4 ADD PUSH2 0x2293 SWAP1 PUSH2 0x520F JUMP JUMPDEST PUSH1 0x40 MLOAD DUP1 SWAP2 SUB SWAP1 REVERT JUMPDEST PUSH2 0x22BA CALLER PUSH1 0xC PUSH0 DUP5 DUP2 MSTORE PUSH1 0x20 ADD SWAP1 DUP2 MSTORE PUSH1 0x20 ADD PUSH0 KECCAK256 PUSH1 0x7 ADD SLOAD PUSH2 0x369B JUMP JUMPDEST PUSH2 0x22C3 DUP2 PUSH2 0x3B03 JUMP JUMPDEST POP JUMP JUMPDEST PUSH0 DUP3 PUSH1 0x2 PUSH0 SWAP1 SLOAD SWAP1 PUSH2 0x100 EXP SWAP1 DIV PUSH20 0xFFFFFFFFFFFFFFFFFFFFFFFFFFFFFFFFFFFFFFFF AND PUSH20 0xFFFFFFFFFFFFFFFFFFFFFFFFFFFFFFFFFFFFFFFF AND PUSH4 0x70A08231 CALLER PUSH1 0x40 MLOAD DUP3 PUSH4 0xFFFFFFFF AND PUSH1 0xE0 SHL DUP2 MSTORE PUSH1 0x4 ADD PUSH2 0x2322 SWAP2 SWAP1 PUSH2 0x446D JUMP JUMPDEST PUSH1 0x20 PUSH1 0x40 MLOAD DUP1 DUP4 SUB DUP2 DUP7 GAS STATICCALL ISZERO DUP1 ISZERO PUSH2 0x233D JUMPI RETURNDATASIZE PUSH0 DUP1 RETURNDATACOPY RETURNDATASIZE PUSH0 REVERT JUMPDEST POP POP POP POP PUSH1 0x40 MLOAD RETURNDATASIZE PUSH1 0x1F NOT PUSH1 0x1F DUP3 ADD AND DUP3 ADD DUP1 PUSH1 0x40 MSTORE POP DUP2 ADD SWAP1 PUSH2 0x2361 SWAP2 SWAP1 PUSH2 0x519A JUMP JUMPDEST LT ISZERO PUSH2 0x23A2 JUMPI PUSH1 0x40 MLOAD PUSH32 0x8C379A000000000000000000000000000000000000000000000000000000000 DUP2 MSTORE PUSH1 0x4 ADD PUSH2 0x2399 SWAP1 PUSH2 0x5277 JUMP JUMPDEST PUSH1 0x40 MLOAD DUP1 SWAP2 SUB SWAP1 REVERT JUMPDEST DUP3 PUSH1 0x2 PUSH0 SWAP1 SLOAD SWAP1 PUSH2 0x100 EXP SWAP1 DIV PUSH20 0xFFFFFFFFFFFFFFFFFFFFFFFFFFFFFFFFFFFFFFFF AND PUSH20 0xFFFFFFFFFFFFFFFFFFFFFFFFFFFFFFFFFFFFFFFF AND PUSH4 0xDD62ED3E CALLER ADDRESS PUSH1 0x40 MLOAD DUP4 PUSH4 0xFFFFFFFF AND PUSH1 0xE0 SHL DUP2 MSTORE PUSH1 0x4 ADD PUSH2 0x23FF SWAP3 SWAP2 SWAP1 PUSH2 0x5173 JUMP JUMPDEST PUSH1 0x20 PUSH1 0x40 MLOAD DUP1 DUP4 SUB DUP2 DUP7 GAS STATICCALL ISZERO DUP1 ISZERO PUSH2 0x241A JUMPI RETURNDATASIZE PUSH0 DUP1 RETURNDATACOPY RETURNDATASIZE PUSH0 REVERT JUMPDEST POP POP POP POP PUSH1 0x40 MLOAD RETURNDATASIZE PUSH1 0x1F NOT PUSH1 0x1F DUP3 ADD AND DUP3 ADD DUP1 PUSH1 0x40 MSTORE POP DUP2 ADD SWAP1 PUSH2 0x243E SWAP2 SWAP1 PUSH2 0x519A JUMP JUMPDEST LT ISZERO PUSH2 0x247F JUMPI PUSH1 0x40 MLOAD PUSH32 0x8C379A000000000000000000000000000000000000000000000000000000000 DUP2 MSTORE PUSH1 0x4 ADD PUSH2 0x2476 SWAP1 PUSH2 0x52DF JUMP JUMPDEST PUSH1 0x40 MLOAD DUP1 SWAP2 SUB SWAP1 REVERT JUMPDEST PUSH2 0x248A CALLER DUP10 DUP9 PUSH2 0x3C84 JUMP JUMPDEST ISZERO PUSH2 0x24CA JUMPI PUSH1 0x40 MLOAD PUSH32 0x8C379A000000000000000000000000000000000000000000000000000000000 DUP2 MSTORE PUSH1 0x4 ADD PUSH2 0x24C1 SWAP1 PUSH2 0x5347 JUMP JUMPDEST PUSH1 0x40 MLOAD DUP1 SWAP2 SUB SWAP1 REVERT JUMPDEST PUSH0 PUSH2 0x24D7 PUSH1 0x1 DUP11 DUP10 PUSH2 0x3183 JUMP JUMPDEST SWAP1 POP PUSH0 DUP2 GT ISZERO PUSH2 0x2516 JUMPI PUSH2 0x2515 PUSH1 0xC PUSH0 DUP4 DUP2 MSTORE PUSH1 0x20 ADD SWAP1 DUP2 MSTORE PUSH1 0x20 ADD PUSH0 KECCAK256 PUSH1 0x4 ADD SLOAD PUSH1 0xC PUSH0 DUP5 DUP2 MSTORE PUSH1 0x20 ADD SWAP1 DUP2 MSTORE PUSH1 0x20 ADD PUSH0 KECCAK256 PUSH1 0x7 ADD SLOAD DUP9 DUP8 PUSH2 0x337E JUMP JUMPDEST JUMPDEST PUSH1 0x2 PUSH0 SWAP1 SLOAD SWAP1 PUSH2 0x100 EXP SWAP1 DIV PUSH20 0xFFFFFFFFFFFFFFFFFFFFFFFFFFFFFFFFFFFFFFFF AND PUSH20 0xFFFFFFFFFFFFFFFFFFFFFFFFFFFFFFFFFFFFFFFF AND PUSH4 0x23B872DD CALLER ADDRESS DUP8 PUSH1 0x40 MLOAD DUP5 PUSH4 0xFFFFFFFF AND PUSH1 0xE0 SHL DUP2 MSTORE PUSH1 0x4 ADD PUSH2 0x2574 SWAP4 SWAP3 SWAP2 SWAP1 PUSH2 0x5365 JUMP JUMPDEST PUSH1 0x20 PUSH1 0x40 MLOAD DUP1 DUP4 SUB DUP2 PUSH0 DUP8 GAS CALL ISZERO DUP1 ISZERO PUSH2 0x2590 JUMPI RETURNDATASIZE PUSH0 DUP1 RETURNDATACOPY RETURNDATASIZE PUSH0 REVERT JUMPDEST POP POP POP POP PUSH1 0x40 MLOAD RETURNDATASIZE PUSH1 0x1F NOT PUSH1 0x1F DUP3 ADD AND DUP3 ADD DUP1 PUSH1 0x40 MSTORE POP DUP2 ADD SWAP1 PUSH2 0x25B4 SWAP2 SWAP1 PUSH2 0x4D3A JUMP JUMPDEST POP DUP4 PUSH1 0xE PUSH0 DUP3 DUP3 SLOAD PUSH2 0x25C6 SWAP2 SWAP1 PUSH2 0x539A JUMP JUMPDEST SWAP3 POP POP DUP2 SWAP1 SSTORE POP DUP4 PUSH1 0xF PUSH0 CALLER PUSH20 0xFFFFFFFFFFFFFFFFFFFFFFFFFFFFFFFFFFFFFFFF AND PUSH20 0xFFFFFFFFFFFFFFFFFFFFFFFFFFFFFFFFFFFFFFFF AND DUP2 MSTORE PUSH1 0x20 ADD SWAP1 DUP2 MSTORE PUSH1 0x20 ADD PUSH0 KECCAK256 PUSH0 DUP3 DUP3 SLOAD PUSH2 0x2619 SWAP2 SWAP1 PUSH2 0x539A JUMP JUMPDEST SWAP3 POP POP DUP2 SWAP1 SSTORE POP PUSH0 PUSH2 0x2629 PUSH2 0x3EEA JUMP JUMPDEST SWAP1 POP PUSH1 0x40 MLOAD DUP1 PUSH2 0x160 ADD PUSH1 0x40 MSTORE DUP1 DUP3 DUP2 MSTORE PUSH1 0x20 ADD DUP12 DUP2 MSTORE PUSH1 0x20 ADD DUP11 DUP2 MSTORE PUSH1 0x20 ADD DUP10 DUP2 MSTORE PUSH1 0x20 ADD DUP9 DUP2 MSTORE PUSH1 0x20 ADD CALLER PUSH20 0xFFFFFFFFFFFFFFFFFFFFFFFFFFFFFFFFFFFFFFFF AND DUP2 MSTORE PUSH1 0x20 ADD DUP8 DUP2 MSTORE PUSH1 0x20 ADD DUP7 DUP2 MSTORE PUSH1 0x20 ADD DUP6 DUP2 MSTORE PUSH1 0x20 ADD PUSH0 PUSH1 0x3 DUP2 GT ISZERO PUSH2 0x2696 JUMPI PUSH2 0x2695 PUSH2 0x459A JUMP JUMPDEST JUMPDEST DUP2 MSTORE PUSH1 0x20 ADD TIMESTAMP DUP2 MSTORE POP PUSH1 0xC PUSH0 DUP4 DUP2 MSTORE PUSH1 0x20 ADD SWAP1 DUP2 MSTORE PUSH1 0x20 ADD PUSH0 KECCAK256 PUSH0 DUP3 ADD MLOAD DUP2 PUSH0 ADD SSTORE PUSH1 0x20 DUP3 ADD MLOAD DUP2 PUSH1 0x1 ADD SWAP1 DUP2 PUSH2 0x26CD SWAP2 SWAP1 PUSH2 0x556A JUMP JUMPDEST POP PUSH1 0x40 DUP3 ADD MLOAD DUP2 PUSH1 0x2 ADD SWAP1 DUP2 PUSH2 0x26E3 SWAP2 SWAP1 PUSH2 0x556A JUMP JUMPDEST POP PUSH1 0x60 DUP3 ADD MLOAD DUP2 PUSH1 0x3 ADD SWAP1 DUP2 PUSH2 0x26F9 SWAP2 SWAP1 PUSH2 0x556A JUMP JUMPDEST POP PUSH1 0x80 DUP3 ADD MLOAD DUP2 PUSH1 0x4 ADD SSTORE PUSH1 0xA0 DUP3 ADD MLOAD DUP2 PUSH1 0x5 ADD PUSH0 PUSH2 0x100 EXP DUP2 SLOAD DUP2 PUSH20 0xFFFFFFFFFFFFFFFFFFFFFFFFFFFFFFFFFFFFFFFF MUL NOT AND SWAP1 DUP4 PUSH20 0xFFFFFFFFFFFFFFFFFFFFFFFFFFFFFFFFFFFFFFFF AND MUL OR SWAP1 SSTORE POP PUSH1 0xC0 DUP3 ADD MLOAD DUP2 PUSH1 0x6 ADD SWAP1 DUP2 PUSH2 0x275F SWAP2 SWAP1 PUSH2 0x556A JUMP JUMPDEST POP PUSH1 0xE0 DUP3 ADD MLOAD DUP2 PUSH1 0x7 ADD SSTORE PUSH2 0x100 DUP3 ADD MLOAD DUP2 PUSH1 0x8 ADD SWAP1 DUP2 PUSH2 0x2780 SWAP2 SWAP1 PUSH2 0x556A JUMP JUMPDEST POP PUSH2 0x120 DUP3 ADD MLOAD DUP2 PUSH1 0x9 ADD PUSH0 PUSH2 0x100 EXP DUP2 SLOAD DUP2 PUSH1 0xFF MUL NOT AND SWAP1 DUP4 PUSH1 0x3 DUP2 GT ISZERO PUSH2 0x27AC JUMPI PUSH2 0x27AB PUSH2 0x459A JUMP JUMPDEST JUMPDEST MUL OR SWAP1 SSTORE POP PUSH2 0x140 DUP3 ADD MLOAD DUP2 PUSH1 0xA ADD SSTORE SWAP1 POP POP PUSH1 0xD DUP2 SWAP1 DUP1 PUSH1 0x1 DUP2 SLOAD ADD DUP1 DUP3 SSTORE DUP1 SWAP2 POP POP PUSH1 0x1 SWAP1 SUB SWAP1 PUSH0 MSTORE PUSH1 0x20 PUSH0 KECCAK256 ADD PUSH0 SWAP1 SWAP2 SWAP1 SWAP2 SWAP1 SWAP2 POP SSTORE PUSH2 0x27F0 CALLER DUP12 DUP11 PUSH2 0x3F04 JUMP JUMPDEST PUSH32 0xBF010ABA48E49020ED90D2F6B9AE36C27E06A48F276AA44D6594E44347CB5CAD DUP4 PUSH0 PUSH1 0x40 MLOAD PUSH2 0x2821 SWAP3 SWAP2 SWAP1 PUSH2 0x5010 JUMP JUMPDEST PUSH1 0x40 MLOAD DUP1 SWAP2 SUB SWAP1 LOG1 DUP1 SWAP3 POP POP POP SWAP8 SWAP7 POP POP POP POP POP POP POP JUMP JUMPDEST PUSH1 0x4 PUSH0 SWAP1 SLOAD SWAP1 PUSH2 0x100 EXP SWAP1 DIV PUSH20 0xFFFFFFFFFFFFFFFFFFFFFFFFFFFFFFFFFFFFFFFF AND PUSH20 0xFFFFFFFFFFFFFFFFFFFFFFFFFFFFFFFFFFFFFFFF AND PUSH4 0x24D7806C CALLER PUSH1 0x40 MLOAD DUP3 PUSH4 0xFFFFFFFF AND PUSH1 0xE0 SHL DUP2 MSTORE PUSH1 0x4 ADD PUSH2 0x2893 SWAP2 SWAP1 PUSH2 0x446D JUMP JUMPDEST PUSH1 0x20 PUSH1 0x40 MLOAD DUP1 DUP4 SUB DUP2 DUP7 GAS STATICCALL ISZERO DUP1 ISZERO PUSH2 0x28AE JUMPI RETURNDATASIZE PUSH0 DUP1 RETURNDATACOPY RETURNDATASIZE PUSH0 REVERT JUMPDEST POP POP POP POP PUSH1 0x40 MLOAD RETURNDATASIZE PUSH1 0x1F NOT PUSH1 0x1F DUP3 ADD AND DUP3 ADD DUP1 PUSH1 0x40 MSTORE POP DUP2 ADD SWAP1 PUSH2 0x28D2 SWAP2 SWAP1 PUSH2 0x4D3A JUMP JUMPDEST PUSH2 0x2911 JUMPI PUSH1 0x40 MLOAD PUSH32 0x8C379A000000000000000000000000000000000000000000000000000000000 DUP2 MSTORE PUSH1 0x4 ADD PUSH2 0x2908 SWAP1 PUSH2 0x4EEC JUMP JUMPDEST PUSH1 0x40 MLOAD DUP1 SWAP2 SUB SWAP1 REVERT JUMPDEST PUSH0 PUSH1 0x3 DUP2 GT ISZERO PUSH2 0x2924 JUMPI PUSH2 0x2923 PUSH2 0x459A JUMP JUMPDEST JUMPDEST PUSH1 0xC PUSH0 DUP8 DUP2 MSTORE PUSH1 0x20 ADD SWAP1 DUP2 MSTORE PUSH1 0x20 ADD PUSH0 KECCAK256 PUSH1 0x9 ADD PUSH0 SWAP1 SLOAD SWAP1 PUSH2 0x100 EXP SWAP1 DIV PUSH1 0xFF AND PUSH1 0x3 DUP2 GT ISZERO PUSH2 0x2957 JUMPI PUSH2 0x2956 PUSH2 0x459A JUMP JUMPDEST JUMPDEST EQ PUSH2 0x2997 JUMPI PUSH1 0x40 MLOAD PUSH32 0x8C379A000000000000000000000000000000000000000000000000000000000 DUP2 MSTORE PUSH1 0x4 ADD PUSH2 0x298E SWAP1 PUSH2 0x4FBC JUMP JUMPDEST PUSH1 0x40 MLOAD DUP1 SWAP2 SUB SWAP1 REVERT JUMPDEST DUP4 PUSH1 0xC PUSH0 DUP8 DUP2 MSTORE PUSH1 0x20 ADD SWAP1 DUP2 MSTORE PUSH1 0x20 ADD PUSH0 KECCAK256 PUSH1 0x1 ADD SWAP1 DUP2 PUSH2 0x29B8 SWAP2 SWAP1 PUSH2 0x556A JUMP JUMPDEST POP DUP3 PUSH1 0xC PUSH0 DUP8 DUP2 MSTORE PUSH1 0x20 ADD SWAP1 DUP2 MSTORE PUSH1 0x20 ADD PUSH0 KECCAK256 PUSH1 0x2 ADD SWAP1 DUP2 PUSH2 0x29DA SWAP2 SWAP1 PUSH2 0x556A JUMP JUMPDEST POP DUP2 PUSH1 0xC PUSH0 DUP8 DUP2 MSTORE PUSH1 0x20 ADD SWAP1 DUP2 MSTORE PUSH1 0x20 ADD PUSH0 KECCAK256 PUSH1 0x3 ADD SWAP1 DUP2 PUSH2 0x29FC SWAP2 SWAP1 PUSH2 0x556A JUMP JUMPDEST POP DUP1 PUSH1 0xC PUSH0 DUP8 DUP2 MSTORE PUSH1 0x20 ADD SWAP1 DUP2 MSTORE PUSH1 0x20 ADD PUSH0 KECCAK256 PUSH1 0x8 ADD SWAP1 DUP2 PUSH2 0x2A1E SWAP2 SWAP1 PUSH2 0x556A JUMP JUMPDEST POP POP POP POP POP POP JUMP JUMPDEST PUSH1 0x60 PUSH0 PUSH2 0x2A33 PUSH1 0x1 PUSH2 0x311E JUMP JUMPDEST SWAP1 POP PUSH0 DUP2 PUSH8 0xFFFFFFFFFFFFFFFF DUP2 GT ISZERO PUSH2 0x2A50 JUMPI PUSH2 0x2A4F PUSH2 0x49A9 JUMP JUMPDEST JUMPDEST PUSH1 0x40 MLOAD SWAP1 DUP1 DUP3 MSTORE DUP1 PUSH1 0x20 MUL PUSH1 0x20 ADD DUP3 ADD PUSH1 0x40 MSTORE DUP1 ISZERO PUSH2 0x2A89 JUMPI DUP2 PUSH1 0x20 ADD JUMPDEST PUSH2 0x2A76 PUSH2 0x42F4 JUMP JUMPDEST DUP2 MSTORE PUSH1 0x20 ADD SWAP1 PUSH1 0x1 SWAP1 SUB SWAP1 DUP2 PUSH2 0x2A6E JUMPI SWAP1 POP JUMPDEST POP SWAP1 POP PUSH0 DUP1 JUMPDEST PUSH1 0xD DUP1 SLOAD SWAP1 POP DUP2 LT ISZERO PUSH2 0x2EBF JUMPI PUSH2 0x2AC3 PUSH1 0xD DUP3 DUP2 SLOAD DUP2 LT PUSH2 0x2AB3 JUMPI PUSH2 0x2AB2 PUSH2 0x50D2 JUMP JUMPDEST JUMPDEST SWAP1 PUSH0 MSTORE PUSH1 0x20 PUSH0 KECCAK256 ADD SLOAD PUSH1 0x1 PUSH2 0x39F7 JUMP JUMPDEST ISZERO PUSH2 0x2EB2 JUMPI PUSH1 0xC PUSH0 PUSH1 0xD DUP4 DUP2 SLOAD DUP2 LT PUSH2 0x2ADF JUMPI PUSH2 0x2ADE PUSH2 0x50D2 JUMP JUMPDEST JUMPDEST SWAP1 PUSH0 MSTORE PUSH1 0x20 PUSH0 KECCAK256 ADD SLOAD DUP2 MSTORE PUSH1 0x20 ADD SWAP1 DUP2 MSTORE PUSH1 0x20 ADD PUSH0 KECCAK256 PUSH1 0x40 MLOAD DUP1 PUSH2 0x160 ADD PUSH1 0x40 MSTORE SWAP1 DUP2 PUSH0 DUP3 ADD SLOAD DUP2 MSTORE PUSH1 0x20 ADD PUSH1 0x1 DUP3 ADD DUP1 SLOAD PUSH2 0x2B1A SWAP1 PUSH2 0x4E72 JUMP JUMPDEST DUP1 PUSH1 0x1F ADD PUSH1 0x20 DUP1 SWAP2 DIV MUL PUSH1 0x20 ADD PUSH1 0x40 MLOAD SWAP1 DUP2 ADD PUSH1 0x40 MSTORE DUP1 SWAP3 SWAP2 SWAP1 DUP2 DUP2 MSTORE PUSH1 0x20 ADD DUP3 DUP1 SLOAD PUSH2 0x2B46 SWAP1 PUSH2 0x4E72 JUMP JUMPDEST DUP1 ISZERO PUSH2 0x2B91 JUMPI DUP1 PUSH1 0x1F LT PUSH2 0x2B68 JUMPI PUSH2 0x100 DUP1 DUP4 SLOAD DIV MUL DUP4 MSTORE SWAP2 PUSH1 0x20 ADD SWAP2 PUSH2 0x2B91 JUMP JUMPDEST DUP3 ADD SWAP2 SWAP1 PUSH0 MSTORE PUSH1 0x20 PUSH0 KECCAK256 SWAP1 JUMPDEST DUP2 SLOAD DUP2 MSTORE SWAP1 PUSH1 0x1 ADD SWAP1 PUSH1 0x20 ADD DUP1 DUP4 GT PUSH2 0x2B74 JUMPI DUP3 SWAP1 SUB PUSH1 0x1F AND DUP3 ADD SWAP2 JUMPDEST POP POP POP POP POP DUP2 MSTORE PUSH1 0x20 ADD PUSH1 0x2 DUP3 ADD DUP1 SLOAD PUSH2 0x2BAA SWAP1 PUSH2 0x4E72 JUMP JUMPDEST DUP1 PUSH1 0x1F ADD PUSH1 0x20 DUP1 SWAP2 DIV MUL PUSH1 0x20 ADD PUSH1 0x40 MLOAD SWAP1 DUP2 ADD PUSH1 0x40 MSTORE DUP1 SWAP3 SWAP2 SWAP1 DUP2 DUP2 MSTORE PUSH1 0x20 ADD DUP3 DUP1 SLOAD PUSH2 0x2BD6 SWAP1 PUSH2 0x4E72 JUMP JUMPDEST DUP1 ISZERO PUSH2 0x2C21 JUMPI DUP1 PUSH1 0x1F LT PUSH2 0x2BF8 JUMPI PUSH2 0x100 DUP1 DUP4 SLOAD DIV MUL DUP4 MSTORE SWAP2 PUSH1 0x20 ADD SWAP2 PUSH2 0x2C21 JUMP JUMPDEST DUP3 ADD SWAP2 SWAP1 PUSH0 MSTORE PUSH1 0x20 PUSH0 KECCAK256 SWAP1 JUMPDEST DUP2 SLOAD DUP2 MSTORE SWAP1 PUSH1 0x1 ADD SWAP1 PUSH1 0x20 ADD DUP1 DUP4 GT PUSH2 0x2C04 JUMPI DUP3 SWAP1 SUB PUSH1 0x1F AND DUP3 ADD SWAP2 JUMPDEST POP POP POP POP POP DUP2 MSTORE PUSH1 0x20 ADD PUSH1 0x3 DUP3 ADD DUP1 SLOAD PUSH2 0x2C3A SWAP1 PUSH2 0x4E72 JUMP JUMPDEST DUP1 PUSH1 0x1F ADD PUSH1 0x20 DUP1 SWAP2 DIV MUL PUSH1 0x20 ADD PUSH1 0x40 MLOAD SWAP1 DUP2 ADD PUSH1 0x40 MSTORE DUP1 SWAP3 SWAP2 SWAP1 DUP2 DUP2 MSTORE PUSH1 0x20 ADD DUP3 DUP1 SLOAD PUSH2 0x2C66 SWAP1 PUSH2 0x4E72 JUMP JUMPDEST DUP1 ISZERO PUSH2 0x2CB1 JUMPI DUP1 PUSH1 0x1F LT PUSH2 0x2C88 JUMPI PUSH2 0x100 DUP1 DUP4 SLOAD DIV MUL DUP4 MSTORE SWAP2 PUSH1 0x20 ADD SWAP2 PUSH2 0x2CB1 JUMP JUMPDEST DUP3 ADD SWAP2 SWAP1 PUSH0 MSTORE PUSH1 0x20 PUSH0 KECCAK256 SWAP1 JUMPDEST DUP2 SLOAD DUP2 MSTORE SWAP1 PUSH1 0x1 ADD SWAP1 PUSH1 0x20 ADD DUP1 DUP4 GT PUSH2 0x2C94 JUMPI DUP3 SWAP1 SUB PUSH1 0x1F AND DUP3 ADD SWAP2 JUMPDEST POP POP POP POP POP DUP2 MSTORE PUSH1 0x20 ADD PUSH1 0x4 DUP3 ADD SLOAD DUP2 MSTORE PUSH1 0x20 ADD PUSH1 0x5 DUP3 ADD PUSH0 SWAP1 SLOAD SWAP1 PUSH2 0x100 EXP SWAP1 DIV PUSH20 0xFFFFFFFFFFFFFFFFFFFFFFFFFFFFFFFFFFFFFFFF AND PUSH20 0xFFFFFFFFFFFFFFFFFFFFFFFFFFFFFFFFFFFFFFFF AND PUSH20 0xFFFFFFFFFFFFFFFFFFFFFFFFFFFFFFFFFFFFFFFF AND DUP2 MSTORE PUSH1 0x20 ADD PUSH1 0x6 DUP3 ADD DUP1 SLOAD PUSH2 0x2D29 SWAP1 PUSH2 0x4E72 JUMP JUMPDEST DUP1 PUSH1 0x1F ADD PUSH1 0x20 DUP1 SWAP2 DIV MUL PUSH1 0x20 ADD PUSH1 0x40 MLOAD SWAP1 DUP2 ADD PUSH1 0x40 MSTORE DUP1 SWAP3 SWAP2 SWAP1 DUP2 DUP2 MSTORE PUSH1 0x20 ADD DUP3 DUP1 SLOAD PUSH2 0x2D55 SWAP1 PUSH2 0x4E72 JUMP JUMPDEST DUP1 ISZERO PUSH2 0x2DA0 JUMPI DUP1 PUSH1 0x1F LT PUSH2 0x2D77 JUMPI PUSH2 0x100 DUP1 DUP4 SLOAD DIV MUL DUP4 MSTORE SWAP2 PUSH1 0x20 ADD SWAP2 PUSH2 0x2DA0 JUMP JUMPDEST DUP3 ADD SWAP2 SWAP1 PUSH0 MSTORE PUSH1 0x20 PUSH0 KECCAK256 SWAP1 JUMPDEST DUP2 SLOAD DUP2 MSTORE SWAP1 PUSH1 0x1 ADD SWAP1 PUSH1 0x20 ADD DUP1 DUP4 GT PUSH2 0x2D83 JUMPI DUP3 SWAP1 SUB PUSH1 0x1F AND DUP3 ADD SWAP2 JUMPDEST POP POP POP POP POP DUP2 MSTORE PUSH1 0x20 ADD PUSH1 0x7 DUP3 ADD SLOAD DUP2 MSTORE PUSH1 0x20 ADD PUSH1 0x8 DUP3 ADD DUP1 SLOAD PUSH2 0x2DC3 SWAP1 PUSH2 0x4E72 JUMP JUMPDEST DUP1 PUSH1 0x1F ADD PUSH1 0x20 DUP1 SWAP2 DIV MUL PUSH1 0x20 ADD PUSH1 0x40 MLOAD SWAP1 DUP2 ADD PUSH1 0x40 MSTORE DUP1 SWAP3 SWAP2 SWAP1 DUP2 DUP2 MSTORE PUSH1 0x20 ADD DUP3 DUP1 SLOAD PUSH2 0x2DEF SWAP1 PUSH2 0x4E72 JUMP JUMPDEST DUP1 ISZERO PUSH2 0x2E3A JUMPI DUP1 PUSH1 0x1F LT PUSH2 0x2E11 JUMPI PUSH2 0x100 DUP1 DUP4 SLOAD DIV MUL DUP4 MSTORE SWAP2 PUSH1 0x20 ADD SWAP2 PUSH2 0x2E3A JUMP JUMPDEST DUP3 ADD SWAP2 SWAP1 PUSH0 MSTORE PUSH1 0x20 PUSH0 KECCAK256 SWAP1 JUMPDEST DUP2 SLOAD DUP2 MSTORE SWAP1 PUSH1 0x1 ADD SWAP1 PUSH1 0x20 ADD DUP1 DUP4 GT PUSH2 0x2E1D JUMPI DUP3 SWAP1 SUB PUSH1 0x1F AND DUP3 ADD SWAP2 JUMPDEST POP POP POP POP POP DUP2 MSTORE PUSH1 0x20 ADD PUSH1 0x9 DUP3 ADD PUSH0 SWAP1 SLOAD SWAP1 PUSH2 0x100 EXP SWAP1 DIV PUSH1 0xFF AND PUSH1 0x3 DUP2 GT ISZERO PUSH2 0x2E67 JUMPI PUSH2 0x2E66 PUSH2 0x459A JUMP JUMPDEST JUMPDEST PUSH1 0x3 DUP2 GT ISZERO PUSH2 0x2E79 JUMPI PUSH2 0x2E78 PUSH2 0x459A JUMP JUMPDEST JUMPDEST DUP2 MSTORE PUSH1 0x20 ADD PUSH1 0xA DUP3 ADD SLOAD DUP2 MSTORE POP POP DUP4 DUP4 DUP1 PUSH2 0x2E93 SWAP1 PUSH2 0x512C JUMP JUMPDEST SWAP5 POP DUP2 MLOAD DUP2 LT PUSH2 0x2EA6 JUMPI PUSH2 0x2EA5 PUSH2 0x50D2 JUMP JUMPDEST JUMPDEST PUSH1 0x20 MUL PUSH1 0x20 ADD ADD DUP2 SWAP1 MSTORE POP JUMPDEST DUP1 DUP1 PUSH1 0x1 ADD SWAP2 POP POP PUSH2 0x2A8F JUMP JUMPDEST POP DUP2 SWAP4 POP POP POP POP SWAP1 JUMP JUMPDEST PUSH0 CALLER PUSH20 0xFFFFFFFFFFFFFFFFFFFFFFFFFFFFFFFFFFFFFFFF AND PUSH1 0xC PUSH0 DUP5 DUP2 MSTORE PUSH1 0x20 ADD SWAP1 DUP2 MSTORE PUSH1 0x20 ADD PUSH0 KECCAK256 PUSH1 0x5 ADD PUSH0 SWAP1 SLOAD SWAP1 PUSH2 0x100 EXP SWAP1 DIV PUSH20 0xFFFFFFFFFFFFFFFFFFFFFFFFFFFFFFFFFFFFFFFF AND PUSH20 0xFFFFFFFFFFFFFFFFFFFFFFFFFFFFFFFFFFFFFFFF AND EQ PUSH2 0x2F6B JUMPI PUSH1 0x40 MLOAD PUSH32 0x8C379A000000000000000000000000000000000000000000000000000000000 DUP2 MSTORE PUSH1 0x4 ADD PUSH2 0x2F62 SWAP1 PUSH2 0x5683 JUMP JUMPDEST PUSH1 0x40 MLOAD DUP1 SWAP2 SUB SWAP1 REVERT JUMPDEST PUSH0 PUSH1 0xC PUSH0 DUP5 DUP2 MSTORE PUSH1 0x20 ADD SWAP1 DUP2 MSTORE PUSH1 0x20 ADD PUSH0 KECCAK256 PUSH0 ADD SLOAD GT PUSH2 0x2FC0 JUMPI PUSH1 0x40 MLOAD PUSH32 0x8C379A000000000000000000000000000000000000000000000000000000000 DUP2 MSTORE PUSH1 0x4 ADD PUSH2 0x2FB7 SWAP1 PUSH2 0x4E27 JUMP JUMPDEST PUSH1 0x40 MLOAD DUP1 SWAP2 SUB SWAP1 REVERT JUMPDEST PUSH1 0x1 PUSH1 0x3 DUP2 GT ISZERO PUSH2 0x2FD4 JUMPI PUSH2 0x2FD3 PUSH2 0x459A JUMP JUMPDEST JUMPDEST PUSH1 0xC PUSH0 DUP5 DUP2 MSTORE PUSH1 0x20 ADD SWAP1 DUP2 MSTORE PUSH1 0x20 ADD PUSH0 KECCAK256 PUSH1 0x9 ADD PUSH0 SWAP1 SLOAD SWAP1 PUSH2 0x100 EXP SWAP1 DIV PUSH1 0xFF AND PUSH1 0x3 DUP2 GT ISZERO PUSH2 0x3007 JUMPI PUSH2 0x3006 PUSH2 0x459A JUMP JUMPDEST JUMPDEST EQ DUP1 PUSH2 0x3056 JUMPI POP PUSH0 PUSH1 0x3 DUP2 GT ISZERO PUSH2 0x3021 JUMPI PUSH2 0x3020 PUSH2 0x459A JUMP JUMPDEST JUMPDEST PUSH1 0xC PUSH0 DUP5 DUP2 MSTORE PUSH1 0x20 ADD SWAP1 DUP2 MSTORE PUSH1 0x20 ADD PUSH0 KECCAK256 PUSH1 0x9 ADD PUSH0 SWAP1 SLOAD SWAP1 PUSH2 0x100 EXP SWAP1 DIV PUSH1 0xFF AND PUSH1 0x3 DUP2 GT ISZERO PUSH2 0x3054 JUMPI PUSH2 0x3053 PUSH2 0x459A JUMP JUMPDEST JUMPDEST EQ JUMPDEST PUSH2 0x3095 JUMPI PUSH1 0x40 MLOAD PUSH32 0x8C379A000000000000000000000000000000000000000000000000000000000 DUP2 MSTORE PUSH1 0x4 ADD PUSH2 0x308C SWAP1 PUSH2 0x56EB JUMP JUMPDEST PUSH1 0x40 MLOAD DUP1 SWAP2 SUB SWAP1 REVERT JUMPDEST PUSH2 0x30B3 CALLER PUSH1 0xC PUSH0 DUP6 DUP2 MSTORE PUSH1 0x20 ADD SWAP1 DUP2 MSTORE PUSH1 0x20 ADD PUSH0 KECCAK256 PUSH1 0x7 ADD SLOAD PUSH2 0x369B JUMP JUMPDEST PUSH2 0x30BC DUP3 PUSH2 0x3B03 JUMP JUMPDEST PUSH1 0x1 SWAP1 POP SWAP2 SWAP1 POP JUMP JUMPDEST PUSH0 PUSH1 0x9 PUSH0 SWAP1 SLOAD SWAP1 PUSH2 0x100 EXP SWAP1 DIV PUSH20 0xFFFFFFFFFFFFFFFFFFFFFFFFFFFFFFFFFFFFFFFF AND SWAP1 POP SWAP1 JUMP JUMPDEST PUSH0 PUSH1 0x6 PUSH0 SWAP1 SLOAD SWAP1 PUSH2 0x100 EXP SWAP1 DIV PUSH20 0xFFFFFFFFFFFFFFFFFFFFFFFFFFFFFFFFFFFFFFFF AND SWAP1 POP SWAP1 JUMP JUMPDEST PUSH0 PUSH1 0xE SLOAD SWAP1 POP SWAP1 JUMP JUMPDEST PUSH0 DUP1 PUSH0 SWAP1 POP PUSH0 JUMPDEST PUSH1 0xD DUP1 SLOAD SWAP1 POP DUP2 LT ISZERO PUSH2 0x3179 JUMPI PUSH2 0x3158 PUSH1 0xD DUP3 DUP2 SLOAD DUP2 LT PUSH2 0x3149 JUMPI PUSH2 0x3148 PUSH2 0x50D2 JUMP JUMPDEST JUMPDEST SWAP1 PUSH0 MSTORE PUSH1 0x20 PUSH0 KECCAK256 ADD SLOAD DUP6 PUSH2 0x39F7 JUMP JUMPDEST ISZERO PUSH2 0x316C JUMPI DUP2 DUP1 PUSH2 0x3168 SWAP1 PUSH2 0x512C JUMP JUMPDEST SWAP3 POP POP JUMPDEST DUP1 DUP1 PUSH1 0x1 ADD SWAP2 POP POP PUSH2 0x3125 JUMP JUMPDEST POP DUP1 SWAP2 POP POP SWAP2 SWAP1 POP JUMP JUMPDEST PUSH0 DUP1 PUSH0 SWAP1 POP JUMPDEST PUSH1 0xD DUP1 SLOAD SWAP1 POP DUP2 LT ISZERO PUSH2 0x3372 JUMPI PUSH0 PUSH1 0xD DUP3 DUP2 SLOAD DUP2 LT PUSH2 0x31AB JUMPI PUSH2 0x31AA PUSH2 0x50D2 JUMP JUMPDEST JUMPDEST SWAP1 PUSH0 MSTORE PUSH1 0x20 PUSH0 KECCAK256 ADD SLOAD SWAP1 POP DUP6 PUSH1 0x3 DUP2 GT ISZERO PUSH2 0x31C9 JUMPI PUSH2 0x31C8 PUSH2 0x459A JUMP JUMPDEST JUMPDEST PUSH1 0xC PUSH0 DUP4 DUP2 MSTORE PUSH1 0x20 ADD SWAP1 DUP2 MSTORE PUSH1 0x20 ADD PUSH0 KECCAK256 PUSH1 0x9 ADD PUSH0 SWAP1 SLOAD SWAP1 PUSH2 0x100 EXP SWAP1 DIV PUSH1 0xFF AND PUSH1 0x3 DUP2 GT ISZERO PUSH2 0x31FC JUMPI PUSH2 0x31FB PUSH2 0x459A JUMP JUMPDEST JUMPDEST EQ DUP1 ISZERO PUSH2 0x32A9 JUMPI POP PUSH2 0x32A8 PUSH1 0xC PUSH0 DUP4 DUP2 MSTORE PUSH1 0x20 ADD SWAP1 DUP2 MSTORE PUSH1 0x20 ADD PUSH0 KECCAK256 PUSH1 0x1 ADD DUP1 SLOAD PUSH2 0x3226 SWAP1 PUSH2 0x4E72 JUMP JUMPDEST DUP1 PUSH1 0x1F ADD PUSH1 0x20 DUP1 SWAP2 DIV MUL PUSH1 0x20 ADD PUSH1 0x40 MLOAD SWAP1 DUP2 ADD PUSH1 0x40 MSTORE DUP1 SWAP3 SWAP2 SWAP1 DUP2 DUP2 MSTORE PUSH1 0x20 ADD DUP3 DUP1 SLOAD PUSH2 0x3252 SWAP1 PUSH2 0x4E72 JUMP JUMPDEST DUP1 ISZERO PUSH2 0x329D JUMPI DUP1 PUSH1 0x1F LT PUSH2 0x3274 JUMPI PUSH2 0x100 DUP1 DUP4 SLOAD DIV MUL DUP4 MSTORE SWAP2 PUSH1 0x20 ADD SWAP2 PUSH2 0x329D JUMP JUMPDEST DUP3 ADD SWAP2 SWAP1 PUSH0 MSTORE PUSH1 0x20 PUSH0 KECCAK256 SWAP1 JUMPDEST DUP2 SLOAD DUP2 MSTORE SWAP1 PUSH1 0x1 ADD SWAP1 PUSH1 0x20 ADD DUP1 DUP4 GT PUSH2 0x3280 JUMPI DUP3 SWAP1 SUB PUSH1 0x1F AND DUP3 ADD SWAP2 JUMPDEST POP POP POP POP POP DUP7 PUSH2 0x42D0 JUMP JUMPDEST JUMPDEST DUP1 ISZERO PUSH2 0x3355 JUMPI POP PUSH2 0x3354 PUSH1 0xC PUSH0 DUP4 DUP2 MSTORE PUSH1 0x20 ADD SWAP1 DUP2 MSTORE PUSH1 0x20 ADD PUSH0 KECCAK256 PUSH1 0x3 ADD DUP1 SLOAD PUSH2 0x32D2 SWAP1 PUSH2 0x4E72 JUMP JUMPDEST DUP1 PUSH1 0x1F ADD PUSH1 0x20 DUP1 SWAP2 DIV MUL PUSH1 0x20 ADD PUSH1 0x40 MLOAD SWAP1 DUP2 ADD PUSH1 0x40 MSTORE DUP1 SWAP3 SWAP2 SWAP1 DUP2 DUP2 MSTORE PUSH1 0x20 ADD DUP3 DUP1 SLOAD PUSH2 0x32FE SWAP1 PUSH2 0x4E72 JUMP JUMPDEST DUP1 ISZERO PUSH2 0x3349 JUMPI DUP1 PUSH1 0x1F LT PUSH2 0x3320 JUMPI PUSH2 0x100 DUP1 DUP4 SLOAD DIV MUL DUP4 MSTORE SWAP2 PUSH1 0x20 ADD SWAP2 PUSH2 0x3349 JUMP JUMPDEST DUP3 ADD SWAP2 SWAP1 PUSH0 MSTORE PUSH1 0x20 PUSH0 KECCAK256 SWAP1 JUMPDEST DUP2 SLOAD DUP2 MSTORE SWAP1 PUSH1 0x1 ADD SWAP1 PUSH1 0x20 ADD DUP1 DUP4 GT PUSH2 0x332C JUMPI DUP3 SWAP1 SUB PUSH1 0x1F AND DUP3 ADD SWAP2 JUMPDEST POP POP POP POP POP DUP6 PUSH2 0x42D0 JUMP JUMPDEST JUMPDEST ISZERO PUSH2 0x3364 JUMPI DUP1 SWAP3 POP POP POP PUSH2 0x3377 JUMP JUMPDEST POP DUP1 DUP1 PUSH1 0x1 ADD SWAP2 POP POP PUSH2 0x3189 JUMP JUMPDEST POP PUSH0 SWAP1 POP JUMPDEST SWAP4 SWAP3 POP POP POP JUMP JUMPDEST PUSH0 DUP2 GT PUSH2 0x33C0 JUMPI PUSH1 0x40 MLOAD PUSH32 0x8C379A000000000000000000000000000000000000000000000000000000000 DUP2 MSTORE PUSH1 0x4 ADD PUSH2 0x33B7 SWAP1 PUSH2 0x5753 JUMP JUMPDEST PUSH1 0x40 MLOAD DUP1 SWAP2 SUB SWAP1 REVERT JUMPDEST DUP4 DUP3 GT DUP1 PUSH2 0x33D8 JUMPI POP DUP4 DUP3 EQ DUP1 ISZERO PUSH2 0x33D7 JUMPI POP DUP3 DUP2 GT JUMPDEST JUMPDEST PUSH2 0x3417 JUMPI PUSH1 0x40 MLOAD PUSH32 0x8C379A000000000000000000000000000000000000000000000000000000000 DUP2 MSTORE PUSH1 0x4 ADD PUSH2 0x340E SWAP1 PUSH2 0x57E1 JUMP JUMPDEST PUSH1 0x40 MLOAD DUP1 SWAP2 SUB SWAP1 REVERT JUMPDEST POP POP POP POP JUMP JUMPDEST PUSH1 0x4 PUSH0 SWAP1 SLOAD SWAP1 PUSH2 0x100 EXP SWAP1 DIV PUSH20 0xFFFFFFFFFFFFFFFFFFFFFFFFFFFFFFFFFFFFFFFF AND PUSH20 0xFFFFFFFFFFFFFFFFFFFFFFFFFFFFFFFFFFFFFFFF AND PUSH4 0x24D7806C CALLER PUSH1 0x40 MLOAD DUP3 PUSH4 0xFFFFFFFF AND PUSH1 0xE0 SHL DUP2 MSTORE PUSH1 0x4 ADD PUSH2 0x3477 SWAP2 SWAP1 PUSH2 0x446D JUMP JUMPDEST PUSH1 0x20 PUSH1 0x40 MLOAD DUP1 DUP4 SUB DUP2 DUP7 GAS STATICCALL ISZERO DUP1 ISZERO PUSH2 0x3492 JUMPI RETURNDATASIZE PUSH0 DUP1 RETURNDATACOPY RETURNDATASIZE PUSH0 REVERT JUMPDEST POP POP POP POP PUSH1 0x40 MLOAD RETURNDATASIZE PUSH1 0x1F NOT PUSH1 0x1F DUP3 ADD AND DUP3 ADD DUP1 PUSH1 0x40 MSTORE POP DUP2 ADD SWAP1 PUSH2 0x34B6 SWAP2 SWAP1 PUSH2 0x4D3A JUMP JUMPDEST PUSH2 0x34F5 JUMPI PUSH1 0x40 MLOAD PUSH32 0x8C379A000000000000000000000000000000000000000000000000000000000 DUP2 MSTORE PUSH1 0x4 ADD PUSH2 0x34EC SWAP1 PUSH2 0x4EEC JUMP JUMPDEST PUSH1 0x40 MLOAD DUP1 SWAP2 SUB SWAP1 REVERT JUMPDEST PUSH0 PUSH1 0xC PUSH0 DUP4 DUP2 MSTORE PUSH1 0x20 ADD SWAP1 DUP2 MSTORE PUSH1 0x20 ADD PUSH0 KECCAK256 PUSH0 ADD SLOAD GT PUSH2 0x354A JUMPI PUSH1 0x40 MLOAD PUSH32 0x8C379A000000000000000000000000000000000000000000000000000000000 DUP2 MSTORE PUSH1 0x4 ADD PUSH2 0x3541 SWAP1 PUSH2 0x4E27 JUMP JUMPDEST PUSH1 0x40 MLOAD DUP1 SWAP2 SUB SWAP1 REVERT JUMPDEST PUSH1 0x1 PUSH1 0x3 DUP2 GT ISZERO PUSH2 0x355E JUMPI PUSH2 0x355D PUSH2 0x459A JUMP JUMPDEST JUMPDEST PUSH1 0xC PUSH0 DUP4 DUP2 MSTORE PUSH1 0x20 ADD SWAP1 DUP2 MSTORE PUSH1 0x20 ADD PUSH0 KECCAK256 PUSH1 0x9 ADD PUSH0 SWAP1 SLOAD SWAP1 PUSH2 0x100 EXP SWAP1 DIV PUSH1 0xFF AND PUSH1 0x3 DUP2 GT ISZERO PUSH2 0x3591 JUMPI PUSH2 0x3590 PUSH2 0x459A JUMP JUMPDEST JUMPDEST EQ PUSH2 0x35D1 JUMPI PUSH1 0x40 MLOAD PUSH32 0x8C379A000000000000000000000000000000000000000000000000000000000 DUP2 MSTORE PUSH1 0x4 ADD PUSH2 0x35C8 SWAP1 PUSH2 0x520F JUMP JUMPDEST PUSH1 0x40 MLOAD DUP1 SWAP2 SUB SWAP1 REVERT JUMPDEST PUSH2 0x3622 PUSH1 0xC PUSH0 DUP4 DUP2 MSTORE PUSH1 0x20 ADD SWAP1 DUP2 MSTORE PUSH1 0x20 ADD PUSH0 KECCAK256 PUSH1 0x5 ADD PUSH0 SWAP1 SLOAD SWAP1 PUSH2 0x100 EXP SWAP1 DIV PUSH20 0xFFFFFFFFFFFFFFFFFFFFFFFFFFFFFFFFFFFFFFFF AND PUSH1 0xC PUSH0 DUP5 DUP2 MSTORE PUSH1 0x20 ADD SWAP1 DUP2 MSTORE PUSH1 0x20 ADD PUSH0 KECCAK256 PUSH1 0x7 ADD SLOAD PUSH2 0x369B JUMP JUMPDEST PUSH1 0x3 PUSH1 0xC PUSH0 DUP4 DUP2 MSTORE PUSH1 0x20 ADD SWAP1 DUP2 MSTORE PUSH1 0x20 ADD PUSH0 KECCAK256 PUSH1 0x9 ADD PUSH0 PUSH2 0x100 EXP DUP2 SLOAD DUP2 PUSH1 0xFF MUL NOT AND SWAP1 DUP4 PUSH1 0x3 DUP2 GT ISZERO PUSH2 0x3659 JUMPI PUSH2 0x3658 PUSH2 0x459A JUMP JUMPDEST JUMPDEST MUL OR SWAP1 SSTORE POP PUSH32 0xBF010ABA48E49020ED90D2F6B9AE36C27E06A48F276AA44D6594E44347CB5CAD DUP2 PUSH1 0x3 PUSH1 0x40 MLOAD PUSH2 0x3690 SWAP3 SWAP2 SWAP1 PUSH2 0x5010 JUMP JUMPDEST PUSH1 0x40 MLOAD DUP1 SWAP2 SUB SWAP1 LOG1 POP JUMP JUMPDEST PUSH0 PUSH20 0xFFFFFFFFFFFFFFFFFFFFFFFFFFFFFFFFFFFFFFFF AND DUP3 PUSH20 0xFFFFFFFFFFFFFFFFFFFFFFFFFFFFFFFFFFFFFFFF AND SUB PUSH2 0x3709 JUMPI PUSH1 0x40 MLOAD PUSH32 0x8C379A000000000000000000000000000000000000000000000000000000000 DUP2 MSTORE PUSH1 0x4 ADD PUSH2 0x3700 SWAP1 PUSH2 0x5849 JUMP JUMPDEST PUSH1 0x40 MLOAD DUP1 SWAP2 SUB SWAP1 REVERT JUMPDEST PUSH0 DUP2 GT PUSH2 0x374B JUMPI PUSH1 0x40 MLOAD PUSH32 0x8C379A000000000000000000000000000000000000000000000000000000000 DUP2 MSTORE PUSH1 0x4 ADD PUSH2 0x3742 SWAP1 PUSH2 0x58B1 JUMP JUMPDEST PUSH1 0x40 MLOAD DUP1 SWAP2 SUB SWAP1 REVERT JUMPDEST DUP1 PUSH1 0xE SLOAD LT ISZERO PUSH2 0x3790 JUMPI PUSH1 0x40 MLOAD PUSH32 0x8C379A000000000000000000000000000000000000000000000000000000000 DUP2 MSTORE PUSH1 0x4 ADD PUSH2 0x3787 SWAP1 PUSH2 0x5919 JUMP JUMPDEST PUSH1 0x40 MLOAD DUP1 SWAP2 SUB SWAP1 REVERT JUMPDEST DUP1 PUSH1 0xF PUSH0 DUP5 PUSH20 0xFFFFFFFFFFFFFFFFFFFFFFFFFFFFFFFFFFFFFFFF AND PUSH20 0xFFFFFFFFFFFFFFFFFFFFFFFFFFFFFFFFFFFFFFFF AND DUP2 MSTORE PUSH1 0x20 ADD SWAP1 DUP2 MSTORE PUSH1 0x20 ADD PUSH0 KECCAK256 SLOAD LT ISZERO PUSH2 0x3810 JUMPI PUSH1 0x40 MLOAD PUSH32 0x8C379A000000000000000000000000000000000000000000000000000000000 DUP2 MSTORE PUSH1 0x4 ADD PUSH2 0x3807 SWAP1 PUSH2 0x5981 JUMP JUMPDEST PUSH1 0x40 MLOAD DUP1 SWAP2 SUB SWAP1 REVERT JUMPDEST DUP1 PUSH1 0x2 PUSH0 SWAP1 SLOAD SWAP1 PUSH2 0x100 EXP SWAP1 DIV PUSH20 0xFFFFFFFFFFFFFFFFFFFFFFFFFFFFFFFFFFFFFFFF AND PUSH20 0xFFFFFFFFFFFFFFFFFFFFFFFFFFFFFFFFFFFFFFFF AND PUSH4 0x70A08231 ADDRESS PUSH1 0x40 MLOAD DUP3 PUSH4 0xFFFFFFFF AND PUSH1 0xE0 SHL DUP2 MSTORE PUSH1 0x4 ADD PUSH2 0x386B SWAP2 SWAP1 PUSH2 0x446D JUMP JUMPDEST PUSH1 0x20 PUSH1 0x40 MLOAD DUP1 DUP4 SUB DUP2 DUP7 GAS STATICCALL ISZERO DUP1 ISZERO PUSH2 0x3886 JUMPI RETURNDATASIZE PUSH0 DUP1 RETURNDATACOPY RETURNDATASIZE PUSH0 REVERT JUMPDEST POP POP POP POP PUSH1 0x40 MLOAD RETURNDATASIZE PUSH1 0x1F NOT PUSH1 0x1F DUP3 ADD AND DUP3 ADD DUP1 PUSH1 0x40 MSTORE POP DUP2 ADD SWAP1 PUSH2 0x38AA SWAP2 SWAP1 PUSH2 0x519A JUMP JUMPDEST LT ISZERO PUSH2 0x38EB JUMPI PUSH1 0x40 MLOAD PUSH32 0x8C379A000000000000000000000000000000000000000000000000000000000 DUP2 MSTORE PUSH1 0x4 ADD PUSH2 0x38E2 SWAP1 PUSH2 0x59E9 JUMP JUMPDEST PUSH1 0x40 MLOAD DUP1 SWAP2 SUB SWAP1 REVERT JUMPDEST PUSH1 0x2 PUSH0 SWAP1 SLOAD SWAP1 PUSH2 0x100 EXP SWAP1 DIV PUSH20 0xFFFFFFFFFFFFFFFFFFFFFFFFFFFFFFFFFFFFFFFF AND PUSH20 0xFFFFFFFFFFFFFFFFFFFFFFFFFFFFFFFFFFFFFFFF AND PUSH4 0xA9059CBB DUP4 DUP4 PUSH1 0x40 MLOAD DUP4 PUSH4 0xFFFFFFFF AND PUSH1 0xE0 SHL DUP2 MSTORE PUSH1 0x4 ADD PUSH2 0x3947 SWAP3 SWAP2 SWAP1 PUSH2 0x4FDA JUMP JUMPDEST PUSH1 0x20 PUSH1 0x40 MLOAD DUP1 DUP4 SUB DUP2 PUSH0 DUP8 GAS CALL ISZERO DUP1 ISZERO PUSH2 0x3963 JUMPI RETURNDATASIZE PUSH0 DUP1 RETURNDATACOPY RETURNDATASIZE PUSH0 REVERT JUMPDEST POP POP POP POP PUSH1 0x40 MLOAD RETURNDATASIZE PUSH1 0x1F NOT PUSH1 0x1F DUP3 ADD AND DUP3 ADD DUP1 PUSH1 0x40 MSTORE POP DUP2 ADD SWAP1 PUSH2 0x3987 SWAP2 SWAP1 PUSH2 0x4D3A JUMP JUMPDEST POP DUP1 PUSH1 0xE PUSH0 DUP3 DUP3 SLOAD PUSH2 0x3999 SWAP2 SWAP1 PUSH2 0x5A07 JUMP JUMPDEST SWAP3 POP POP DUP2 SWAP1 SSTORE POP DUP1 PUSH1 0xF PUSH0 DUP5 PUSH20 0xFFFFFFFFFFFFFFFFFFFFFFFFFFFFFFFFFFFFFFFF AND PUSH20 0xFFFFFFFFFFFFFFFFFFFFFFFFFFFFFFFFFFFFFFFF AND DUP2 MSTORE PUSH1 0x20 ADD SWAP1 DUP2 MSTORE PUSH1 0x20 ADD PUSH0 KECCAK256 PUSH0 DUP3 DUP3 SLOAD PUSH2 0x39EC SWAP2 SWAP1 PUSH2 0x5A07 JUMP JUMPDEST SWAP3 POP POP DUP2 SWAP1 SSTORE POP POP POP JUMP JUMPDEST PUSH0 DUP2 PUSH1 0x3 DUP2 GT ISZERO PUSH2 0x3A0B JUMPI PUSH2 0x3A0A PUSH2 0x459A JUMP JUMPDEST JUMPDEST PUSH1 0xC PUSH0 DUP6 DUP2 MSTORE PUSH1 0x20 ADD SWAP1 DUP2 MSTORE PUSH1 0x20 ADD PUSH0 KECCAK256 PUSH1 0x9 ADD PUSH0 SWAP1 SLOAD SWAP1 PUSH2 0x100 EXP SWAP1 DIV PUSH1 0xFF AND PUSH1 0x3 DUP2 GT ISZERO PUSH2 0x3A3E JUMPI PUSH2 0x3A3D PUSH2 0x459A JUMP JUMPDEST JUMPDEST EQ SWAP1 POP SWAP3 SWAP2 POP POP JUMP JUMPDEST PUSH0 DUP1 PUSH0 SWAP1 POP PUSH0 JUMPDEST PUSH1 0xD DUP1 SLOAD SWAP1 POP DUP2 LT ISZERO PUSH2 0x3AF9 JUMPI DUP4 PUSH20 0xFFFFFFFFFFFFFFFFFFFFFFFFFFFFFFFFFFFFFFFF AND PUSH1 0xC PUSH0 PUSH1 0xD DUP5 DUP2 SLOAD DUP2 LT PUSH2 0x3A89 JUMPI PUSH2 0x3A88 PUSH2 0x50D2 JUMP JUMPDEST JUMPDEST SWAP1 PUSH0 MSTORE PUSH1 0x20 PUSH0 KECCAK256 ADD SLOAD DUP2 MSTORE PUSH1 0x20 ADD SWAP1 DUP2 MSTORE PUSH1 0x20 ADD PUSH0 KECCAK256 PUSH1 0x5 ADD PUSH0 SWAP1 SLOAD SWAP1 PUSH2 0x100 EXP SWAP1 DIV PUSH20 0xFFFFFFFFFFFFFFFFFFFFFFFFFFFFFFFFFFFFFFFF AND PUSH20 0xFFFFFFFFFFFFFFFFFFFFFFFFFFFFFFFFFFFFFFFF AND SUB PUSH2 0x3AEC JUMPI DUP2 DUP1 PUSH2 0x3AE8 SWAP1 PUSH2 0x512C JUMP JUMPDEST SWAP3 POP POP JUMPDEST DUP1 DUP1 PUSH1 0x1 ADD SWAP2 POP POP PUSH2 0x3A4E JUMP JUMPDEST POP DUP1 SWAP2 POP POP SWAP2 SWAP1 POP JUMP JUMPDEST PUSH0 PUSH1 0xD DUP1 SLOAD SWAP1 POP SWAP1 POP PUSH0 JUMPDEST DUP2 DUP2 LT ISZERO PUSH2 0x3C7F JUMPI DUP3 PUSH1 0xC PUSH0 PUSH1 0xD DUP5 DUP2 SLOAD DUP2 LT PUSH2 0x3B2E JUMPI PUSH2 0x3B2D PUSH2 0x50D2 JUMP JUMPDEST JUMPDEST SWAP1 PUSH0 MSTORE PUSH1 0x20 PUSH0 KECCAK256 ADD SLOAD DUP2 MSTORE PUSH1 0x20 ADD SWAP1 DUP2 MSTORE PUSH1 0x20 ADD PUSH0 KECCAK256 PUSH0 ADD SLOAD SUB PUSH2 0x3C72 JUMPI PUSH1 0xD PUSH1 0x1 DUP4 PUSH2 0x3B5B SWAP2 SWAP1 PUSH2 0x5A07 JUMP JUMPDEST DUP2 SLOAD DUP2 LT PUSH2 0x3B6C JUMPI PUSH2 0x3B6B PUSH2 0x50D2 JUMP JUMPDEST JUMPDEST SWAP1 PUSH0 MSTORE PUSH1 0x20 PUSH0 KECCAK256 ADD SLOAD PUSH1 0xD DUP3 DUP2 SLOAD DUP2 LT PUSH2 0x3B89 JUMPI PUSH2 0x3B88 PUSH2 0x50D2 JUMP JUMPDEST JUMPDEST SWAP1 PUSH0 MSTORE PUSH1 0x20 PUSH0 KECCAK256 ADD DUP2 SWAP1 SSTORE POP PUSH1 0xD DUP1 SLOAD DUP1 PUSH2 0x3BA7 JUMPI PUSH2 0x3BA6 PUSH2 0x5A3A JUMP JUMPDEST JUMPDEST PUSH1 0x1 SWAP1 SUB DUP2 DUP2 SWAP1 PUSH0 MSTORE PUSH1 0x20 PUSH0 KECCAK256 ADD PUSH0 SWAP1 SSTORE SWAP1 SSTORE PUSH1 0xC PUSH0 DUP5 DUP2 MSTORE PUSH1 0x20 ADD SWAP1 DUP2 MSTORE PUSH1 0x20 ADD PUSH0 KECCAK256 PUSH0 DUP1 DUP3 ADD PUSH0 SWAP1 SSTORE PUSH1 0x1 DUP3 ADD PUSH0 PUSH2 0x3BE1 SWAP2 SWAP1 PUSH2 0x4370 JUMP JUMPDEST PUSH1 0x2 DUP3 ADD PUSH0 PUSH2 0x3BF0 SWAP2 SWAP1 PUSH2 0x4370 JUMP JUMPDEST PUSH1 0x3 DUP3 ADD PUSH0 PUSH2 0x3BFF SWAP2 SWAP1 PUSH2 0x4370 JUMP JUMPDEST PUSH1 0x4 DUP3 ADD PUSH0 SWAP1 SSTORE PUSH1 0x5 DUP3 ADD PUSH0 PUSH2 0x100 EXP DUP2 SLOAD SWAP1 PUSH20 0xFFFFFFFFFFFFFFFFFFFFFFFFFFFFFFFFFFFFFFFF MUL NOT AND SWAP1 SSTORE PUSH1 0x6 DUP3 ADD PUSH0 PUSH2 0x3C3B SWAP2 SWAP1 PUSH2 0x4370 JUMP JUMPDEST PUSH1 0x7 DUP3 ADD PUSH0 SWAP1 SSTORE PUSH1 0x8 DUP3 ADD PUSH0 PUSH2 0x3C51 SWAP2 SWAP1 PUSH2 0x4370 JUMP JUMPDEST PUSH1 0x9 DUP3 ADD PUSH0 PUSH2 0x100 EXP DUP2 SLOAD SWAP1 PUSH1 0xFF MUL NOT AND SWAP1 SSTORE PUSH1 0xA DUP3 ADD PUSH0 SWAP1 SSTORE POP POP PUSH2 0x3C7F JUMP JUMPDEST DUP1 DUP1 PUSH1 0x1 ADD SWAP2 POP POP PUSH2 0x3B0E JUMP JUMPDEST POP POP POP JUMP JUMPDEST PUSH0 DUP1 PUSH0 SWAP1 POP JUMPDEST PUSH1 0xD DUP1 SLOAD SWAP1 POP DUP2 LT ISZERO PUSH2 0x3EDE JUMPI PUSH0 PUSH1 0xD DUP3 DUP2 SLOAD DUP2 LT PUSH2 0x3CAC JUMPI PUSH2 0x3CAB PUSH2 0x50D2 JUMP JUMPDEST JUMPDEST SWAP1 PUSH0 MSTORE PUSH1 0x20 PUSH0 KECCAK256 ADD SLOAD SWAP1 POP DUP6 PUSH20 0xFFFFFFFFFFFFFFFFFFFFFFFFFFFFFFFFFFFFFFFF AND PUSH1 0xC PUSH0 DUP4 DUP2 MSTORE PUSH1 0x20 ADD SWAP1 DUP2 MSTORE PUSH1 0x20 ADD PUSH0 KECCAK256 PUSH1 0x5 ADD PUSH0 SWAP1 SLOAD SWAP1 PUSH2 0x100 EXP SWAP1 DIV PUSH20 0xFFFFFFFFFFFFFFFFFFFFFFFFFFFFFFFFFFFFFFFF AND PUSH20 0xFFFFFFFFFFFFFFFFFFFFFFFFFFFFFFFFFFFFFFFF AND EQ DUP1 ISZERO PUSH2 0x3D68 JUMPI POP PUSH0 PUSH1 0x3 DUP2 GT ISZERO PUSH2 0x3D33 JUMPI PUSH2 0x3D32 PUSH2 0x459A JUMP JUMPDEST JUMPDEST PUSH1 0xC PUSH0 DUP4 DUP2 MSTORE PUSH1 0x20 ADD SWAP1 DUP2 MSTORE PUSH1 0x20 ADD PUSH0 KECCAK256 PUSH1 0x9 ADD PUSH0 SWAP1 SLOAD SWAP1 PUSH2 0x100 EXP SWAP1 DIV PUSH1 0xFF AND PUSH1 0x3 DUP2 GT ISZERO PUSH2 0x3D66 JUMPI PUSH2 0x3D65 PUSH2 0x459A JUMP JUMPDEST JUMPDEST EQ JUMPDEST DUP1 ISZERO PUSH2 0x3E14 JUMPI POP PUSH2 0x3E13 PUSH1 0xC PUSH0 DUP4 DUP2 MSTORE PUSH1 0x20 ADD SWAP1 DUP2 MSTORE PUSH1 0x20 ADD PUSH0 KECCAK256 PUSH1 0x1 ADD DUP1 SLOAD PUSH2 0x3D91 SWAP1 PUSH2 0x4E72 JUMP JUMPDEST DUP1 PUSH1 0x1F ADD PUSH1 0x20 DUP1 SWAP2 DIV MUL PUSH1 0x20 ADD PUSH1 0x40 MLOAD SWAP1 DUP2 ADD PUSH1 0x40 MSTORE DUP1 SWAP3 SWAP2 SWAP1 DUP2 DUP2 MSTORE PUSH1 0x20 ADD DUP3 DUP1 SLOAD PUSH2 0x3DBD SWAP1 PUSH2 0x4E72 JUMP JUMPDEST DUP1 ISZERO PUSH2 0x3E08 JUMPI DUP1 PUSH1 0x1F LT PUSH2 0x3DDF JUMPI PUSH2 0x100 DUP1 DUP4 SLOAD DIV MUL DUP4 MSTORE SWAP2 PUSH1 0x20 ADD SWAP2 PUSH2 0x3E08 JUMP JUMPDEST DUP3 ADD SWAP2 SWAP1 PUSH0 MSTORE PUSH1 0x20 PUSH0 KECCAK256 SWAP1 JUMPDEST DUP2 SLOAD DUP2 MSTORE SWAP1 PUSH1 0x1 ADD SWAP1 PUSH1 0x20 ADD DUP1 DUP4 GT PUSH2 0x3DEB JUMPI DUP3 SWAP1 SUB PUSH1 0x1F AND DUP3 ADD SWAP2 JUMPDEST POP POP POP POP POP DUP7 PUSH2 0x42D0 JUMP JUMPDEST JUMPDEST DUP1 ISZERO PUSH2 0x3EC0 JUMPI POP PUSH2 0x3EBF PUSH1 0xC PUSH0 DUP4 DUP2 MSTORE PUSH1 0x20 ADD SWAP1 DUP2 MSTORE PUSH1 0x20 ADD PUSH0 KECCAK256 PUSH1 0x3 ADD DUP1 SLOAD PUSH2 0x3E3D SWAP1 PUSH2 0x4E72 JUMP JUMPDEST DUP1 PUSH1 0x1F ADD PUSH1 0x20 DUP1 SWAP2 DIV MUL PUSH1 0x20 ADD PUSH1 0x40 MLOAD SWAP1 DUP2 ADD PUSH1 0x40 MSTORE DUP1 SWAP3 SWAP2 SWAP1 DUP2 DUP2 MSTORE PUSH1 0x20 ADD DUP3 DUP1 SLOAD PUSH2 0x3E69 SWAP1 PUSH2 0x4E72 JUMP JUMPDEST DUP1 ISZERO PUSH2 0x3EB4 JUMPI DUP1 PUSH1 0x1F LT PUSH2 0x3E8B JUMPI PUSH2 0x100 DUP1 DUP4 SLOAD DIV MUL DUP4 MSTORE SWAP2 PUSH1 0x20 ADD SWAP2 PUSH2 0x3EB4 JUMP JUMPDEST DUP3 ADD SWAP2 SWAP1 PUSH0 MSTORE PUSH1 0x20 PUSH0 KECCAK256 SWAP1 JUMPDEST DUP2 SLOAD DUP2 MSTORE SWAP1 PUSH1 0x1 ADD SWAP1 PUSH1 0x20 ADD DUP1 DUP4 GT PUSH2 0x3E97 JUMPI DUP3 SWAP1 SUB PUSH1 0x1F AND DUP3 ADD SWAP2 JUMPDEST POP POP POP POP POP DUP6 PUSH2 0x42D0 JUMP JUMPDEST JUMPDEST ISZERO PUSH2 0x3ED0 JUMPI PUSH1 0x1 SWAP3 POP POP POP PUSH2 0x3EE3 JUMP JUMPDEST POP DUP1 DUP1 PUSH1 0x1 ADD SWAP2 POP POP PUSH2 0x3C8A JUMP JUMPDEST POP PUSH0 SWAP1 POP JUMPDEST SWAP4 SWAP3 POP POP POP JUMP JUMPDEST PUSH0 PUSH1 0xB PUSH0 DUP2 SLOAD PUSH2 0x3EF9 SWAP1 PUSH2 0x512C JUMP JUMPDEST SWAP2 SWAP1 POP DUP2 SWAP1 SSTORE SWAP1 POP SWAP1 JUMP JUMPDEST PUSH0 PUSH1 0xD DUP1 SLOAD SWAP1 POP SWAP1 POP PUSH0 JUMPDEST DUP2 DUP2 LT ISZERO PUSH2 0x42C9 JUMPI PUSH0 PUSH1 0xD DUP3 DUP2 SLOAD DUP2 LT PUSH2 0x3F2C JUMPI PUSH2 0x3F2B PUSH2 0x50D2 JUMP JUMPDEST JUMPDEST SWAP1 PUSH0 MSTORE PUSH1 0x20 PUSH0 KECCAK256 ADD SLOAD SWAP1 POP PUSH1 0x3 DUP1 DUP2 GT ISZERO PUSH2 0x3F4A JUMPI PUSH2 0x3F49 PUSH2 0x459A JUMP JUMPDEST JUMPDEST PUSH1 0xC PUSH0 DUP4 DUP2 MSTORE PUSH1 0x20 ADD SWAP1 DUP2 MSTORE PUSH1 0x20 ADD PUSH0 KECCAK256 PUSH1 0x9 ADD PUSH0 SWAP1 SLOAD SWAP1 PUSH2 0x100 EXP SWAP1 DIV PUSH1 0xFF AND PUSH1 0x3 DUP2 GT ISZERO PUSH2 0x3F7D JUMPI PUSH2 0x3F7C PUSH2 0x459A JUMP JUMPDEST JUMPDEST EQ DUP1 PUSH2 0x3FCD JUMPI POP PUSH1 0x2 PUSH1 0x3 DUP2 GT ISZERO PUSH2 0x3F98 JUMPI PUSH2 0x3F97 PUSH2 0x459A JUMP JUMPDEST JUMPDEST PUSH1 0xC PUSH0 DUP4 DUP2 MSTORE PUSH1 0x20 ADD SWAP1 DUP2 MSTORE PUSH1 0x20 ADD PUSH0 KECCAK256 PUSH1 0x9 ADD PUSH0 SWAP1 SLOAD SWAP1 PUSH2 0x100 EXP SWAP1 DIV PUSH1 0xFF AND PUSH1 0x3 DUP2 GT ISZERO PUSH2 0x3FCB JUMPI PUSH2 0x3FCA PUSH2 0x459A JUMP JUMPDEST JUMPDEST EQ JUMPDEST DUP1 ISZERO PUSH2 0x4037 JUMPI POP DUP6 PUSH20 0xFFFFFFFFFFFFFFFFFFFFFFFFFFFFFFFFFFFFFFFF AND PUSH1 0xC PUSH0 DUP4 DUP2 MSTORE PUSH1 0x20 ADD SWAP1 DUP2 MSTORE PUSH1 0x20 ADD PUSH0 KECCAK256 PUSH1 0x5 ADD PUSH0 SWAP1 SLOAD SWAP1 PUSH2 0x100 EXP SWAP1 DIV PUSH20 0xFFFFFFFFFFFFFFFFFFFFFFFFFFFFFFFFFFFFFFFF AND PUSH20 0xFFFFFFFFFFFFFFFFFFFFFFFFFFFFFFFFFFFFFFFF AND EQ JUMPDEST DUP1 ISZERO PUSH2 0x40E3 JUMPI POP PUSH2 0x40E2 PUSH1 0xC PUSH0 DUP4 DUP2 MSTORE PUSH1 0x20 ADD SWAP1 DUP2 MSTORE PUSH1 0x20 ADD PUSH0 KECCAK256 PUSH1 0x1 ADD DUP1 SLOAD PUSH2 0x4060 SWAP1 PUSH2 0x4E72 JUMP JUMPDEST DUP1 PUSH1 0x1F ADD PUSH1 0x20 DUP1 SWAP2 DIV MUL PUSH1 0x20 ADD PUSH1 0x40 MLOAD SWAP1 DUP2 ADD PUSH1 0x40 MSTORE DUP1 SWAP3 SWAP2 SWAP1 DUP2 DUP2 MSTORE PUSH1 0x20 ADD DUP3 DUP1 SLOAD PUSH2 0x408C SWAP1 PUSH2 0x4E72 JUMP JUMPDEST DUP1 ISZERO PUSH2 0x40D7 JUMPI DUP1 PUSH1 0x1F LT PUSH2 0x40AE JUMPI PUSH2 0x100 DUP1 DUP4 SLOAD DIV MUL DUP4 MSTORE SWAP2 PUSH1 0x20 ADD SWAP2 PUSH2 0x40D7 JUMP JUMPDEST DUP3 ADD SWAP2 SWAP1 PUSH0 MSTORE PUSH1 0x20 PUSH0 KECCAK256 SWAP1 JUMPDEST DUP2 SLOAD DUP2 MSTORE SWAP1 PUSH1 0x1 ADD SWAP1 PUSH1 0x20 ADD DUP1 DUP4 GT PUSH2 0x40BA JUMPI DUP3 SWAP1 SUB PUSH1 0x1F AND DUP3 ADD SWAP2 JUMPDEST POP POP POP POP POP DUP7 PUSH2 0x42D0 JUMP JUMPDEST JUMPDEST DUP1 ISZERO PUSH2 0x418F JUMPI POP PUSH2 0x418E PUSH1 0xC PUSH0 DUP4 DUP2 MSTORE PUSH1 0x20 ADD SWAP1 DUP2 MSTORE PUSH1 0x20 ADD PUSH0 KECCAK256 PUSH1 0x3 ADD DUP1 SLOAD PUSH2 0x410C SWAP1 PUSH2 0x4E72 JUMP JUMPDEST DUP1 PUSH1 0x1F ADD PUSH1 0x20 DUP1 SWAP2 DIV MUL PUSH1 0x20 ADD PUSH1 0x40 MLOAD SWAP1 DUP2 ADD PUSH1 0x40 MSTORE DUP1 SWAP3 SWAP2 SWAP1 DUP2 DUP2 MSTORE PUSH1 0x20 ADD DUP3 DUP1 SLOAD PUSH2 0x4138 SWAP1 PUSH2 0x4E72 JUMP JUMPDEST DUP1 ISZERO PUSH2 0x4183 JUMPI DUP1 PUSH1 0x1F LT PUSH2 0x415A JUMPI PUSH2 0x100 DUP1 DUP4 SLOAD DIV MUL DUP4 MSTORE SWAP2 PUSH1 0x20 ADD SWAP2 PUSH2 0x4183 JUMP JUMPDEST DUP3 ADD SWAP2 SWAP1 PUSH0 MSTORE PUSH1 0x20 PUSH0 KECCAK256 SWAP1 JUMPDEST DUP2 SLOAD DUP2 MSTORE SWAP1 PUSH1 0x1 ADD SWAP1 PUSH1 0x20 ADD DUP1 DUP4 GT PUSH2 0x4166 JUMPI DUP3 SWAP1 SUB PUSH1 0x1F AND DUP3 ADD SWAP2 JUMPDEST POP POP POP POP POP DUP6 PUSH2 0x42D0 JUMP JUMPDEST JUMPDEST ISZERO PUSH2 0x42BB JUMPI PUSH1 0xD PUSH1 0x1 DUP5 PUSH2 0x41A3 SWAP2 SWAP1 PUSH2 0x5A07 JUMP JUMPDEST DUP2 SLOAD DUP2 LT PUSH2 0x41B4 JUMPI PUSH2 0x41B3 PUSH2 0x50D2 JUMP JUMPDEST JUMPDEST SWAP1 PUSH0 MSTORE PUSH1 0x20 PUSH0 KECCAK256 ADD SLOAD PUSH1 0xD DUP4 DUP2 SLOAD DUP2 LT PUSH2 0x41D1 JUMPI PUSH2 0x41D0 PUSH2 0x50D2 JUMP JUMPDEST JUMPDEST SWAP1 PUSH0 MSTORE PUSH1 0x20 PUSH0 KECCAK256 ADD DUP2 SWAP1 SSTORE POP PUSH1 0xD DUP1 SLOAD DUP1 PUSH2 0x41EF JUMPI PUSH2 0x41EE PUSH2 0x5A3A JUMP JUMPDEST JUMPDEST PUSH1 0x1 SWAP1 SUB DUP2 DUP2 SWAP1 PUSH0 MSTORE PUSH1 0x20 PUSH0 KECCAK256 ADD PUSH0 SWAP1 SSTORE SWAP1 SSTORE PUSH1 0xC PUSH0 DUP3 DUP2 MSTORE PUSH1 0x20 ADD SWAP1 DUP2 MSTORE PUSH1 0x20 ADD PUSH0 KECCAK256 PUSH0 DUP1 DUP3 ADD PUSH0 SWAP1 SSTORE PUSH1 0x1 DUP3 ADD PUSH0 PUSH2 0x4229 SWAP2 SWAP1 PUSH2 0x4370 JUMP JUMPDEST PUSH1 0x2 DUP3 ADD PUSH0 PUSH2 0x4238 SWAP2 SWAP1 PUSH2 0x4370 JUMP JUMPDEST PUSH1 0x3 DUP3 ADD PUSH0 PUSH2 0x4247 SWAP2 SWAP1 PUSH2 0x4370 JUMP JUMPDEST PUSH1 0x4 DUP3 ADD PUSH0 SWAP1 SSTORE PUSH1 0x5 DUP3 ADD PUSH0 PUSH2 0x100 EXP DUP2 SLOAD SWAP1 PUSH20 0xFFFFFFFFFFFFFFFFFFFFFFFFFFFFFFFFFFFFFFFF MUL NOT AND SWAP1 SSTORE PUSH1 0x6 DUP3 ADD PUSH0 PUSH2 0x4283 SWAP2 SWAP1 PUSH2 0x4370 JUMP JUMPDEST PUSH1 0x7 DUP3 ADD PUSH0 SWAP1 SSTORE PUSH1 0x8 DUP3 ADD PUSH0 PUSH2 0x4299 SWAP2 SWAP1 PUSH2 0x4370 JUMP JUMPDEST PUSH1 0x9 DUP3 ADD PUSH0 PUSH2 0x100 EXP DUP2 SLOAD SWAP1 PUSH1 0xFF MUL NOT AND SWAP1 SSTORE PUSH1 0xA DUP3 ADD PUSH0 SWAP1 SSTORE POP POP POP PUSH2 0x42C9 JUMP JUMPDEST POP DUP1 DUP1 PUSH1 0x1 ADD SWAP2 POP POP PUSH2 0x3F0F JUMP JUMPDEST POP POP POP POP POP JUMP JUMPDEST PUSH0 DUP1 DUP4 DUP1 MLOAD SWAP1 PUSH1 0x20 ADD KECCAK256 SWAP1 POP PUSH0 DUP4 DUP1 MLOAD SWAP1 PUSH1 0x20 ADD KECCAK256 SWAP1 POP DUP1 DUP3 EQ SWAP3 POP POP POP SWAP3 SWAP2 POP POP JUMP JUMPDEST PUSH1 0x40 MLOAD DUP1 PUSH2 0x160 ADD PUSH1 0x40 MSTORE DUP1 PUSH0 DUP2 MSTORE PUSH1 0x20 ADD PUSH1 0x60 DUP2 MSTORE PUSH1 0x20 ADD PUSH1 0x60 DUP2 MSTORE PUSH1 0x20 ADD PUSH1 0x60 DUP2 MSTORE PUSH1 0x20 ADD PUSH0 DUP2 MSTORE PUSH1 0x20 ADD PUSH0 PUSH20 0xFFFFFFFFFFFFFFFFFFFFFFFFFFFFFFFFFFFFFFFF AND DUP2 MSTORE PUSH1 0x20 ADD PUSH1 0x60 DUP2 MSTORE PUSH1 0x20 ADD PUSH0 DUP2 MSTORE PUSH1 0x20 ADD PUSH1 0x60 DUP2 MSTORE PUSH1 0x20 ADD PUSH0 PUSH1 0x3 DUP2 GT ISZERO PUSH2 0x4364 JUMPI PUSH2 0x4363 PUSH2 0x459A JUMP JUMPDEST JUMPDEST DUP2 MSTORE PUSH1 0x20 ADD PUSH0 DUP2 MSTORE POP SWAP1 JUMP JUMPDEST POP DUP1 SLOAD PUSH2 0x437C SWAP1 PUSH2 0x4E72 JUMP JUMPDEST PUSH0 DUP3 SSTORE DUP1 PUSH1 0x1F LT PUSH2 0x438D JUMPI POP PUSH2 0x43AA JUMP JUMPDEST PUSH1 0x1F ADD PUSH1 0x20 SWAP1 DIV SWAP1 PUSH0 MSTORE PUSH1 0x20 PUSH0 KECCAK256 SWAP1 DUP2 ADD SWAP1 PUSH2 0x43A9 SWAP2 SWAP1 PUSH2 0x43AD JUMP JUMPDEST JUMPDEST POP JUMP JUMPDEST JUMPDEST DUP1 DUP3 GT ISZERO PUSH2 0x43C4 JUMPI PUSH0 DUP2 PUSH0 SWAP1 SSTORE POP PUSH1 0x1 ADD PUSH2 0x43AE JUMP JUMPDEST POP SWAP1 JUMP JUMPDEST PUSH0 PUSH1 0x40 MLOAD SWAP1 POP SWAP1 JUMP JUMPDEST PUSH0 DUP1 REVERT JUMPDEST PUSH0 DUP1 REVERT JUMPDEST PUSH0 PUSH20 0xFFFFFFFFFFFFFFFFFFFFFFFFFFFFFFFFFFFFFFFF DUP3 AND SWAP1 POP SWAP2 SWAP1 POP JUMP JUMPDEST PUSH0 PUSH2 0x4402 DUP3 PUSH2 0x43D9 JUMP JUMPDEST SWAP1 POP SWAP2 SWAP1 POP JUMP JUMPDEST PUSH2 0x4412 DUP2 PUSH2 0x43F8 JUMP JUMPDEST DUP2 EQ PUSH2 0x441C JUMPI PUSH0 DUP1 REVERT JUMPDEST POP JUMP JUMPDEST PUSH0 DUP2 CALLDATALOAD SWAP1 POP PUSH2 0x442D DUP2 PUSH2 0x4409 JUMP JUMPDEST SWAP3 SWAP2 POP POP JUMP JUMPDEST PUSH0 PUSH1 0x20 DUP3 DUP5 SUB SLT ISZERO PUSH2 0x4448 JUMPI PUSH2 0x4447 PUSH2 0x43D1 JUMP JUMPDEST JUMPDEST PUSH0 PUSH2 0x4455 DUP5 DUP3 DUP6 ADD PUSH2 0x441F JUMP JUMPDEST SWAP2 POP POP SWAP3 SWAP2 POP POP JUMP JUMPDEST PUSH2 0x4467 DUP2 PUSH2 0x43F8 JUMP JUMPDEST DUP3 MSTORE POP POP JUMP JUMPDEST PUSH0 PUSH1 0x20 DUP3 ADD SWAP1 POP PUSH2 0x4480 PUSH0 DUP4 ADD DUP5 PUSH2 0x445E JUMP JUMPDEST SWAP3 SWAP2 POP POP JUMP JUMPDEST PUSH0 DUP2 SWAP1 POP SWAP2 SWAP1 POP JUMP JUMPDEST PUSH2 0x4498 DUP2 PUSH2 0x4486 JUMP JUMPDEST DUP3 MSTORE POP POP JUMP JUMPDEST PUSH0 PUSH1 0x20 DUP3 ADD SWAP1 POP PUSH2 0x44B1 PUSH0 DUP4 ADD DUP5 PUSH2 0x448F JUMP JUMPDEST SWAP3 SWAP2 POP POP JUMP JUMPDEST PUSH2 0x44C0 DUP2 PUSH2 0x4486 JUMP JUMPDEST DUP2 EQ PUSH2 0x44CA JUMPI PUSH0 DUP1 REVERT JUMPDEST POP JUMP JUMPDEST PUSH0 DUP2 CALLDATALOAD SWAP1 POP PUSH2 0x44DB DUP2 PUSH2 0x44B7 JUMP JUMPDEST SWAP3 SWAP2 POP POP JUMP JUMPDEST PUSH0 PUSH1 0x20 DUP3 DUP5 SUB SLT ISZERO PUSH2 0x44F6 JUMPI PUSH2 0x44F5 PUSH2 0x43D1 JUMP JUMPDEST JUMPDEST PUSH0 PUSH2 0x4503 DUP5 DUP3 DUP6 ADD PUSH2 0x44CD JUMP JUMPDEST SWAP2 POP POP SWAP3 SWAP2 POP POP JUMP JUMPDEST PUSH2 0x4515 DUP2 PUSH2 0x4486 JUMP JUMPDEST DUP3 MSTORE POP POP JUMP JUMPDEST PUSH0 DUP2 MLOAD SWAP1 POP SWAP2 SWAP1 POP JUMP JUMPDEST PUSH0 DUP3 DUP3 MSTORE PUSH1 0x20 DUP3 ADD SWAP1 POP SWAP3 SWAP2 POP POP JUMP JUMPDEST DUP3 DUP2 DUP4 MCOPY PUSH0 DUP4 DUP4 ADD MSTORE POP POP POP JUMP JUMPDEST PUSH0 PUSH1 0x1F NOT PUSH1 0x1F DUP4 ADD AND SWAP1 POP SWAP2 SWAP1 POP JUMP JUMPDEST PUSH0 PUSH2 0x455D DUP3 PUSH2 0x451B JUMP JUMPDEST PUSH2 0x4567 DUP2 DUP6 PUSH2 0x4525 JUMP JUMPDEST SWAP4 POP PUSH2 0x4577 DUP2 DUP6 PUSH1 0x20 DUP7 ADD PUSH2 0x4535 JUMP JUMPDEST PUSH2 0x4580 DUP2 PUSH2 0x4543 JUMP JUMPDEST DUP5 ADD SWAP2 POP POP SWAP3 SWAP2 POP POP JUMP JUMPDEST PUSH2 0x4594 DUP2 PUSH2 0x43F8 JUMP JUMPDEST DUP3 MSTORE POP POP JUMP JUMPDEST PUSH32 0x4E487B7100000000000000000000000000000000000000000000000000000000 PUSH0 MSTORE PUSH1 0x21 PUSH1 0x4 MSTORE PUSH1 0x24 PUSH0 REVERT JUMPDEST PUSH1 0x4 DUP2 LT PUSH2 0x45D8 JUMPI PUSH2 0x45D7 PUSH2 0x459A JUMP JUMPDEST JUMPDEST POP JUMP JUMPDEST PUSH0 DUP2 SWAP1 POP PUSH2 0x45E8 DUP3 PUSH2 0x45C7 JUMP JUMPDEST SWAP2 SWAP1 POP JUMP JUMPDEST PUSH0 PUSH2 0x45F7 DUP3 PUSH2 0x45DB JUMP JUMPDEST SWAP1 POP SWAP2 SWAP1 POP JUMP JUMPDEST PUSH2 0x4607 DUP2 PUSH2 0x45ED JUMP JUMPDEST DUP3 MSTORE POP POP JUMP JUMPDEST PUSH0 PUSH2 0x160 DUP4 ADD PUSH0 DUP4 ADD MLOAD PUSH2 0x4623 PUSH0 DUP7 ADD DUP3 PUSH2 0x450C JUMP JUMPDEST POP PUSH1 0x20 DUP4 ADD MLOAD DUP5 DUP3 SUB PUSH1 0x20 DUP7 ADD MSTORE PUSH2 0x463B DUP3 DUP3 PUSH2 0x4553 JUMP JUMPDEST SWAP2 POP POP PUSH1 0x40 DUP4 ADD MLOAD DUP5 DUP3 SUB PUSH1 0x40 DUP7 ADD MSTORE PUSH2 0x4655 DUP3 DUP3 PUSH2 0x4553 JUMP JUMPDEST SWAP2 POP POP PUSH1 0x60 DUP4 ADD MLOAD DUP5 DUP3 SUB PUSH1 0x60 DUP7 ADD MSTORE PUSH2 0x466F DUP3 DUP3 PUSH2 0x4553 JUMP JUMPDEST SWAP2 POP POP PUSH1 0x80 DUP4 ADD MLOAD PUSH2 0x4684 PUSH1 0x80 DUP7 ADD DUP3 PUSH2 0x450C JUMP JUMPDEST POP PUSH1 0xA0 DUP4 ADD MLOAD PUSH2 0x4697 PUSH1 0xA0 DUP7 ADD DUP3 PUSH2 0x458B JUMP JUMPDEST POP PUSH1 0xC0 DUP4 ADD MLOAD DUP5 DUP3 SUB PUSH1 0xC0 DUP7 ADD MSTORE PUSH2 0x46AF DUP3 DUP3 PUSH2 0x4553 JUMP JUMPDEST SWAP2 POP POP PUSH1 0xE0 DUP4 ADD MLOAD PUSH2 0x46C4 PUSH1 0xE0 DUP7 ADD DUP3 PUSH2 0x450C JUMP JUMPDEST POP PUSH2 0x100 DUP4 ADD MLOAD DUP5 DUP3 SUB PUSH2 0x100 DUP7 ADD MSTORE PUSH2 0x46DE DUP3 DUP3 PUSH2 0x4553 JUMP JUMPDEST SWAP2 POP POP PUSH2 0x120 DUP4 ADD MLOAD PUSH2 0x46F5 PUSH2 0x120 DUP7 ADD DUP3 PUSH2 0x45FE JUMP JUMPDEST POP PUSH2 0x140 DUP4 ADD MLOAD PUSH2 0x470A PUSH2 0x140 DUP7 ADD DUP3 PUSH2 0x450C JUMP JUMPDEST POP DUP1 SWAP2 POP POP SWAP3 SWAP2 POP POP JUMP JUMPDEST PUSH0 PUSH1 0x20 DUP3 ADD SWAP1 POP DUP2 DUP2 SUB PUSH0 DUP4 ADD MSTORE PUSH2 0x472D DUP2 DUP5 PUSH2 0x460D JUMP JUMPDEST SWAP1 POP SWAP3 SWAP2 POP POP JUMP JUMPDEST PUSH1 0x2 DUP2 LT PUSH2 0x4746 JUMPI PUSH2 0x4745 PUSH2 0x459A JUMP JUMPDEST JUMPDEST POP JUMP JUMPDEST PUSH0 DUP2 SWAP1 POP PUSH2 0x4756 DUP3 PUSH2 0x4735 JUMP JUMPDEST SWAP2 SWAP1 POP JUMP JUMPDEST PUSH0 PUSH2 0x4765 DUP3 PUSH2 0x4749 JUMP JUMPDEST SWAP1 POP SWAP2 SWAP1 POP JUMP JUMPDEST PUSH2 0x4775 DUP2 PUSH2 0x475B JUMP JUMPDEST DUP3 MSTORE POP POP JUMP JUMPDEST PUSH0 PUSH1 0x80 DUP3 ADD SWAP1 POP PUSH2 0x478E PUSH0 DUP4 ADD DUP8 PUSH2 0x448F JUMP JUMPDEST PUSH2 0x479B PUSH1 0x20 DUP4 ADD DUP7 PUSH2 0x448F JUMP JUMPDEST PUSH2 0x47A8 PUSH1 0x40 DUP4 ADD DUP6 PUSH2 0x448F JUMP JUMPDEST PUSH2 0x47B5 PUSH1 0x60 DUP4 ADD DUP5 PUSH2 0x476C JUMP JUMPDEST SWAP6 SWAP5 POP POP POP POP POP JUMP JUMPDEST PUSH0 DUP2 MLOAD SWAP1 POP SWAP2 SWAP1 POP JUMP JUMPDEST PUSH0 DUP3 DUP3 MSTORE PUSH1 0x20 DUP3 ADD SWAP1 POP SWAP3 SWAP2 POP POP JUMP JUMPDEST PUSH0 DUP2 SWAP1 POP PUSH1 0x20 DUP3 ADD SWAP1 POP SWAP2 SWAP1 POP JUMP JUMPDEST PUSH0 PUSH2 0x160 DUP4 ADD PUSH0 DUP4 ADD MLOAD PUSH2 0x47FD PUSH0 DUP7 ADD DUP3 PUSH2 0x450C JUMP JUMPDEST POP PUSH1 0x20 DUP4 ADD MLOAD DUP5 DUP3 SUB PUSH1 0x20 DUP7 ADD MSTORE PUSH2 0x4815 DUP3 DUP3 PUSH2 0x4553 JUMP JUMPDEST SWAP2 POP POP PUSH1 0x40 DUP4 ADD MLOAD DUP5 DUP3 SUB PUSH1 0x40 DUP7 ADD MSTORE PUSH2 0x482F DUP3 DUP3 PUSH2 0x4553 JUMP JUMPDEST SWAP2 POP POP PUSH1 0x60 DUP4 ADD MLOAD DUP5 DUP3 SUB PUSH1 0x60 DUP7 ADD MSTORE PUSH2 0x4849 DUP3 DUP3 PUSH2 0x4553 JUMP JUMPDEST SWAP2 POP POP PUSH1 0x80 DUP4 ADD MLOAD PUSH2 0x485E PUSH1 0x80 DUP7 ADD DUP3 PUSH2 0x450C JUMP JUMPDEST POP PUSH1 0xA0 DUP4 ADD MLOAD PUSH2 0x4871 PUSH1 0xA0 DUP7 ADD DUP3 PUSH2 0x458B JUMP JUMPDEST POP PUSH1 0xC0 DUP4 ADD MLOAD DUP5 DUP3 SUB PUSH1 0xC0 DUP7 ADD MSTORE PUSH2 0x4889 DUP3 DUP3 PUSH2 0x4553 JUMP JUMPDEST SWAP2 POP POP PUSH1 0xE0 DUP4 ADD MLOAD PUSH2 0x489E PUSH1 0xE0 DUP7 ADD DUP3 PUSH2 0x450C JUMP JUMPDEST POP PUSH2 0x100 DUP4 ADD MLOAD DUP5 DUP3 SUB PUSH2 0x100 DUP7 ADD MSTORE PUSH2 0x48B8 DUP3 DUP3 PUSH2 0x4553 JUMP JUMPDEST SWAP2 POP POP PUSH2 0x120 DUP4 ADD MLOAD PUSH2 0x48CF PUSH2 0x120 DUP7 ADD DUP3 PUSH2 0x45FE JUMP JUMPDEST POP PUSH2 0x140 DUP4 ADD MLOAD PUSH2 0x48E4 PUSH2 0x140 DUP7 ADD DUP3 PUSH2 0x450C JUMP JUMPDEST POP DUP1 SWAP2 POP POP SWAP3 SWAP2 POP POP JUMP JUMPDEST PUSH0 PUSH2 0x48FA DUP4 DUP4 PUSH2 0x47E7 JUMP JUMPDEST SWAP1 POP SWAP3 SWAP2 POP POP JUMP JUMPDEST PUSH0 PUSH1 0x20 DUP3 ADD SWAP1 POP SWAP2 SWAP1 POP JUMP JUMPDEST PUSH0 PUSH2 0x4918 DUP3 PUSH2 0x47BE JUMP JUMPDEST PUSH2 0x4922 DUP2 DUP6 PUSH2 0x47C8 JUMP JUMPDEST SWAP4 POP DUP4 PUSH1 0x20 DUP3 MUL DUP6 ADD PUSH2 0x4934 DUP6 PUSH2 0x47D8 JUMP JUMPDEST DUP1 PUSH0 JUMPDEST DUP6 DUP2 LT ISZERO PUSH2 0x496F JUMPI DUP5 DUP5 SUB DUP10 MSTORE DUP2 MLOAD PUSH2 0x4950 DUP6 DUP3 PUSH2 0x48EF JUMP JUMPDEST SWAP5 POP PUSH2 0x495B DUP4 PUSH2 0x4902 JUMP JUMPDEST SWAP3 POP PUSH1 0x20 DUP11 ADD SWAP10 POP POP PUSH1 0x1 DUP2 ADD SWAP1 POP PUSH2 0x4937 JUMP JUMPDEST POP DUP3 SWAP8 POP DUP8 SWAP6 POP POP POP POP POP POP SWAP3 SWAP2 POP POP JUMP JUMPDEST PUSH0 PUSH1 0x20 DUP3 ADD SWAP1 POP DUP2 DUP2 SUB PUSH0 DUP4 ADD MSTORE PUSH2 0x4999 DUP2 DUP5 PUSH2 0x490E JUMP JUMPDEST SWAP1 POP SWAP3 SWAP2 POP POP JUMP JUMPDEST PUSH0 DUP1 REVERT JUMPDEST PUSH0 DUP1 REVERT JUMPDEST PUSH32 0x4E487B7100000000000000000000000000000000000000000000000000000000 PUSH0 MSTORE PUSH1 0x41 PUSH1 0x4 MSTORE PUSH1 0x24 PUSH0 REVERT JUMPDEST PUSH2 0x49DF DUP3 PUSH2 0x4543 JUMP JUMPDEST DUP2 ADD DUP2 DUP2 LT PUSH8 0xFFFFFFFFFFFFFFFF DUP3 GT OR ISZERO PUSH2 0x49FE JUMPI PUSH2 0x49FD PUSH2 0x49A9 JUMP JUMPDEST JUMPDEST DUP1 PUSH1 0x40 MSTORE POP POP POP JUMP JUMPDEST PUSH0 PUSH2 0x4A10 PUSH2 0x43C8 JUMP JUMPDEST SWAP1 POP PUSH2 0x4A1C DUP3 DUP3 PUSH2 0x49D6 JUMP JUMPDEST SWAP2 SWAP1 POP JUMP JUMPDEST PUSH0 PUSH8 0xFFFFFFFFFFFFFFFF DUP3 GT ISZERO PUSH2 0x4A3B JUMPI PUSH2 0x4A3A PUSH2 0x49A9 JUMP JUMPDEST JUMPDEST PUSH2 0x4A44 DUP3 PUSH2 0x4543 JUMP JUMPDEST SWAP1 POP PUSH1 0x20 DUP2 ADD SWAP1 POP SWAP2 SWAP1 POP JUMP JUMPDEST DUP3 DUP2 DUP4 CALLDATACOPY PUSH0 DUP4 DUP4 ADD MSTORE POP POP POP JUMP JUMPDEST PUSH0 PUSH2 0x4A71 PUSH2 0x4A6C DUP5 PUSH2 0x4A21 JUMP JUMPDEST PUSH2 0x4A07 JUMP JUMPDEST SWAP1 POP DUP3 DUP2 MSTORE PUSH1 0x20 DUP2 ADD DUP5 DUP5 DUP5 ADD GT ISZERO PUSH2 0x4A8D JUMPI PUSH2 0x4A8C PUSH2 0x49A5 JUMP JUMPDEST JUMPDEST PUSH2 0x4A98 DUP5 DUP3 DUP6 PUSH2 0x4A51 JUMP JUMPDEST POP SWAP4 SWAP3 POP POP POP JUMP JUMPDEST PUSH0 DUP3 PUSH1 0x1F DUP4 ADD SLT PUSH2 0x4AB4 JUMPI PUSH2 0x4AB3 PUSH2 0x49A1 JUMP JUMPDEST JUMPDEST DUP2 CALLDATALOAD PUSH2 0x4AC4 DUP5 DUP3 PUSH1 0x20 DUP7 ADD PUSH2 0x4A5F JUMP JUMPDEST SWAP2 POP POP SWAP3 SWAP2 POP POP JUMP JUMPDEST PUSH0 DUP1 PUSH0 DUP1 PUSH0 DUP1 PUSH0 PUSH1 0xE0 DUP9 DUP11 SUB SLT ISZERO PUSH2 0x4AE8 JUMPI PUSH2 0x4AE7 PUSH2 0x43D1 JUMP JUMPDEST JUMPDEST PUSH0 DUP9 ADD CALLDATALOAD PUSH8 0xFFFFFFFFFFFFFFFF DUP2 GT ISZERO PUSH2 0x4B05 JUMPI PUSH2 0x4B04 PUSH2 0x43D5 JUMP JUMPDEST JUMPDEST PUSH2 0x4B11 DUP11 DUP3 DUP12 ADD PUSH2 0x4AA0 JUMP JUMPDEST SWAP8 POP POP PUSH1 0x20 DUP9 ADD CALLDATALOAD PUSH8 0xFFFFFFFFFFFFFFFF DUP2 GT ISZERO PUSH2 0x4B32 JUMPI PUSH2 0x4B31 PUSH2 0x43D5 JUMP JUMPDEST JUMPDEST PUSH2 0x4B3E DUP11 DUP3 DUP12 ADD PUSH2 0x4AA0 JUMP JUMPDEST SWAP7 POP POP PUSH1 0x40 DUP9 ADD CALLDATALOAD PUSH8 0xFFFFFFFFFFFFFFFF DUP2 GT ISZERO PUSH2 0x4B5F JUMPI PUSH2 0x4B5E PUSH2 0x43D5 JUMP JUMPDEST JUMPDEST PUSH2 0x4B6B DUP11 DUP3 DUP12 ADD PUSH2 0x4AA0 JUMP JUMPDEST SWAP6 POP POP PUSH1 0x60 PUSH2 0x4B7C DUP11 DUP3 DUP12 ADD PUSH2 0x44CD JUMP JUMPDEST SWAP5 POP POP PUSH1 0x80 DUP9 ADD CALLDATALOAD PUSH8 0xFFFFFFFFFFFFFFFF DUP2 GT ISZERO PUSH2 0x4B9D JUMPI PUSH2 0x4B9C PUSH2 0x43D5 JUMP JUMPDEST JUMPDEST PUSH2 0x4BA9 DUP11 DUP3 DUP12 ADD PUSH2 0x4AA0 JUMP JUMPDEST SWAP4 POP POP PUSH1 0xA0 PUSH2 0x4BBA DUP11 DUP3 DUP12 ADD PUSH2 0x44CD JUMP JUMPDEST SWAP3 POP POP PUSH1 0xC0 DUP9 ADD CALLDATALOAD PUSH8 0xFFFFFFFFFFFFFFFF DUP2 GT ISZERO PUSH2 0x4BDB JUMPI PUSH2 0x4BDA PUSH2 0x43D5 JUMP JUMPDEST JUMPDEST PUSH2 0x4BE7 DUP11 DUP3 DUP12 ADD PUSH2 0x4AA0 JUMP JUMPDEST SWAP2 POP POP SWAP3 SWAP6 SWAP9 SWAP2 SWAP5 SWAP8 POP SWAP3 SWAP6 POP JUMP JUMPDEST PUSH0 DUP1 PUSH0 DUP1 PUSH0 PUSH1 0xA0 DUP7 DUP9 SUB SLT ISZERO PUSH2 0x4C0F JUMPI PUSH2 0x4C0E PUSH2 0x43D1 JUMP JUMPDEST JUMPDEST PUSH0 PUSH2 0x4C1C DUP9 DUP3 DUP10 ADD PUSH2 0x44CD JUMP JUMPDEST SWAP6 POP POP PUSH1 0x20 DUP7 ADD CALLDATALOAD PUSH8 0xFFFFFFFFFFFFFFFF DUP2 GT ISZERO PUSH2 0x4C3D JUMPI PUSH2 0x4C3C PUSH2 0x43D5 JUMP JUMPDEST JUMPDEST PUSH2 0x4C49 DUP9 DUP3 DUP10 ADD PUSH2 0x4AA0 JUMP JUMPDEST SWAP5 POP POP PUSH1 0x40 DUP7 ADD CALLDATALOAD PUSH8 0xFFFFFFFFFFFFFFFF DUP2 GT ISZERO PUSH2 0x4C6A JUMPI PUSH2 0x4C69 PUSH2 0x43D5 JUMP JUMPDEST JUMPDEST PUSH2 0x4C76 DUP9 DUP3 DUP10 ADD PUSH2 0x4AA0 JUMP JUMPDEST SWAP4 POP POP PUSH1 0x60 DUP7 ADD CALLDATALOAD PUSH8 0xFFFFFFFFFFFFFFFF DUP2 GT ISZERO PUSH2 0x4C97 JUMPI PUSH2 0x4C96 PUSH2 0x43D5 JUMP JUMPDEST JUMPDEST PUSH2 0x4CA3 DUP9 DUP3 DUP10 ADD PUSH2 0x4AA0 JUMP JUMPDEST SWAP3 POP POP PUSH1 0x80 DUP7 ADD CALLDATALOAD PUSH8 0xFFFFFFFFFFFFFFFF DUP2 GT ISZERO PUSH2 0x4CC4 JUMPI PUSH2 0x4CC3 PUSH2 0x43D5 JUMP JUMPDEST JUMPDEST PUSH2 0x4CD0 DUP9 DUP3 DUP10 ADD PUSH2 0x4AA0 JUMP JUMPDEST SWAP2 POP POP SWAP3 SWAP6 POP SWAP3 SWAP6 SWAP1 SWAP4 POP JUMP JUMPDEST PUSH0 DUP2 ISZERO ISZERO SWAP1 POP SWAP2 SWAP1 POP JUMP JUMPDEST PUSH2 0x4CF1 DUP2 PUSH2 0x4CDD JUMP JUMPDEST DUP3 MSTORE POP POP JUMP JUMPDEST PUSH0 PUSH1 0x20 DUP3 ADD SWAP1 POP PUSH2 0x4D0A PUSH0 DUP4 ADD DUP5 PUSH2 0x4CE8 JUMP JUMPDEST SWAP3 SWAP2 POP POP JUMP JUMPDEST PUSH2 0x4D19 DUP2 PUSH2 0x4CDD JUMP JUMPDEST DUP2 EQ PUSH2 0x4D23 JUMPI PUSH0 DUP1 REVERT JUMPDEST POP JUMP JUMPDEST PUSH0 DUP2 MLOAD SWAP1 POP PUSH2 0x4D34 DUP2 PUSH2 0x4D10 JUMP JUMPDEST SWAP3 SWAP2 POP POP JUMP JUMPDEST PUSH0 PUSH1 0x20 DUP3 DUP5 SUB SLT ISZERO PUSH2 0x4D4F JUMPI PUSH2 0x4D4E PUSH2 0x43D1 JUMP JUMPDEST JUMPDEST PUSH0 PUSH2 0x4D5C DUP5 DUP3 DUP6 ADD PUSH2 0x4D26 JUMP JUMPDEST SWAP2 POP POP SWAP3 SWAP2 POP POP JUMP JUMPDEST PUSH0 DUP3 DUP3 MSTORE PUSH1 0x20 DUP3 ADD SWAP1 POP SWAP3 SWAP2 POP POP JUMP JUMPDEST PUSH32 0x4F6E6C79204F776E657220686176652061207065726D697373696F6E2E000000 PUSH0 DUP3 ADD MSTORE POP JUMP JUMPDEST PUSH0 PUSH2 0x4DA9 PUSH1 0x1D DUP4 PUSH2 0x4D65 JUMP JUMPDEST SWAP2 POP PUSH2 0x4DB4 DUP3 PUSH2 0x4D75 JUMP JUMPDEST PUSH1 0x20 DUP3 ADD SWAP1 POP SWAP2 SWAP1 POP JUMP JUMPDEST PUSH0 PUSH1 0x20 DUP3 ADD SWAP1 POP DUP2 DUP2 SUB PUSH0 DUP4 ADD MSTORE PUSH2 0x4DD6 DUP2 PUSH2 0x4D9D JUMP JUMPDEST SWAP1 POP SWAP2 SWAP1 POP JUMP JUMPDEST PUSH32 0x496E76616C696420696400000000000000000000000000000000000000000000 PUSH0 DUP3 ADD MSTORE POP JUMP JUMPDEST PUSH0 PUSH2 0x4E11 PUSH1 0xA DUP4 PUSH2 0x4D65 JUMP JUMPDEST SWAP2 POP PUSH2 0x4E1C DUP3 PUSH2 0x4DDD JUMP JUMPDEST PUSH1 0x20 DUP3 ADD SWAP1 POP SWAP2 SWAP1 POP JUMP JUMPDEST PUSH0 PUSH1 0x20 DUP3 ADD SWAP1 POP DUP2 DUP2 SUB PUSH0 DUP4 ADD MSTORE PUSH2 0x4E3E DUP2 PUSH2 0x4E05 JUMP JUMPDEST SWAP1 POP SWAP2 SWAP1 POP JUMP JUMPDEST PUSH32 0x4E487B7100000000000000000000000000000000000000000000000000000000 PUSH0 MSTORE PUSH1 0x22 PUSH1 0x4 MSTORE PUSH1 0x24 PUSH0 REVERT JUMPDEST PUSH0 PUSH1 0x2 DUP3 DIV SWAP1 POP PUSH1 0x1 DUP3 AND DUP1 PUSH2 0x4E89 JUMPI PUSH1 0x7F DUP3 AND SWAP2 POP JUMPDEST PUSH1 0x20 DUP3 LT DUP2 SUB PUSH2 0x4E9C JUMPI PUSH2 0x4E9B PUSH2 0x4E45 JUMP JUMPDEST JUMPDEST POP SWAP2 SWAP1 POP JUMP JUMPDEST PUSH32 0x4F6E6C792041646D696E20686176652061207065726D697373696F6E2E000000 PUSH0 DUP3 ADD MSTORE POP JUMP JUMPDEST PUSH0 PUSH2 0x4ED6 PUSH1 0x1D DUP4 PUSH2 0x4D65 JUMP JUMPDEST SWAP2 POP PUSH2 0x4EE1 DUP3 PUSH2 0x4EA2 JUMP JUMPDEST PUSH1 0x20 DUP3 ADD SWAP1 POP SWAP2 SWAP1 POP JUMP JUMPDEST PUSH0 PUSH1 0x20 DUP3 ADD SWAP1 POP DUP2 DUP2 SUB PUSH0 DUP4 ADD MSTORE PUSH2 0x4F03 DUP2 PUSH2 0x4ECA JUMP JUMPDEST SWAP1 POP SWAP2 SWAP1 POP JUMP JUMPDEST PUSH32 0x496E76616C696420726566657272657220616464726573730000000000000000 PUSH0 DUP3 ADD MSTORE POP JUMP JUMPDEST PUSH0 PUSH2 0x4F3E PUSH1 0x18 DUP4 PUSH2 0x4D65 JUMP JUMPDEST SWAP2 POP PUSH2 0x4F49 DUP3 PUSH2 0x4F0A JUMP JUMPDEST PUSH1 0x20 DUP3 ADD SWAP1 POP SWAP2 SWAP1 POP JUMP JUMPDEST PUSH0 PUSH1 0x20 DUP3 ADD SWAP1 POP DUP2 DUP2 SUB PUSH0 DUP4 ADD MSTORE PUSH2 0x4F6B DUP2 PUSH2 0x4F32 JUMP JUMPDEST SWAP1 POP SWAP2 SWAP1 POP JUMP JUMPDEST PUSH32 0x4E6F7420696E20496E5265766965772073746174650000000000000000000000 PUSH0 DUP3 ADD MSTORE POP JUMP JUMPDEST PUSH0 PUSH2 0x4FA6 PUSH1 0x15 DUP4 PUSH2 0x4D65 JUMP JUMPDEST SWAP2 POP PUSH2 0x4FB1 DUP3 PUSH2 0x4F72 JUMP JUMPDEST PUSH1 0x20 DUP3 ADD SWAP1 POP SWAP2 SWAP1 POP JUMP JUMPDEST PUSH0 PUSH1 0x20 DUP3 ADD SWAP1 POP DUP2 DUP2 SUB PUSH0 DUP4 ADD MSTORE PUSH2 0x4FD3 DUP2 PUSH2 0x4F9A JUMP JUMPDEST SWAP1 POP SWAP2 SWAP1 POP JUMP JUMPDEST PUSH0 PUSH1 0x40 DUP3 ADD SWAP1 POP PUSH2 0x4FED PUSH0 DUP4 ADD DUP6 PUSH2 0x445E JUMP JUMPDEST PUSH2 0x4FFA PUSH1 0x20 DUP4 ADD DUP5 PUSH2 0x448F JUMP JUMPDEST SWAP4 SWAP3 POP POP POP JUMP JUMPDEST PUSH2 0x500A DUP2 PUSH2 0x45ED JUMP JUMPDEST DUP3 MSTORE POP POP JUMP JUMPDEST PUSH0 PUSH1 0x40 DUP3 ADD SWAP1 POP PUSH2 0x5023 PUSH0 DUP4 ADD DUP6 PUSH2 0x448F JUMP JUMPDEST PUSH2 0x5030 PUSH1 0x20 DUP4 ADD DUP5 PUSH2 0x5001 JUMP JUMPDEST SWAP4 SWAP3 POP POP POP JUMP JUMPDEST PUSH0 DUP2 MLOAD SWAP1 POP PUSH2 0x5045 DUP2 PUSH2 0x44B7 JUMP JUMPDEST SWAP3 SWAP2 POP POP JUMP JUMPDEST PUSH1 0x2 DUP2 LT PUSH2 0x5057 JUMPI PUSH0 DUP1 REVERT JUMPDEST POP JUMP JUMPDEST PUSH0 DUP2 MLOAD SWAP1 POP PUSH2 0x5068 DUP2 PUSH2 0x504B JUMP JUMPDEST SWAP3 SWAP2 POP POP JUMP JUMPDEST PUSH0 DUP1 PUSH0 DUP1 PUSH1 0x80 DUP6 DUP8 SUB SLT ISZERO PUSH2 0x5086 JUMPI PUSH2 0x5085 PUSH2 0x43D1 JUMP JUMPDEST JUMPDEST PUSH0 PUSH2 0x5093 DUP8 DUP3 DUP9 ADD PUSH2 0x5037 JUMP JUMPDEST SWAP5 POP POP PUSH1 0x20 PUSH2 0x50A4 DUP8 DUP3 DUP9 ADD PUSH2 0x5037 JUMP JUMPDEST SWAP4 POP POP PUSH1 0x40 PUSH2 0x50B5 DUP8 DUP3 DUP9 ADD PUSH2 0x5037 JUMP JUMPDEST SWAP3 POP POP PUSH1 0x60 PUSH2 0x50C6 DUP8 DUP3 DUP9 ADD PUSH2 0x505A JUMP JUMPDEST SWAP2 POP POP SWAP3 SWAP6 SWAP2 SWAP5 POP SWAP3 POP JUMP JUMPDEST PUSH32 0x4E487B7100000000000000000000000000000000000000000000000000000000 PUSH0 MSTORE PUSH1 0x32 PUSH1 0x4 MSTORE PUSH1 0x24 PUSH0 REVERT JUMPDEST PUSH32 0x4E487B7100000000000000000000000000000000000000000000000000000000 PUSH0 MSTORE PUSH1 0x11 PUSH1 0x4 MSTORE PUSH1 0x24 PUSH0 REVERT JUMPDEST PUSH0 PUSH2 0x5136 DUP3 PUSH2 0x4486 JUMP JUMPDEST SWAP2 POP PUSH32 0xFFFFFFFFFFFFFFFFFFFFFFFFFFFFFFFFFFFFFFFFFFFFFFFFFFFFFFFFFFFFFFFF DUP3 SUB PUSH2 0x5168 JUMPI PUSH2 0x5167 PUSH2 0x50FF JUMP JUMPDEST JUMPDEST PUSH1 0x1 DUP3 ADD SWAP1 POP SWAP2 SWAP1 POP JUMP JUMPDEST PUSH0 PUSH1 0x40 DUP3 ADD SWAP1 POP PUSH2 0x5186 PUSH0 DUP4 ADD DUP6 PUSH2 0x445E JUMP JUMPDEST PUSH2 0x5193 PUSH1 0x20 DUP4 ADD DUP5 PUSH2 0x445E JUMP JUMPDEST SWAP4 SWAP3 POP POP POP JUMP JUMPDEST PUSH0 PUSH1 0x20 DUP3 DUP5 SUB SLT ISZERO PUSH2 0x51AF JUMPI PUSH2 0x51AE PUSH2 0x43D1 JUMP JUMPDEST JUMPDEST PUSH0 PUSH2 0x51BC DUP5 DUP3 DUP6 ADD PUSH2 0x5037 JUMP JUMPDEST SWAP2 POP POP SWAP3 SWAP2 POP POP JUMP JUMPDEST PUSH32 0x4E6F7420696E204F776E65642073746174650000000000000000000000000000 PUSH0 DUP3 ADD MSTORE POP JUMP JUMPDEST PUSH0 PUSH2 0x51F9 PUSH1 0x12 DUP4 PUSH2 0x4D65 JUMP JUMPDEST SWAP2 POP PUSH2 0x5204 DUP3 PUSH2 0x51C5 JUMP JUMPDEST PUSH1 0x20 DUP3 ADD SWAP1 POP SWAP2 SWAP1 POP JUMP JUMPDEST PUSH0 PUSH1 0x20 DUP3 ADD SWAP1 POP DUP2 DUP2 SUB PUSH0 DUP4 ADD MSTORE PUSH2 0x5226 DUP2 PUSH2 0x51ED JUMP JUMPDEST SWAP1 POP SWAP2 SWAP1 POP JUMP JUMPDEST PUSH32 0x4E6F7420656E6F75676820544F522062616C616E63652E000000000000000000 PUSH0 DUP3 ADD MSTORE POP JUMP JUMPDEST PUSH0 PUSH2 0x5261 PUSH1 0x17 DUP4 PUSH2 0x4D65 JUMP JUMPDEST SWAP2 POP PUSH2 0x526C DUP3 PUSH2 0x522D JUMP JUMPDEST PUSH1 0x20 DUP3 ADD SWAP1 POP SWAP2 SWAP1 POP JUMP JUMPDEST PUSH0 PUSH1 0x20 DUP3 ADD SWAP1 POP DUP2 DUP2 SUB PUSH0 DUP4 ADD MSTORE PUSH2 0x528E DUP2 PUSH2 0x5255 JUMP JUMPDEST SWAP1 POP SWAP2 SWAP1 POP JUMP JUMPDEST PUSH32 0x496E73756666696369656E7420616C6C6F77616E636500000000000000000000 PUSH0 DUP3 ADD MSTORE POP JUMP JUMPDEST PUSH0 PUSH2 0x52C9 PUSH1 0x16 DUP4 PUSH2 0x4D65 JUMP JUMPDEST SWAP2 POP PUSH2 0x52D4 DUP3 PUSH2 0x5295 JUMP JUMPDEST PUSH1 0x20 DUP3 ADD SWAP1 POP SWAP2 SWAP1 POP JUMP JUMPDEST PUSH0 PUSH1 0x20 DUP3 ADD SWAP1 POP DUP2 DUP2 SUB PUSH0 DUP4 ADD MSTORE PUSH2 0x52F6 DUP2 PUSH2 0x52BD JUMP JUMPDEST SWAP1 POP SWAP2 SWAP1 POP JUMP JUMPDEST PUSH32 0x416C726561647920696E20726576696577000000000000000000000000000000 PUSH0 DUP3 ADD MSTORE POP JUMP JUMPDEST PUSH0 PUSH2 0x5331 PUSH1 0x11 DUP4 PUSH2 0x4D65 JUMP JUMPDEST SWAP2 POP PUSH2 0x533C DUP3 PUSH2 0x52FD JUMP JUMPDEST PUSH1 0x20 DUP3 ADD SWAP1 POP SWAP2 SWAP1 POP JUMP JUMPDEST PUSH0 PUSH1 0x20 DUP3 ADD SWAP1 POP DUP2 DUP2 SUB PUSH0 DUP4 ADD MSTORE PUSH2 0x535E DUP2 PUSH2 0x5325 JUMP JUMPDEST SWAP1 POP SWAP2 SWAP1 POP JUMP JUMPDEST PUSH0 PUSH1 0x60 DUP3 ADD SWAP1 POP PUSH2 0x5378 PUSH0 DUP4 ADD DUP7 PUSH2 0x445E JUMP JUMPDEST PUSH2 0x5385 PUSH1 0x20 DUP4 ADD DUP6 PUSH2 0x445E JUMP JUMPDEST PUSH2 0x5392 PUSH1 0x40 DUP4 ADD DUP5 PUSH2 0x448F JUMP JUMPDEST SWAP5 SWAP4 POP POP POP POP JUMP JUMPDEST PUSH0 PUSH2 0x53A4 DUP3 PUSH2 0x4486 JUMP JUMPDEST SWAP2 POP PUSH2 0x53AF DUP4 PUSH2 0x4486 JUMP JUMPDEST SWAP3 POP DUP3 DUP3 ADD SWAP1 POP DUP1 DUP3 GT ISZERO PUSH2 0x53C7 JUMPI PUSH2 0x53C6 PUSH2 0x50FF JUMP JUMPDEST JUMPDEST SWAP3 SWAP2 POP POP JUMP JUMPDEST PUSH0 DUP2 SWAP1 POP DUP2 PUSH0 MSTORE PUSH1 0x20 PUSH0 KECCAK256 SWAP1 POP SWAP2 SWAP1 POP JUMP JUMPDEST PUSH0 PUSH1 0x20 PUSH1 0x1F DUP4 ADD DIV SWAP1 POP SWAP2 SWAP1 POP JUMP JUMPDEST PUSH0 DUP3 DUP3 SHL SWAP1 POP SWAP3 SWAP2 POP POP JUMP JUMPDEST PUSH0 PUSH1 0x8 DUP4 MUL PUSH2 0x5429 PUSH32 0xFFFFFFFFFFFFFFFFFFFFFFFFFFFFFFFFFFFFFFFFFFFFFFFFFFFFFFFFFFFFFFFF DUP3 PUSH2 0x53EE JUMP JUMPDEST PUSH2 0x5433 DUP7 DUP4 PUSH2 0x53EE JUMP JUMPDEST SWAP6 POP DUP1 NOT DUP5 AND SWAP4 POP DUP1 DUP7 AND DUP5 OR SWAP3 POP POP POP SWAP4 SWAP3 POP POP POP JUMP JUMPDEST PUSH0 DUP2 SWAP1 POP SWAP2 SWAP1 POP JUMP JUMPDEST PUSH0 PUSH2 0x546E PUSH2 0x5469 PUSH2 0x5464 DUP5 PUSH2 0x4486 JUMP JUMPDEST PUSH2 0x544B JUMP JUMPDEST PUSH2 0x4486 JUMP JUMPDEST SWAP1 POP SWAP2 SWAP1 POP JUMP JUMPDEST PUSH0 DUP2 SWAP1 POP SWAP2 SWAP1 POP JUMP JUMPDEST PUSH2 0x5487 DUP4 PUSH2 0x5454 JUMP JUMPDEST PUSH2 0x549B PUSH2 0x5493 DUP3 PUSH2 0x5475 JUMP JUMPDEST DUP5 DUP5 SLOAD PUSH2 0x53FA JUMP JUMPDEST DUP3 SSTORE POP POP POP POP JUMP JUMPDEST PUSH0 SWAP1 JUMP JUMPDEST PUSH2 0x54AF PUSH2 0x54A3 JUMP JUMPDEST PUSH2 0x54BA DUP2 DUP5 DUP5 PUSH2 0x547E JUMP JUMPDEST POP POP POP JUMP JUMPDEST JUMPDEST DUP2 DUP2 LT ISZERO PUSH2 0x54DD JUMPI PUSH2 0x54D2 PUSH0 DUP3 PUSH2 0x54A7 JUMP JUMPDEST PUSH1 0x1 DUP2 ADD SWAP1 POP PUSH2 0x54C0 JUMP JUMPDEST POP POP JUMP JUMPDEST PUSH1 0x1F DUP3 GT ISZERO PUSH2 0x5522 JUMPI PUSH2 0x54F3 DUP2 PUSH2 0x53CD JUMP JUMPDEST PUSH2 0x54FC DUP5 PUSH2 0x53DF JUMP JUMPDEST DUP2 ADD PUSH1 0x20 DUP6 LT ISZERO PUSH2 0x550B JUMPI DUP2 SWAP1 POP JUMPDEST PUSH2 0x551F PUSH2 0x5517 DUP6 PUSH2 0x53DF JUMP JUMPDEST DUP4 ADD DUP3 PUSH2 0x54BF JUMP JUMPDEST POP POP JUMPDEST POP POP POP JUMP JUMPDEST PUSH0 DUP3 DUP3 SHR SWAP1 POP SWAP3 SWAP2 POP POP JUMP JUMPDEST PUSH0 PUSH2 0x5542 PUSH0 NOT DUP5 PUSH1 0x8 MUL PUSH2 0x5527 JUMP JUMPDEST NOT DUP1 DUP4 AND SWAP2 POP POP SWAP3 SWAP2 POP POP JUMP JUMPDEST PUSH0 PUSH2 0x555A DUP4 DUP4 PUSH2 0x5533 JUMP JUMPDEST SWAP2 POP DUP3 PUSH1 0x2 MUL DUP3 OR SWAP1 POP SWAP3 SWAP2 POP POP JUMP JUMPDEST PUSH2 0x5573 DUP3 PUSH2 0x451B JUMP JUMPDEST PUSH8 0xFFFFFFFFFFFFFFFF DUP2 GT ISZERO PUSH2 0x558C JUMPI PUSH2 0x558B PUSH2 0x49A9 JUMP JUMPDEST JUMPDEST PUSH2 0x5596 DUP3 SLOAD PUSH2 0x4E72 JUMP JUMPDEST PUSH2 0x55A1 DUP3 DUP3 DUP6 PUSH2 0x54E1 JUMP JUMPDEST PUSH0 PUSH1 0x20 SWAP1 POP PUSH1 0x1F DUP4 GT PUSH1 0x1 DUP2 EQ PUSH2 0x55D2 JUMPI PUSH0 DUP5 ISZERO PUSH2 0x55C0 JUMPI DUP3 DUP8 ADD MLOAD SWAP1 POP JUMPDEST PUSH2 0x55CA DUP6 DUP3 PUSH2 0x554F JUMP JUMPDEST DUP7 SSTORE POP PUSH2 0x5631 JUMP JUMPDEST PUSH1 0x1F NOT DUP5 AND PUSH2 0x55E0 DUP7 PUSH2 0x53CD JUMP JUMPDEST PUSH0 JUMPDEST DUP3 DUP2 LT ISZERO PUSH2 0x5607 JUMPI DUP5 DUP10 ADD MLOAD DUP3 SSTORE PUSH1 0x1 DUP3 ADD SWAP2 POP PUSH1 0x20 DUP6 ADD SWAP5 POP PUSH1 0x20 DUP2 ADD SWAP1 POP PUSH2 0x55E2 JUMP JUMPDEST DUP7 DUP4 LT ISZERO PUSH2 0x5624 JUMPI DUP5 DUP10 ADD MLOAD PUSH2 0x5620 PUSH1 0x1F DUP10 AND DUP3 PUSH2 0x5533 JUMP JUMPDEST DUP4 SSTORE POP JUMPDEST PUSH1 0x1 PUSH1 0x2 DUP9 MUL ADD DUP9 SSTORE POP POP POP JUMPDEST POP POP POP POP POP POP JUMP JUMPDEST PUSH32 0x61646472657373657320617265206E6F74206D61746368000000000000000000 PUSH0 DUP3 ADD MSTORE POP JUMP JUMPDEST PUSH0 PUSH2 0x566D PUSH1 0x17 DUP4 PUSH2 0x4D65 JUMP JUMPDEST SWAP2 POP PUSH2 0x5678 DUP3 PUSH2 0x5639 JUMP JUMPDEST PUSH1 0x20 DUP3 ADD SWAP1 POP SWAP2 SWAP1 POP JUMP JUMPDEST PUSH0 PUSH1 0x20 DUP3 ADD SWAP1 POP DUP2 DUP2 SUB PUSH0 DUP4 ADD MSTORE PUSH2 0x569A DUP2 PUSH2 0x5661 JUMP JUMPDEST SWAP1 POP SWAP2 SWAP1 POP JUMP JUMPDEST PUSH32 0x4E6F7420696E204F776E6564206F7220496E5265766965772073746174650000 PUSH0 DUP3 ADD MSTORE POP JUMP JUMPDEST PUSH0 PUSH2 0x56D5 PUSH1 0x1E DUP4 PUSH2 0x4D65 JUMP JUMPDEST SWAP2 POP PUSH2 0x56E0 DUP3 PUSH2 0x56A1 JUMP JUMPDEST PUSH1 0x20 DUP3 ADD SWAP1 POP SWAP2 SWAP1 POP JUMP JUMPDEST PUSH0 PUSH1 0x20 DUP3 ADD SWAP1 POP DUP2 DUP2 SUB PUSH0 DUP4 ADD MSTORE PUSH2 0x5702 DUP2 PUSH2 0x56C9 JUMP JUMPDEST SWAP1 POP SWAP2 SWAP1 POP JUMP JUMPDEST PUSH32 0x4174206C65617374203120544F52206973207265717569726564000000000000 PUSH0 DUP3 ADD MSTORE POP JUMP JUMPDEST PUSH0 PUSH2 0x573D PUSH1 0x1A DUP4 PUSH2 0x4D65 JUMP JUMPDEST SWAP2 POP PUSH2 0x5748 DUP3 PUSH2 0x5709 JUMP JUMPDEST PUSH1 0x20 DUP3 ADD SWAP1 POP SWAP2 SWAP1 POP JUMP JUMPDEST PUSH0 PUSH1 0x20 DUP3 ADD SWAP1 POP DUP2 DUP2 SUB PUSH0 DUP4 ADD MSTORE PUSH2 0x576A DUP2 PUSH2 0x5731 JUMP JUMPDEST SWAP1 POP SWAP2 SWAP1 POP JUMP JUMPDEST PUSH32 0x42656E65666974206F7220544F5220616D6F756E742073686F756C6420626520 PUSH0 DUP3 ADD MSTORE PUSH32 0x67726561746572207468616E2063757272656E74207468726F6E650000000000 PUSH1 0x20 DUP3 ADD MSTORE POP JUMP JUMPDEST PUSH0 PUSH2 0x57CB PUSH1 0x3B DUP4 PUSH2 0x4D65 JUMP JUMPDEST SWAP2 POP PUSH2 0x57D6 DUP3 PUSH2 0x5771 JUMP JUMPDEST PUSH1 0x40 DUP3 ADD SWAP1 POP SWAP2 SWAP1 POP JUMP JUMPDEST PUSH0 PUSH1 0x20 DUP3 ADD SWAP1 POP DUP2 DUP2 SUB PUSH0 DUP4 ADD MSTORE PUSH2 0x57F8 DUP2 PUSH2 0x57BF JUMP JUMPDEST SWAP1 POP SWAP2 SWAP1 POP JUMP JUMPDEST PUSH32 0x496E76616C696420616464726573730000000000000000000000000000000000 PUSH0 DUP3 ADD MSTORE POP JUMP JUMPDEST PUSH0 PUSH2 0x5833 PUSH1 0xF DUP4 PUSH2 0x4D65 JUMP JUMPDEST SWAP2 POP PUSH2 0x583E DUP3 PUSH2 0x57FF JUMP JUMPDEST PUSH1 0x20 DUP3 ADD SWAP1 POP SWAP2 SWAP1 POP JUMP JUMPDEST PUSH0 PUSH1 0x20 DUP3 ADD SWAP1 POP DUP2 DUP2 SUB PUSH0 DUP4 ADD MSTORE PUSH2 0x5860 DUP2 PUSH2 0x5827 JUMP JUMPDEST SWAP1 POP SWAP2 SWAP1 POP JUMP JUMPDEST PUSH32 0x496E76616C696420544F5220616D6F756E7420746F2077697468647261770000 PUSH0 DUP3 ADD MSTORE POP JUMP JUMPDEST PUSH0 PUSH2 0x589B PUSH1 0x1E DUP4 PUSH2 0x4D65 JUMP JUMPDEST SWAP2 POP PUSH2 0x58A6 DUP3 PUSH2 0x5867 JUMP JUMPDEST PUSH1 0x20 DUP3 ADD SWAP1 POP SWAP2 SWAP1 POP JUMP JUMPDEST PUSH0 PUSH1 0x20 DUP3 ADD SWAP1 POP DUP2 DUP2 SUB PUSH0 DUP4 ADD MSTORE PUSH2 0x58C8 DUP2 PUSH2 0x588F JUMP JUMPDEST SWAP1 POP SWAP2 SWAP1 POP JUMP JUMPDEST PUSH32 0x4E6F7420656E6F75676820746F74616C20544F5220616D6F756E740000000000 PUSH0 DUP3 ADD MSTORE POP JUMP JUMPDEST PUSH0 PUSH2 0x5903 PUSH1 0x1B DUP4 PUSH2 0x4D65 JUMP JUMPDEST SWAP2 POP PUSH2 0x590E DUP3 PUSH2 0x58CF JUMP JUMPDEST PUSH1 0x20 DUP3 ADD SWAP1 POP SWAP2 SWAP1 POP JUMP JUMPDEST PUSH0 PUSH1 0x20 DUP3 ADD SWAP1 POP DUP2 DUP2 SUB PUSH0 DUP4 ADD MSTORE PUSH2 0x5930 DUP2 PUSH2 0x58F7 JUMP JUMPDEST SWAP1 POP SWAP2 SWAP1 POP JUMP JUMPDEST PUSH32 0x4E6F7420656E6F75676820544F52206465706F73697465640000000000000000 PUSH0 DUP3 ADD MSTORE POP JUMP JUMPDEST PUSH0 PUSH2 0x596B PUSH1 0x18 DUP4 PUSH2 0x4D65 JUMP JUMPDEST SWAP2 POP PUSH2 0x5976 DUP3 PUSH2 0x5937 JUMP JUMPDEST PUSH1 0x20 DUP3 ADD SWAP1 POP SWAP2 SWAP1 POP JUMP JUMPDEST PUSH0 PUSH1 0x20 DUP3 ADD SWAP1 POP DUP2 DUP2 SUB PUSH0 DUP4 ADD MSTORE PUSH2 0x5998 DUP2 PUSH2 0x595F JUMP JUMPDEST SWAP1 POP SWAP2 SWAP1 POP JUMP JUMPDEST PUSH32 0x4E6F7420656E6F75676820544F522062616C616E636500000000000000000000 PUSH0 DUP3 ADD MSTORE POP JUMP JUMPDEST PUSH0 PUSH2 0x59D3 PUSH1 0x16 DUP4 PUSH2 0x4D65 JUMP JUMPDEST SWAP2 POP PUSH2 0x59DE DUP3 PUSH2 0x599F JUMP JUMPDEST PUSH1 0x20 DUP3 ADD SWAP1 POP SWAP2 SWAP1 POP JUMP JUMPDEST PUSH0 PUSH1 0x20 DUP3 ADD SWAP1 POP DUP2 DUP2 SUB PUSH0 DUP4 ADD MSTORE PUSH2 0x5A00 DUP2 PUSH2 0x59C7 JUMP JUMPDEST SWAP1 POP SWAP2 SWAP1 POP JUMP JUMPDEST PUSH0 PUSH2 0x5A11 DUP3 PUSH2 0x4486 JUMP JUMPDEST SWAP2 POP PUSH2 0x5A1C DUP4 PUSH2 0x4486 JUMP JUMPDEST SWAP3 POP DUP3 DUP3 SUB SWAP1 POP DUP2 DUP2 GT ISZERO PUSH2 0x5A34 JUMPI PUSH2 0x5A33 PUSH2 0x50FF JUMP JUMPDEST JUMPDEST SWAP3 SWAP2 POP POP JUMP JUMPDEST PUSH32 0x4E487B7100000000000000000000000000000000000000000000000000000000 PUSH0 MSTORE PUSH1 0x31 PUSH1 0x4 MSTORE PUSH1 0x24 PUSH0 REVERT INVALID LOG2 PUSH5 0x6970667358 0x22 SLT KECCAK256 SWAP2 BYTE JUMP DUP16 ORIGIN MSTORE 0xC8 0xE7 0xBD 0x2D DUP1 0xAA DUP9 PUSH23 0x1715CD54B3CE28C354BAD1FD49C4D8F003EF64736F6C63 NUMBER STOP ADDMOD NOT STOP CALLER "
    },
    "gasEstimates": {
      "creation": {
        "codeDepositCost": "4639400",
        "executionCost": "infinite",
        "totalCost": "infinite"
      },
      "external": {
        "approveThrone(uint256)": "infinite",
        "cancelThrone(uint256)": "infinite",
        "claimAllGas()": "infinite",
        "getAllOwnedThrones()": "infinite",
        "getAllThronesInReview()": "infinite",
        "getBlastPointsContractAddress()": "2625",
        "getBlastPointsOperatorAddress()": "2561",
        "getOwnedThroneCount()": "infinite",
        "getThroneById(uint256)": "infinite",
        "getThronesByAddress(address)": "infinite",
        "getTorDepositedByAddress(address)": "2896",
        "getTorTokenContractAddress()": "2604",
        "getTotalTorDeposited()": "2564",
        "getUserHistoryContractAddress()": "2603",
        "modifyThroneInReview(uint256,string,string,string,string)": "infinite",
        "readGasParams()": "infinite",
        "rejectThrone(uint256)": "infinite",
        "requestDepositForThrone(string,string,string,uint256,string,uint256,string)": "infinite",
        "setTorTokenContractAddress(address)": "infinite",
        "setUserHistoryContractAddress(address)": "infinite",
        "withdrawFromThrone(uint256)": "infinite"
      },
      "internal": {
        "_checkUsurpCondition(uint256,uint256,uint256,uint256)": "infinite",
        "_compareStrings(string memory,string memory)": "infinite",
        "_deleteLostOrRejectedThrone(address,string memory,string memory)": "infinite",
        "_deleteThrone(uint256)": "infinite",
        "_findThroneId(enum RefThrone.Status,string memory,string memory)": "infinite",
        "_getNewThroneId()": "24365",
        "_getThroneCountInStatus(enum RefThrone.Status)": "infinite",
        "_getThroneCountOfAddress(address)": "infinite",
        "_isThroneInReview(address,string memory,string memory)": "infinite",
        "_isThroneInStatus(uint256,enum RefThrone.Status)": "2320",
        "_lostThrone(uint256)": "infinite",
        "_withdraw(address,uint256)": "infinite"
      }
    },
    "methodIdentifiers": {
      "approveThrone(uint256)": "2cfebe0a",
      "cancelThrone(uint256)": "a3b6710c",
      "claimAllGas()": "645dd1fa",
      "getAllOwnedThrones()": "b762ee79",
      "getAllThronesInReview()": "5992df6b",
      "getBlastPointsContractAddress()": "e19d62b8",
      "getBlastPointsOperatorAddress()": "057d82ad",
      "getOwnedThroneCount()": "092b2410",
      "getThroneById(uint256)": "0ee524e2",
      "getThronesByAddress(address)": "9b174dc0",
      "getTorDepositedByAddress(address)": "9d443a00",
      "getTorTokenContractAddress()": "6100f951",
      "getTotalTorDeposited()": "e6c227ce",
      "getUserHistoryContractAddress()": "cdb219c5",
      "modifyThroneInReview(uint256,string,string,string,string)": "b5394d1f",
      "readGasParams()": "491ae348",
      "rejectThrone(uint256)": "4b36859e",
      "requestDepositForThrone(string,string,string,uint256,string,uint256,string)": "b0b8a591",
      "setTorTokenContractAddress(address)": "7c7a61d5",
      "setUserHistoryContractAddress(address)": "03ca540b",
      "withdrawFromThrone(uint256)": "baf54708"
    }
  },
  "abi": [
    {
      "inputs": [
        {
          "internalType": "address",
          "name": "torTokenContractAddress",
          "type": "address"
        },
        {
          "internalType": "address",
          "name": "userHistoryContractAddress",
          "type": "address"
        },
        {
          "internalType": "address",
          "name": "ownerGroupContractAddress",
          "type": "address"
        },
        {
          "internalType": "address",
          "name": "blastPointsContractAddress",
          "type": "address"
        },
        {
          "internalType": "address",
          "name": "blastPointsOperatorAddress",
          "type": "address"
        }
      ],
      "stateMutability": "nonpayable",
      "type": "constructor"
    },
    {
      "anonymous": false,
      "inputs": [
        {
          "indexed": false,
          "internalType": "uint256",
          "name": "throneId",
          "type": "uint256"
        },
        {
          "indexed": false,
          "internalType": "enum RefThrone.Status",
          "name": "status",
          "type": "uint8"
        }
      ],
      "name": "ThroneStatus",
      "type": "event"
    },
    {
      "inputs": [
        {
          "internalType": "uint256",
          "name": "throneId",
          "type": "uint256"
        }
      ],
      "name": "approveThrone",
      "outputs": [],
      "stateMutability": "nonpayable",
      "type": "function"
    },
    {
      "inputs": [
        {
          "internalType": "uint256",
          "name": "throneId",
          "type": "uint256"
        }
      ],
      "name": "cancelThrone",
      "outputs": [],
      "stateMutability": "nonpayable",
      "type": "function"
    },
    {
      "inputs": [],
      "name": "claimAllGas",
      "outputs": [],
      "stateMutability": "nonpayable",
      "type": "function"
    },
    {
      "inputs": [],
      "name": "getAllOwnedThrones",
      "outputs": [
        {
          "components": [
            {
              "internalType": "uint256",
              "name": "id",
              "type": "uint256"
            },
            {
              "internalType": "string",
              "name": "name",
              "type": "string"
            },
            {
              "internalType": "string",
              "name": "serviceType",
              "type": "string"
            },
            {
              "internalType": "string",
              "name": "benefitType",
              "type": "string"
            },
            {
              "internalType": "uint256",
              "name": "benefitAmount",
              "type": "uint256"
            },
            {
              "internalType": "address",
              "name": "referrer",
              "type": "address"
            },
            {
              "internalType": "string",
              "name": "referralCode",
              "type": "string"
            },
            {
              "internalType": "uint256",
              "name": "torAmount",
              "type": "uint256"
            },
            {
              "internalType": "string",
              "name": "linkUrl",
              "type": "string"
            },
            {
              "internalType": "enum RefThrone.Status",
              "name": "status",
              "type": "uint8"
            },
            {
              "internalType": "uint256",
              "name": "timestamp",
              "type": "uint256"
            }
          ],
          "internalType": "struct RefThrone.Throne[]",
          "name": "",
          "type": "tuple[]"
        }
      ],
      "stateMutability": "view",
      "type": "function"
    },
    {
      "inputs": [],
      "name": "getAllThronesInReview",
      "outputs": [
        {
          "components": [
            {
              "internalType": "uint256",
              "name": "id",
              "type": "uint256"
            },
            {
              "internalType": "string",
              "name": "name",
              "type": "string"
            },
            {
              "internalType": "string",
              "name": "serviceType",
              "type": "string"
            },
            {
              "internalType": "string",
              "name": "benefitType",
              "type": "string"
            },
            {
              "internalType": "uint256",
              "name": "benefitAmount",
              "type": "uint256"
            },
            {
              "internalType": "address",
              "name": "referrer",
              "type": "address"
            },
            {
              "internalType": "string",
              "name": "referralCode",
              "type": "string"
            },
            {
              "internalType": "uint256",
              "name": "torAmount",
              "type": "uint256"
            },
            {
              "internalType": "string",
              "name": "linkUrl",
              "type": "string"
            },
            {
              "internalType": "enum RefThrone.Status",
              "name": "status",
              "type": "uint8"
            },
            {
              "internalType": "uint256",
              "name": "timestamp",
              "type": "uint256"
            }
          ],
          "internalType": "struct RefThrone.Throne[]",
          "name": "",
          "type": "tuple[]"
        }
      ],
      "stateMutability": "view",
      "type": "function"
    },
    {
      "inputs": [],
      "name": "getBlastPointsContractAddress",
      "outputs": [
        {
          "internalType": "address",
          "name": "",
          "type": "address"
        }
      ],
      "stateMutability": "view",
      "type": "function"
    },
    {
      "inputs": [],
      "name": "getBlastPointsOperatorAddress",
      "outputs": [
        {
          "internalType": "address",
          "name": "",
          "type": "address"
        }
      ],
      "stateMutability": "view",
      "type": "function"
    },
    {
      "inputs": [],
      "name": "getOwnedThroneCount",
      "outputs": [
        {
          "internalType": "uint256",
          "name": "",
          "type": "uint256"
        }
      ],
      "stateMutability": "view",
      "type": "function"
    },
    {
      "inputs": [
        {
          "internalType": "uint256",
          "name": "throneId",
          "type": "uint256"
        }
      ],
      "name": "getThroneById",
      "outputs": [
        {
          "components": [
            {
              "internalType": "uint256",
              "name": "id",
              "type": "uint256"
            },
            {
              "internalType": "string",
              "name": "name",
              "type": "string"
            },
            {
              "internalType": "string",
              "name": "serviceType",
              "type": "string"
            },
            {
              "internalType": "string",
              "name": "benefitType",
              "type": "string"
            },
            {
              "internalType": "uint256",
              "name": "benefitAmount",
              "type": "uint256"
            },
            {
              "internalType": "address",
              "name": "referrer",
              "type": "address"
            },
            {
              "internalType": "string",
              "name": "referralCode",
              "type": "string"
            },
            {
              "internalType": "uint256",
              "name": "torAmount",
              "type": "uint256"
            },
            {
              "internalType": "string",
              "name": "linkUrl",
              "type": "string"
            },
            {
              "internalType": "enum RefThrone.Status",
              "name": "status",
              "type": "uint8"
            },
            {
              "internalType": "uint256",
              "name": "timestamp",
              "type": "uint256"
            }
          ],
          "internalType": "struct RefThrone.Throne",
          "name": "",
          "type": "tuple"
        }
      ],
      "stateMutability": "view",
      "type": "function"
    },
    {
      "inputs": [
        {
          "internalType": "address",
          "name": "address_",
          "type": "address"
        }
      ],
      "name": "getThronesByAddress",
      "outputs": [
        {
          "components": [
            {
              "internalType": "uint256",
              "name": "id",
              "type": "uint256"
            },
            {
              "internalType": "string",
              "name": "name",
              "type": "string"
            },
            {
              "internalType": "string",
              "name": "serviceType",
              "type": "string"
            },
            {
              "internalType": "string",
              "name": "benefitType",
              "type": "string"
            },
            {
              "internalType": "uint256",
              "name": "benefitAmount",
              "type": "uint256"
            },
            {
              "internalType": "address",
              "name": "referrer",
              "type": "address"
            },
            {
              "internalType": "string",
              "name": "referralCode",
              "type": "string"
            },
            {
              "internalType": "uint256",
              "name": "torAmount",
              "type": "uint256"
            },
            {
              "internalType": "string",
              "name": "linkUrl",
              "type": "string"
            },
            {
              "internalType": "enum RefThrone.Status",
              "name": "status",
              "type": "uint8"
            },
            {
              "internalType": "uint256",
              "name": "timestamp",
              "type": "uint256"
            }
          ],
          "internalType": "struct RefThrone.Throne[]",
          "name": "",
          "type": "tuple[]"
        }
      ],
      "stateMutability": "view",
      "type": "function"
    },
    {
      "inputs": [
        {
          "internalType": "address",
          "name": "address_",
          "type": "address"
        }
      ],
      "name": "getTorDepositedByAddress",
      "outputs": [
        {
          "internalType": "uint256",
          "name": "torAmount",
          "type": "uint256"
        }
      ],
      "stateMutability": "view",
      "type": "function"
    },
    {
      "inputs": [],
      "name": "getTorTokenContractAddress",
      "outputs": [
        {
          "internalType": "address",
          "name": "",
          "type": "address"
        }
      ],
      "stateMutability": "view",
      "type": "function"
    },
    {
      "inputs": [],
      "name": "getTotalTorDeposited",
      "outputs": [
        {
          "internalType": "uint256",
          "name": "torAmount",
          "type": "uint256"
        }
      ],
      "stateMutability": "view",
      "type": "function"
    },
    {
      "inputs": [],
      "name": "getUserHistoryContractAddress",
      "outputs": [
        {
          "internalType": "address",
          "name": "",
          "type": "address"
        }
      ],
      "stateMutability": "view",
      "type": "function"
    },
    {
      "inputs": [
        {
          "internalType": "uint256",
          "name": "throneId",
          "type": "uint256"
        },
        {
          "internalType": "string",
          "name": "name",
          "type": "string"
        },
        {
          "internalType": "string",
          "name": "serviceType",
          "type": "string"
        },
        {
          "internalType": "string",
          "name": "benefitType",
          "type": "string"
        },
        {
          "internalType": "string",
          "name": "linkUrl",
          "type": "string"
        }
      ],
      "name": "modifyThroneInReview",
      "outputs": [],
      "stateMutability": "nonpayable",
      "type": "function"
    },
    {
      "inputs": [],
      "name": "readGasParams",
      "outputs": [
        {
          "internalType": "uint256",
          "name": "etherSeconds",
          "type": "uint256"
        },
        {
          "internalType": "uint256",
          "name": "etherBalance",
          "type": "uint256"
        },
        {
          "internalType": "uint256",
          "name": "lastUpdated",
          "type": "uint256"
        },
        {
          "internalType": "enum GasMode",
          "name": "",
          "type": "uint8"
        }
      ],
      "stateMutability": "view",
      "type": "function"
    },
    {
      "inputs": [
        {
          "internalType": "uint256",
          "name": "throneId",
          "type": "uint256"
        }
      ],
      "name": "rejectThrone",
      "outputs": [],
      "stateMutability": "nonpayable",
      "type": "function"
    },
    {
      "inputs": [
        {
          "internalType": "string",
          "name": "name",
          "type": "string"
        },
        {
          "internalType": "string",
          "name": "serviceType",
          "type": "string"
        },
        {
          "internalType": "string",
          "name": "benefitType",
          "type": "string"
        },
        {
          "internalType": "uint256",
          "name": "benefitAmount",
          "type": "uint256"
        },
        {
          "internalType": "string",
          "name": "referralCode",
          "type": "string"
        },
        {
          "internalType": "uint256",
          "name": "torAmount",
          "type": "uint256"
        },
        {
          "internalType": "string",
          "name": "linkUrl",
          "type": "string"
        }
      ],
      "name": "requestDepositForThrone",
      "outputs": [
        {
          "internalType": "uint256",
          "name": "throneId",
          "type": "uint256"
        }
      ],
      "stateMutability": "nonpayable",
      "type": "function"
    },
    {
      "inputs": [
        {
          "internalType": "address",
          "name": "torTokenContractAddress",
          "type": "address"
        }
      ],
      "name": "setTorTokenContractAddress",
      "outputs": [],
      "stateMutability": "nonpayable",
      "type": "function"
    },
    {
      "inputs": [
        {
          "internalType": "address",
          "name": "userHistoryContractAddress",
          "type": "address"
        }
      ],
      "name": "setUserHistoryContractAddress",
      "outputs": [],
      "stateMutability": "nonpayable",
      "type": "function"
    },
    {
      "inputs": [
        {
          "internalType": "uint256",
          "name": "throneId",
          "type": "uint256"
        }
      ],
      "name": "withdrawFromThrone",
      "outputs": [
        {
          "internalType": "bool",
          "name": "success",
          "type": "bool"
        }
      ],
      "stateMutability": "nonpayable",
      "type": "function"
    }
  ]
}