{
	"data": {
		"bytecode": {
			"linkReferences": {},
			"object": "60806040525f6009555f600c5534801562000018575f80fd5b50604051620066413803806200664183398181016040528101906200003e919062000841565b335f73ffffffffffffffffffffffffffffffffffffffff168173ffffffffffffffffffffffffffffffffffffffff1603620000b2575f6040517f1e4fbdf7000000000000000000000000000000000000000000000000000000008152600401620000a9919062000897565b60405180910390fd5b620000c3816200034360201b60201c565b50620000e97343000000000000000000000000000000000000026200040460201b60201c565b620000fa826200053660201b60201c565b6200010b81620005ea60201b60201c565b620001516040518060400160405280600381526020017f43455800000000000000000000000000000000000000000000000000000000008152506200069e60201b60201c565b620001976040518060400160405280600381526020017f44455800000000000000000000000000000000000000000000000000000000008152506200069e60201b60201c565b620001dd6040518060400160405280600481526020017f4d495343000000000000000000000000000000000000000000000000000000008152506200069e60201b60201c565b620002236040518060400160405280600c81526020017f46656520446973636f756e740000000000000000000000000000000000000000815250620006d560201b60201c565b620002696040518060400160405280600481526020017f5553445400000000000000000000000000000000000000000000000000000000815250620006d560201b60201c565b620002af6040518060400160405280600481526020017f5553444300000000000000000000000000000000000000000000000000000000815250620006d560201b60201c565b620002f56040518060400160405280600381526020017f4254430000000000000000000000000000000000000000000000000000000000815250620006d560201b60201c565b6200033b6040518060400160405280600381526020017f4554480000000000000000000000000000000000000000000000000000000000815250620006d560201b60201c565b505062000bfa565b5f805f9054906101000a900473ffffffffffffffffffffffffffffffffffffffff169050815f806101000a81548173ffffffffffffffffffffffffffffffffffffffff021916908373ffffffffffffffffffffffffffffffffffffffff1602179055508173ffffffffffffffffffffffffffffffffffffffff168173ffffffffffffffffffffffffffffffffffffffff167f8be0079c531659141344cd1fd0a4f28419497f9722a3daafe3b4186f6b6457e060405160405180910390a35050565b620004146200070c60201b60201c565b8060045f6101000a81548173ffffffffffffffffffffffffffffffffffffffff021916908373ffffffffffffffffffffffffffffffffffffffff16021790555060045f9054906101000a900473ffffffffffffffffffffffffffffffffffffffff1660015f6101000a81548173ffffffffffffffffffffffffffffffffffffffff021916908373ffffffffffffffffffffffffffffffffffffffff16021790555060015f9054906101000a900473ffffffffffffffffffffffffffffffffffffffff1673ffffffffffffffffffffffffffffffffffffffff16634e606c476040518163ffffffff1660e01b81526004015f604051808303815f87803b1580156200051c575f80fd5b505af11580156200052f573d5f803e3d5ffd5b5050505050565b620005466200070c60201b60201c565b8060055f6101000a81548173ffffffffffffffffffffffffffffffffffffffff021916908373ffffffffffffffffffffffffffffffffffffffff16021790555060055f9054906101000a900473ffffffffffffffffffffffffffffffffffffffff1660025f6101000a81548173ffffffffffffffffffffffffffffffffffffffff021916908373ffffffffffffffffffffffffffffffffffffffff16021790555050565b620005fa6200070c60201b60201c565b8060065f6101000a81548173ffffffffffffffffffffffffffffffffffffffff021916908373ffffffffffffffffffffffffffffffffffffffff16021790555060065f9054906101000a900473ffffffffffffffffffffffffffffffffffffffff1660035f6101000a81548173ffffffffffffffffffffffffffffffffffffffff021916908373ffffffffffffffffffffffffffffffffffffffff16021790555050565b600781908060018154018082558091505060019003905f5260205f20015f909190919091509081620006d1919062000b16565b5050565b600881908060018154018082558091505060019003905f5260205f20015f90919091909150908162000708919062000b16565b5050565b6200071c620007ae60201b60201c565b73ffffffffffffffffffffffffffffffffffffffff1662000742620007b560201b60201c565b73ffffffffffffffffffffffffffffffffffffffff1614620007ac576200076e620007ae60201b60201c565b6040517f118cdaa7000000000000000000000000000000000000000000000000000000008152600401620007a3919062000897565b60405180910390fd5b565b5f33905090565b5f805f9054906101000a900473ffffffffffffffffffffffffffffffffffffffff16905090565b5f80fd5b5f73ffffffffffffffffffffffffffffffffffffffff82169050919050565b5f6200080b82620007e0565b9050919050565b6200081d81620007ff565b811462000828575f80fd5b50565b5f815190506200083b8162000812565b92915050565b5f80604083850312156200085a5762000859620007dc565b5b5f62000869858286016200082b565b92505060206200087c858286016200082b565b9150509250929050565b6200089181620007ff565b82525050565b5f602082019050620008ac5f83018462000886565b92915050565b5f81519050919050565b7f4e487b71000000000000000000000000000000000000000000000000000000005f52604160045260245ffd5b7f4e487b71000000000000000000000000000000000000000000000000000000005f52602260045260245ffd5b5f60028204905060018216806200092e57607f821691505b602082108103620009445762000943620008e9565b5b50919050565b5f819050815f5260205f209050919050565b5f6020601f8301049050919050565b5f82821b905092915050565b5f60088302620009a87fffffffffffffffffffffffffffffffffffffffffffffffffffffffffffffffff826200096b565b620009b486836200096b565b95508019841693508086168417925050509392505050565b5f819050919050565b5f819050919050565b5f620009fe620009f8620009f284620009cc565b620009d5565b620009cc565b9050919050565b5f819050919050565b62000a1983620009de565b62000a3162000a288262000a05565b84845462000977565b825550505050565b5f90565b62000a4762000a39565b62000a5481848462000a0e565b505050565b5b8181101562000a7b5762000a6f5f8262000a3d565b60018101905062000a5a565b5050565b601f82111562000aca5762000a94816200094a565b62000a9f846200095c565b8101602085101562000aaf578190505b62000ac762000abe856200095c565b83018262000a59565b50505b505050565b5f82821c905092915050565b5f62000aec5f198460080262000acf565b1980831691505092915050565b5f62000b06838362000adb565b9150826002028217905092915050565b62000b2182620008b2565b67ffffffffffffffff81111562000b3d5762000b3c620008bc565b5b62000b49825462000916565b62000b5682828562000a7f565b5f60209050601f83116001811462000b8c575f841562000b77578287015190505b62000b83858262000af9565b86555062000bf2565b601f19841662000b9c866200094a565b5f5b8281101562000bc55784890151825560018201915060208501945060208101905062000b9e565b8683101562000be5578489015162000be1601f89168262000adb565b8355505b6001600288020188555050505b505050505050565b615a398062000c085f395ff3fe608060405234801561000f575f80fd5b50600436106101c2575f3560e01c80637c7a61d5116100f7578063b0b8a59111610095578063baf547081161006f578063baf54708146104a7578063cdb219c5146104d7578063e6c227ce146104f5578063f2fde38b14610513576101c2565b8063b0b8a5911461043d578063b5394d1f1461046d578063b762ee7914610489576101c2565b80639cabff66116100d15780639cabff66146103b55780639d443a00146103d35780639e6977f414610403578063a3b6710c14610421576101c2565b80637c7a61d51461034b5780638da5cb5b146103675780639b174dc014610385576101c2565b80634b36859e116101645780636100f9511161013e5780636100f951146102fd578063645dd1fa1461031b5780636ff9e1b314610325578063715018a614610341576101c2565b80634b36859e146102a75780635992df6b146102c35780635f897959146102e1576101c2565b806320dacb98116101a057806320dacb98146102305780632cfebe0a1461024c57806334138bab14610268578063491ae34814610286576101c2565b806303ca540b146101c6578063092b2410146101e25780630ee524e214610200575b5f80fd5b6101e060048036038101906101db919061427f565b61052f565b005b6101ea6105db565b6040516101f791906142c2565b60405180910390f35b61021a60048036038101906102159190614305565b6105eb565b6040516102279190614553565b60405180910390f35b61024a6004803603810190610245919061469f565b6109f2565b005b61026660048036038101906102619190614305565b610a06565b005b610270610e86565b60405161027d91906147a1565b60405180910390f35b61028e610f5a565b60405161029e9493929190614807565b60405180910390f35b6102c160048036038101906102bc9190614305565b61100d565b005b6102cb6111ba565b6040516102d89190614a0d565b60405180910390f35b6102fb60048036038101906102f6919061469f565b611663565b005b610305611677565b6040516103129190614a3c565b60405180910390f35b61032361169f565b005b61033f600480360381019061033a919061427f565b611746565b005b61034961186e565b005b6103656004803603810190610360919061427f565b611881565b005b61036f61192d565b60405161037c9190614a3c565b60405180910390f35b61039f600480360381019061039a919061427f565b611954565b6040516103ac9190614a0d565b60405180910390f35b6103bd611e4e565b6040516103ca91906147a1565b60405180910390f35b6103ed60048036038101906103e8919061427f565b611f22565b6040516103fa91906142c2565b60405180910390f35b61040b611f68565b6040516104189190614a3c565b60405180910390f35b61043b60048036038101906104369190614305565b611f90565b005b61045760048036038101906104529190614a55565b61209e565b60405161046491906142c2565b60405180910390f35b61048760048036038101906104829190614b7e565b612610565b005b61049161272d565b60405161049e9190614a0d565b60405180910390f35b6104c160048036038101906104bc9190614305565b612bd0565b6040516104ce9190614c7f565b60405180910390f35b6104df612dcc565b6040516104ec9190614a3c565b60405180910390f35b6104fd612df4565b60405161050a91906142c2565b60405180910390f35b61052d6004803603810190610528919061427f565b612dfd565b005b610537612e81565b8060065f6101000a81548173ffffffffffffffffffffffffffffffffffffffff021916908373ffffffffffffffffffffffffffffffffffffffff16021790555060065f9054906101000a900473ffffffffffffffffffffffffffffffffffffffff1660035f6101000a81548173ffffffffffffffffffffffffffffffffffffffff021916908373ffffffffffffffffffffffffffffffffffffffff16021790555050565b5f6105e66001612f08565b905090565b6105f3614140565b5f600a5f8481526020019081526020015f205f015411610648576040517f08c379a000000000000000000000000000000000000000000000000000000000815260040161063f90614cf2565b60405180910390fd5b600a5f8381526020019081526020015f20604051806101600160405290815f820154815260200160018201805461067e90614d3d565b80601f01602080910402602001604051908101604052809291908181526020018280546106aa90614d3d565b80156106f55780601f106106cc576101008083540402835291602001916106f5565b820191905f5260205f20905b8154815290600101906020018083116106d857829003601f168201915b5050505050815260200160028201805461070e90614d3d565b80601f016020809104026020016040519081016040528092919081815260200182805461073a90614d3d565b80156107855780601f1061075c57610100808354040283529160200191610785565b820191905f5260205f20905b81548152906001019060200180831161076857829003601f168201915b5050505050815260200160038201805461079e90614d3d565b80601f01602080910402602001604051908101604052809291908181526020018280546107ca90614d3d565b80156108155780601f106107ec57610100808354040283529160200191610815565b820191905f5260205f20905b8154815290600101906020018083116107f857829003601f168201915b5050505050815260200160048201548152602001600582015f9054906101000a900473ffffffffffffffffffffffffffffffffffffffff1673ffffffffffffffffffffffffffffffffffffffff1673ffffffffffffffffffffffffffffffffffffffff16815260200160068201805461088d90614d3d565b80601f01602080910402602001604051908101604052809291908181526020018280546108b990614d3d565b80156109045780601f106108db57610100808354040283529160200191610904565b820191905f5260205f20905b8154815290600101906020018083116108e757829003601f168201915b505050505081526020016007820154815260200160088201805461092790614d3d565b80601f016020809104026020016040519081016040528092919081815260200182805461095390614d3d565b801561099e5780601f106109755761010080835404028352916020019161099e565b820191905f5260205f20905b81548152906001019060200180831161098157829003601f168201915b50505050508152602001600982015f9054906101000a900460ff1660038111156109cb576109ca6143d8565b5b60038111156109dd576109dc6143d8565b5b8152602001600a820154815250509050919050565b6109fa612e81565b610a0381612f6d565b50565b610a0e612e81565b5f600a5f8381526020019081526020015f206005015f9054906101000a900473ffffffffffffffffffffffffffffffffffffffff1690505f73ffffffffffffffffffffffffffffffffffffffff168173ffffffffffffffffffffffffffffffffffffffff1603610ab3576040517f08c379a0000000000000000000000000000000000000000000000000000000008152600401610aaa90614db7565b60405180910390fd5b5f6003811115610ac657610ac56143d8565b5b600a5f8481526020019081526020015f206009015f9054906101000a900460ff166003811115610af957610af86143d8565b5b14610b39576040517f08c379a0000000000000000000000000000000000000000000000000000000008152600401610b3090614e45565b60405180910390fd5b5f600a5f8481526020019081526020015f206001018054610b5990614d3d565b80601f0160208091040260200160405190810160405280929190818152602001828054610b8590614d3d565b8015610bd05780601f10610ba757610100808354040283529160200191610bd0565b820191905f5260205f20905b815481529060010190602001808311610bb357829003601f168201915b505050505090505f600a5f8581526020019081526020015f206003018054610bf790614d3d565b80601f0160208091040260200160405190810160405280929190818152602001828054610c2390614d3d565b8015610c6e5780601f10610c4557610100808354040283529160200191610c6e565b820191905f5260205f20905b815481529060010190602001808311610c5157829003601f168201915b505050505090505f610c8260018484612fa2565b90505f811115610d7f57610ce8600a5f8381526020019081526020015f2060040154600a5f8481526020019081526020015f2060070154600a5f8981526020019081526020015f2060040154600a5f8a81526020019081526020015f206007015461319d565b610cf18161323c565b60035f9054906101000a900473ffffffffffffffffffffffffffffffffffffffff1673ffffffffffffffffffffffffffffffffffffffff166319e9ee7585426040518363ffffffff1660e01b8152600401610d4d929190614e63565b5f604051808303815f87803b158015610d64575f80fd5b505af1158015610d76573d5f803e3d5ffd5b50505050610e09565b60035f9054906101000a900473ffffffffffffffffffffffffffffffffffffffff1673ffffffffffffffffffffffffffffffffffffffff166372316ef385426040518363ffffffff1660e01b8152600401610ddb929190614e63565b5f604051808303815f87803b158015610df2575f80fd5b505af1158015610e04573d5f803e3d5ffd5b505050505b6001600a5f8781526020019081526020015f206009015f6101000a81548160ff02191690836003811115610e4057610e3f6143d8565b5b02179055507fbf010aba48e49020ed90d2f6b9ae36c27e06a48f276aa44d6594e44347cb5cad856001604051610e77929190614e99565b60405180910390a15050505050565b60606007805480602002602001604051908101604052809291908181526020015f905b82821015610f51578382905f5260205f20018054610ec690614d3d565b80601f0160208091040260200160405190810160405280929190818152602001828054610ef290614d3d565b8015610f3d5780601f10610f1457610100808354040283529160200191610f3d565b820191905f5260205f20905b815481529060010190602001808311610f2057829003601f168201915b505050505081526020019060010190610ea9565b50505050905090565b5f805f80610f66612e81565b60015f9054906101000a900473ffffffffffffffffffffffffffffffffffffffff1673ffffffffffffffffffffffffffffffffffffffff1663dde798a4306040518263ffffffff1660e01b8152600401610fc09190614a3c565b608060405180830381865afa158015610fdb573d5f803e3d5ffd5b505050506040513d601f19601f82011682018060405250810190610fff9190614ef7565b935093509350935090919293565b611015612e81565b5f600a5f8381526020019081526020015f205f01541161106a576040517f08c379a000000000000000000000000000000000000000000000000000000000815260040161106190614cf2565b60405180910390fd5b5f600381111561107d5761107c6143d8565b5b600a5f8381526020019081526020015f206009015f9054906101000a900460ff1660038111156110b0576110af6143d8565b5b146110f0576040517f08c379a00000000000000000000000000000000000000000000000000000000081526004016110e790614e45565b60405180910390fd5b611141600a5f8381526020019081526020015f206005015f9054906101000a900473ffffffffffffffffffffffffffffffffffffffff16600a5f8481526020019081526020015f20600701546133ea565b6002600a5f8381526020019081526020015f206009015f6101000a81548160ff02191690836003811115611178576111776143d8565b5b02179055507fbf010aba48e49020ed90d2f6b9ae36c27e06a48f276aa44d6594e44347cb5cad8160026040516111af929190614e99565b60405180910390a150565b60606111c4612e81565b5f6111ce5f612f08565b90505f8167ffffffffffffffff8111156111eb576111ea61457b565b5b60405190808252806020026020018201604052801561122457816020015b611211614140565b8152602001906001900390816112095790505b5090505f805b600b805490508110156116595761125d600b828154811061124e5761124d614f5b565b5b905f5260205f2001545f613746565b1561164c57600a5f600b838154811061127957611278614f5b565b5b905f5260205f20015481526020019081526020015f20604051806101600160405290815f82015481526020016001820180546112b490614d3d565b80601f01602080910402602001604051908101604052809291908181526020018280546112e090614d3d565b801561132b5780601f106113025761010080835404028352916020019161132b565b820191905f5260205f20905b81548152906001019060200180831161130e57829003601f168201915b5050505050815260200160028201805461134490614d3d565b80601f016020809104026020016040519081016040528092919081815260200182805461137090614d3d565b80156113bb5780601f10611392576101008083540402835291602001916113bb565b820191905f5260205f20905b81548152906001019060200180831161139e57829003601f168201915b505050505081526020016003820180546113d490614d3d565b80601f016020809104026020016040519081016040528092919081815260200182805461140090614d3d565b801561144b5780601f106114225761010080835404028352916020019161144b565b820191905f5260205f20905b81548152906001019060200180831161142e57829003601f168201915b5050505050815260200160048201548152602001600582015f9054906101000a900473ffffffffffffffffffffffffffffffffffffffff1673ffffffffffffffffffffffffffffffffffffffff1673ffffffffffffffffffffffffffffffffffffffff1681526020016006820180546114c390614d3d565b80601f01602080910402602001604051908101604052809291908181526020018280546114ef90614d3d565b801561153a5780601f106115115761010080835404028352916020019161153a565b820191905f5260205f20905b81548152906001019060200180831161151d57829003601f168201915b505050505081526020016007820154815260200160088201805461155d90614d3d565b80601f016020809104026020016040519081016040528092919081815260200182805461158990614d3d565b80156115d45780601f106115ab576101008083540402835291602001916115d4565b820191905f5260205f20905b8154815290600101906020018083116115b757829003601f168201915b50505050508152602001600982015f9054906101000a900460ff166003811115611601576116006143d8565b5b6003811115611613576116126143d8565b5b8152602001600a8201548152505083838061162d90614fb5565b9450815181106116405761163f614f5b565b5b60200260200101819052505b808060010191505061122a565b5081935050505090565b61166b612e81565b61167481613796565b50565b5f60055f9054906101000a900473ffffffffffffffffffffffffffffffffffffffff16905090565b6116a7612e81565b60015f9054906101000a900473ffffffffffffffffffffffffffffffffffffffff1673ffffffffffffffffffffffffffffffffffffffff1663954fa5ee30336040518363ffffffff1660e01b8152600401611703929190614ffc565b6020604051808303815f875af115801561171f573d5f803e3d5ffd5b505050506040513d601f19601f820116820180604052508101906117439190615023565b50565b61174e612e81565b8060045f6101000a81548173ffffffffffffffffffffffffffffffffffffffff021916908373ffffffffffffffffffffffffffffffffffffffff16021790555060045f9054906101000a900473ffffffffffffffffffffffffffffffffffffffff1660015f6101000a81548173ffffffffffffffffffffffffffffffffffffffff021916908373ffffffffffffffffffffffffffffffffffffffff16021790555060015f9054906101000a900473ffffffffffffffffffffffffffffffffffffffff1673ffffffffffffffffffffffffffffffffffffffff16634e606c476040518163ffffffff1660e01b81526004015f604051808303815f87803b158015611855575f80fd5b505af1158015611867573d5f803e3d5ffd5b5050505050565b611876612e81565b61187f5f6137cb565b565b611889612e81565b8060055f6101000a81548173ffffffffffffffffffffffffffffffffffffffff021916908373ffffffffffffffffffffffffffffffffffffffff16021790555060055f9054906101000a900473ffffffffffffffffffffffffffffffffffffffff1660025f6101000a81548173ffffffffffffffffffffffffffffffffffffffff021916908373ffffffffffffffffffffffffffffffffffffffff16021790555050565b5f805f9054906101000a900473ffffffffffffffffffffffffffffffffffffffff16905090565b60605f6119608361388c565b90505f8167ffffffffffffffff81111561197d5761197c61457b565b5b6040519080825280602002602001820160405280156119b657816020015b6119a3614140565b81526020019060019003908161199b5790505b5090505f805b600b80549050811015611e42578573ffffffffffffffffffffffffffffffffffffffff16600a5f600b84815481106119f7576119f6614f5b565b5b905f5260205f20015481526020019081526020015f206005015f9054906101000a900473ffffffffffffffffffffffffffffffffffffffff1673ffffffffffffffffffffffffffffffffffffffff1603611e3557600a5f600b8381548110611a6257611a61614f5b565b5b905f5260205f20015481526020019081526020015f20604051806101600160405290815f8201548152602001600182018054611a9d90614d3d565b80601f0160208091040260200160405190810160405280929190818152602001828054611ac990614d3d565b8015611b145780601f10611aeb57610100808354040283529160200191611b14565b820191905f5260205f20905b815481529060010190602001808311611af757829003601f168201915b50505050508152602001600282018054611b2d90614d3d565b80601f0160208091040260200160405190810160405280929190818152602001828054611b5990614d3d565b8015611ba45780601f10611b7b57610100808354040283529160200191611ba4565b820191905f5260205f20905b815481529060010190602001808311611b8757829003601f168201915b50505050508152602001600382018054611bbd90614d3d565b80601f0160208091040260200160405190810160405280929190818152602001828054611be990614d3d565b8015611c345780601f10611c0b57610100808354040283529160200191611c34565b820191905f5260205f20905b815481529060010190602001808311611c1757829003601f168201915b5050505050815260200160048201548152602001600582015f9054906101000a900473ffffffffffffffffffffffffffffffffffffffff1673ffffffffffffffffffffffffffffffffffffffff1673ffffffffffffffffffffffffffffffffffffffff168152602001600682018054611cac90614d3d565b80601f0160208091040260200160405190810160405280929190818152602001828054611cd890614d3d565b8015611d235780601f10611cfa57610100808354040283529160200191611d23565b820191905f5260205f20905b815481529060010190602001808311611d0657829003601f168201915b5050505050815260200160078201548152602001600882018054611d4690614d3d565b80601f0160208091040260200160405190810160405280929190818152602001828054611d7290614d3d565b8015611dbd5780601f10611d9457610100808354040283529160200191611dbd565b820191905f5260205f20905b815481529060010190602001808311611da057829003601f168201915b50505050508152602001600982015f9054906101000a900460ff166003811115611dea57611de96143d8565b5b6003811115611dfc57611dfb6143d8565b5b8152602001600a82015481525050838380611e1690614fb5565b945081518110611e2957611e28614f5b565b5b60200260200101819052505b80806001019150506119bc565b50819350505050919050565b60606008805480602002602001604051908101604052809291908181526020015f905b82821015611f19578382905f5260205f20018054611e8e90614d3d565b80601f0160208091040260200160405190810160405280929190818152602001828054611eba90614d3d565b8015611f055780601f10611edc57610100808354040283529160200191611f05565b820191905f5260205f20905b815481529060010190602001808311611ee857829003601f168201915b505050505081526020019060010190611e71565b50505050905090565b5f600d5f8373ffffffffffffffffffffffffffffffffffffffff1673ffffffffffffffffffffffffffffffffffffffff1681526020019081526020015f20549050919050565b5f60045f9054906101000a900473ffffffffffffffffffffffffffffffffffffffff16905090565b611f98612e81565b5f600a5f8381526020019081526020015f205f015411611fed576040517f08c379a0000000000000000000000000000000000000000000000000000000008152600401611fe490614cf2565b60405180910390fd5b60016003811115612001576120006143d8565b5b600a5f8381526020019081526020015f206009015f9054906101000a900460ff166003811115612034576120336143d8565b5b14612074576040517f08c379a000000000000000000000000000000000000000000000000000000000815260040161206b906150be565b60405180910390fd5b61209233600a5f8481526020019081526020015f20600701546133ea565b61209b81613948565b50565b5f8260025f9054906101000a900473ffffffffffffffffffffffffffffffffffffffff1673ffffffffffffffffffffffffffffffffffffffff166370a08231336040518263ffffffff1660e01b81526004016120fa9190614a3c565b602060405180830381865afa158015612115573d5f803e3d5ffd5b505050506040513d601f19601f820116820180604052508101906121399190615023565b11612179576040517f08c379a000000000000000000000000000000000000000000000000000000000815260040161217090615126565b60405180910390fd5b8260025f9054906101000a900473ffffffffffffffffffffffffffffffffffffffff1673ffffffffffffffffffffffffffffffffffffffff1663dd62ed3e33306040518363ffffffff1660e01b81526004016121d6929190614ffc565b602060405180830381865afa1580156121f1573d5f803e3d5ffd5b505050506040513d601f19601f820116820180604052508101906122159190615023565b1015612256576040517f08c379a000000000000000000000000000000000000000000000000000000000815260040161224d9061518e565b60405180910390fd5b612261338988613ac9565b156122a1576040517f08c379a0000000000000000000000000000000000000000000000000000000008152600401612298906151f6565b60405180910390fd5b5f6122ae60018a89612fa2565b90505f8111156122ed576122ec600a5f8381526020019081526020015f2060040154600a5f8481526020019081526020015f2060070154888761319d565b5b60025f9054906101000a900473ffffffffffffffffffffffffffffffffffffffff1673ffffffffffffffffffffffffffffffffffffffff166323b872dd3330876040518463ffffffff1660e01b815260040161234b93929190615214565b6020604051808303815f875af1158015612367573d5f803e3d5ffd5b505050506040513d601f19601f8201168201806040525081019061238b9190615273565b5083600c5f82825461239d919061529e565b9250508190555083600d5f3373ffffffffffffffffffffffffffffffffffffffff1673ffffffffffffffffffffffffffffffffffffffff1681526020019081526020015f205f8282546123f0919061529e565b925050819055505f612400613d2f565b90506040518061016001604052808281526020018b81526020018a81526020018981526020018881526020013373ffffffffffffffffffffffffffffffffffffffff1681526020018781526020018681526020018581526020015f600381111561246d5761246c6143d8565b5b815260200142815250600a5f8381526020019081526020015f205f820151815f015560208201518160010190816124a4919061546e565b5060408201518160020190816124ba919061546e565b5060608201518160030190816124d0919061546e565b506080820151816004015560a0820151816005015f6101000a81548173ffffffffffffffffffffffffffffffffffffffff021916908373ffffffffffffffffffffffffffffffffffffffff16021790555060c0820151816006019081612536919061546e565b5060e08201518160070155610100820151816008019081612557919061546e565b50610120820151816009015f6101000a81548160ff02191690836003811115612583576125826143d8565b5b021790555061014082015181600a0155905050600b81908060018154018082558091505060019003905f5260205f20015f90919091909150556125c7338b8a613d49565b7fbf010aba48e49020ed90d2f6b9ae36c27e06a48f276aa44d6594e44347cb5cad835f6040516125f8929190614e99565b60405180910390a18092505050979650505050505050565b612618612e81565b5f600381111561262b5761262a6143d8565b5b600a5f8781526020019081526020015f206009015f9054906101000a900460ff16600381111561265e5761265d6143d8565b5b1461269e576040517f08c379a0000000000000000000000000000000000000000000000000000000008152600401612695906155ad565b60405180910390fd5b83600a5f8781526020019081526020015f2060010190816126bf919061546e565b5082600a5f8781526020019081526020015f2060020190816126e1919061546e565b5081600a5f8781526020019081526020015f206003019081612703919061546e565b5080600a5f8781526020019081526020015f206008019081612725919061546e565b505050505050565b60605f61273a6001612f08565b90505f8167ffffffffffffffff8111156127575761275661457b565b5b60405190808252806020026020018201604052801561279057816020015b61277d614140565b8152602001906001900390816127755790505b5090505f805b600b80549050811015612bc6576127ca600b82815481106127ba576127b9614f5b565b5b905f5260205f2001546001613746565b15612bb957600a5f600b83815481106127e6576127e5614f5b565b5b905f5260205f20015481526020019081526020015f20604051806101600160405290815f820154815260200160018201805461282190614d3d565b80601f016020809104026020016040519081016040528092919081815260200182805461284d90614d3d565b80156128985780601f1061286f57610100808354040283529160200191612898565b820191905f5260205f20905b81548152906001019060200180831161287b57829003601f168201915b505050505081526020016002820180546128b190614d3d565b80601f01602080910402602001604051908101604052809291908181526020018280546128dd90614d3d565b80156129285780601f106128ff57610100808354040283529160200191612928565b820191905f5260205f20905b81548152906001019060200180831161290b57829003601f168201915b5050505050815260200160038201805461294190614d3d565b80601f016020809104026020016040519081016040528092919081815260200182805461296d90614d3d565b80156129b85780601f1061298f576101008083540402835291602001916129b8565b820191905f5260205f20905b81548152906001019060200180831161299b57829003601f168201915b5050505050815260200160048201548152602001600582015f9054906101000a900473ffffffffffffffffffffffffffffffffffffffff1673ffffffffffffffffffffffffffffffffffffffff1673ffffffffffffffffffffffffffffffffffffffff168152602001600682018054612a3090614d3d565b80601f0160208091040260200160405190810160405280929190818152602001828054612a5c90614d3d565b8015612aa75780601f10612a7e57610100808354040283529160200191612aa7565b820191905f5260205f20905b815481529060010190602001808311612a8a57829003601f168201915b5050505050815260200160078201548152602001600882018054612aca90614d3d565b80601f0160208091040260200160405190810160405280929190818152602001828054612af690614d3d565b8015612b415780601f10612b1857610100808354040283529160200191612b41565b820191905f5260205f20905b815481529060010190602001808311612b2457829003601f168201915b50505050508152602001600982015f9054906101000a900460ff166003811115612b6e57612b6d6143d8565b5b6003811115612b8057612b7f6143d8565b5b8152602001600a82015481525050838380612b9a90614fb5565b945081518110612bad57612bac614f5b565b5b60200260200101819052505b8080600101915050612796565b5081935050505090565b5f3373ffffffffffffffffffffffffffffffffffffffff16600a5f8481526020019081526020015f206005015f9054906101000a900473ffffffffffffffffffffffffffffffffffffffff1673ffffffffffffffffffffffffffffffffffffffff1614612c72576040517f08c379a0000000000000000000000000000000000000000000000000000000008152600401612c699061563b565b60405180910390fd5b5f600a5f8481526020019081526020015f205f015411612cc7576040517f08c379a0000000000000000000000000000000000000000000000000000000008152600401612cbe90614cf2565b60405180910390fd5b60016003811115612cdb57612cda6143d8565b5b600a5f8481526020019081526020015f206009015f9054906101000a900460ff166003811115612d0e57612d0d6143d8565b5b1480612d5d57505f6003811115612d2857612d276143d8565b5b600a5f8481526020019081526020015f206009015f9054906101000a900460ff166003811115612d5b57612d5a6143d8565b5b145b612d9c576040517f08c379a0000000000000000000000000000000000000000000000000000000008152600401612d93906156c9565b60405180910390fd5b612dba33600a5f8581526020019081526020015f20600701546133ea565b612dc382613948565b60019050919050565b5f60065f9054906101000a900473ffffffffffffffffffffffffffffffffffffffff16905090565b5f600c54905090565b612e05612e81565b5f73ffffffffffffffffffffffffffffffffffffffff168173ffffffffffffffffffffffffffffffffffffffff1603612e75575f6040517f1e4fbdf7000000000000000000000000000000000000000000000000000000008152600401612e6c9190614a3c565b60405180910390fd5b612e7e816137cb565b50565b612e89614115565b73ffffffffffffffffffffffffffffffffffffffff16612ea761192d565b73ffffffffffffffffffffffffffffffffffffffff1614612f0657612eca614115565b6040517f118cdaa7000000000000000000000000000000000000000000000000000000008152600401612efd9190614a3c565b60405180910390fd5b565b5f805f90505f5b600b80549050811015612f6357612f42600b8281548110612f3357612f32614f5b565b5b905f5260205f20015485613746565b15612f56578180612f5290614fb5565b9250505b8080600101915050612f0f565b5080915050919050565b600881908060018154018082558091505060019003905f5260205f20015f909190919091509081612f9e919061546e565b5050565b5f805f90505b600b80549050811015613191575f600b8281548110612fca57612fc9614f5b565b5b905f5260205f2001549050856003811115612fe857612fe76143d8565b5b600a5f8381526020019081526020015f206009015f9054906101000a900460ff16600381111561301b5761301a6143d8565b5b1480156130c857506130c7600a5f8381526020019081526020015f20600101805461304590614d3d565b80601f016020809104026020016040519081016040528092919081815260200182805461307190614d3d565b80156130bc5780601f10613093576101008083540402835291602001916130bc565b820191905f5260205f20905b81548152906001019060200180831161309f57829003601f168201915b50505050508661411c565b5b80156131745750613173600a5f8381526020019081526020015f2060030180546130f190614d3d565b80601f016020809104026020016040519081016040528092919081815260200182805461311d90614d3d565b80156131685780601f1061313f57610100808354040283529160200191613168565b820191905f5260205f20905b81548152906001019060200180831161314b57829003601f168201915b50505050508561411c565b5b15613183578092505050613196565b508080600101915050612fa8565b505f90505b9392505050565b5f81116131df576040517f08c379a00000000000000000000000000000000000000000000000000000000081526004016131d690615731565b60405180910390fd5b838211806131f7575083821480156131f657508281115b5b613236576040517f08c379a000000000000000000000000000000000000000000000000000000000815260040161322d906157e5565b60405180910390fd5b50505050565b613244612e81565b5f600a5f8381526020019081526020015f205f015411613299576040517f08c379a000000000000000000000000000000000000000000000000000000000815260040161329090614cf2565b60405180910390fd5b600160038111156132ad576132ac6143d8565b5b600a5f8381526020019081526020015f206009015f9054906101000a900460ff1660038111156132e0576132df6143d8565b5b14613320576040517f08c379a0000000000000000000000000000000000000000000000000000000008152600401613317906150be565b60405180910390fd5b613371600a5f8381526020019081526020015f206005015f9054906101000a900473ffffffffffffffffffffffffffffffffffffffff16600a5f8481526020019081526020015f20600701546133ea565b6003600a5f8381526020019081526020015f206009015f6101000a81548160ff021916908360038111156133a8576133a76143d8565b5b02179055507fbf010aba48e49020ed90d2f6b9ae36c27e06a48f276aa44d6594e44347cb5cad8160036040516133df929190614e99565b60405180910390a150565b5f73ffffffffffffffffffffffffffffffffffffffff168273ffffffffffffffffffffffffffffffffffffffff1603613458576040517f08c379a000000000000000000000000000000000000000000000000000000000815260040161344f9061584d565b60405180910390fd5b5f811161349a576040517f08c379a0000000000000000000000000000000000000000000000000000000008152600401613491906158b5565b60405180910390fd5b80600c5410156134df576040517f08c379a00000000000000000000000000000000000000000000000000000000081526004016134d69061591d565b60405180910390fd5b80600d5f8473ffffffffffffffffffffffffffffffffffffffff1673ffffffffffffffffffffffffffffffffffffffff1681526020019081526020015f2054101561355f576040517f08c379a000000000000000000000000000000000000000000000000000000000815260040161355690615985565b60405180910390fd5b8060025f9054906101000a900473ffffffffffffffffffffffffffffffffffffffff1673ffffffffffffffffffffffffffffffffffffffff166370a08231306040518263ffffffff1660e01b81526004016135ba9190614a3c565b602060405180830381865afa1580156135d5573d5f803e3d5ffd5b505050506040513d601f19601f820116820180604052508101906135f99190615023565b101561363a576040517f08c379a000000000000000000000000000000000000000000000000000000000815260040161363190615126565b60405180910390fd5b60025f9054906101000a900473ffffffffffffffffffffffffffffffffffffffff1673ffffffffffffffffffffffffffffffffffffffff1663a9059cbb83836040518363ffffffff1660e01b8152600401613696929190614e63565b6020604051808303815f875af11580156136b2573d5f803e3d5ffd5b505050506040513d601f19601f820116820180604052508101906136d69190615273565b5080600c5f8282546136e891906159a3565b9250508190555080600d5f8473ffffffffffffffffffffffffffffffffffffffff1673ffffffffffffffffffffffffffffffffffffffff1681526020019081526020015f205f82825461373b91906159a3565b925050819055505050565b5f81600381111561375a576137596143d8565b5b600a5f8581526020019081526020015f206009015f9054906101000a900460ff16600381111561378d5761378c6143d8565b5b14905092915050565b600781908060018154018082558091505060019003905f5260205f20015f9091909190915090816137c7919061546e565b5050565b5f805f9054906101000a900473ffffffffffffffffffffffffffffffffffffffff169050815f806101000a81548173ffffffffffffffffffffffffffffffffffffffff021916908373ffffffffffffffffffffffffffffffffffffffff1602179055508173ffffffffffffffffffffffffffffffffffffffff168173ffffffffffffffffffffffffffffffffffffffff167f8be0079c531659141344cd1fd0a4f28419497f9722a3daafe3b4186f6b6457e060405160405180910390a35050565b5f805f90505f5b600b8054905081101561393e578373ffffffffffffffffffffffffffffffffffffffff16600a5f600b84815481106138ce576138cd614f5b565b5b905f5260205f20015481526020019081526020015f206005015f9054906101000a900473ffffffffffffffffffffffffffffffffffffffff1673ffffffffffffffffffffffffffffffffffffffff160361393157818061392d90614fb5565b9250505b8080600101915050613893565b5080915050919050565b5f600b8054905090505f5b81811015613ac45782600a5f600b848154811061397357613972614f5b565b5b905f5260205f20015481526020019081526020015f205f015403613ab757600b6001836139a091906159a3565b815481106139b1576139b0614f5b565b5b905f5260205f200154600b82815481106139ce576139cd614f5b565b5b905f5260205f200181905550600b8054806139ec576139eb6159d6565b5b600190038181905f5260205f20015f90559055600a5f8481526020019081526020015f205f8082015f9055600182015f613a2691906141bc565b600282015f613a3591906141bc565b600382015f613a4491906141bc565b600482015f9055600582015f6101000a81549073ffffffffffffffffffffffffffffffffffffffff0219169055600682015f613a8091906141bc565b600782015f9055600882015f613a9691906141bc565b600982015f6101000a81549060ff0219169055600a82015f90555050613ac4565b8080600101915050613953565b505050565b5f805f90505b600b80549050811015613d23575f600b8281548110613af157613af0614f5b565b5b905f5260205f20015490508573ffffffffffffffffffffffffffffffffffffffff16600a5f8381526020019081526020015f206005015f9054906101000a900473ffffffffffffffffffffffffffffffffffffffff1673ffffffffffffffffffffffffffffffffffffffff16148015613bad57505f6003811115613b7857613b776143d8565b5b600a5f8381526020019081526020015f206009015f9054906101000a900460ff166003811115613bab57613baa6143d8565b5b145b8015613c595750613c58600a5f8381526020019081526020015f206001018054613bd690614d3d565b80601f0160208091040260200160405190810160405280929190818152602001828054613c0290614d3d565b8015613c4d5780601f10613c2457610100808354040283529160200191613c4d565b820191905f5260205f20905b815481529060010190602001808311613c3057829003601f168201915b50505050508661411c565b5b8015613d055750613d04600a5f8381526020019081526020015f206003018054613c8290614d3d565b80601f0160208091040260200160405190810160405280929190818152602001828054613cae90614d3d565b8015613cf95780601f10613cd057610100808354040283529160200191613cf9565b820191905f5260205f20905b815481529060010190602001808311613cdc57829003601f168201915b50505050508561411c565b5b15613d1557600192505050613d28565b508080600101915050613acf565b505f90505b9392505050565b5f60095f8154613d3e90614fb5565b919050819055905090565b5f600b8054905090505f5b8181101561410e575f600b8281548110613d7157613d70614f5b565b5b905f5260205f2001549050600380811115613d8f57613d8e6143d8565b5b600a5f8381526020019081526020015f206009015f9054906101000a900460ff166003811115613dc257613dc16143d8565b5b1480613e12575060026003811115613ddd57613ddc6143d8565b5b600a5f8381526020019081526020015f206009015f9054906101000a900460ff166003811115613e1057613e0f6143d8565b5b145b8015613e7c57508573ffffffffffffffffffffffffffffffffffffffff16600a5f8381526020019081526020015f206005015f9054906101000a900473ffffffffffffffffffffffffffffffffffffffff1673ffffffffffffffffffffffffffffffffffffffff16145b8015613f285750613f27600a5f8381526020019081526020015f206001018054613ea590614d3d565b80601f0160208091040260200160405190810160405280929190818152602001828054613ed190614d3d565b8015613f1c5780601f10613ef357610100808354040283529160200191613f1c565b820191905f5260205f20905b815481529060010190602001808311613eff57829003601f168201915b50505050508661411c565b5b8015613fd45750613fd3600a5f8381526020019081526020015f206003018054613f5190614d3d565b80601f0160208091040260200160405190810160405280929190818152602001828054613f7d90614d3d565b8015613fc85780601f10613f9f57610100808354040283529160200191613fc8565b820191905f5260205f20905b815481529060010190602001808311613fab57829003601f168201915b50505050508561411c565b5b1561410057600b600184613fe891906159a3565b81548110613ff957613ff8614f5b565b5b905f5260205f200154600b838154811061401657614015614f5b565b5b905f5260205f200181905550600b805480614034576140336159d6565b5b600190038181905f5260205f20015f90559055600a5f8281526020019081526020015f205f8082015f9055600182015f61406e91906141bc565b600282015f61407d91906141bc565b600382015f61408c91906141bc565b600482015f9055600582015f6101000a81549073ffffffffffffffffffffffffffffffffffffffff0219169055600682015f6140c891906141bc565b600782015f9055600882015f6140de91906141bc565b600982015f6101000a81549060ff0219169055600a82015f905550505061410e565b508080600101915050613d54565b5050505050565b5f33905090565b5f80838051906020012090505f838051906020012090508082149250505092915050565b6040518061016001604052805f81526020016060815260200160608152602001606081526020015f81526020015f73ffffffffffffffffffffffffffffffffffffffff168152602001606081526020015f8152602001606081526020015f60038111156141b0576141af6143d8565b5b81526020015f81525090565b5080546141c890614d3d565b5f825580601f106141d957506141f6565b601f0160209004905f5260205f20908101906141f591906141f9565b5b50565b5b80821115614210575f815f9055506001016141fa565b5090565b5f604051905090565b5f80fd5b5f80fd5b5f73ffffffffffffffffffffffffffffffffffffffff82169050919050565b5f61424e82614225565b9050919050565b61425e81614244565b8114614268575f80fd5b50565b5f8135905061427981614255565b92915050565b5f602082840312156142945761429361421d565b5b5f6142a18482850161426b565b91505092915050565b5f819050919050565b6142bc816142aa565b82525050565b5f6020820190506142d55f8301846142b3565b92915050565b6142e4816142aa565b81146142ee575f80fd5b50565b5f813590506142ff816142db565b92915050565b5f6020828403121561431a5761431961421d565b5b5f614327848285016142f1565b91505092915050565b614339816142aa565b82525050565b5f81519050919050565b5f82825260208201905092915050565b5f5b8381101561437657808201518184015260208101905061435b565b5f8484015250505050565b5f601f19601f8301169050919050565b5f61439b8261433f565b6143a58185614349565b93506143b5818560208601614359565b6143be81614381565b840191505092915050565b6143d281614244565b82525050565b7f4e487b71000000000000000000000000000000000000000000000000000000005f52602160045260245ffd5b60048110614416576144156143d8565b5b50565b5f81905061442682614405565b919050565b5f61443582614419565b9050919050565b6144458161442b565b82525050565b5f61016083015f8301516144615f860182614330565b50602083015184820360208601526144798282614391565b915050604083015184820360408601526144938282614391565b915050606083015184820360608601526144ad8282614391565b91505060808301516144c26080860182614330565b5060a08301516144d560a08601826143c9565b5060c083015184820360c08601526144ed8282614391565b91505060e083015161450260e0860182614330565b5061010083015184820361010086015261451c8282614391565b91505061012083015161453361012086018261443c565b50610140830151614548610140860182614330565b508091505092915050565b5f6020820190508181035f83015261456b818461444b565b905092915050565b5f80fd5b5f80fd5b7f4e487b71000000000000000000000000000000000000000000000000000000005f52604160045260245ffd5b6145b182614381565b810181811067ffffffffffffffff821117156145d0576145cf61457b565b5b80604052505050565b5f6145e2614214565b90506145ee82826145a8565b919050565b5f67ffffffffffffffff82111561460d5761460c61457b565b5b61461682614381565b9050602081019050919050565b828183375f83830152505050565b5f61464361463e846145f3565b6145d9565b90508281526020810184848401111561465f5761465e614577565b5b61466a848285614623565b509392505050565b5f82601f83011261468657614685614573565b5b8135614696848260208601614631565b91505092915050565b5f602082840312156146b4576146b361421d565b5b5f82013567ffffffffffffffff8111156146d1576146d0614221565b5b6146dd84828501614672565b91505092915050565b5f81519050919050565b5f82825260208201905092915050565b5f819050602082019050919050565b5f61471a8383614391565b905092915050565b5f602082019050919050565b5f614738826146e6565b61474281856146f0565b93508360208202850161475485614700565b805f5b8581101561478f5784840389528151614770858261470f565b945061477b83614722565b925060208a01995050600181019050614757565b50829750879550505050505092915050565b5f6020820190508181035f8301526147b9818461472e565b905092915050565b600281106147d2576147d16143d8565b5b50565b5f8190506147e2826147c1565b919050565b5f6147f1826147d5565b9050919050565b614801816147e7565b82525050565b5f60808201905061481a5f8301876142b3565b61482760208301866142b3565b61483460408301856142b3565b61484160608301846147f8565b95945050505050565b5f81519050919050565b5f82825260208201905092915050565b5f819050602082019050919050565b5f61016083015f8301516148895f860182614330565b50602083015184820360208601526148a18282614391565b915050604083015184820360408601526148bb8282614391565b915050606083015184820360608601526148d58282614391565b91505060808301516148ea6080860182614330565b5060a08301516148fd60a08601826143c9565b5060c083015184820360c08601526149158282614391565b91505060e083015161492a60e0860182614330565b506101008301518482036101008601526149448282614391565b91505061012083015161495b61012086018261443c565b50610140830151614970610140860182614330565b508091505092915050565b5f6149868383614873565b905092915050565b5f602082019050919050565b5f6149a48261484a565b6149ae8185614854565b9350836020820285016149c085614864565b805f5b858110156149fb57848403895281516149dc858261497b565b94506149e78361498e565b925060208a019950506001810190506149c3565b50829750879550505050505092915050565b5f6020820190508181035f830152614a25818461499a565b905092915050565b614a3681614244565b82525050565b5f602082019050614a4f5f830184614a2d565b92915050565b5f805f805f805f60e0888a031215614a7057614a6f61421d565b5b5f88013567ffffffffffffffff811115614a8d57614a8c614221565b5b614a998a828b01614672565b975050602088013567ffffffffffffffff811115614aba57614ab9614221565b5b614ac68a828b01614672565b965050604088013567ffffffffffffffff811115614ae757614ae6614221565b5b614af38a828b01614672565b9550506060614b048a828b016142f1565b945050608088013567ffffffffffffffff811115614b2557614b24614221565b5b614b318a828b01614672565b93505060a0614b428a828b016142f1565b92505060c088013567ffffffffffffffff811115614b6357614b62614221565b5b614b6f8a828b01614672565b91505092959891949750929550565b5f805f805f60a08688031215614b9757614b9661421d565b5b5f614ba4888289016142f1565b955050602086013567ffffffffffffffff811115614bc557614bc4614221565b5b614bd188828901614672565b945050604086013567ffffffffffffffff811115614bf257614bf1614221565b5b614bfe88828901614672565b935050606086013567ffffffffffffffff811115614c1f57614c1e614221565b5b614c2b88828901614672565b925050608086013567ffffffffffffffff811115614c4c57614c4b614221565b5b614c5888828901614672565b9150509295509295909350565b5f8115159050919050565b614c7981614c65565b82525050565b5f602082019050614c925f830184614c70565b92915050565b5f82825260208201905092915050565b7f496e76616c6964207468726f6e652069640000000000000000000000000000005f82015250565b5f614cdc601183614c98565b9150614ce782614ca8565b602082019050919050565b5f6020820190508181035f830152614d0981614cd0565b9050919050565b7f4e487b71000000000000000000000000000000000000000000000000000000005f52602260045260245ffd5b5f6002820490506001821680614d5457607f821691505b602082108103614d6757614d66614d10565b5b50919050565b7f496e76616c6964207265666572726572206164647265737300000000000000005f82015250565b5f614da1601883614c98565b9150614dac82614d6d565b602082019050919050565b5f6020820190508181035f830152614dce81614d95565b9050919050565b7f546865207468726f6e65206973206e6f7420696e20746865207374617465206f5f8201527f6620496e52657669657700000000000000000000000000000000000000000000602082015250565b5f614e2f602a83614c98565b9150614e3a82614dd5565b604082019050919050565b5f6020820190508181035f830152614e5c81614e23565b9050919050565b5f604082019050614e765f830185614a2d565b614e8360208301846142b3565b9392505050565b614e938161442b565b82525050565b5f604082019050614eac5f8301856142b3565b614eb96020830184614e8a565b9392505050565b5f81519050614ece816142db565b92915050565b60028110614ee0575f80fd5b50565b5f81519050614ef181614ed4565b92915050565b5f805f8060808587031215614f0f57614f0e61421d565b5b5f614f1c87828801614ec0565b9450506020614f2d87828801614ec0565b9350506040614f3e87828801614ec0565b9250506060614f4f87828801614ee3565b91505092959194509250565b7f4e487b71000000000000000000000000000000000000000000000000000000005f52603260045260245ffd5b7f4e487b71000000000000000000000000000000000000000000000000000000005f52601160045260245ffd5b5f614fbf826142aa565b91507fffffffffffffffffffffffffffffffffffffffffffffffffffffffffffffffff8203614ff157614ff0614f88565b5b600182019050919050565b5f60408201905061500f5f830185614a2d565b61501c6020830184614a2d565b9392505050565b5f602082840312156150385761503761421d565b5b5f61504584828501614ec0565b91505092915050565b7f546865207468726f6e65206973206e6f7420696e20746865207374617465206f5f8201527f66204f776e656400000000000000000000000000000000000000000000000000602082015250565b5f6150a8602783614c98565b91506150b38261504e565b604082019050919050565b5f6020820190508181035f8301526150d58161509c565b9050919050565b7f4e6f7420656e6f75676820544f522062616c616e63652e0000000000000000005f82015250565b5f615110601783614c98565b915061511b826150dc565b602082019050919050565b5f6020820190508181035f83015261513d81615104565b9050919050565b7f496e73756666696369656e7420616c6c6f77616e6365000000000000000000005f82015250565b5f615178601683614c98565b915061518382615144565b602082019050919050565b5f6020820190508181035f8301526151a58161516c565b9050919050565b7f416c726561647920696e207265766965770000000000000000000000000000005f82015250565b5f6151e0601183614c98565b91506151eb826151ac565b602082019050919050565b5f6020820190508181035f83015261520d816151d4565b9050919050565b5f6060820190506152275f830186614a2d565b6152346020830185614a2d565b61524160408301846142b3565b949350505050565b61525281614c65565b811461525c575f80fd5b50565b5f8151905061526d81615249565b92915050565b5f602082840312156152885761528761421d565b5b5f6152958482850161525f565b91505092915050565b5f6152a8826142aa565b91506152b3836142aa565b92508282019050808211156152cb576152ca614f88565b5b92915050565b5f819050815f5260205f209050919050565b5f6020601f8301049050919050565b5f82821b905092915050565b5f6008830261532d7fffffffffffffffffffffffffffffffffffffffffffffffffffffffffffffffff826152f2565b61533786836152f2565b95508019841693508086168417925050509392505050565b5f819050919050565b5f61537261536d615368846142aa565b61534f565b6142aa565b9050919050565b5f819050919050565b61538b83615358565b61539f61539782615379565b8484546152fe565b825550505050565b5f90565b6153b36153a7565b6153be818484615382565b505050565b5b818110156153e1576153d65f826153ab565b6001810190506153c4565b5050565b601f821115615426576153f7816152d1565b615400846152e3565b8101602085101561540f578190505b61542361541b856152e3565b8301826153c3565b50505b505050565b5f82821c905092915050565b5f6154465f198460080261542b565b1980831691505092915050565b5f61545e8383615437565b9150826002028217905092915050565b6154778261433f565b67ffffffffffffffff8111156154905761548f61457b565b5b61549a8254614d3d565b6154a58282856153e5565b5f60209050601f8311600181146154d6575f84156154c4578287015190505b6154ce8582615453565b865550615535565b601f1984166154e4866152d1565b5f5b8281101561550b578489015182556001820191506020850194506020810190506154e6565b868310156155285784890151615524601f891682615437565b8355505b6001600288020188555050505b505050505050565b7f4f6e6c7920746865207468726f6e6520696e207265766965772063616e2062655f8201527f206d6f6469666965640000000000000000000000000000000000000000000000602082015250565b5f615597602983614c98565b91506155a28261553d565b604082019050919050565b5f6020820190508181035f8301526155c48161558b565b9050919050565b7f61646472657373657320617265206e6f74206d61746368206265747765656e205f8201527f726566657272657220616e64207468652073656e646572000000000000000000602082015250565b5f615625603783614c98565b9150615630826155cb565b604082019050919050565b5f6020820190508181035f83015261565281615619565b9050919050565b7f546865207468726f6e65206973206e6f7420696e20746865207374617465206f5f8201527f66204f776e6564206f7220496e52657669657700000000000000000000000000602082015250565b5f6156b3603383614c98565b91506156be82615659565b604082019050919050565b5f6020820190508181035f8301526156e0816156a7565b9050919050565b7f4174206c65617374203120544f522069732072657175697265640000000000005f82015250565b5f61571b601a83614c98565b9150615726826156e7565b602082019050919050565b5f6020820190508181035f8301526157488161570f565b9050919050565b7f4569746865722062656e65666974206f7220544f5220616d6f756e742073686f5f8201527f756c642062652067726561746572207468616e2063757272656e74207468726f60208201527f6e65000000000000000000000000000000000000000000000000000000000000604082015250565b5f6157cf604283614c98565b91506157da8261574f565b606082019050919050565b5f6020820190508181035f8301526157fc816157c3565b9050919050565b7f496e76616c6964206164647265737300000000000000000000000000000000005f82015250565b5f615837600f83614c98565b915061584282615803565b602082019050919050565b5f6020820190508181035f8301526158648161582b565b9050919050565b7f496e76616c696420544f5220616d6f756e7420746f20776974686472617700005f82015250565b5f61589f601e83614c98565b91506158aa8261586b565b602082019050919050565b5f6020820190508181035f8301526158cc81615893565b9050919050565b7f4e6f7420656e6f75676820746f74616c20544f5220616d6f756e7400000000005f82015250565b5f615907601b83614c98565b9150615912826158d3565b602082019050919050565b5f6020820190508181035f830152615934816158fb565b9050919050565b7f4e6f7420656e6f75676820544f52206465706f736974656400000000000000005f82015250565b5f61596f601883614c98565b915061597a8261593b565b602082019050919050565b5f6020820190508181035f83015261599c81615963565b9050919050565b5f6159ad826142aa565b91506159b8836142aa565b92508282039050818111156159d0576159cf614f88565b5b92915050565b7f4e487b71000000000000000000000000000000000000000000000000000000005f52603160045260245ffdfea264697066735822122060ee11ec9551d625ba953d5ace623421748ecac76f3554f80ec05c3a7308588264736f6c63430008180033",
			"opcodes": "PUSH1 0x80 PUSH1 0x40 MSTORE PUSH0 PUSH1 0x9 SSTORE PUSH0 PUSH1 0xC SSTORE CALLVALUE DUP1 ISZERO PUSH3 0x18 JUMPI PUSH0 DUP1 REVERT JUMPDEST POP PUSH1 0x40 MLOAD PUSH3 0x6641 CODESIZE SUB DUP1 PUSH3 0x6641 DUP4 CODECOPY DUP2 DUP2 ADD PUSH1 0x40 MSTORE DUP2 ADD SWAP1 PUSH3 0x3E SWAP2 SWAP1 PUSH3 0x841 JUMP JUMPDEST CALLER PUSH0 PUSH20 0xFFFFFFFFFFFFFFFFFFFFFFFFFFFFFFFFFFFFFFFF AND DUP2 PUSH20 0xFFFFFFFFFFFFFFFFFFFFFFFFFFFFFFFFFFFFFFFF AND SUB PUSH3 0xB2 JUMPI PUSH0 PUSH1 0x40 MLOAD PUSH32 0x1E4FBDF700000000000000000000000000000000000000000000000000000000 DUP2 MSTORE PUSH1 0x4 ADD PUSH3 0xA9 SWAP2 SWAP1 PUSH3 0x897 JUMP JUMPDEST PUSH1 0x40 MLOAD DUP1 SWAP2 SUB SWAP1 REVERT JUMPDEST PUSH3 0xC3 DUP2 PUSH3 0x343 PUSH1 0x20 SHL PUSH1 0x20 SHR JUMP JUMPDEST POP PUSH3 0xE9 PUSH20 0x4300000000000000000000000000000000000002 PUSH3 0x404 PUSH1 0x20 SHL PUSH1 0x20 SHR JUMP JUMPDEST PUSH3 0xFA DUP3 PUSH3 0x536 PUSH1 0x20 SHL PUSH1 0x20 SHR JUMP JUMPDEST PUSH3 0x10B DUP2 PUSH3 0x5EA PUSH1 0x20 SHL PUSH1 0x20 SHR JUMP JUMPDEST PUSH3 0x151 PUSH1 0x40 MLOAD DUP1 PUSH1 0x40 ADD PUSH1 0x40 MSTORE DUP1 PUSH1 0x3 DUP2 MSTORE PUSH1 0x20 ADD PUSH32 0x4345580000000000000000000000000000000000000000000000000000000000 DUP2 MSTORE POP PUSH3 0x69E PUSH1 0x20 SHL PUSH1 0x20 SHR JUMP JUMPDEST PUSH3 0x197 PUSH1 0x40 MLOAD DUP1 PUSH1 0x40 ADD PUSH1 0x40 MSTORE DUP1 PUSH1 0x3 DUP2 MSTORE PUSH1 0x20 ADD PUSH32 0x4445580000000000000000000000000000000000000000000000000000000000 DUP2 MSTORE POP PUSH3 0x69E PUSH1 0x20 SHL PUSH1 0x20 SHR JUMP JUMPDEST PUSH3 0x1DD PUSH1 0x40 MLOAD DUP1 PUSH1 0x40 ADD PUSH1 0x40 MSTORE DUP1 PUSH1 0x4 DUP2 MSTORE PUSH1 0x20 ADD PUSH32 0x4D49534300000000000000000000000000000000000000000000000000000000 DUP2 MSTORE POP PUSH3 0x69E PUSH1 0x20 SHL PUSH1 0x20 SHR JUMP JUMPDEST PUSH3 0x223 PUSH1 0x40 MLOAD DUP1 PUSH1 0x40 ADD PUSH1 0x40 MSTORE DUP1 PUSH1 0xC DUP2 MSTORE PUSH1 0x20 ADD PUSH32 0x46656520446973636F756E740000000000000000000000000000000000000000 DUP2 MSTORE POP PUSH3 0x6D5 PUSH1 0x20 SHL PUSH1 0x20 SHR JUMP JUMPDEST PUSH3 0x269 PUSH1 0x40 MLOAD DUP1 PUSH1 0x40 ADD PUSH1 0x40 MSTORE DUP1 PUSH1 0x4 DUP2 MSTORE PUSH1 0x20 ADD PUSH32 0x5553445400000000000000000000000000000000000000000000000000000000 DUP2 MSTORE POP PUSH3 0x6D5 PUSH1 0x20 SHL PUSH1 0x20 SHR JUMP JUMPDEST PUSH3 0x2AF PUSH1 0x40 MLOAD DUP1 PUSH1 0x40 ADD PUSH1 0x40 MSTORE DUP1 PUSH1 0x4 DUP2 MSTORE PUSH1 0x20 ADD PUSH32 0x5553444300000000000000000000000000000000000000000000000000000000 DUP2 MSTORE POP PUSH3 0x6D5 PUSH1 0x20 SHL PUSH1 0x20 SHR JUMP JUMPDEST PUSH3 0x2F5 PUSH1 0x40 MLOAD DUP1 PUSH1 0x40 ADD PUSH1 0x40 MSTORE DUP1 PUSH1 0x3 DUP2 MSTORE PUSH1 0x20 ADD PUSH32 0x4254430000000000000000000000000000000000000000000000000000000000 DUP2 MSTORE POP PUSH3 0x6D5 PUSH1 0x20 SHL PUSH1 0x20 SHR JUMP JUMPDEST PUSH3 0x33B PUSH1 0x40 MLOAD DUP1 PUSH1 0x40 ADD PUSH1 0x40 MSTORE DUP1 PUSH1 0x3 DUP2 MSTORE PUSH1 0x20 ADD PUSH32 0x4554480000000000000000000000000000000000000000000000000000000000 DUP2 MSTORE POP PUSH3 0x6D5 PUSH1 0x20 SHL PUSH1 0x20 SHR JUMP JUMPDEST POP POP PUSH3 0xBFA JUMP JUMPDEST PUSH0 DUP1 PUSH0 SWAP1 SLOAD SWAP1 PUSH2 0x100 EXP SWAP1 DIV PUSH20 0xFFFFFFFFFFFFFFFFFFFFFFFFFFFFFFFFFFFFFFFF AND SWAP1 POP DUP2 PUSH0 DUP1 PUSH2 0x100 EXP DUP2 SLOAD DUP2 PUSH20 0xFFFFFFFFFFFFFFFFFFFFFFFFFFFFFFFFFFFFFFFF MUL NOT AND SWAP1 DUP4 PUSH20 0xFFFFFFFFFFFFFFFFFFFFFFFFFFFFFFFFFFFFFFFF AND MUL OR SWAP1 SSTORE POP DUP2 PUSH20 0xFFFFFFFFFFFFFFFFFFFFFFFFFFFFFFFFFFFFFFFF AND DUP2 PUSH20 0xFFFFFFFFFFFFFFFFFFFFFFFFFFFFFFFFFFFFFFFF AND PUSH32 0x8BE0079C531659141344CD1FD0A4F28419497F9722A3DAAFE3B4186F6B6457E0 PUSH1 0x40 MLOAD PUSH1 0x40 MLOAD DUP1 SWAP2 SUB SWAP1 LOG3 POP POP JUMP JUMPDEST PUSH3 0x414 PUSH3 0x70C PUSH1 0x20 SHL PUSH1 0x20 SHR JUMP JUMPDEST DUP1 PUSH1 0x4 PUSH0 PUSH2 0x100 EXP DUP2 SLOAD DUP2 PUSH20 0xFFFFFFFFFFFFFFFFFFFFFFFFFFFFFFFFFFFFFFFF MUL NOT AND SWAP1 DUP4 PUSH20 0xFFFFFFFFFFFFFFFFFFFFFFFFFFFFFFFFFFFFFFFF AND MUL OR SWAP1 SSTORE POP PUSH1 0x4 PUSH0 SWAP1 SLOAD SWAP1 PUSH2 0x100 EXP SWAP1 DIV PUSH20 0xFFFFFFFFFFFFFFFFFFFFFFFFFFFFFFFFFFFFFFFF AND PUSH1 0x1 PUSH0 PUSH2 0x100 EXP DUP2 SLOAD DUP2 PUSH20 0xFFFFFFFFFFFFFFFFFFFFFFFFFFFFFFFFFFFFFFFF MUL NOT AND SWAP1 DUP4 PUSH20 0xFFFFFFFFFFFFFFFFFFFFFFFFFFFFFFFFFFFFFFFF AND MUL OR SWAP1 SSTORE POP PUSH1 0x1 PUSH0 SWAP1 SLOAD SWAP1 PUSH2 0x100 EXP SWAP1 DIV PUSH20 0xFFFFFFFFFFFFFFFFFFFFFFFFFFFFFFFFFFFFFFFF AND PUSH20 0xFFFFFFFFFFFFFFFFFFFFFFFFFFFFFFFFFFFFFFFF AND PUSH4 0x4E606C47 PUSH1 0x40 MLOAD DUP2 PUSH4 0xFFFFFFFF AND PUSH1 0xE0 SHL DUP2 MSTORE PUSH1 0x4 ADD PUSH0 PUSH1 0x40 MLOAD DUP1 DUP4 SUB DUP2 PUSH0 DUP8 DUP1 EXTCODESIZE ISZERO DUP1 ISZERO PUSH3 0x51C JUMPI PUSH0 DUP1 REVERT JUMPDEST POP GAS CALL ISZERO DUP1 ISZERO PUSH3 0x52F JUMPI RETURNDATASIZE PUSH0 DUP1 RETURNDATACOPY RETURNDATASIZE PUSH0 REVERT JUMPDEST POP POP POP POP POP JUMP JUMPDEST PUSH3 0x546 PUSH3 0x70C PUSH1 0x20 SHL PUSH1 0x20 SHR JUMP JUMPDEST DUP1 PUSH1 0x5 PUSH0 PUSH2 0x100 EXP DUP2 SLOAD DUP2 PUSH20 0xFFFFFFFFFFFFFFFFFFFFFFFFFFFFFFFFFFFFFFFF MUL NOT AND SWAP1 DUP4 PUSH20 0xFFFFFFFFFFFFFFFFFFFFFFFFFFFFFFFFFFFFFFFF AND MUL OR SWAP1 SSTORE POP PUSH1 0x5 PUSH0 SWAP1 SLOAD SWAP1 PUSH2 0x100 EXP SWAP1 DIV PUSH20 0xFFFFFFFFFFFFFFFFFFFFFFFFFFFFFFFFFFFFFFFF AND PUSH1 0x2 PUSH0 PUSH2 0x100 EXP DUP2 SLOAD DUP2 PUSH20 0xFFFFFFFFFFFFFFFFFFFFFFFFFFFFFFFFFFFFFFFF MUL NOT AND SWAP1 DUP4 PUSH20 0xFFFFFFFFFFFFFFFFFFFFFFFFFFFFFFFFFFFFFFFF AND MUL OR SWAP1 SSTORE POP POP JUMP JUMPDEST PUSH3 0x5FA PUSH3 0x70C PUSH1 0x20 SHL PUSH1 0x20 SHR JUMP JUMPDEST DUP1 PUSH1 0x6 PUSH0 PUSH2 0x100 EXP DUP2 SLOAD DUP2 PUSH20 0xFFFFFFFFFFFFFFFFFFFFFFFFFFFFFFFFFFFFFFFF MUL NOT AND SWAP1 DUP4 PUSH20 0xFFFFFFFFFFFFFFFFFFFFFFFFFFFFFFFFFFFFFFFF AND MUL OR SWAP1 SSTORE POP PUSH1 0x6 PUSH0 SWAP1 SLOAD SWAP1 PUSH2 0x100 EXP SWAP1 DIV PUSH20 0xFFFFFFFFFFFFFFFFFFFFFFFFFFFFFFFFFFFFFFFF AND PUSH1 0x3 PUSH0 PUSH2 0x100 EXP DUP2 SLOAD DUP2 PUSH20 0xFFFFFFFFFFFFFFFFFFFFFFFFFFFFFFFFFFFFFFFF MUL NOT AND SWAP1 DUP4 PUSH20 0xFFFFFFFFFFFFFFFFFFFFFFFFFFFFFFFFFFFFFFFF AND MUL OR SWAP1 SSTORE POP POP JUMP JUMPDEST PUSH1 0x7 DUP2 SWAP1 DUP1 PUSH1 0x1 DUP2 SLOAD ADD DUP1 DUP3 SSTORE DUP1 SWAP2 POP POP PUSH1 0x1 SWAP1 SUB SWAP1 PUSH0 MSTORE PUSH1 0x20 PUSH0 KECCAK256 ADD PUSH0 SWAP1 SWAP2 SWAP1 SWAP2 SWAP1 SWAP2 POP SWAP1 DUP2 PUSH3 0x6D1 SWAP2 SWAP1 PUSH3 0xB16 JUMP JUMPDEST POP POP JUMP JUMPDEST PUSH1 0x8 DUP2 SWAP1 DUP1 PUSH1 0x1 DUP2 SLOAD ADD DUP1 DUP3 SSTORE DUP1 SWAP2 POP POP PUSH1 0x1 SWAP1 SUB SWAP1 PUSH0 MSTORE PUSH1 0x20 PUSH0 KECCAK256 ADD PUSH0 SWAP1 SWAP2 SWAP1 SWAP2 SWAP1 SWAP2 POP SWAP1 DUP2 PUSH3 0x708 SWAP2 SWAP1 PUSH3 0xB16 JUMP JUMPDEST POP POP JUMP JUMPDEST PUSH3 0x71C PUSH3 0x7AE PUSH1 0x20 SHL PUSH1 0x20 SHR JUMP JUMPDEST PUSH20 0xFFFFFFFFFFFFFFFFFFFFFFFFFFFFFFFFFFFFFFFF AND PUSH3 0x742 PUSH3 0x7B5 PUSH1 0x20 SHL PUSH1 0x20 SHR JUMP JUMPDEST PUSH20 0xFFFFFFFFFFFFFFFFFFFFFFFFFFFFFFFFFFFFFFFF AND EQ PUSH3 0x7AC JUMPI PUSH3 0x76E PUSH3 0x7AE PUSH1 0x20 SHL PUSH1 0x20 SHR JUMP JUMPDEST PUSH1 0x40 MLOAD PUSH32 0x118CDAA700000000000000000000000000000000000000000000000000000000 DUP2 MSTORE PUSH1 0x4 ADD PUSH3 0x7A3 SWAP2 SWAP1 PUSH3 0x897 JUMP JUMPDEST PUSH1 0x40 MLOAD DUP1 SWAP2 SUB SWAP1 REVERT JUMPDEST JUMP JUMPDEST PUSH0 CALLER SWAP1 POP SWAP1 JUMP JUMPDEST PUSH0 DUP1 PUSH0 SWAP1 SLOAD SWAP1 PUSH2 0x100 EXP SWAP1 DIV PUSH20 0xFFFFFFFFFFFFFFFFFFFFFFFFFFFFFFFFFFFFFFFF AND SWAP1 POP SWAP1 JUMP JUMPDEST PUSH0 DUP1 REVERT JUMPDEST PUSH0 PUSH20 0xFFFFFFFFFFFFFFFFFFFFFFFFFFFFFFFFFFFFFFFF DUP3 AND SWAP1 POP SWAP2 SWAP1 POP JUMP JUMPDEST PUSH0 PUSH3 0x80B DUP3 PUSH3 0x7E0 JUMP JUMPDEST SWAP1 POP SWAP2 SWAP1 POP JUMP JUMPDEST PUSH3 0x81D DUP2 PUSH3 0x7FF JUMP JUMPDEST DUP2 EQ PUSH3 0x828 JUMPI PUSH0 DUP1 REVERT JUMPDEST POP JUMP JUMPDEST PUSH0 DUP2 MLOAD SWAP1 POP PUSH3 0x83B DUP2 PUSH3 0x812 JUMP JUMPDEST SWAP3 SWAP2 POP POP JUMP JUMPDEST PUSH0 DUP1 PUSH1 0x40 DUP4 DUP6 SUB SLT ISZERO PUSH3 0x85A JUMPI PUSH3 0x859 PUSH3 0x7DC JUMP JUMPDEST JUMPDEST PUSH0 PUSH3 0x869 DUP6 DUP3 DUP7 ADD PUSH3 0x82B JUMP JUMPDEST SWAP3 POP POP PUSH1 0x20 PUSH3 0x87C DUP6 DUP3 DUP7 ADD PUSH3 0x82B JUMP JUMPDEST SWAP2 POP POP SWAP3 POP SWAP3 SWAP1 POP JUMP JUMPDEST PUSH3 0x891 DUP2 PUSH3 0x7FF JUMP JUMPDEST DUP3 MSTORE POP POP JUMP JUMPDEST PUSH0 PUSH1 0x20 DUP3 ADD SWAP1 POP PUSH3 0x8AC PUSH0 DUP4 ADD DUP5 PUSH3 0x886 JUMP JUMPDEST SWAP3 SWAP2 POP POP JUMP JUMPDEST PUSH0 DUP2 MLOAD SWAP1 POP SWAP2 SWAP1 POP JUMP JUMPDEST PUSH32 0x4E487B7100000000000000000000000000000000000000000000000000000000 PUSH0 MSTORE PUSH1 0x41 PUSH1 0x4 MSTORE PUSH1 0x24 PUSH0 REVERT JUMPDEST PUSH32 0x4E487B7100000000000000000000000000000000000000000000000000000000 PUSH0 MSTORE PUSH1 0x22 PUSH1 0x4 MSTORE PUSH1 0x24 PUSH0 REVERT JUMPDEST PUSH0 PUSH1 0x2 DUP3 DIV SWAP1 POP PUSH1 0x1 DUP3 AND DUP1 PUSH3 0x92E JUMPI PUSH1 0x7F DUP3 AND SWAP2 POP JUMPDEST PUSH1 0x20 DUP3 LT DUP2 SUB PUSH3 0x944 JUMPI PUSH3 0x943 PUSH3 0x8E9 JUMP JUMPDEST JUMPDEST POP SWAP2 SWAP1 POP JUMP JUMPDEST PUSH0 DUP2 SWAP1 POP DUP2 PUSH0 MSTORE PUSH1 0x20 PUSH0 KECCAK256 SWAP1 POP SWAP2 SWAP1 POP JUMP JUMPDEST PUSH0 PUSH1 0x20 PUSH1 0x1F DUP4 ADD DIV SWAP1 POP SWAP2 SWAP1 POP JUMP JUMPDEST PUSH0 DUP3 DUP3 SHL SWAP1 POP SWAP3 SWAP2 POP POP JUMP JUMPDEST PUSH0 PUSH1 0x8 DUP4 MUL PUSH3 0x9A8 PUSH32 0xFFFFFFFFFFFFFFFFFFFFFFFFFFFFFFFFFFFFFFFFFFFFFFFFFFFFFFFFFFFFFFFF DUP3 PUSH3 0x96B JUMP JUMPDEST PUSH3 0x9B4 DUP7 DUP4 PUSH3 0x96B JUMP JUMPDEST SWAP6 POP DUP1 NOT DUP5 AND SWAP4 POP DUP1 DUP7 AND DUP5 OR SWAP3 POP POP POP SWAP4 SWAP3 POP POP POP JUMP JUMPDEST PUSH0 DUP2 SWAP1 POP SWAP2 SWAP1 POP JUMP JUMPDEST PUSH0 DUP2 SWAP1 POP SWAP2 SWAP1 POP JUMP JUMPDEST PUSH0 PUSH3 0x9FE PUSH3 0x9F8 PUSH3 0x9F2 DUP5 PUSH3 0x9CC JUMP JUMPDEST PUSH3 0x9D5 JUMP JUMPDEST PUSH3 0x9CC JUMP JUMPDEST SWAP1 POP SWAP2 SWAP1 POP JUMP JUMPDEST PUSH0 DUP2 SWAP1 POP SWAP2 SWAP1 POP JUMP JUMPDEST PUSH3 0xA19 DUP4 PUSH3 0x9DE JUMP JUMPDEST PUSH3 0xA31 PUSH3 0xA28 DUP3 PUSH3 0xA05 JUMP JUMPDEST DUP5 DUP5 SLOAD PUSH3 0x977 JUMP JUMPDEST DUP3 SSTORE POP POP POP POP JUMP JUMPDEST PUSH0 SWAP1 JUMP JUMPDEST PUSH3 0xA47 PUSH3 0xA39 JUMP JUMPDEST PUSH3 0xA54 DUP2 DUP5 DUP5 PUSH3 0xA0E JUMP JUMPDEST POP POP POP JUMP JUMPDEST JUMPDEST DUP2 DUP2 LT ISZERO PUSH3 0xA7B JUMPI PUSH3 0xA6F PUSH0 DUP3 PUSH3 0xA3D JUMP JUMPDEST PUSH1 0x1 DUP2 ADD SWAP1 POP PUSH3 0xA5A JUMP JUMPDEST POP POP JUMP JUMPDEST PUSH1 0x1F DUP3 GT ISZERO PUSH3 0xACA JUMPI PUSH3 0xA94 DUP2 PUSH3 0x94A JUMP JUMPDEST PUSH3 0xA9F DUP5 PUSH3 0x95C JUMP JUMPDEST DUP2 ADD PUSH1 0x20 DUP6 LT ISZERO PUSH3 0xAAF JUMPI DUP2 SWAP1 POP JUMPDEST PUSH3 0xAC7 PUSH3 0xABE DUP6 PUSH3 0x95C JUMP JUMPDEST DUP4 ADD DUP3 PUSH3 0xA59 JUMP JUMPDEST POP POP JUMPDEST POP POP POP JUMP JUMPDEST PUSH0 DUP3 DUP3 SHR SWAP1 POP SWAP3 SWAP2 POP POP JUMP JUMPDEST PUSH0 PUSH3 0xAEC PUSH0 NOT DUP5 PUSH1 0x8 MUL PUSH3 0xACF JUMP JUMPDEST NOT DUP1 DUP4 AND SWAP2 POP POP SWAP3 SWAP2 POP POP JUMP JUMPDEST PUSH0 PUSH3 0xB06 DUP4 DUP4 PUSH3 0xADB JUMP JUMPDEST SWAP2 POP DUP3 PUSH1 0x2 MUL DUP3 OR SWAP1 POP SWAP3 SWAP2 POP POP JUMP JUMPDEST PUSH3 0xB21 DUP3 PUSH3 0x8B2 JUMP JUMPDEST PUSH8 0xFFFFFFFFFFFFFFFF DUP2 GT ISZERO PUSH3 0xB3D JUMPI PUSH3 0xB3C PUSH3 0x8BC JUMP JUMPDEST JUMPDEST PUSH3 0xB49 DUP3 SLOAD PUSH3 0x916 JUMP JUMPDEST PUSH3 0xB56 DUP3 DUP3 DUP6 PUSH3 0xA7F JUMP JUMPDEST PUSH0 PUSH1 0x20 SWAP1 POP PUSH1 0x1F DUP4 GT PUSH1 0x1 DUP2 EQ PUSH3 0xB8C JUMPI PUSH0 DUP5 ISZERO PUSH3 0xB77 JUMPI DUP3 DUP8 ADD MLOAD SWAP1 POP JUMPDEST PUSH3 0xB83 DUP6 DUP3 PUSH3 0xAF9 JUMP JUMPDEST DUP7 SSTORE POP PUSH3 0xBF2 JUMP JUMPDEST PUSH1 0x1F NOT DUP5 AND PUSH3 0xB9C DUP7 PUSH3 0x94A JUMP JUMPDEST PUSH0 JUMPDEST DUP3 DUP2 LT ISZERO PUSH3 0xBC5 JUMPI DUP5 DUP10 ADD MLOAD DUP3 SSTORE PUSH1 0x1 DUP3 ADD SWAP2 POP PUSH1 0x20 DUP6 ADD SWAP5 POP PUSH1 0x20 DUP2 ADD SWAP1 POP PUSH3 0xB9E JUMP JUMPDEST DUP7 DUP4 LT ISZERO PUSH3 0xBE5 JUMPI DUP5 DUP10 ADD MLOAD PUSH3 0xBE1 PUSH1 0x1F DUP10 AND DUP3 PUSH3 0xADB JUMP JUMPDEST DUP4 SSTORE POP JUMPDEST PUSH1 0x1 PUSH1 0x2 DUP9 MUL ADD DUP9 SSTORE POP POP POP JUMPDEST POP POP POP POP POP POP JUMP JUMPDEST PUSH2 0x5A39 DUP1 PUSH3 0xC08 PUSH0 CODECOPY PUSH0 RETURN INVALID PUSH1 0x80 PUSH1 0x40 MSTORE CALLVALUE DUP1 ISZERO PUSH2 0xF JUMPI PUSH0 DUP1 REVERT JUMPDEST POP PUSH1 0x4 CALLDATASIZE LT PUSH2 0x1C2 JUMPI PUSH0 CALLDATALOAD PUSH1 0xE0 SHR DUP1 PUSH4 0x7C7A61D5 GT PUSH2 0xF7 JUMPI DUP1 PUSH4 0xB0B8A591 GT PUSH2 0x95 JUMPI DUP1 PUSH4 0xBAF54708 GT PUSH2 0x6F JUMPI DUP1 PUSH4 0xBAF54708 EQ PUSH2 0x4A7 JUMPI DUP1 PUSH4 0xCDB219C5 EQ PUSH2 0x4D7 JUMPI DUP1 PUSH4 0xE6C227CE EQ PUSH2 0x4F5 JUMPI DUP1 PUSH4 0xF2FDE38B EQ PUSH2 0x513 JUMPI PUSH2 0x1C2 JUMP JUMPDEST DUP1 PUSH4 0xB0B8A591 EQ PUSH2 0x43D JUMPI DUP1 PUSH4 0xB5394D1F EQ PUSH2 0x46D JUMPI DUP1 PUSH4 0xB762EE79 EQ PUSH2 0x489 JUMPI PUSH2 0x1C2 JUMP JUMPDEST DUP1 PUSH4 0x9CABFF66 GT PUSH2 0xD1 JUMPI DUP1 PUSH4 0x9CABFF66 EQ PUSH2 0x3B5 JUMPI DUP1 PUSH4 0x9D443A00 EQ PUSH2 0x3D3 JUMPI DUP1 PUSH4 0x9E6977F4 EQ PUSH2 0x403 JUMPI DUP1 PUSH4 0xA3B6710C EQ PUSH2 0x421 JUMPI PUSH2 0x1C2 JUMP JUMPDEST DUP1 PUSH4 0x7C7A61D5 EQ PUSH2 0x34B JUMPI DUP1 PUSH4 0x8DA5CB5B EQ PUSH2 0x367 JUMPI DUP1 PUSH4 0x9B174DC0 EQ PUSH2 0x385 JUMPI PUSH2 0x1C2 JUMP JUMPDEST DUP1 PUSH4 0x4B36859E GT PUSH2 0x164 JUMPI DUP1 PUSH4 0x6100F951 GT PUSH2 0x13E JUMPI DUP1 PUSH4 0x6100F951 EQ PUSH2 0x2FD JUMPI DUP1 PUSH4 0x645DD1FA EQ PUSH2 0x31B JUMPI DUP1 PUSH4 0x6FF9E1B3 EQ PUSH2 0x325 JUMPI DUP1 PUSH4 0x715018A6 EQ PUSH2 0x341 JUMPI PUSH2 0x1C2 JUMP JUMPDEST DUP1 PUSH4 0x4B36859E EQ PUSH2 0x2A7 JUMPI DUP1 PUSH4 0x5992DF6B EQ PUSH2 0x2C3 JUMPI DUP1 PUSH4 0x5F897959 EQ PUSH2 0x2E1 JUMPI PUSH2 0x1C2 JUMP JUMPDEST DUP1 PUSH4 0x20DACB98 GT PUSH2 0x1A0 JUMPI DUP1 PUSH4 0x20DACB98 EQ PUSH2 0x230 JUMPI DUP1 PUSH4 0x2CFEBE0A EQ PUSH2 0x24C JUMPI DUP1 PUSH4 0x34138BAB EQ PUSH2 0x268 JUMPI DUP1 PUSH4 0x491AE348 EQ PUSH2 0x286 JUMPI PUSH2 0x1C2 JUMP JUMPDEST DUP1 PUSH4 0x3CA540B EQ PUSH2 0x1C6 JUMPI DUP1 PUSH4 0x92B2410 EQ PUSH2 0x1E2 JUMPI DUP1 PUSH4 0xEE524E2 EQ PUSH2 0x200 JUMPI JUMPDEST PUSH0 DUP1 REVERT JUMPDEST PUSH2 0x1E0 PUSH1 0x4 DUP1 CALLDATASIZE SUB DUP2 ADD SWAP1 PUSH2 0x1DB SWAP2 SWAP1 PUSH2 0x427F JUMP JUMPDEST PUSH2 0x52F JUMP JUMPDEST STOP JUMPDEST PUSH2 0x1EA PUSH2 0x5DB JUMP JUMPDEST PUSH1 0x40 MLOAD PUSH2 0x1F7 SWAP2 SWAP1 PUSH2 0x42C2 JUMP JUMPDEST PUSH1 0x40 MLOAD DUP1 SWAP2 SUB SWAP1 RETURN JUMPDEST PUSH2 0x21A PUSH1 0x4 DUP1 CALLDATASIZE SUB DUP2 ADD SWAP1 PUSH2 0x215 SWAP2 SWAP1 PUSH2 0x4305 JUMP JUMPDEST PUSH2 0x5EB JUMP JUMPDEST PUSH1 0x40 MLOAD PUSH2 0x227 SWAP2 SWAP1 PUSH2 0x4553 JUMP JUMPDEST PUSH1 0x40 MLOAD DUP1 SWAP2 SUB SWAP1 RETURN JUMPDEST PUSH2 0x24A PUSH1 0x4 DUP1 CALLDATASIZE SUB DUP2 ADD SWAP1 PUSH2 0x245 SWAP2 SWAP1 PUSH2 0x469F JUMP JUMPDEST PUSH2 0x9F2 JUMP JUMPDEST STOP JUMPDEST PUSH2 0x266 PUSH1 0x4 DUP1 CALLDATASIZE SUB DUP2 ADD SWAP1 PUSH2 0x261 SWAP2 SWAP1 PUSH2 0x4305 JUMP JUMPDEST PUSH2 0xA06 JUMP JUMPDEST STOP JUMPDEST PUSH2 0x270 PUSH2 0xE86 JUMP JUMPDEST PUSH1 0x40 MLOAD PUSH2 0x27D SWAP2 SWAP1 PUSH2 0x47A1 JUMP JUMPDEST PUSH1 0x40 MLOAD DUP1 SWAP2 SUB SWAP1 RETURN JUMPDEST PUSH2 0x28E PUSH2 0xF5A JUMP JUMPDEST PUSH1 0x40 MLOAD PUSH2 0x29E SWAP5 SWAP4 SWAP3 SWAP2 SWAP1 PUSH2 0x4807 JUMP JUMPDEST PUSH1 0x40 MLOAD DUP1 SWAP2 SUB SWAP1 RETURN JUMPDEST PUSH2 0x2C1 PUSH1 0x4 DUP1 CALLDATASIZE SUB DUP2 ADD SWAP1 PUSH2 0x2BC SWAP2 SWAP1 PUSH2 0x4305 JUMP JUMPDEST PUSH2 0x100D JUMP JUMPDEST STOP JUMPDEST PUSH2 0x2CB PUSH2 0x11BA JUMP JUMPDEST PUSH1 0x40 MLOAD PUSH2 0x2D8 SWAP2 SWAP1 PUSH2 0x4A0D JUMP JUMPDEST PUSH1 0x40 MLOAD DUP1 SWAP2 SUB SWAP1 RETURN JUMPDEST PUSH2 0x2FB PUSH1 0x4 DUP1 CALLDATASIZE SUB DUP2 ADD SWAP1 PUSH2 0x2F6 SWAP2 SWAP1 PUSH2 0x469F JUMP JUMPDEST PUSH2 0x1663 JUMP JUMPDEST STOP JUMPDEST PUSH2 0x305 PUSH2 0x1677 JUMP JUMPDEST PUSH1 0x40 MLOAD PUSH2 0x312 SWAP2 SWAP1 PUSH2 0x4A3C JUMP JUMPDEST PUSH1 0x40 MLOAD DUP1 SWAP2 SUB SWAP1 RETURN JUMPDEST PUSH2 0x323 PUSH2 0x169F JUMP JUMPDEST STOP JUMPDEST PUSH2 0x33F PUSH1 0x4 DUP1 CALLDATASIZE SUB DUP2 ADD SWAP1 PUSH2 0x33A SWAP2 SWAP1 PUSH2 0x427F JUMP JUMPDEST PUSH2 0x1746 JUMP JUMPDEST STOP JUMPDEST PUSH2 0x349 PUSH2 0x186E JUMP JUMPDEST STOP JUMPDEST PUSH2 0x365 PUSH1 0x4 DUP1 CALLDATASIZE SUB DUP2 ADD SWAP1 PUSH2 0x360 SWAP2 SWAP1 PUSH2 0x427F JUMP JUMPDEST PUSH2 0x1881 JUMP JUMPDEST STOP JUMPDEST PUSH2 0x36F PUSH2 0x192D JUMP JUMPDEST PUSH1 0x40 MLOAD PUSH2 0x37C SWAP2 SWAP1 PUSH2 0x4A3C JUMP JUMPDEST PUSH1 0x40 MLOAD DUP1 SWAP2 SUB SWAP1 RETURN JUMPDEST PUSH2 0x39F PUSH1 0x4 DUP1 CALLDATASIZE SUB DUP2 ADD SWAP1 PUSH2 0x39A SWAP2 SWAP1 PUSH2 0x427F JUMP JUMPDEST PUSH2 0x1954 JUMP JUMPDEST PUSH1 0x40 MLOAD PUSH2 0x3AC SWAP2 SWAP1 PUSH2 0x4A0D JUMP JUMPDEST PUSH1 0x40 MLOAD DUP1 SWAP2 SUB SWAP1 RETURN JUMPDEST PUSH2 0x3BD PUSH2 0x1E4E JUMP JUMPDEST PUSH1 0x40 MLOAD PUSH2 0x3CA SWAP2 SWAP1 PUSH2 0x47A1 JUMP JUMPDEST PUSH1 0x40 MLOAD DUP1 SWAP2 SUB SWAP1 RETURN JUMPDEST PUSH2 0x3ED PUSH1 0x4 DUP1 CALLDATASIZE SUB DUP2 ADD SWAP1 PUSH2 0x3E8 SWAP2 SWAP1 PUSH2 0x427F JUMP JUMPDEST PUSH2 0x1F22 JUMP JUMPDEST PUSH1 0x40 MLOAD PUSH2 0x3FA SWAP2 SWAP1 PUSH2 0x42C2 JUMP JUMPDEST PUSH1 0x40 MLOAD DUP1 SWAP2 SUB SWAP1 RETURN JUMPDEST PUSH2 0x40B PUSH2 0x1F68 JUMP JUMPDEST PUSH1 0x40 MLOAD PUSH2 0x418 SWAP2 SWAP1 PUSH2 0x4A3C JUMP JUMPDEST PUSH1 0x40 MLOAD DUP1 SWAP2 SUB SWAP1 RETURN JUMPDEST PUSH2 0x43B PUSH1 0x4 DUP1 CALLDATASIZE SUB DUP2 ADD SWAP1 PUSH2 0x436 SWAP2 SWAP1 PUSH2 0x4305 JUMP JUMPDEST PUSH2 0x1F90 JUMP JUMPDEST STOP JUMPDEST PUSH2 0x457 PUSH1 0x4 DUP1 CALLDATASIZE SUB DUP2 ADD SWAP1 PUSH2 0x452 SWAP2 SWAP1 PUSH2 0x4A55 JUMP JUMPDEST PUSH2 0x209E JUMP JUMPDEST PUSH1 0x40 MLOAD PUSH2 0x464 SWAP2 SWAP1 PUSH2 0x42C2 JUMP JUMPDEST PUSH1 0x40 MLOAD DUP1 SWAP2 SUB SWAP1 RETURN JUMPDEST PUSH2 0x487 PUSH1 0x4 DUP1 CALLDATASIZE SUB DUP2 ADD SWAP1 PUSH2 0x482 SWAP2 SWAP1 PUSH2 0x4B7E JUMP JUMPDEST PUSH2 0x2610 JUMP JUMPDEST STOP JUMPDEST PUSH2 0x491 PUSH2 0x272D JUMP JUMPDEST PUSH1 0x40 MLOAD PUSH2 0x49E SWAP2 SWAP1 PUSH2 0x4A0D JUMP JUMPDEST PUSH1 0x40 MLOAD DUP1 SWAP2 SUB SWAP1 RETURN JUMPDEST PUSH2 0x4C1 PUSH1 0x4 DUP1 CALLDATASIZE SUB DUP2 ADD SWAP1 PUSH2 0x4BC SWAP2 SWAP1 PUSH2 0x4305 JUMP JUMPDEST PUSH2 0x2BD0 JUMP JUMPDEST PUSH1 0x40 MLOAD PUSH2 0x4CE SWAP2 SWAP1 PUSH2 0x4C7F JUMP JUMPDEST PUSH1 0x40 MLOAD DUP1 SWAP2 SUB SWAP1 RETURN JUMPDEST PUSH2 0x4DF PUSH2 0x2DCC JUMP JUMPDEST PUSH1 0x40 MLOAD PUSH2 0x4EC SWAP2 SWAP1 PUSH2 0x4A3C JUMP JUMPDEST PUSH1 0x40 MLOAD DUP1 SWAP2 SUB SWAP1 RETURN JUMPDEST PUSH2 0x4FD PUSH2 0x2DF4 JUMP JUMPDEST PUSH1 0x40 MLOAD PUSH2 0x50A SWAP2 SWAP1 PUSH2 0x42C2 JUMP JUMPDEST PUSH1 0x40 MLOAD DUP1 SWAP2 SUB SWAP1 RETURN JUMPDEST PUSH2 0x52D PUSH1 0x4 DUP1 CALLDATASIZE SUB DUP2 ADD SWAP1 PUSH2 0x528 SWAP2 SWAP1 PUSH2 0x427F JUMP JUMPDEST PUSH2 0x2DFD JUMP JUMPDEST STOP JUMPDEST PUSH2 0x537 PUSH2 0x2E81 JUMP JUMPDEST DUP1 PUSH1 0x6 PUSH0 PUSH2 0x100 EXP DUP2 SLOAD DUP2 PUSH20 0xFFFFFFFFFFFFFFFFFFFFFFFFFFFFFFFFFFFFFFFF MUL NOT AND SWAP1 DUP4 PUSH20 0xFFFFFFFFFFFFFFFFFFFFFFFFFFFFFFFFFFFFFFFF AND MUL OR SWAP1 SSTORE POP PUSH1 0x6 PUSH0 SWAP1 SLOAD SWAP1 PUSH2 0x100 EXP SWAP1 DIV PUSH20 0xFFFFFFFFFFFFFFFFFFFFFFFFFFFFFFFFFFFFFFFF AND PUSH1 0x3 PUSH0 PUSH2 0x100 EXP DUP2 SLOAD DUP2 PUSH20 0xFFFFFFFFFFFFFFFFFFFFFFFFFFFFFFFFFFFFFFFF MUL NOT AND SWAP1 DUP4 PUSH20 0xFFFFFFFFFFFFFFFFFFFFFFFFFFFFFFFFFFFFFFFF AND MUL OR SWAP1 SSTORE POP POP JUMP JUMPDEST PUSH0 PUSH2 0x5E6 PUSH1 0x1 PUSH2 0x2F08 JUMP JUMPDEST SWAP1 POP SWAP1 JUMP JUMPDEST PUSH2 0x5F3 PUSH2 0x4140 JUMP JUMPDEST PUSH0 PUSH1 0xA PUSH0 DUP5 DUP2 MSTORE PUSH1 0x20 ADD SWAP1 DUP2 MSTORE PUSH1 0x20 ADD PUSH0 KECCAK256 PUSH0 ADD SLOAD GT PUSH2 0x648 JUMPI PUSH1 0x40 MLOAD PUSH32 0x8C379A000000000000000000000000000000000000000000000000000000000 DUP2 MSTORE PUSH1 0x4 ADD PUSH2 0x63F SWAP1 PUSH2 0x4CF2 JUMP JUMPDEST PUSH1 0x40 MLOAD DUP1 SWAP2 SUB SWAP1 REVERT JUMPDEST PUSH1 0xA PUSH0 DUP4 DUP2 MSTORE PUSH1 0x20 ADD SWAP1 DUP2 MSTORE PUSH1 0x20 ADD PUSH0 KECCAK256 PUSH1 0x40 MLOAD DUP1 PUSH2 0x160 ADD PUSH1 0x40 MSTORE SWAP1 DUP2 PUSH0 DUP3 ADD SLOAD DUP2 MSTORE PUSH1 0x20 ADD PUSH1 0x1 DUP3 ADD DUP1 SLOAD PUSH2 0x67E SWAP1 PUSH2 0x4D3D JUMP JUMPDEST DUP1 PUSH1 0x1F ADD PUSH1 0x20 DUP1 SWAP2 DIV MUL PUSH1 0x20 ADD PUSH1 0x40 MLOAD SWAP1 DUP2 ADD PUSH1 0x40 MSTORE DUP1 SWAP3 SWAP2 SWAP1 DUP2 DUP2 MSTORE PUSH1 0x20 ADD DUP3 DUP1 SLOAD PUSH2 0x6AA SWAP1 PUSH2 0x4D3D JUMP JUMPDEST DUP1 ISZERO PUSH2 0x6F5 JUMPI DUP1 PUSH1 0x1F LT PUSH2 0x6CC JUMPI PUSH2 0x100 DUP1 DUP4 SLOAD DIV MUL DUP4 MSTORE SWAP2 PUSH1 0x20 ADD SWAP2 PUSH2 0x6F5 JUMP JUMPDEST DUP3 ADD SWAP2 SWAP1 PUSH0 MSTORE PUSH1 0x20 PUSH0 KECCAK256 SWAP1 JUMPDEST DUP2 SLOAD DUP2 MSTORE SWAP1 PUSH1 0x1 ADD SWAP1 PUSH1 0x20 ADD DUP1 DUP4 GT PUSH2 0x6D8 JUMPI DUP3 SWAP1 SUB PUSH1 0x1F AND DUP3 ADD SWAP2 JUMPDEST POP POP POP POP POP DUP2 MSTORE PUSH1 0x20 ADD PUSH1 0x2 DUP3 ADD DUP1 SLOAD PUSH2 0x70E SWAP1 PUSH2 0x4D3D JUMP JUMPDEST DUP1 PUSH1 0x1F ADD PUSH1 0x20 DUP1 SWAP2 DIV MUL PUSH1 0x20 ADD PUSH1 0x40 MLOAD SWAP1 DUP2 ADD PUSH1 0x40 MSTORE DUP1 SWAP3 SWAP2 SWAP1 DUP2 DUP2 MSTORE PUSH1 0x20 ADD DUP3 DUP1 SLOAD PUSH2 0x73A SWAP1 PUSH2 0x4D3D JUMP JUMPDEST DUP1 ISZERO PUSH2 0x785 JUMPI DUP1 PUSH1 0x1F LT PUSH2 0x75C JUMPI PUSH2 0x100 DUP1 DUP4 SLOAD DIV MUL DUP4 MSTORE SWAP2 PUSH1 0x20 ADD SWAP2 PUSH2 0x785 JUMP JUMPDEST DUP3 ADD SWAP2 SWAP1 PUSH0 MSTORE PUSH1 0x20 PUSH0 KECCAK256 SWAP1 JUMPDEST DUP2 SLOAD DUP2 MSTORE SWAP1 PUSH1 0x1 ADD SWAP1 PUSH1 0x20 ADD DUP1 DUP4 GT PUSH2 0x768 JUMPI DUP3 SWAP1 SUB PUSH1 0x1F AND DUP3 ADD SWAP2 JUMPDEST POP POP POP POP POP DUP2 MSTORE PUSH1 0x20 ADD PUSH1 0x3 DUP3 ADD DUP1 SLOAD PUSH2 0x79E SWAP1 PUSH2 0x4D3D JUMP JUMPDEST DUP1 PUSH1 0x1F ADD PUSH1 0x20 DUP1 SWAP2 DIV MUL PUSH1 0x20 ADD PUSH1 0x40 MLOAD SWAP1 DUP2 ADD PUSH1 0x40 MSTORE DUP1 SWAP3 SWAP2 SWAP1 DUP2 DUP2 MSTORE PUSH1 0x20 ADD DUP3 DUP1 SLOAD PUSH2 0x7CA SWAP1 PUSH2 0x4D3D JUMP JUMPDEST DUP1 ISZERO PUSH2 0x815 JUMPI DUP1 PUSH1 0x1F LT PUSH2 0x7EC JUMPI PUSH2 0x100 DUP1 DUP4 SLOAD DIV MUL DUP4 MSTORE SWAP2 PUSH1 0x20 ADD SWAP2 PUSH2 0x815 JUMP JUMPDEST DUP3 ADD SWAP2 SWAP1 PUSH0 MSTORE PUSH1 0x20 PUSH0 KECCAK256 SWAP1 JUMPDEST DUP2 SLOAD DUP2 MSTORE SWAP1 PUSH1 0x1 ADD SWAP1 PUSH1 0x20 ADD DUP1 DUP4 GT PUSH2 0x7F8 JUMPI DUP3 SWAP1 SUB PUSH1 0x1F AND DUP3 ADD SWAP2 JUMPDEST POP POP POP POP POP DUP2 MSTORE PUSH1 0x20 ADD PUSH1 0x4 DUP3 ADD SLOAD DUP2 MSTORE PUSH1 0x20 ADD PUSH1 0x5 DUP3 ADD PUSH0 SWAP1 SLOAD SWAP1 PUSH2 0x100 EXP SWAP1 DIV PUSH20 0xFFFFFFFFFFFFFFFFFFFFFFFFFFFFFFFFFFFFFFFF AND PUSH20 0xFFFFFFFFFFFFFFFFFFFFFFFFFFFFFFFFFFFFFFFF AND PUSH20 0xFFFFFFFFFFFFFFFFFFFFFFFFFFFFFFFFFFFFFFFF AND DUP2 MSTORE PUSH1 0x20 ADD PUSH1 0x6 DUP3 ADD DUP1 SLOAD PUSH2 0x88D SWAP1 PUSH2 0x4D3D JUMP JUMPDEST DUP1 PUSH1 0x1F ADD PUSH1 0x20 DUP1 SWAP2 DIV MUL PUSH1 0x20 ADD PUSH1 0x40 MLOAD SWAP1 DUP2 ADD PUSH1 0x40 MSTORE DUP1 SWAP3 SWAP2 SWAP1 DUP2 DUP2 MSTORE PUSH1 0x20 ADD DUP3 DUP1 SLOAD PUSH2 0x8B9 SWAP1 PUSH2 0x4D3D JUMP JUMPDEST DUP1 ISZERO PUSH2 0x904 JUMPI DUP1 PUSH1 0x1F LT PUSH2 0x8DB JUMPI PUSH2 0x100 DUP1 DUP4 SLOAD DIV MUL DUP4 MSTORE SWAP2 PUSH1 0x20 ADD SWAP2 PUSH2 0x904 JUMP JUMPDEST DUP3 ADD SWAP2 SWAP1 PUSH0 MSTORE PUSH1 0x20 PUSH0 KECCAK256 SWAP1 JUMPDEST DUP2 SLOAD DUP2 MSTORE SWAP1 PUSH1 0x1 ADD SWAP1 PUSH1 0x20 ADD DUP1 DUP4 GT PUSH2 0x8E7 JUMPI DUP3 SWAP1 SUB PUSH1 0x1F AND DUP3 ADD SWAP2 JUMPDEST POP POP POP POP POP DUP2 MSTORE PUSH1 0x20 ADD PUSH1 0x7 DUP3 ADD SLOAD DUP2 MSTORE PUSH1 0x20 ADD PUSH1 0x8 DUP3 ADD DUP1 SLOAD PUSH2 0x927 SWAP1 PUSH2 0x4D3D JUMP JUMPDEST DUP1 PUSH1 0x1F ADD PUSH1 0x20 DUP1 SWAP2 DIV MUL PUSH1 0x20 ADD PUSH1 0x40 MLOAD SWAP1 DUP2 ADD PUSH1 0x40 MSTORE DUP1 SWAP3 SWAP2 SWAP1 DUP2 DUP2 MSTORE PUSH1 0x20 ADD DUP3 DUP1 SLOAD PUSH2 0x953 SWAP1 PUSH2 0x4D3D JUMP JUMPDEST DUP1 ISZERO PUSH2 0x99E JUMPI DUP1 PUSH1 0x1F LT PUSH2 0x975 JUMPI PUSH2 0x100 DUP1 DUP4 SLOAD DIV MUL DUP4 MSTORE SWAP2 PUSH1 0x20 ADD SWAP2 PUSH2 0x99E JUMP JUMPDEST DUP3 ADD SWAP2 SWAP1 PUSH0 MSTORE PUSH1 0x20 PUSH0 KECCAK256 SWAP1 JUMPDEST DUP2 SLOAD DUP2 MSTORE SWAP1 PUSH1 0x1 ADD SWAP1 PUSH1 0x20 ADD DUP1 DUP4 GT PUSH2 0x981 JUMPI DUP3 SWAP1 SUB PUSH1 0x1F AND DUP3 ADD SWAP2 JUMPDEST POP POP POP POP POP DUP2 MSTORE PUSH1 0x20 ADD PUSH1 0x9 DUP3 ADD PUSH0 SWAP1 SLOAD SWAP1 PUSH2 0x100 EXP SWAP1 DIV PUSH1 0xFF AND PUSH1 0x3 DUP2 GT ISZERO PUSH2 0x9CB JUMPI PUSH2 0x9CA PUSH2 0x43D8 JUMP JUMPDEST JUMPDEST PUSH1 0x3 DUP2 GT ISZERO PUSH2 0x9DD JUMPI PUSH2 0x9DC PUSH2 0x43D8 JUMP JUMPDEST JUMPDEST DUP2 MSTORE PUSH1 0x20 ADD PUSH1 0xA DUP3 ADD SLOAD DUP2 MSTORE POP POP SWAP1 POP SWAP2 SWAP1 POP JUMP JUMPDEST PUSH2 0x9FA PUSH2 0x2E81 JUMP JUMPDEST PUSH2 0xA03 DUP2 PUSH2 0x2F6D JUMP JUMPDEST POP JUMP JUMPDEST PUSH2 0xA0E PUSH2 0x2E81 JUMP JUMPDEST PUSH0 PUSH1 0xA PUSH0 DUP4 DUP2 MSTORE PUSH1 0x20 ADD SWAP1 DUP2 MSTORE PUSH1 0x20 ADD PUSH0 KECCAK256 PUSH1 0x5 ADD PUSH0 SWAP1 SLOAD SWAP1 PUSH2 0x100 EXP SWAP1 DIV PUSH20 0xFFFFFFFFFFFFFFFFFFFFFFFFFFFFFFFFFFFFFFFF AND SWAP1 POP PUSH0 PUSH20 0xFFFFFFFFFFFFFFFFFFFFFFFFFFFFFFFFFFFFFFFF AND DUP2 PUSH20 0xFFFFFFFFFFFFFFFFFFFFFFFFFFFFFFFFFFFFFFFF AND SUB PUSH2 0xAB3 JUMPI PUSH1 0x40 MLOAD PUSH32 0x8C379A000000000000000000000000000000000000000000000000000000000 DUP2 MSTORE PUSH1 0x4 ADD PUSH2 0xAAA SWAP1 PUSH2 0x4DB7 JUMP JUMPDEST PUSH1 0x40 MLOAD DUP1 SWAP2 SUB SWAP1 REVERT JUMPDEST PUSH0 PUSH1 0x3 DUP2 GT ISZERO PUSH2 0xAC6 JUMPI PUSH2 0xAC5 PUSH2 0x43D8 JUMP JUMPDEST JUMPDEST PUSH1 0xA PUSH0 DUP5 DUP2 MSTORE PUSH1 0x20 ADD SWAP1 DUP2 MSTORE PUSH1 0x20 ADD PUSH0 KECCAK256 PUSH1 0x9 ADD PUSH0 SWAP1 SLOAD SWAP1 PUSH2 0x100 EXP SWAP1 DIV PUSH1 0xFF AND PUSH1 0x3 DUP2 GT ISZERO PUSH2 0xAF9 JUMPI PUSH2 0xAF8 PUSH2 0x43D8 JUMP JUMPDEST JUMPDEST EQ PUSH2 0xB39 JUMPI PUSH1 0x40 MLOAD PUSH32 0x8C379A000000000000000000000000000000000000000000000000000000000 DUP2 MSTORE PUSH1 0x4 ADD PUSH2 0xB30 SWAP1 PUSH2 0x4E45 JUMP JUMPDEST PUSH1 0x40 MLOAD DUP1 SWAP2 SUB SWAP1 REVERT JUMPDEST PUSH0 PUSH1 0xA PUSH0 DUP5 DUP2 MSTORE PUSH1 0x20 ADD SWAP1 DUP2 MSTORE PUSH1 0x20 ADD PUSH0 KECCAK256 PUSH1 0x1 ADD DUP1 SLOAD PUSH2 0xB59 SWAP1 PUSH2 0x4D3D JUMP JUMPDEST DUP1 PUSH1 0x1F ADD PUSH1 0x20 DUP1 SWAP2 DIV MUL PUSH1 0x20 ADD PUSH1 0x40 MLOAD SWAP1 DUP2 ADD PUSH1 0x40 MSTORE DUP1 SWAP3 SWAP2 SWAP1 DUP2 DUP2 MSTORE PUSH1 0x20 ADD DUP3 DUP1 SLOAD PUSH2 0xB85 SWAP1 PUSH2 0x4D3D JUMP JUMPDEST DUP1 ISZERO PUSH2 0xBD0 JUMPI DUP1 PUSH1 0x1F LT PUSH2 0xBA7 JUMPI PUSH2 0x100 DUP1 DUP4 SLOAD DIV MUL DUP4 MSTORE SWAP2 PUSH1 0x20 ADD SWAP2 PUSH2 0xBD0 JUMP JUMPDEST DUP3 ADD SWAP2 SWAP1 PUSH0 MSTORE PUSH1 0x20 PUSH0 KECCAK256 SWAP1 JUMPDEST DUP2 SLOAD DUP2 MSTORE SWAP1 PUSH1 0x1 ADD SWAP1 PUSH1 0x20 ADD DUP1 DUP4 GT PUSH2 0xBB3 JUMPI DUP3 SWAP1 SUB PUSH1 0x1F AND DUP3 ADD SWAP2 JUMPDEST POP POP POP POP POP SWAP1 POP PUSH0 PUSH1 0xA PUSH0 DUP6 DUP2 MSTORE PUSH1 0x20 ADD SWAP1 DUP2 MSTORE PUSH1 0x20 ADD PUSH0 KECCAK256 PUSH1 0x3 ADD DUP1 SLOAD PUSH2 0xBF7 SWAP1 PUSH2 0x4D3D JUMP JUMPDEST DUP1 PUSH1 0x1F ADD PUSH1 0x20 DUP1 SWAP2 DIV MUL PUSH1 0x20 ADD PUSH1 0x40 MLOAD SWAP1 DUP2 ADD PUSH1 0x40 MSTORE DUP1 SWAP3 SWAP2 SWAP1 DUP2 DUP2 MSTORE PUSH1 0x20 ADD DUP3 DUP1 SLOAD PUSH2 0xC23 SWAP1 PUSH2 0x4D3D JUMP JUMPDEST DUP1 ISZERO PUSH2 0xC6E JUMPI DUP1 PUSH1 0x1F LT PUSH2 0xC45 JUMPI PUSH2 0x100 DUP1 DUP4 SLOAD DIV MUL DUP4 MSTORE SWAP2 PUSH1 0x20 ADD SWAP2 PUSH2 0xC6E JUMP JUMPDEST DUP3 ADD SWAP2 SWAP1 PUSH0 MSTORE PUSH1 0x20 PUSH0 KECCAK256 SWAP1 JUMPDEST DUP2 SLOAD DUP2 MSTORE SWAP1 PUSH1 0x1 ADD SWAP1 PUSH1 0x20 ADD DUP1 DUP4 GT PUSH2 0xC51 JUMPI DUP3 SWAP1 SUB PUSH1 0x1F AND DUP3 ADD SWAP2 JUMPDEST POP POP POP POP POP SWAP1 POP PUSH0 PUSH2 0xC82 PUSH1 0x1 DUP5 DUP5 PUSH2 0x2FA2 JUMP JUMPDEST SWAP1 POP PUSH0 DUP2 GT ISZERO PUSH2 0xD7F JUMPI PUSH2 0xCE8 PUSH1 0xA PUSH0 DUP4 DUP2 MSTORE PUSH1 0x20 ADD SWAP1 DUP2 MSTORE PUSH1 0x20 ADD PUSH0 KECCAK256 PUSH1 0x4 ADD SLOAD PUSH1 0xA PUSH0 DUP5 DUP2 MSTORE PUSH1 0x20 ADD SWAP1 DUP2 MSTORE PUSH1 0x20 ADD PUSH0 KECCAK256 PUSH1 0x7 ADD SLOAD PUSH1 0xA PUSH0 DUP10 DUP2 MSTORE PUSH1 0x20 ADD SWAP1 DUP2 MSTORE PUSH1 0x20 ADD PUSH0 KECCAK256 PUSH1 0x4 ADD SLOAD PUSH1 0xA PUSH0 DUP11 DUP2 MSTORE PUSH1 0x20 ADD SWAP1 DUP2 MSTORE PUSH1 0x20 ADD PUSH0 KECCAK256 PUSH1 0x7 ADD SLOAD PUSH2 0x319D JUMP JUMPDEST PUSH2 0xCF1 DUP2 PUSH2 0x323C JUMP JUMPDEST PUSH1 0x3 PUSH0 SWAP1 SLOAD SWAP1 PUSH2 0x100 EXP SWAP1 DIV PUSH20 0xFFFFFFFFFFFFFFFFFFFFFFFFFFFFFFFFFFFFFFFF AND PUSH20 0xFFFFFFFFFFFFFFFFFFFFFFFFFFFFFFFFFFFFFFFF AND PUSH4 0x19E9EE75 DUP6 TIMESTAMP PUSH1 0x40 MLOAD DUP4 PUSH4 0xFFFFFFFF AND PUSH1 0xE0 SHL DUP2 MSTORE PUSH1 0x4 ADD PUSH2 0xD4D SWAP3 SWAP2 SWAP1 PUSH2 0x4E63 JUMP JUMPDEST PUSH0 PUSH1 0x40 MLOAD DUP1 DUP4 SUB DUP2 PUSH0 DUP8 DUP1 EXTCODESIZE ISZERO DUP1 ISZERO PUSH2 0xD64 JUMPI PUSH0 DUP1 REVERT JUMPDEST POP GAS CALL ISZERO DUP1 ISZERO PUSH2 0xD76 JUMPI RETURNDATASIZE PUSH0 DUP1 RETURNDATACOPY RETURNDATASIZE PUSH0 REVERT JUMPDEST POP POP POP POP PUSH2 0xE09 JUMP JUMPDEST PUSH1 0x3 PUSH0 SWAP1 SLOAD SWAP1 PUSH2 0x100 EXP SWAP1 DIV PUSH20 0xFFFFFFFFFFFFFFFFFFFFFFFFFFFFFFFFFFFFFFFF AND PUSH20 0xFFFFFFFFFFFFFFFFFFFFFFFFFFFFFFFFFFFFFFFF AND PUSH4 0x72316EF3 DUP6 TIMESTAMP PUSH1 0x40 MLOAD DUP4 PUSH4 0xFFFFFFFF AND PUSH1 0xE0 SHL DUP2 MSTORE PUSH1 0x4 ADD PUSH2 0xDDB SWAP3 SWAP2 SWAP1 PUSH2 0x4E63 JUMP JUMPDEST PUSH0 PUSH1 0x40 MLOAD DUP1 DUP4 SUB DUP2 PUSH0 DUP8 DUP1 EXTCODESIZE ISZERO DUP1 ISZERO PUSH2 0xDF2 JUMPI PUSH0 DUP1 REVERT JUMPDEST POP GAS CALL ISZERO DUP1 ISZERO PUSH2 0xE04 JUMPI RETURNDATASIZE PUSH0 DUP1 RETURNDATACOPY RETURNDATASIZE PUSH0 REVERT JUMPDEST POP POP POP POP JUMPDEST PUSH1 0x1 PUSH1 0xA PUSH0 DUP8 DUP2 MSTORE PUSH1 0x20 ADD SWAP1 DUP2 MSTORE PUSH1 0x20 ADD PUSH0 KECCAK256 PUSH1 0x9 ADD PUSH0 PUSH2 0x100 EXP DUP2 SLOAD DUP2 PUSH1 0xFF MUL NOT AND SWAP1 DUP4 PUSH1 0x3 DUP2 GT ISZERO PUSH2 0xE40 JUMPI PUSH2 0xE3F PUSH2 0x43D8 JUMP JUMPDEST JUMPDEST MUL OR SWAP1 SSTORE POP PUSH32 0xBF010ABA48E49020ED90D2F6B9AE36C27E06A48F276AA44D6594E44347CB5CAD DUP6 PUSH1 0x1 PUSH1 0x40 MLOAD PUSH2 0xE77 SWAP3 SWAP2 SWAP1 PUSH2 0x4E99 JUMP JUMPDEST PUSH1 0x40 MLOAD DUP1 SWAP2 SUB SWAP1 LOG1 POP POP POP POP POP JUMP JUMPDEST PUSH1 0x60 PUSH1 0x7 DUP1 SLOAD DUP1 PUSH1 0x20 MUL PUSH1 0x20 ADD PUSH1 0x40 MLOAD SWAP1 DUP2 ADD PUSH1 0x40 MSTORE DUP1 SWAP3 SWAP2 SWAP1 DUP2 DUP2 MSTORE PUSH1 0x20 ADD PUSH0 SWAP1 JUMPDEST DUP3 DUP3 LT ISZERO PUSH2 0xF51 JUMPI DUP4 DUP3 SWAP1 PUSH0 MSTORE PUSH1 0x20 PUSH0 KECCAK256 ADD DUP1 SLOAD PUSH2 0xEC6 SWAP1 PUSH2 0x4D3D JUMP JUMPDEST DUP1 PUSH1 0x1F ADD PUSH1 0x20 DUP1 SWAP2 DIV MUL PUSH1 0x20 ADD PUSH1 0x40 MLOAD SWAP1 DUP2 ADD PUSH1 0x40 MSTORE DUP1 SWAP3 SWAP2 SWAP1 DUP2 DUP2 MSTORE PUSH1 0x20 ADD DUP3 DUP1 SLOAD PUSH2 0xEF2 SWAP1 PUSH2 0x4D3D JUMP JUMPDEST DUP1 ISZERO PUSH2 0xF3D JUMPI DUP1 PUSH1 0x1F LT PUSH2 0xF14 JUMPI PUSH2 0x100 DUP1 DUP4 SLOAD DIV MUL DUP4 MSTORE SWAP2 PUSH1 0x20 ADD SWAP2 PUSH2 0xF3D JUMP JUMPDEST DUP3 ADD SWAP2 SWAP1 PUSH0 MSTORE PUSH1 0x20 PUSH0 KECCAK256 SWAP1 JUMPDEST DUP2 SLOAD DUP2 MSTORE SWAP1 PUSH1 0x1 ADD SWAP1 PUSH1 0x20 ADD DUP1 DUP4 GT PUSH2 0xF20 JUMPI DUP3 SWAP1 SUB PUSH1 0x1F AND DUP3 ADD SWAP2 JUMPDEST POP POP POP POP POP DUP2 MSTORE PUSH1 0x20 ADD SWAP1 PUSH1 0x1 ADD SWAP1 PUSH2 0xEA9 JUMP JUMPDEST POP POP POP POP SWAP1 POP SWAP1 JUMP JUMPDEST PUSH0 DUP1 PUSH0 DUP1 PUSH2 0xF66 PUSH2 0x2E81 JUMP JUMPDEST PUSH1 0x1 PUSH0 SWAP1 SLOAD SWAP1 PUSH2 0x100 EXP SWAP1 DIV PUSH20 0xFFFFFFFFFFFFFFFFFFFFFFFFFFFFFFFFFFFFFFFF AND PUSH20 0xFFFFFFFFFFFFFFFFFFFFFFFFFFFFFFFFFFFFFFFF AND PUSH4 0xDDE798A4 ADDRESS PUSH1 0x40 MLOAD DUP3 PUSH4 0xFFFFFFFF AND PUSH1 0xE0 SHL DUP2 MSTORE PUSH1 0x4 ADD PUSH2 0xFC0 SWAP2 SWAP1 PUSH2 0x4A3C JUMP JUMPDEST PUSH1 0x80 PUSH1 0x40 MLOAD DUP1 DUP4 SUB DUP2 DUP7 GAS STATICCALL ISZERO DUP1 ISZERO PUSH2 0xFDB JUMPI RETURNDATASIZE PUSH0 DUP1 RETURNDATACOPY RETURNDATASIZE PUSH0 REVERT JUMPDEST POP POP POP POP PUSH1 0x40 MLOAD RETURNDATASIZE PUSH1 0x1F NOT PUSH1 0x1F DUP3 ADD AND DUP3 ADD DUP1 PUSH1 0x40 MSTORE POP DUP2 ADD SWAP1 PUSH2 0xFFF SWAP2 SWAP1 PUSH2 0x4EF7 JUMP JUMPDEST SWAP4 POP SWAP4 POP SWAP4 POP SWAP4 POP SWAP1 SWAP2 SWAP3 SWAP4 JUMP JUMPDEST PUSH2 0x1015 PUSH2 0x2E81 JUMP JUMPDEST PUSH0 PUSH1 0xA PUSH0 DUP4 DUP2 MSTORE PUSH1 0x20 ADD SWAP1 DUP2 MSTORE PUSH1 0x20 ADD PUSH0 KECCAK256 PUSH0 ADD SLOAD GT PUSH2 0x106A JUMPI PUSH1 0x40 MLOAD PUSH32 0x8C379A000000000000000000000000000000000000000000000000000000000 DUP2 MSTORE PUSH1 0x4 ADD PUSH2 0x1061 SWAP1 PUSH2 0x4CF2 JUMP JUMPDEST PUSH1 0x40 MLOAD DUP1 SWAP2 SUB SWAP1 REVERT JUMPDEST PUSH0 PUSH1 0x3 DUP2 GT ISZERO PUSH2 0x107D JUMPI PUSH2 0x107C PUSH2 0x43D8 JUMP JUMPDEST JUMPDEST PUSH1 0xA PUSH0 DUP4 DUP2 MSTORE PUSH1 0x20 ADD SWAP1 DUP2 MSTORE PUSH1 0x20 ADD PUSH0 KECCAK256 PUSH1 0x9 ADD PUSH0 SWAP1 SLOAD SWAP1 PUSH2 0x100 EXP SWAP1 DIV PUSH1 0xFF AND PUSH1 0x3 DUP2 GT ISZERO PUSH2 0x10B0 JUMPI PUSH2 0x10AF PUSH2 0x43D8 JUMP JUMPDEST JUMPDEST EQ PUSH2 0x10F0 JUMPI PUSH1 0x40 MLOAD PUSH32 0x8C379A000000000000000000000000000000000000000000000000000000000 DUP2 MSTORE PUSH1 0x4 ADD PUSH2 0x10E7 SWAP1 PUSH2 0x4E45 JUMP JUMPDEST PUSH1 0x40 MLOAD DUP1 SWAP2 SUB SWAP1 REVERT JUMPDEST PUSH2 0x1141 PUSH1 0xA PUSH0 DUP4 DUP2 MSTORE PUSH1 0x20 ADD SWAP1 DUP2 MSTORE PUSH1 0x20 ADD PUSH0 KECCAK256 PUSH1 0x5 ADD PUSH0 SWAP1 SLOAD SWAP1 PUSH2 0x100 EXP SWAP1 DIV PUSH20 0xFFFFFFFFFFFFFFFFFFFFFFFFFFFFFFFFFFFFFFFF AND PUSH1 0xA PUSH0 DUP5 DUP2 MSTORE PUSH1 0x20 ADD SWAP1 DUP2 MSTORE PUSH1 0x20 ADD PUSH0 KECCAK256 PUSH1 0x7 ADD SLOAD PUSH2 0x33EA JUMP JUMPDEST PUSH1 0x2 PUSH1 0xA PUSH0 DUP4 DUP2 MSTORE PUSH1 0x20 ADD SWAP1 DUP2 MSTORE PUSH1 0x20 ADD PUSH0 KECCAK256 PUSH1 0x9 ADD PUSH0 PUSH2 0x100 EXP DUP2 SLOAD DUP2 PUSH1 0xFF MUL NOT AND SWAP1 DUP4 PUSH1 0x3 DUP2 GT ISZERO PUSH2 0x1178 JUMPI PUSH2 0x1177 PUSH2 0x43D8 JUMP JUMPDEST JUMPDEST MUL OR SWAP1 SSTORE POP PUSH32 0xBF010ABA48E49020ED90D2F6B9AE36C27E06A48F276AA44D6594E44347CB5CAD DUP2 PUSH1 0x2 PUSH1 0x40 MLOAD PUSH2 0x11AF SWAP3 SWAP2 SWAP1 PUSH2 0x4E99 JUMP JUMPDEST PUSH1 0x40 MLOAD DUP1 SWAP2 SUB SWAP1 LOG1 POP JUMP JUMPDEST PUSH1 0x60 PUSH2 0x11C4 PUSH2 0x2E81 JUMP JUMPDEST PUSH0 PUSH2 0x11CE PUSH0 PUSH2 0x2F08 JUMP JUMPDEST SWAP1 POP PUSH0 DUP2 PUSH8 0xFFFFFFFFFFFFFFFF DUP2 GT ISZERO PUSH2 0x11EB JUMPI PUSH2 0x11EA PUSH2 0x457B JUMP JUMPDEST JUMPDEST PUSH1 0x40 MLOAD SWAP1 DUP1 DUP3 MSTORE DUP1 PUSH1 0x20 MUL PUSH1 0x20 ADD DUP3 ADD PUSH1 0x40 MSTORE DUP1 ISZERO PUSH2 0x1224 JUMPI DUP2 PUSH1 0x20 ADD JUMPDEST PUSH2 0x1211 PUSH2 0x4140 JUMP JUMPDEST DUP2 MSTORE PUSH1 0x20 ADD SWAP1 PUSH1 0x1 SWAP1 SUB SWAP1 DUP2 PUSH2 0x1209 JUMPI SWAP1 POP JUMPDEST POP SWAP1 POP PUSH0 DUP1 JUMPDEST PUSH1 0xB DUP1 SLOAD SWAP1 POP DUP2 LT ISZERO PUSH2 0x1659 JUMPI PUSH2 0x125D PUSH1 0xB DUP3 DUP2 SLOAD DUP2 LT PUSH2 0x124E JUMPI PUSH2 0x124D PUSH2 0x4F5B JUMP JUMPDEST JUMPDEST SWAP1 PUSH0 MSTORE PUSH1 0x20 PUSH0 KECCAK256 ADD SLOAD PUSH0 PUSH2 0x3746 JUMP JUMPDEST ISZERO PUSH2 0x164C JUMPI PUSH1 0xA PUSH0 PUSH1 0xB DUP4 DUP2 SLOAD DUP2 LT PUSH2 0x1279 JUMPI PUSH2 0x1278 PUSH2 0x4F5B JUMP JUMPDEST JUMPDEST SWAP1 PUSH0 MSTORE PUSH1 0x20 PUSH0 KECCAK256 ADD SLOAD DUP2 MSTORE PUSH1 0x20 ADD SWAP1 DUP2 MSTORE PUSH1 0x20 ADD PUSH0 KECCAK256 PUSH1 0x40 MLOAD DUP1 PUSH2 0x160 ADD PUSH1 0x40 MSTORE SWAP1 DUP2 PUSH0 DUP3 ADD SLOAD DUP2 MSTORE PUSH1 0x20 ADD PUSH1 0x1 DUP3 ADD DUP1 SLOAD PUSH2 0x12B4 SWAP1 PUSH2 0x4D3D JUMP JUMPDEST DUP1 PUSH1 0x1F ADD PUSH1 0x20 DUP1 SWAP2 DIV MUL PUSH1 0x20 ADD PUSH1 0x40 MLOAD SWAP1 DUP2 ADD PUSH1 0x40 MSTORE DUP1 SWAP3 SWAP2 SWAP1 DUP2 DUP2 MSTORE PUSH1 0x20 ADD DUP3 DUP1 SLOAD PUSH2 0x12E0 SWAP1 PUSH2 0x4D3D JUMP JUMPDEST DUP1 ISZERO PUSH2 0x132B JUMPI DUP1 PUSH1 0x1F LT PUSH2 0x1302 JUMPI PUSH2 0x100 DUP1 DUP4 SLOAD DIV MUL DUP4 MSTORE SWAP2 PUSH1 0x20 ADD SWAP2 PUSH2 0x132B JUMP JUMPDEST DUP3 ADD SWAP2 SWAP1 PUSH0 MSTORE PUSH1 0x20 PUSH0 KECCAK256 SWAP1 JUMPDEST DUP2 SLOAD DUP2 MSTORE SWAP1 PUSH1 0x1 ADD SWAP1 PUSH1 0x20 ADD DUP1 DUP4 GT PUSH2 0x130E JUMPI DUP3 SWAP1 SUB PUSH1 0x1F AND DUP3 ADD SWAP2 JUMPDEST POP POP POP POP POP DUP2 MSTORE PUSH1 0x20 ADD PUSH1 0x2 DUP3 ADD DUP1 SLOAD PUSH2 0x1344 SWAP1 PUSH2 0x4D3D JUMP JUMPDEST DUP1 PUSH1 0x1F ADD PUSH1 0x20 DUP1 SWAP2 DIV MUL PUSH1 0x20 ADD PUSH1 0x40 MLOAD SWAP1 DUP2 ADD PUSH1 0x40 MSTORE DUP1 SWAP3 SWAP2 SWAP1 DUP2 DUP2 MSTORE PUSH1 0x20 ADD DUP3 DUP1 SLOAD PUSH2 0x1370 SWAP1 PUSH2 0x4D3D JUMP JUMPDEST DUP1 ISZERO PUSH2 0x13BB JUMPI DUP1 PUSH1 0x1F LT PUSH2 0x1392 JUMPI PUSH2 0x100 DUP1 DUP4 SLOAD DIV MUL DUP4 MSTORE SWAP2 PUSH1 0x20 ADD SWAP2 PUSH2 0x13BB JUMP JUMPDEST DUP3 ADD SWAP2 SWAP1 PUSH0 MSTORE PUSH1 0x20 PUSH0 KECCAK256 SWAP1 JUMPDEST DUP2 SLOAD DUP2 MSTORE SWAP1 PUSH1 0x1 ADD SWAP1 PUSH1 0x20 ADD DUP1 DUP4 GT PUSH2 0x139E JUMPI DUP3 SWAP1 SUB PUSH1 0x1F AND DUP3 ADD SWAP2 JUMPDEST POP POP POP POP POP DUP2 MSTORE PUSH1 0x20 ADD PUSH1 0x3 DUP3 ADD DUP1 SLOAD PUSH2 0x13D4 SWAP1 PUSH2 0x4D3D JUMP JUMPDEST DUP1 PUSH1 0x1F ADD PUSH1 0x20 DUP1 SWAP2 DIV MUL PUSH1 0x20 ADD PUSH1 0x40 MLOAD SWAP1 DUP2 ADD PUSH1 0x40 MSTORE DUP1 SWAP3 SWAP2 SWAP1 DUP2 DUP2 MSTORE PUSH1 0x20 ADD DUP3 DUP1 SLOAD PUSH2 0x1400 SWAP1 PUSH2 0x4D3D JUMP JUMPDEST DUP1 ISZERO PUSH2 0x144B JUMPI DUP1 PUSH1 0x1F LT PUSH2 0x1422 JUMPI PUSH2 0x100 DUP1 DUP4 SLOAD DIV MUL DUP4 MSTORE SWAP2 PUSH1 0x20 ADD SWAP2 PUSH2 0x144B JUMP JUMPDEST DUP3 ADD SWAP2 SWAP1 PUSH0 MSTORE PUSH1 0x20 PUSH0 KECCAK256 SWAP1 JUMPDEST DUP2 SLOAD DUP2 MSTORE SWAP1 PUSH1 0x1 ADD SWAP1 PUSH1 0x20 ADD DUP1 DUP4 GT PUSH2 0x142E JUMPI DUP3 SWAP1 SUB PUSH1 0x1F AND DUP3 ADD SWAP2 JUMPDEST POP POP POP POP POP DUP2 MSTORE PUSH1 0x20 ADD PUSH1 0x4 DUP3 ADD SLOAD DUP2 MSTORE PUSH1 0x20 ADD PUSH1 0x5 DUP3 ADD PUSH0 SWAP1 SLOAD SWAP1 PUSH2 0x100 EXP SWAP1 DIV PUSH20 0xFFFFFFFFFFFFFFFFFFFFFFFFFFFFFFFFFFFFFFFF AND PUSH20 0xFFFFFFFFFFFFFFFFFFFFFFFFFFFFFFFFFFFFFFFF AND PUSH20 0xFFFFFFFFFFFFFFFFFFFFFFFFFFFFFFFFFFFFFFFF AND DUP2 MSTORE PUSH1 0x20 ADD PUSH1 0x6 DUP3 ADD DUP1 SLOAD PUSH2 0x14C3 SWAP1 PUSH2 0x4D3D JUMP JUMPDEST DUP1 PUSH1 0x1F ADD PUSH1 0x20 DUP1 SWAP2 DIV MUL PUSH1 0x20 ADD PUSH1 0x40 MLOAD SWAP1 DUP2 ADD PUSH1 0x40 MSTORE DUP1 SWAP3 SWAP2 SWAP1 DUP2 DUP2 MSTORE PUSH1 0x20 ADD DUP3 DUP1 SLOAD PUSH2 0x14EF SWAP1 PUSH2 0x4D3D JUMP JUMPDEST DUP1 ISZERO PUSH2 0x153A JUMPI DUP1 PUSH1 0x1F LT PUSH2 0x1511 JUMPI PUSH2 0x100 DUP1 DUP4 SLOAD DIV MUL DUP4 MSTORE SWAP2 PUSH1 0x20 ADD SWAP2 PUSH2 0x153A JUMP JUMPDEST DUP3 ADD SWAP2 SWAP1 PUSH0 MSTORE PUSH1 0x20 PUSH0 KECCAK256 SWAP1 JUMPDEST DUP2 SLOAD DUP2 MSTORE SWAP1 PUSH1 0x1 ADD SWAP1 PUSH1 0x20 ADD DUP1 DUP4 GT PUSH2 0x151D JUMPI DUP3 SWAP1 SUB PUSH1 0x1F AND DUP3 ADD SWAP2 JUMPDEST POP POP POP POP POP DUP2 MSTORE PUSH1 0x20 ADD PUSH1 0x7 DUP3 ADD SLOAD DUP2 MSTORE PUSH1 0x20 ADD PUSH1 0x8 DUP3 ADD DUP1 SLOAD PUSH2 0x155D SWAP1 PUSH2 0x4D3D JUMP JUMPDEST DUP1 PUSH1 0x1F ADD PUSH1 0x20 DUP1 SWAP2 DIV MUL PUSH1 0x20 ADD PUSH1 0x40 MLOAD SWAP1 DUP2 ADD PUSH1 0x40 MSTORE DUP1 SWAP3 SWAP2 SWAP1 DUP2 DUP2 MSTORE PUSH1 0x20 ADD DUP3 DUP1 SLOAD PUSH2 0x1589 SWAP1 PUSH2 0x4D3D JUMP JUMPDEST DUP1 ISZERO PUSH2 0x15D4 JUMPI DUP1 PUSH1 0x1F LT PUSH2 0x15AB JUMPI PUSH2 0x100 DUP1 DUP4 SLOAD DIV MUL DUP4 MSTORE SWAP2 PUSH1 0x20 ADD SWAP2 PUSH2 0x15D4 JUMP JUMPDEST DUP3 ADD SWAP2 SWAP1 PUSH0 MSTORE PUSH1 0x20 PUSH0 KECCAK256 SWAP1 JUMPDEST DUP2 SLOAD DUP2 MSTORE SWAP1 PUSH1 0x1 ADD SWAP1 PUSH1 0x20 ADD DUP1 DUP4 GT PUSH2 0x15B7 JUMPI DUP3 SWAP1 SUB PUSH1 0x1F AND DUP3 ADD SWAP2 JUMPDEST POP POP POP POP POP DUP2 MSTORE PUSH1 0x20 ADD PUSH1 0x9 DUP3 ADD PUSH0 SWAP1 SLOAD SWAP1 PUSH2 0x100 EXP SWAP1 DIV PUSH1 0xFF AND PUSH1 0x3 DUP2 GT ISZERO PUSH2 0x1601 JUMPI PUSH2 0x1600 PUSH2 0x43D8 JUMP JUMPDEST JUMPDEST PUSH1 0x3 DUP2 GT ISZERO PUSH2 0x1613 JUMPI PUSH2 0x1612 PUSH2 0x43D8 JUMP JUMPDEST JUMPDEST DUP2 MSTORE PUSH1 0x20 ADD PUSH1 0xA DUP3 ADD SLOAD DUP2 MSTORE POP POP DUP4 DUP4 DUP1 PUSH2 0x162D SWAP1 PUSH2 0x4FB5 JUMP JUMPDEST SWAP5 POP DUP2 MLOAD DUP2 LT PUSH2 0x1640 JUMPI PUSH2 0x163F PUSH2 0x4F5B JUMP JUMPDEST JUMPDEST PUSH1 0x20 MUL PUSH1 0x20 ADD ADD DUP2 SWAP1 MSTORE POP JUMPDEST DUP1 DUP1 PUSH1 0x1 ADD SWAP2 POP POP PUSH2 0x122A JUMP JUMPDEST POP DUP2 SWAP4 POP POP POP POP SWAP1 JUMP JUMPDEST PUSH2 0x166B PUSH2 0x2E81 JUMP JUMPDEST PUSH2 0x1674 DUP2 PUSH2 0x3796 JUMP JUMPDEST POP JUMP JUMPDEST PUSH0 PUSH1 0x5 PUSH0 SWAP1 SLOAD SWAP1 PUSH2 0x100 EXP SWAP1 DIV PUSH20 0xFFFFFFFFFFFFFFFFFFFFFFFFFFFFFFFFFFFFFFFF AND SWAP1 POP SWAP1 JUMP JUMPDEST PUSH2 0x16A7 PUSH2 0x2E81 JUMP JUMPDEST PUSH1 0x1 PUSH0 SWAP1 SLOAD SWAP1 PUSH2 0x100 EXP SWAP1 DIV PUSH20 0xFFFFFFFFFFFFFFFFFFFFFFFFFFFFFFFFFFFFFFFF AND PUSH20 0xFFFFFFFFFFFFFFFFFFFFFFFFFFFFFFFFFFFFFFFF AND PUSH4 0x954FA5EE ADDRESS CALLER PUSH1 0x40 MLOAD DUP4 PUSH4 0xFFFFFFFF AND PUSH1 0xE0 SHL DUP2 MSTORE PUSH1 0x4 ADD PUSH2 0x1703 SWAP3 SWAP2 SWAP1 PUSH2 0x4FFC JUMP JUMPDEST PUSH1 0x20 PUSH1 0x40 MLOAD DUP1 DUP4 SUB DUP2 PUSH0 DUP8 GAS CALL ISZERO DUP1 ISZERO PUSH2 0x171F JUMPI RETURNDATASIZE PUSH0 DUP1 RETURNDATACOPY RETURNDATASIZE PUSH0 REVERT JUMPDEST POP POP POP POP PUSH1 0x40 MLOAD RETURNDATASIZE PUSH1 0x1F NOT PUSH1 0x1F DUP3 ADD AND DUP3 ADD DUP1 PUSH1 0x40 MSTORE POP DUP2 ADD SWAP1 PUSH2 0x1743 SWAP2 SWAP1 PUSH2 0x5023 JUMP JUMPDEST POP JUMP JUMPDEST PUSH2 0x174E PUSH2 0x2E81 JUMP JUMPDEST DUP1 PUSH1 0x4 PUSH0 PUSH2 0x100 EXP DUP2 SLOAD DUP2 PUSH20 0xFFFFFFFFFFFFFFFFFFFFFFFFFFFFFFFFFFFFFFFF MUL NOT AND SWAP1 DUP4 PUSH20 0xFFFFFFFFFFFFFFFFFFFFFFFFFFFFFFFFFFFFFFFF AND MUL OR SWAP1 SSTORE POP PUSH1 0x4 PUSH0 SWAP1 SLOAD SWAP1 PUSH2 0x100 EXP SWAP1 DIV PUSH20 0xFFFFFFFFFFFFFFFFFFFFFFFFFFFFFFFFFFFFFFFF AND PUSH1 0x1 PUSH0 PUSH2 0x100 EXP DUP2 SLOAD DUP2 PUSH20 0xFFFFFFFFFFFFFFFFFFFFFFFFFFFFFFFFFFFFFFFF MUL NOT AND SWAP1 DUP4 PUSH20 0xFFFFFFFFFFFFFFFFFFFFFFFFFFFFFFFFFFFFFFFF AND MUL OR SWAP1 SSTORE POP PUSH1 0x1 PUSH0 SWAP1 SLOAD SWAP1 PUSH2 0x100 EXP SWAP1 DIV PUSH20 0xFFFFFFFFFFFFFFFFFFFFFFFFFFFFFFFFFFFFFFFF AND PUSH20 0xFFFFFFFFFFFFFFFFFFFFFFFFFFFFFFFFFFFFFFFF AND PUSH4 0x4E606C47 PUSH1 0x40 MLOAD DUP2 PUSH4 0xFFFFFFFF AND PUSH1 0xE0 SHL DUP2 MSTORE PUSH1 0x4 ADD PUSH0 PUSH1 0x40 MLOAD DUP1 DUP4 SUB DUP2 PUSH0 DUP8 DUP1 EXTCODESIZE ISZERO DUP1 ISZERO PUSH2 0x1855 JUMPI PUSH0 DUP1 REVERT JUMPDEST POP GAS CALL ISZERO DUP1 ISZERO PUSH2 0x1867 JUMPI RETURNDATASIZE PUSH0 DUP1 RETURNDATACOPY RETURNDATASIZE PUSH0 REVERT JUMPDEST POP POP POP POP POP JUMP JUMPDEST PUSH2 0x1876 PUSH2 0x2E81 JUMP JUMPDEST PUSH2 0x187F PUSH0 PUSH2 0x37CB JUMP JUMPDEST JUMP JUMPDEST PUSH2 0x1889 PUSH2 0x2E81 JUMP JUMPDEST DUP1 PUSH1 0x5 PUSH0 PUSH2 0x100 EXP DUP2 SLOAD DUP2 PUSH20 0xFFFFFFFFFFFFFFFFFFFFFFFFFFFFFFFFFFFFFFFF MUL NOT AND SWAP1 DUP4 PUSH20 0xFFFFFFFFFFFFFFFFFFFFFFFFFFFFFFFFFFFFFFFF AND MUL OR SWAP1 SSTORE POP PUSH1 0x5 PUSH0 SWAP1 SLOAD SWAP1 PUSH2 0x100 EXP SWAP1 DIV PUSH20 0xFFFFFFFFFFFFFFFFFFFFFFFFFFFFFFFFFFFFFFFF AND PUSH1 0x2 PUSH0 PUSH2 0x100 EXP DUP2 SLOAD DUP2 PUSH20 0xFFFFFFFFFFFFFFFFFFFFFFFFFFFFFFFFFFFFFFFF MUL NOT AND SWAP1 DUP4 PUSH20 0xFFFFFFFFFFFFFFFFFFFFFFFFFFFFFFFFFFFFFFFF AND MUL OR SWAP1 SSTORE POP POP JUMP JUMPDEST PUSH0 DUP1 PUSH0 SWAP1 SLOAD SWAP1 PUSH2 0x100 EXP SWAP1 DIV PUSH20 0xFFFFFFFFFFFFFFFFFFFFFFFFFFFFFFFFFFFFFFFF AND SWAP1 POP SWAP1 JUMP JUMPDEST PUSH1 0x60 PUSH0 PUSH2 0x1960 DUP4 PUSH2 0x388C JUMP JUMPDEST SWAP1 POP PUSH0 DUP2 PUSH8 0xFFFFFFFFFFFFFFFF DUP2 GT ISZERO PUSH2 0x197D JUMPI PUSH2 0x197C PUSH2 0x457B JUMP JUMPDEST JUMPDEST PUSH1 0x40 MLOAD SWAP1 DUP1 DUP3 MSTORE DUP1 PUSH1 0x20 MUL PUSH1 0x20 ADD DUP3 ADD PUSH1 0x40 MSTORE DUP1 ISZERO PUSH2 0x19B6 JUMPI DUP2 PUSH1 0x20 ADD JUMPDEST PUSH2 0x19A3 PUSH2 0x4140 JUMP JUMPDEST DUP2 MSTORE PUSH1 0x20 ADD SWAP1 PUSH1 0x1 SWAP1 SUB SWAP1 DUP2 PUSH2 0x199B JUMPI SWAP1 POP JUMPDEST POP SWAP1 POP PUSH0 DUP1 JUMPDEST PUSH1 0xB DUP1 SLOAD SWAP1 POP DUP2 LT ISZERO PUSH2 0x1E42 JUMPI DUP6 PUSH20 0xFFFFFFFFFFFFFFFFFFFFFFFFFFFFFFFFFFFFFFFF AND PUSH1 0xA PUSH0 PUSH1 0xB DUP5 DUP2 SLOAD DUP2 LT PUSH2 0x19F7 JUMPI PUSH2 0x19F6 PUSH2 0x4F5B JUMP JUMPDEST JUMPDEST SWAP1 PUSH0 MSTORE PUSH1 0x20 PUSH0 KECCAK256 ADD SLOAD DUP2 MSTORE PUSH1 0x20 ADD SWAP1 DUP2 MSTORE PUSH1 0x20 ADD PUSH0 KECCAK256 PUSH1 0x5 ADD PUSH0 SWAP1 SLOAD SWAP1 PUSH2 0x100 EXP SWAP1 DIV PUSH20 0xFFFFFFFFFFFFFFFFFFFFFFFFFFFFFFFFFFFFFFFF AND PUSH20 0xFFFFFFFFFFFFFFFFFFFFFFFFFFFFFFFFFFFFFFFF AND SUB PUSH2 0x1E35 JUMPI PUSH1 0xA PUSH0 PUSH1 0xB DUP4 DUP2 SLOAD DUP2 LT PUSH2 0x1A62 JUMPI PUSH2 0x1A61 PUSH2 0x4F5B JUMP JUMPDEST JUMPDEST SWAP1 PUSH0 MSTORE PUSH1 0x20 PUSH0 KECCAK256 ADD SLOAD DUP2 MSTORE PUSH1 0x20 ADD SWAP1 DUP2 MSTORE PUSH1 0x20 ADD PUSH0 KECCAK256 PUSH1 0x40 MLOAD DUP1 PUSH2 0x160 ADD PUSH1 0x40 MSTORE SWAP1 DUP2 PUSH0 DUP3 ADD SLOAD DUP2 MSTORE PUSH1 0x20 ADD PUSH1 0x1 DUP3 ADD DUP1 SLOAD PUSH2 0x1A9D SWAP1 PUSH2 0x4D3D JUMP JUMPDEST DUP1 PUSH1 0x1F ADD PUSH1 0x20 DUP1 SWAP2 DIV MUL PUSH1 0x20 ADD PUSH1 0x40 MLOAD SWAP1 DUP2 ADD PUSH1 0x40 MSTORE DUP1 SWAP3 SWAP2 SWAP1 DUP2 DUP2 MSTORE PUSH1 0x20 ADD DUP3 DUP1 SLOAD PUSH2 0x1AC9 SWAP1 PUSH2 0x4D3D JUMP JUMPDEST DUP1 ISZERO PUSH2 0x1B14 JUMPI DUP1 PUSH1 0x1F LT PUSH2 0x1AEB JUMPI PUSH2 0x100 DUP1 DUP4 SLOAD DIV MUL DUP4 MSTORE SWAP2 PUSH1 0x20 ADD SWAP2 PUSH2 0x1B14 JUMP JUMPDEST DUP3 ADD SWAP2 SWAP1 PUSH0 MSTORE PUSH1 0x20 PUSH0 KECCAK256 SWAP1 JUMPDEST DUP2 SLOAD DUP2 MSTORE SWAP1 PUSH1 0x1 ADD SWAP1 PUSH1 0x20 ADD DUP1 DUP4 GT PUSH2 0x1AF7 JUMPI DUP3 SWAP1 SUB PUSH1 0x1F AND DUP3 ADD SWAP2 JUMPDEST POP POP POP POP POP DUP2 MSTORE PUSH1 0x20 ADD PUSH1 0x2 DUP3 ADD DUP1 SLOAD PUSH2 0x1B2D SWAP1 PUSH2 0x4D3D JUMP JUMPDEST DUP1 PUSH1 0x1F ADD PUSH1 0x20 DUP1 SWAP2 DIV MUL PUSH1 0x20 ADD PUSH1 0x40 MLOAD SWAP1 DUP2 ADD PUSH1 0x40 MSTORE DUP1 SWAP3 SWAP2 SWAP1 DUP2 DUP2 MSTORE PUSH1 0x20 ADD DUP3 DUP1 SLOAD PUSH2 0x1B59 SWAP1 PUSH2 0x4D3D JUMP JUMPDEST DUP1 ISZERO PUSH2 0x1BA4 JUMPI DUP1 PUSH1 0x1F LT PUSH2 0x1B7B JUMPI PUSH2 0x100 DUP1 DUP4 SLOAD DIV MUL DUP4 MSTORE SWAP2 PUSH1 0x20 ADD SWAP2 PUSH2 0x1BA4 JUMP JUMPDEST DUP3 ADD SWAP2 SWAP1 PUSH0 MSTORE PUSH1 0x20 PUSH0 KECCAK256 SWAP1 JUMPDEST DUP2 SLOAD DUP2 MSTORE SWAP1 PUSH1 0x1 ADD SWAP1 PUSH1 0x20 ADD DUP1 DUP4 GT PUSH2 0x1B87 JUMPI DUP3 SWAP1 SUB PUSH1 0x1F AND DUP3 ADD SWAP2 JUMPDEST POP POP POP POP POP DUP2 MSTORE PUSH1 0x20 ADD PUSH1 0x3 DUP3 ADD DUP1 SLOAD PUSH2 0x1BBD SWAP1 PUSH2 0x4D3D JUMP JUMPDEST DUP1 PUSH1 0x1F ADD PUSH1 0x20 DUP1 SWAP2 DIV MUL PUSH1 0x20 ADD PUSH1 0x40 MLOAD SWAP1 DUP2 ADD PUSH1 0x40 MSTORE DUP1 SWAP3 SWAP2 SWAP1 DUP2 DUP2 MSTORE PUSH1 0x20 ADD DUP3 DUP1 SLOAD PUSH2 0x1BE9 SWAP1 PUSH2 0x4D3D JUMP JUMPDEST DUP1 ISZERO PUSH2 0x1C34 JUMPI DUP1 PUSH1 0x1F LT PUSH2 0x1C0B JUMPI PUSH2 0x100 DUP1 DUP4 SLOAD DIV MUL DUP4 MSTORE SWAP2 PUSH1 0x20 ADD SWAP2 PUSH2 0x1C34 JUMP JUMPDEST DUP3 ADD SWAP2 SWAP1 PUSH0 MSTORE PUSH1 0x20 PUSH0 KECCAK256 SWAP1 JUMPDEST DUP2 SLOAD DUP2 MSTORE SWAP1 PUSH1 0x1 ADD SWAP1 PUSH1 0x20 ADD DUP1 DUP4 GT PUSH2 0x1C17 JUMPI DUP3 SWAP1 SUB PUSH1 0x1F AND DUP3 ADD SWAP2 JUMPDEST POP POP POP POP POP DUP2 MSTORE PUSH1 0x20 ADD PUSH1 0x4 DUP3 ADD SLOAD DUP2 MSTORE PUSH1 0x20 ADD PUSH1 0x5 DUP3 ADD PUSH0 SWAP1 SLOAD SWAP1 PUSH2 0x100 EXP SWAP1 DIV PUSH20 0xFFFFFFFFFFFFFFFFFFFFFFFFFFFFFFFFFFFFFFFF AND PUSH20 0xFFFFFFFFFFFFFFFFFFFFFFFFFFFFFFFFFFFFFFFF AND PUSH20 0xFFFFFFFFFFFFFFFFFFFFFFFFFFFFFFFFFFFFFFFF AND DUP2 MSTORE PUSH1 0x20 ADD PUSH1 0x6 DUP3 ADD DUP1 SLOAD PUSH2 0x1CAC SWAP1 PUSH2 0x4D3D JUMP JUMPDEST DUP1 PUSH1 0x1F ADD PUSH1 0x20 DUP1 SWAP2 DIV MUL PUSH1 0x20 ADD PUSH1 0x40 MLOAD SWAP1 DUP2 ADD PUSH1 0x40 MSTORE DUP1 SWAP3 SWAP2 SWAP1 DUP2 DUP2 MSTORE PUSH1 0x20 ADD DUP3 DUP1 SLOAD PUSH2 0x1CD8 SWAP1 PUSH2 0x4D3D JUMP JUMPDEST DUP1 ISZERO PUSH2 0x1D23 JUMPI DUP1 PUSH1 0x1F LT PUSH2 0x1CFA JUMPI PUSH2 0x100 DUP1 DUP4 SLOAD DIV MUL DUP4 MSTORE SWAP2 PUSH1 0x20 ADD SWAP2 PUSH2 0x1D23 JUMP JUMPDEST DUP3 ADD SWAP2 SWAP1 PUSH0 MSTORE PUSH1 0x20 PUSH0 KECCAK256 SWAP1 JUMPDEST DUP2 SLOAD DUP2 MSTORE SWAP1 PUSH1 0x1 ADD SWAP1 PUSH1 0x20 ADD DUP1 DUP4 GT PUSH2 0x1D06 JUMPI DUP3 SWAP1 SUB PUSH1 0x1F AND DUP3 ADD SWAP2 JUMPDEST POP POP POP POP POP DUP2 MSTORE PUSH1 0x20 ADD PUSH1 0x7 DUP3 ADD SLOAD DUP2 MSTORE PUSH1 0x20 ADD PUSH1 0x8 DUP3 ADD DUP1 SLOAD PUSH2 0x1D46 SWAP1 PUSH2 0x4D3D JUMP JUMPDEST DUP1 PUSH1 0x1F ADD PUSH1 0x20 DUP1 SWAP2 DIV MUL PUSH1 0x20 ADD PUSH1 0x40 MLOAD SWAP1 DUP2 ADD PUSH1 0x40 MSTORE DUP1 SWAP3 SWAP2 SWAP1 DUP2 DUP2 MSTORE PUSH1 0x20 ADD DUP3 DUP1 SLOAD PUSH2 0x1D72 SWAP1 PUSH2 0x4D3D JUMP JUMPDEST DUP1 ISZERO PUSH2 0x1DBD JUMPI DUP1 PUSH1 0x1F LT PUSH2 0x1D94 JUMPI PUSH2 0x100 DUP1 DUP4 SLOAD DIV MUL DUP4 MSTORE SWAP2 PUSH1 0x20 ADD SWAP2 PUSH2 0x1DBD JUMP JUMPDEST DUP3 ADD SWAP2 SWAP1 PUSH0 MSTORE PUSH1 0x20 PUSH0 KECCAK256 SWAP1 JUMPDEST DUP2 SLOAD DUP2 MSTORE SWAP1 PUSH1 0x1 ADD SWAP1 PUSH1 0x20 ADD DUP1 DUP4 GT PUSH2 0x1DA0 JUMPI DUP3 SWAP1 SUB PUSH1 0x1F AND DUP3 ADD SWAP2 JUMPDEST POP POP POP POP POP DUP2 MSTORE PUSH1 0x20 ADD PUSH1 0x9 DUP3 ADD PUSH0 SWAP1 SLOAD SWAP1 PUSH2 0x100 EXP SWAP1 DIV PUSH1 0xFF AND PUSH1 0x3 DUP2 GT ISZERO PUSH2 0x1DEA JUMPI PUSH2 0x1DE9 PUSH2 0x43D8 JUMP JUMPDEST JUMPDEST PUSH1 0x3 DUP2 GT ISZERO PUSH2 0x1DFC JUMPI PUSH2 0x1DFB PUSH2 0x43D8 JUMP JUMPDEST JUMPDEST DUP2 MSTORE PUSH1 0x20 ADD PUSH1 0xA DUP3 ADD SLOAD DUP2 MSTORE POP POP DUP4 DUP4 DUP1 PUSH2 0x1E16 SWAP1 PUSH2 0x4FB5 JUMP JUMPDEST SWAP5 POP DUP2 MLOAD DUP2 LT PUSH2 0x1E29 JUMPI PUSH2 0x1E28 PUSH2 0x4F5B JUMP JUMPDEST JUMPDEST PUSH1 0x20 MUL PUSH1 0x20 ADD ADD DUP2 SWAP1 MSTORE POP JUMPDEST DUP1 DUP1 PUSH1 0x1 ADD SWAP2 POP POP PUSH2 0x19BC JUMP JUMPDEST POP DUP2 SWAP4 POP POP POP POP SWAP2 SWAP1 POP JUMP JUMPDEST PUSH1 0x60 PUSH1 0x8 DUP1 SLOAD DUP1 PUSH1 0x20 MUL PUSH1 0x20 ADD PUSH1 0x40 MLOAD SWAP1 DUP2 ADD PUSH1 0x40 MSTORE DUP1 SWAP3 SWAP2 SWAP1 DUP2 DUP2 MSTORE PUSH1 0x20 ADD PUSH0 SWAP1 JUMPDEST DUP3 DUP3 LT ISZERO PUSH2 0x1F19 JUMPI DUP4 DUP3 SWAP1 PUSH0 MSTORE PUSH1 0x20 PUSH0 KECCAK256 ADD DUP1 SLOAD PUSH2 0x1E8E SWAP1 PUSH2 0x4D3D JUMP JUMPDEST DUP1 PUSH1 0x1F ADD PUSH1 0x20 DUP1 SWAP2 DIV MUL PUSH1 0x20 ADD PUSH1 0x40 MLOAD SWAP1 DUP2 ADD PUSH1 0x40 MSTORE DUP1 SWAP3 SWAP2 SWAP1 DUP2 DUP2 MSTORE PUSH1 0x20 ADD DUP3 DUP1 SLOAD PUSH2 0x1EBA SWAP1 PUSH2 0x4D3D JUMP JUMPDEST DUP1 ISZERO PUSH2 0x1F05 JUMPI DUP1 PUSH1 0x1F LT PUSH2 0x1EDC JUMPI PUSH2 0x100 DUP1 DUP4 SLOAD DIV MUL DUP4 MSTORE SWAP2 PUSH1 0x20 ADD SWAP2 PUSH2 0x1F05 JUMP JUMPDEST DUP3 ADD SWAP2 SWAP1 PUSH0 MSTORE PUSH1 0x20 PUSH0 KECCAK256 SWAP1 JUMPDEST DUP2 SLOAD DUP2 MSTORE SWAP1 PUSH1 0x1 ADD SWAP1 PUSH1 0x20 ADD DUP1 DUP4 GT PUSH2 0x1EE8 JUMPI DUP3 SWAP1 SUB PUSH1 0x1F AND DUP3 ADD SWAP2 JUMPDEST POP POP POP POP POP DUP2 MSTORE PUSH1 0x20 ADD SWAP1 PUSH1 0x1 ADD SWAP1 PUSH2 0x1E71 JUMP JUMPDEST POP POP POP POP SWAP1 POP SWAP1 JUMP JUMPDEST PUSH0 PUSH1 0xD PUSH0 DUP4 PUSH20 0xFFFFFFFFFFFFFFFFFFFFFFFFFFFFFFFFFFFFFFFF AND PUSH20 0xFFFFFFFFFFFFFFFFFFFFFFFFFFFFFFFFFFFFFFFF AND DUP2 MSTORE PUSH1 0x20 ADD SWAP1 DUP2 MSTORE PUSH1 0x20 ADD PUSH0 KECCAK256 SLOAD SWAP1 POP SWAP2 SWAP1 POP JUMP JUMPDEST PUSH0 PUSH1 0x4 PUSH0 SWAP1 SLOAD SWAP1 PUSH2 0x100 EXP SWAP1 DIV PUSH20 0xFFFFFFFFFFFFFFFFFFFFFFFFFFFFFFFFFFFFFFFF AND SWAP1 POP SWAP1 JUMP JUMPDEST PUSH2 0x1F98 PUSH2 0x2E81 JUMP JUMPDEST PUSH0 PUSH1 0xA PUSH0 DUP4 DUP2 MSTORE PUSH1 0x20 ADD SWAP1 DUP2 MSTORE PUSH1 0x20 ADD PUSH0 KECCAK256 PUSH0 ADD SLOAD GT PUSH2 0x1FED JUMPI PUSH1 0x40 MLOAD PUSH32 0x8C379A000000000000000000000000000000000000000000000000000000000 DUP2 MSTORE PUSH1 0x4 ADD PUSH2 0x1FE4 SWAP1 PUSH2 0x4CF2 JUMP JUMPDEST PUSH1 0x40 MLOAD DUP1 SWAP2 SUB SWAP1 REVERT JUMPDEST PUSH1 0x1 PUSH1 0x3 DUP2 GT ISZERO PUSH2 0x2001 JUMPI PUSH2 0x2000 PUSH2 0x43D8 JUMP JUMPDEST JUMPDEST PUSH1 0xA PUSH0 DUP4 DUP2 MSTORE PUSH1 0x20 ADD SWAP1 DUP2 MSTORE PUSH1 0x20 ADD PUSH0 KECCAK256 PUSH1 0x9 ADD PUSH0 SWAP1 SLOAD SWAP1 PUSH2 0x100 EXP SWAP1 DIV PUSH1 0xFF AND PUSH1 0x3 DUP2 GT ISZERO PUSH2 0x2034 JUMPI PUSH2 0x2033 PUSH2 0x43D8 JUMP JUMPDEST JUMPDEST EQ PUSH2 0x2074 JUMPI PUSH1 0x40 MLOAD PUSH32 0x8C379A000000000000000000000000000000000000000000000000000000000 DUP2 MSTORE PUSH1 0x4 ADD PUSH2 0x206B SWAP1 PUSH2 0x50BE JUMP JUMPDEST PUSH1 0x40 MLOAD DUP1 SWAP2 SUB SWAP1 REVERT JUMPDEST PUSH2 0x2092 CALLER PUSH1 0xA PUSH0 DUP5 DUP2 MSTORE PUSH1 0x20 ADD SWAP1 DUP2 MSTORE PUSH1 0x20 ADD PUSH0 KECCAK256 PUSH1 0x7 ADD SLOAD PUSH2 0x33EA JUMP JUMPDEST PUSH2 0x209B DUP2 PUSH2 0x3948 JUMP JUMPDEST POP JUMP JUMPDEST PUSH0 DUP3 PUSH1 0x2 PUSH0 SWAP1 SLOAD SWAP1 PUSH2 0x100 EXP SWAP1 DIV PUSH20 0xFFFFFFFFFFFFFFFFFFFFFFFFFFFFFFFFFFFFFFFF AND PUSH20 0xFFFFFFFFFFFFFFFFFFFFFFFFFFFFFFFFFFFFFFFF AND PUSH4 0x70A08231 CALLER PUSH1 0x40 MLOAD DUP3 PUSH4 0xFFFFFFFF AND PUSH1 0xE0 SHL DUP2 MSTORE PUSH1 0x4 ADD PUSH2 0x20FA SWAP2 SWAP1 PUSH2 0x4A3C JUMP JUMPDEST PUSH1 0x20 PUSH1 0x40 MLOAD DUP1 DUP4 SUB DUP2 DUP7 GAS STATICCALL ISZERO DUP1 ISZERO PUSH2 0x2115 JUMPI RETURNDATASIZE PUSH0 DUP1 RETURNDATACOPY RETURNDATASIZE PUSH0 REVERT JUMPDEST POP POP POP POP PUSH1 0x40 MLOAD RETURNDATASIZE PUSH1 0x1F NOT PUSH1 0x1F DUP3 ADD AND DUP3 ADD DUP1 PUSH1 0x40 MSTORE POP DUP2 ADD SWAP1 PUSH2 0x2139 SWAP2 SWAP1 PUSH2 0x5023 JUMP JUMPDEST GT PUSH2 0x2179 JUMPI PUSH1 0x40 MLOAD PUSH32 0x8C379A000000000000000000000000000000000000000000000000000000000 DUP2 MSTORE PUSH1 0x4 ADD PUSH2 0x2170 SWAP1 PUSH2 0x5126 JUMP JUMPDEST PUSH1 0x40 MLOAD DUP1 SWAP2 SUB SWAP1 REVERT JUMPDEST DUP3 PUSH1 0x2 PUSH0 SWAP1 SLOAD SWAP1 PUSH2 0x100 EXP SWAP1 DIV PUSH20 0xFFFFFFFFFFFFFFFFFFFFFFFFFFFFFFFFFFFFFFFF AND PUSH20 0xFFFFFFFFFFFFFFFFFFFFFFFFFFFFFFFFFFFFFFFF AND PUSH4 0xDD62ED3E CALLER ADDRESS PUSH1 0x40 MLOAD DUP4 PUSH4 0xFFFFFFFF AND PUSH1 0xE0 SHL DUP2 MSTORE PUSH1 0x4 ADD PUSH2 0x21D6 SWAP3 SWAP2 SWAP1 PUSH2 0x4FFC JUMP JUMPDEST PUSH1 0x20 PUSH1 0x40 MLOAD DUP1 DUP4 SUB DUP2 DUP7 GAS STATICCALL ISZERO DUP1 ISZERO PUSH2 0x21F1 JUMPI RETURNDATASIZE PUSH0 DUP1 RETURNDATACOPY RETURNDATASIZE PUSH0 REVERT JUMPDEST POP POP POP POP PUSH1 0x40 MLOAD RETURNDATASIZE PUSH1 0x1F NOT PUSH1 0x1F DUP3 ADD AND DUP3 ADD DUP1 PUSH1 0x40 MSTORE POP DUP2 ADD SWAP1 PUSH2 0x2215 SWAP2 SWAP1 PUSH2 0x5023 JUMP JUMPDEST LT ISZERO PUSH2 0x2256 JUMPI PUSH1 0x40 MLOAD PUSH32 0x8C379A000000000000000000000000000000000000000000000000000000000 DUP2 MSTORE PUSH1 0x4 ADD PUSH2 0x224D SWAP1 PUSH2 0x518E JUMP JUMPDEST PUSH1 0x40 MLOAD DUP1 SWAP2 SUB SWAP1 REVERT JUMPDEST PUSH2 0x2261 CALLER DUP10 DUP9 PUSH2 0x3AC9 JUMP JUMPDEST ISZERO PUSH2 0x22A1 JUMPI PUSH1 0x40 MLOAD PUSH32 0x8C379A000000000000000000000000000000000000000000000000000000000 DUP2 MSTORE PUSH1 0x4 ADD PUSH2 0x2298 SWAP1 PUSH2 0x51F6 JUMP JUMPDEST PUSH1 0x40 MLOAD DUP1 SWAP2 SUB SWAP1 REVERT JUMPDEST PUSH0 PUSH2 0x22AE PUSH1 0x1 DUP11 DUP10 PUSH2 0x2FA2 JUMP JUMPDEST SWAP1 POP PUSH0 DUP2 GT ISZERO PUSH2 0x22ED JUMPI PUSH2 0x22EC PUSH1 0xA PUSH0 DUP4 DUP2 MSTORE PUSH1 0x20 ADD SWAP1 DUP2 MSTORE PUSH1 0x20 ADD PUSH0 KECCAK256 PUSH1 0x4 ADD SLOAD PUSH1 0xA PUSH0 DUP5 DUP2 MSTORE PUSH1 0x20 ADD SWAP1 DUP2 MSTORE PUSH1 0x20 ADD PUSH0 KECCAK256 PUSH1 0x7 ADD SLOAD DUP9 DUP8 PUSH2 0x319D JUMP JUMPDEST JUMPDEST PUSH1 0x2 PUSH0 SWAP1 SLOAD SWAP1 PUSH2 0x100 EXP SWAP1 DIV PUSH20 0xFFFFFFFFFFFFFFFFFFFFFFFFFFFFFFFFFFFFFFFF AND PUSH20 0xFFFFFFFFFFFFFFFFFFFFFFFFFFFFFFFFFFFFFFFF AND PUSH4 0x23B872DD CALLER ADDRESS DUP8 PUSH1 0x40 MLOAD DUP5 PUSH4 0xFFFFFFFF AND PUSH1 0xE0 SHL DUP2 MSTORE PUSH1 0x4 ADD PUSH2 0x234B SWAP4 SWAP3 SWAP2 SWAP1 PUSH2 0x5214 JUMP JUMPDEST PUSH1 0x20 PUSH1 0x40 MLOAD DUP1 DUP4 SUB DUP2 PUSH0 DUP8 GAS CALL ISZERO DUP1 ISZERO PUSH2 0x2367 JUMPI RETURNDATASIZE PUSH0 DUP1 RETURNDATACOPY RETURNDATASIZE PUSH0 REVERT JUMPDEST POP POP POP POP PUSH1 0x40 MLOAD RETURNDATASIZE PUSH1 0x1F NOT PUSH1 0x1F DUP3 ADD AND DUP3 ADD DUP1 PUSH1 0x40 MSTORE POP DUP2 ADD SWAP1 PUSH2 0x238B SWAP2 SWAP1 PUSH2 0x5273 JUMP JUMPDEST POP DUP4 PUSH1 0xC PUSH0 DUP3 DUP3 SLOAD PUSH2 0x239D SWAP2 SWAP1 PUSH2 0x529E JUMP JUMPDEST SWAP3 POP POP DUP2 SWAP1 SSTORE POP DUP4 PUSH1 0xD PUSH0 CALLER PUSH20 0xFFFFFFFFFFFFFFFFFFFFFFFFFFFFFFFFFFFFFFFF AND PUSH20 0xFFFFFFFFFFFFFFFFFFFFFFFFFFFFFFFFFFFFFFFF AND DUP2 MSTORE PUSH1 0x20 ADD SWAP1 DUP2 MSTORE PUSH1 0x20 ADD PUSH0 KECCAK256 PUSH0 DUP3 DUP3 SLOAD PUSH2 0x23F0 SWAP2 SWAP1 PUSH2 0x529E JUMP JUMPDEST SWAP3 POP POP DUP2 SWAP1 SSTORE POP PUSH0 PUSH2 0x2400 PUSH2 0x3D2F JUMP JUMPDEST SWAP1 POP PUSH1 0x40 MLOAD DUP1 PUSH2 0x160 ADD PUSH1 0x40 MSTORE DUP1 DUP3 DUP2 MSTORE PUSH1 0x20 ADD DUP12 DUP2 MSTORE PUSH1 0x20 ADD DUP11 DUP2 MSTORE PUSH1 0x20 ADD DUP10 DUP2 MSTORE PUSH1 0x20 ADD DUP9 DUP2 MSTORE PUSH1 0x20 ADD CALLER PUSH20 0xFFFFFFFFFFFFFFFFFFFFFFFFFFFFFFFFFFFFFFFF AND DUP2 MSTORE PUSH1 0x20 ADD DUP8 DUP2 MSTORE PUSH1 0x20 ADD DUP7 DUP2 MSTORE PUSH1 0x20 ADD DUP6 DUP2 MSTORE PUSH1 0x20 ADD PUSH0 PUSH1 0x3 DUP2 GT ISZERO PUSH2 0x246D JUMPI PUSH2 0x246C PUSH2 0x43D8 JUMP JUMPDEST JUMPDEST DUP2 MSTORE PUSH1 0x20 ADD TIMESTAMP DUP2 MSTORE POP PUSH1 0xA PUSH0 DUP4 DUP2 MSTORE PUSH1 0x20 ADD SWAP1 DUP2 MSTORE PUSH1 0x20 ADD PUSH0 KECCAK256 PUSH0 DUP3 ADD MLOAD DUP2 PUSH0 ADD SSTORE PUSH1 0x20 DUP3 ADD MLOAD DUP2 PUSH1 0x1 ADD SWAP1 DUP2 PUSH2 0x24A4 SWAP2 SWAP1 PUSH2 0x546E JUMP JUMPDEST POP PUSH1 0x40 DUP3 ADD MLOAD DUP2 PUSH1 0x2 ADD SWAP1 DUP2 PUSH2 0x24BA SWAP2 SWAP1 PUSH2 0x546E JUMP JUMPDEST POP PUSH1 0x60 DUP3 ADD MLOAD DUP2 PUSH1 0x3 ADD SWAP1 DUP2 PUSH2 0x24D0 SWAP2 SWAP1 PUSH2 0x546E JUMP JUMPDEST POP PUSH1 0x80 DUP3 ADD MLOAD DUP2 PUSH1 0x4 ADD SSTORE PUSH1 0xA0 DUP3 ADD MLOAD DUP2 PUSH1 0x5 ADD PUSH0 PUSH2 0x100 EXP DUP2 SLOAD DUP2 PUSH20 0xFFFFFFFFFFFFFFFFFFFFFFFFFFFFFFFFFFFFFFFF MUL NOT AND SWAP1 DUP4 PUSH20 0xFFFFFFFFFFFFFFFFFFFFFFFFFFFFFFFFFFFFFFFF AND MUL OR SWAP1 SSTORE POP PUSH1 0xC0 DUP3 ADD MLOAD DUP2 PUSH1 0x6 ADD SWAP1 DUP2 PUSH2 0x2536 SWAP2 SWAP1 PUSH2 0x546E JUMP JUMPDEST POP PUSH1 0xE0 DUP3 ADD MLOAD DUP2 PUSH1 0x7 ADD SSTORE PUSH2 0x100 DUP3 ADD MLOAD DUP2 PUSH1 0x8 ADD SWAP1 DUP2 PUSH2 0x2557 SWAP2 SWAP1 PUSH2 0x546E JUMP JUMPDEST POP PUSH2 0x120 DUP3 ADD MLOAD DUP2 PUSH1 0x9 ADD PUSH0 PUSH2 0x100 EXP DUP2 SLOAD DUP2 PUSH1 0xFF MUL NOT AND SWAP1 DUP4 PUSH1 0x3 DUP2 GT ISZERO PUSH2 0x2583 JUMPI PUSH2 0x2582 PUSH2 0x43D8 JUMP JUMPDEST JUMPDEST MUL OR SWAP1 SSTORE POP PUSH2 0x140 DUP3 ADD MLOAD DUP2 PUSH1 0xA ADD SSTORE SWAP1 POP POP PUSH1 0xB DUP2 SWAP1 DUP1 PUSH1 0x1 DUP2 SLOAD ADD DUP1 DUP3 SSTORE DUP1 SWAP2 POP POP PUSH1 0x1 SWAP1 SUB SWAP1 PUSH0 MSTORE PUSH1 0x20 PUSH0 KECCAK256 ADD PUSH0 SWAP1 SWAP2 SWAP1 SWAP2 SWAP1 SWAP2 POP SSTORE PUSH2 0x25C7 CALLER DUP12 DUP11 PUSH2 0x3D49 JUMP JUMPDEST PUSH32 0xBF010ABA48E49020ED90D2F6B9AE36C27E06A48F276AA44D6594E44347CB5CAD DUP4 PUSH0 PUSH1 0x40 MLOAD PUSH2 0x25F8 SWAP3 SWAP2 SWAP1 PUSH2 0x4E99 JUMP JUMPDEST PUSH1 0x40 MLOAD DUP1 SWAP2 SUB SWAP1 LOG1 DUP1 SWAP3 POP POP POP SWAP8 SWAP7 POP POP POP POP POP POP POP JUMP JUMPDEST PUSH2 0x2618 PUSH2 0x2E81 JUMP JUMPDEST PUSH0 PUSH1 0x3 DUP2 GT ISZERO PUSH2 0x262B JUMPI PUSH2 0x262A PUSH2 0x43D8 JUMP JUMPDEST JUMPDEST PUSH1 0xA PUSH0 DUP8 DUP2 MSTORE PUSH1 0x20 ADD SWAP1 DUP2 MSTORE PUSH1 0x20 ADD PUSH0 KECCAK256 PUSH1 0x9 ADD PUSH0 SWAP1 SLOAD SWAP1 PUSH2 0x100 EXP SWAP1 DIV PUSH1 0xFF AND PUSH1 0x3 DUP2 GT ISZERO PUSH2 0x265E JUMPI PUSH2 0x265D PUSH2 0x43D8 JUMP JUMPDEST JUMPDEST EQ PUSH2 0x269E JUMPI PUSH1 0x40 MLOAD PUSH32 0x8C379A000000000000000000000000000000000000000000000000000000000 DUP2 MSTORE PUSH1 0x4 ADD PUSH2 0x2695 SWAP1 PUSH2 0x55AD JUMP JUMPDEST PUSH1 0x40 MLOAD DUP1 SWAP2 SUB SWAP1 REVERT JUMPDEST DUP4 PUSH1 0xA PUSH0 DUP8 DUP2 MSTORE PUSH1 0x20 ADD SWAP1 DUP2 MSTORE PUSH1 0x20 ADD PUSH0 KECCAK256 PUSH1 0x1 ADD SWAP1 DUP2 PUSH2 0x26BF SWAP2 SWAP1 PUSH2 0x546E JUMP JUMPDEST POP DUP3 PUSH1 0xA PUSH0 DUP8 DUP2 MSTORE PUSH1 0x20 ADD SWAP1 DUP2 MSTORE PUSH1 0x20 ADD PUSH0 KECCAK256 PUSH1 0x2 ADD SWAP1 DUP2 PUSH2 0x26E1 SWAP2 SWAP1 PUSH2 0x546E JUMP JUMPDEST POP DUP2 PUSH1 0xA PUSH0 DUP8 DUP2 MSTORE PUSH1 0x20 ADD SWAP1 DUP2 MSTORE PUSH1 0x20 ADD PUSH0 KECCAK256 PUSH1 0x3 ADD SWAP1 DUP2 PUSH2 0x2703 SWAP2 SWAP1 PUSH2 0x546E JUMP JUMPDEST POP DUP1 PUSH1 0xA PUSH0 DUP8 DUP2 MSTORE PUSH1 0x20 ADD SWAP1 DUP2 MSTORE PUSH1 0x20 ADD PUSH0 KECCAK256 PUSH1 0x8 ADD SWAP1 DUP2 PUSH2 0x2725 SWAP2 SWAP1 PUSH2 0x546E JUMP JUMPDEST POP POP POP POP POP POP JUMP JUMPDEST PUSH1 0x60 PUSH0 PUSH2 0x273A PUSH1 0x1 PUSH2 0x2F08 JUMP JUMPDEST SWAP1 POP PUSH0 DUP2 PUSH8 0xFFFFFFFFFFFFFFFF DUP2 GT ISZERO PUSH2 0x2757 JUMPI PUSH2 0x2756 PUSH2 0x457B JUMP JUMPDEST JUMPDEST PUSH1 0x40 MLOAD SWAP1 DUP1 DUP3 MSTORE DUP1 PUSH1 0x20 MUL PUSH1 0x20 ADD DUP3 ADD PUSH1 0x40 MSTORE DUP1 ISZERO PUSH2 0x2790 JUMPI DUP2 PUSH1 0x20 ADD JUMPDEST PUSH2 0x277D PUSH2 0x4140 JUMP JUMPDEST DUP2 MSTORE PUSH1 0x20 ADD SWAP1 PUSH1 0x1 SWAP1 SUB SWAP1 DUP2 PUSH2 0x2775 JUMPI SWAP1 POP JUMPDEST POP SWAP1 POP PUSH0 DUP1 JUMPDEST PUSH1 0xB DUP1 SLOAD SWAP1 POP DUP2 LT ISZERO PUSH2 0x2BC6 JUMPI PUSH2 0x27CA PUSH1 0xB DUP3 DUP2 SLOAD DUP2 LT PUSH2 0x27BA JUMPI PUSH2 0x27B9 PUSH2 0x4F5B JUMP JUMPDEST JUMPDEST SWAP1 PUSH0 MSTORE PUSH1 0x20 PUSH0 KECCAK256 ADD SLOAD PUSH1 0x1 PUSH2 0x3746 JUMP JUMPDEST ISZERO PUSH2 0x2BB9 JUMPI PUSH1 0xA PUSH0 PUSH1 0xB DUP4 DUP2 SLOAD DUP2 LT PUSH2 0x27E6 JUMPI PUSH2 0x27E5 PUSH2 0x4F5B JUMP JUMPDEST JUMPDEST SWAP1 PUSH0 MSTORE PUSH1 0x20 PUSH0 KECCAK256 ADD SLOAD DUP2 MSTORE PUSH1 0x20 ADD SWAP1 DUP2 MSTORE PUSH1 0x20 ADD PUSH0 KECCAK256 PUSH1 0x40 MLOAD DUP1 PUSH2 0x160 ADD PUSH1 0x40 MSTORE SWAP1 DUP2 PUSH0 DUP3 ADD SLOAD DUP2 MSTORE PUSH1 0x20 ADD PUSH1 0x1 DUP3 ADD DUP1 SLOAD PUSH2 0x2821 SWAP1 PUSH2 0x4D3D JUMP JUMPDEST DUP1 PUSH1 0x1F ADD PUSH1 0x20 DUP1 SWAP2 DIV MUL PUSH1 0x20 ADD PUSH1 0x40 MLOAD SWAP1 DUP2 ADD PUSH1 0x40 MSTORE DUP1 SWAP3 SWAP2 SWAP1 DUP2 DUP2 MSTORE PUSH1 0x20 ADD DUP3 DUP1 SLOAD PUSH2 0x284D SWAP1 PUSH2 0x4D3D JUMP JUMPDEST DUP1 ISZERO PUSH2 0x2898 JUMPI DUP1 PUSH1 0x1F LT PUSH2 0x286F JUMPI PUSH2 0x100 DUP1 DUP4 SLOAD DIV MUL DUP4 MSTORE SWAP2 PUSH1 0x20 ADD SWAP2 PUSH2 0x2898 JUMP JUMPDEST DUP3 ADD SWAP2 SWAP1 PUSH0 MSTORE PUSH1 0x20 PUSH0 KECCAK256 SWAP1 JUMPDEST DUP2 SLOAD DUP2 MSTORE SWAP1 PUSH1 0x1 ADD SWAP1 PUSH1 0x20 ADD DUP1 DUP4 GT PUSH2 0x287B JUMPI DUP3 SWAP1 SUB PUSH1 0x1F AND DUP3 ADD SWAP2 JUMPDEST POP POP POP POP POP DUP2 MSTORE PUSH1 0x20 ADD PUSH1 0x2 DUP3 ADD DUP1 SLOAD PUSH2 0x28B1 SWAP1 PUSH2 0x4D3D JUMP JUMPDEST DUP1 PUSH1 0x1F ADD PUSH1 0x20 DUP1 SWAP2 DIV MUL PUSH1 0x20 ADD PUSH1 0x40 MLOAD SWAP1 DUP2 ADD PUSH1 0x40 MSTORE DUP1 SWAP3 SWAP2 SWAP1 DUP2 DUP2 MSTORE PUSH1 0x20 ADD DUP3 DUP1 SLOAD PUSH2 0x28DD SWAP1 PUSH2 0x4D3D JUMP JUMPDEST DUP1 ISZERO PUSH2 0x2928 JUMPI DUP1 PUSH1 0x1F LT PUSH2 0x28FF JUMPI PUSH2 0x100 DUP1 DUP4 SLOAD DIV MUL DUP4 MSTORE SWAP2 PUSH1 0x20 ADD SWAP2 PUSH2 0x2928 JUMP JUMPDEST DUP3 ADD SWAP2 SWAP1 PUSH0 MSTORE PUSH1 0x20 PUSH0 KECCAK256 SWAP1 JUMPDEST DUP2 SLOAD DUP2 MSTORE SWAP1 PUSH1 0x1 ADD SWAP1 PUSH1 0x20 ADD DUP1 DUP4 GT PUSH2 0x290B JUMPI DUP3 SWAP1 SUB PUSH1 0x1F AND DUP3 ADD SWAP2 JUMPDEST POP POP POP POP POP DUP2 MSTORE PUSH1 0x20 ADD PUSH1 0x3 DUP3 ADD DUP1 SLOAD PUSH2 0x2941 SWAP1 PUSH2 0x4D3D JUMP JUMPDEST DUP1 PUSH1 0x1F ADD PUSH1 0x20 DUP1 SWAP2 DIV MUL PUSH1 0x20 ADD PUSH1 0x40 MLOAD SWAP1 DUP2 ADD PUSH1 0x40 MSTORE DUP1 SWAP3 SWAP2 SWAP1 DUP2 DUP2 MSTORE PUSH1 0x20 ADD DUP3 DUP1 SLOAD PUSH2 0x296D SWAP1 PUSH2 0x4D3D JUMP JUMPDEST DUP1 ISZERO PUSH2 0x29B8 JUMPI DUP1 PUSH1 0x1F LT PUSH2 0x298F JUMPI PUSH2 0x100 DUP1 DUP4 SLOAD DIV MUL DUP4 MSTORE SWAP2 PUSH1 0x20 ADD SWAP2 PUSH2 0x29B8 JUMP JUMPDEST DUP3 ADD SWAP2 SWAP1 PUSH0 MSTORE PUSH1 0x20 PUSH0 KECCAK256 SWAP1 JUMPDEST DUP2 SLOAD DUP2 MSTORE SWAP1 PUSH1 0x1 ADD SWAP1 PUSH1 0x20 ADD DUP1 DUP4 GT PUSH2 0x299B JUMPI DUP3 SWAP1 SUB PUSH1 0x1F AND DUP3 ADD SWAP2 JUMPDEST POP POP POP POP POP DUP2 MSTORE PUSH1 0x20 ADD PUSH1 0x4 DUP3 ADD SLOAD DUP2 MSTORE PUSH1 0x20 ADD PUSH1 0x5 DUP3 ADD PUSH0 SWAP1 SLOAD SWAP1 PUSH2 0x100 EXP SWAP1 DIV PUSH20 0xFFFFFFFFFFFFFFFFFFFFFFFFFFFFFFFFFFFFFFFF AND PUSH20 0xFFFFFFFFFFFFFFFFFFFFFFFFFFFFFFFFFFFFFFFF AND PUSH20 0xFFFFFFFFFFFFFFFFFFFFFFFFFFFFFFFFFFFFFFFF AND DUP2 MSTORE PUSH1 0x20 ADD PUSH1 0x6 DUP3 ADD DUP1 SLOAD PUSH2 0x2A30 SWAP1 PUSH2 0x4D3D JUMP JUMPDEST DUP1 PUSH1 0x1F ADD PUSH1 0x20 DUP1 SWAP2 DIV MUL PUSH1 0x20 ADD PUSH1 0x40 MLOAD SWAP1 DUP2 ADD PUSH1 0x40 MSTORE DUP1 SWAP3 SWAP2 SWAP1 DUP2 DUP2 MSTORE PUSH1 0x20 ADD DUP3 DUP1 SLOAD PUSH2 0x2A5C SWAP1 PUSH2 0x4D3D JUMP JUMPDEST DUP1 ISZERO PUSH2 0x2AA7 JUMPI DUP1 PUSH1 0x1F LT PUSH2 0x2A7E JUMPI PUSH2 0x100 DUP1 DUP4 SLOAD DIV MUL DUP4 MSTORE SWAP2 PUSH1 0x20 ADD SWAP2 PUSH2 0x2AA7 JUMP JUMPDEST DUP3 ADD SWAP2 SWAP1 PUSH0 MSTORE PUSH1 0x20 PUSH0 KECCAK256 SWAP1 JUMPDEST DUP2 SLOAD DUP2 MSTORE SWAP1 PUSH1 0x1 ADD SWAP1 PUSH1 0x20 ADD DUP1 DUP4 GT PUSH2 0x2A8A JUMPI DUP3 SWAP1 SUB PUSH1 0x1F AND DUP3 ADD SWAP2 JUMPDEST POP POP POP POP POP DUP2 MSTORE PUSH1 0x20 ADD PUSH1 0x7 DUP3 ADD SLOAD DUP2 MSTORE PUSH1 0x20 ADD PUSH1 0x8 DUP3 ADD DUP1 SLOAD PUSH2 0x2ACA SWAP1 PUSH2 0x4D3D JUMP JUMPDEST DUP1 PUSH1 0x1F ADD PUSH1 0x20 DUP1 SWAP2 DIV MUL PUSH1 0x20 ADD PUSH1 0x40 MLOAD SWAP1 DUP2 ADD PUSH1 0x40 MSTORE DUP1 SWAP3 SWAP2 SWAP1 DUP2 DUP2 MSTORE PUSH1 0x20 ADD DUP3 DUP1 SLOAD PUSH2 0x2AF6 SWAP1 PUSH2 0x4D3D JUMP JUMPDEST DUP1 ISZERO PUSH2 0x2B41 JUMPI DUP1 PUSH1 0x1F LT PUSH2 0x2B18 JUMPI PUSH2 0x100 DUP1 DUP4 SLOAD DIV MUL DUP4 MSTORE SWAP2 PUSH1 0x20 ADD SWAP2 PUSH2 0x2B41 JUMP JUMPDEST DUP3 ADD SWAP2 SWAP1 PUSH0 MSTORE PUSH1 0x20 PUSH0 KECCAK256 SWAP1 JUMPDEST DUP2 SLOAD DUP2 MSTORE SWAP1 PUSH1 0x1 ADD SWAP1 PUSH1 0x20 ADD DUP1 DUP4 GT PUSH2 0x2B24 JUMPI DUP3 SWAP1 SUB PUSH1 0x1F AND DUP3 ADD SWAP2 JUMPDEST POP POP POP POP POP DUP2 MSTORE PUSH1 0x20 ADD PUSH1 0x9 DUP3 ADD PUSH0 SWAP1 SLOAD SWAP1 PUSH2 0x100 EXP SWAP1 DIV PUSH1 0xFF AND PUSH1 0x3 DUP2 GT ISZERO PUSH2 0x2B6E JUMPI PUSH2 0x2B6D PUSH2 0x43D8 JUMP JUMPDEST JUMPDEST PUSH1 0x3 DUP2 GT ISZERO PUSH2 0x2B80 JUMPI PUSH2 0x2B7F PUSH2 0x43D8 JUMP JUMPDEST JUMPDEST DUP2 MSTORE PUSH1 0x20 ADD PUSH1 0xA DUP3 ADD SLOAD DUP2 MSTORE POP POP DUP4 DUP4 DUP1 PUSH2 0x2B9A SWAP1 PUSH2 0x4FB5 JUMP JUMPDEST SWAP5 POP DUP2 MLOAD DUP2 LT PUSH2 0x2BAD JUMPI PUSH2 0x2BAC PUSH2 0x4F5B JUMP JUMPDEST JUMPDEST PUSH1 0x20 MUL PUSH1 0x20 ADD ADD DUP2 SWAP1 MSTORE POP JUMPDEST DUP1 DUP1 PUSH1 0x1 ADD SWAP2 POP POP PUSH2 0x2796 JUMP JUMPDEST POP DUP2 SWAP4 POP POP POP POP SWAP1 JUMP JUMPDEST PUSH0 CALLER PUSH20 0xFFFFFFFFFFFFFFFFFFFFFFFFFFFFFFFFFFFFFFFF AND PUSH1 0xA PUSH0 DUP5 DUP2 MSTORE PUSH1 0x20 ADD SWAP1 DUP2 MSTORE PUSH1 0x20 ADD PUSH0 KECCAK256 PUSH1 0x5 ADD PUSH0 SWAP1 SLOAD SWAP1 PUSH2 0x100 EXP SWAP1 DIV PUSH20 0xFFFFFFFFFFFFFFFFFFFFFFFFFFFFFFFFFFFFFFFF AND PUSH20 0xFFFFFFFFFFFFFFFFFFFFFFFFFFFFFFFFFFFFFFFF AND EQ PUSH2 0x2C72 JUMPI PUSH1 0x40 MLOAD PUSH32 0x8C379A000000000000000000000000000000000000000000000000000000000 DUP2 MSTORE PUSH1 0x4 ADD PUSH2 0x2C69 SWAP1 PUSH2 0x563B JUMP JUMPDEST PUSH1 0x40 MLOAD DUP1 SWAP2 SUB SWAP1 REVERT JUMPDEST PUSH0 PUSH1 0xA PUSH0 DUP5 DUP2 MSTORE PUSH1 0x20 ADD SWAP1 DUP2 MSTORE PUSH1 0x20 ADD PUSH0 KECCAK256 PUSH0 ADD SLOAD GT PUSH2 0x2CC7 JUMPI PUSH1 0x40 MLOAD PUSH32 0x8C379A000000000000000000000000000000000000000000000000000000000 DUP2 MSTORE PUSH1 0x4 ADD PUSH2 0x2CBE SWAP1 PUSH2 0x4CF2 JUMP JUMPDEST PUSH1 0x40 MLOAD DUP1 SWAP2 SUB SWAP1 REVERT JUMPDEST PUSH1 0x1 PUSH1 0x3 DUP2 GT ISZERO PUSH2 0x2CDB JUMPI PUSH2 0x2CDA PUSH2 0x43D8 JUMP JUMPDEST JUMPDEST PUSH1 0xA PUSH0 DUP5 DUP2 MSTORE PUSH1 0x20 ADD SWAP1 DUP2 MSTORE PUSH1 0x20 ADD PUSH0 KECCAK256 PUSH1 0x9 ADD PUSH0 SWAP1 SLOAD SWAP1 PUSH2 0x100 EXP SWAP1 DIV PUSH1 0xFF AND PUSH1 0x3 DUP2 GT ISZERO PUSH2 0x2D0E JUMPI PUSH2 0x2D0D PUSH2 0x43D8 JUMP JUMPDEST JUMPDEST EQ DUP1 PUSH2 0x2D5D JUMPI POP PUSH0 PUSH1 0x3 DUP2 GT ISZERO PUSH2 0x2D28 JUMPI PUSH2 0x2D27 PUSH2 0x43D8 JUMP JUMPDEST JUMPDEST PUSH1 0xA PUSH0 DUP5 DUP2 MSTORE PUSH1 0x20 ADD SWAP1 DUP2 MSTORE PUSH1 0x20 ADD PUSH0 KECCAK256 PUSH1 0x9 ADD PUSH0 SWAP1 SLOAD SWAP1 PUSH2 0x100 EXP SWAP1 DIV PUSH1 0xFF AND PUSH1 0x3 DUP2 GT ISZERO PUSH2 0x2D5B JUMPI PUSH2 0x2D5A PUSH2 0x43D8 JUMP JUMPDEST JUMPDEST EQ JUMPDEST PUSH2 0x2D9C JUMPI PUSH1 0x40 MLOAD PUSH32 0x8C379A000000000000000000000000000000000000000000000000000000000 DUP2 MSTORE PUSH1 0x4 ADD PUSH2 0x2D93 SWAP1 PUSH2 0x56C9 JUMP JUMPDEST PUSH1 0x40 MLOAD DUP1 SWAP2 SUB SWAP1 REVERT JUMPDEST PUSH2 0x2DBA CALLER PUSH1 0xA PUSH0 DUP6 DUP2 MSTORE PUSH1 0x20 ADD SWAP1 DUP2 MSTORE PUSH1 0x20 ADD PUSH0 KECCAK256 PUSH1 0x7 ADD SLOAD PUSH2 0x33EA JUMP JUMPDEST PUSH2 0x2DC3 DUP3 PUSH2 0x3948 JUMP JUMPDEST PUSH1 0x1 SWAP1 POP SWAP2 SWAP1 POP JUMP JUMPDEST PUSH0 PUSH1 0x6 PUSH0 SWAP1 SLOAD SWAP1 PUSH2 0x100 EXP SWAP1 DIV PUSH20 0xFFFFFFFFFFFFFFFFFFFFFFFFFFFFFFFFFFFFFFFF AND SWAP1 POP SWAP1 JUMP JUMPDEST PUSH0 PUSH1 0xC SLOAD SWAP1 POP SWAP1 JUMP JUMPDEST PUSH2 0x2E05 PUSH2 0x2E81 JUMP JUMPDEST PUSH0 PUSH20 0xFFFFFFFFFFFFFFFFFFFFFFFFFFFFFFFFFFFFFFFF AND DUP2 PUSH20 0xFFFFFFFFFFFFFFFFFFFFFFFFFFFFFFFFFFFFFFFF AND SUB PUSH2 0x2E75 JUMPI PUSH0 PUSH1 0x40 MLOAD PUSH32 0x1E4FBDF700000000000000000000000000000000000000000000000000000000 DUP2 MSTORE PUSH1 0x4 ADD PUSH2 0x2E6C SWAP2 SWAP1 PUSH2 0x4A3C JUMP JUMPDEST PUSH1 0x40 MLOAD DUP1 SWAP2 SUB SWAP1 REVERT JUMPDEST PUSH2 0x2E7E DUP2 PUSH2 0x37CB JUMP JUMPDEST POP JUMP JUMPDEST PUSH2 0x2E89 PUSH2 0x4115 JUMP JUMPDEST PUSH20 0xFFFFFFFFFFFFFFFFFFFFFFFFFFFFFFFFFFFFFFFF AND PUSH2 0x2EA7 PUSH2 0x192D JUMP JUMPDEST PUSH20 0xFFFFFFFFFFFFFFFFFFFFFFFFFFFFFFFFFFFFFFFF AND EQ PUSH2 0x2F06 JUMPI PUSH2 0x2ECA PUSH2 0x4115 JUMP JUMPDEST PUSH1 0x40 MLOAD PUSH32 0x118CDAA700000000000000000000000000000000000000000000000000000000 DUP2 MSTORE PUSH1 0x4 ADD PUSH2 0x2EFD SWAP2 SWAP1 PUSH2 0x4A3C JUMP JUMPDEST PUSH1 0x40 MLOAD DUP1 SWAP2 SUB SWAP1 REVERT JUMPDEST JUMP JUMPDEST PUSH0 DUP1 PUSH0 SWAP1 POP PUSH0 JUMPDEST PUSH1 0xB DUP1 SLOAD SWAP1 POP DUP2 LT ISZERO PUSH2 0x2F63 JUMPI PUSH2 0x2F42 PUSH1 0xB DUP3 DUP2 SLOAD DUP2 LT PUSH2 0x2F33 JUMPI PUSH2 0x2F32 PUSH2 0x4F5B JUMP JUMPDEST JUMPDEST SWAP1 PUSH0 MSTORE PUSH1 0x20 PUSH0 KECCAK256 ADD SLOAD DUP6 PUSH2 0x3746 JUMP JUMPDEST ISZERO PUSH2 0x2F56 JUMPI DUP2 DUP1 PUSH2 0x2F52 SWAP1 PUSH2 0x4FB5 JUMP JUMPDEST SWAP3 POP POP JUMPDEST DUP1 DUP1 PUSH1 0x1 ADD SWAP2 POP POP PUSH2 0x2F0F JUMP JUMPDEST POP DUP1 SWAP2 POP POP SWAP2 SWAP1 POP JUMP JUMPDEST PUSH1 0x8 DUP2 SWAP1 DUP1 PUSH1 0x1 DUP2 SLOAD ADD DUP1 DUP3 SSTORE DUP1 SWAP2 POP POP PUSH1 0x1 SWAP1 SUB SWAP1 PUSH0 MSTORE PUSH1 0x20 PUSH0 KECCAK256 ADD PUSH0 SWAP1 SWAP2 SWAP1 SWAP2 SWAP1 SWAP2 POP SWAP1 DUP2 PUSH2 0x2F9E SWAP2 SWAP1 PUSH2 0x546E JUMP JUMPDEST POP POP JUMP JUMPDEST PUSH0 DUP1 PUSH0 SWAP1 POP JUMPDEST PUSH1 0xB DUP1 SLOAD SWAP1 POP DUP2 LT ISZERO PUSH2 0x3191 JUMPI PUSH0 PUSH1 0xB DUP3 DUP2 SLOAD DUP2 LT PUSH2 0x2FCA JUMPI PUSH2 0x2FC9 PUSH2 0x4F5B JUMP JUMPDEST JUMPDEST SWAP1 PUSH0 MSTORE PUSH1 0x20 PUSH0 KECCAK256 ADD SLOAD SWAP1 POP DUP6 PUSH1 0x3 DUP2 GT ISZERO PUSH2 0x2FE8 JUMPI PUSH2 0x2FE7 PUSH2 0x43D8 JUMP JUMPDEST JUMPDEST PUSH1 0xA PUSH0 DUP4 DUP2 MSTORE PUSH1 0x20 ADD SWAP1 DUP2 MSTORE PUSH1 0x20 ADD PUSH0 KECCAK256 PUSH1 0x9 ADD PUSH0 SWAP1 SLOAD SWAP1 PUSH2 0x100 EXP SWAP1 DIV PUSH1 0xFF AND PUSH1 0x3 DUP2 GT ISZERO PUSH2 0x301B JUMPI PUSH2 0x301A PUSH2 0x43D8 JUMP JUMPDEST JUMPDEST EQ DUP1 ISZERO PUSH2 0x30C8 JUMPI POP PUSH2 0x30C7 PUSH1 0xA PUSH0 DUP4 DUP2 MSTORE PUSH1 0x20 ADD SWAP1 DUP2 MSTORE PUSH1 0x20 ADD PUSH0 KECCAK256 PUSH1 0x1 ADD DUP1 SLOAD PUSH2 0x3045 SWAP1 PUSH2 0x4D3D JUMP JUMPDEST DUP1 PUSH1 0x1F ADD PUSH1 0x20 DUP1 SWAP2 DIV MUL PUSH1 0x20 ADD PUSH1 0x40 MLOAD SWAP1 DUP2 ADD PUSH1 0x40 MSTORE DUP1 SWAP3 SWAP2 SWAP1 DUP2 DUP2 MSTORE PUSH1 0x20 ADD DUP3 DUP1 SLOAD PUSH2 0x3071 SWAP1 PUSH2 0x4D3D JUMP JUMPDEST DUP1 ISZERO PUSH2 0x30BC JUMPI DUP1 PUSH1 0x1F LT PUSH2 0x3093 JUMPI PUSH2 0x100 DUP1 DUP4 SLOAD DIV MUL DUP4 MSTORE SWAP2 PUSH1 0x20 ADD SWAP2 PUSH2 0x30BC JUMP JUMPDEST DUP3 ADD SWAP2 SWAP1 PUSH0 MSTORE PUSH1 0x20 PUSH0 KECCAK256 SWAP1 JUMPDEST DUP2 SLOAD DUP2 MSTORE SWAP1 PUSH1 0x1 ADD SWAP1 PUSH1 0x20 ADD DUP1 DUP4 GT PUSH2 0x309F JUMPI DUP3 SWAP1 SUB PUSH1 0x1F AND DUP3 ADD SWAP2 JUMPDEST POP POP POP POP POP DUP7 PUSH2 0x411C JUMP JUMPDEST JUMPDEST DUP1 ISZERO PUSH2 0x3174 JUMPI POP PUSH2 0x3173 PUSH1 0xA PUSH0 DUP4 DUP2 MSTORE PUSH1 0x20 ADD SWAP1 DUP2 MSTORE PUSH1 0x20 ADD PUSH0 KECCAK256 PUSH1 0x3 ADD DUP1 SLOAD PUSH2 0x30F1 SWAP1 PUSH2 0x4D3D JUMP JUMPDEST DUP1 PUSH1 0x1F ADD PUSH1 0x20 DUP1 SWAP2 DIV MUL PUSH1 0x20 ADD PUSH1 0x40 MLOAD SWAP1 DUP2 ADD PUSH1 0x40 MSTORE DUP1 SWAP3 SWAP2 SWAP1 DUP2 DUP2 MSTORE PUSH1 0x20 ADD DUP3 DUP1 SLOAD PUSH2 0x311D SWAP1 PUSH2 0x4D3D JUMP JUMPDEST DUP1 ISZERO PUSH2 0x3168 JUMPI DUP1 PUSH1 0x1F LT PUSH2 0x313F JUMPI PUSH2 0x100 DUP1 DUP4 SLOAD DIV MUL DUP4 MSTORE SWAP2 PUSH1 0x20 ADD SWAP2 PUSH2 0x3168 JUMP JUMPDEST DUP3 ADD SWAP2 SWAP1 PUSH0 MSTORE PUSH1 0x20 PUSH0 KECCAK256 SWAP1 JUMPDEST DUP2 SLOAD DUP2 MSTORE SWAP1 PUSH1 0x1 ADD SWAP1 PUSH1 0x20 ADD DUP1 DUP4 GT PUSH2 0x314B JUMPI DUP3 SWAP1 SUB PUSH1 0x1F AND DUP3 ADD SWAP2 JUMPDEST POP POP POP POP POP DUP6 PUSH2 0x411C JUMP JUMPDEST JUMPDEST ISZERO PUSH2 0x3183 JUMPI DUP1 SWAP3 POP POP POP PUSH2 0x3196 JUMP JUMPDEST POP DUP1 DUP1 PUSH1 0x1 ADD SWAP2 POP POP PUSH2 0x2FA8 JUMP JUMPDEST POP PUSH0 SWAP1 POP JUMPDEST SWAP4 SWAP3 POP POP POP JUMP JUMPDEST PUSH0 DUP2 GT PUSH2 0x31DF JUMPI PUSH1 0x40 MLOAD PUSH32 0x8C379A000000000000000000000000000000000000000000000000000000000 DUP2 MSTORE PUSH1 0x4 ADD PUSH2 0x31D6 SWAP1 PUSH2 0x5731 JUMP JUMPDEST PUSH1 0x40 MLOAD DUP1 SWAP2 SUB SWAP1 REVERT JUMPDEST DUP4 DUP3 GT DUP1 PUSH2 0x31F7 JUMPI POP DUP4 DUP3 EQ DUP1 ISZERO PUSH2 0x31F6 JUMPI POP DUP3 DUP2 GT JUMPDEST JUMPDEST PUSH2 0x3236 JUMPI PUSH1 0x40 MLOAD PUSH32 0x8C379A000000000000000000000000000000000000000000000000000000000 DUP2 MSTORE PUSH1 0x4 ADD PUSH2 0x322D SWAP1 PUSH2 0x57E5 JUMP JUMPDEST PUSH1 0x40 MLOAD DUP1 SWAP2 SUB SWAP1 REVERT JUMPDEST POP POP POP POP JUMP JUMPDEST PUSH2 0x3244 PUSH2 0x2E81 JUMP JUMPDEST PUSH0 PUSH1 0xA PUSH0 DUP4 DUP2 MSTORE PUSH1 0x20 ADD SWAP1 DUP2 MSTORE PUSH1 0x20 ADD PUSH0 KECCAK256 PUSH0 ADD SLOAD GT PUSH2 0x3299 JUMPI PUSH1 0x40 MLOAD PUSH32 0x8C379A000000000000000000000000000000000000000000000000000000000 DUP2 MSTORE PUSH1 0x4 ADD PUSH2 0x3290 SWAP1 PUSH2 0x4CF2 JUMP JUMPDEST PUSH1 0x40 MLOAD DUP1 SWAP2 SUB SWAP1 REVERT JUMPDEST PUSH1 0x1 PUSH1 0x3 DUP2 GT ISZERO PUSH2 0x32AD JUMPI PUSH2 0x32AC PUSH2 0x43D8 JUMP JUMPDEST JUMPDEST PUSH1 0xA PUSH0 DUP4 DUP2 MSTORE PUSH1 0x20 ADD SWAP1 DUP2 MSTORE PUSH1 0x20 ADD PUSH0 KECCAK256 PUSH1 0x9 ADD PUSH0 SWAP1 SLOAD SWAP1 PUSH2 0x100 EXP SWAP1 DIV PUSH1 0xFF AND PUSH1 0x3 DUP2 GT ISZERO PUSH2 0x32E0 JUMPI PUSH2 0x32DF PUSH2 0x43D8 JUMP JUMPDEST JUMPDEST EQ PUSH2 0x3320 JUMPI PUSH1 0x40 MLOAD PUSH32 0x8C379A000000000000000000000000000000000000000000000000000000000 DUP2 MSTORE PUSH1 0x4 ADD PUSH2 0x3317 SWAP1 PUSH2 0x50BE JUMP JUMPDEST PUSH1 0x40 MLOAD DUP1 SWAP2 SUB SWAP1 REVERT JUMPDEST PUSH2 0x3371 PUSH1 0xA PUSH0 DUP4 DUP2 MSTORE PUSH1 0x20 ADD SWAP1 DUP2 MSTORE PUSH1 0x20 ADD PUSH0 KECCAK256 PUSH1 0x5 ADD PUSH0 SWAP1 SLOAD SWAP1 PUSH2 0x100 EXP SWAP1 DIV PUSH20 0xFFFFFFFFFFFFFFFFFFFFFFFFFFFFFFFFFFFFFFFF AND PUSH1 0xA PUSH0 DUP5 DUP2 MSTORE PUSH1 0x20 ADD SWAP1 DUP2 MSTORE PUSH1 0x20 ADD PUSH0 KECCAK256 PUSH1 0x7 ADD SLOAD PUSH2 0x33EA JUMP JUMPDEST PUSH1 0x3 PUSH1 0xA PUSH0 DUP4 DUP2 MSTORE PUSH1 0x20 ADD SWAP1 DUP2 MSTORE PUSH1 0x20 ADD PUSH0 KECCAK256 PUSH1 0x9 ADD PUSH0 PUSH2 0x100 EXP DUP2 SLOAD DUP2 PUSH1 0xFF MUL NOT AND SWAP1 DUP4 PUSH1 0x3 DUP2 GT ISZERO PUSH2 0x33A8 JUMPI PUSH2 0x33A7 PUSH2 0x43D8 JUMP JUMPDEST JUMPDEST MUL OR SWAP1 SSTORE POP PUSH32 0xBF010ABA48E49020ED90D2F6B9AE36C27E06A48F276AA44D6594E44347CB5CAD DUP2 PUSH1 0x3 PUSH1 0x40 MLOAD PUSH2 0x33DF SWAP3 SWAP2 SWAP1 PUSH2 0x4E99 JUMP JUMPDEST PUSH1 0x40 MLOAD DUP1 SWAP2 SUB SWAP1 LOG1 POP JUMP JUMPDEST PUSH0 PUSH20 0xFFFFFFFFFFFFFFFFFFFFFFFFFFFFFFFFFFFFFFFF AND DUP3 PUSH20 0xFFFFFFFFFFFFFFFFFFFFFFFFFFFFFFFFFFFFFFFF AND SUB PUSH2 0x3458 JUMPI PUSH1 0x40 MLOAD PUSH32 0x8C379A000000000000000000000000000000000000000000000000000000000 DUP2 MSTORE PUSH1 0x4 ADD PUSH2 0x344F SWAP1 PUSH2 0x584D JUMP JUMPDEST PUSH1 0x40 MLOAD DUP1 SWAP2 SUB SWAP1 REVERT JUMPDEST PUSH0 DUP2 GT PUSH2 0x349A JUMPI PUSH1 0x40 MLOAD PUSH32 0x8C379A000000000000000000000000000000000000000000000000000000000 DUP2 MSTORE PUSH1 0x4 ADD PUSH2 0x3491 SWAP1 PUSH2 0x58B5 JUMP JUMPDEST PUSH1 0x40 MLOAD DUP1 SWAP2 SUB SWAP1 REVERT JUMPDEST DUP1 PUSH1 0xC SLOAD LT ISZERO PUSH2 0x34DF JUMPI PUSH1 0x40 MLOAD PUSH32 0x8C379A000000000000000000000000000000000000000000000000000000000 DUP2 MSTORE PUSH1 0x4 ADD PUSH2 0x34D6 SWAP1 PUSH2 0x591D JUMP JUMPDEST PUSH1 0x40 MLOAD DUP1 SWAP2 SUB SWAP1 REVERT JUMPDEST DUP1 PUSH1 0xD PUSH0 DUP5 PUSH20 0xFFFFFFFFFFFFFFFFFFFFFFFFFFFFFFFFFFFFFFFF AND PUSH20 0xFFFFFFFFFFFFFFFFFFFFFFFFFFFFFFFFFFFFFFFF AND DUP2 MSTORE PUSH1 0x20 ADD SWAP1 DUP2 MSTORE PUSH1 0x20 ADD PUSH0 KECCAK256 SLOAD LT ISZERO PUSH2 0x355F JUMPI PUSH1 0x40 MLOAD PUSH32 0x8C379A000000000000000000000000000000000000000000000000000000000 DUP2 MSTORE PUSH1 0x4 ADD PUSH2 0x3556 SWAP1 PUSH2 0x5985 JUMP JUMPDEST PUSH1 0x40 MLOAD DUP1 SWAP2 SUB SWAP1 REVERT JUMPDEST DUP1 PUSH1 0x2 PUSH0 SWAP1 SLOAD SWAP1 PUSH2 0x100 EXP SWAP1 DIV PUSH20 0xFFFFFFFFFFFFFFFFFFFFFFFFFFFFFFFFFFFFFFFF AND PUSH20 0xFFFFFFFFFFFFFFFFFFFFFFFFFFFFFFFFFFFFFFFF AND PUSH4 0x70A08231 ADDRESS PUSH1 0x40 MLOAD DUP3 PUSH4 0xFFFFFFFF AND PUSH1 0xE0 SHL DUP2 MSTORE PUSH1 0x4 ADD PUSH2 0x35BA SWAP2 SWAP1 PUSH2 0x4A3C JUMP JUMPDEST PUSH1 0x20 PUSH1 0x40 MLOAD DUP1 DUP4 SUB DUP2 DUP7 GAS STATICCALL ISZERO DUP1 ISZERO PUSH2 0x35D5 JUMPI RETURNDATASIZE PUSH0 DUP1 RETURNDATACOPY RETURNDATASIZE PUSH0 REVERT JUMPDEST POP POP POP POP PUSH1 0x40 MLOAD RETURNDATASIZE PUSH1 0x1F NOT PUSH1 0x1F DUP3 ADD AND DUP3 ADD DUP1 PUSH1 0x40 MSTORE POP DUP2 ADD SWAP1 PUSH2 0x35F9 SWAP2 SWAP1 PUSH2 0x5023 JUMP JUMPDEST LT ISZERO PUSH2 0x363A JUMPI PUSH1 0x40 MLOAD PUSH32 0x8C379A000000000000000000000000000000000000000000000000000000000 DUP2 MSTORE PUSH1 0x4 ADD PUSH2 0x3631 SWAP1 PUSH2 0x5126 JUMP JUMPDEST PUSH1 0x40 MLOAD DUP1 SWAP2 SUB SWAP1 REVERT JUMPDEST PUSH1 0x2 PUSH0 SWAP1 SLOAD SWAP1 PUSH2 0x100 EXP SWAP1 DIV PUSH20 0xFFFFFFFFFFFFFFFFFFFFFFFFFFFFFFFFFFFFFFFF AND PUSH20 0xFFFFFFFFFFFFFFFFFFFFFFFFFFFFFFFFFFFFFFFF AND PUSH4 0xA9059CBB DUP4 DUP4 PUSH1 0x40 MLOAD DUP4 PUSH4 0xFFFFFFFF AND PUSH1 0xE0 SHL DUP2 MSTORE PUSH1 0x4 ADD PUSH2 0x3696 SWAP3 SWAP2 SWAP1 PUSH2 0x4E63 JUMP JUMPDEST PUSH1 0x20 PUSH1 0x40 MLOAD DUP1 DUP4 SUB DUP2 PUSH0 DUP8 GAS CALL ISZERO DUP1 ISZERO PUSH2 0x36B2 JUMPI RETURNDATASIZE PUSH0 DUP1 RETURNDATACOPY RETURNDATASIZE PUSH0 REVERT JUMPDEST POP POP POP POP PUSH1 0x40 MLOAD RETURNDATASIZE PUSH1 0x1F NOT PUSH1 0x1F DUP3 ADD AND DUP3 ADD DUP1 PUSH1 0x40 MSTORE POP DUP2 ADD SWAP1 PUSH2 0x36D6 SWAP2 SWAP1 PUSH2 0x5273 JUMP JUMPDEST POP DUP1 PUSH1 0xC PUSH0 DUP3 DUP3 SLOAD PUSH2 0x36E8 SWAP2 SWAP1 PUSH2 0x59A3 JUMP JUMPDEST SWAP3 POP POP DUP2 SWAP1 SSTORE POP DUP1 PUSH1 0xD PUSH0 DUP5 PUSH20 0xFFFFFFFFFFFFFFFFFFFFFFFFFFFFFFFFFFFFFFFF AND PUSH20 0xFFFFFFFFFFFFFFFFFFFFFFFFFFFFFFFFFFFFFFFF AND DUP2 MSTORE PUSH1 0x20 ADD SWAP1 DUP2 MSTORE PUSH1 0x20 ADD PUSH0 KECCAK256 PUSH0 DUP3 DUP3 SLOAD PUSH2 0x373B SWAP2 SWAP1 PUSH2 0x59A3 JUMP JUMPDEST SWAP3 POP POP DUP2 SWAP1 SSTORE POP POP POP JUMP JUMPDEST PUSH0 DUP2 PUSH1 0x3 DUP2 GT ISZERO PUSH2 0x375A JUMPI PUSH2 0x3759 PUSH2 0x43D8 JUMP JUMPDEST JUMPDEST PUSH1 0xA PUSH0 DUP6 DUP2 MSTORE PUSH1 0x20 ADD SWAP1 DUP2 MSTORE PUSH1 0x20 ADD PUSH0 KECCAK256 PUSH1 0x9 ADD PUSH0 SWAP1 SLOAD SWAP1 PUSH2 0x100 EXP SWAP1 DIV PUSH1 0xFF AND PUSH1 0x3 DUP2 GT ISZERO PUSH2 0x378D JUMPI PUSH2 0x378C PUSH2 0x43D8 JUMP JUMPDEST JUMPDEST EQ SWAP1 POP SWAP3 SWAP2 POP POP JUMP JUMPDEST PUSH1 0x7 DUP2 SWAP1 DUP1 PUSH1 0x1 DUP2 SLOAD ADD DUP1 DUP3 SSTORE DUP1 SWAP2 POP POP PUSH1 0x1 SWAP1 SUB SWAP1 PUSH0 MSTORE PUSH1 0x20 PUSH0 KECCAK256 ADD PUSH0 SWAP1 SWAP2 SWAP1 SWAP2 SWAP1 SWAP2 POP SWAP1 DUP2 PUSH2 0x37C7 SWAP2 SWAP1 PUSH2 0x546E JUMP JUMPDEST POP POP JUMP JUMPDEST PUSH0 DUP1 PUSH0 SWAP1 SLOAD SWAP1 PUSH2 0x100 EXP SWAP1 DIV PUSH20 0xFFFFFFFFFFFFFFFFFFFFFFFFFFFFFFFFFFFFFFFF AND SWAP1 POP DUP2 PUSH0 DUP1 PUSH2 0x100 EXP DUP2 SLOAD DUP2 PUSH20 0xFFFFFFFFFFFFFFFFFFFFFFFFFFFFFFFFFFFFFFFF MUL NOT AND SWAP1 DUP4 PUSH20 0xFFFFFFFFFFFFFFFFFFFFFFFFFFFFFFFFFFFFFFFF AND MUL OR SWAP1 SSTORE POP DUP2 PUSH20 0xFFFFFFFFFFFFFFFFFFFFFFFFFFFFFFFFFFFFFFFF AND DUP2 PUSH20 0xFFFFFFFFFFFFFFFFFFFFFFFFFFFFFFFFFFFFFFFF AND PUSH32 0x8BE0079C531659141344CD1FD0A4F28419497F9722A3DAAFE3B4186F6B6457E0 PUSH1 0x40 MLOAD PUSH1 0x40 MLOAD DUP1 SWAP2 SUB SWAP1 LOG3 POP POP JUMP JUMPDEST PUSH0 DUP1 PUSH0 SWAP1 POP PUSH0 JUMPDEST PUSH1 0xB DUP1 SLOAD SWAP1 POP DUP2 LT ISZERO PUSH2 0x393E JUMPI DUP4 PUSH20 0xFFFFFFFFFFFFFFFFFFFFFFFFFFFFFFFFFFFFFFFF AND PUSH1 0xA PUSH0 PUSH1 0xB DUP5 DUP2 SLOAD DUP2 LT PUSH2 0x38CE JUMPI PUSH2 0x38CD PUSH2 0x4F5B JUMP JUMPDEST JUMPDEST SWAP1 PUSH0 MSTORE PUSH1 0x20 PUSH0 KECCAK256 ADD SLOAD DUP2 MSTORE PUSH1 0x20 ADD SWAP1 DUP2 MSTORE PUSH1 0x20 ADD PUSH0 KECCAK256 PUSH1 0x5 ADD PUSH0 SWAP1 SLOAD SWAP1 PUSH2 0x100 EXP SWAP1 DIV PUSH20 0xFFFFFFFFFFFFFFFFFFFFFFFFFFFFFFFFFFFFFFFF AND PUSH20 0xFFFFFFFFFFFFFFFFFFFFFFFFFFFFFFFFFFFFFFFF AND SUB PUSH2 0x3931 JUMPI DUP2 DUP1 PUSH2 0x392D SWAP1 PUSH2 0x4FB5 JUMP JUMPDEST SWAP3 POP POP JUMPDEST DUP1 DUP1 PUSH1 0x1 ADD SWAP2 POP POP PUSH2 0x3893 JUMP JUMPDEST POP DUP1 SWAP2 POP POP SWAP2 SWAP1 POP JUMP JUMPDEST PUSH0 PUSH1 0xB DUP1 SLOAD SWAP1 POP SWAP1 POP PUSH0 JUMPDEST DUP2 DUP2 LT ISZERO PUSH2 0x3AC4 JUMPI DUP3 PUSH1 0xA PUSH0 PUSH1 0xB DUP5 DUP2 SLOAD DUP2 LT PUSH2 0x3973 JUMPI PUSH2 0x3972 PUSH2 0x4F5B JUMP JUMPDEST JUMPDEST SWAP1 PUSH0 MSTORE PUSH1 0x20 PUSH0 KECCAK256 ADD SLOAD DUP2 MSTORE PUSH1 0x20 ADD SWAP1 DUP2 MSTORE PUSH1 0x20 ADD PUSH0 KECCAK256 PUSH0 ADD SLOAD SUB PUSH2 0x3AB7 JUMPI PUSH1 0xB PUSH1 0x1 DUP4 PUSH2 0x39A0 SWAP2 SWAP1 PUSH2 0x59A3 JUMP JUMPDEST DUP2 SLOAD DUP2 LT PUSH2 0x39B1 JUMPI PUSH2 0x39B0 PUSH2 0x4F5B JUMP JUMPDEST JUMPDEST SWAP1 PUSH0 MSTORE PUSH1 0x20 PUSH0 KECCAK256 ADD SLOAD PUSH1 0xB DUP3 DUP2 SLOAD DUP2 LT PUSH2 0x39CE JUMPI PUSH2 0x39CD PUSH2 0x4F5B JUMP JUMPDEST JUMPDEST SWAP1 PUSH0 MSTORE PUSH1 0x20 PUSH0 KECCAK256 ADD DUP2 SWAP1 SSTORE POP PUSH1 0xB DUP1 SLOAD DUP1 PUSH2 0x39EC JUMPI PUSH2 0x39EB PUSH2 0x59D6 JUMP JUMPDEST JUMPDEST PUSH1 0x1 SWAP1 SUB DUP2 DUP2 SWAP1 PUSH0 MSTORE PUSH1 0x20 PUSH0 KECCAK256 ADD PUSH0 SWAP1 SSTORE SWAP1 SSTORE PUSH1 0xA PUSH0 DUP5 DUP2 MSTORE PUSH1 0x20 ADD SWAP1 DUP2 MSTORE PUSH1 0x20 ADD PUSH0 KECCAK256 PUSH0 DUP1 DUP3 ADD PUSH0 SWAP1 SSTORE PUSH1 0x1 DUP3 ADD PUSH0 PUSH2 0x3A26 SWAP2 SWAP1 PUSH2 0x41BC JUMP JUMPDEST PUSH1 0x2 DUP3 ADD PUSH0 PUSH2 0x3A35 SWAP2 SWAP1 PUSH2 0x41BC JUMP JUMPDEST PUSH1 0x3 DUP3 ADD PUSH0 PUSH2 0x3A44 SWAP2 SWAP1 PUSH2 0x41BC JUMP JUMPDEST PUSH1 0x4 DUP3 ADD PUSH0 SWAP1 SSTORE PUSH1 0x5 DUP3 ADD PUSH0 PUSH2 0x100 EXP DUP2 SLOAD SWAP1 PUSH20 0xFFFFFFFFFFFFFFFFFFFFFFFFFFFFFFFFFFFFFFFF MUL NOT AND SWAP1 SSTORE PUSH1 0x6 DUP3 ADD PUSH0 PUSH2 0x3A80 SWAP2 SWAP1 PUSH2 0x41BC JUMP JUMPDEST PUSH1 0x7 DUP3 ADD PUSH0 SWAP1 SSTORE PUSH1 0x8 DUP3 ADD PUSH0 PUSH2 0x3A96 SWAP2 SWAP1 PUSH2 0x41BC JUMP JUMPDEST PUSH1 0x9 DUP3 ADD PUSH0 PUSH2 0x100 EXP DUP2 SLOAD SWAP1 PUSH1 0xFF MUL NOT AND SWAP1 SSTORE PUSH1 0xA DUP3 ADD PUSH0 SWAP1 SSTORE POP POP PUSH2 0x3AC4 JUMP JUMPDEST DUP1 DUP1 PUSH1 0x1 ADD SWAP2 POP POP PUSH2 0x3953 JUMP JUMPDEST POP POP POP JUMP JUMPDEST PUSH0 DUP1 PUSH0 SWAP1 POP JUMPDEST PUSH1 0xB DUP1 SLOAD SWAP1 POP DUP2 LT ISZERO PUSH2 0x3D23 JUMPI PUSH0 PUSH1 0xB DUP3 DUP2 SLOAD DUP2 LT PUSH2 0x3AF1 JUMPI PUSH2 0x3AF0 PUSH2 0x4F5B JUMP JUMPDEST JUMPDEST SWAP1 PUSH0 MSTORE PUSH1 0x20 PUSH0 KECCAK256 ADD SLOAD SWAP1 POP DUP6 PUSH20 0xFFFFFFFFFFFFFFFFFFFFFFFFFFFFFFFFFFFFFFFF AND PUSH1 0xA PUSH0 DUP4 DUP2 MSTORE PUSH1 0x20 ADD SWAP1 DUP2 MSTORE PUSH1 0x20 ADD PUSH0 KECCAK256 PUSH1 0x5 ADD PUSH0 SWAP1 SLOAD SWAP1 PUSH2 0x100 EXP SWAP1 DIV PUSH20 0xFFFFFFFFFFFFFFFFFFFFFFFFFFFFFFFFFFFFFFFF AND PUSH20 0xFFFFFFFFFFFFFFFFFFFFFFFFFFFFFFFFFFFFFFFF AND EQ DUP1 ISZERO PUSH2 0x3BAD JUMPI POP PUSH0 PUSH1 0x3 DUP2 GT ISZERO PUSH2 0x3B78 JUMPI PUSH2 0x3B77 PUSH2 0x43D8 JUMP JUMPDEST JUMPDEST PUSH1 0xA PUSH0 DUP4 DUP2 MSTORE PUSH1 0x20 ADD SWAP1 DUP2 MSTORE PUSH1 0x20 ADD PUSH0 KECCAK256 PUSH1 0x9 ADD PUSH0 SWAP1 SLOAD SWAP1 PUSH2 0x100 EXP SWAP1 DIV PUSH1 0xFF AND PUSH1 0x3 DUP2 GT ISZERO PUSH2 0x3BAB JUMPI PUSH2 0x3BAA PUSH2 0x43D8 JUMP JUMPDEST JUMPDEST EQ JUMPDEST DUP1 ISZERO PUSH2 0x3C59 JUMPI POP PUSH2 0x3C58 PUSH1 0xA PUSH0 DUP4 DUP2 MSTORE PUSH1 0x20 ADD SWAP1 DUP2 MSTORE PUSH1 0x20 ADD PUSH0 KECCAK256 PUSH1 0x1 ADD DUP1 SLOAD PUSH2 0x3BD6 SWAP1 PUSH2 0x4D3D JUMP JUMPDEST DUP1 PUSH1 0x1F ADD PUSH1 0x20 DUP1 SWAP2 DIV MUL PUSH1 0x20 ADD PUSH1 0x40 MLOAD SWAP1 DUP2 ADD PUSH1 0x40 MSTORE DUP1 SWAP3 SWAP2 SWAP1 DUP2 DUP2 MSTORE PUSH1 0x20 ADD DUP3 DUP1 SLOAD PUSH2 0x3C02 SWAP1 PUSH2 0x4D3D JUMP JUMPDEST DUP1 ISZERO PUSH2 0x3C4D JUMPI DUP1 PUSH1 0x1F LT PUSH2 0x3C24 JUMPI PUSH2 0x100 DUP1 DUP4 SLOAD DIV MUL DUP4 MSTORE SWAP2 PUSH1 0x20 ADD SWAP2 PUSH2 0x3C4D JUMP JUMPDEST DUP3 ADD SWAP2 SWAP1 PUSH0 MSTORE PUSH1 0x20 PUSH0 KECCAK256 SWAP1 JUMPDEST DUP2 SLOAD DUP2 MSTORE SWAP1 PUSH1 0x1 ADD SWAP1 PUSH1 0x20 ADD DUP1 DUP4 GT PUSH2 0x3C30 JUMPI DUP3 SWAP1 SUB PUSH1 0x1F AND DUP3 ADD SWAP2 JUMPDEST POP POP POP POP POP DUP7 PUSH2 0x411C JUMP JUMPDEST JUMPDEST DUP1 ISZERO PUSH2 0x3D05 JUMPI POP PUSH2 0x3D04 PUSH1 0xA PUSH0 DUP4 DUP2 MSTORE PUSH1 0x20 ADD SWAP1 DUP2 MSTORE PUSH1 0x20 ADD PUSH0 KECCAK256 PUSH1 0x3 ADD DUP1 SLOAD PUSH2 0x3C82 SWAP1 PUSH2 0x4D3D JUMP JUMPDEST DUP1 PUSH1 0x1F ADD PUSH1 0x20 DUP1 SWAP2 DIV MUL PUSH1 0x20 ADD PUSH1 0x40 MLOAD SWAP1 DUP2 ADD PUSH1 0x40 MSTORE DUP1 SWAP3 SWAP2 SWAP1 DUP2 DUP2 MSTORE PUSH1 0x20 ADD DUP3 DUP1 SLOAD PUSH2 0x3CAE SWAP1 PUSH2 0x4D3D JUMP JUMPDEST DUP1 ISZERO PUSH2 0x3CF9 JUMPI DUP1 PUSH1 0x1F LT PUSH2 0x3CD0 JUMPI PUSH2 0x100 DUP1 DUP4 SLOAD DIV MUL DUP4 MSTORE SWAP2 PUSH1 0x20 ADD SWAP2 PUSH2 0x3CF9 JUMP JUMPDEST DUP3 ADD SWAP2 SWAP1 PUSH0 MSTORE PUSH1 0x20 PUSH0 KECCAK256 SWAP1 JUMPDEST DUP2 SLOAD DUP2 MSTORE SWAP1 PUSH1 0x1 ADD SWAP1 PUSH1 0x20 ADD DUP1 DUP4 GT PUSH2 0x3CDC JUMPI DUP3 SWAP1 SUB PUSH1 0x1F AND DUP3 ADD SWAP2 JUMPDEST POP POP POP POP POP DUP6 PUSH2 0x411C JUMP JUMPDEST JUMPDEST ISZERO PUSH2 0x3D15 JUMPI PUSH1 0x1 SWAP3 POP POP POP PUSH2 0x3D28 JUMP JUMPDEST POP DUP1 DUP1 PUSH1 0x1 ADD SWAP2 POP POP PUSH2 0x3ACF JUMP JUMPDEST POP PUSH0 SWAP1 POP JUMPDEST SWAP4 SWAP3 POP POP POP JUMP JUMPDEST PUSH0 PUSH1 0x9 PUSH0 DUP2 SLOAD PUSH2 0x3D3E SWAP1 PUSH2 0x4FB5 JUMP JUMPDEST SWAP2 SWAP1 POP DUP2 SWAP1 SSTORE SWAP1 POP SWAP1 JUMP JUMPDEST PUSH0 PUSH1 0xB DUP1 SLOAD SWAP1 POP SWAP1 POP PUSH0 JUMPDEST DUP2 DUP2 LT ISZERO PUSH2 0x410E JUMPI PUSH0 PUSH1 0xB DUP3 DUP2 SLOAD DUP2 LT PUSH2 0x3D71 JUMPI PUSH2 0x3D70 PUSH2 0x4F5B JUMP JUMPDEST JUMPDEST SWAP1 PUSH0 MSTORE PUSH1 0x20 PUSH0 KECCAK256 ADD SLOAD SWAP1 POP PUSH1 0x3 DUP1 DUP2 GT ISZERO PUSH2 0x3D8F JUMPI PUSH2 0x3D8E PUSH2 0x43D8 JUMP JUMPDEST JUMPDEST PUSH1 0xA PUSH0 DUP4 DUP2 MSTORE PUSH1 0x20 ADD SWAP1 DUP2 MSTORE PUSH1 0x20 ADD PUSH0 KECCAK256 PUSH1 0x9 ADD PUSH0 SWAP1 SLOAD SWAP1 PUSH2 0x100 EXP SWAP1 DIV PUSH1 0xFF AND PUSH1 0x3 DUP2 GT ISZERO PUSH2 0x3DC2 JUMPI PUSH2 0x3DC1 PUSH2 0x43D8 JUMP JUMPDEST JUMPDEST EQ DUP1 PUSH2 0x3E12 JUMPI POP PUSH1 0x2 PUSH1 0x3 DUP2 GT ISZERO PUSH2 0x3DDD JUMPI PUSH2 0x3DDC PUSH2 0x43D8 JUMP JUMPDEST JUMPDEST PUSH1 0xA PUSH0 DUP4 DUP2 MSTORE PUSH1 0x20 ADD SWAP1 DUP2 MSTORE PUSH1 0x20 ADD PUSH0 KECCAK256 PUSH1 0x9 ADD PUSH0 SWAP1 SLOAD SWAP1 PUSH2 0x100 EXP SWAP1 DIV PUSH1 0xFF AND PUSH1 0x3 DUP2 GT ISZERO PUSH2 0x3E10 JUMPI PUSH2 0x3E0F PUSH2 0x43D8 JUMP JUMPDEST JUMPDEST EQ JUMPDEST DUP1 ISZERO PUSH2 0x3E7C JUMPI POP DUP6 PUSH20 0xFFFFFFFFFFFFFFFFFFFFFFFFFFFFFFFFFFFFFFFF AND PUSH1 0xA PUSH0 DUP4 DUP2 MSTORE PUSH1 0x20 ADD SWAP1 DUP2 MSTORE PUSH1 0x20 ADD PUSH0 KECCAK256 PUSH1 0x5 ADD PUSH0 SWAP1 SLOAD SWAP1 PUSH2 0x100 EXP SWAP1 DIV PUSH20 0xFFFFFFFFFFFFFFFFFFFFFFFFFFFFFFFFFFFFFFFF AND PUSH20 0xFFFFFFFFFFFFFFFFFFFFFFFFFFFFFFFFFFFFFFFF AND EQ JUMPDEST DUP1 ISZERO PUSH2 0x3F28 JUMPI POP PUSH2 0x3F27 PUSH1 0xA PUSH0 DUP4 DUP2 MSTORE PUSH1 0x20 ADD SWAP1 DUP2 MSTORE PUSH1 0x20 ADD PUSH0 KECCAK256 PUSH1 0x1 ADD DUP1 SLOAD PUSH2 0x3EA5 SWAP1 PUSH2 0x4D3D JUMP JUMPDEST DUP1 PUSH1 0x1F ADD PUSH1 0x20 DUP1 SWAP2 DIV MUL PUSH1 0x20 ADD PUSH1 0x40 MLOAD SWAP1 DUP2 ADD PUSH1 0x40 MSTORE DUP1 SWAP3 SWAP2 SWAP1 DUP2 DUP2 MSTORE PUSH1 0x20 ADD DUP3 DUP1 SLOAD PUSH2 0x3ED1 SWAP1 PUSH2 0x4D3D JUMP JUMPDEST DUP1 ISZERO PUSH2 0x3F1C JUMPI DUP1 PUSH1 0x1F LT PUSH2 0x3EF3 JUMPI PUSH2 0x100 DUP1 DUP4 SLOAD DIV MUL DUP4 MSTORE SWAP2 PUSH1 0x20 ADD SWAP2 PUSH2 0x3F1C JUMP JUMPDEST DUP3 ADD SWAP2 SWAP1 PUSH0 MSTORE PUSH1 0x20 PUSH0 KECCAK256 SWAP1 JUMPDEST DUP2 SLOAD DUP2 MSTORE SWAP1 PUSH1 0x1 ADD SWAP1 PUSH1 0x20 ADD DUP1 DUP4 GT PUSH2 0x3EFF JUMPI DUP3 SWAP1 SUB PUSH1 0x1F AND DUP3 ADD SWAP2 JUMPDEST POP POP POP POP POP DUP7 PUSH2 0x411C JUMP JUMPDEST JUMPDEST DUP1 ISZERO PUSH2 0x3FD4 JUMPI POP PUSH2 0x3FD3 PUSH1 0xA PUSH0 DUP4 DUP2 MSTORE PUSH1 0x20 ADD SWAP1 DUP2 MSTORE PUSH1 0x20 ADD PUSH0 KECCAK256 PUSH1 0x3 ADD DUP1 SLOAD PUSH2 0x3F51 SWAP1 PUSH2 0x4D3D JUMP JUMPDEST DUP1 PUSH1 0x1F ADD PUSH1 0x20 DUP1 SWAP2 DIV MUL PUSH1 0x20 ADD PUSH1 0x40 MLOAD SWAP1 DUP2 ADD PUSH1 0x40 MSTORE DUP1 SWAP3 SWAP2 SWAP1 DUP2 DUP2 MSTORE PUSH1 0x20 ADD DUP3 DUP1 SLOAD PUSH2 0x3F7D SWAP1 PUSH2 0x4D3D JUMP JUMPDEST DUP1 ISZERO PUSH2 0x3FC8 JUMPI DUP1 PUSH1 0x1F LT PUSH2 0x3F9F JUMPI PUSH2 0x100 DUP1 DUP4 SLOAD DIV MUL DUP4 MSTORE SWAP2 PUSH1 0x20 ADD SWAP2 PUSH2 0x3FC8 JUMP JUMPDEST DUP3 ADD SWAP2 SWAP1 PUSH0 MSTORE PUSH1 0x20 PUSH0 KECCAK256 SWAP1 JUMPDEST DUP2 SLOAD DUP2 MSTORE SWAP1 PUSH1 0x1 ADD SWAP1 PUSH1 0x20 ADD DUP1 DUP4 GT PUSH2 0x3FAB JUMPI DUP3 SWAP1 SUB PUSH1 0x1F AND DUP3 ADD SWAP2 JUMPDEST POP POP POP POP POP DUP6 PUSH2 0x411C JUMP JUMPDEST JUMPDEST ISZERO PUSH2 0x4100 JUMPI PUSH1 0xB PUSH1 0x1 DUP5 PUSH2 0x3FE8 SWAP2 SWAP1 PUSH2 0x59A3 JUMP JUMPDEST DUP2 SLOAD DUP2 LT PUSH2 0x3FF9 JUMPI PUSH2 0x3FF8 PUSH2 0x4F5B JUMP JUMPDEST JUMPDEST SWAP1 PUSH0 MSTORE PUSH1 0x20 PUSH0 KECCAK256 ADD SLOAD PUSH1 0xB DUP4 DUP2 SLOAD DUP2 LT PUSH2 0x4016 JUMPI PUSH2 0x4015 PUSH2 0x4F5B JUMP JUMPDEST JUMPDEST SWAP1 PUSH0 MSTORE PUSH1 0x20 PUSH0 KECCAK256 ADD DUP2 SWAP1 SSTORE POP PUSH1 0xB DUP1 SLOAD DUP1 PUSH2 0x4034 JUMPI PUSH2 0x4033 PUSH2 0x59D6 JUMP JUMPDEST JUMPDEST PUSH1 0x1 SWAP1 SUB DUP2 DUP2 SWAP1 PUSH0 MSTORE PUSH1 0x20 PUSH0 KECCAK256 ADD PUSH0 SWAP1 SSTORE SWAP1 SSTORE PUSH1 0xA PUSH0 DUP3 DUP2 MSTORE PUSH1 0x20 ADD SWAP1 DUP2 MSTORE PUSH1 0x20 ADD PUSH0 KECCAK256 PUSH0 DUP1 DUP3 ADD PUSH0 SWAP1 SSTORE PUSH1 0x1 DUP3 ADD PUSH0 PUSH2 0x406E SWAP2 SWAP1 PUSH2 0x41BC JUMP JUMPDEST PUSH1 0x2 DUP3 ADD PUSH0 PUSH2 0x407D SWAP2 SWAP1 PUSH2 0x41BC JUMP JUMPDEST PUSH1 0x3 DUP3 ADD PUSH0 PUSH2 0x408C SWAP2 SWAP1 PUSH2 0x41BC JUMP JUMPDEST PUSH1 0x4 DUP3 ADD PUSH0 SWAP1 SSTORE PUSH1 0x5 DUP3 ADD PUSH0 PUSH2 0x100 EXP DUP2 SLOAD SWAP1 PUSH20 0xFFFFFFFFFFFFFFFFFFFFFFFFFFFFFFFFFFFFFFFF MUL NOT AND SWAP1 SSTORE PUSH1 0x6 DUP3 ADD PUSH0 PUSH2 0x40C8 SWAP2 SWAP1 PUSH2 0x41BC JUMP JUMPDEST PUSH1 0x7 DUP3 ADD PUSH0 SWAP1 SSTORE PUSH1 0x8 DUP3 ADD PUSH0 PUSH2 0x40DE SWAP2 SWAP1 PUSH2 0x41BC JUMP JUMPDEST PUSH1 0x9 DUP3 ADD PUSH0 PUSH2 0x100 EXP DUP2 SLOAD SWAP1 PUSH1 0xFF MUL NOT AND SWAP1 SSTORE PUSH1 0xA DUP3 ADD PUSH0 SWAP1 SSTORE POP POP POP PUSH2 0x410E JUMP JUMPDEST POP DUP1 DUP1 PUSH1 0x1 ADD SWAP2 POP POP PUSH2 0x3D54 JUMP JUMPDEST POP POP POP POP POP JUMP JUMPDEST PUSH0 CALLER SWAP1 POP SWAP1 JUMP JUMPDEST PUSH0 DUP1 DUP4 DUP1 MLOAD SWAP1 PUSH1 0x20 ADD KECCAK256 SWAP1 POP PUSH0 DUP4 DUP1 MLOAD SWAP1 PUSH1 0x20 ADD KECCAK256 SWAP1 POP DUP1 DUP3 EQ SWAP3 POP POP POP SWAP3 SWAP2 POP POP JUMP JUMPDEST PUSH1 0x40 MLOAD DUP1 PUSH2 0x160 ADD PUSH1 0x40 MSTORE DUP1 PUSH0 DUP2 MSTORE PUSH1 0x20 ADD PUSH1 0x60 DUP2 MSTORE PUSH1 0x20 ADD PUSH1 0x60 DUP2 MSTORE PUSH1 0x20 ADD PUSH1 0x60 DUP2 MSTORE PUSH1 0x20 ADD PUSH0 DUP2 MSTORE PUSH1 0x20 ADD PUSH0 PUSH20 0xFFFFFFFFFFFFFFFFFFFFFFFFFFFFFFFFFFFFFFFF AND DUP2 MSTORE PUSH1 0x20 ADD PUSH1 0x60 DUP2 MSTORE PUSH1 0x20 ADD PUSH0 DUP2 MSTORE PUSH1 0x20 ADD PUSH1 0x60 DUP2 MSTORE PUSH1 0x20 ADD PUSH0 PUSH1 0x3 DUP2 GT ISZERO PUSH2 0x41B0 JUMPI PUSH2 0x41AF PUSH2 0x43D8 JUMP JUMPDEST JUMPDEST DUP2 MSTORE PUSH1 0x20 ADD PUSH0 DUP2 MSTORE POP SWAP1 JUMP JUMPDEST POP DUP1 SLOAD PUSH2 0x41C8 SWAP1 PUSH2 0x4D3D JUMP JUMPDEST PUSH0 DUP3 SSTORE DUP1 PUSH1 0x1F LT PUSH2 0x41D9 JUMPI POP PUSH2 0x41F6 JUMP JUMPDEST PUSH1 0x1F ADD PUSH1 0x20 SWAP1 DIV SWAP1 PUSH0 MSTORE PUSH1 0x20 PUSH0 KECCAK256 SWAP1 DUP2 ADD SWAP1 PUSH2 0x41F5 SWAP2 SWAP1 PUSH2 0x41F9 JUMP JUMPDEST JUMPDEST POP JUMP JUMPDEST JUMPDEST DUP1 DUP3 GT ISZERO PUSH2 0x4210 JUMPI PUSH0 DUP2 PUSH0 SWAP1 SSTORE POP PUSH1 0x1 ADD PUSH2 0x41FA JUMP JUMPDEST POP SWAP1 JUMP JUMPDEST PUSH0 PUSH1 0x40 MLOAD SWAP1 POP SWAP1 JUMP JUMPDEST PUSH0 DUP1 REVERT JUMPDEST PUSH0 DUP1 REVERT JUMPDEST PUSH0 PUSH20 0xFFFFFFFFFFFFFFFFFFFFFFFFFFFFFFFFFFFFFFFF DUP3 AND SWAP1 POP SWAP2 SWAP1 POP JUMP JUMPDEST PUSH0 PUSH2 0x424E DUP3 PUSH2 0x4225 JUMP JUMPDEST SWAP1 POP SWAP2 SWAP1 POP JUMP JUMPDEST PUSH2 0x425E DUP2 PUSH2 0x4244 JUMP JUMPDEST DUP2 EQ PUSH2 0x4268 JUMPI PUSH0 DUP1 REVERT JUMPDEST POP JUMP JUMPDEST PUSH0 DUP2 CALLDATALOAD SWAP1 POP PUSH2 0x4279 DUP2 PUSH2 0x4255 JUMP JUMPDEST SWAP3 SWAP2 POP POP JUMP JUMPDEST PUSH0 PUSH1 0x20 DUP3 DUP5 SUB SLT ISZERO PUSH2 0x4294 JUMPI PUSH2 0x4293 PUSH2 0x421D JUMP JUMPDEST JUMPDEST PUSH0 PUSH2 0x42A1 DUP5 DUP3 DUP6 ADD PUSH2 0x426B JUMP JUMPDEST SWAP2 POP POP SWAP3 SWAP2 POP POP JUMP JUMPDEST PUSH0 DUP2 SWAP1 POP SWAP2 SWAP1 POP JUMP JUMPDEST PUSH2 0x42BC DUP2 PUSH2 0x42AA JUMP JUMPDEST DUP3 MSTORE POP POP JUMP JUMPDEST PUSH0 PUSH1 0x20 DUP3 ADD SWAP1 POP PUSH2 0x42D5 PUSH0 DUP4 ADD DUP5 PUSH2 0x42B3 JUMP JUMPDEST SWAP3 SWAP2 POP POP JUMP JUMPDEST PUSH2 0x42E4 DUP2 PUSH2 0x42AA JUMP JUMPDEST DUP2 EQ PUSH2 0x42EE JUMPI PUSH0 DUP1 REVERT JUMPDEST POP JUMP JUMPDEST PUSH0 DUP2 CALLDATALOAD SWAP1 POP PUSH2 0x42FF DUP2 PUSH2 0x42DB JUMP JUMPDEST SWAP3 SWAP2 POP POP JUMP JUMPDEST PUSH0 PUSH1 0x20 DUP3 DUP5 SUB SLT ISZERO PUSH2 0x431A JUMPI PUSH2 0x4319 PUSH2 0x421D JUMP JUMPDEST JUMPDEST PUSH0 PUSH2 0x4327 DUP5 DUP3 DUP6 ADD PUSH2 0x42F1 JUMP JUMPDEST SWAP2 POP POP SWAP3 SWAP2 POP POP JUMP JUMPDEST PUSH2 0x4339 DUP2 PUSH2 0x42AA JUMP JUMPDEST DUP3 MSTORE POP POP JUMP JUMPDEST PUSH0 DUP2 MLOAD SWAP1 POP SWAP2 SWAP1 POP JUMP JUMPDEST PUSH0 DUP3 DUP3 MSTORE PUSH1 0x20 DUP3 ADD SWAP1 POP SWAP3 SWAP2 POP POP JUMP JUMPDEST PUSH0 JUMPDEST DUP4 DUP2 LT ISZERO PUSH2 0x4376 JUMPI DUP1 DUP3 ADD MLOAD DUP2 DUP5 ADD MSTORE PUSH1 0x20 DUP2 ADD SWAP1 POP PUSH2 0x435B JUMP JUMPDEST PUSH0 DUP5 DUP5 ADD MSTORE POP POP POP POP JUMP JUMPDEST PUSH0 PUSH1 0x1F NOT PUSH1 0x1F DUP4 ADD AND SWAP1 POP SWAP2 SWAP1 POP JUMP JUMPDEST PUSH0 PUSH2 0x439B DUP3 PUSH2 0x433F JUMP JUMPDEST PUSH2 0x43A5 DUP2 DUP6 PUSH2 0x4349 JUMP JUMPDEST SWAP4 POP PUSH2 0x43B5 DUP2 DUP6 PUSH1 0x20 DUP7 ADD PUSH2 0x4359 JUMP JUMPDEST PUSH2 0x43BE DUP2 PUSH2 0x4381 JUMP JUMPDEST DUP5 ADD SWAP2 POP POP SWAP3 SWAP2 POP POP JUMP JUMPDEST PUSH2 0x43D2 DUP2 PUSH2 0x4244 JUMP JUMPDEST DUP3 MSTORE POP POP JUMP JUMPDEST PUSH32 0x4E487B7100000000000000000000000000000000000000000000000000000000 PUSH0 MSTORE PUSH1 0x21 PUSH1 0x4 MSTORE PUSH1 0x24 PUSH0 REVERT JUMPDEST PUSH1 0x4 DUP2 LT PUSH2 0x4416 JUMPI PUSH2 0x4415 PUSH2 0x43D8 JUMP JUMPDEST JUMPDEST POP JUMP JUMPDEST PUSH0 DUP2 SWAP1 POP PUSH2 0x4426 DUP3 PUSH2 0x4405 JUMP JUMPDEST SWAP2 SWAP1 POP JUMP JUMPDEST PUSH0 PUSH2 0x4435 DUP3 PUSH2 0x4419 JUMP JUMPDEST SWAP1 POP SWAP2 SWAP1 POP JUMP JUMPDEST PUSH2 0x4445 DUP2 PUSH2 0x442B JUMP JUMPDEST DUP3 MSTORE POP POP JUMP JUMPDEST PUSH0 PUSH2 0x160 DUP4 ADD PUSH0 DUP4 ADD MLOAD PUSH2 0x4461 PUSH0 DUP7 ADD DUP3 PUSH2 0x4330 JUMP JUMPDEST POP PUSH1 0x20 DUP4 ADD MLOAD DUP5 DUP3 SUB PUSH1 0x20 DUP7 ADD MSTORE PUSH2 0x4479 DUP3 DUP3 PUSH2 0x4391 JUMP JUMPDEST SWAP2 POP POP PUSH1 0x40 DUP4 ADD MLOAD DUP5 DUP3 SUB PUSH1 0x40 DUP7 ADD MSTORE PUSH2 0x4493 DUP3 DUP3 PUSH2 0x4391 JUMP JUMPDEST SWAP2 POP POP PUSH1 0x60 DUP4 ADD MLOAD DUP5 DUP3 SUB PUSH1 0x60 DUP7 ADD MSTORE PUSH2 0x44AD DUP3 DUP3 PUSH2 0x4391 JUMP JUMPDEST SWAP2 POP POP PUSH1 0x80 DUP4 ADD MLOAD PUSH2 0x44C2 PUSH1 0x80 DUP7 ADD DUP3 PUSH2 0x4330 JUMP JUMPDEST POP PUSH1 0xA0 DUP4 ADD MLOAD PUSH2 0x44D5 PUSH1 0xA0 DUP7 ADD DUP3 PUSH2 0x43C9 JUMP JUMPDEST POP PUSH1 0xC0 DUP4 ADD MLOAD DUP5 DUP3 SUB PUSH1 0xC0 DUP7 ADD MSTORE PUSH2 0x44ED DUP3 DUP3 PUSH2 0x4391 JUMP JUMPDEST SWAP2 POP POP PUSH1 0xE0 DUP4 ADD MLOAD PUSH2 0x4502 PUSH1 0xE0 DUP7 ADD DUP3 PUSH2 0x4330 JUMP JUMPDEST POP PUSH2 0x100 DUP4 ADD MLOAD DUP5 DUP3 SUB PUSH2 0x100 DUP7 ADD MSTORE PUSH2 0x451C DUP3 DUP3 PUSH2 0x4391 JUMP JUMPDEST SWAP2 POP POP PUSH2 0x120 DUP4 ADD MLOAD PUSH2 0x4533 PUSH2 0x120 DUP7 ADD DUP3 PUSH2 0x443C JUMP JUMPDEST POP PUSH2 0x140 DUP4 ADD MLOAD PUSH2 0x4548 PUSH2 0x140 DUP7 ADD DUP3 PUSH2 0x4330 JUMP JUMPDEST POP DUP1 SWAP2 POP POP SWAP3 SWAP2 POP POP JUMP JUMPDEST PUSH0 PUSH1 0x20 DUP3 ADD SWAP1 POP DUP2 DUP2 SUB PUSH0 DUP4 ADD MSTORE PUSH2 0x456B DUP2 DUP5 PUSH2 0x444B JUMP JUMPDEST SWAP1 POP SWAP3 SWAP2 POP POP JUMP JUMPDEST PUSH0 DUP1 REVERT JUMPDEST PUSH0 DUP1 REVERT JUMPDEST PUSH32 0x4E487B7100000000000000000000000000000000000000000000000000000000 PUSH0 MSTORE PUSH1 0x41 PUSH1 0x4 MSTORE PUSH1 0x24 PUSH0 REVERT JUMPDEST PUSH2 0x45B1 DUP3 PUSH2 0x4381 JUMP JUMPDEST DUP2 ADD DUP2 DUP2 LT PUSH8 0xFFFFFFFFFFFFFFFF DUP3 GT OR ISZERO PUSH2 0x45D0 JUMPI PUSH2 0x45CF PUSH2 0x457B JUMP JUMPDEST JUMPDEST DUP1 PUSH1 0x40 MSTORE POP POP POP JUMP JUMPDEST PUSH0 PUSH2 0x45E2 PUSH2 0x4214 JUMP JUMPDEST SWAP1 POP PUSH2 0x45EE DUP3 DUP3 PUSH2 0x45A8 JUMP JUMPDEST SWAP2 SWAP1 POP JUMP JUMPDEST PUSH0 PUSH8 0xFFFFFFFFFFFFFFFF DUP3 GT ISZERO PUSH2 0x460D JUMPI PUSH2 0x460C PUSH2 0x457B JUMP JUMPDEST JUMPDEST PUSH2 0x4616 DUP3 PUSH2 0x4381 JUMP JUMPDEST SWAP1 POP PUSH1 0x20 DUP2 ADD SWAP1 POP SWAP2 SWAP1 POP JUMP JUMPDEST DUP3 DUP2 DUP4 CALLDATACOPY PUSH0 DUP4 DUP4 ADD MSTORE POP POP POP JUMP JUMPDEST PUSH0 PUSH2 0x4643 PUSH2 0x463E DUP5 PUSH2 0x45F3 JUMP JUMPDEST PUSH2 0x45D9 JUMP JUMPDEST SWAP1 POP DUP3 DUP2 MSTORE PUSH1 0x20 DUP2 ADD DUP5 DUP5 DUP5 ADD GT ISZERO PUSH2 0x465F JUMPI PUSH2 0x465E PUSH2 0x4577 JUMP JUMPDEST JUMPDEST PUSH2 0x466A DUP5 DUP3 DUP6 PUSH2 0x4623 JUMP JUMPDEST POP SWAP4 SWAP3 POP POP POP JUMP JUMPDEST PUSH0 DUP3 PUSH1 0x1F DUP4 ADD SLT PUSH2 0x4686 JUMPI PUSH2 0x4685 PUSH2 0x4573 JUMP JUMPDEST JUMPDEST DUP2 CALLDATALOAD PUSH2 0x4696 DUP5 DUP3 PUSH1 0x20 DUP7 ADD PUSH2 0x4631 JUMP JUMPDEST SWAP2 POP POP SWAP3 SWAP2 POP POP JUMP JUMPDEST PUSH0 PUSH1 0x20 DUP3 DUP5 SUB SLT ISZERO PUSH2 0x46B4 JUMPI PUSH2 0x46B3 PUSH2 0x421D JUMP JUMPDEST JUMPDEST PUSH0 DUP3 ADD CALLDATALOAD PUSH8 0xFFFFFFFFFFFFFFFF DUP2 GT ISZERO PUSH2 0x46D1 JUMPI PUSH2 0x46D0 PUSH2 0x4221 JUMP JUMPDEST JUMPDEST PUSH2 0x46DD DUP5 DUP3 DUP6 ADD PUSH2 0x4672 JUMP JUMPDEST SWAP2 POP POP SWAP3 SWAP2 POP POP JUMP JUMPDEST PUSH0 DUP2 MLOAD SWAP1 POP SWAP2 SWAP1 POP JUMP JUMPDEST PUSH0 DUP3 DUP3 MSTORE PUSH1 0x20 DUP3 ADD SWAP1 POP SWAP3 SWAP2 POP POP JUMP JUMPDEST PUSH0 DUP2 SWAP1 POP PUSH1 0x20 DUP3 ADD SWAP1 POP SWAP2 SWAP1 POP JUMP JUMPDEST PUSH0 PUSH2 0x471A DUP4 DUP4 PUSH2 0x4391 JUMP JUMPDEST SWAP1 POP SWAP3 SWAP2 POP POP JUMP JUMPDEST PUSH0 PUSH1 0x20 DUP3 ADD SWAP1 POP SWAP2 SWAP1 POP JUMP JUMPDEST PUSH0 PUSH2 0x4738 DUP3 PUSH2 0x46E6 JUMP JUMPDEST PUSH2 0x4742 DUP2 DUP6 PUSH2 0x46F0 JUMP JUMPDEST SWAP4 POP DUP4 PUSH1 0x20 DUP3 MUL DUP6 ADD PUSH2 0x4754 DUP6 PUSH2 0x4700 JUMP JUMPDEST DUP1 PUSH0 JUMPDEST DUP6 DUP2 LT ISZERO PUSH2 0x478F JUMPI DUP5 DUP5 SUB DUP10 MSTORE DUP2 MLOAD PUSH2 0x4770 DUP6 DUP3 PUSH2 0x470F JUMP JUMPDEST SWAP5 POP PUSH2 0x477B DUP4 PUSH2 0x4722 JUMP JUMPDEST SWAP3 POP PUSH1 0x20 DUP11 ADD SWAP10 POP POP PUSH1 0x1 DUP2 ADD SWAP1 POP PUSH2 0x4757 JUMP JUMPDEST POP DUP3 SWAP8 POP DUP8 SWAP6 POP POP POP POP POP POP SWAP3 SWAP2 POP POP JUMP JUMPDEST PUSH0 PUSH1 0x20 DUP3 ADD SWAP1 POP DUP2 DUP2 SUB PUSH0 DUP4 ADD MSTORE PUSH2 0x47B9 DUP2 DUP5 PUSH2 0x472E JUMP JUMPDEST SWAP1 POP SWAP3 SWAP2 POP POP JUMP JUMPDEST PUSH1 0x2 DUP2 LT PUSH2 0x47D2 JUMPI PUSH2 0x47D1 PUSH2 0x43D8 JUMP JUMPDEST JUMPDEST POP JUMP JUMPDEST PUSH0 DUP2 SWAP1 POP PUSH2 0x47E2 DUP3 PUSH2 0x47C1 JUMP JUMPDEST SWAP2 SWAP1 POP JUMP JUMPDEST PUSH0 PUSH2 0x47F1 DUP3 PUSH2 0x47D5 JUMP JUMPDEST SWAP1 POP SWAP2 SWAP1 POP JUMP JUMPDEST PUSH2 0x4801 DUP2 PUSH2 0x47E7 JUMP JUMPDEST DUP3 MSTORE POP POP JUMP JUMPDEST PUSH0 PUSH1 0x80 DUP3 ADD SWAP1 POP PUSH2 0x481A PUSH0 DUP4 ADD DUP8 PUSH2 0x42B3 JUMP JUMPDEST PUSH2 0x4827 PUSH1 0x20 DUP4 ADD DUP7 PUSH2 0x42B3 JUMP JUMPDEST PUSH2 0x4834 PUSH1 0x40 DUP4 ADD DUP6 PUSH2 0x42B3 JUMP JUMPDEST PUSH2 0x4841 PUSH1 0x60 DUP4 ADD DUP5 PUSH2 0x47F8 JUMP JUMPDEST SWAP6 SWAP5 POP POP POP POP POP JUMP JUMPDEST PUSH0 DUP2 MLOAD SWAP1 POP SWAP2 SWAP1 POP JUMP JUMPDEST PUSH0 DUP3 DUP3 MSTORE PUSH1 0x20 DUP3 ADD SWAP1 POP SWAP3 SWAP2 POP POP JUMP JUMPDEST PUSH0 DUP2 SWAP1 POP PUSH1 0x20 DUP3 ADD SWAP1 POP SWAP2 SWAP1 POP JUMP JUMPDEST PUSH0 PUSH2 0x160 DUP4 ADD PUSH0 DUP4 ADD MLOAD PUSH2 0x4889 PUSH0 DUP7 ADD DUP3 PUSH2 0x4330 JUMP JUMPDEST POP PUSH1 0x20 DUP4 ADD MLOAD DUP5 DUP3 SUB PUSH1 0x20 DUP7 ADD MSTORE PUSH2 0x48A1 DUP3 DUP3 PUSH2 0x4391 JUMP JUMPDEST SWAP2 POP POP PUSH1 0x40 DUP4 ADD MLOAD DUP5 DUP3 SUB PUSH1 0x40 DUP7 ADD MSTORE PUSH2 0x48BB DUP3 DUP3 PUSH2 0x4391 JUMP JUMPDEST SWAP2 POP POP PUSH1 0x60 DUP4 ADD MLOAD DUP5 DUP3 SUB PUSH1 0x60 DUP7 ADD MSTORE PUSH2 0x48D5 DUP3 DUP3 PUSH2 0x4391 JUMP JUMPDEST SWAP2 POP POP PUSH1 0x80 DUP4 ADD MLOAD PUSH2 0x48EA PUSH1 0x80 DUP7 ADD DUP3 PUSH2 0x4330 JUMP JUMPDEST POP PUSH1 0xA0 DUP4 ADD MLOAD PUSH2 0x48FD PUSH1 0xA0 DUP7 ADD DUP3 PUSH2 0x43C9 JUMP JUMPDEST POP PUSH1 0xC0 DUP4 ADD MLOAD DUP5 DUP3 SUB PUSH1 0xC0 DUP7 ADD MSTORE PUSH2 0x4915 DUP3 DUP3 PUSH2 0x4391 JUMP JUMPDEST SWAP2 POP POP PUSH1 0xE0 DUP4 ADD MLOAD PUSH2 0x492A PUSH1 0xE0 DUP7 ADD DUP3 PUSH2 0x4330 JUMP JUMPDEST POP PUSH2 0x100 DUP4 ADD MLOAD DUP5 DUP3 SUB PUSH2 0x100 DUP7 ADD MSTORE PUSH2 0x4944 DUP3 DUP3 PUSH2 0x4391 JUMP JUMPDEST SWAP2 POP POP PUSH2 0x120 DUP4 ADD MLOAD PUSH2 0x495B PUSH2 0x120 DUP7 ADD DUP3 PUSH2 0x443C JUMP JUMPDEST POP PUSH2 0x140 DUP4 ADD MLOAD PUSH2 0x4970 PUSH2 0x140 DUP7 ADD DUP3 PUSH2 0x4330 JUMP JUMPDEST POP DUP1 SWAP2 POP POP SWAP3 SWAP2 POP POP JUMP JUMPDEST PUSH0 PUSH2 0x4986 DUP4 DUP4 PUSH2 0x4873 JUMP JUMPDEST SWAP1 POP SWAP3 SWAP2 POP POP JUMP JUMPDEST PUSH0 PUSH1 0x20 DUP3 ADD SWAP1 POP SWAP2 SWAP1 POP JUMP JUMPDEST PUSH0 PUSH2 0x49A4 DUP3 PUSH2 0x484A JUMP JUMPDEST PUSH2 0x49AE DUP2 DUP6 PUSH2 0x4854 JUMP JUMPDEST SWAP4 POP DUP4 PUSH1 0x20 DUP3 MUL DUP6 ADD PUSH2 0x49C0 DUP6 PUSH2 0x4864 JUMP JUMPDEST DUP1 PUSH0 JUMPDEST DUP6 DUP2 LT ISZERO PUSH2 0x49FB JUMPI DUP5 DUP5 SUB DUP10 MSTORE DUP2 MLOAD PUSH2 0x49DC DUP6 DUP3 PUSH2 0x497B JUMP JUMPDEST SWAP5 POP PUSH2 0x49E7 DUP4 PUSH2 0x498E JUMP JUMPDEST SWAP3 POP PUSH1 0x20 DUP11 ADD SWAP10 POP POP PUSH1 0x1 DUP2 ADD SWAP1 POP PUSH2 0x49C3 JUMP JUMPDEST POP DUP3 SWAP8 POP DUP8 SWAP6 POP POP POP POP POP POP SWAP3 SWAP2 POP POP JUMP JUMPDEST PUSH0 PUSH1 0x20 DUP3 ADD SWAP1 POP DUP2 DUP2 SUB PUSH0 DUP4 ADD MSTORE PUSH2 0x4A25 DUP2 DUP5 PUSH2 0x499A JUMP JUMPDEST SWAP1 POP SWAP3 SWAP2 POP POP JUMP JUMPDEST PUSH2 0x4A36 DUP2 PUSH2 0x4244 JUMP JUMPDEST DUP3 MSTORE POP POP JUMP JUMPDEST PUSH0 PUSH1 0x20 DUP3 ADD SWAP1 POP PUSH2 0x4A4F PUSH0 DUP4 ADD DUP5 PUSH2 0x4A2D JUMP JUMPDEST SWAP3 SWAP2 POP POP JUMP JUMPDEST PUSH0 DUP1 PUSH0 DUP1 PUSH0 DUP1 PUSH0 PUSH1 0xE0 DUP9 DUP11 SUB SLT ISZERO PUSH2 0x4A70 JUMPI PUSH2 0x4A6F PUSH2 0x421D JUMP JUMPDEST JUMPDEST PUSH0 DUP9 ADD CALLDATALOAD PUSH8 0xFFFFFFFFFFFFFFFF DUP2 GT ISZERO PUSH2 0x4A8D JUMPI PUSH2 0x4A8C PUSH2 0x4221 JUMP JUMPDEST JUMPDEST PUSH2 0x4A99 DUP11 DUP3 DUP12 ADD PUSH2 0x4672 JUMP JUMPDEST SWAP8 POP POP PUSH1 0x20 DUP9 ADD CALLDATALOAD PUSH8 0xFFFFFFFFFFFFFFFF DUP2 GT ISZERO PUSH2 0x4ABA JUMPI PUSH2 0x4AB9 PUSH2 0x4221 JUMP JUMPDEST JUMPDEST PUSH2 0x4AC6 DUP11 DUP3 DUP12 ADD PUSH2 0x4672 JUMP JUMPDEST SWAP7 POP POP PUSH1 0x40 DUP9 ADD CALLDATALOAD PUSH8 0xFFFFFFFFFFFFFFFF DUP2 GT ISZERO PUSH2 0x4AE7 JUMPI PUSH2 0x4AE6 PUSH2 0x4221 JUMP JUMPDEST JUMPDEST PUSH2 0x4AF3 DUP11 DUP3 DUP12 ADD PUSH2 0x4672 JUMP JUMPDEST SWAP6 POP POP PUSH1 0x60 PUSH2 0x4B04 DUP11 DUP3 DUP12 ADD PUSH2 0x42F1 JUMP JUMPDEST SWAP5 POP POP PUSH1 0x80 DUP9 ADD CALLDATALOAD PUSH8 0xFFFFFFFFFFFFFFFF DUP2 GT ISZERO PUSH2 0x4B25 JUMPI PUSH2 0x4B24 PUSH2 0x4221 JUMP JUMPDEST JUMPDEST PUSH2 0x4B31 DUP11 DUP3 DUP12 ADD PUSH2 0x4672 JUMP JUMPDEST SWAP4 POP POP PUSH1 0xA0 PUSH2 0x4B42 DUP11 DUP3 DUP12 ADD PUSH2 0x42F1 JUMP JUMPDEST SWAP3 POP POP PUSH1 0xC0 DUP9 ADD CALLDATALOAD PUSH8 0xFFFFFFFFFFFFFFFF DUP2 GT ISZERO PUSH2 0x4B63 JUMPI PUSH2 0x4B62 PUSH2 0x4221 JUMP JUMPDEST JUMPDEST PUSH2 0x4B6F DUP11 DUP3 DUP12 ADD PUSH2 0x4672 JUMP JUMPDEST SWAP2 POP POP SWAP3 SWAP6 SWAP9 SWAP2 SWAP5 SWAP8 POP SWAP3 SWAP6 POP JUMP JUMPDEST PUSH0 DUP1 PUSH0 DUP1 PUSH0 PUSH1 0xA0 DUP7 DUP9 SUB SLT ISZERO PUSH2 0x4B97 JUMPI PUSH2 0x4B96 PUSH2 0x421D JUMP JUMPDEST JUMPDEST PUSH0 PUSH2 0x4BA4 DUP9 DUP3 DUP10 ADD PUSH2 0x42F1 JUMP JUMPDEST SWAP6 POP POP PUSH1 0x20 DUP7 ADD CALLDATALOAD PUSH8 0xFFFFFFFFFFFFFFFF DUP2 GT ISZERO PUSH2 0x4BC5 JUMPI PUSH2 0x4BC4 PUSH2 0x4221 JUMP JUMPDEST JUMPDEST PUSH2 0x4BD1 DUP9 DUP3 DUP10 ADD PUSH2 0x4672 JUMP JUMPDEST SWAP5 POP POP PUSH1 0x40 DUP7 ADD CALLDATALOAD PUSH8 0xFFFFFFFFFFFFFFFF DUP2 GT ISZERO PUSH2 0x4BF2 JUMPI PUSH2 0x4BF1 PUSH2 0x4221 JUMP JUMPDEST JUMPDEST PUSH2 0x4BFE DUP9 DUP3 DUP10 ADD PUSH2 0x4672 JUMP JUMPDEST SWAP4 POP POP PUSH1 0x60 DUP7 ADD CALLDATALOAD PUSH8 0xFFFFFFFFFFFFFFFF DUP2 GT ISZERO PUSH2 0x4C1F JUMPI PUSH2 0x4C1E PUSH2 0x4221 JUMP JUMPDEST JUMPDEST PUSH2 0x4C2B DUP9 DUP3 DUP10 ADD PUSH2 0x4672 JUMP JUMPDEST SWAP3 POP POP PUSH1 0x80 DUP7 ADD CALLDATALOAD PUSH8 0xFFFFFFFFFFFFFFFF DUP2 GT ISZERO PUSH2 0x4C4C JUMPI PUSH2 0x4C4B PUSH2 0x4221 JUMP JUMPDEST JUMPDEST PUSH2 0x4C58 DUP9 DUP3 DUP10 ADD PUSH2 0x4672 JUMP JUMPDEST SWAP2 POP POP SWAP3 SWAP6 POP SWAP3 SWAP6 SWAP1 SWAP4 POP JUMP JUMPDEST PUSH0 DUP2 ISZERO ISZERO SWAP1 POP SWAP2 SWAP1 POP JUMP JUMPDEST PUSH2 0x4C79 DUP2 PUSH2 0x4C65 JUMP JUMPDEST DUP3 MSTORE POP POP JUMP JUMPDEST PUSH0 PUSH1 0x20 DUP3 ADD SWAP1 POP PUSH2 0x4C92 PUSH0 DUP4 ADD DUP5 PUSH2 0x4C70 JUMP JUMPDEST SWAP3 SWAP2 POP POP JUMP JUMPDEST PUSH0 DUP3 DUP3 MSTORE PUSH1 0x20 DUP3 ADD SWAP1 POP SWAP3 SWAP2 POP POP JUMP JUMPDEST PUSH32 0x496E76616C6964207468726F6E65206964000000000000000000000000000000 PUSH0 DUP3 ADD MSTORE POP JUMP JUMPDEST PUSH0 PUSH2 0x4CDC PUSH1 0x11 DUP4 PUSH2 0x4C98 JUMP JUMPDEST SWAP2 POP PUSH2 0x4CE7 DUP3 PUSH2 0x4CA8 JUMP JUMPDEST PUSH1 0x20 DUP3 ADD SWAP1 POP SWAP2 SWAP1 POP JUMP JUMPDEST PUSH0 PUSH1 0x20 DUP3 ADD SWAP1 POP DUP2 DUP2 SUB PUSH0 DUP4 ADD MSTORE PUSH2 0x4D09 DUP2 PUSH2 0x4CD0 JUMP JUMPDEST SWAP1 POP SWAP2 SWAP1 POP JUMP JUMPDEST PUSH32 0x4E487B7100000000000000000000000000000000000000000000000000000000 PUSH0 MSTORE PUSH1 0x22 PUSH1 0x4 MSTORE PUSH1 0x24 PUSH0 REVERT JUMPDEST PUSH0 PUSH1 0x2 DUP3 DIV SWAP1 POP PUSH1 0x1 DUP3 AND DUP1 PUSH2 0x4D54 JUMPI PUSH1 0x7F DUP3 AND SWAP2 POP JUMPDEST PUSH1 0x20 DUP3 LT DUP2 SUB PUSH2 0x4D67 JUMPI PUSH2 0x4D66 PUSH2 0x4D10 JUMP JUMPDEST JUMPDEST POP SWAP2 SWAP1 POP JUMP JUMPDEST PUSH32 0x496E76616C696420726566657272657220616464726573730000000000000000 PUSH0 DUP3 ADD MSTORE POP JUMP JUMPDEST PUSH0 PUSH2 0x4DA1 PUSH1 0x18 DUP4 PUSH2 0x4C98 JUMP JUMPDEST SWAP2 POP PUSH2 0x4DAC DUP3 PUSH2 0x4D6D JUMP JUMPDEST PUSH1 0x20 DUP3 ADD SWAP1 POP SWAP2 SWAP1 POP JUMP JUMPDEST PUSH0 PUSH1 0x20 DUP3 ADD SWAP1 POP DUP2 DUP2 SUB PUSH0 DUP4 ADD MSTORE PUSH2 0x4DCE DUP2 PUSH2 0x4D95 JUMP JUMPDEST SWAP1 POP SWAP2 SWAP1 POP JUMP JUMPDEST PUSH32 0x546865207468726F6E65206973206E6F7420696E20746865207374617465206F PUSH0 DUP3 ADD MSTORE PUSH32 0x6620496E52657669657700000000000000000000000000000000000000000000 PUSH1 0x20 DUP3 ADD MSTORE POP JUMP JUMPDEST PUSH0 PUSH2 0x4E2F PUSH1 0x2A DUP4 PUSH2 0x4C98 JUMP JUMPDEST SWAP2 POP PUSH2 0x4E3A DUP3 PUSH2 0x4DD5 JUMP JUMPDEST PUSH1 0x40 DUP3 ADD SWAP1 POP SWAP2 SWAP1 POP JUMP JUMPDEST PUSH0 PUSH1 0x20 DUP3 ADD SWAP1 POP DUP2 DUP2 SUB PUSH0 DUP4 ADD MSTORE PUSH2 0x4E5C DUP2 PUSH2 0x4E23 JUMP JUMPDEST SWAP1 POP SWAP2 SWAP1 POP JUMP JUMPDEST PUSH0 PUSH1 0x40 DUP3 ADD SWAP1 POP PUSH2 0x4E76 PUSH0 DUP4 ADD DUP6 PUSH2 0x4A2D JUMP JUMPDEST PUSH2 0x4E83 PUSH1 0x20 DUP4 ADD DUP5 PUSH2 0x42B3 JUMP JUMPDEST SWAP4 SWAP3 POP POP POP JUMP JUMPDEST PUSH2 0x4E93 DUP2 PUSH2 0x442B JUMP JUMPDEST DUP3 MSTORE POP POP JUMP JUMPDEST PUSH0 PUSH1 0x40 DUP3 ADD SWAP1 POP PUSH2 0x4EAC PUSH0 DUP4 ADD DUP6 PUSH2 0x42B3 JUMP JUMPDEST PUSH2 0x4EB9 PUSH1 0x20 DUP4 ADD DUP5 PUSH2 0x4E8A JUMP JUMPDEST SWAP4 SWAP3 POP POP POP JUMP JUMPDEST PUSH0 DUP2 MLOAD SWAP1 POP PUSH2 0x4ECE DUP2 PUSH2 0x42DB JUMP JUMPDEST SWAP3 SWAP2 POP POP JUMP JUMPDEST PUSH1 0x2 DUP2 LT PUSH2 0x4EE0 JUMPI PUSH0 DUP1 REVERT JUMPDEST POP JUMP JUMPDEST PUSH0 DUP2 MLOAD SWAP1 POP PUSH2 0x4EF1 DUP2 PUSH2 0x4ED4 JUMP JUMPDEST SWAP3 SWAP2 POP POP JUMP JUMPDEST PUSH0 DUP1 PUSH0 DUP1 PUSH1 0x80 DUP6 DUP8 SUB SLT ISZERO PUSH2 0x4F0F JUMPI PUSH2 0x4F0E PUSH2 0x421D JUMP JUMPDEST JUMPDEST PUSH0 PUSH2 0x4F1C DUP8 DUP3 DUP9 ADD PUSH2 0x4EC0 JUMP JUMPDEST SWAP5 POP POP PUSH1 0x20 PUSH2 0x4F2D DUP8 DUP3 DUP9 ADD PUSH2 0x4EC0 JUMP JUMPDEST SWAP4 POP POP PUSH1 0x40 PUSH2 0x4F3E DUP8 DUP3 DUP9 ADD PUSH2 0x4EC0 JUMP JUMPDEST SWAP3 POP POP PUSH1 0x60 PUSH2 0x4F4F DUP8 DUP3 DUP9 ADD PUSH2 0x4EE3 JUMP JUMPDEST SWAP2 POP POP SWAP3 SWAP6 SWAP2 SWAP5 POP SWAP3 POP JUMP JUMPDEST PUSH32 0x4E487B7100000000000000000000000000000000000000000000000000000000 PUSH0 MSTORE PUSH1 0x32 PUSH1 0x4 MSTORE PUSH1 0x24 PUSH0 REVERT JUMPDEST PUSH32 0x4E487B7100000000000000000000000000000000000000000000000000000000 PUSH0 MSTORE PUSH1 0x11 PUSH1 0x4 MSTORE PUSH1 0x24 PUSH0 REVERT JUMPDEST PUSH0 PUSH2 0x4FBF DUP3 PUSH2 0x42AA JUMP JUMPDEST SWAP2 POP PUSH32 0xFFFFFFFFFFFFFFFFFFFFFFFFFFFFFFFFFFFFFFFFFFFFFFFFFFFFFFFFFFFFFFFF DUP3 SUB PUSH2 0x4FF1 JUMPI PUSH2 0x4FF0 PUSH2 0x4F88 JUMP JUMPDEST JUMPDEST PUSH1 0x1 DUP3 ADD SWAP1 POP SWAP2 SWAP1 POP JUMP JUMPDEST PUSH0 PUSH1 0x40 DUP3 ADD SWAP1 POP PUSH2 0x500F PUSH0 DUP4 ADD DUP6 PUSH2 0x4A2D JUMP JUMPDEST PUSH2 0x501C PUSH1 0x20 DUP4 ADD DUP5 PUSH2 0x4A2D JUMP JUMPDEST SWAP4 SWAP3 POP POP POP JUMP JUMPDEST PUSH0 PUSH1 0x20 DUP3 DUP5 SUB SLT ISZERO PUSH2 0x5038 JUMPI PUSH2 0x5037 PUSH2 0x421D JUMP JUMPDEST JUMPDEST PUSH0 PUSH2 0x5045 DUP5 DUP3 DUP6 ADD PUSH2 0x4EC0 JUMP JUMPDEST SWAP2 POP POP SWAP3 SWAP2 POP POP JUMP JUMPDEST PUSH32 0x546865207468726F6E65206973206E6F7420696E20746865207374617465206F PUSH0 DUP3 ADD MSTORE PUSH32 0x66204F776E656400000000000000000000000000000000000000000000000000 PUSH1 0x20 DUP3 ADD MSTORE POP JUMP JUMPDEST PUSH0 PUSH2 0x50A8 PUSH1 0x27 DUP4 PUSH2 0x4C98 JUMP JUMPDEST SWAP2 POP PUSH2 0x50B3 DUP3 PUSH2 0x504E JUMP JUMPDEST PUSH1 0x40 DUP3 ADD SWAP1 POP SWAP2 SWAP1 POP JUMP JUMPDEST PUSH0 PUSH1 0x20 DUP3 ADD SWAP1 POP DUP2 DUP2 SUB PUSH0 DUP4 ADD MSTORE PUSH2 0x50D5 DUP2 PUSH2 0x509C JUMP JUMPDEST SWAP1 POP SWAP2 SWAP1 POP JUMP JUMPDEST PUSH32 0x4E6F7420656E6F75676820544F522062616C616E63652E000000000000000000 PUSH0 DUP3 ADD MSTORE POP JUMP JUMPDEST PUSH0 PUSH2 0x5110 PUSH1 0x17 DUP4 PUSH2 0x4C98 JUMP JUMPDEST SWAP2 POP PUSH2 0x511B DUP3 PUSH2 0x50DC JUMP JUMPDEST PUSH1 0x20 DUP3 ADD SWAP1 POP SWAP2 SWAP1 POP JUMP JUMPDEST PUSH0 PUSH1 0x20 DUP3 ADD SWAP1 POP DUP2 DUP2 SUB PUSH0 DUP4 ADD MSTORE PUSH2 0x513D DUP2 PUSH2 0x5104 JUMP JUMPDEST SWAP1 POP SWAP2 SWAP1 POP JUMP JUMPDEST PUSH32 0x496E73756666696369656E7420616C6C6F77616E636500000000000000000000 PUSH0 DUP3 ADD MSTORE POP JUMP JUMPDEST PUSH0 PUSH2 0x5178 PUSH1 0x16 DUP4 PUSH2 0x4C98 JUMP JUMPDEST SWAP2 POP PUSH2 0x5183 DUP3 PUSH2 0x5144 JUMP JUMPDEST PUSH1 0x20 DUP3 ADD SWAP1 POP SWAP2 SWAP1 POP JUMP JUMPDEST PUSH0 PUSH1 0x20 DUP3 ADD SWAP1 POP DUP2 DUP2 SUB PUSH0 DUP4 ADD MSTORE PUSH2 0x51A5 DUP2 PUSH2 0x516C JUMP JUMPDEST SWAP1 POP SWAP2 SWAP1 POP JUMP JUMPDEST PUSH32 0x416C726561647920696E20726576696577000000000000000000000000000000 PUSH0 DUP3 ADD MSTORE POP JUMP JUMPDEST PUSH0 PUSH2 0x51E0 PUSH1 0x11 DUP4 PUSH2 0x4C98 JUMP JUMPDEST SWAP2 POP PUSH2 0x51EB DUP3 PUSH2 0x51AC JUMP JUMPDEST PUSH1 0x20 DUP3 ADD SWAP1 POP SWAP2 SWAP1 POP JUMP JUMPDEST PUSH0 PUSH1 0x20 DUP3 ADD SWAP1 POP DUP2 DUP2 SUB PUSH0 DUP4 ADD MSTORE PUSH2 0x520D DUP2 PUSH2 0x51D4 JUMP JUMPDEST SWAP1 POP SWAP2 SWAP1 POP JUMP JUMPDEST PUSH0 PUSH1 0x60 DUP3 ADD SWAP1 POP PUSH2 0x5227 PUSH0 DUP4 ADD DUP7 PUSH2 0x4A2D JUMP JUMPDEST PUSH2 0x5234 PUSH1 0x20 DUP4 ADD DUP6 PUSH2 0x4A2D JUMP JUMPDEST PUSH2 0x5241 PUSH1 0x40 DUP4 ADD DUP5 PUSH2 0x42B3 JUMP JUMPDEST SWAP5 SWAP4 POP POP POP POP JUMP JUMPDEST PUSH2 0x5252 DUP2 PUSH2 0x4C65 JUMP JUMPDEST DUP2 EQ PUSH2 0x525C JUMPI PUSH0 DUP1 REVERT JUMPDEST POP JUMP JUMPDEST PUSH0 DUP2 MLOAD SWAP1 POP PUSH2 0x526D DUP2 PUSH2 0x5249 JUMP JUMPDEST SWAP3 SWAP2 POP POP JUMP JUMPDEST PUSH0 PUSH1 0x20 DUP3 DUP5 SUB SLT ISZERO PUSH2 0x5288 JUMPI PUSH2 0x5287 PUSH2 0x421D JUMP JUMPDEST JUMPDEST PUSH0 PUSH2 0x5295 DUP5 DUP3 DUP6 ADD PUSH2 0x525F JUMP JUMPDEST SWAP2 POP POP SWAP3 SWAP2 POP POP JUMP JUMPDEST PUSH0 PUSH2 0x52A8 DUP3 PUSH2 0x42AA JUMP JUMPDEST SWAP2 POP PUSH2 0x52B3 DUP4 PUSH2 0x42AA JUMP JUMPDEST SWAP3 POP DUP3 DUP3 ADD SWAP1 POP DUP1 DUP3 GT ISZERO PUSH2 0x52CB JUMPI PUSH2 0x52CA PUSH2 0x4F88 JUMP JUMPDEST JUMPDEST SWAP3 SWAP2 POP POP JUMP JUMPDEST PUSH0 DUP2 SWAP1 POP DUP2 PUSH0 MSTORE PUSH1 0x20 PUSH0 KECCAK256 SWAP1 POP SWAP2 SWAP1 POP JUMP JUMPDEST PUSH0 PUSH1 0x20 PUSH1 0x1F DUP4 ADD DIV SWAP1 POP SWAP2 SWAP1 POP JUMP JUMPDEST PUSH0 DUP3 DUP3 SHL SWAP1 POP SWAP3 SWAP2 POP POP JUMP JUMPDEST PUSH0 PUSH1 0x8 DUP4 MUL PUSH2 0x532D PUSH32 0xFFFFFFFFFFFFFFFFFFFFFFFFFFFFFFFFFFFFFFFFFFFFFFFFFFFFFFFFFFFFFFFF DUP3 PUSH2 0x52F2 JUMP JUMPDEST PUSH2 0x5337 DUP7 DUP4 PUSH2 0x52F2 JUMP JUMPDEST SWAP6 POP DUP1 NOT DUP5 AND SWAP4 POP DUP1 DUP7 AND DUP5 OR SWAP3 POP POP POP SWAP4 SWAP3 POP POP POP JUMP JUMPDEST PUSH0 DUP2 SWAP1 POP SWAP2 SWAP1 POP JUMP JUMPDEST PUSH0 PUSH2 0x5372 PUSH2 0x536D PUSH2 0x5368 DUP5 PUSH2 0x42AA JUMP JUMPDEST PUSH2 0x534F JUMP JUMPDEST PUSH2 0x42AA JUMP JUMPDEST SWAP1 POP SWAP2 SWAP1 POP JUMP JUMPDEST PUSH0 DUP2 SWAP1 POP SWAP2 SWAP1 POP JUMP JUMPDEST PUSH2 0x538B DUP4 PUSH2 0x5358 JUMP JUMPDEST PUSH2 0x539F PUSH2 0x5397 DUP3 PUSH2 0x5379 JUMP JUMPDEST DUP5 DUP5 SLOAD PUSH2 0x52FE JUMP JUMPDEST DUP3 SSTORE POP POP POP POP JUMP JUMPDEST PUSH0 SWAP1 JUMP JUMPDEST PUSH2 0x53B3 PUSH2 0x53A7 JUMP JUMPDEST PUSH2 0x53BE DUP2 DUP5 DUP5 PUSH2 0x5382 JUMP JUMPDEST POP POP POP JUMP JUMPDEST JUMPDEST DUP2 DUP2 LT ISZERO PUSH2 0x53E1 JUMPI PUSH2 0x53D6 PUSH0 DUP3 PUSH2 0x53AB JUMP JUMPDEST PUSH1 0x1 DUP2 ADD SWAP1 POP PUSH2 0x53C4 JUMP JUMPDEST POP POP JUMP JUMPDEST PUSH1 0x1F DUP3 GT ISZERO PUSH2 0x5426 JUMPI PUSH2 0x53F7 DUP2 PUSH2 0x52D1 JUMP JUMPDEST PUSH2 0x5400 DUP5 PUSH2 0x52E3 JUMP JUMPDEST DUP2 ADD PUSH1 0x20 DUP6 LT ISZERO PUSH2 0x540F JUMPI DUP2 SWAP1 POP JUMPDEST PUSH2 0x5423 PUSH2 0x541B DUP6 PUSH2 0x52E3 JUMP JUMPDEST DUP4 ADD DUP3 PUSH2 0x53C3 JUMP JUMPDEST POP POP JUMPDEST POP POP POP JUMP JUMPDEST PUSH0 DUP3 DUP3 SHR SWAP1 POP SWAP3 SWAP2 POP POP JUMP JUMPDEST PUSH0 PUSH2 0x5446 PUSH0 NOT DUP5 PUSH1 0x8 MUL PUSH2 0x542B JUMP JUMPDEST NOT DUP1 DUP4 AND SWAP2 POP POP SWAP3 SWAP2 POP POP JUMP JUMPDEST PUSH0 PUSH2 0x545E DUP4 DUP4 PUSH2 0x5437 JUMP JUMPDEST SWAP2 POP DUP3 PUSH1 0x2 MUL DUP3 OR SWAP1 POP SWAP3 SWAP2 POP POP JUMP JUMPDEST PUSH2 0x5477 DUP3 PUSH2 0x433F JUMP JUMPDEST PUSH8 0xFFFFFFFFFFFFFFFF DUP2 GT ISZERO PUSH2 0x5490 JUMPI PUSH2 0x548F PUSH2 0x457B JUMP JUMPDEST JUMPDEST PUSH2 0x549A DUP3 SLOAD PUSH2 0x4D3D JUMP JUMPDEST PUSH2 0x54A5 DUP3 DUP3 DUP6 PUSH2 0x53E5 JUMP JUMPDEST PUSH0 PUSH1 0x20 SWAP1 POP PUSH1 0x1F DUP4 GT PUSH1 0x1 DUP2 EQ PUSH2 0x54D6 JUMPI PUSH0 DUP5 ISZERO PUSH2 0x54C4 JUMPI DUP3 DUP8 ADD MLOAD SWAP1 POP JUMPDEST PUSH2 0x54CE DUP6 DUP3 PUSH2 0x5453 JUMP JUMPDEST DUP7 SSTORE POP PUSH2 0x5535 JUMP JUMPDEST PUSH1 0x1F NOT DUP5 AND PUSH2 0x54E4 DUP7 PUSH2 0x52D1 JUMP JUMPDEST PUSH0 JUMPDEST DUP3 DUP2 LT ISZERO PUSH2 0x550B JUMPI DUP5 DUP10 ADD MLOAD DUP3 SSTORE PUSH1 0x1 DUP3 ADD SWAP2 POP PUSH1 0x20 DUP6 ADD SWAP5 POP PUSH1 0x20 DUP2 ADD SWAP1 POP PUSH2 0x54E6 JUMP JUMPDEST DUP7 DUP4 LT ISZERO PUSH2 0x5528 JUMPI DUP5 DUP10 ADD MLOAD PUSH2 0x5524 PUSH1 0x1F DUP10 AND DUP3 PUSH2 0x5437 JUMP JUMPDEST DUP4 SSTORE POP JUMPDEST PUSH1 0x1 PUSH1 0x2 DUP9 MUL ADD DUP9 SSTORE POP POP POP JUMPDEST POP POP POP POP POP POP JUMP JUMPDEST PUSH32 0x4F6E6C7920746865207468726F6E6520696E207265766965772063616E206265 PUSH0 DUP3 ADD MSTORE PUSH32 0x206D6F6469666965640000000000000000000000000000000000000000000000 PUSH1 0x20 DUP3 ADD MSTORE POP JUMP JUMPDEST PUSH0 PUSH2 0x5597 PUSH1 0x29 DUP4 PUSH2 0x4C98 JUMP JUMPDEST SWAP2 POP PUSH2 0x55A2 DUP3 PUSH2 0x553D JUMP JUMPDEST PUSH1 0x40 DUP3 ADD SWAP1 POP SWAP2 SWAP1 POP JUMP JUMPDEST PUSH0 PUSH1 0x20 DUP3 ADD SWAP1 POP DUP2 DUP2 SUB PUSH0 DUP4 ADD MSTORE PUSH2 0x55C4 DUP2 PUSH2 0x558B JUMP JUMPDEST SWAP1 POP SWAP2 SWAP1 POP JUMP JUMPDEST PUSH32 0x61646472657373657320617265206E6F74206D61746368206265747765656E20 PUSH0 DUP3 ADD MSTORE PUSH32 0x726566657272657220616E64207468652073656E646572000000000000000000 PUSH1 0x20 DUP3 ADD MSTORE POP JUMP JUMPDEST PUSH0 PUSH2 0x5625 PUSH1 0x37 DUP4 PUSH2 0x4C98 JUMP JUMPDEST SWAP2 POP PUSH2 0x5630 DUP3 PUSH2 0x55CB JUMP JUMPDEST PUSH1 0x40 DUP3 ADD SWAP1 POP SWAP2 SWAP1 POP JUMP JUMPDEST PUSH0 PUSH1 0x20 DUP3 ADD SWAP1 POP DUP2 DUP2 SUB PUSH0 DUP4 ADD MSTORE PUSH2 0x5652 DUP2 PUSH2 0x5619 JUMP JUMPDEST SWAP1 POP SWAP2 SWAP1 POP JUMP JUMPDEST PUSH32 0x546865207468726F6E65206973206E6F7420696E20746865207374617465206F PUSH0 DUP3 ADD MSTORE PUSH32 0x66204F776E6564206F7220496E52657669657700000000000000000000000000 PUSH1 0x20 DUP3 ADD MSTORE POP JUMP JUMPDEST PUSH0 PUSH2 0x56B3 PUSH1 0x33 DUP4 PUSH2 0x4C98 JUMP JUMPDEST SWAP2 POP PUSH2 0x56BE DUP3 PUSH2 0x5659 JUMP JUMPDEST PUSH1 0x40 DUP3 ADD SWAP1 POP SWAP2 SWAP1 POP JUMP JUMPDEST PUSH0 PUSH1 0x20 DUP3 ADD SWAP1 POP DUP2 DUP2 SUB PUSH0 DUP4 ADD MSTORE PUSH2 0x56E0 DUP2 PUSH2 0x56A7 JUMP JUMPDEST SWAP1 POP SWAP2 SWAP1 POP JUMP JUMPDEST PUSH32 0x4174206C65617374203120544F52206973207265717569726564000000000000 PUSH0 DUP3 ADD MSTORE POP JUMP JUMPDEST PUSH0 PUSH2 0x571B PUSH1 0x1A DUP4 PUSH2 0x4C98 JUMP JUMPDEST SWAP2 POP PUSH2 0x5726 DUP3 PUSH2 0x56E7 JUMP JUMPDEST PUSH1 0x20 DUP3 ADD SWAP1 POP SWAP2 SWAP1 POP JUMP JUMPDEST PUSH0 PUSH1 0x20 DUP3 ADD SWAP1 POP DUP2 DUP2 SUB PUSH0 DUP4 ADD MSTORE PUSH2 0x5748 DUP2 PUSH2 0x570F JUMP JUMPDEST SWAP1 POP SWAP2 SWAP1 POP JUMP JUMPDEST PUSH32 0x4569746865722062656E65666974206F7220544F5220616D6F756E742073686F PUSH0 DUP3 ADD MSTORE PUSH32 0x756C642062652067726561746572207468616E2063757272656E74207468726F PUSH1 0x20 DUP3 ADD MSTORE PUSH32 0x6E65000000000000000000000000000000000000000000000000000000000000 PUSH1 0x40 DUP3 ADD MSTORE POP JUMP JUMPDEST PUSH0 PUSH2 0x57CF PUSH1 0x42 DUP4 PUSH2 0x4C98 JUMP JUMPDEST SWAP2 POP PUSH2 0x57DA DUP3 PUSH2 0x574F JUMP JUMPDEST PUSH1 0x60 DUP3 ADD SWAP1 POP SWAP2 SWAP1 POP JUMP JUMPDEST PUSH0 PUSH1 0x20 DUP3 ADD SWAP1 POP DUP2 DUP2 SUB PUSH0 DUP4 ADD MSTORE PUSH2 0x57FC DUP2 PUSH2 0x57C3 JUMP JUMPDEST SWAP1 POP SWAP2 SWAP1 POP JUMP JUMPDEST PUSH32 0x496E76616C696420616464726573730000000000000000000000000000000000 PUSH0 DUP3 ADD MSTORE POP JUMP JUMPDEST PUSH0 PUSH2 0x5837 PUSH1 0xF DUP4 PUSH2 0x4C98 JUMP JUMPDEST SWAP2 POP PUSH2 0x5842 DUP3 PUSH2 0x5803 JUMP JUMPDEST PUSH1 0x20 DUP3 ADD SWAP1 POP SWAP2 SWAP1 POP JUMP JUMPDEST PUSH0 PUSH1 0x20 DUP3 ADD SWAP1 POP DUP2 DUP2 SUB PUSH0 DUP4 ADD MSTORE PUSH2 0x5864 DUP2 PUSH2 0x582B JUMP JUMPDEST SWAP1 POP SWAP2 SWAP1 POP JUMP JUMPDEST PUSH32 0x496E76616C696420544F5220616D6F756E7420746F2077697468647261770000 PUSH0 DUP3 ADD MSTORE POP JUMP JUMPDEST PUSH0 PUSH2 0x589F PUSH1 0x1E DUP4 PUSH2 0x4C98 JUMP JUMPDEST SWAP2 POP PUSH2 0x58AA DUP3 PUSH2 0x586B JUMP JUMPDEST PUSH1 0x20 DUP3 ADD SWAP1 POP SWAP2 SWAP1 POP JUMP JUMPDEST PUSH0 PUSH1 0x20 DUP3 ADD SWAP1 POP DUP2 DUP2 SUB PUSH0 DUP4 ADD MSTORE PUSH2 0x58CC DUP2 PUSH2 0x5893 JUMP JUMPDEST SWAP1 POP SWAP2 SWAP1 POP JUMP JUMPDEST PUSH32 0x4E6F7420656E6F75676820746F74616C20544F5220616D6F756E740000000000 PUSH0 DUP3 ADD MSTORE POP JUMP JUMPDEST PUSH0 PUSH2 0x5907 PUSH1 0x1B DUP4 PUSH2 0x4C98 JUMP JUMPDEST SWAP2 POP PUSH2 0x5912 DUP3 PUSH2 0x58D3 JUMP JUMPDEST PUSH1 0x20 DUP3 ADD SWAP1 POP SWAP2 SWAP1 POP JUMP JUMPDEST PUSH0 PUSH1 0x20 DUP3 ADD SWAP1 POP DUP2 DUP2 SUB PUSH0 DUP4 ADD MSTORE PUSH2 0x5934 DUP2 PUSH2 0x58FB JUMP JUMPDEST SWAP1 POP SWAP2 SWAP1 POP JUMP JUMPDEST PUSH32 0x4E6F7420656E6F75676820544F52206465706F73697465640000000000000000 PUSH0 DUP3 ADD MSTORE POP JUMP JUMPDEST PUSH0 PUSH2 0x596F PUSH1 0x18 DUP4 PUSH2 0x4C98 JUMP JUMPDEST SWAP2 POP PUSH2 0x597A DUP3 PUSH2 0x593B JUMP JUMPDEST PUSH1 0x20 DUP3 ADD SWAP1 POP SWAP2 SWAP1 POP JUMP JUMPDEST PUSH0 PUSH1 0x20 DUP3 ADD SWAP1 POP DUP2 DUP2 SUB PUSH0 DUP4 ADD MSTORE PUSH2 0x599C DUP2 PUSH2 0x5963 JUMP JUMPDEST SWAP1 POP SWAP2 SWAP1 POP JUMP JUMPDEST PUSH0 PUSH2 0x59AD DUP3 PUSH2 0x42AA JUMP JUMPDEST SWAP2 POP PUSH2 0x59B8 DUP4 PUSH2 0x42AA JUMP JUMPDEST SWAP3 POP DUP3 DUP3 SUB SWAP1 POP DUP2 DUP2 GT ISZERO PUSH2 0x59D0 JUMPI PUSH2 0x59CF PUSH2 0x4F88 JUMP JUMPDEST JUMPDEST SWAP3 SWAP2 POP POP JUMP JUMPDEST PUSH32 0x4E487B7100000000000000000000000000000000000000000000000000000000 PUSH0 MSTORE PUSH1 0x31 PUSH1 0x4 MSTORE PUSH1 0x24 PUSH0 REVERT INVALID LOG2 PUSH5 0x6970667358 0x22 SLT KECCAK256 PUSH1 0xEE GT 0xEC SWAP6 MLOAD 0xD6 0x25 0xBA SWAP6 RETURNDATASIZE GAS 0xCE PUSH3 0x342174 DUP15 0xCA 0xC7 PUSH16 0x3554F80EC05C3A7308588264736F6C63 NUMBER STOP ADDMOD XOR STOP CALLER "
		},
		"gasEstimates": {
			"creation": {
				"codeDepositCost": "4619400",
				"executionCost": "infinite",
				"totalCost": "infinite"
			},
			"external": {
				"addBenefitType(string)": "infinite",
				"addServiceType(string)": "infinite",
				"approveThrone(uint256)": "infinite",
				"cancelThrone(uint256)": "infinite",
				"claimAllGas()": "infinite",
				"getAllOwnedThrones()": "infinite",
				"getAllThronesInReview()": "infinite",
				"getBenefitTypes()": "infinite",
				"getBlastContractAddress()": "2604",
				"getOwnedThroneCount()": "infinite",
				"getServiceTypes()": "infinite",
				"getThroneById(uint256)": "infinite",
				"getThronesByAddress(address)": "infinite",
				"getTorDepositedByAddress(address)": "2896",
				"getTorTokenContractAddress()": "2560",
				"getTotalTorDeposited()": "2520",
				"getUserHistoryContractAddress()": "2581",
				"modifyThroneInReview(uint256,string,string,string,string)": "infinite",
				"owner()": "2583",
				"readGasParams()": "infinite",
				"rejectThrone(uint256)": "infinite",
				"renounceOwnership()": "infinite",
				"requestDepositForThrone(string,string,string,uint256,string,uint256,string)": "infinite",
				"setBlastContractAddress(address)": "infinite",
				"setTorTokenContractAddress(address)": "infinite",
				"setUserHistoryContractAddress(address)": "infinite",
				"transferOwnership(address)": "infinite",
				"withdrawFromThrone(uint256)": "infinite"
			},
			"internal": {
				"_addBenefitType(string memory)": "infinite",
				"_addServiceType(string memory)": "infinite",
				"_checkUsurpCondition(uint256,uint256,uint256,uint256)": "infinite",
				"_compareStrings(string memory,string memory)": "infinite",
				"_deleteLostOrRejectedThrone(address,string memory,string memory)": "infinite",
				"_deleteThrone(uint256)": "infinite",
				"_findThroneId(enum RefThrone.Status,string memory,string memory)": "infinite",
				"_getNewThroneId()": "24365",
				"_getThroneCountInStatus(enum RefThrone.Status)": "infinite",
				"_getThroneCountOfAddress(address)": "infinite",
				"_isThroneInReview(address,string memory,string memory)": "infinite",
				"_isThroneInStatus(uint256,enum RefThrone.Status)": "2320",
				"_lostThrone(uint256)": "infinite",
				"_withdraw(address,uint256)": "infinite"
			}
		},
		"methodIdentifiers": {
			"addBenefitType(string)": "20dacb98",
			"addServiceType(string)": "5f897959",
			"approveThrone(uint256)": "2cfebe0a",
			"cancelThrone(uint256)": "a3b6710c",
			"claimAllGas()": "645dd1fa",
			"getAllOwnedThrones()": "b762ee79",
			"getAllThronesInReview()": "5992df6b",
			"getBenefitTypes()": "9cabff66",
			"getBlastContractAddress()": "9e6977f4",
			"getOwnedThroneCount()": "092b2410",
			"getServiceTypes()": "34138bab",
			"getThroneById(uint256)": "0ee524e2",
			"getThronesByAddress(address)": "9b174dc0",
			"getTorDepositedByAddress(address)": "9d443a00",
			"getTorTokenContractAddress()": "6100f951",
			"getTotalTorDeposited()": "e6c227ce",
			"getUserHistoryContractAddress()": "cdb219c5",
			"modifyThroneInReview(uint256,string,string,string,string)": "b5394d1f",
			"owner()": "8da5cb5b",
			"readGasParams()": "491ae348",
			"rejectThrone(uint256)": "4b36859e",
			"renounceOwnership()": "715018a6",
			"requestDepositForThrone(string,string,string,uint256,string,uint256,string)": "b0b8a591",
			"setBlastContractAddress(address)": "6ff9e1b3",
			"setTorTokenContractAddress(address)": "7c7a61d5",
			"setUserHistoryContractAddress(address)": "03ca540b",
			"transferOwnership(address)": "f2fde38b",
			"withdrawFromThrone(uint256)": "baf54708"
		}
	},
	"abi": [
		{
			"inputs": [
				{
					"internalType": "address",
					"name": "torTokenContractAddress",
					"type": "address"
				},
				{
					"internalType": "address",
					"name": "userHistoryContractAddress",
					"type": "address"
				}
			],
			"stateMutability": "nonpayable",
			"type": "constructor"
		},
		{
			"inputs": [
				{
					"internalType": "address",
					"name": "owner",
					"type": "address"
				}
			],
			"name": "OwnableInvalidOwner",
			"type": "error"
		},
		{
			"inputs": [
				{
					"internalType": "address",
					"name": "account",
					"type": "address"
				}
			],
			"name": "OwnableUnauthorizedAccount",
			"type": "error"
		},
		{
			"anonymous": false,
			"inputs": [
				{
					"indexed": true,
					"internalType": "address",
					"name": "previousOwner",
					"type": "address"
				},
				{
					"indexed": true,
					"internalType": "address",
					"name": "newOwner",
					"type": "address"
				}
			],
			"name": "OwnershipTransferred",
			"type": "event"
		},
		{
			"anonymous": false,
			"inputs": [
				{
					"indexed": false,
					"internalType": "uint256",
					"name": "throneId",
					"type": "uint256"
				},
				{
					"indexed": false,
					"internalType": "enum RefThrone.Status",
					"name": "status",
					"type": "uint8"
				}
			],
			"name": "ThroneStatus",
			"type": "event"
		},
		{
			"inputs": [
				{
					"internalType": "string",
					"name": "benefitType",
					"type": "string"
				}
			],
			"name": "addBenefitType",
			"outputs": [],
			"stateMutability": "nonpayable",
			"type": "function"
		},
		{
			"inputs": [
				{
					"internalType": "string",
					"name": "serviceType",
					"type": "string"
				}
			],
			"name": "addServiceType",
			"outputs": [],
			"stateMutability": "nonpayable",
			"type": "function"
		},
		{
			"inputs": [
				{
					"internalType": "uint256",
					"name": "throneId",
					"type": "uint256"
				}
			],
			"name": "approveThrone",
			"outputs": [],
			"stateMutability": "nonpayable",
			"type": "function"
		},
		{
			"inputs": [
				{
					"internalType": "uint256",
					"name": "throneId",
					"type": "uint256"
				}
			],
			"name": "cancelThrone",
			"outputs": [],
			"stateMutability": "nonpayable",
			"type": "function"
		},
		{
			"inputs": [],
			"name": "claimAllGas",
			"outputs": [],
			"stateMutability": "nonpayable",
			"type": "function"
		},
		{
			"inputs": [],
			"name": "getAllOwnedThrones",
			"outputs": [
				{
					"components": [
						{
							"internalType": "uint256",
							"name": "id",
							"type": "uint256"
						},
						{
							"internalType": "string",
							"name": "name",
							"type": "string"
						},
						{
							"internalType": "string",
							"name": "serviceType",
							"type": "string"
						},
						{
							"internalType": "string",
							"name": "benefitType",
							"type": "string"
						},
						{
							"internalType": "uint256",
							"name": "benefitAmount",
							"type": "uint256"
						},
						{
							"internalType": "address",
							"name": "referrer",
							"type": "address"
						},
						{
							"internalType": "string",
							"name": "referralCode",
							"type": "string"
						},
						{
							"internalType": "uint256",
							"name": "torAmount",
							"type": "uint256"
						},
						{
							"internalType": "string",
							"name": "linkUrl",
							"type": "string"
						},
						{
							"internalType": "enum RefThrone.Status",
							"name": "status",
							"type": "uint8"
						},
						{
							"internalType": "uint256",
							"name": "timestamp",
							"type": "uint256"
						}
					],
					"internalType": "struct RefThrone.Throne[]",
					"name": "",
					"type": "tuple[]"
				}
			],
			"stateMutability": "view",
			"type": "function"
		},
		{
			"inputs": [],
			"name": "getAllThronesInReview",
			"outputs": [
				{
					"components": [
						{
							"internalType": "uint256",
							"name": "id",
							"type": "uint256"
						},
						{
							"internalType": "string",
							"name": "name",
							"type": "string"
						},
						{
							"internalType": "string",
							"name": "serviceType",
							"type": "string"
						},
						{
							"internalType": "string",
							"name": "benefitType",
							"type": "string"
						},
						{
							"internalType": "uint256",
							"name": "benefitAmount",
							"type": "uint256"
						},
						{
							"internalType": "address",
							"name": "referrer",
							"type": "address"
						},
						{
							"internalType": "string",
							"name": "referralCode",
							"type": "string"
						},
						{
							"internalType": "uint256",
							"name": "torAmount",
							"type": "uint256"
						},
						{
							"internalType": "string",
							"name": "linkUrl",
							"type": "string"
						},
						{
							"internalType": "enum RefThrone.Status",
							"name": "status",
							"type": "uint8"
						},
						{
							"internalType": "uint256",
							"name": "timestamp",
							"type": "uint256"
						}
					],
					"internalType": "struct RefThrone.Throne[]",
					"name": "",
					"type": "tuple[]"
				}
			],
			"stateMutability": "view",
			"type": "function"
		},
		{
			"inputs": [],
			"name": "getBenefitTypes",
			"outputs": [
				{
					"internalType": "string[]",
					"name": "",
					"type": "string[]"
				}
			],
			"stateMutability": "view",
			"type": "function"
		},
		{
			"inputs": [],
			"name": "getBlastContractAddress",
			"outputs": [
				{
					"internalType": "address",
					"name": "",
					"type": "address"
				}
			],
			"stateMutability": "view",
			"type": "function"
		},
		{
			"inputs": [],
			"name": "getOwnedThroneCount",
			"outputs": [
				{
					"internalType": "uint256",
					"name": "",
					"type": "uint256"
				}
			],
			"stateMutability": "view",
			"type": "function"
		},
		{
			"inputs": [],
			"name": "getServiceTypes",
			"outputs": [
				{
					"internalType": "string[]",
					"name": "",
					"type": "string[]"
				}
			],
			"stateMutability": "view",
			"type": "function"
		},
		{
			"inputs": [
				{
					"internalType": "uint256",
					"name": "throneId",
					"type": "uint256"
				}
			],
			"name": "getThroneById",
			"outputs": [
				{
					"components": [
						{
							"internalType": "uint256",
							"name": "id",
							"type": "uint256"
						},
						{
							"internalType": "string",
							"name": "name",
							"type": "string"
						},
						{
							"internalType": "string",
							"name": "serviceType",
							"type": "string"
						},
						{
							"internalType": "string",
							"name": "benefitType",
							"type": "string"
						},
						{
							"internalType": "uint256",
							"name": "benefitAmount",
							"type": "uint256"
						},
						{
							"internalType": "address",
							"name": "referrer",
							"type": "address"
						},
						{
							"internalType": "string",
							"name": "referralCode",
							"type": "string"
						},
						{
							"internalType": "uint256",
							"name": "torAmount",
							"type": "uint256"
						},
						{
							"internalType": "string",
							"name": "linkUrl",
							"type": "string"
						},
						{
							"internalType": "enum RefThrone.Status",
							"name": "status",
							"type": "uint8"
						},
						{
							"internalType": "uint256",
							"name": "timestamp",
							"type": "uint256"
						}
					],
					"internalType": "struct RefThrone.Throne",
					"name": "",
					"type": "tuple"
				}
			],
			"stateMutability": "view",
			"type": "function"
		},
		{
			"inputs": [
				{
					"internalType": "address",
					"name": "address_",
					"type": "address"
				}
			],
			"name": "getThronesByAddress",
			"outputs": [
				{
					"components": [
						{
							"internalType": "uint256",
							"name": "id",
							"type": "uint256"
						},
						{
							"internalType": "string",
							"name": "name",
							"type": "string"
						},
						{
							"internalType": "string",
							"name": "serviceType",
							"type": "string"
						},
						{
							"internalType": "string",
							"name": "benefitType",
							"type": "string"
						},
						{
							"internalType": "uint256",
							"name": "benefitAmount",
							"type": "uint256"
						},
						{
							"internalType": "address",
							"name": "referrer",
							"type": "address"
						},
						{
							"internalType": "string",
							"name": "referralCode",
							"type": "string"
						},
						{
							"internalType": "uint256",
							"name": "torAmount",
							"type": "uint256"
						},
						{
							"internalType": "string",
							"name": "linkUrl",
							"type": "string"
						},
						{
							"internalType": "enum RefThrone.Status",
							"name": "status",
							"type": "uint8"
						},
						{
							"internalType": "uint256",
							"name": "timestamp",
							"type": "uint256"
						}
					],
					"internalType": "struct RefThrone.Throne[]",
					"name": "",
					"type": "tuple[]"
				}
			],
			"stateMutability": "view",
			"type": "function"
		},
		{
			"inputs": [
				{
					"internalType": "address",
					"name": "address_",
					"type": "address"
				}
			],
			"name": "getTorDepositedByAddress",
			"outputs": [
				{
					"internalType": "uint256",
					"name": "torAmount",
					"type": "uint256"
				}
			],
			"stateMutability": "view",
			"type": "function"
		},
		{
			"inputs": [],
			"name": "getTorTokenContractAddress",
			"outputs": [
				{
					"internalType": "address",
					"name": "",
					"type": "address"
				}
			],
			"stateMutability": "view",
			"type": "function"
		},
		{
			"inputs": [],
			"name": "getTotalTorDeposited",
			"outputs": [
				{
					"internalType": "uint256",
					"name": "torAmount",
					"type": "uint256"
				}
			],
			"stateMutability": "view",
			"type": "function"
		},
		{
			"inputs": [],
			"name": "getUserHistoryContractAddress",
			"outputs": [
				{
					"internalType": "address",
					"name": "",
					"type": "address"
				}
			],
			"stateMutability": "view",
			"type": "function"
		},
		{
			"inputs": [
				{
					"internalType": "uint256",
					"name": "throneId",
					"type": "uint256"
				},
				{
					"internalType": "string",
					"name": "name",
					"type": "string"
				},
				{
					"internalType": "string",
					"name": "serviceType",
					"type": "string"
				},
				{
					"internalType": "string",
					"name": "benefitType",
					"type": "string"
				},
				{
					"internalType": "string",
					"name": "linkUrl",
					"type": "string"
				}
			],
			"name": "modifyThroneInReview",
			"outputs": [],
			"stateMutability": "nonpayable",
			"type": "function"
		},
		{
			"inputs": [],
			"name": "owner",
			"outputs": [
				{
					"internalType": "address",
					"name": "",
					"type": "address"
				}
			],
			"stateMutability": "view",
			"type": "function"
		},
		{
			"inputs": [],
			"name": "readGasParams",
			"outputs": [
				{
					"internalType": "uint256",
					"name": "etherSeconds",
					"type": "uint256"
				},
				{
					"internalType": "uint256",
					"name": "etherBalance",
					"type": "uint256"
				},
				{
					"internalType": "uint256",
					"name": "lastUpdated",
					"type": "uint256"
				},
				{
					"internalType": "enum GasMode",
					"name": "",
					"type": "uint8"
				}
			],
			"stateMutability": "view",
			"type": "function"
		},
		{
			"inputs": [
				{
					"internalType": "uint256",
					"name": "throneId",
					"type": "uint256"
				}
			],
			"name": "rejectThrone",
			"outputs": [],
			"stateMutability": "nonpayable",
			"type": "function"
		},
		{
			"inputs": [],
			"name": "renounceOwnership",
			"outputs": [],
			"stateMutability": "nonpayable",
			"type": "function"
		},
		{
			"inputs": [
				{
					"internalType": "string",
					"name": "name",
					"type": "string"
				},
				{
					"internalType": "string",
					"name": "serviceType",
					"type": "string"
				},
				{
					"internalType": "string",
					"name": "benefitType",
					"type": "string"
				},
				{
					"internalType": "uint256",
					"name": "benefitAmount",
					"type": "uint256"
				},
				{
					"internalType": "string",
					"name": "referralCode",
					"type": "string"
				},
				{
					"internalType": "uint256",
					"name": "torAmount",
					"type": "uint256"
				},
				{
					"internalType": "string",
					"name": "linkUrl",
					"type": "string"
				}
			],
			"name": "requestDepositForThrone",
			"outputs": [
				{
					"internalType": "uint256",
					"name": "throneId",
					"type": "uint256"
				}
			],
			"stateMutability": "nonpayable",
			"type": "function"
		},
		{
			"inputs": [
				{
					"internalType": "address",
					"name": "blastContractAddress",
					"type": "address"
				}
			],
			"name": "setBlastContractAddress",
			"outputs": [],
			"stateMutability": "nonpayable",
			"type": "function"
		},
		{
			"inputs": [
				{
					"internalType": "address",
					"name": "torTokenContractAddress",
					"type": "address"
				}
			],
			"name": "setTorTokenContractAddress",
			"outputs": [],
			"stateMutability": "nonpayable",
			"type": "function"
		},
		{
			"inputs": [
				{
					"internalType": "address",
					"name": "userHistoryContractAddress",
					"type": "address"
				}
			],
			"name": "setUserHistoryContractAddress",
			"outputs": [],
			"stateMutability": "nonpayable",
			"type": "function"
		},
		{
			"inputs": [
				{
					"internalType": "address",
					"name": "newOwner",
					"type": "address"
				}
			],
			"name": "transferOwnership",
			"outputs": [],
			"stateMutability": "nonpayable",
			"type": "function"
		},
		{
			"inputs": [
				{
					"internalType": "uint256",
					"name": "throneId",
					"type": "uint256"
				}
			],
			"name": "withdrawFromThrone",
			"outputs": [
				{
					"internalType": "bool",
					"name": "success",
					"type": "bool"
				}
			],
			"stateMutability": "nonpayable",
			"type": "function"
		}
	]
}