{
  "_format": "hh-sol-artifact-1",
  "contractName": "TORTokenContract",
  "sourceName": "contracts/TORTokenContract.sol",
  "abi": [
    {
      "inputs": [
        {
          "internalType": "address",
          "name": "ownerGroupContractAddress",
          "type": "address"
        }
      ],
      "stateMutability": "nonpayable",
      "type": "constructor"
    },
    {
      "anonymous": false,
      "inputs": [
        {
          "indexed": true,
          "internalType": "address",
          "name": "owner",
          "type": "address"
        },
        {
          "indexed": true,
          "internalType": "address",
          "name": "spender",
          "type": "address"
        },
        {
          "indexed": false,
          "internalType": "uint256",
          "name": "value",
          "type": "uint256"
        }
      ],
      "name": "Approval",
      "type": "event"
    },
    {
      "anonymous": false,
      "inputs": [
        {
          "indexed": true,
          "internalType": "address",
          "name": "owner",
          "type": "address"
        },
        {
          "indexed": false,
          "internalType": "uint256",
          "name": "transactionIndex",
          "type": "uint256"
        }
      ],
      "name": "ConfirmTransaction",
      "type": "event"
    },
    {
      "anonymous": false,
      "inputs": [
        {
          "indexed": true,
          "internalType": "address",
          "name": "owner",
          "type": "address"
        },
        {
          "indexed": false,
          "internalType": "uint256",
          "name": "transactionIndex",
          "type": "uint256"
        }
      ],
      "name": "ExecuteTransaction",
      "type": "event"
    },
    {
      "anonymous": false,
      "inputs": [
        {
          "indexed": true,
          "internalType": "address",
          "name": "sender",
          "type": "address"
        },
        {
          "indexed": true,
          "internalType": "address",
          "name": "to",
          "type": "address"
        },
        {
          "indexed": false,
          "internalType": "uint256",
          "name": "amount",
          "type": "uint256"
        }
      ],
      "name": "GenesisMint",
      "type": "event"
    },
    {
      "anonymous": false,
      "inputs": [
        {
          "indexed": true,
          "internalType": "address",
          "name": "owner",
          "type": "address"
        },
        {
          "indexed": false,
          "internalType": "uint256",
          "name": "transactionIndex",
          "type": "uint256"
        }
      ],
      "name": "RevokeConfirmation",
      "type": "event"
    },
    {
      "anonymous": false,
      "inputs": [
        {
          "indexed": true,
          "internalType": "address",
          "name": "admin",
          "type": "address"
        },
        {
          "indexed": false,
          "internalType": "uint256",
          "name": "amount",
          "type": "uint256"
        },
        {
          "indexed": false,
          "internalType": "bool",
          "name": "mintOrBurn",
          "type": "bool"
        }
      ],
      "name": "SubmitMintOrBurnTransaction",
      "type": "event"
    },
    {
      "anonymous": false,
      "inputs": [
        {
          "indexed": true,
          "internalType": "address",
          "name": "from",
          "type": "address"
        },
        {
          "indexed": true,
          "internalType": "address",
          "name": "to",
          "type": "address"
        },
        {
          "indexed": false,
          "internalType": "uint256",
          "name": "value",
          "type": "uint256"
        }
      ],
      "name": "Transfer",
      "type": "event"
    },
    {
      "inputs": [],
      "name": "_name",
      "outputs": [
        {
          "internalType": "string",
          "name": "",
          "type": "string"
        }
      ],
      "stateMutability": "view",
      "type": "function"
    },
    {
      "inputs": [],
      "name": "_symbol",
      "outputs": [
        {
          "internalType": "string",
          "name": "",
          "type": "string"
        }
      ],
      "stateMutability": "view",
      "type": "function"
    },
    {
      "inputs": [
        {
          "internalType": "address",
          "name": "owner",
          "type": "address"
        },
        {
          "internalType": "address",
          "name": "spender",
          "type": "address"
        }
      ],
      "name": "allowance",
      "outputs": [
        {
          "internalType": "uint256",
          "name": "",
          "type": "uint256"
        }
      ],
      "stateMutability": "view",
      "type": "function"
    },
    {
      "inputs": [
        {
          "internalType": "address",
          "name": "spender",
          "type": "address"
        },
        {
          "internalType": "uint256",
          "name": "amount",
          "type": "uint256"
        }
      ],
      "name": "approve",
      "outputs": [
        {
          "internalType": "bool",
          "name": "",
          "type": "bool"
        }
      ],
      "stateMutability": "nonpayable",
      "type": "function"
    },
    {
      "inputs": [
        {
          "internalType": "address",
          "name": "account",
          "type": "address"
        }
      ],
      "name": "balanceOf",
      "outputs": [
        {
          "internalType": "uint256",
          "name": "",
          "type": "uint256"
        }
      ],
      "stateMutability": "view",
      "type": "function"
    },
    {
      "inputs": [],
      "name": "claimAllGas",
      "outputs": [
        {
          "internalType": "uint256",
          "name": "",
          "type": "uint256"
        }
      ],
      "stateMutability": "nonpayable",
      "type": "function"
    },
    {
      "inputs": [
        {
          "internalType": "uint256",
          "name": "transactionIndex",
          "type": "uint256"
        }
      ],
      "name": "confirmTransaction",
      "outputs": [],
      "stateMutability": "nonpayable",
      "type": "function"
    },
    {
      "inputs": [
        {
          "internalType": "address",
          "name": "toAddress",
          "type": "address"
        },
        {
          "internalType": "uint256",
          "name": "amount",
          "type": "uint256"
        }
      ],
      "name": "executeGenesisMint",
      "outputs": [],
      "stateMutability": "nonpayable",
      "type": "function"
    },
    {
      "inputs": [
        {
          "internalType": "uint256",
          "name": "index",
          "type": "uint256"
        }
      ],
      "name": "getMintOrBurnTransaction",
      "outputs": [
        {
          "internalType": "address",
          "name": "",
          "type": "address"
        },
        {
          "internalType": "uint256",
          "name": "",
          "type": "uint256"
        },
        {
          "internalType": "bool",
          "name": "",
          "type": "bool"
        },
        {
          "internalType": "bool",
          "name": "",
          "type": "bool"
        },
        {
          "internalType": "uint256",
          "name": "",
          "type": "uint256"
        }
      ],
      "stateMutability": "view",
      "type": "function"
    },
    {
      "inputs": [],
      "name": "getPendingMintOrBurnTransactions",
      "outputs": [
        {
          "internalType": "uint256[]",
          "name": "",
          "type": "uint256[]"
        }
      ],
      "stateMutability": "view",
      "type": "function"
    },
    {
      "inputs": [],
      "name": "readGasParams",
      "outputs": [
        {
          "internalType": "uint256",
          "name": "etherSeconds",
          "type": "uint256"
        },
        {
          "internalType": "uint256",
          "name": "etherBalance",
          "type": "uint256"
        },
        {
          "internalType": "uint256",
          "name": "lastUpdated",
          "type": "uint256"
        },
        {
          "internalType": "enum GasMode",
          "name": "",
          "type": "uint8"
        }
      ],
      "stateMutability": "view",
      "type": "function"
    },
    {
      "inputs": [
        {
          "internalType": "uint256",
          "name": "transactionIndex",
          "type": "uint256"
        }
      ],
      "name": "revokeConfirmation",
      "outputs": [],
      "stateMutability": "nonpayable",
      "type": "function"
    },
    {
      "inputs": [
        {
          "internalType": "address",
          "name": "toAddress",
          "type": "address"
        },
        {
          "internalType": "uint256",
          "name": "amount",
          "type": "uint256"
        },
        {
          "internalType": "bool",
          "name": "mintOrBurn",
          "type": "bool"
        }
      ],
      "name": "submitMintOrBurnTransaction",
      "outputs": [
        {
          "internalType": "uint256",
          "name": "",
          "type": "uint256"
        }
      ],
      "stateMutability": "nonpayable",
      "type": "function"
    },
    {
      "inputs": [],
      "name": "totalSupply",
      "outputs": [
        {
          "internalType": "uint256",
          "name": "",
          "type": "uint256"
        }
      ],
      "stateMutability": "view",
      "type": "function"
    },
    {
      "inputs": [
        {
          "internalType": "address",
          "name": "to",
          "type": "address"
        },
        {
          "internalType": "uint256",
          "name": "amount",
          "type": "uint256"
        }
      ],
      "name": "transfer",
      "outputs": [
        {
          "internalType": "bool",
          "name": "",
          "type": "bool"
        }
      ],
      "stateMutability": "nonpayable",
      "type": "function"
    },
    {
      "inputs": [
        {
          "internalType": "address",
          "name": "sender",
          "type": "address"
        },
        {
          "internalType": "address",
          "name": "recipient",
          "type": "address"
        },
        {
          "internalType": "uint256",
          "name": "amount",
          "type": "uint256"
        }
      ],
      "name": "transferFrom",
      "outputs": [
        {
          "internalType": "bool",
          "name": "",
          "type": "bool"
        }
      ],
      "stateMutability": "nonpayable",
      "type": "function"
    }
  ],
  "bytecode": "0x60806040526000600460146101000a81548160ff02191690831515021790555060006005556012600760006101000a81548160ff021916908360ff160217905550600760009054906101000a900460ff16600a6200005e9190620003d5565b6008553480156200006e57600080fd5b5060405162003d2f38038062003d2f833981810160405281019062000094919062000490565b6040518060400160405280600981526020017f544f5220546f6b656e000000000000000000000000000000000000000000000081525060099081620000da919062000732565b506040518060400160405280600381526020017f544f520000000000000000000000000000000000000000000000000000000000815250600a908162000121919062000732565b50600854633b9aca0062000136919062000819565b60068190555080600b60006101000a81548173ffffffffffffffffffffffffffffffffffffffff021916908373ffffffffffffffffffffffffffffffffffffffff16021790555080600460006101000a81548173ffffffffffffffffffffffffffffffffffffffff021916908373ffffffffffffffffffffffffffffffffffffffff16021790555073430000000000000000000000000000000000000273ffffffffffffffffffffffffffffffffffffffff16634e606c476040518163ffffffff1660e01b8152600401600060405180830381600087803b1580156200021b57600080fd5b505af115801562000230573d6000803e3d6000fd5b505050505062000864565b7f4e487b7100000000000000000000000000000000000000000000000000000000600052601160045260246000fd5b60008160011c9050919050565b6000808291508390505b6001851115620002c957808604811115620002a157620002a06200023b565b5b6001851615620002b15780820291505b8081029050620002c1856200026a565b945062000281565b94509492505050565b600082620002e45760019050620003b7565b81620002f45760009050620003b7565b81600181146200030d576002811462000318576200034e565b6001915050620003b7565b60ff8411156200032d576200032c6200023b565b5b8360020a9150848211156200034757620003466200023b565b5b50620003b7565b5060208310610133831016604e8410600b8410161715620003885782820a9050838111156200038257620003816200023b565b5b620003b7565b62000397848484600162000277565b92509050818404811115620003b157620003b06200023b565b5b81810290505b9392505050565b6000819050919050565b600060ff82169050919050565b6000620003e282620003be565b9150620003ef83620003c8565b92506200041e7fffffffffffffffffffffffffffffffffffffffffffffffffffffffffffffffff8484620002d2565b905092915050565b600080fd5b600073ffffffffffffffffffffffffffffffffffffffff82169050919050565b600062000458826200042b565b9050919050565b6200046a816200044b565b81146200047657600080fd5b50565b6000815190506200048a816200045f565b92915050565b600060208284031215620004a957620004a862000426565b5b6000620004b98482850162000479565b91505092915050565b600081519050919050565b7f4e487b7100000000000000000000000000000000000000000000000000000000600052604160045260246000fd5b7f4e487b7100000000000000000000000000000000000000000000000000000000600052602260045260246000fd5b600060028204905060018216806200054457607f821691505b6020821081036200055a5762000559620004fc565b5b50919050565b60008190508160005260206000209050919050565b60006020601f8301049050919050565b600082821b905092915050565b600060088302620005c47fffffffffffffffffffffffffffffffffffffffffffffffffffffffffffffffff8262000585565b620005d0868362000585565b95508019841693508086168417925050509392505050565b6000819050919050565b6000620006136200060d6200060784620003be565b620005e8565b620003be565b9050919050565b6000819050919050565b6200062f83620005f2565b620006476200063e826200061a565b84845462000592565b825550505050565b600090565b6200065e6200064f565b6200066b81848462000624565b505050565b5b8181101562000693576200068760008262000654565b60018101905062000671565b5050565b601f821115620006e257620006ac8162000560565b620006b78462000575565b81016020851015620006c7578190505b620006df620006d68562000575565b83018262000670565b50505b505050565b600082821c905092915050565b60006200070760001984600802620006e7565b1980831691505092915050565b6000620007228383620006f4565b9150826002028217905092915050565b6200073d82620004c2565b67ffffffffffffffff811115620007595762000758620004cd565b5b6200076582546200052b565b6200077282828562000697565b600060209050601f831160018114620007aa576000841562000795578287015190505b620007a1858262000714565b86555062000811565b601f198416620007ba8662000560565b60005b82811015620007e457848901518255600182019150602085019450602081019050620007bd565b8683101562000804578489015162000800601f891682620006f4565b8355505b6001600288020188555050505b505050505050565b60006200082682620003be565b91506200083383620003be565b92508282026200084381620003be565b915082820484148315176200085d576200085c6200023b565b5b5092915050565b6134bb80620008746000396000f3fe608060405234801561001057600080fd5b50600436106101005760003560e01c8063645dd1fa11610097578063b09f126611610066578063b09f1266146102dc578063c01a8c84146102fa578063d28d885214610316578063dd62ed3e1461033457610100565b8063645dd1fa1461024057806370a082311461025e578063906396e61461028e578063a9059cbb146102ac57610100565b806320ea8d86116100d357806320ea8d86146101b757806323b872dd146101d357806333ed080114610203578063491ae3481461021f57610100565b8063095ea7b3146101055780630b7bf8b8146101355780631579b5161461016957806318160ddd14610199575b600080fd5b61011f600480360381019061011a91906124ce565b610364565b60405161012c9190612529565b60405180910390f35b61014f600480360381019061014a9190612544565b61037b565b60405161016095949392919061258f565b60405180910390f35b610183600480360381019061017e919061260e565b610520565b6040516101909190612661565b60405180910390f35b6101a161085e565b6040516101ae9190612661565b60405180910390f35b6101d160048036038101906101cc9190612544565b610868565b005b6101ed60048036038101906101e8919061267c565b610b2a565b6040516101fa9190612529565b60405180910390f35b61021d600480360381019061021891906124ce565b610ef6565b005b6102276110b5565b6040516102379493929190612746565b60405180910390f35b610248611232565b6040516102559190612661565b60405180910390f35b6102786004803603810190610273919061278b565b6113c8565b6040516102859190612661565b60405180910390f35b610296611410565b6040516102a39190612876565b60405180910390f35b6102c660048036038101906102c191906124ce565b611609565b6040516102d39190612529565b60405180910390f35b6102e4611620565b6040516102f19190612928565b60405180910390f35b610314600480360381019061030f9190612544565b6116ae565b005b61031e611a3b565b60405161032b9190612928565b60405180910390f35b61034e6004803603810190610349919061294a565b611ac9565b60405161035b9190612661565b60405180910390f35b6000610371338484611b50565b6001905092915050565b6000806000806000600b60009054906101000a900473ffffffffffffffffffffffffffffffffffffffff1673ffffffffffffffffffffffffffffffffffffffff16632f54bf6e336040518263ffffffff1660e01b81526004016103de919061298a565b602060405180830381865afa1580156103fb573d6000803e3d6000fd5b505050506040513d601f19601f8201168201806040525081019061041f91906129ba565b61045e576040517f08c379a000000000000000000000000000000000000000000000000000000000815260040161045590612a33565b60405180910390fd5b60055486106104a2576040517f08c379a000000000000000000000000000000000000000000000000000000000815260040161049990612a9f565b60405180910390fd5b60006002600088815260200190815260200160002090508060000160009054906101000a900473ffffffffffffffffffffffffffffffffffffffff1681600101548260020160009054906101000a900460ff168360020160019054906101000a900460ff168460030154955095509550955095505091939590929450565b6000600b60009054906101000a900473ffffffffffffffffffffffffffffffffffffffff1673ffffffffffffffffffffffffffffffffffffffff16632f54bf6e336040518263ffffffff1660e01b815260040161057d919061298a565b602060405180830381865afa15801561059a573d6000803e3d6000fd5b505050506040513d601f19601f820116820180604052508101906105be91906129ba565b6105fd576040517f08c379a00000000000000000000000000000000000000000000000000000000081526004016105f490612a33565b60405180910390fd5b8161067657600073ffffffffffffffffffffffffffffffffffffffff168473ffffffffffffffffffffffffffffffffffffffff1603610671576040517f08c379a000000000000000000000000000000000000000000000000000000000815260040161066890612b0b565b60405180910390fd5b6106f8565b826000808673ffffffffffffffffffffffffffffffffffffffff1673ffffffffffffffffffffffffffffffffffffffff1681526020019081526020016000205410156106f7576040517f08c379a00000000000000000000000000000000000000000000000000000000081526004016106ee90612b77565b60405180910390fd5b5b6040518060a001604052808573ffffffffffffffffffffffffffffffffffffffff1681526020018481526020016000151581526020018315158152602001600081525060026000600554815260200190815260200160002060008201518160000160006101000a81548173ffffffffffffffffffffffffffffffffffffffff021916908373ffffffffffffffffffffffffffffffffffffffff1602179055506020820151816001015560408201518160020160006101000a81548160ff02191690831515021790555060608201518160020160016101000a81548160ff021916908315150217905550608082015181600301559050508373ffffffffffffffffffffffffffffffffffffffff167fcc03cc8aaff0b1befd6987d88c7abd24d9fbf04211fddd8e5e3be06b891f79038484604051610836929190612b97565b60405180910390a26005600081548092919061085190612bef565b9190505590509392505050565b6000600654905090565b600b60009054906101000a900473ffffffffffffffffffffffffffffffffffffffff1673ffffffffffffffffffffffffffffffffffffffff16632f54bf6e336040518263ffffffff1660e01b81526004016108c3919061298a565b602060405180830381865afa1580156108e0573d6000803e3d6000fd5b505050506040513d601f19601f8201168201806040525081019061090491906129ba565b610943576040517f08c379a000000000000000000000000000000000000000000000000000000000815260040161093a90612a33565b60405180910390fd5b6002600082815260200190815260200160002060020160009054906101000a900460ff16156109a7576040517f08c379a000000000000000000000000000000000000000000000000000000000815260040161099e90612c83565b60405180910390fd5b6003600082815260200190815260200160002060003373ffffffffffffffffffffffffffffffffffffffff1673ffffffffffffffffffffffffffffffffffffffff16815260200190815260200160002060009054906101000a900460ff16610a44576040517f08c379a0000000000000000000000000000000000000000000000000000000008152600401610a3b90612cef565b60405180910390fd5b600260008281526020019081526020016000206003016000815480929190610a6b90612d0f565b919050555060006003600083815260200190815260200160002060003373ffffffffffffffffffffffffffffffffffffffff1673ffffffffffffffffffffffffffffffffffffffff16815260200190815260200160002060006101000a81548160ff0219169083151502179055503373ffffffffffffffffffffffffffffffffffffffff167ff0dca620e2e81f7841d07bcc105e1704fb01475b278a9d4c236e1c62945edd5582604051610b1f9190612661565b60405180910390a250565b60008073ffffffffffffffffffffffffffffffffffffffff168473ffffffffffffffffffffffffffffffffffffffff1603610b9a576040517f08c379a0000000000000000000000000000000000000000000000000000000008152600401610b9190612d84565b60405180910390fd5b600073ffffffffffffffffffffffffffffffffffffffff168373ffffffffffffffffffffffffffffffffffffffff1603610c09576040517f08c379a0000000000000000000000000000000000000000000000000000000008152600401610c0090612d84565b60405180910390fd5b816000808673ffffffffffffffffffffffffffffffffffffffff1673ffffffffffffffffffffffffffffffffffffffff168152602001908152602001600020541015610c8a576040517f08c379a0000000000000000000000000000000000000000000000000000000008152600401610c8190612df0565b60405180910390fd5b81600160008673ffffffffffffffffffffffffffffffffffffffff1673ffffffffffffffffffffffffffffffffffffffff16815260200190815260200160002060003373ffffffffffffffffffffffffffffffffffffffff1673ffffffffffffffffffffffffffffffffffffffff168152602001908152602001600020541015610d49576040517f08c379a0000000000000000000000000000000000000000000000000000000008152600401610d4090612e5c565b60405180910390fd5b816000808673ffffffffffffffffffffffffffffffffffffffff1673ffffffffffffffffffffffffffffffffffffffff1681526020019081526020016000206000828254610d979190612e7c565b92505081905550816000808573ffffffffffffffffffffffffffffffffffffffff1673ffffffffffffffffffffffffffffffffffffffff1681526020019081526020016000206000828254610dec9190612eb0565b9250508190555081600160008673ffffffffffffffffffffffffffffffffffffffff1673ffffffffffffffffffffffffffffffffffffffff16815260200190815260200160002060003373ffffffffffffffffffffffffffffffffffffffff1673ffffffffffffffffffffffffffffffffffffffff1681526020019081526020016000206000828254610e7f9190612e7c565b925050819055508273ffffffffffffffffffffffffffffffffffffffff168473ffffffffffffffffffffffffffffffffffffffff167fddf252ad1be2c89b69c2b068fc378daa952ba7f163c4a11628f55a4df523b3ef84604051610ee39190612661565b60405180910390a3600190509392505050565b600b60009054906101000a900473ffffffffffffffffffffffffffffffffffffffff1673ffffffffffffffffffffffffffffffffffffffff16632f54bf6e336040518263ffffffff1660e01b8152600401610f51919061298a565b602060405180830381865afa158015610f6e573d6000803e3d6000fd5b505050506040513d601f19601f82011682018060405250810190610f9291906129ba565b610fd1576040517f08c379a0000000000000000000000000000000000000000000000000000000008152600401610fc890612a33565b60405180910390fd5b60011515600460149054906101000a900460ff16151503611027576040517f08c379a000000000000000000000000000000000000000000000000000000000815260040161101e90612f30565b60405180910390fd5b6110318282611d19565b6001600460146101000a81548160ff0219169083151502179055508173ffffffffffffffffffffffffffffffffffffffff163373ffffffffffffffffffffffffffffffffffffffff167f117a0fabd982f3193b0b071f8c9ca0a1cd748f3deb8adf2f292cabed574e3669836040516110a99190612661565b60405180910390a35050565b600080600080600b60009054906101000a900473ffffffffffffffffffffffffffffffffffffffff1673ffffffffffffffffffffffffffffffffffffffff16632f54bf6e336040518263ffffffff1660e01b8152600401611116919061298a565b602060405180830381865afa158015611133573d6000803e3d6000fd5b505050506040513d601f19601f8201168201806040525081019061115791906129ba565b611196576040517f08c379a000000000000000000000000000000000000000000000000000000000815260040161118d90612a33565b60405180910390fd5b73430000000000000000000000000000000000000273ffffffffffffffffffffffffffffffffffffffff1663dde798a4306040518263ffffffff1660e01b81526004016111e3919061298a565b608060405180830381865afa158015611200573d6000803e3d6000fd5b505050506040513d601f19601f820116820180604052508101906112249190612f8a565b935093509350935090919293565b6000600b60009054906101000a900473ffffffffffffffffffffffffffffffffffffffff1673ffffffffffffffffffffffffffffffffffffffff16632f54bf6e336040518263ffffffff1660e01b815260040161128f919061298a565b602060405180830381865afa1580156112ac573d6000803e3d6000fd5b505050506040513d601f19601f820116820180604052508101906112d091906129ba565b61130f576040517f08c379a000000000000000000000000000000000000000000000000000000000815260040161130690612a33565b60405180910390fd5b73430000000000000000000000000000000000000273ffffffffffffffffffffffffffffffffffffffff1663954fa5ee30600460009054906101000a900473ffffffffffffffffffffffffffffffffffffffff166040518363ffffffff1660e01b8152600401611380929190612ff1565b6020604051808303816000875af115801561139f573d6000803e3d6000fd5b505050506040513d601f19601f820116820180604052508101906113c3919061301a565b905090565b60008060008373ffffffffffffffffffffffffffffffffffffffff1673ffffffffffffffffffffffffffffffffffffffff168152602001908152602001600020549050919050565b6060600b60009054906101000a900473ffffffffffffffffffffffffffffffffffffffff1673ffffffffffffffffffffffffffffffffffffffff16632f54bf6e336040518263ffffffff1660e01b815260040161146d919061298a565b602060405180830381865afa15801561148a573d6000803e3d6000fd5b505050506040513d601f19601f820116820180604052508101906114ae91906129ba565b6114ed576040517f08c379a00000000000000000000000000000000000000000000000000000000081526004016114e490612a33565b60405180910390fd5b6000805b60055481101561153f576002600082815260200190815260200160002060020160009054906101000a900460ff1661153257818061152e90612bef565b9250505b80806001019150506114f1565b5060008167ffffffffffffffff81111561155c5761155b613047565b5b60405190808252806020026020018201604052801561158a5781602001602082028036833780820191505090505b5090506000805b6005548110156115ff576002600082815260200190815260200160002060020160009054906101000a900460ff166115f257808383815181106115d7576115d6613076565b5b60200260200101818152505081806115ee90612bef565b9250505b8080600101915050611591565b5081935050505090565b6000611616338484611e4d565b6001905092915050565b600a805461162d906130d4565b80601f0160208091040260200160405190810160405280929190818152602001828054611659906130d4565b80156116a65780601f1061167b576101008083540402835291602001916116a6565b820191906000526020600020905b81548152906001019060200180831161168957829003601f168201915b505050505081565b600b60009054906101000a900473ffffffffffffffffffffffffffffffffffffffff1673ffffffffffffffffffffffffffffffffffffffff16632f54bf6e336040518263ffffffff1660e01b8152600401611709919061298a565b602060405180830381865afa158015611726573d6000803e3d6000fd5b505050506040513d601f19601f8201168201806040525081019061174a91906129ba565b611789576040517f08c379a000000000000000000000000000000000000000000000000000000000815260040161178090612a33565b60405180910390fd5b6002600082815260200190815260200160002060020160009054906101000a900460ff16156117ed576040517f08c379a00000000000000000000000000000000000000000000000000000000081526004016117e490612c83565b60405180910390fd5b6003600082815260200190815260200160002060003373ffffffffffffffffffffffffffffffffffffffff1673ffffffffffffffffffffffffffffffffffffffff16815260200190815260200160002060009054906101000a900460ff161561188b576040517f08c379a000000000000000000000000000000000000000000000000000000000815260040161188290613151565b60405180910390fd5b6002600082815260200190815260200160002060030160008154809291906118b290612bef565b919050555060016003600083815260200190815260200160002060003373ffffffffffffffffffffffffffffffffffffffff1673ffffffffffffffffffffffffffffffffffffffff16815260200190815260200160002060006101000a81548160ff0219169083151502179055503373ffffffffffffffffffffffffffffffffffffffff167f5cbe105e36805f7820e291f799d5794ff948af2a5f664e580382defb63390041826040516119669190612661565b60405180910390a260006002600b60009054906101000a900473ffffffffffffffffffffffffffffffffffffffff1673ffffffffffffffffffffffffffffffffffffffff1663ef18374a6040518163ffffffff1660e01b8152600401602060405180830381865afa1580156119df573d6000803e3d6000fd5b505050506040513d601f19601f82011682018060405250810190611a03919061301a565b611a0d91906131a0565b90508060026000848152602001908152602001600020600301541115611a3757611a36826120c0565b5b5050565b60098054611a48906130d4565b80601f0160208091040260200160405190810160405280929190818152602001828054611a74906130d4565b8015611ac15780601f10611a9657610100808354040283529160200191611ac1565b820191906000526020600020905b815481529060010190602001808311611aa457829003601f168201915b505050505081565b6000600160008473ffffffffffffffffffffffffffffffffffffffff1673ffffffffffffffffffffffffffffffffffffffff16815260200190815260200160002060008373ffffffffffffffffffffffffffffffffffffffff1673ffffffffffffffffffffffffffffffffffffffff16815260200190815260200160002054905092915050565b600073ffffffffffffffffffffffffffffffffffffffff168373ffffffffffffffffffffffffffffffffffffffff1603611bbf576040517f08c379a0000000000000000000000000000000000000000000000000000000008152600401611bb690613243565b60405180910390fd5b600073ffffffffffffffffffffffffffffffffffffffff168273ffffffffffffffffffffffffffffffffffffffff1603611c2e576040517f08c379a0000000000000000000000000000000000000000000000000000000008152600401611c25906132d5565b60405180910390fd5b80600160008573ffffffffffffffffffffffffffffffffffffffff1673ffffffffffffffffffffffffffffffffffffffff16815260200190815260200160002060008473ffffffffffffffffffffffffffffffffffffffff1673ffffffffffffffffffffffffffffffffffffffff168152602001908152602001600020819055508173ffffffffffffffffffffffffffffffffffffffff168373ffffffffffffffffffffffffffffffffffffffff167f8c5be1e5ebec7d5bd14f71427d1e84f3dd0314c0f7b2291e5b200ac8c7c3b92583604051611d0c9190612661565b60405180910390a3505050565b600b60009054906101000a900473ffffffffffffffffffffffffffffffffffffffff1673ffffffffffffffffffffffffffffffffffffffff16632f54bf6e336040518263ffffffff1660e01b8152600401611d74919061298a565b602060405180830381865afa158015611d91573d6000803e3d6000fd5b505050506040513d601f19601f82011682018060405250810190611db591906129ba565b611df4576040517f08c379a0000000000000000000000000000000000000000000000000000000008152600401611deb90612a33565b60405180910390fd5b806000808473ffffffffffffffffffffffffffffffffffffffff1673ffffffffffffffffffffffffffffffffffffffff1681526020019081526020016000206000828254611e429190612eb0565b925050819055505050565b600073ffffffffffffffffffffffffffffffffffffffff168373ffffffffffffffffffffffffffffffffffffffff1603611ebc576040517f08c379a0000000000000000000000000000000000000000000000000000000008152600401611eb390613367565b60405180910390fd5b600073ffffffffffffffffffffffffffffffffffffffff168273ffffffffffffffffffffffffffffffffffffffff1603611f2b576040517f08c379a0000000000000000000000000000000000000000000000000000000008152600401611f22906133f9565b60405180910390fd5b806000808573ffffffffffffffffffffffffffffffffffffffff1673ffffffffffffffffffffffffffffffffffffffff168152602001908152602001600020541015611fac576040517f08c379a0000000000000000000000000000000000000000000000000000000008152600401611fa390613465565b60405180910390fd5b806000808573ffffffffffffffffffffffffffffffffffffffff1673ffffffffffffffffffffffffffffffffffffffff1681526020019081526020016000206000828254611ffa9190612e7c565b92505081905550806000808473ffffffffffffffffffffffffffffffffffffffff1673ffffffffffffffffffffffffffffffffffffffff168152602001908152602001600020600082825461204f9190612eb0565b925050819055508173ffffffffffffffffffffffffffffffffffffffff168373ffffffffffffffffffffffffffffffffffffffff167fddf252ad1be2c89b69c2b068fc378daa952ba7f163c4a11628f55a4df523b3ef836040516120b39190612661565b60405180910390a3505050565b60016002600083815260200190815260200160002060020160006101000a81548160ff0219169083151502179055506002600082815260200190815260200160002060020160019054906101000a900460ff166121725761216d6002600083815260200190815260200160002060000160009054906101000a900473ffffffffffffffffffffffffffffffffffffffff166002600084815260200190815260200160002060010154611d19565b6121c9565b6121c86002600083815260200190815260200160002060000160009054906101000a900473ffffffffffffffffffffffffffffffffffffffff166002600084815260200190815260200160002060010154612250565b5b6002600082815260200190815260200160002060000160009054906101000a900473ffffffffffffffffffffffffffffffffffffffff1673ffffffffffffffffffffffffffffffffffffffff167f5445f318f4f5fcfb66592e68e0cc5822aa15664039bd5f0ffde24c5a8142b1ac826040516122459190612661565b60405180910390a250565b600b60009054906101000a900473ffffffffffffffffffffffffffffffffffffffff1673ffffffffffffffffffffffffffffffffffffffff16632f54bf6e336040518263ffffffff1660e01b81526004016122ab919061298a565b602060405180830381865afa1580156122c8573d6000803e3d6000fd5b505050506040513d601f19601f820116820180604052508101906122ec91906129ba565b61232b576040517f08c379a000000000000000000000000000000000000000000000000000000000815260040161232290612a33565b60405180910390fd5b806000808473ffffffffffffffffffffffffffffffffffffffff1673ffffffffffffffffffffffffffffffffffffffff168152602001908152602001600020546123759190612e7c565b6000808473ffffffffffffffffffffffffffffffffffffffff1673ffffffffffffffffffffffffffffffffffffffff16815260200190815260200160002081905550806006546123c59190612e7c565b600681905550600073ffffffffffffffffffffffffffffffffffffffff168273ffffffffffffffffffffffffffffffffffffffff167fddf252ad1be2c89b69c2b068fc378daa952ba7f163c4a11628f55a4df523b3ef836040516124299190612661565b60405180910390a35050565b600080fd5b600073ffffffffffffffffffffffffffffffffffffffff82169050919050565b60006124658261243a565b9050919050565b6124758161245a565b811461248057600080fd5b50565b6000813590506124928161246c565b92915050565b6000819050919050565b6124ab81612498565b81146124b657600080fd5b50565b6000813590506124c8816124a2565b92915050565b600080604083850312156124e5576124e4612435565b5b60006124f385828601612483565b9250506020612504858286016124b9565b9150509250929050565b60008115159050919050565b6125238161250e565b82525050565b600060208201905061253e600083018461251a565b92915050565b60006020828403121561255a57612559612435565b5b6000612568848285016124b9565b91505092915050565b61257a8161245a565b82525050565b61258981612498565b82525050565b600060a0820190506125a46000830188612571565b6125b16020830187612580565b6125be604083018661251a565b6125cb606083018561251a565b6125d86080830184612580565b9695505050505050565b6125eb8161250e565b81146125f657600080fd5b50565b600081359050612608816125e2565b92915050565b60008060006060848603121561262757612626612435565b5b600061263586828701612483565b9350506020612646868287016124b9565b9250506040612657868287016125f9565b9150509250925092565b60006020820190506126766000830184612580565b92915050565b60008060006060848603121561269557612694612435565b5b60006126a386828701612483565b93505060206126b486828701612483565b92505060406126c5868287016124b9565b9150509250925092565b7f4e487b7100000000000000000000000000000000000000000000000000000000600052602160045260246000fd5b6002811061270f5761270e6126cf565b5b50565b6000819050612720826126fe565b919050565b600061273082612712565b9050919050565b61274081612725565b82525050565b600060808201905061275b6000830187612580565b6127686020830186612580565b6127756040830185612580565b6127826060830184612737565b95945050505050565b6000602082840312156127a1576127a0612435565b5b60006127af84828501612483565b91505092915050565b600081519050919050565b600082825260208201905092915050565b6000819050602082019050919050565b6127ed81612498565b82525050565b60006127ff83836127e4565b60208301905092915050565b6000602082019050919050565b6000612823826127b8565b61282d81856127c3565b9350612838836127d4565b8060005b8381101561286957815161285088826127f3565b975061285b8361280b565b92505060018101905061283c565b5085935050505092915050565b600060208201905081810360008301526128908184612818565b905092915050565b600081519050919050565b600082825260208201905092915050565b60005b838110156128d25780820151818401526020810190506128b7565b60008484015250505050565b6000601f19601f8301169050919050565b60006128fa82612898565b61290481856128a3565b93506129148185602086016128b4565b61291d816128de565b840191505092915050565b6000602082019050818103600083015261294281846128ef565b905092915050565b6000806040838503121561296157612960612435565b5b600061296f85828601612483565b925050602061298085828601612483565b9150509250929050565b600060208201905061299f6000830184612571565b92915050565b6000815190506129b4816125e2565b92915050565b6000602082840312156129d0576129cf612435565b5b60006129de848285016129a5565b91505092915050565b7f4f6e6c79204f776e657220686176652061207065726d697373696f6e2e000000600082015250565b6000612a1d601d836128a3565b9150612a28826129e7565b602082019050919050565b60006020820190508181036000830152612a4c81612a10565b9050919050565b7f496e646578206f7574206f6620626f756e647300000000000000000000000000600082015250565b6000612a896013836128a3565b9150612a9482612a53565b602082019050919050565b60006020820190508181036000830152612ab881612a7c565b9050919050565b7f496e76616c6964204d696e742041646472657373000000000000000000000000600082015250565b6000612af56014836128a3565b9150612b0082612abf565b602082019050919050565b60006020820190508181036000830152612b2481612ae8565b9050919050565b7f496e73756666696369656e742062616c616e636520746f206275726e2e000000600082015250565b6000612b61601d836128a3565b9150612b6c82612b2b565b602082019050919050565b60006020820190508181036000830152612b9081612b54565b9050919050565b6000604082019050612bac6000830185612580565b612bb9602083018461251a565b9392505050565b7f4e487b7100000000000000000000000000000000000000000000000000000000600052601160045260246000fd5b6000612bfa82612498565b91507fffffffffffffffffffffffffffffffffffffffffffffffffffffffffffffffff8203612c2c57612c2b612bc0565b5b600182019050919050565b7f5472616e73616374696f6e20616c726561647920657865637574656400000000600082015250565b6000612c6d601c836128a3565b9150612c7882612c37565b602082019050919050565b60006020820190508181036000830152612c9c81612c60565b9050919050565b7f5472616e73616374696f6e206e6f7420636f6e6669726d656400000000000000600082015250565b6000612cd96019836128a3565b9150612ce482612ca3565b602082019050919050565b60006020820190508181036000830152612d0881612ccc565b9050919050565b6000612d1a82612498565b915060008203612d2d57612d2c612bc0565b5b600182039050919050565b7f496e76616c696420616464726573730000000000000000000000000000000000600082015250565b6000612d6e600f836128a3565b9150612d7982612d38565b602082019050919050565b60006020820190508181036000830152612d9d81612d61565b9050919050565b7f496e73756666696369656e742062616c616e6365000000000000000000000000600082015250565b6000612dda6014836128a3565b9150612de582612da4565b602082019050919050565b60006020820190508181036000830152612e0981612dcd565b9050919050565b7f416c6c6f77616e63652065786365656465640000000000000000000000000000600082015250565b6000612e466012836128a3565b9150612e5182612e10565b602082019050919050565b60006020820190508181036000830152612e7581612e39565b9050919050565b6000612e8782612498565b9150612e9283612498565b9250828203905081811115612eaa57612ea9612bc0565b5b92915050565b6000612ebb82612498565b9150612ec683612498565b9250828201905080821115612ede57612edd612bc0565b5b92915050565b7f416c7265616479204d696e740000000000000000000000000000000000000000600082015250565b6000612f1a600c836128a3565b9150612f2582612ee4565b602082019050919050565b60006020820190508181036000830152612f4981612f0d565b9050919050565b600081519050612f5f816124a2565b92915050565b60028110612f7257600080fd5b50565b600081519050612f8481612f65565b92915050565b60008060008060808587031215612fa457612fa3612435565b5b6000612fb287828801612f50565b9450506020612fc387828801612f50565b9350506040612fd487828801612f50565b9250506060612fe587828801612f75565b91505092959194509250565b60006040820190506130066000830185612571565b6130136020830184612571565b9392505050565b6000602082840312156130305761302f612435565b5b600061303e84828501612f50565b91505092915050565b7f4e487b7100000000000000000000000000000000000000000000000000000000600052604160045260246000fd5b7f4e487b7100000000000000000000000000000000000000000000000000000000600052603260045260246000fd5b7f4e487b7100000000000000000000000000000000000000000000000000000000600052602260045260246000fd5b600060028204905060018216806130ec57607f821691505b6020821081036130ff576130fe6130a5565b5b50919050565b7f5472616e73616374696f6e20616c726561647920636f6e6669726d6564000000600082015250565b600061313b601d836128a3565b915061314682613105565b602082019050919050565b6000602082019050818103600083015261316a8161312e565b9050919050565b7f4e487b7100000000000000000000000000000000000000000000000000000000600052601260045260246000fd5b60006131ab82612498565b91506131b683612498565b9250826131c6576131c5613171565b5b828204905092915050565b7f45524332303a20617070726f76652066726f6d20746865207a65726f2061646460008201527f7265737300000000000000000000000000000000000000000000000000000000602082015250565b600061322d6024836128a3565b9150613238826131d1565b604082019050919050565b6000602082019050818103600083015261325c81613220565b9050919050565b7f45524332303a20617070726f766520746f20746865207a65726f20616464726560008201527f7373000000000000000000000000000000000000000000000000000000000000602082015250565b60006132bf6022836128a3565b91506132ca82613263565b604082019050919050565b600060208201905081810360008301526132ee816132b2565b9050919050565b7f45524332303a207472616e736665722066726f6d20746865207a65726f20616460008201527f6472657373000000000000000000000000000000000000000000000000000000602082015250565b60006133516025836128a3565b915061335c826132f5565b604082019050919050565b6000602082019050818103600083015261338081613344565b9050919050565b7f45524332303a207472616e7366657220746f20746865207a65726f206164647260008201527f6573730000000000000000000000000000000000000000000000000000000000602082015250565b60006133e36023836128a3565b91506133ee82613387565b604082019050919050565b60006020820190508181036000830152613412816133d6565b9050919050565b7f45524332303a20696e73756666696369656e742062616c616e63650000000000600082015250565b600061344f601b836128a3565b915061345a82613419565b602082019050919050565b6000602082019050818103600083015261347e81613442565b905091905056fea2646970667358221220e2071ddf3ae288b242cf030d43b93de360a8e613c00c94f27e709dfa69a5c77564736f6c63430008180033",
  "linkReferences": {},
  "deployedLinkReferences": {}
}