{
	"data": {
		"bytecode": {
			"linkReferences": {},
			"object": "608060405234801562000010575f80fd5b50335f73ffffffffffffffffffffffffffffffffffffffff168173ffffffffffffffffffffffffffffffffffffffff160362000085575f6040517f1e4fbdf70000000000000000000000000000000000000000000000000000000081526004016200007c919062000291565b60405180910390fd5b62000096816200018d60201b60201c565b50606460035f6101000a81548161ffff021916908361ffff1602179055506014600360026101000a81548161ffff021916908361ffff16021790555060fa600360046101000a81548161ffff021916908361ffff1602179055506101f4600360066101000a81548161ffff021916908361ffff1602179055506032600360086101000a81548161ffff021916908361ffff16021790555060146003600a6101000a81548161ffff021916908361ffff16021790555060646003600c6101000a81548161ffff021916908361ffff16021790555060c86003600e6101000a81548161ffff021916908361ffff160217905550620002ac565b5f805f9054906101000a900473ffffffffffffffffffffffffffffffffffffffff169050815f806101000a81548173ffffffffffffffffffffffffffffffffffffffff021916908373ffffffffffffffffffffffffffffffffffffffff1602179055508173ffffffffffffffffffffffffffffffffffffffff168173ffffffffffffffffffffffffffffffffffffffff167f8be0079c531659141344cd1fd0a4f28419497f9722a3daafe3b4186f6b6457e060405160405180910390a35050565b5f73ffffffffffffffffffffffffffffffffffffffff82169050919050565b5f62000279826200024e565b9050919050565b6200028b816200026d565b82525050565b5f602082019050620002a65f83018462000280565b92915050565b61309680620002ba5f395ff3fe608060405234801561000f575f80fd5b5060043610610156575f3560e01c806380396811116100c15780639f8c6bcd1161007a5780639f8c6bcd1461039a578063b14e52e8146103b6578063d303e7b2146103e6578063ec29f4e914610404578063ef947afc14610434578063f2fde38b1461045057610156565b806380396811146102c65780638bdf5803146102f65780638da5cb5b146103265780639452185f1461034457806396240b68146103745780639e39b8061461039057610156565b80634bf29b97116101135780634bf29b971461021c5780635ae0e95214610238578063715018a614610268578063718da67d1461027257806372316ef31461028e578063793a298e146102aa57610156565b8063091c42cc1461015a5780630c056a311461017857806319e9ee75146101965780631d9ff429146101b25780634233d880146101d05780634867080e146101ec575b5f80fd5b61016261046c565b60405161016f919061244f565b60405180910390f35b6101806104ff565b60405161018d9190612521565b60405180910390f35b6101b060048036038101906101ab919061259c565b61060d565b005b6101ba61061f565b6040516101c791906125e9565b60405180910390f35b6101ea60048036038101906101e59190612602565b610663565b005b61020660048036038101906102019190612666565b610676565b60405161021391906127b3565b60405180910390f35b6102366004803603810190610231919061259c565b61074d565b005b610252600480360381019061024d9190612666565b61075f565b60405161025f91906127e7565b60405180910390f35b610270610966565b005b61028c6004803603810190610287919061284d565b610979565b005b6102a860048036038101906102a3919061259c565b610bf5565b005b6102c460048036038101906102bf9190612602565b610c07565b005b6102e060048036038101906102db9190612666565b610c1b565b6040516102ed91906129d4565b60405180910390f35b610310600480360381019061030b919061259c565b610c31565b60405161031d91906129d4565b60405180910390f35b61032e610c47565b60405161033b9190612a03565b60405180910390f35b61035e60048036038101906103599190612666565b610c6e565b60405161036b91906125e9565b60405180910390f35b61038e6004803603810190610389919061259c565b610cb4565b005b610398610cc6565b005b6103b460048036038101906103af919061259c565b610f7e565b005b6103d060048036038101906103cb9190612666565b610f90565b6040516103dd91906125e9565b60405180910390f35b6103ee610fd9565b6040516103fb9190612b04565b60405180910390f35b61041e60048036038101906104199190612b24565b61109d565b60405161042b91906129d4565b60405180910390f35b61044e60048036038101906104499190612666565b611377565b005b61046a60048036038101906104659190612666565b611436565b005b60606104766114ba565b60028054806020026020016040519081016040528092919081815260200182805480156104f557602002820191905f5260205f20905b815f9054906101000a900473ffffffffffffffffffffffffffffffffffffffff1673ffffffffffffffffffffffffffffffffffffffff16815260200190600101908083116104ac575b5050505050905090565b6105076122c2565b61050f6114ba565b60405180610100016040528060035f9054906101000a900461ffff1661ffff1661ffff168152602001600360029054906101000a900461ffff1661ffff1661ffff168152602001600360049054906101000a900461ffff1661ffff1661ffff168152602001600360069054906101000a900461ffff1661ffff1661ffff168152602001600360089054906101000a900461ffff1661ffff1661ffff1681526020016003600a9054906101000a900461ffff1661ffff1661ffff1681526020016003600c9054906101000a900461ffff1661ffff1661ffff1681526020016003600e9054906101000a900461ffff1661ffff1661ffff16815250905090565b61061b828260075f80611541565b5050565b5f60075f3373ffffffffffffffffffffffffffffffffffffffff1673ffffffffffffffffffffffffffffffffffffffff1681526020019081526020015f2054905090565b61067084845f8585611541565b50505050565b61067e6122e5565b60055f8373ffffffffffffffffffffffffffffffffffffffff1673ffffffffffffffffffffffffffffffffffffffff1681526020019081526020015f20604051806101000160405290815f8201548152602001600182015f9054906101000a900460ff1660078111156106f4576106f36126a0565b5b6007811115610706576107056126a0565b5b815260200160028201548152602001600382015481526020016004820154815260200160058201548152602001600682015481526020016007820154815250509050919050565b61075b828260045f80611541565b5050565b5f8062015180426107709190612bce565b90505f8060045f8673ffffffffffffffffffffffffffffffffffffffff1673ffffffffffffffffffffffffffffffffffffffff1681526020019081526020015f20805480602002602001604051908101604052809291908181526020015f905b82821015610880578382905f5260205f209060080201604051806101000160405290815f8201548152602001600182015f9054906101000a900460ff16600781111561081f5761081e6126a0565b5b6007811115610831576108306126a0565b5b81526020016002820154815260200160038201548152602001600482015481526020016005820154815260200160068201548152602001600782015481525050815260200190600101906107d0565b5050505090505f815190505f8190505b5f8111156109585762015180836001836108aa9190612bfe565b815181106108bb576108ba612c31565b5b60200260200101515f01516108d09190612bce565b935084840361094257600560078111156108ed576108ec6126a0565b5b836001836108fb9190612bfe565b8151811061090c5761090b612c31565b5b602002602001015160200151600781111561092a576109296126a0565b5b0361093d57600195505050505050610961565b610947565b610958565b8061095190612c5e565b9050610890565b505f9450505050505b919050565b61096e6114ba565b6109775f6119f5565b565b6109816114ba565b5f6007811115610994576109936126a0565b5b8260078111156109a7576109a66126a0565b5b036109cd578060035f6101000a81548161ffff021916908361ffff160217905550610bf1565b600160078111156109e1576109e06126a0565b5b8260078111156109f4576109f36126a0565b5b03610a1b5780600360026101000a81548161ffff021916908361ffff160217905550610bf0565b60026007811115610a2f57610a2e6126a0565b5b826007811115610a4257610a416126a0565b5b03610a695780600360046101000a81548161ffff021916908361ffff160217905550610bef565b60036007811115610a7d57610a7c6126a0565b5b826007811115610a9057610a8f6126a0565b5b03610ab75780600360066101000a81548161ffff021916908361ffff160217905550610bee565b60046007811115610acb57610aca6126a0565b5b826007811115610ade57610add6126a0565b5b03610b055780600360086101000a81548161ffff021916908361ffff160217905550610bed565b60056007811115610b1957610b186126a0565b5b826007811115610b2c57610b2b6126a0565b5b03610b5357806003600a6101000a81548161ffff021916908361ffff160217905550610bec565b60066007811115610b6757610b666126a0565b5b826007811115610b7a57610b796126a0565b5b03610ba157806003600c6101000a81548161ffff021916908361ffff160217905550610beb565b600780811115610bb457610bb36126a0565b5b826007811115610bc757610bc66126a0565b5b03610bea57806003600e6101000a81548161ffff021916908361ffff1602179055505b5b5b5b5b5b5b5b5050565b610c03828260065f80611541565b5050565b610c15848460018585611541565b50505050565b6060610c2a826001606461109d565b9050919050565b6060610c3f8383606461109d565b905092915050565b5f805f9054906101000a900473ffffffffffffffffffffffffffffffffffffffff16905090565b5f60075f8373ffffffffffffffffffffffffffffffffffffffff1673ffffffffffffffffffffffffffffffffffffffff1681526020019081526020015f20549050919050565b610cc2828260025f80611541565b5050565b5f339050610cd38161075f565b15610d13576040517f08c379a0000000000000000000000000000000000000000000000000000000008152600401610d0a90612cdf565b60405180910390fd5b5f4290505f610d228383611ab6565b90505f6012600a610d339190612e38565b6003600a9054906101000a900461ffff1661ffff16610d529190612e82565b90505f610d6784845f01518560600151611bf2565b90505f81838560e00151610d7b9190612ec3565b610d859190612ec3565b90505f60405180610100016040528042815260200160056007811115610dae57610dad6126a0565b5b81526020015f8152602001866060015181526020018660800151815260200185815260200184815260200183815250905060045f8873ffffffffffffffffffffffffffffffffffffffff1673ffffffffffffffffffffffffffffffffffffffff1681526020019081526020015f2081908060018154018082558091505060019003905f5260205f2090600802015f909190919091505f820151815f01556020820151816001015f6101000a81548160ff02191690836007811115610e7557610e746126a0565b5b021790555060408201518160020155606082015181600301556080820151816004015560a0820151816005015560c0820151816006015560e0820151816007015550508060055f8973ffffffffffffffffffffffffffffffffffffffff1673ffffffffffffffffffffffffffffffffffffffff1681526020019081526020015f205f820151815f01556020820151816001015f6101000a81548160ff02191690836007811115610f2857610f276126a0565b5b021790555060408201518160020155606082015181600301556080820151816004015560a0820151816005015560c0820151816006015560e08201518160070155905050610f7587611c21565b50505050505050565b610f8c828260035f80611541565b5050565b5f60045f8373ffffffffffffffffffffffffffffffffffffffff1673ffffffffffffffffffffffffffffffffffffffff1681526020019081526020015f20805490509050919050565b60606006805480602002602001604051908101604052809291908181526020015f905b82821015611094578382905f5260205f2090600302016040518060600160405290815f82015f9054906101000a900473ffffffffffffffffffffffffffffffffffffffff1673ffffffffffffffffffffffffffffffffffffffff1673ffffffffffffffffffffffffffffffffffffffff1681526020016001820154815260200160028201548152505081526020019060010190610ffc565b50505050905090565b60605f60045f8673ffffffffffffffffffffffffffffffffffffffff1673ffffffffffffffffffffffffffffffffffffffff1681526020019081526020015f20805480602002602001604051908101604052809291908181526020015f905b828210156111ac578382905f5260205f209060080201604051806101000160405290815f8201548152602001600182015f9054906101000a900460ff16600781111561114b5761114a6126a0565b5b600781111561115d5761115c6126a0565b5b81526020016002820154815260200160038201548152602001600482015481526020016005820154815260200160068201548152602001600782015481525050815260200190600101906110fc565b5050505090505f815190505f81116111f9576040517f08c379a00000000000000000000000000000000000000000000000000000000081526004016111f090612f40565b60405180910390fd5b6001856112069190612bfe565b846112119190612e82565b8111611252576040517f08c379a000000000000000000000000000000000000000000000000000000000815260040161124990612fce565b60405180910390fd5b5f806001876112619190612bfe565b8661126c9190612e82565b836112779190612bfe565b9150858211611288575f9050611297565b85826112949190612bfe565b90505b5f81836112a49190612bfe565b67ffffffffffffffff8111156112bd576112bc612fec565b5b6040519080825280602002602001820160405280156112f657816020015b6112e36122e5565b8152602001906001900390816112db5790505b5090505f8390505b8281111561136757856001826113149190612bfe565b8151811061132557611324612c31565b5b602002602001015182828661133a9190612bfe565b8151811061134b5761134a612c31565b5b60200260200101819052508061136090612c5e565b90506112fe565b5080955050505050509392505050565b61137f6114ba565b6001805f8373ffffffffffffffffffffffffffffffffffffffff1673ffffffffffffffffffffffffffffffffffffffff1681526020019081526020015f205f6101000a81548160ff021916908315150217905550600281908060018154018082558091505060019003905f5260205f20015f9091909190916101000a81548173ffffffffffffffffffffffffffffffffffffffff021916908373ffffffffffffffffffffffffffffffffffffffff16021790555050565b61143e6114ba565b5f73ffffffffffffffffffffffffffffffffffffffff168173ffffffffffffffffffffffffffffffffffffffff16036114ae575f6040517f1e4fbdf70000000000000000000000000000000000000000000000000000000081526004016114a59190612a03565b60405180910390fd5b6114b7816119f5565b50565b6114c26122bb565b73ffffffffffffffffffffffffffffffffffffffff166114e0610c47565b73ffffffffffffffffffffffffffffffffffffffff161461153f576115036122bb565b6040517f118cdaa70000000000000000000000000000000000000000000000000000000081526004016115369190612a03565b60405180910390fd5b565b5f61154c8686611ab6565b90505f816080015190505f80600781111561156a576115696126a0565b5b86600781111561157d5761157c6126a0565b5b036115b55760035f9054906101000a900461ffff1661ffff16611388866115a49190612bce565b6115ae9190612e82565b90506117d0565b6012600a6115c39190612e38565b9050600160078111156115d9576115d86126a0565b5b8660078111156115ec576115eb6126a0565b5b0361161857600360029054906101000a900461ffff1661ffff16816116119190612e82565b90506117cf565b5f94508260600151935060026007811115611636576116356126a0565b5b866007811115611649576116486126a0565b5b0361168357600360049054906101000a900461ffff1661ffff168161166e9190612e82565b9050818061167b90613019565b9250506117ce565b60036007811115611697576116966126a0565b5b8660078111156116aa576116a96126a0565b5b036116d657600360069054906101000a900461ffff1661ffff16816116cf9190612e82565b90506117cd565b600460078111156116ea576116e96126a0565b5b8660078111156116fd576116fc6126a0565b5b0361172957600360089054906101000a900461ffff1661ffff16816117229190612e82565b90506117cc565b6006600781111561173d5761173c6126a0565b5b8660078111156117505761174f6126a0565b5b0361177c576003600c9054906101000a900461ffff1661ffff16816117759190612e82565b90506117cb565b60078081111561178f5761178e6126a0565b5b8660078111156117a2576117a16126a0565b5b036117ca576003600e9054906101000a900461ffff1661ffff16816117c79190612e82565b90505b5b5b5b5b5b5b5f6117e388855f01518660600151611bf2565b90505f81838660e001516117f79190612ec3565b6118019190612ec3565b90505f6040518061010001604052808b81526020018a6007811115611829576118286126a0565b5b815260200189815260200188815260200186815260200185815260200184815260200183815250905060045f8c73ffffffffffffffffffffffffffffffffffffffff1673ffffffffffffffffffffffffffffffffffffffff1681526020019081526020015f2081908060018154018082558091505060019003905f5260205f2090600802015f909190919091505f820151815f01556020820151816001015f6101000a81548160ff021916908360078111156118e8576118e76126a0565b5b021790555060408201518160020155606082015181600301556080820151816004015560a0820151816005015560c0820151816006015560e0820151816007015550508060055f8d73ffffffffffffffffffffffffffffffffffffffff1673ffffffffffffffffffffffffffffffffffffffff1681526020019081526020015f205f820151815f01556020820151816001015f6101000a81548160ff0219169083600781111561199b5761199a6126a0565b5b021790555060408201518160020155606082015181600301556080820151816004015560a0820151816005015560c0820151816006015560e082015181600701559050506119e88b611c21565b5050505050505050505050565b5f805f9054906101000a900473ffffffffffffffffffffffffffffffffffffffff169050815f806101000a81548173ffffffffffffffffffffffffffffffffffffffff021916908373ffffffffffffffffffffffffffffffffffffffff1602179055508173ffffffffffffffffffffffffffffffffffffffff168173ffffffffffffffffffffffffffffffffffffffff167f8be0079c531659141344cd1fd0a4f28419497f9722a3daafe3b4186f6b6457e060405160405180910390a35050565b611abe6122e5565b5f60055f8573ffffffffffffffffffffffffffffffffffffffff1673ffffffffffffffffffffffffffffffffffffffff1681526020019081526020015f20604051806101000160405290815f8201548152602001600182015f9054906101000a900460ff166007811115611b3557611b346126a0565b5b6007811115611b4757611b466126a0565b5b8152602001600282015481526020016003820154815260200160048201548152602001600582015481526020016006820154815260200160078201548152505090505f815f015114611b9c5780915050611bec565b6040518061010001604052808481526020015f6007811115611bc157611bc06126a0565b5b81526020015f81526020015f81526020015f81526020015f81526020015f81526020015f8152509150505b92915050565b5f621e8480828486611c049190612bfe565b611c0e9190612e82565b611c189190612bce565b90509392505050565b5f60055f8373ffffffffffffffffffffffffffffffffffffffff1673ffffffffffffffffffffffffffffffffffffffff1681526020019081526020015f20604051806101000160405290815f8201548152602001600182015f9054906101000a900460ff166007811115611c9857611c976126a0565b5b6007811115611caa57611ca96126a0565b5b815260200160028201548152602001600382015481526020016004820154815260200160058201548152602001600682015481526020016007820154815250509050611cf4612334565b5f60075f8573ffffffffffffffffffffffffffffffffffffffff1673ffffffffffffffffffffffffffffffffffffffff1681526020019081526020015f205490505f8103611e655760c86006805490501015611e58576001600680549050611d5c9190612ec3565b60075f8673ffffffffffffffffffffffffffffffffffffffff1673ffffffffffffffffffffffffffffffffffffffff1681526020019081526020015f2081905550600660405180606001604052808673ffffffffffffffffffffffffffffffffffffffff168152602001855f015181526020018560e00151815250908060018154018082558091505060019003905f5260205f2090600302015f909190919091505f820151815f015f6101000a81548173ffffffffffffffffffffffffffffffffffffffff021916908373ffffffffffffffffffffffffffffffffffffffff160217905550602082015181600101556040820151816002015550505b6006805490509050611f25565b60405180606001604052808573ffffffffffffffffffffffffffffffffffffffff168152602001845f015181526020018460e001518152506006600183611eac9190612bfe565b81548110611ebd57611ebc612c31565b5b905f5260205f2090600302015f820151815f015f6101000a81548173ffffffffffffffffffffffffffffffffffffffff021916908373ffffffffffffffffffffffffffffffffffffffff16021790555060208201518160010155604082015181600201559050505b5f600182611f339190612bfe565b90505b5f8111156122b45760068181548110611f5257611f51612c31565b5b905f5260205f209060030201600201546006600183611f719190612bfe565b81548110611f8257611f81612c31565b5b905f5260205f20906003020160020154101561229e5760068181548110611fac57611fab612c31565b5b905f5260205f2090600302016040518060600160405290815f82015f9054906101000a900473ffffffffffffffffffffffffffffffffffffffff1673ffffffffffffffffffffffffffffffffffffffff1673ffffffffffffffffffffffffffffffffffffffff168152602001600182015481526020016002820154815250509250600660018261203c9190612bfe565b8154811061204d5761204c612c31565b5b905f5260205f2090600302016006828154811061206d5761206c612c31565b5b905f5260205f2090600302015f82015f9054906101000a900473ffffffffffffffffffffffffffffffffffffffff16815f015f6101000a81548173ffffffffffffffffffffffffffffffffffffffff021916908373ffffffffffffffffffffffffffffffffffffffff16021790555060018201548160010155600282015481600201559050508260066001836121039190612bfe565b8154811061211457612113612c31565b5b905f5260205f2090600302015f820151815f015f6101000a81548173ffffffffffffffffffffffffffffffffffffffff021916908373ffffffffffffffffffffffffffffffffffffffff16021790555060208201518160010155604082015181600201559050508060075f600660018561218e9190612bfe565b8154811061219f5761219e612c31565b5b905f5260205f2090600302015f015f9054906101000a900473ffffffffffffffffffffffffffffffffffffffff1673ffffffffffffffffffffffffffffffffffffffff1673ffffffffffffffffffffffffffffffffffffffff1681526020019081526020015f20819055506001816122179190612ec3565b60075f6006848154811061222e5761222d612c31565b5b905f5260205f2090600302015f015f9054906101000a900473ffffffffffffffffffffffffffffffffffffffff1673ffffffffffffffffffffffffffffffffffffffff1673ffffffffffffffffffffffffffffffffffffffff1681526020019081526020015f20819055506122a3565b6122b4565b806122ad90612c5e565b9050611f36565b5050505050565b5f33905090565b604051806101000160405280600890602082028036833780820191505090505090565b6040518061010001604052805f81526020015f600781111561230a576123096126a0565b5b81526020015f81526020015f81526020015f81526020015f81526020015f81526020015f81525090565b60405180606001604052805f73ffffffffffffffffffffffffffffffffffffffff1681526020015f81526020015f81525090565b5f81519050919050565b5f82825260208201905092915050565b5f819050602082019050919050565b5f73ffffffffffffffffffffffffffffffffffffffff82169050919050565b5f6123ba82612391565b9050919050565b6123ca816123b0565b82525050565b5f6123db83836123c1565b60208301905092915050565b5f602082019050919050565b5f6123fd82612368565b6124078185612372565b935061241283612382565b805f5b8381101561244257815161242988826123d0565b9750612434836123e7565b925050600181019050612415565b5085935050505092915050565b5f6020820190508181035f83015261246781846123f3565b905092915050565b5f60089050919050565b5f81905092915050565b5f819050919050565b5f61ffff82169050919050565b6124a28161248c565b82525050565b5f6124b38383612499565b60208301905092915050565b5f602082019050919050565b6124d48161246f565b6124de8184612479565b92506124e982612483565b805f5b8381101561251957815161250087826124a8565b965061250b836124bf565b9250506001810190506124ec565b505050505050565b5f610100820190506125355f8301846124cb565b92915050565b5f80fd5b612548816123b0565b8114612552575f80fd5b50565b5f813590506125638161253f565b92915050565b5f819050919050565b61257b81612569565b8114612585575f80fd5b50565b5f8135905061259681612572565b92915050565b5f80604083850312156125b2576125b161253b565b5b5f6125bf85828601612555565b92505060206125d085828601612588565b9150509250929050565b6125e381612569565b82525050565b5f6020820190506125fc5f8301846125da565b92915050565b5f805f806080858703121561261a5761261961253b565b5b5f61262787828801612555565b945050602061263887828801612588565b935050604061264987828801612588565b925050606061265a87828801612588565b91505092959194509250565b5f6020828403121561267b5761267a61253b565b5b5f61268884828501612555565b91505092915050565b61269a81612569565b82525050565b7f4e487b71000000000000000000000000000000000000000000000000000000005f52602160045260245ffd5b600881106126de576126dd6126a0565b5b50565b5f8190506126ee826126cd565b919050565b5f6126fd826126e1565b9050919050565b61270d816126f3565b82525050565b61010082015f8201516127285f850182612691565b50602082015161273b6020850182612704565b50604082015161274e6040850182612691565b5060608201516127616060850182612691565b5060808201516127746080850182612691565b5060a082015161278760a0850182612691565b5060c082015161279a60c0850182612691565b5060e08201516127ad60e0850182612691565b50505050565b5f610100820190506127c75f830184612713565b92915050565b5f8115159050919050565b6127e1816127cd565b82525050565b5f6020820190506127fa5f8301846127d8565b92915050565b6008811061280c575f80fd5b50565b5f8135905061281d81612800565b92915050565b61282c8161248c565b8114612836575f80fd5b50565b5f8135905061284781612823565b92915050565b5f80604083850312156128635761286261253b565b5b5f6128708582860161280f565b925050602061288185828601612839565b9150509250929050565b5f81519050919050565b5f82825260208201905092915050565b5f819050602082019050919050565b61010082015f8201516128c95f850182612691565b5060208201516128dc6020850182612704565b5060408201516128ef6040850182612691565b5060608201516129026060850182612691565b5060808201516129156080850182612691565b5060a082015161292860a0850182612691565b5060c082015161293b60c0850182612691565b5060e082015161294e60e0850182612691565b50505050565b5f61295f83836128b4565b6101008301905092915050565b5f602082019050919050565b5f6129828261288b565b61298c8185612895565b9350612997836128a5565b805f5b838110156129c75781516129ae8882612954565b97506129b98361296c565b92505060018101905061299a565b5085935050505092915050565b5f6020820190508181035f8301526129ec8184612978565b905092915050565b6129fd816123b0565b82525050565b5f602082019050612a165f8301846129f4565b92915050565b5f81519050919050565b5f82825260208201905092915050565b5f819050602082019050919050565b606082015f820151612a595f8501826123c1565b506020820151612a6c6020850182612691565b506040820151612a7f6040850182612691565b50505050565b5f612a908383612a45565b60608301905092915050565b5f602082019050919050565b5f612ab282612a1c565b612abc8185612a26565b9350612ac783612a36565b805f5b83811015612af7578151612ade8882612a85565b9750612ae983612a9c565b925050600181019050612aca565b5085935050505092915050565b5f6020820190508181035f830152612b1c8184612aa8565b905092915050565b5f805f60608486031215612b3b57612b3a61253b565b5b5f612b4886828701612555565b9350506020612b5986828701612588565b9250506040612b6a86828701612588565b9150509250925092565b7f4e487b71000000000000000000000000000000000000000000000000000000005f52601260045260245ffd5b7f4e487b71000000000000000000000000000000000000000000000000000000005f52601160045260245ffd5b5f612bd882612569565b9150612be383612569565b925082612bf357612bf2612b74565b5b828204905092915050565b5f612c0882612569565b9150612c1383612569565b9250828203905081811115612c2b57612c2a612ba1565b5b92915050565b7f4e487b71000000000000000000000000000000000000000000000000000000005f52603260045260245ffd5b5f612c6882612569565b91505f8203612c7a57612c79612ba1565b5b600182039050919050565b5f82825260208201905092915050565b7f416c726561647920436865636b65642d696e00000000000000000000000000005f82015250565b5f612cc9601283612c85565b9150612cd482612c95565b602082019050919050565b5f6020820190508181035f830152612cf681612cbd565b9050919050565b5f8160011c9050919050565b5f808291508390505b6001851115612d5257808604811115612d2e57612d2d612ba1565b5b6001851615612d3d5780820291505b8081029050612d4b85612cfd565b9450612d12565b94509492505050565b5f82612d6a5760019050612e25565b81612d77575f9050612e25565b8160018114612d8d5760028114612d9757612dc6565b6001915050612e25565b60ff841115612da957612da8612ba1565b5b8360020a915084821115612dc057612dbf612ba1565b5b50612e25565b5060208310610133831016604e8410600b8410161715612dfb5782820a905083811115612df657612df5612ba1565b5b612e25565b612e088484846001612d09565b92509050818404811115612e1f57612e1e612ba1565b5b81810290505b9392505050565b5f60ff82169050919050565b5f612e4282612569565b9150612e4d83612e2c565b9250612e7a7fffffffffffffffffffffffffffffffffffffffffffffffffffffffffffffffff8484612d5b565b905092915050565b5f612e8c82612569565b9150612e9783612569565b9250828202612ea581612569565b91508282048414831517612ebc57612ebb612ba1565b5b5092915050565b5f612ecd82612569565b9150612ed883612569565b9250828201905080821115612ef057612eef612ba1565b5b92915050565b7f4e4f5f44415441000000000000000000000000000000000000000000000000005f82015250565b5f612f2a600783612c85565b9150612f3582612ef6565b602082019050919050565b5f6020820190508181035f830152612f5781612f1e565b9050919050565b7f494e56414c49445f50414745203a206e6f204461746120696e207468697320705f8201527f6167650000000000000000000000000000000000000000000000000000000000602082015250565b5f612fb8602383612c85565b9150612fc382612f5e565b604082019050919050565b5f6020820190508181035f830152612fe581612fac565b9050919050565b7f4e487b71000000000000000000000000000000000000000000000000000000005f52604160045260245ffd5b5f61302382612569565b91507fffffffffffffffffffffffffffffffffffffffffffffffffffffffffffffffff820361305557613054612ba1565b5b60018201905091905056fea2646970667358221220b56f3acc20fcdd5f864ef8bda7515055bf98b3b786d89d32fe6fdd937f0107e364736f6c63430008180033",
			"opcodes": "PUSH1 0x80 PUSH1 0x40 MSTORE CALLVALUE DUP1 ISZERO PUSH3 0x10 JUMPI PUSH0 DUP1 REVERT JUMPDEST POP CALLER PUSH0 PUSH20 0xFFFFFFFFFFFFFFFFFFFFFFFFFFFFFFFFFFFFFFFF AND DUP2 PUSH20 0xFFFFFFFFFFFFFFFFFFFFFFFFFFFFFFFFFFFFFFFF AND SUB PUSH3 0x85 JUMPI PUSH0 PUSH1 0x40 MLOAD PUSH32 0x1E4FBDF700000000000000000000000000000000000000000000000000000000 DUP2 MSTORE PUSH1 0x4 ADD PUSH3 0x7C SWAP2 SWAP1 PUSH3 0x291 JUMP JUMPDEST PUSH1 0x40 MLOAD DUP1 SWAP2 SUB SWAP1 REVERT JUMPDEST PUSH3 0x96 DUP2 PUSH3 0x18D PUSH1 0x20 SHL PUSH1 0x20 SHR JUMP JUMPDEST POP PUSH1 0x64 PUSH1 0x3 PUSH0 PUSH2 0x100 EXP DUP2 SLOAD DUP2 PUSH2 0xFFFF MUL NOT AND SWAP1 DUP4 PUSH2 0xFFFF AND MUL OR SWAP1 SSTORE POP PUSH1 0x14 PUSH1 0x3 PUSH1 0x2 PUSH2 0x100 EXP DUP2 SLOAD DUP2 PUSH2 0xFFFF MUL NOT AND SWAP1 DUP4 PUSH2 0xFFFF AND MUL OR SWAP1 SSTORE POP PUSH1 0xFA PUSH1 0x3 PUSH1 0x4 PUSH2 0x100 EXP DUP2 SLOAD DUP2 PUSH2 0xFFFF MUL NOT AND SWAP1 DUP4 PUSH2 0xFFFF AND MUL OR SWAP1 SSTORE POP PUSH2 0x1F4 PUSH1 0x3 PUSH1 0x6 PUSH2 0x100 EXP DUP2 SLOAD DUP2 PUSH2 0xFFFF MUL NOT AND SWAP1 DUP4 PUSH2 0xFFFF AND MUL OR SWAP1 SSTORE POP PUSH1 0x32 PUSH1 0x3 PUSH1 0x8 PUSH2 0x100 EXP DUP2 SLOAD DUP2 PUSH2 0xFFFF MUL NOT AND SWAP1 DUP4 PUSH2 0xFFFF AND MUL OR SWAP1 SSTORE POP PUSH1 0x14 PUSH1 0x3 PUSH1 0xA PUSH2 0x100 EXP DUP2 SLOAD DUP2 PUSH2 0xFFFF MUL NOT AND SWAP1 DUP4 PUSH2 0xFFFF AND MUL OR SWAP1 SSTORE POP PUSH1 0x64 PUSH1 0x3 PUSH1 0xC PUSH2 0x100 EXP DUP2 SLOAD DUP2 PUSH2 0xFFFF MUL NOT AND SWAP1 DUP4 PUSH2 0xFFFF AND MUL OR SWAP1 SSTORE POP PUSH1 0xC8 PUSH1 0x3 PUSH1 0xE PUSH2 0x100 EXP DUP2 SLOAD DUP2 PUSH2 0xFFFF MUL NOT AND SWAP1 DUP4 PUSH2 0xFFFF AND MUL OR SWAP1 SSTORE POP PUSH3 0x2AC JUMP JUMPDEST PUSH0 DUP1 PUSH0 SWAP1 SLOAD SWAP1 PUSH2 0x100 EXP SWAP1 DIV PUSH20 0xFFFFFFFFFFFFFFFFFFFFFFFFFFFFFFFFFFFFFFFF AND SWAP1 POP DUP2 PUSH0 DUP1 PUSH2 0x100 EXP DUP2 SLOAD DUP2 PUSH20 0xFFFFFFFFFFFFFFFFFFFFFFFFFFFFFFFFFFFFFFFF MUL NOT AND SWAP1 DUP4 PUSH20 0xFFFFFFFFFFFFFFFFFFFFFFFFFFFFFFFFFFFFFFFF AND MUL OR SWAP1 SSTORE POP DUP2 PUSH20 0xFFFFFFFFFFFFFFFFFFFFFFFFFFFFFFFFFFFFFFFF AND DUP2 PUSH20 0xFFFFFFFFFFFFFFFFFFFFFFFFFFFFFFFFFFFFFFFF AND PUSH32 0x8BE0079C531659141344CD1FD0A4F28419497F9722A3DAAFE3B4186F6B6457E0 PUSH1 0x40 MLOAD PUSH1 0x40 MLOAD DUP1 SWAP2 SUB SWAP1 LOG3 POP POP JUMP JUMPDEST PUSH0 PUSH20 0xFFFFFFFFFFFFFFFFFFFFFFFFFFFFFFFFFFFFFFFF DUP3 AND SWAP1 POP SWAP2 SWAP1 POP JUMP JUMPDEST PUSH0 PUSH3 0x279 DUP3 PUSH3 0x24E JUMP JUMPDEST SWAP1 POP SWAP2 SWAP1 POP JUMP JUMPDEST PUSH3 0x28B DUP2 PUSH3 0x26D JUMP JUMPDEST DUP3 MSTORE POP POP JUMP JUMPDEST PUSH0 PUSH1 0x20 DUP3 ADD SWAP1 POP PUSH3 0x2A6 PUSH0 DUP4 ADD DUP5 PUSH3 0x280 JUMP JUMPDEST SWAP3 SWAP2 POP POP JUMP JUMPDEST PUSH2 0x3096 DUP1 PUSH3 0x2BA PUSH0 CODECOPY PUSH0 RETURN INVALID PUSH1 0x80 PUSH1 0x40 MSTORE CALLVALUE DUP1 ISZERO PUSH2 0xF JUMPI PUSH0 DUP1 REVERT JUMPDEST POP PUSH1 0x4 CALLDATASIZE LT PUSH2 0x156 JUMPI PUSH0 CALLDATALOAD PUSH1 0xE0 SHR DUP1 PUSH4 0x80396811 GT PUSH2 0xC1 JUMPI DUP1 PUSH4 0x9F8C6BCD GT PUSH2 0x7A JUMPI DUP1 PUSH4 0x9F8C6BCD EQ PUSH2 0x39A JUMPI DUP1 PUSH4 0xB14E52E8 EQ PUSH2 0x3B6 JUMPI DUP1 PUSH4 0xD303E7B2 EQ PUSH2 0x3E6 JUMPI DUP1 PUSH4 0xEC29F4E9 EQ PUSH2 0x404 JUMPI DUP1 PUSH4 0xEF947AFC EQ PUSH2 0x434 JUMPI DUP1 PUSH4 0xF2FDE38B EQ PUSH2 0x450 JUMPI PUSH2 0x156 JUMP JUMPDEST DUP1 PUSH4 0x80396811 EQ PUSH2 0x2C6 JUMPI DUP1 PUSH4 0x8BDF5803 EQ PUSH2 0x2F6 JUMPI DUP1 PUSH4 0x8DA5CB5B EQ PUSH2 0x326 JUMPI DUP1 PUSH4 0x9452185F EQ PUSH2 0x344 JUMPI DUP1 PUSH4 0x96240B68 EQ PUSH2 0x374 JUMPI DUP1 PUSH4 0x9E39B806 EQ PUSH2 0x390 JUMPI PUSH2 0x156 JUMP JUMPDEST DUP1 PUSH4 0x4BF29B97 GT PUSH2 0x113 JUMPI DUP1 PUSH4 0x4BF29B97 EQ PUSH2 0x21C JUMPI DUP1 PUSH4 0x5AE0E952 EQ PUSH2 0x238 JUMPI DUP1 PUSH4 0x715018A6 EQ PUSH2 0x268 JUMPI DUP1 PUSH4 0x718DA67D EQ PUSH2 0x272 JUMPI DUP1 PUSH4 0x72316EF3 EQ PUSH2 0x28E JUMPI DUP1 PUSH4 0x793A298E EQ PUSH2 0x2AA JUMPI PUSH2 0x156 JUMP JUMPDEST DUP1 PUSH4 0x91C42CC EQ PUSH2 0x15A JUMPI DUP1 PUSH4 0xC056A31 EQ PUSH2 0x178 JUMPI DUP1 PUSH4 0x19E9EE75 EQ PUSH2 0x196 JUMPI DUP1 PUSH4 0x1D9FF429 EQ PUSH2 0x1B2 JUMPI DUP1 PUSH4 0x4233D880 EQ PUSH2 0x1D0 JUMPI DUP1 PUSH4 0x4867080E EQ PUSH2 0x1EC JUMPI JUMPDEST PUSH0 DUP1 REVERT JUMPDEST PUSH2 0x162 PUSH2 0x46C JUMP JUMPDEST PUSH1 0x40 MLOAD PUSH2 0x16F SWAP2 SWAP1 PUSH2 0x244F JUMP JUMPDEST PUSH1 0x40 MLOAD DUP1 SWAP2 SUB SWAP1 RETURN JUMPDEST PUSH2 0x180 PUSH2 0x4FF JUMP JUMPDEST PUSH1 0x40 MLOAD PUSH2 0x18D SWAP2 SWAP1 PUSH2 0x2521 JUMP JUMPDEST PUSH1 0x40 MLOAD DUP1 SWAP2 SUB SWAP1 RETURN JUMPDEST PUSH2 0x1B0 PUSH1 0x4 DUP1 CALLDATASIZE SUB DUP2 ADD SWAP1 PUSH2 0x1AB SWAP2 SWAP1 PUSH2 0x259C JUMP JUMPDEST PUSH2 0x60D JUMP JUMPDEST STOP JUMPDEST PUSH2 0x1BA PUSH2 0x61F JUMP JUMPDEST PUSH1 0x40 MLOAD PUSH2 0x1C7 SWAP2 SWAP1 PUSH2 0x25E9 JUMP JUMPDEST PUSH1 0x40 MLOAD DUP1 SWAP2 SUB SWAP1 RETURN JUMPDEST PUSH2 0x1EA PUSH1 0x4 DUP1 CALLDATASIZE SUB DUP2 ADD SWAP1 PUSH2 0x1E5 SWAP2 SWAP1 PUSH2 0x2602 JUMP JUMPDEST PUSH2 0x663 JUMP JUMPDEST STOP JUMPDEST PUSH2 0x206 PUSH1 0x4 DUP1 CALLDATASIZE SUB DUP2 ADD SWAP1 PUSH2 0x201 SWAP2 SWAP1 PUSH2 0x2666 JUMP JUMPDEST PUSH2 0x676 JUMP JUMPDEST PUSH1 0x40 MLOAD PUSH2 0x213 SWAP2 SWAP1 PUSH2 0x27B3 JUMP JUMPDEST PUSH1 0x40 MLOAD DUP1 SWAP2 SUB SWAP1 RETURN JUMPDEST PUSH2 0x236 PUSH1 0x4 DUP1 CALLDATASIZE SUB DUP2 ADD SWAP1 PUSH2 0x231 SWAP2 SWAP1 PUSH2 0x259C JUMP JUMPDEST PUSH2 0x74D JUMP JUMPDEST STOP JUMPDEST PUSH2 0x252 PUSH1 0x4 DUP1 CALLDATASIZE SUB DUP2 ADD SWAP1 PUSH2 0x24D SWAP2 SWAP1 PUSH2 0x2666 JUMP JUMPDEST PUSH2 0x75F JUMP JUMPDEST PUSH1 0x40 MLOAD PUSH2 0x25F SWAP2 SWAP1 PUSH2 0x27E7 JUMP JUMPDEST PUSH1 0x40 MLOAD DUP1 SWAP2 SUB SWAP1 RETURN JUMPDEST PUSH2 0x270 PUSH2 0x966 JUMP JUMPDEST STOP JUMPDEST PUSH2 0x28C PUSH1 0x4 DUP1 CALLDATASIZE SUB DUP2 ADD SWAP1 PUSH2 0x287 SWAP2 SWAP1 PUSH2 0x284D JUMP JUMPDEST PUSH2 0x979 JUMP JUMPDEST STOP JUMPDEST PUSH2 0x2A8 PUSH1 0x4 DUP1 CALLDATASIZE SUB DUP2 ADD SWAP1 PUSH2 0x2A3 SWAP2 SWAP1 PUSH2 0x259C JUMP JUMPDEST PUSH2 0xBF5 JUMP JUMPDEST STOP JUMPDEST PUSH2 0x2C4 PUSH1 0x4 DUP1 CALLDATASIZE SUB DUP2 ADD SWAP1 PUSH2 0x2BF SWAP2 SWAP1 PUSH2 0x2602 JUMP JUMPDEST PUSH2 0xC07 JUMP JUMPDEST STOP JUMPDEST PUSH2 0x2E0 PUSH1 0x4 DUP1 CALLDATASIZE SUB DUP2 ADD SWAP1 PUSH2 0x2DB SWAP2 SWAP1 PUSH2 0x2666 JUMP JUMPDEST PUSH2 0xC1B JUMP JUMPDEST PUSH1 0x40 MLOAD PUSH2 0x2ED SWAP2 SWAP1 PUSH2 0x29D4 JUMP JUMPDEST PUSH1 0x40 MLOAD DUP1 SWAP2 SUB SWAP1 RETURN JUMPDEST PUSH2 0x310 PUSH1 0x4 DUP1 CALLDATASIZE SUB DUP2 ADD SWAP1 PUSH2 0x30B SWAP2 SWAP1 PUSH2 0x259C JUMP JUMPDEST PUSH2 0xC31 JUMP JUMPDEST PUSH1 0x40 MLOAD PUSH2 0x31D SWAP2 SWAP1 PUSH2 0x29D4 JUMP JUMPDEST PUSH1 0x40 MLOAD DUP1 SWAP2 SUB SWAP1 RETURN JUMPDEST PUSH2 0x32E PUSH2 0xC47 JUMP JUMPDEST PUSH1 0x40 MLOAD PUSH2 0x33B SWAP2 SWAP1 PUSH2 0x2A03 JUMP JUMPDEST PUSH1 0x40 MLOAD DUP1 SWAP2 SUB SWAP1 RETURN JUMPDEST PUSH2 0x35E PUSH1 0x4 DUP1 CALLDATASIZE SUB DUP2 ADD SWAP1 PUSH2 0x359 SWAP2 SWAP1 PUSH2 0x2666 JUMP JUMPDEST PUSH2 0xC6E JUMP JUMPDEST PUSH1 0x40 MLOAD PUSH2 0x36B SWAP2 SWAP1 PUSH2 0x25E9 JUMP JUMPDEST PUSH1 0x40 MLOAD DUP1 SWAP2 SUB SWAP1 RETURN JUMPDEST PUSH2 0x38E PUSH1 0x4 DUP1 CALLDATASIZE SUB DUP2 ADD SWAP1 PUSH2 0x389 SWAP2 SWAP1 PUSH2 0x259C JUMP JUMPDEST PUSH2 0xCB4 JUMP JUMPDEST STOP JUMPDEST PUSH2 0x398 PUSH2 0xCC6 JUMP JUMPDEST STOP JUMPDEST PUSH2 0x3B4 PUSH1 0x4 DUP1 CALLDATASIZE SUB DUP2 ADD SWAP1 PUSH2 0x3AF SWAP2 SWAP1 PUSH2 0x259C JUMP JUMPDEST PUSH2 0xF7E JUMP JUMPDEST STOP JUMPDEST PUSH2 0x3D0 PUSH1 0x4 DUP1 CALLDATASIZE SUB DUP2 ADD SWAP1 PUSH2 0x3CB SWAP2 SWAP1 PUSH2 0x2666 JUMP JUMPDEST PUSH2 0xF90 JUMP JUMPDEST PUSH1 0x40 MLOAD PUSH2 0x3DD SWAP2 SWAP1 PUSH2 0x25E9 JUMP JUMPDEST PUSH1 0x40 MLOAD DUP1 SWAP2 SUB SWAP1 RETURN JUMPDEST PUSH2 0x3EE PUSH2 0xFD9 JUMP JUMPDEST PUSH1 0x40 MLOAD PUSH2 0x3FB SWAP2 SWAP1 PUSH2 0x2B04 JUMP JUMPDEST PUSH1 0x40 MLOAD DUP1 SWAP2 SUB SWAP1 RETURN JUMPDEST PUSH2 0x41E PUSH1 0x4 DUP1 CALLDATASIZE SUB DUP2 ADD SWAP1 PUSH2 0x419 SWAP2 SWAP1 PUSH2 0x2B24 JUMP JUMPDEST PUSH2 0x109D JUMP JUMPDEST PUSH1 0x40 MLOAD PUSH2 0x42B SWAP2 SWAP1 PUSH2 0x29D4 JUMP JUMPDEST PUSH1 0x40 MLOAD DUP1 SWAP2 SUB SWAP1 RETURN JUMPDEST PUSH2 0x44E PUSH1 0x4 DUP1 CALLDATASIZE SUB DUP2 ADD SWAP1 PUSH2 0x449 SWAP2 SWAP1 PUSH2 0x2666 JUMP JUMPDEST PUSH2 0x1377 JUMP JUMPDEST STOP JUMPDEST PUSH2 0x46A PUSH1 0x4 DUP1 CALLDATASIZE SUB DUP2 ADD SWAP1 PUSH2 0x465 SWAP2 SWAP1 PUSH2 0x2666 JUMP JUMPDEST PUSH2 0x1436 JUMP JUMPDEST STOP JUMPDEST PUSH1 0x60 PUSH2 0x476 PUSH2 0x14BA JUMP JUMPDEST PUSH1 0x2 DUP1 SLOAD DUP1 PUSH1 0x20 MUL PUSH1 0x20 ADD PUSH1 0x40 MLOAD SWAP1 DUP2 ADD PUSH1 0x40 MSTORE DUP1 SWAP3 SWAP2 SWAP1 DUP2 DUP2 MSTORE PUSH1 0x20 ADD DUP3 DUP1 SLOAD DUP1 ISZERO PUSH2 0x4F5 JUMPI PUSH1 0x20 MUL DUP3 ADD SWAP2 SWAP1 PUSH0 MSTORE PUSH1 0x20 PUSH0 KECCAK256 SWAP1 JUMPDEST DUP2 PUSH0 SWAP1 SLOAD SWAP1 PUSH2 0x100 EXP SWAP1 DIV PUSH20 0xFFFFFFFFFFFFFFFFFFFFFFFFFFFFFFFFFFFFFFFF AND PUSH20 0xFFFFFFFFFFFFFFFFFFFFFFFFFFFFFFFFFFFFFFFF AND DUP2 MSTORE PUSH1 0x20 ADD SWAP1 PUSH1 0x1 ADD SWAP1 DUP1 DUP4 GT PUSH2 0x4AC JUMPI JUMPDEST POP POP POP POP POP SWAP1 POP SWAP1 JUMP JUMPDEST PUSH2 0x507 PUSH2 0x22C2 JUMP JUMPDEST PUSH2 0x50F PUSH2 0x14BA JUMP JUMPDEST PUSH1 0x40 MLOAD DUP1 PUSH2 0x100 ADD PUSH1 0x40 MSTORE DUP1 PUSH1 0x3 PUSH0 SWAP1 SLOAD SWAP1 PUSH2 0x100 EXP SWAP1 DIV PUSH2 0xFFFF AND PUSH2 0xFFFF AND PUSH2 0xFFFF AND DUP2 MSTORE PUSH1 0x20 ADD PUSH1 0x3 PUSH1 0x2 SWAP1 SLOAD SWAP1 PUSH2 0x100 EXP SWAP1 DIV PUSH2 0xFFFF AND PUSH2 0xFFFF AND PUSH2 0xFFFF AND DUP2 MSTORE PUSH1 0x20 ADD PUSH1 0x3 PUSH1 0x4 SWAP1 SLOAD SWAP1 PUSH2 0x100 EXP SWAP1 DIV PUSH2 0xFFFF AND PUSH2 0xFFFF AND PUSH2 0xFFFF AND DUP2 MSTORE PUSH1 0x20 ADD PUSH1 0x3 PUSH1 0x6 SWAP1 SLOAD SWAP1 PUSH2 0x100 EXP SWAP1 DIV PUSH2 0xFFFF AND PUSH2 0xFFFF AND PUSH2 0xFFFF AND DUP2 MSTORE PUSH1 0x20 ADD PUSH1 0x3 PUSH1 0x8 SWAP1 SLOAD SWAP1 PUSH2 0x100 EXP SWAP1 DIV PUSH2 0xFFFF AND PUSH2 0xFFFF AND PUSH2 0xFFFF AND DUP2 MSTORE PUSH1 0x20 ADD PUSH1 0x3 PUSH1 0xA SWAP1 SLOAD SWAP1 PUSH2 0x100 EXP SWAP1 DIV PUSH2 0xFFFF AND PUSH2 0xFFFF AND PUSH2 0xFFFF AND DUP2 MSTORE PUSH1 0x20 ADD PUSH1 0x3 PUSH1 0xC SWAP1 SLOAD SWAP1 PUSH2 0x100 EXP SWAP1 DIV PUSH2 0xFFFF AND PUSH2 0xFFFF AND PUSH2 0xFFFF AND DUP2 MSTORE PUSH1 0x20 ADD PUSH1 0x3 PUSH1 0xE SWAP1 SLOAD SWAP1 PUSH2 0x100 EXP SWAP1 DIV PUSH2 0xFFFF AND PUSH2 0xFFFF AND PUSH2 0xFFFF AND DUP2 MSTORE POP SWAP1 POP SWAP1 JUMP JUMPDEST PUSH2 0x61B DUP3 DUP3 PUSH1 0x7 PUSH0 DUP1 PUSH2 0x1541 JUMP JUMPDEST POP POP JUMP JUMPDEST PUSH0 PUSH1 0x7 PUSH0 CALLER PUSH20 0xFFFFFFFFFFFFFFFFFFFFFFFFFFFFFFFFFFFFFFFF AND PUSH20 0xFFFFFFFFFFFFFFFFFFFFFFFFFFFFFFFFFFFFFFFF AND DUP2 MSTORE PUSH1 0x20 ADD SWAP1 DUP2 MSTORE PUSH1 0x20 ADD PUSH0 KECCAK256 SLOAD SWAP1 POP SWAP1 JUMP JUMPDEST PUSH2 0x670 DUP5 DUP5 PUSH0 DUP6 DUP6 PUSH2 0x1541 JUMP JUMPDEST POP POP POP POP JUMP JUMPDEST PUSH2 0x67E PUSH2 0x22E5 JUMP JUMPDEST PUSH1 0x5 PUSH0 DUP4 PUSH20 0xFFFFFFFFFFFFFFFFFFFFFFFFFFFFFFFFFFFFFFFF AND PUSH20 0xFFFFFFFFFFFFFFFFFFFFFFFFFFFFFFFFFFFFFFFF AND DUP2 MSTORE PUSH1 0x20 ADD SWAP1 DUP2 MSTORE PUSH1 0x20 ADD PUSH0 KECCAK256 PUSH1 0x40 MLOAD DUP1 PUSH2 0x100 ADD PUSH1 0x40 MSTORE SWAP1 DUP2 PUSH0 DUP3 ADD SLOAD DUP2 MSTORE PUSH1 0x20 ADD PUSH1 0x1 DUP3 ADD PUSH0 SWAP1 SLOAD SWAP1 PUSH2 0x100 EXP SWAP1 DIV PUSH1 0xFF AND PUSH1 0x7 DUP2 GT ISZERO PUSH2 0x6F4 JUMPI PUSH2 0x6F3 PUSH2 0x26A0 JUMP JUMPDEST JUMPDEST PUSH1 0x7 DUP2 GT ISZERO PUSH2 0x706 JUMPI PUSH2 0x705 PUSH2 0x26A0 JUMP JUMPDEST JUMPDEST DUP2 MSTORE PUSH1 0x20 ADD PUSH1 0x2 DUP3 ADD SLOAD DUP2 MSTORE PUSH1 0x20 ADD PUSH1 0x3 DUP3 ADD SLOAD DUP2 MSTORE PUSH1 0x20 ADD PUSH1 0x4 DUP3 ADD SLOAD DUP2 MSTORE PUSH1 0x20 ADD PUSH1 0x5 DUP3 ADD SLOAD DUP2 MSTORE PUSH1 0x20 ADD PUSH1 0x6 DUP3 ADD SLOAD DUP2 MSTORE PUSH1 0x20 ADD PUSH1 0x7 DUP3 ADD SLOAD DUP2 MSTORE POP POP SWAP1 POP SWAP2 SWAP1 POP JUMP JUMPDEST PUSH2 0x75B DUP3 DUP3 PUSH1 0x4 PUSH0 DUP1 PUSH2 0x1541 JUMP JUMPDEST POP POP JUMP JUMPDEST PUSH0 DUP1 PUSH3 0x15180 TIMESTAMP PUSH2 0x770 SWAP2 SWAP1 PUSH2 0x2BCE JUMP JUMPDEST SWAP1 POP PUSH0 DUP1 PUSH1 0x4 PUSH0 DUP7 PUSH20 0xFFFFFFFFFFFFFFFFFFFFFFFFFFFFFFFFFFFFFFFF AND PUSH20 0xFFFFFFFFFFFFFFFFFFFFFFFFFFFFFFFFFFFFFFFF AND DUP2 MSTORE PUSH1 0x20 ADD SWAP1 DUP2 MSTORE PUSH1 0x20 ADD PUSH0 KECCAK256 DUP1 SLOAD DUP1 PUSH1 0x20 MUL PUSH1 0x20 ADD PUSH1 0x40 MLOAD SWAP1 DUP2 ADD PUSH1 0x40 MSTORE DUP1 SWAP3 SWAP2 SWAP1 DUP2 DUP2 MSTORE PUSH1 0x20 ADD PUSH0 SWAP1 JUMPDEST DUP3 DUP3 LT ISZERO PUSH2 0x880 JUMPI DUP4 DUP3 SWAP1 PUSH0 MSTORE PUSH1 0x20 PUSH0 KECCAK256 SWAP1 PUSH1 0x8 MUL ADD PUSH1 0x40 MLOAD DUP1 PUSH2 0x100 ADD PUSH1 0x40 MSTORE SWAP1 DUP2 PUSH0 DUP3 ADD SLOAD DUP2 MSTORE PUSH1 0x20 ADD PUSH1 0x1 DUP3 ADD PUSH0 SWAP1 SLOAD SWAP1 PUSH2 0x100 EXP SWAP1 DIV PUSH1 0xFF AND PUSH1 0x7 DUP2 GT ISZERO PUSH2 0x81F JUMPI PUSH2 0x81E PUSH2 0x26A0 JUMP JUMPDEST JUMPDEST PUSH1 0x7 DUP2 GT ISZERO PUSH2 0x831 JUMPI PUSH2 0x830 PUSH2 0x26A0 JUMP JUMPDEST JUMPDEST DUP2 MSTORE PUSH1 0x20 ADD PUSH1 0x2 DUP3 ADD SLOAD DUP2 MSTORE PUSH1 0x20 ADD PUSH1 0x3 DUP3 ADD SLOAD DUP2 MSTORE PUSH1 0x20 ADD PUSH1 0x4 DUP3 ADD SLOAD DUP2 MSTORE PUSH1 0x20 ADD PUSH1 0x5 DUP3 ADD SLOAD DUP2 MSTORE PUSH1 0x20 ADD PUSH1 0x6 DUP3 ADD SLOAD DUP2 MSTORE PUSH1 0x20 ADD PUSH1 0x7 DUP3 ADD SLOAD DUP2 MSTORE POP POP DUP2 MSTORE PUSH1 0x20 ADD SWAP1 PUSH1 0x1 ADD SWAP1 PUSH2 0x7D0 JUMP JUMPDEST POP POP POP POP SWAP1 POP PUSH0 DUP2 MLOAD SWAP1 POP PUSH0 DUP2 SWAP1 POP JUMPDEST PUSH0 DUP2 GT ISZERO PUSH2 0x958 JUMPI PUSH3 0x15180 DUP4 PUSH1 0x1 DUP4 PUSH2 0x8AA SWAP2 SWAP1 PUSH2 0x2BFE JUMP JUMPDEST DUP2 MLOAD DUP2 LT PUSH2 0x8BB JUMPI PUSH2 0x8BA PUSH2 0x2C31 JUMP JUMPDEST JUMPDEST PUSH1 0x20 MUL PUSH1 0x20 ADD ADD MLOAD PUSH0 ADD MLOAD PUSH2 0x8D0 SWAP2 SWAP1 PUSH2 0x2BCE JUMP JUMPDEST SWAP4 POP DUP5 DUP5 SUB PUSH2 0x942 JUMPI PUSH1 0x5 PUSH1 0x7 DUP2 GT ISZERO PUSH2 0x8ED JUMPI PUSH2 0x8EC PUSH2 0x26A0 JUMP JUMPDEST JUMPDEST DUP4 PUSH1 0x1 DUP4 PUSH2 0x8FB SWAP2 SWAP1 PUSH2 0x2BFE JUMP JUMPDEST DUP2 MLOAD DUP2 LT PUSH2 0x90C JUMPI PUSH2 0x90B PUSH2 0x2C31 JUMP JUMPDEST JUMPDEST PUSH1 0x20 MUL PUSH1 0x20 ADD ADD MLOAD PUSH1 0x20 ADD MLOAD PUSH1 0x7 DUP2 GT ISZERO PUSH2 0x92A JUMPI PUSH2 0x929 PUSH2 0x26A0 JUMP JUMPDEST JUMPDEST SUB PUSH2 0x93D JUMPI PUSH1 0x1 SWAP6 POP POP POP POP POP POP PUSH2 0x961 JUMP JUMPDEST PUSH2 0x947 JUMP JUMPDEST PUSH2 0x958 JUMP JUMPDEST DUP1 PUSH2 0x951 SWAP1 PUSH2 0x2C5E JUMP JUMPDEST SWAP1 POP PUSH2 0x890 JUMP JUMPDEST POP PUSH0 SWAP5 POP POP POP POP POP JUMPDEST SWAP2 SWAP1 POP JUMP JUMPDEST PUSH2 0x96E PUSH2 0x14BA JUMP JUMPDEST PUSH2 0x977 PUSH0 PUSH2 0x19F5 JUMP JUMPDEST JUMP JUMPDEST PUSH2 0x981 PUSH2 0x14BA JUMP JUMPDEST PUSH0 PUSH1 0x7 DUP2 GT ISZERO PUSH2 0x994 JUMPI PUSH2 0x993 PUSH2 0x26A0 JUMP JUMPDEST JUMPDEST DUP3 PUSH1 0x7 DUP2 GT ISZERO PUSH2 0x9A7 JUMPI PUSH2 0x9A6 PUSH2 0x26A0 JUMP JUMPDEST JUMPDEST SUB PUSH2 0x9CD JUMPI DUP1 PUSH1 0x3 PUSH0 PUSH2 0x100 EXP DUP2 SLOAD DUP2 PUSH2 0xFFFF MUL NOT AND SWAP1 DUP4 PUSH2 0xFFFF AND MUL OR SWAP1 SSTORE POP PUSH2 0xBF1 JUMP JUMPDEST PUSH1 0x1 PUSH1 0x7 DUP2 GT ISZERO PUSH2 0x9E1 JUMPI PUSH2 0x9E0 PUSH2 0x26A0 JUMP JUMPDEST JUMPDEST DUP3 PUSH1 0x7 DUP2 GT ISZERO PUSH2 0x9F4 JUMPI PUSH2 0x9F3 PUSH2 0x26A0 JUMP JUMPDEST JUMPDEST SUB PUSH2 0xA1B JUMPI DUP1 PUSH1 0x3 PUSH1 0x2 PUSH2 0x100 EXP DUP2 SLOAD DUP2 PUSH2 0xFFFF MUL NOT AND SWAP1 DUP4 PUSH2 0xFFFF AND MUL OR SWAP1 SSTORE POP PUSH2 0xBF0 JUMP JUMPDEST PUSH1 0x2 PUSH1 0x7 DUP2 GT ISZERO PUSH2 0xA2F JUMPI PUSH2 0xA2E PUSH2 0x26A0 JUMP JUMPDEST JUMPDEST DUP3 PUSH1 0x7 DUP2 GT ISZERO PUSH2 0xA42 JUMPI PUSH2 0xA41 PUSH2 0x26A0 JUMP JUMPDEST JUMPDEST SUB PUSH2 0xA69 JUMPI DUP1 PUSH1 0x3 PUSH1 0x4 PUSH2 0x100 EXP DUP2 SLOAD DUP2 PUSH2 0xFFFF MUL NOT AND SWAP1 DUP4 PUSH2 0xFFFF AND MUL OR SWAP1 SSTORE POP PUSH2 0xBEF JUMP JUMPDEST PUSH1 0x3 PUSH1 0x7 DUP2 GT ISZERO PUSH2 0xA7D JUMPI PUSH2 0xA7C PUSH2 0x26A0 JUMP JUMPDEST JUMPDEST DUP3 PUSH1 0x7 DUP2 GT ISZERO PUSH2 0xA90 JUMPI PUSH2 0xA8F PUSH2 0x26A0 JUMP JUMPDEST JUMPDEST SUB PUSH2 0xAB7 JUMPI DUP1 PUSH1 0x3 PUSH1 0x6 PUSH2 0x100 EXP DUP2 SLOAD DUP2 PUSH2 0xFFFF MUL NOT AND SWAP1 DUP4 PUSH2 0xFFFF AND MUL OR SWAP1 SSTORE POP PUSH2 0xBEE JUMP JUMPDEST PUSH1 0x4 PUSH1 0x7 DUP2 GT ISZERO PUSH2 0xACB JUMPI PUSH2 0xACA PUSH2 0x26A0 JUMP JUMPDEST JUMPDEST DUP3 PUSH1 0x7 DUP2 GT ISZERO PUSH2 0xADE JUMPI PUSH2 0xADD PUSH2 0x26A0 JUMP JUMPDEST JUMPDEST SUB PUSH2 0xB05 JUMPI DUP1 PUSH1 0x3 PUSH1 0x8 PUSH2 0x100 EXP DUP2 SLOAD DUP2 PUSH2 0xFFFF MUL NOT AND SWAP1 DUP4 PUSH2 0xFFFF AND MUL OR SWAP1 SSTORE POP PUSH2 0xBED JUMP JUMPDEST PUSH1 0x5 PUSH1 0x7 DUP2 GT ISZERO PUSH2 0xB19 JUMPI PUSH2 0xB18 PUSH2 0x26A0 JUMP JUMPDEST JUMPDEST DUP3 PUSH1 0x7 DUP2 GT ISZERO PUSH2 0xB2C JUMPI PUSH2 0xB2B PUSH2 0x26A0 JUMP JUMPDEST JUMPDEST SUB PUSH2 0xB53 JUMPI DUP1 PUSH1 0x3 PUSH1 0xA PUSH2 0x100 EXP DUP2 SLOAD DUP2 PUSH2 0xFFFF MUL NOT AND SWAP1 DUP4 PUSH2 0xFFFF AND MUL OR SWAP1 SSTORE POP PUSH2 0xBEC JUMP JUMPDEST PUSH1 0x6 PUSH1 0x7 DUP2 GT ISZERO PUSH2 0xB67 JUMPI PUSH2 0xB66 PUSH2 0x26A0 JUMP JUMPDEST JUMPDEST DUP3 PUSH1 0x7 DUP2 GT ISZERO PUSH2 0xB7A JUMPI PUSH2 0xB79 PUSH2 0x26A0 JUMP JUMPDEST JUMPDEST SUB PUSH2 0xBA1 JUMPI DUP1 PUSH1 0x3 PUSH1 0xC PUSH2 0x100 EXP DUP2 SLOAD DUP2 PUSH2 0xFFFF MUL NOT AND SWAP1 DUP4 PUSH2 0xFFFF AND MUL OR SWAP1 SSTORE POP PUSH2 0xBEB JUMP JUMPDEST PUSH1 0x7 DUP1 DUP2 GT ISZERO PUSH2 0xBB4 JUMPI PUSH2 0xBB3 PUSH2 0x26A0 JUMP JUMPDEST JUMPDEST DUP3 PUSH1 0x7 DUP2 GT ISZERO PUSH2 0xBC7 JUMPI PUSH2 0xBC6 PUSH2 0x26A0 JUMP JUMPDEST JUMPDEST SUB PUSH2 0xBEA JUMPI DUP1 PUSH1 0x3 PUSH1 0xE PUSH2 0x100 EXP DUP2 SLOAD DUP2 PUSH2 0xFFFF MUL NOT AND SWAP1 DUP4 PUSH2 0xFFFF AND MUL OR SWAP1 SSTORE POP JUMPDEST JUMPDEST JUMPDEST JUMPDEST JUMPDEST JUMPDEST JUMPDEST JUMPDEST POP POP JUMP JUMPDEST PUSH2 0xC03 DUP3 DUP3 PUSH1 0x6 PUSH0 DUP1 PUSH2 0x1541 JUMP JUMPDEST POP POP JUMP JUMPDEST PUSH2 0xC15 DUP5 DUP5 PUSH1 0x1 DUP6 DUP6 PUSH2 0x1541 JUMP JUMPDEST POP POP POP POP JUMP JUMPDEST PUSH1 0x60 PUSH2 0xC2A DUP3 PUSH1 0x1 PUSH1 0x64 PUSH2 0x109D JUMP JUMPDEST SWAP1 POP SWAP2 SWAP1 POP JUMP JUMPDEST PUSH1 0x60 PUSH2 0xC3F DUP4 DUP4 PUSH1 0x64 PUSH2 0x109D JUMP JUMPDEST SWAP1 POP SWAP3 SWAP2 POP POP JUMP JUMPDEST PUSH0 DUP1 PUSH0 SWAP1 SLOAD SWAP1 PUSH2 0x100 EXP SWAP1 DIV PUSH20 0xFFFFFFFFFFFFFFFFFFFFFFFFFFFFFFFFFFFFFFFF AND SWAP1 POP SWAP1 JUMP JUMPDEST PUSH0 PUSH1 0x7 PUSH0 DUP4 PUSH20 0xFFFFFFFFFFFFFFFFFFFFFFFFFFFFFFFFFFFFFFFF AND PUSH20 0xFFFFFFFFFFFFFFFFFFFFFFFFFFFFFFFFFFFFFFFF AND DUP2 MSTORE PUSH1 0x20 ADD SWAP1 DUP2 MSTORE PUSH1 0x20 ADD PUSH0 KECCAK256 SLOAD SWAP1 POP SWAP2 SWAP1 POP JUMP JUMPDEST PUSH2 0xCC2 DUP3 DUP3 PUSH1 0x2 PUSH0 DUP1 PUSH2 0x1541 JUMP JUMPDEST POP POP JUMP JUMPDEST PUSH0 CALLER SWAP1 POP PUSH2 0xCD3 DUP2 PUSH2 0x75F JUMP JUMPDEST ISZERO PUSH2 0xD13 JUMPI PUSH1 0x40 MLOAD PUSH32 0x8C379A000000000000000000000000000000000000000000000000000000000 DUP2 MSTORE PUSH1 0x4 ADD PUSH2 0xD0A SWAP1 PUSH2 0x2CDF JUMP JUMPDEST PUSH1 0x40 MLOAD DUP1 SWAP2 SUB SWAP1 REVERT JUMPDEST PUSH0 TIMESTAMP SWAP1 POP PUSH0 PUSH2 0xD22 DUP4 DUP4 PUSH2 0x1AB6 JUMP JUMPDEST SWAP1 POP PUSH0 PUSH1 0x12 PUSH1 0xA PUSH2 0xD33 SWAP2 SWAP1 PUSH2 0x2E38 JUMP JUMPDEST PUSH1 0x3 PUSH1 0xA SWAP1 SLOAD SWAP1 PUSH2 0x100 EXP SWAP1 DIV PUSH2 0xFFFF AND PUSH2 0xFFFF AND PUSH2 0xD52 SWAP2 SWAP1 PUSH2 0x2E82 JUMP JUMPDEST SWAP1 POP PUSH0 PUSH2 0xD67 DUP5 DUP5 PUSH0 ADD MLOAD DUP6 PUSH1 0x60 ADD MLOAD PUSH2 0x1BF2 JUMP JUMPDEST SWAP1 POP PUSH0 DUP2 DUP4 DUP6 PUSH1 0xE0 ADD MLOAD PUSH2 0xD7B SWAP2 SWAP1 PUSH2 0x2EC3 JUMP JUMPDEST PUSH2 0xD85 SWAP2 SWAP1 PUSH2 0x2EC3 JUMP JUMPDEST SWAP1 POP PUSH0 PUSH1 0x40 MLOAD DUP1 PUSH2 0x100 ADD PUSH1 0x40 MSTORE DUP1 TIMESTAMP DUP2 MSTORE PUSH1 0x20 ADD PUSH1 0x5 PUSH1 0x7 DUP2 GT ISZERO PUSH2 0xDAE JUMPI PUSH2 0xDAD PUSH2 0x26A0 JUMP JUMPDEST JUMPDEST DUP2 MSTORE PUSH1 0x20 ADD PUSH0 DUP2 MSTORE PUSH1 0x20 ADD DUP7 PUSH1 0x60 ADD MLOAD DUP2 MSTORE PUSH1 0x20 ADD DUP7 PUSH1 0x80 ADD MLOAD DUP2 MSTORE PUSH1 0x20 ADD DUP6 DUP2 MSTORE PUSH1 0x20 ADD DUP5 DUP2 MSTORE PUSH1 0x20 ADD DUP4 DUP2 MSTORE POP SWAP1 POP PUSH1 0x4 PUSH0 DUP9 PUSH20 0xFFFFFFFFFFFFFFFFFFFFFFFFFFFFFFFFFFFFFFFF AND PUSH20 0xFFFFFFFFFFFFFFFFFFFFFFFFFFFFFFFFFFFFFFFF AND DUP2 MSTORE PUSH1 0x20 ADD SWAP1 DUP2 MSTORE PUSH1 0x20 ADD PUSH0 KECCAK256 DUP2 SWAP1 DUP1 PUSH1 0x1 DUP2 SLOAD ADD DUP1 DUP3 SSTORE DUP1 SWAP2 POP POP PUSH1 0x1 SWAP1 SUB SWAP1 PUSH0 MSTORE PUSH1 0x20 PUSH0 KECCAK256 SWAP1 PUSH1 0x8 MUL ADD PUSH0 SWAP1 SWAP2 SWAP1 SWAP2 SWAP1 SWAP2 POP PUSH0 DUP3 ADD MLOAD DUP2 PUSH0 ADD SSTORE PUSH1 0x20 DUP3 ADD MLOAD DUP2 PUSH1 0x1 ADD PUSH0 PUSH2 0x100 EXP DUP2 SLOAD DUP2 PUSH1 0xFF MUL NOT AND SWAP1 DUP4 PUSH1 0x7 DUP2 GT ISZERO PUSH2 0xE75 JUMPI PUSH2 0xE74 PUSH2 0x26A0 JUMP JUMPDEST JUMPDEST MUL OR SWAP1 SSTORE POP PUSH1 0x40 DUP3 ADD MLOAD DUP2 PUSH1 0x2 ADD SSTORE PUSH1 0x60 DUP3 ADD MLOAD DUP2 PUSH1 0x3 ADD SSTORE PUSH1 0x80 DUP3 ADD MLOAD DUP2 PUSH1 0x4 ADD SSTORE PUSH1 0xA0 DUP3 ADD MLOAD DUP2 PUSH1 0x5 ADD SSTORE PUSH1 0xC0 DUP3 ADD MLOAD DUP2 PUSH1 0x6 ADD SSTORE PUSH1 0xE0 DUP3 ADD MLOAD DUP2 PUSH1 0x7 ADD SSTORE POP POP DUP1 PUSH1 0x5 PUSH0 DUP10 PUSH20 0xFFFFFFFFFFFFFFFFFFFFFFFFFFFFFFFFFFFFFFFF AND PUSH20 0xFFFFFFFFFFFFFFFFFFFFFFFFFFFFFFFFFFFFFFFF AND DUP2 MSTORE PUSH1 0x20 ADD SWAP1 DUP2 MSTORE PUSH1 0x20 ADD PUSH0 KECCAK256 PUSH0 DUP3 ADD MLOAD DUP2 PUSH0 ADD SSTORE PUSH1 0x20 DUP3 ADD MLOAD DUP2 PUSH1 0x1 ADD PUSH0 PUSH2 0x100 EXP DUP2 SLOAD DUP2 PUSH1 0xFF MUL NOT AND SWAP1 DUP4 PUSH1 0x7 DUP2 GT ISZERO PUSH2 0xF28 JUMPI PUSH2 0xF27 PUSH2 0x26A0 JUMP JUMPDEST JUMPDEST MUL OR SWAP1 SSTORE POP PUSH1 0x40 DUP3 ADD MLOAD DUP2 PUSH1 0x2 ADD SSTORE PUSH1 0x60 DUP3 ADD MLOAD DUP2 PUSH1 0x3 ADD SSTORE PUSH1 0x80 DUP3 ADD MLOAD DUP2 PUSH1 0x4 ADD SSTORE PUSH1 0xA0 DUP3 ADD MLOAD DUP2 PUSH1 0x5 ADD SSTORE PUSH1 0xC0 DUP3 ADD MLOAD DUP2 PUSH1 0x6 ADD SSTORE PUSH1 0xE0 DUP3 ADD MLOAD DUP2 PUSH1 0x7 ADD SSTORE SWAP1 POP POP PUSH2 0xF75 DUP8 PUSH2 0x1C21 JUMP JUMPDEST POP POP POP POP POP POP POP JUMP JUMPDEST PUSH2 0xF8C DUP3 DUP3 PUSH1 0x3 PUSH0 DUP1 PUSH2 0x1541 JUMP JUMPDEST POP POP JUMP JUMPDEST PUSH0 PUSH1 0x4 PUSH0 DUP4 PUSH20 0xFFFFFFFFFFFFFFFFFFFFFFFFFFFFFFFFFFFFFFFF AND PUSH20 0xFFFFFFFFFFFFFFFFFFFFFFFFFFFFFFFFFFFFFFFF AND DUP2 MSTORE PUSH1 0x20 ADD SWAP1 DUP2 MSTORE PUSH1 0x20 ADD PUSH0 KECCAK256 DUP1 SLOAD SWAP1 POP SWAP1 POP SWAP2 SWAP1 POP JUMP JUMPDEST PUSH1 0x60 PUSH1 0x6 DUP1 SLOAD DUP1 PUSH1 0x20 MUL PUSH1 0x20 ADD PUSH1 0x40 MLOAD SWAP1 DUP2 ADD PUSH1 0x40 MSTORE DUP1 SWAP3 SWAP2 SWAP1 DUP2 DUP2 MSTORE PUSH1 0x20 ADD PUSH0 SWAP1 JUMPDEST DUP3 DUP3 LT ISZERO PUSH2 0x1094 JUMPI DUP4 DUP3 SWAP1 PUSH0 MSTORE PUSH1 0x20 PUSH0 KECCAK256 SWAP1 PUSH1 0x3 MUL ADD PUSH1 0x40 MLOAD DUP1 PUSH1 0x60 ADD PUSH1 0x40 MSTORE SWAP1 DUP2 PUSH0 DUP3 ADD PUSH0 SWAP1 SLOAD SWAP1 PUSH2 0x100 EXP SWAP1 DIV PUSH20 0xFFFFFFFFFFFFFFFFFFFFFFFFFFFFFFFFFFFFFFFF AND PUSH20 0xFFFFFFFFFFFFFFFFFFFFFFFFFFFFFFFFFFFFFFFF AND PUSH20 0xFFFFFFFFFFFFFFFFFFFFFFFFFFFFFFFFFFFFFFFF AND DUP2 MSTORE PUSH1 0x20 ADD PUSH1 0x1 DUP3 ADD SLOAD DUP2 MSTORE PUSH1 0x20 ADD PUSH1 0x2 DUP3 ADD SLOAD DUP2 MSTORE POP POP DUP2 MSTORE PUSH1 0x20 ADD SWAP1 PUSH1 0x1 ADD SWAP1 PUSH2 0xFFC JUMP JUMPDEST POP POP POP POP SWAP1 POP SWAP1 JUMP JUMPDEST PUSH1 0x60 PUSH0 PUSH1 0x4 PUSH0 DUP7 PUSH20 0xFFFFFFFFFFFFFFFFFFFFFFFFFFFFFFFFFFFFFFFF AND PUSH20 0xFFFFFFFFFFFFFFFFFFFFFFFFFFFFFFFFFFFFFFFF AND DUP2 MSTORE PUSH1 0x20 ADD SWAP1 DUP2 MSTORE PUSH1 0x20 ADD PUSH0 KECCAK256 DUP1 SLOAD DUP1 PUSH1 0x20 MUL PUSH1 0x20 ADD PUSH1 0x40 MLOAD SWAP1 DUP2 ADD PUSH1 0x40 MSTORE DUP1 SWAP3 SWAP2 SWAP1 DUP2 DUP2 MSTORE PUSH1 0x20 ADD PUSH0 SWAP1 JUMPDEST DUP3 DUP3 LT ISZERO PUSH2 0x11AC JUMPI DUP4 DUP3 SWAP1 PUSH0 MSTORE PUSH1 0x20 PUSH0 KECCAK256 SWAP1 PUSH1 0x8 MUL ADD PUSH1 0x40 MLOAD DUP1 PUSH2 0x100 ADD PUSH1 0x40 MSTORE SWAP1 DUP2 PUSH0 DUP3 ADD SLOAD DUP2 MSTORE PUSH1 0x20 ADD PUSH1 0x1 DUP3 ADD PUSH0 SWAP1 SLOAD SWAP1 PUSH2 0x100 EXP SWAP1 DIV PUSH1 0xFF AND PUSH1 0x7 DUP2 GT ISZERO PUSH2 0x114B JUMPI PUSH2 0x114A PUSH2 0x26A0 JUMP JUMPDEST JUMPDEST PUSH1 0x7 DUP2 GT ISZERO PUSH2 0x115D JUMPI PUSH2 0x115C PUSH2 0x26A0 JUMP JUMPDEST JUMPDEST DUP2 MSTORE PUSH1 0x20 ADD PUSH1 0x2 DUP3 ADD SLOAD DUP2 MSTORE PUSH1 0x20 ADD PUSH1 0x3 DUP3 ADD SLOAD DUP2 MSTORE PUSH1 0x20 ADD PUSH1 0x4 DUP3 ADD SLOAD DUP2 MSTORE PUSH1 0x20 ADD PUSH1 0x5 DUP3 ADD SLOAD DUP2 MSTORE PUSH1 0x20 ADD PUSH1 0x6 DUP3 ADD SLOAD DUP2 MSTORE PUSH1 0x20 ADD PUSH1 0x7 DUP3 ADD SLOAD DUP2 MSTORE POP POP DUP2 MSTORE PUSH1 0x20 ADD SWAP1 PUSH1 0x1 ADD SWAP1 PUSH2 0x10FC JUMP JUMPDEST POP POP POP POP SWAP1 POP PUSH0 DUP2 MLOAD SWAP1 POP PUSH0 DUP2 GT PUSH2 0x11F9 JUMPI PUSH1 0x40 MLOAD PUSH32 0x8C379A000000000000000000000000000000000000000000000000000000000 DUP2 MSTORE PUSH1 0x4 ADD PUSH2 0x11F0 SWAP1 PUSH2 0x2F40 JUMP JUMPDEST PUSH1 0x40 MLOAD DUP1 SWAP2 SUB SWAP1 REVERT JUMPDEST PUSH1 0x1 DUP6 PUSH2 0x1206 SWAP2 SWAP1 PUSH2 0x2BFE JUMP JUMPDEST DUP5 PUSH2 0x1211 SWAP2 SWAP1 PUSH2 0x2E82 JUMP JUMPDEST DUP2 GT PUSH2 0x1252 JUMPI PUSH1 0x40 MLOAD PUSH32 0x8C379A000000000000000000000000000000000000000000000000000000000 DUP2 MSTORE PUSH1 0x4 ADD PUSH2 0x1249 SWAP1 PUSH2 0x2FCE JUMP JUMPDEST PUSH1 0x40 MLOAD DUP1 SWAP2 SUB SWAP1 REVERT JUMPDEST PUSH0 DUP1 PUSH1 0x1 DUP8 PUSH2 0x1261 SWAP2 SWAP1 PUSH2 0x2BFE JUMP JUMPDEST DUP7 PUSH2 0x126C SWAP2 SWAP1 PUSH2 0x2E82 JUMP JUMPDEST DUP4 PUSH2 0x1277 SWAP2 SWAP1 PUSH2 0x2BFE JUMP JUMPDEST SWAP2 POP DUP6 DUP3 GT PUSH2 0x1288 JUMPI PUSH0 SWAP1 POP PUSH2 0x1297 JUMP JUMPDEST DUP6 DUP3 PUSH2 0x1294 SWAP2 SWAP1 PUSH2 0x2BFE JUMP JUMPDEST SWAP1 POP JUMPDEST PUSH0 DUP2 DUP4 PUSH2 0x12A4 SWAP2 SWAP1 PUSH2 0x2BFE JUMP JUMPDEST PUSH8 0xFFFFFFFFFFFFFFFF DUP2 GT ISZERO PUSH2 0x12BD JUMPI PUSH2 0x12BC PUSH2 0x2FEC JUMP JUMPDEST JUMPDEST PUSH1 0x40 MLOAD SWAP1 DUP1 DUP3 MSTORE DUP1 PUSH1 0x20 MUL PUSH1 0x20 ADD DUP3 ADD PUSH1 0x40 MSTORE DUP1 ISZERO PUSH2 0x12F6 JUMPI DUP2 PUSH1 0x20 ADD JUMPDEST PUSH2 0x12E3 PUSH2 0x22E5 JUMP JUMPDEST DUP2 MSTORE PUSH1 0x20 ADD SWAP1 PUSH1 0x1 SWAP1 SUB SWAP1 DUP2 PUSH2 0x12DB JUMPI SWAP1 POP JUMPDEST POP SWAP1 POP PUSH0 DUP4 SWAP1 POP JUMPDEST DUP3 DUP2 GT ISZERO PUSH2 0x1367 JUMPI DUP6 PUSH1 0x1 DUP3 PUSH2 0x1314 SWAP2 SWAP1 PUSH2 0x2BFE JUMP JUMPDEST DUP2 MLOAD DUP2 LT PUSH2 0x1325 JUMPI PUSH2 0x1324 PUSH2 0x2C31 JUMP JUMPDEST JUMPDEST PUSH1 0x20 MUL PUSH1 0x20 ADD ADD MLOAD DUP3 DUP3 DUP7 PUSH2 0x133A SWAP2 SWAP1 PUSH2 0x2BFE JUMP JUMPDEST DUP2 MLOAD DUP2 LT PUSH2 0x134B JUMPI PUSH2 0x134A PUSH2 0x2C31 JUMP JUMPDEST JUMPDEST PUSH1 0x20 MUL PUSH1 0x20 ADD ADD DUP2 SWAP1 MSTORE POP DUP1 PUSH2 0x1360 SWAP1 PUSH2 0x2C5E JUMP JUMPDEST SWAP1 POP PUSH2 0x12FE JUMP JUMPDEST POP DUP1 SWAP6 POP POP POP POP POP POP SWAP4 SWAP3 POP POP POP JUMP JUMPDEST PUSH2 0x137F PUSH2 0x14BA JUMP JUMPDEST PUSH1 0x1 DUP1 PUSH0 DUP4 PUSH20 0xFFFFFFFFFFFFFFFFFFFFFFFFFFFFFFFFFFFFFFFF AND PUSH20 0xFFFFFFFFFFFFFFFFFFFFFFFFFFFFFFFFFFFFFFFF AND DUP2 MSTORE PUSH1 0x20 ADD SWAP1 DUP2 MSTORE PUSH1 0x20 ADD PUSH0 KECCAK256 PUSH0 PUSH2 0x100 EXP DUP2 SLOAD DUP2 PUSH1 0xFF MUL NOT AND SWAP1 DUP4 ISZERO ISZERO MUL OR SWAP1 SSTORE POP PUSH1 0x2 DUP2 SWAP1 DUP1 PUSH1 0x1 DUP2 SLOAD ADD DUP1 DUP3 SSTORE DUP1 SWAP2 POP POP PUSH1 0x1 SWAP1 SUB SWAP1 PUSH0 MSTORE PUSH1 0x20 PUSH0 KECCAK256 ADD PUSH0 SWAP1 SWAP2 SWAP1 SWAP2 SWAP1 SWAP2 PUSH2 0x100 EXP DUP2 SLOAD DUP2 PUSH20 0xFFFFFFFFFFFFFFFFFFFFFFFFFFFFFFFFFFFFFFFF MUL NOT AND SWAP1 DUP4 PUSH20 0xFFFFFFFFFFFFFFFFFFFFFFFFFFFFFFFFFFFFFFFF AND MUL OR SWAP1 SSTORE POP POP JUMP JUMPDEST PUSH2 0x143E PUSH2 0x14BA JUMP JUMPDEST PUSH0 PUSH20 0xFFFFFFFFFFFFFFFFFFFFFFFFFFFFFFFFFFFFFFFF AND DUP2 PUSH20 0xFFFFFFFFFFFFFFFFFFFFFFFFFFFFFFFFFFFFFFFF AND SUB PUSH2 0x14AE JUMPI PUSH0 PUSH1 0x40 MLOAD PUSH32 0x1E4FBDF700000000000000000000000000000000000000000000000000000000 DUP2 MSTORE PUSH1 0x4 ADD PUSH2 0x14A5 SWAP2 SWAP1 PUSH2 0x2A03 JUMP JUMPDEST PUSH1 0x40 MLOAD DUP1 SWAP2 SUB SWAP1 REVERT JUMPDEST PUSH2 0x14B7 DUP2 PUSH2 0x19F5 JUMP JUMPDEST POP JUMP JUMPDEST PUSH2 0x14C2 PUSH2 0x22BB JUMP JUMPDEST PUSH20 0xFFFFFFFFFFFFFFFFFFFFFFFFFFFFFFFFFFFFFFFF AND PUSH2 0x14E0 PUSH2 0xC47 JUMP JUMPDEST PUSH20 0xFFFFFFFFFFFFFFFFFFFFFFFFFFFFFFFFFFFFFFFF AND EQ PUSH2 0x153F JUMPI PUSH2 0x1503 PUSH2 0x22BB JUMP JUMPDEST PUSH1 0x40 MLOAD PUSH32 0x118CDAA700000000000000000000000000000000000000000000000000000000 DUP2 MSTORE PUSH1 0x4 ADD PUSH2 0x1536 SWAP2 SWAP1 PUSH2 0x2A03 JUMP JUMPDEST PUSH1 0x40 MLOAD DUP1 SWAP2 SUB SWAP1 REVERT JUMPDEST JUMP JUMPDEST PUSH0 PUSH2 0x154C DUP7 DUP7 PUSH2 0x1AB6 JUMP JUMPDEST SWAP1 POP PUSH0 DUP2 PUSH1 0x80 ADD MLOAD SWAP1 POP PUSH0 DUP1 PUSH1 0x7 DUP2 GT ISZERO PUSH2 0x156A JUMPI PUSH2 0x1569 PUSH2 0x26A0 JUMP JUMPDEST JUMPDEST DUP7 PUSH1 0x7 DUP2 GT ISZERO PUSH2 0x157D JUMPI PUSH2 0x157C PUSH2 0x26A0 JUMP JUMPDEST JUMPDEST SUB PUSH2 0x15B5 JUMPI PUSH1 0x3 PUSH0 SWAP1 SLOAD SWAP1 PUSH2 0x100 EXP SWAP1 DIV PUSH2 0xFFFF AND PUSH2 0xFFFF AND PUSH2 0x1388 DUP7 PUSH2 0x15A4 SWAP2 SWAP1 PUSH2 0x2BCE JUMP JUMPDEST PUSH2 0x15AE SWAP2 SWAP1 PUSH2 0x2E82 JUMP JUMPDEST SWAP1 POP PUSH2 0x17D0 JUMP JUMPDEST PUSH1 0x12 PUSH1 0xA PUSH2 0x15C3 SWAP2 SWAP1 PUSH2 0x2E38 JUMP JUMPDEST SWAP1 POP PUSH1 0x1 PUSH1 0x7 DUP2 GT ISZERO PUSH2 0x15D9 JUMPI PUSH2 0x15D8 PUSH2 0x26A0 JUMP JUMPDEST JUMPDEST DUP7 PUSH1 0x7 DUP2 GT ISZERO PUSH2 0x15EC JUMPI PUSH2 0x15EB PUSH2 0x26A0 JUMP JUMPDEST JUMPDEST SUB PUSH2 0x1618 JUMPI PUSH1 0x3 PUSH1 0x2 SWAP1 SLOAD SWAP1 PUSH2 0x100 EXP SWAP1 DIV PUSH2 0xFFFF AND PUSH2 0xFFFF AND DUP2 PUSH2 0x1611 SWAP2 SWAP1 PUSH2 0x2E82 JUMP JUMPDEST SWAP1 POP PUSH2 0x17CF JUMP JUMPDEST PUSH0 SWAP5 POP DUP3 PUSH1 0x60 ADD MLOAD SWAP4 POP PUSH1 0x2 PUSH1 0x7 DUP2 GT ISZERO PUSH2 0x1636 JUMPI PUSH2 0x1635 PUSH2 0x26A0 JUMP JUMPDEST JUMPDEST DUP7 PUSH1 0x7 DUP2 GT ISZERO PUSH2 0x1649 JUMPI PUSH2 0x1648 PUSH2 0x26A0 JUMP JUMPDEST JUMPDEST SUB PUSH2 0x1683 JUMPI PUSH1 0x3 PUSH1 0x4 SWAP1 SLOAD SWAP1 PUSH2 0x100 EXP SWAP1 DIV PUSH2 0xFFFF AND PUSH2 0xFFFF AND DUP2 PUSH2 0x166E SWAP2 SWAP1 PUSH2 0x2E82 JUMP JUMPDEST SWAP1 POP DUP2 DUP1 PUSH2 0x167B SWAP1 PUSH2 0x3019 JUMP JUMPDEST SWAP3 POP POP PUSH2 0x17CE JUMP JUMPDEST PUSH1 0x3 PUSH1 0x7 DUP2 GT ISZERO PUSH2 0x1697 JUMPI PUSH2 0x1696 PUSH2 0x26A0 JUMP JUMPDEST JUMPDEST DUP7 PUSH1 0x7 DUP2 GT ISZERO PUSH2 0x16AA JUMPI PUSH2 0x16A9 PUSH2 0x26A0 JUMP JUMPDEST JUMPDEST SUB PUSH2 0x16D6 JUMPI PUSH1 0x3 PUSH1 0x6 SWAP1 SLOAD SWAP1 PUSH2 0x100 EXP SWAP1 DIV PUSH2 0xFFFF AND PUSH2 0xFFFF AND DUP2 PUSH2 0x16CF SWAP2 SWAP1 PUSH2 0x2E82 JUMP JUMPDEST SWAP1 POP PUSH2 0x17CD JUMP JUMPDEST PUSH1 0x4 PUSH1 0x7 DUP2 GT ISZERO PUSH2 0x16EA JUMPI PUSH2 0x16E9 PUSH2 0x26A0 JUMP JUMPDEST JUMPDEST DUP7 PUSH1 0x7 DUP2 GT ISZERO PUSH2 0x16FD JUMPI PUSH2 0x16FC PUSH2 0x26A0 JUMP JUMPDEST JUMPDEST SUB PUSH2 0x1729 JUMPI PUSH1 0x3 PUSH1 0x8 SWAP1 SLOAD SWAP1 PUSH2 0x100 EXP SWAP1 DIV PUSH2 0xFFFF AND PUSH2 0xFFFF AND DUP2 PUSH2 0x1722 SWAP2 SWAP1 PUSH2 0x2E82 JUMP JUMPDEST SWAP1 POP PUSH2 0x17CC JUMP JUMPDEST PUSH1 0x6 PUSH1 0x7 DUP2 GT ISZERO PUSH2 0x173D JUMPI PUSH2 0x173C PUSH2 0x26A0 JUMP JUMPDEST JUMPDEST DUP7 PUSH1 0x7 DUP2 GT ISZERO PUSH2 0x1750 JUMPI PUSH2 0x174F PUSH2 0x26A0 JUMP JUMPDEST JUMPDEST SUB PUSH2 0x177C JUMPI PUSH1 0x3 PUSH1 0xC SWAP1 SLOAD SWAP1 PUSH2 0x100 EXP SWAP1 DIV PUSH2 0xFFFF AND PUSH2 0xFFFF AND DUP2 PUSH2 0x1775 SWAP2 SWAP1 PUSH2 0x2E82 JUMP JUMPDEST SWAP1 POP PUSH2 0x17CB JUMP JUMPDEST PUSH1 0x7 DUP1 DUP2 GT ISZERO PUSH2 0x178F JUMPI PUSH2 0x178E PUSH2 0x26A0 JUMP JUMPDEST JUMPDEST DUP7 PUSH1 0x7 DUP2 GT ISZERO PUSH2 0x17A2 JUMPI PUSH2 0x17A1 PUSH2 0x26A0 JUMP JUMPDEST JUMPDEST SUB PUSH2 0x17CA JUMPI PUSH1 0x3 PUSH1 0xE SWAP1 SLOAD SWAP1 PUSH2 0x100 EXP SWAP1 DIV PUSH2 0xFFFF AND PUSH2 0xFFFF AND DUP2 PUSH2 0x17C7 SWAP2 SWAP1 PUSH2 0x2E82 JUMP JUMPDEST SWAP1 POP JUMPDEST JUMPDEST JUMPDEST JUMPDEST JUMPDEST JUMPDEST JUMPDEST PUSH0 PUSH2 0x17E3 DUP9 DUP6 PUSH0 ADD MLOAD DUP7 PUSH1 0x60 ADD MLOAD PUSH2 0x1BF2 JUMP JUMPDEST SWAP1 POP PUSH0 DUP2 DUP4 DUP7 PUSH1 0xE0 ADD MLOAD PUSH2 0x17F7 SWAP2 SWAP1 PUSH2 0x2EC3 JUMP JUMPDEST PUSH2 0x1801 SWAP2 SWAP1 PUSH2 0x2EC3 JUMP JUMPDEST SWAP1 POP PUSH0 PUSH1 0x40 MLOAD DUP1 PUSH2 0x100 ADD PUSH1 0x40 MSTORE DUP1 DUP12 DUP2 MSTORE PUSH1 0x20 ADD DUP11 PUSH1 0x7 DUP2 GT ISZERO PUSH2 0x1829 JUMPI PUSH2 0x1828 PUSH2 0x26A0 JUMP JUMPDEST JUMPDEST DUP2 MSTORE PUSH1 0x20 ADD DUP10 DUP2 MSTORE PUSH1 0x20 ADD DUP9 DUP2 MSTORE PUSH1 0x20 ADD DUP7 DUP2 MSTORE PUSH1 0x20 ADD DUP6 DUP2 MSTORE PUSH1 0x20 ADD DUP5 DUP2 MSTORE PUSH1 0x20 ADD DUP4 DUP2 MSTORE POP SWAP1 POP PUSH1 0x4 PUSH0 DUP13 PUSH20 0xFFFFFFFFFFFFFFFFFFFFFFFFFFFFFFFFFFFFFFFF AND PUSH20 0xFFFFFFFFFFFFFFFFFFFFFFFFFFFFFFFFFFFFFFFF AND DUP2 MSTORE PUSH1 0x20 ADD SWAP1 DUP2 MSTORE PUSH1 0x20 ADD PUSH0 KECCAK256 DUP2 SWAP1 DUP1 PUSH1 0x1 DUP2 SLOAD ADD DUP1 DUP3 SSTORE DUP1 SWAP2 POP POP PUSH1 0x1 SWAP1 SUB SWAP1 PUSH0 MSTORE PUSH1 0x20 PUSH0 KECCAK256 SWAP1 PUSH1 0x8 MUL ADD PUSH0 SWAP1 SWAP2 SWAP1 SWAP2 SWAP1 SWAP2 POP PUSH0 DUP3 ADD MLOAD DUP2 PUSH0 ADD SSTORE PUSH1 0x20 DUP3 ADD MLOAD DUP2 PUSH1 0x1 ADD PUSH0 PUSH2 0x100 EXP DUP2 SLOAD DUP2 PUSH1 0xFF MUL NOT AND SWAP1 DUP4 PUSH1 0x7 DUP2 GT ISZERO PUSH2 0x18E8 JUMPI PUSH2 0x18E7 PUSH2 0x26A0 JUMP JUMPDEST JUMPDEST MUL OR SWAP1 SSTORE POP PUSH1 0x40 DUP3 ADD MLOAD DUP2 PUSH1 0x2 ADD SSTORE PUSH1 0x60 DUP3 ADD MLOAD DUP2 PUSH1 0x3 ADD SSTORE PUSH1 0x80 DUP3 ADD MLOAD DUP2 PUSH1 0x4 ADD SSTORE PUSH1 0xA0 DUP3 ADD MLOAD DUP2 PUSH1 0x5 ADD SSTORE PUSH1 0xC0 DUP3 ADD MLOAD DUP2 PUSH1 0x6 ADD SSTORE PUSH1 0xE0 DUP3 ADD MLOAD DUP2 PUSH1 0x7 ADD SSTORE POP POP DUP1 PUSH1 0x5 PUSH0 DUP14 PUSH20 0xFFFFFFFFFFFFFFFFFFFFFFFFFFFFFFFFFFFFFFFF AND PUSH20 0xFFFFFFFFFFFFFFFFFFFFFFFFFFFFFFFFFFFFFFFF AND DUP2 MSTORE PUSH1 0x20 ADD SWAP1 DUP2 MSTORE PUSH1 0x20 ADD PUSH0 KECCAK256 PUSH0 DUP3 ADD MLOAD DUP2 PUSH0 ADD SSTORE PUSH1 0x20 DUP3 ADD MLOAD DUP2 PUSH1 0x1 ADD PUSH0 PUSH2 0x100 EXP DUP2 SLOAD DUP2 PUSH1 0xFF MUL NOT AND SWAP1 DUP4 PUSH1 0x7 DUP2 GT ISZERO PUSH2 0x199B JUMPI PUSH2 0x199A PUSH2 0x26A0 JUMP JUMPDEST JUMPDEST MUL OR SWAP1 SSTORE POP PUSH1 0x40 DUP3 ADD MLOAD DUP2 PUSH1 0x2 ADD SSTORE PUSH1 0x60 DUP3 ADD MLOAD DUP2 PUSH1 0x3 ADD SSTORE PUSH1 0x80 DUP3 ADD MLOAD DUP2 PUSH1 0x4 ADD SSTORE PUSH1 0xA0 DUP3 ADD MLOAD DUP2 PUSH1 0x5 ADD SSTORE PUSH1 0xC0 DUP3 ADD MLOAD DUP2 PUSH1 0x6 ADD SSTORE PUSH1 0xE0 DUP3 ADD MLOAD DUP2 PUSH1 0x7 ADD SSTORE SWAP1 POP POP PUSH2 0x19E8 DUP12 PUSH2 0x1C21 JUMP JUMPDEST POP POP POP POP POP POP POP POP POP POP POP JUMP JUMPDEST PUSH0 DUP1 PUSH0 SWAP1 SLOAD SWAP1 PUSH2 0x100 EXP SWAP1 DIV PUSH20 0xFFFFFFFFFFFFFFFFFFFFFFFFFFFFFFFFFFFFFFFF AND SWAP1 POP DUP2 PUSH0 DUP1 PUSH2 0x100 EXP DUP2 SLOAD DUP2 PUSH20 0xFFFFFFFFFFFFFFFFFFFFFFFFFFFFFFFFFFFFFFFF MUL NOT AND SWAP1 DUP4 PUSH20 0xFFFFFFFFFFFFFFFFFFFFFFFFFFFFFFFFFFFFFFFF AND MUL OR SWAP1 SSTORE POP DUP2 PUSH20 0xFFFFFFFFFFFFFFFFFFFFFFFFFFFFFFFFFFFFFFFF AND DUP2 PUSH20 0xFFFFFFFFFFFFFFFFFFFFFFFFFFFFFFFFFFFFFFFF AND PUSH32 0x8BE0079C531659141344CD1FD0A4F28419497F9722A3DAAFE3B4186F6B6457E0 PUSH1 0x40 MLOAD PUSH1 0x40 MLOAD DUP1 SWAP2 SUB SWAP1 LOG3 POP POP JUMP JUMPDEST PUSH2 0x1ABE PUSH2 0x22E5 JUMP JUMPDEST PUSH0 PUSH1 0x5 PUSH0 DUP6 PUSH20 0xFFFFFFFFFFFFFFFFFFFFFFFFFFFFFFFFFFFFFFFF AND PUSH20 0xFFFFFFFFFFFFFFFFFFFFFFFFFFFFFFFFFFFFFFFF AND DUP2 MSTORE PUSH1 0x20 ADD SWAP1 DUP2 MSTORE PUSH1 0x20 ADD PUSH0 KECCAK256 PUSH1 0x40 MLOAD DUP1 PUSH2 0x100 ADD PUSH1 0x40 MSTORE SWAP1 DUP2 PUSH0 DUP3 ADD SLOAD DUP2 MSTORE PUSH1 0x20 ADD PUSH1 0x1 DUP3 ADD PUSH0 SWAP1 SLOAD SWAP1 PUSH2 0x100 EXP SWAP1 DIV PUSH1 0xFF AND PUSH1 0x7 DUP2 GT ISZERO PUSH2 0x1B35 JUMPI PUSH2 0x1B34 PUSH2 0x26A0 JUMP JUMPDEST JUMPDEST PUSH1 0x7 DUP2 GT ISZERO PUSH2 0x1B47 JUMPI PUSH2 0x1B46 PUSH2 0x26A0 JUMP JUMPDEST JUMPDEST DUP2 MSTORE PUSH1 0x20 ADD PUSH1 0x2 DUP3 ADD SLOAD DUP2 MSTORE PUSH1 0x20 ADD PUSH1 0x3 DUP3 ADD SLOAD DUP2 MSTORE PUSH1 0x20 ADD PUSH1 0x4 DUP3 ADD SLOAD DUP2 MSTORE PUSH1 0x20 ADD PUSH1 0x5 DUP3 ADD SLOAD DUP2 MSTORE PUSH1 0x20 ADD PUSH1 0x6 DUP3 ADD SLOAD DUP2 MSTORE PUSH1 0x20 ADD PUSH1 0x7 DUP3 ADD SLOAD DUP2 MSTORE POP POP SWAP1 POP PUSH0 DUP2 PUSH0 ADD MLOAD EQ PUSH2 0x1B9C JUMPI DUP1 SWAP2 POP POP PUSH2 0x1BEC JUMP JUMPDEST PUSH1 0x40 MLOAD DUP1 PUSH2 0x100 ADD PUSH1 0x40 MSTORE DUP1 DUP5 DUP2 MSTORE PUSH1 0x20 ADD PUSH0 PUSH1 0x7 DUP2 GT ISZERO PUSH2 0x1BC1 JUMPI PUSH2 0x1BC0 PUSH2 0x26A0 JUMP JUMPDEST JUMPDEST DUP2 MSTORE PUSH1 0x20 ADD PUSH0 DUP2 MSTORE PUSH1 0x20 ADD PUSH0 DUP2 MSTORE PUSH1 0x20 ADD PUSH0 DUP2 MSTORE PUSH1 0x20 ADD PUSH0 DUP2 MSTORE PUSH1 0x20 ADD PUSH0 DUP2 MSTORE PUSH1 0x20 ADD PUSH0 DUP2 MSTORE POP SWAP2 POP POP JUMPDEST SWAP3 SWAP2 POP POP JUMP JUMPDEST PUSH0 PUSH3 0x1E8480 DUP3 DUP5 DUP7 PUSH2 0x1C04 SWAP2 SWAP1 PUSH2 0x2BFE JUMP JUMPDEST PUSH2 0x1C0E SWAP2 SWAP1 PUSH2 0x2E82 JUMP JUMPDEST PUSH2 0x1C18 SWAP2 SWAP1 PUSH2 0x2BCE JUMP JUMPDEST SWAP1 POP SWAP4 SWAP3 POP POP POP JUMP JUMPDEST PUSH0 PUSH1 0x5 PUSH0 DUP4 PUSH20 0xFFFFFFFFFFFFFFFFFFFFFFFFFFFFFFFFFFFFFFFF AND PUSH20 0xFFFFFFFFFFFFFFFFFFFFFFFFFFFFFFFFFFFFFFFF AND DUP2 MSTORE PUSH1 0x20 ADD SWAP1 DUP2 MSTORE PUSH1 0x20 ADD PUSH0 KECCAK256 PUSH1 0x40 MLOAD DUP1 PUSH2 0x100 ADD PUSH1 0x40 MSTORE SWAP1 DUP2 PUSH0 DUP3 ADD SLOAD DUP2 MSTORE PUSH1 0x20 ADD PUSH1 0x1 DUP3 ADD PUSH0 SWAP1 SLOAD SWAP1 PUSH2 0x100 EXP SWAP1 DIV PUSH1 0xFF AND PUSH1 0x7 DUP2 GT ISZERO PUSH2 0x1C98 JUMPI PUSH2 0x1C97 PUSH2 0x26A0 JUMP JUMPDEST JUMPDEST PUSH1 0x7 DUP2 GT ISZERO PUSH2 0x1CAA JUMPI PUSH2 0x1CA9 PUSH2 0x26A0 JUMP JUMPDEST JUMPDEST DUP2 MSTORE PUSH1 0x20 ADD PUSH1 0x2 DUP3 ADD SLOAD DUP2 MSTORE PUSH1 0x20 ADD PUSH1 0x3 DUP3 ADD SLOAD DUP2 MSTORE PUSH1 0x20 ADD PUSH1 0x4 DUP3 ADD SLOAD DUP2 MSTORE PUSH1 0x20 ADD PUSH1 0x5 DUP3 ADD SLOAD DUP2 MSTORE PUSH1 0x20 ADD PUSH1 0x6 DUP3 ADD SLOAD DUP2 MSTORE PUSH1 0x20 ADD PUSH1 0x7 DUP3 ADD SLOAD DUP2 MSTORE POP POP SWAP1 POP PUSH2 0x1CF4 PUSH2 0x2334 JUMP JUMPDEST PUSH0 PUSH1 0x7 PUSH0 DUP6 PUSH20 0xFFFFFFFFFFFFFFFFFFFFFFFFFFFFFFFFFFFFFFFF AND PUSH20 0xFFFFFFFFFFFFFFFFFFFFFFFFFFFFFFFFFFFFFFFF AND DUP2 MSTORE PUSH1 0x20 ADD SWAP1 DUP2 MSTORE PUSH1 0x20 ADD PUSH0 KECCAK256 SLOAD SWAP1 POP PUSH0 DUP2 SUB PUSH2 0x1E65 JUMPI PUSH1 0xC8 PUSH1 0x6 DUP1 SLOAD SWAP1 POP LT ISZERO PUSH2 0x1E58 JUMPI PUSH1 0x1 PUSH1 0x6 DUP1 SLOAD SWAP1 POP PUSH2 0x1D5C SWAP2 SWAP1 PUSH2 0x2EC3 JUMP JUMPDEST PUSH1 0x7 PUSH0 DUP7 PUSH20 0xFFFFFFFFFFFFFFFFFFFFFFFFFFFFFFFFFFFFFFFF AND PUSH20 0xFFFFFFFFFFFFFFFFFFFFFFFFFFFFFFFFFFFFFFFF AND DUP2 MSTORE PUSH1 0x20 ADD SWAP1 DUP2 MSTORE PUSH1 0x20 ADD PUSH0 KECCAK256 DUP2 SWAP1 SSTORE POP PUSH1 0x6 PUSH1 0x40 MLOAD DUP1 PUSH1 0x60 ADD PUSH1 0x40 MSTORE DUP1 DUP7 PUSH20 0xFFFFFFFFFFFFFFFFFFFFFFFFFFFFFFFFFFFFFFFF AND DUP2 MSTORE PUSH1 0x20 ADD DUP6 PUSH0 ADD MLOAD DUP2 MSTORE PUSH1 0x20 ADD DUP6 PUSH1 0xE0 ADD MLOAD DUP2 MSTORE POP SWAP1 DUP1 PUSH1 0x1 DUP2 SLOAD ADD DUP1 DUP3 SSTORE DUP1 SWAP2 POP POP PUSH1 0x1 SWAP1 SUB SWAP1 PUSH0 MSTORE PUSH1 0x20 PUSH0 KECCAK256 SWAP1 PUSH1 0x3 MUL ADD PUSH0 SWAP1 SWAP2 SWAP1 SWAP2 SWAP1 SWAP2 POP PUSH0 DUP3 ADD MLOAD DUP2 PUSH0 ADD PUSH0 PUSH2 0x100 EXP DUP2 SLOAD DUP2 PUSH20 0xFFFFFFFFFFFFFFFFFFFFFFFFFFFFFFFFFFFFFFFF MUL NOT AND SWAP1 DUP4 PUSH20 0xFFFFFFFFFFFFFFFFFFFFFFFFFFFFFFFFFFFFFFFF AND MUL OR SWAP1 SSTORE POP PUSH1 0x20 DUP3 ADD MLOAD DUP2 PUSH1 0x1 ADD SSTORE PUSH1 0x40 DUP3 ADD MLOAD DUP2 PUSH1 0x2 ADD SSTORE POP POP JUMPDEST PUSH1 0x6 DUP1 SLOAD SWAP1 POP SWAP1 POP PUSH2 0x1F25 JUMP JUMPDEST PUSH1 0x40 MLOAD DUP1 PUSH1 0x60 ADD PUSH1 0x40 MSTORE DUP1 DUP6 PUSH20 0xFFFFFFFFFFFFFFFFFFFFFFFFFFFFFFFFFFFFFFFF AND DUP2 MSTORE PUSH1 0x20 ADD DUP5 PUSH0 ADD MLOAD DUP2 MSTORE PUSH1 0x20 ADD DUP5 PUSH1 0xE0 ADD MLOAD DUP2 MSTORE POP PUSH1 0x6 PUSH1 0x1 DUP4 PUSH2 0x1EAC SWAP2 SWAP1 PUSH2 0x2BFE JUMP JUMPDEST DUP2 SLOAD DUP2 LT PUSH2 0x1EBD JUMPI PUSH2 0x1EBC PUSH2 0x2C31 JUMP JUMPDEST JUMPDEST SWAP1 PUSH0 MSTORE PUSH1 0x20 PUSH0 KECCAK256 SWAP1 PUSH1 0x3 MUL ADD PUSH0 DUP3 ADD MLOAD DUP2 PUSH0 ADD PUSH0 PUSH2 0x100 EXP DUP2 SLOAD DUP2 PUSH20 0xFFFFFFFFFFFFFFFFFFFFFFFFFFFFFFFFFFFFFFFF MUL NOT AND SWAP1 DUP4 PUSH20 0xFFFFFFFFFFFFFFFFFFFFFFFFFFFFFFFFFFFFFFFF AND MUL OR SWAP1 SSTORE POP PUSH1 0x20 DUP3 ADD MLOAD DUP2 PUSH1 0x1 ADD SSTORE PUSH1 0x40 DUP3 ADD MLOAD DUP2 PUSH1 0x2 ADD SSTORE SWAP1 POP POP JUMPDEST PUSH0 PUSH1 0x1 DUP3 PUSH2 0x1F33 SWAP2 SWAP1 PUSH2 0x2BFE JUMP JUMPDEST SWAP1 POP JUMPDEST PUSH0 DUP2 GT ISZERO PUSH2 0x22B4 JUMPI PUSH1 0x6 DUP2 DUP2 SLOAD DUP2 LT PUSH2 0x1F52 JUMPI PUSH2 0x1F51 PUSH2 0x2C31 JUMP JUMPDEST JUMPDEST SWAP1 PUSH0 MSTORE PUSH1 0x20 PUSH0 KECCAK256 SWAP1 PUSH1 0x3 MUL ADD PUSH1 0x2 ADD SLOAD PUSH1 0x6 PUSH1 0x1 DUP4 PUSH2 0x1F71 SWAP2 SWAP1 PUSH2 0x2BFE JUMP JUMPDEST DUP2 SLOAD DUP2 LT PUSH2 0x1F82 JUMPI PUSH2 0x1F81 PUSH2 0x2C31 JUMP JUMPDEST JUMPDEST SWAP1 PUSH0 MSTORE PUSH1 0x20 PUSH0 KECCAK256 SWAP1 PUSH1 0x3 MUL ADD PUSH1 0x2 ADD SLOAD LT ISZERO PUSH2 0x229E JUMPI PUSH1 0x6 DUP2 DUP2 SLOAD DUP2 LT PUSH2 0x1FAC JUMPI PUSH2 0x1FAB PUSH2 0x2C31 JUMP JUMPDEST JUMPDEST SWAP1 PUSH0 MSTORE PUSH1 0x20 PUSH0 KECCAK256 SWAP1 PUSH1 0x3 MUL ADD PUSH1 0x40 MLOAD DUP1 PUSH1 0x60 ADD PUSH1 0x40 MSTORE SWAP1 DUP2 PUSH0 DUP3 ADD PUSH0 SWAP1 SLOAD SWAP1 PUSH2 0x100 EXP SWAP1 DIV PUSH20 0xFFFFFFFFFFFFFFFFFFFFFFFFFFFFFFFFFFFFFFFF AND PUSH20 0xFFFFFFFFFFFFFFFFFFFFFFFFFFFFFFFFFFFFFFFF AND PUSH20 0xFFFFFFFFFFFFFFFFFFFFFFFFFFFFFFFFFFFFFFFF AND DUP2 MSTORE PUSH1 0x20 ADD PUSH1 0x1 DUP3 ADD SLOAD DUP2 MSTORE PUSH1 0x20 ADD PUSH1 0x2 DUP3 ADD SLOAD DUP2 MSTORE POP POP SWAP3 POP PUSH1 0x6 PUSH1 0x1 DUP3 PUSH2 0x203C SWAP2 SWAP1 PUSH2 0x2BFE JUMP JUMPDEST DUP2 SLOAD DUP2 LT PUSH2 0x204D JUMPI PUSH2 0x204C PUSH2 0x2C31 JUMP JUMPDEST JUMPDEST SWAP1 PUSH0 MSTORE PUSH1 0x20 PUSH0 KECCAK256 SWAP1 PUSH1 0x3 MUL ADD PUSH1 0x6 DUP3 DUP2 SLOAD DUP2 LT PUSH2 0x206D JUMPI PUSH2 0x206C PUSH2 0x2C31 JUMP JUMPDEST JUMPDEST SWAP1 PUSH0 MSTORE PUSH1 0x20 PUSH0 KECCAK256 SWAP1 PUSH1 0x3 MUL ADD PUSH0 DUP3 ADD PUSH0 SWAP1 SLOAD SWAP1 PUSH2 0x100 EXP SWAP1 DIV PUSH20 0xFFFFFFFFFFFFFFFFFFFFFFFFFFFFFFFFFFFFFFFF AND DUP2 PUSH0 ADD PUSH0 PUSH2 0x100 EXP DUP2 SLOAD DUP2 PUSH20 0xFFFFFFFFFFFFFFFFFFFFFFFFFFFFFFFFFFFFFFFF MUL NOT AND SWAP1 DUP4 PUSH20 0xFFFFFFFFFFFFFFFFFFFFFFFFFFFFFFFFFFFFFFFF AND MUL OR SWAP1 SSTORE POP PUSH1 0x1 DUP3 ADD SLOAD DUP2 PUSH1 0x1 ADD SSTORE PUSH1 0x2 DUP3 ADD SLOAD DUP2 PUSH1 0x2 ADD SSTORE SWAP1 POP POP DUP3 PUSH1 0x6 PUSH1 0x1 DUP4 PUSH2 0x2103 SWAP2 SWAP1 PUSH2 0x2BFE JUMP JUMPDEST DUP2 SLOAD DUP2 LT PUSH2 0x2114 JUMPI PUSH2 0x2113 PUSH2 0x2C31 JUMP JUMPDEST JUMPDEST SWAP1 PUSH0 MSTORE PUSH1 0x20 PUSH0 KECCAK256 SWAP1 PUSH1 0x3 MUL ADD PUSH0 DUP3 ADD MLOAD DUP2 PUSH0 ADD PUSH0 PUSH2 0x100 EXP DUP2 SLOAD DUP2 PUSH20 0xFFFFFFFFFFFFFFFFFFFFFFFFFFFFFFFFFFFFFFFF MUL NOT AND SWAP1 DUP4 PUSH20 0xFFFFFFFFFFFFFFFFFFFFFFFFFFFFFFFFFFFFFFFF AND MUL OR SWAP1 SSTORE POP PUSH1 0x20 DUP3 ADD MLOAD DUP2 PUSH1 0x1 ADD SSTORE PUSH1 0x40 DUP3 ADD MLOAD DUP2 PUSH1 0x2 ADD SSTORE SWAP1 POP POP DUP1 PUSH1 0x7 PUSH0 PUSH1 0x6 PUSH1 0x1 DUP6 PUSH2 0x218E SWAP2 SWAP1 PUSH2 0x2BFE JUMP JUMPDEST DUP2 SLOAD DUP2 LT PUSH2 0x219F JUMPI PUSH2 0x219E PUSH2 0x2C31 JUMP JUMPDEST JUMPDEST SWAP1 PUSH0 MSTORE PUSH1 0x20 PUSH0 KECCAK256 SWAP1 PUSH1 0x3 MUL ADD PUSH0 ADD PUSH0 SWAP1 SLOAD SWAP1 PUSH2 0x100 EXP SWAP1 DIV PUSH20 0xFFFFFFFFFFFFFFFFFFFFFFFFFFFFFFFFFFFFFFFF AND PUSH20 0xFFFFFFFFFFFFFFFFFFFFFFFFFFFFFFFFFFFFFFFF AND PUSH20 0xFFFFFFFFFFFFFFFFFFFFFFFFFFFFFFFFFFFFFFFF AND DUP2 MSTORE PUSH1 0x20 ADD SWAP1 DUP2 MSTORE PUSH1 0x20 ADD PUSH0 KECCAK256 DUP2 SWAP1 SSTORE POP PUSH1 0x1 DUP2 PUSH2 0x2217 SWAP2 SWAP1 PUSH2 0x2EC3 JUMP JUMPDEST PUSH1 0x7 PUSH0 PUSH1 0x6 DUP5 DUP2 SLOAD DUP2 LT PUSH2 0x222E JUMPI PUSH2 0x222D PUSH2 0x2C31 JUMP JUMPDEST JUMPDEST SWAP1 PUSH0 MSTORE PUSH1 0x20 PUSH0 KECCAK256 SWAP1 PUSH1 0x3 MUL ADD PUSH0 ADD PUSH0 SWAP1 SLOAD SWAP1 PUSH2 0x100 EXP SWAP1 DIV PUSH20 0xFFFFFFFFFFFFFFFFFFFFFFFFFFFFFFFFFFFFFFFF AND PUSH20 0xFFFFFFFFFFFFFFFFFFFFFFFFFFFFFFFFFFFFFFFF AND PUSH20 0xFFFFFFFFFFFFFFFFFFFFFFFFFFFFFFFFFFFFFFFF AND DUP2 MSTORE PUSH1 0x20 ADD SWAP1 DUP2 MSTORE PUSH1 0x20 ADD PUSH0 KECCAK256 DUP2 SWAP1 SSTORE POP PUSH2 0x22A3 JUMP JUMPDEST PUSH2 0x22B4 JUMP JUMPDEST DUP1 PUSH2 0x22AD SWAP1 PUSH2 0x2C5E JUMP JUMPDEST SWAP1 POP PUSH2 0x1F36 JUMP JUMPDEST POP POP POP POP POP JUMP JUMPDEST PUSH0 CALLER SWAP1 POP SWAP1 JUMP JUMPDEST PUSH1 0x40 MLOAD DUP1 PUSH2 0x100 ADD PUSH1 0x40 MSTORE DUP1 PUSH1 0x8 SWAP1 PUSH1 0x20 DUP3 MUL DUP1 CALLDATASIZE DUP4 CALLDATACOPY DUP1 DUP3 ADD SWAP2 POP POP SWAP1 POP POP SWAP1 JUMP JUMPDEST PUSH1 0x40 MLOAD DUP1 PUSH2 0x100 ADD PUSH1 0x40 MSTORE DUP1 PUSH0 DUP2 MSTORE PUSH1 0x20 ADD PUSH0 PUSH1 0x7 DUP2 GT ISZERO PUSH2 0x230A JUMPI PUSH2 0x2309 PUSH2 0x26A0 JUMP JUMPDEST JUMPDEST DUP2 MSTORE PUSH1 0x20 ADD PUSH0 DUP2 MSTORE PUSH1 0x20 ADD PUSH0 DUP2 MSTORE PUSH1 0x20 ADD PUSH0 DUP2 MSTORE PUSH1 0x20 ADD PUSH0 DUP2 MSTORE PUSH1 0x20 ADD PUSH0 DUP2 MSTORE PUSH1 0x20 ADD PUSH0 DUP2 MSTORE POP SWAP1 JUMP JUMPDEST PUSH1 0x40 MLOAD DUP1 PUSH1 0x60 ADD PUSH1 0x40 MSTORE DUP1 PUSH0 PUSH20 0xFFFFFFFFFFFFFFFFFFFFFFFFFFFFFFFFFFFFFFFF AND DUP2 MSTORE PUSH1 0x20 ADD PUSH0 DUP2 MSTORE PUSH1 0x20 ADD PUSH0 DUP2 MSTORE POP SWAP1 JUMP JUMPDEST PUSH0 DUP2 MLOAD SWAP1 POP SWAP2 SWAP1 POP JUMP JUMPDEST PUSH0 DUP3 DUP3 MSTORE PUSH1 0x20 DUP3 ADD SWAP1 POP SWAP3 SWAP2 POP POP JUMP JUMPDEST PUSH0 DUP2 SWAP1 POP PUSH1 0x20 DUP3 ADD SWAP1 POP SWAP2 SWAP1 POP JUMP JUMPDEST PUSH0 PUSH20 0xFFFFFFFFFFFFFFFFFFFFFFFFFFFFFFFFFFFFFFFF DUP3 AND SWAP1 POP SWAP2 SWAP1 POP JUMP JUMPDEST PUSH0 PUSH2 0x23BA DUP3 PUSH2 0x2391 JUMP JUMPDEST SWAP1 POP SWAP2 SWAP1 POP JUMP JUMPDEST PUSH2 0x23CA DUP2 PUSH2 0x23B0 JUMP JUMPDEST DUP3 MSTORE POP POP JUMP JUMPDEST PUSH0 PUSH2 0x23DB DUP4 DUP4 PUSH2 0x23C1 JUMP JUMPDEST PUSH1 0x20 DUP4 ADD SWAP1 POP SWAP3 SWAP2 POP POP JUMP JUMPDEST PUSH0 PUSH1 0x20 DUP3 ADD SWAP1 POP SWAP2 SWAP1 POP JUMP JUMPDEST PUSH0 PUSH2 0x23FD DUP3 PUSH2 0x2368 JUMP JUMPDEST PUSH2 0x2407 DUP2 DUP6 PUSH2 0x2372 JUMP JUMPDEST SWAP4 POP PUSH2 0x2412 DUP4 PUSH2 0x2382 JUMP JUMPDEST DUP1 PUSH0 JUMPDEST DUP4 DUP2 LT ISZERO PUSH2 0x2442 JUMPI DUP2 MLOAD PUSH2 0x2429 DUP9 DUP3 PUSH2 0x23D0 JUMP JUMPDEST SWAP8 POP PUSH2 0x2434 DUP4 PUSH2 0x23E7 JUMP JUMPDEST SWAP3 POP POP PUSH1 0x1 DUP2 ADD SWAP1 POP PUSH2 0x2415 JUMP JUMPDEST POP DUP6 SWAP4 POP POP POP POP SWAP3 SWAP2 POP POP JUMP JUMPDEST PUSH0 PUSH1 0x20 DUP3 ADD SWAP1 POP DUP2 DUP2 SUB PUSH0 DUP4 ADD MSTORE PUSH2 0x2467 DUP2 DUP5 PUSH2 0x23F3 JUMP JUMPDEST SWAP1 POP SWAP3 SWAP2 POP POP JUMP JUMPDEST PUSH0 PUSH1 0x8 SWAP1 POP SWAP2 SWAP1 POP JUMP JUMPDEST PUSH0 DUP2 SWAP1 POP SWAP3 SWAP2 POP POP JUMP JUMPDEST PUSH0 DUP2 SWAP1 POP SWAP2 SWAP1 POP JUMP JUMPDEST PUSH0 PUSH2 0xFFFF DUP3 AND SWAP1 POP SWAP2 SWAP1 POP JUMP JUMPDEST PUSH2 0x24A2 DUP2 PUSH2 0x248C JUMP JUMPDEST DUP3 MSTORE POP POP JUMP JUMPDEST PUSH0 PUSH2 0x24B3 DUP4 DUP4 PUSH2 0x2499 JUMP JUMPDEST PUSH1 0x20 DUP4 ADD SWAP1 POP SWAP3 SWAP2 POP POP JUMP JUMPDEST PUSH0 PUSH1 0x20 DUP3 ADD SWAP1 POP SWAP2 SWAP1 POP JUMP JUMPDEST PUSH2 0x24D4 DUP2 PUSH2 0x246F JUMP JUMPDEST PUSH2 0x24DE DUP2 DUP5 PUSH2 0x2479 JUMP JUMPDEST SWAP3 POP PUSH2 0x24E9 DUP3 PUSH2 0x2483 JUMP JUMPDEST DUP1 PUSH0 JUMPDEST DUP4 DUP2 LT ISZERO PUSH2 0x2519 JUMPI DUP2 MLOAD PUSH2 0x2500 DUP8 DUP3 PUSH2 0x24A8 JUMP JUMPDEST SWAP7 POP PUSH2 0x250B DUP4 PUSH2 0x24BF JUMP JUMPDEST SWAP3 POP POP PUSH1 0x1 DUP2 ADD SWAP1 POP PUSH2 0x24EC JUMP JUMPDEST POP POP POP POP POP POP JUMP JUMPDEST PUSH0 PUSH2 0x100 DUP3 ADD SWAP1 POP PUSH2 0x2535 PUSH0 DUP4 ADD DUP5 PUSH2 0x24CB JUMP JUMPDEST SWAP3 SWAP2 POP POP JUMP JUMPDEST PUSH0 DUP1 REVERT JUMPDEST PUSH2 0x2548 DUP2 PUSH2 0x23B0 JUMP JUMPDEST DUP2 EQ PUSH2 0x2552 JUMPI PUSH0 DUP1 REVERT JUMPDEST POP JUMP JUMPDEST PUSH0 DUP2 CALLDATALOAD SWAP1 POP PUSH2 0x2563 DUP2 PUSH2 0x253F JUMP JUMPDEST SWAP3 SWAP2 POP POP JUMP JUMPDEST PUSH0 DUP2 SWAP1 POP SWAP2 SWAP1 POP JUMP JUMPDEST PUSH2 0x257B DUP2 PUSH2 0x2569 JUMP JUMPDEST DUP2 EQ PUSH2 0x2585 JUMPI PUSH0 DUP1 REVERT JUMPDEST POP JUMP JUMPDEST PUSH0 DUP2 CALLDATALOAD SWAP1 POP PUSH2 0x2596 DUP2 PUSH2 0x2572 JUMP JUMPDEST SWAP3 SWAP2 POP POP JUMP JUMPDEST PUSH0 DUP1 PUSH1 0x40 DUP4 DUP6 SUB SLT ISZERO PUSH2 0x25B2 JUMPI PUSH2 0x25B1 PUSH2 0x253B JUMP JUMPDEST JUMPDEST PUSH0 PUSH2 0x25BF DUP6 DUP3 DUP7 ADD PUSH2 0x2555 JUMP JUMPDEST SWAP3 POP POP PUSH1 0x20 PUSH2 0x25D0 DUP6 DUP3 DUP7 ADD PUSH2 0x2588 JUMP JUMPDEST SWAP2 POP POP SWAP3 POP SWAP3 SWAP1 POP JUMP JUMPDEST PUSH2 0x25E3 DUP2 PUSH2 0x2569 JUMP JUMPDEST DUP3 MSTORE POP POP JUMP JUMPDEST PUSH0 PUSH1 0x20 DUP3 ADD SWAP1 POP PUSH2 0x25FC PUSH0 DUP4 ADD DUP5 PUSH2 0x25DA JUMP JUMPDEST SWAP3 SWAP2 POP POP JUMP JUMPDEST PUSH0 DUP1 PUSH0 DUP1 PUSH1 0x80 DUP6 DUP8 SUB SLT ISZERO PUSH2 0x261A JUMPI PUSH2 0x2619 PUSH2 0x253B JUMP JUMPDEST JUMPDEST PUSH0 PUSH2 0x2627 DUP8 DUP3 DUP9 ADD PUSH2 0x2555 JUMP JUMPDEST SWAP5 POP POP PUSH1 0x20 PUSH2 0x2638 DUP8 DUP3 DUP9 ADD PUSH2 0x2588 JUMP JUMPDEST SWAP4 POP POP PUSH1 0x40 PUSH2 0x2649 DUP8 DUP3 DUP9 ADD PUSH2 0x2588 JUMP JUMPDEST SWAP3 POP POP PUSH1 0x60 PUSH2 0x265A DUP8 DUP3 DUP9 ADD PUSH2 0x2588 JUMP JUMPDEST SWAP2 POP POP SWAP3 SWAP6 SWAP2 SWAP5 POP SWAP3 POP JUMP JUMPDEST PUSH0 PUSH1 0x20 DUP3 DUP5 SUB SLT ISZERO PUSH2 0x267B JUMPI PUSH2 0x267A PUSH2 0x253B JUMP JUMPDEST JUMPDEST PUSH0 PUSH2 0x2688 DUP5 DUP3 DUP6 ADD PUSH2 0x2555 JUMP JUMPDEST SWAP2 POP POP SWAP3 SWAP2 POP POP JUMP JUMPDEST PUSH2 0x269A DUP2 PUSH2 0x2569 JUMP JUMPDEST DUP3 MSTORE POP POP JUMP JUMPDEST PUSH32 0x4E487B7100000000000000000000000000000000000000000000000000000000 PUSH0 MSTORE PUSH1 0x21 PUSH1 0x4 MSTORE PUSH1 0x24 PUSH0 REVERT JUMPDEST PUSH1 0x8 DUP2 LT PUSH2 0x26DE JUMPI PUSH2 0x26DD PUSH2 0x26A0 JUMP JUMPDEST JUMPDEST POP JUMP JUMPDEST PUSH0 DUP2 SWAP1 POP PUSH2 0x26EE DUP3 PUSH2 0x26CD JUMP JUMPDEST SWAP2 SWAP1 POP JUMP JUMPDEST PUSH0 PUSH2 0x26FD DUP3 PUSH2 0x26E1 JUMP JUMPDEST SWAP1 POP SWAP2 SWAP1 POP JUMP JUMPDEST PUSH2 0x270D DUP2 PUSH2 0x26F3 JUMP JUMPDEST DUP3 MSTORE POP POP JUMP JUMPDEST PUSH2 0x100 DUP3 ADD PUSH0 DUP3 ADD MLOAD PUSH2 0x2728 PUSH0 DUP6 ADD DUP3 PUSH2 0x2691 JUMP JUMPDEST POP PUSH1 0x20 DUP3 ADD MLOAD PUSH2 0x273B PUSH1 0x20 DUP6 ADD DUP3 PUSH2 0x2704 JUMP JUMPDEST POP PUSH1 0x40 DUP3 ADD MLOAD PUSH2 0x274E PUSH1 0x40 DUP6 ADD DUP3 PUSH2 0x2691 JUMP JUMPDEST POP PUSH1 0x60 DUP3 ADD MLOAD PUSH2 0x2761 PUSH1 0x60 DUP6 ADD DUP3 PUSH2 0x2691 JUMP JUMPDEST POP PUSH1 0x80 DUP3 ADD MLOAD PUSH2 0x2774 PUSH1 0x80 DUP6 ADD DUP3 PUSH2 0x2691 JUMP JUMPDEST POP PUSH1 0xA0 DUP3 ADD MLOAD PUSH2 0x2787 PUSH1 0xA0 DUP6 ADD DUP3 PUSH2 0x2691 JUMP JUMPDEST POP PUSH1 0xC0 DUP3 ADD MLOAD PUSH2 0x279A PUSH1 0xC0 DUP6 ADD DUP3 PUSH2 0x2691 JUMP JUMPDEST POP PUSH1 0xE0 DUP3 ADD MLOAD PUSH2 0x27AD PUSH1 0xE0 DUP6 ADD DUP3 PUSH2 0x2691 JUMP JUMPDEST POP POP POP POP JUMP JUMPDEST PUSH0 PUSH2 0x100 DUP3 ADD SWAP1 POP PUSH2 0x27C7 PUSH0 DUP4 ADD DUP5 PUSH2 0x2713 JUMP JUMPDEST SWAP3 SWAP2 POP POP JUMP JUMPDEST PUSH0 DUP2 ISZERO ISZERO SWAP1 POP SWAP2 SWAP1 POP JUMP JUMPDEST PUSH2 0x27E1 DUP2 PUSH2 0x27CD JUMP JUMPDEST DUP3 MSTORE POP POP JUMP JUMPDEST PUSH0 PUSH1 0x20 DUP3 ADD SWAP1 POP PUSH2 0x27FA PUSH0 DUP4 ADD DUP5 PUSH2 0x27D8 JUMP JUMPDEST SWAP3 SWAP2 POP POP JUMP JUMPDEST PUSH1 0x8 DUP2 LT PUSH2 0x280C JUMPI PUSH0 DUP1 REVERT JUMPDEST POP JUMP JUMPDEST PUSH0 DUP2 CALLDATALOAD SWAP1 POP PUSH2 0x281D DUP2 PUSH2 0x2800 JUMP JUMPDEST SWAP3 SWAP2 POP POP JUMP JUMPDEST PUSH2 0x282C DUP2 PUSH2 0x248C JUMP JUMPDEST DUP2 EQ PUSH2 0x2836 JUMPI PUSH0 DUP1 REVERT JUMPDEST POP JUMP JUMPDEST PUSH0 DUP2 CALLDATALOAD SWAP1 POP PUSH2 0x2847 DUP2 PUSH2 0x2823 JUMP JUMPDEST SWAP3 SWAP2 POP POP JUMP JUMPDEST PUSH0 DUP1 PUSH1 0x40 DUP4 DUP6 SUB SLT ISZERO PUSH2 0x2863 JUMPI PUSH2 0x2862 PUSH2 0x253B JUMP JUMPDEST JUMPDEST PUSH0 PUSH2 0x2870 DUP6 DUP3 DUP7 ADD PUSH2 0x280F JUMP JUMPDEST SWAP3 POP POP PUSH1 0x20 PUSH2 0x2881 DUP6 DUP3 DUP7 ADD PUSH2 0x2839 JUMP JUMPDEST SWAP2 POP POP SWAP3 POP SWAP3 SWAP1 POP JUMP JUMPDEST PUSH0 DUP2 MLOAD SWAP1 POP SWAP2 SWAP1 POP JUMP JUMPDEST PUSH0 DUP3 DUP3 MSTORE PUSH1 0x20 DUP3 ADD SWAP1 POP SWAP3 SWAP2 POP POP JUMP JUMPDEST PUSH0 DUP2 SWAP1 POP PUSH1 0x20 DUP3 ADD SWAP1 POP SWAP2 SWAP1 POP JUMP JUMPDEST PUSH2 0x100 DUP3 ADD PUSH0 DUP3 ADD MLOAD PUSH2 0x28C9 PUSH0 DUP6 ADD DUP3 PUSH2 0x2691 JUMP JUMPDEST POP PUSH1 0x20 DUP3 ADD MLOAD PUSH2 0x28DC PUSH1 0x20 DUP6 ADD DUP3 PUSH2 0x2704 JUMP JUMPDEST POP PUSH1 0x40 DUP3 ADD MLOAD PUSH2 0x28EF PUSH1 0x40 DUP6 ADD DUP3 PUSH2 0x2691 JUMP JUMPDEST POP PUSH1 0x60 DUP3 ADD MLOAD PUSH2 0x2902 PUSH1 0x60 DUP6 ADD DUP3 PUSH2 0x2691 JUMP JUMPDEST POP PUSH1 0x80 DUP3 ADD MLOAD PUSH2 0x2915 PUSH1 0x80 DUP6 ADD DUP3 PUSH2 0x2691 JUMP JUMPDEST POP PUSH1 0xA0 DUP3 ADD MLOAD PUSH2 0x2928 PUSH1 0xA0 DUP6 ADD DUP3 PUSH2 0x2691 JUMP JUMPDEST POP PUSH1 0xC0 DUP3 ADD MLOAD PUSH2 0x293B PUSH1 0xC0 DUP6 ADD DUP3 PUSH2 0x2691 JUMP JUMPDEST POP PUSH1 0xE0 DUP3 ADD MLOAD PUSH2 0x294E PUSH1 0xE0 DUP6 ADD DUP3 PUSH2 0x2691 JUMP JUMPDEST POP POP POP POP JUMP JUMPDEST PUSH0 PUSH2 0x295F DUP4 DUP4 PUSH2 0x28B4 JUMP JUMPDEST PUSH2 0x100 DUP4 ADD SWAP1 POP SWAP3 SWAP2 POP POP JUMP JUMPDEST PUSH0 PUSH1 0x20 DUP3 ADD SWAP1 POP SWAP2 SWAP1 POP JUMP JUMPDEST PUSH0 PUSH2 0x2982 DUP3 PUSH2 0x288B JUMP JUMPDEST PUSH2 0x298C DUP2 DUP6 PUSH2 0x2895 JUMP JUMPDEST SWAP4 POP PUSH2 0x2997 DUP4 PUSH2 0x28A5 JUMP JUMPDEST DUP1 PUSH0 JUMPDEST DUP4 DUP2 LT ISZERO PUSH2 0x29C7 JUMPI DUP2 MLOAD PUSH2 0x29AE DUP9 DUP3 PUSH2 0x2954 JUMP JUMPDEST SWAP8 POP PUSH2 0x29B9 DUP4 PUSH2 0x296C JUMP JUMPDEST SWAP3 POP POP PUSH1 0x1 DUP2 ADD SWAP1 POP PUSH2 0x299A JUMP JUMPDEST POP DUP6 SWAP4 POP POP POP POP SWAP3 SWAP2 POP POP JUMP JUMPDEST PUSH0 PUSH1 0x20 DUP3 ADD SWAP1 POP DUP2 DUP2 SUB PUSH0 DUP4 ADD MSTORE PUSH2 0x29EC DUP2 DUP5 PUSH2 0x2978 JUMP JUMPDEST SWAP1 POP SWAP3 SWAP2 POP POP JUMP JUMPDEST PUSH2 0x29FD DUP2 PUSH2 0x23B0 JUMP JUMPDEST DUP3 MSTORE POP POP JUMP JUMPDEST PUSH0 PUSH1 0x20 DUP3 ADD SWAP1 POP PUSH2 0x2A16 PUSH0 DUP4 ADD DUP5 PUSH2 0x29F4 JUMP JUMPDEST SWAP3 SWAP2 POP POP JUMP JUMPDEST PUSH0 DUP2 MLOAD SWAP1 POP SWAP2 SWAP1 POP JUMP JUMPDEST PUSH0 DUP3 DUP3 MSTORE PUSH1 0x20 DUP3 ADD SWAP1 POP SWAP3 SWAP2 POP POP JUMP JUMPDEST PUSH0 DUP2 SWAP1 POP PUSH1 0x20 DUP3 ADD SWAP1 POP SWAP2 SWAP1 POP JUMP JUMPDEST PUSH1 0x60 DUP3 ADD PUSH0 DUP3 ADD MLOAD PUSH2 0x2A59 PUSH0 DUP6 ADD DUP3 PUSH2 0x23C1 JUMP JUMPDEST POP PUSH1 0x20 DUP3 ADD MLOAD PUSH2 0x2A6C PUSH1 0x20 DUP6 ADD DUP3 PUSH2 0x2691 JUMP JUMPDEST POP PUSH1 0x40 DUP3 ADD MLOAD PUSH2 0x2A7F PUSH1 0x40 DUP6 ADD DUP3 PUSH2 0x2691 JUMP JUMPDEST POP POP POP POP JUMP JUMPDEST PUSH0 PUSH2 0x2A90 DUP4 DUP4 PUSH2 0x2A45 JUMP JUMPDEST PUSH1 0x60 DUP4 ADD SWAP1 POP SWAP3 SWAP2 POP POP JUMP JUMPDEST PUSH0 PUSH1 0x20 DUP3 ADD SWAP1 POP SWAP2 SWAP1 POP JUMP JUMPDEST PUSH0 PUSH2 0x2AB2 DUP3 PUSH2 0x2A1C JUMP JUMPDEST PUSH2 0x2ABC DUP2 DUP6 PUSH2 0x2A26 JUMP JUMPDEST SWAP4 POP PUSH2 0x2AC7 DUP4 PUSH2 0x2A36 JUMP JUMPDEST DUP1 PUSH0 JUMPDEST DUP4 DUP2 LT ISZERO PUSH2 0x2AF7 JUMPI DUP2 MLOAD PUSH2 0x2ADE DUP9 DUP3 PUSH2 0x2A85 JUMP JUMPDEST SWAP8 POP PUSH2 0x2AE9 DUP4 PUSH2 0x2A9C JUMP JUMPDEST SWAP3 POP POP PUSH1 0x1 DUP2 ADD SWAP1 POP PUSH2 0x2ACA JUMP JUMPDEST POP DUP6 SWAP4 POP POP POP POP SWAP3 SWAP2 POP POP JUMP JUMPDEST PUSH0 PUSH1 0x20 DUP3 ADD SWAP1 POP DUP2 DUP2 SUB PUSH0 DUP4 ADD MSTORE PUSH2 0x2B1C DUP2 DUP5 PUSH2 0x2AA8 JUMP JUMPDEST SWAP1 POP SWAP3 SWAP2 POP POP JUMP JUMPDEST PUSH0 DUP1 PUSH0 PUSH1 0x60 DUP5 DUP7 SUB SLT ISZERO PUSH2 0x2B3B JUMPI PUSH2 0x2B3A PUSH2 0x253B JUMP JUMPDEST JUMPDEST PUSH0 PUSH2 0x2B48 DUP7 DUP3 DUP8 ADD PUSH2 0x2555 JUMP JUMPDEST SWAP4 POP POP PUSH1 0x20 PUSH2 0x2B59 DUP7 DUP3 DUP8 ADD PUSH2 0x2588 JUMP JUMPDEST SWAP3 POP POP PUSH1 0x40 PUSH2 0x2B6A DUP7 DUP3 DUP8 ADD PUSH2 0x2588 JUMP JUMPDEST SWAP2 POP POP SWAP3 POP SWAP3 POP SWAP3 JUMP JUMPDEST PUSH32 0x4E487B7100000000000000000000000000000000000000000000000000000000 PUSH0 MSTORE PUSH1 0x12 PUSH1 0x4 MSTORE PUSH1 0x24 PUSH0 REVERT JUMPDEST PUSH32 0x4E487B7100000000000000000000000000000000000000000000000000000000 PUSH0 MSTORE PUSH1 0x11 PUSH1 0x4 MSTORE PUSH1 0x24 PUSH0 REVERT JUMPDEST PUSH0 PUSH2 0x2BD8 DUP3 PUSH2 0x2569 JUMP JUMPDEST SWAP2 POP PUSH2 0x2BE3 DUP4 PUSH2 0x2569 JUMP JUMPDEST SWAP3 POP DUP3 PUSH2 0x2BF3 JUMPI PUSH2 0x2BF2 PUSH2 0x2B74 JUMP JUMPDEST JUMPDEST DUP3 DUP3 DIV SWAP1 POP SWAP3 SWAP2 POP POP JUMP JUMPDEST PUSH0 PUSH2 0x2C08 DUP3 PUSH2 0x2569 JUMP JUMPDEST SWAP2 POP PUSH2 0x2C13 DUP4 PUSH2 0x2569 JUMP JUMPDEST SWAP3 POP DUP3 DUP3 SUB SWAP1 POP DUP2 DUP2 GT ISZERO PUSH2 0x2C2B JUMPI PUSH2 0x2C2A PUSH2 0x2BA1 JUMP JUMPDEST JUMPDEST SWAP3 SWAP2 POP POP JUMP JUMPDEST PUSH32 0x4E487B7100000000000000000000000000000000000000000000000000000000 PUSH0 MSTORE PUSH1 0x32 PUSH1 0x4 MSTORE PUSH1 0x24 PUSH0 REVERT JUMPDEST PUSH0 PUSH2 0x2C68 DUP3 PUSH2 0x2569 JUMP JUMPDEST SWAP2 POP PUSH0 DUP3 SUB PUSH2 0x2C7A JUMPI PUSH2 0x2C79 PUSH2 0x2BA1 JUMP JUMPDEST JUMPDEST PUSH1 0x1 DUP3 SUB SWAP1 POP SWAP2 SWAP1 POP JUMP JUMPDEST PUSH0 DUP3 DUP3 MSTORE PUSH1 0x20 DUP3 ADD SWAP1 POP SWAP3 SWAP2 POP POP JUMP JUMPDEST PUSH32 0x416C726561647920436865636B65642D696E0000000000000000000000000000 PUSH0 DUP3 ADD MSTORE POP JUMP JUMPDEST PUSH0 PUSH2 0x2CC9 PUSH1 0x12 DUP4 PUSH2 0x2C85 JUMP JUMPDEST SWAP2 POP PUSH2 0x2CD4 DUP3 PUSH2 0x2C95 JUMP JUMPDEST PUSH1 0x20 DUP3 ADD SWAP1 POP SWAP2 SWAP1 POP JUMP JUMPDEST PUSH0 PUSH1 0x20 DUP3 ADD SWAP1 POP DUP2 DUP2 SUB PUSH0 DUP4 ADD MSTORE PUSH2 0x2CF6 DUP2 PUSH2 0x2CBD JUMP JUMPDEST SWAP1 POP SWAP2 SWAP1 POP JUMP JUMPDEST PUSH0 DUP2 PUSH1 0x1 SHR SWAP1 POP SWAP2 SWAP1 POP JUMP JUMPDEST PUSH0 DUP1 DUP3 SWAP2 POP DUP4 SWAP1 POP JUMPDEST PUSH1 0x1 DUP6 GT ISZERO PUSH2 0x2D52 JUMPI DUP1 DUP7 DIV DUP2 GT ISZERO PUSH2 0x2D2E JUMPI PUSH2 0x2D2D PUSH2 0x2BA1 JUMP JUMPDEST JUMPDEST PUSH1 0x1 DUP6 AND ISZERO PUSH2 0x2D3D JUMPI DUP1 DUP3 MUL SWAP2 POP JUMPDEST DUP1 DUP2 MUL SWAP1 POP PUSH2 0x2D4B DUP6 PUSH2 0x2CFD JUMP JUMPDEST SWAP5 POP PUSH2 0x2D12 JUMP JUMPDEST SWAP5 POP SWAP5 SWAP3 POP POP POP JUMP JUMPDEST PUSH0 DUP3 PUSH2 0x2D6A JUMPI PUSH1 0x1 SWAP1 POP PUSH2 0x2E25 JUMP JUMPDEST DUP2 PUSH2 0x2D77 JUMPI PUSH0 SWAP1 POP PUSH2 0x2E25 JUMP JUMPDEST DUP2 PUSH1 0x1 DUP2 EQ PUSH2 0x2D8D JUMPI PUSH1 0x2 DUP2 EQ PUSH2 0x2D97 JUMPI PUSH2 0x2DC6 JUMP JUMPDEST PUSH1 0x1 SWAP2 POP POP PUSH2 0x2E25 JUMP JUMPDEST PUSH1 0xFF DUP5 GT ISZERO PUSH2 0x2DA9 JUMPI PUSH2 0x2DA8 PUSH2 0x2BA1 JUMP JUMPDEST JUMPDEST DUP4 PUSH1 0x2 EXP SWAP2 POP DUP5 DUP3 GT ISZERO PUSH2 0x2DC0 JUMPI PUSH2 0x2DBF PUSH2 0x2BA1 JUMP JUMPDEST JUMPDEST POP PUSH2 0x2E25 JUMP JUMPDEST POP PUSH1 0x20 DUP4 LT PUSH2 0x133 DUP4 LT AND PUSH1 0x4E DUP5 LT PUSH1 0xB DUP5 LT AND OR ISZERO PUSH2 0x2DFB JUMPI DUP3 DUP3 EXP SWAP1 POP DUP4 DUP2 GT ISZERO PUSH2 0x2DF6 JUMPI PUSH2 0x2DF5 PUSH2 0x2BA1 JUMP JUMPDEST JUMPDEST PUSH2 0x2E25 JUMP JUMPDEST PUSH2 0x2E08 DUP5 DUP5 DUP5 PUSH1 0x1 PUSH2 0x2D09 JUMP JUMPDEST SWAP3 POP SWAP1 POP DUP2 DUP5 DIV DUP2 GT ISZERO PUSH2 0x2E1F JUMPI PUSH2 0x2E1E PUSH2 0x2BA1 JUMP JUMPDEST JUMPDEST DUP2 DUP2 MUL SWAP1 POP JUMPDEST SWAP4 SWAP3 POP POP POP JUMP JUMPDEST PUSH0 PUSH1 0xFF DUP3 AND SWAP1 POP SWAP2 SWAP1 POP JUMP JUMPDEST PUSH0 PUSH2 0x2E42 DUP3 PUSH2 0x2569 JUMP JUMPDEST SWAP2 POP PUSH2 0x2E4D DUP4 PUSH2 0x2E2C JUMP JUMPDEST SWAP3 POP PUSH2 0x2E7A PUSH32 0xFFFFFFFFFFFFFFFFFFFFFFFFFFFFFFFFFFFFFFFFFFFFFFFFFFFFFFFFFFFFFFFF DUP5 DUP5 PUSH2 0x2D5B JUMP JUMPDEST SWAP1 POP SWAP3 SWAP2 POP POP JUMP JUMPDEST PUSH0 PUSH2 0x2E8C DUP3 PUSH2 0x2569 JUMP JUMPDEST SWAP2 POP PUSH2 0x2E97 DUP4 PUSH2 0x2569 JUMP JUMPDEST SWAP3 POP DUP3 DUP3 MUL PUSH2 0x2EA5 DUP2 PUSH2 0x2569 JUMP JUMPDEST SWAP2 POP DUP3 DUP3 DIV DUP5 EQ DUP4 ISZERO OR PUSH2 0x2EBC JUMPI PUSH2 0x2EBB PUSH2 0x2BA1 JUMP JUMPDEST JUMPDEST POP SWAP3 SWAP2 POP POP JUMP JUMPDEST PUSH0 PUSH2 0x2ECD DUP3 PUSH2 0x2569 JUMP JUMPDEST SWAP2 POP PUSH2 0x2ED8 DUP4 PUSH2 0x2569 JUMP JUMPDEST SWAP3 POP DUP3 DUP3 ADD SWAP1 POP DUP1 DUP3 GT ISZERO PUSH2 0x2EF0 JUMPI PUSH2 0x2EEF PUSH2 0x2BA1 JUMP JUMPDEST JUMPDEST SWAP3 SWAP2 POP POP JUMP JUMPDEST PUSH32 0x4E4F5F4441544100000000000000000000000000000000000000000000000000 PUSH0 DUP3 ADD MSTORE POP JUMP JUMPDEST PUSH0 PUSH2 0x2F2A PUSH1 0x7 DUP4 PUSH2 0x2C85 JUMP JUMPDEST SWAP2 POP PUSH2 0x2F35 DUP3 PUSH2 0x2EF6 JUMP JUMPDEST PUSH1 0x20 DUP3 ADD SWAP1 POP SWAP2 SWAP1 POP JUMP JUMPDEST PUSH0 PUSH1 0x20 DUP3 ADD SWAP1 POP DUP2 DUP2 SUB PUSH0 DUP4 ADD MSTORE PUSH2 0x2F57 DUP2 PUSH2 0x2F1E JUMP JUMPDEST SWAP1 POP SWAP2 SWAP1 POP JUMP JUMPDEST PUSH32 0x494E56414C49445F50414745203A206E6F204461746120696E20746869732070 PUSH0 DUP3 ADD MSTORE PUSH32 0x6167650000000000000000000000000000000000000000000000000000000000 PUSH1 0x20 DUP3 ADD MSTORE POP JUMP JUMPDEST PUSH0 PUSH2 0x2FB8 PUSH1 0x23 DUP4 PUSH2 0x2C85 JUMP JUMPDEST SWAP2 POP PUSH2 0x2FC3 DUP3 PUSH2 0x2F5E JUMP JUMPDEST PUSH1 0x40 DUP3 ADD SWAP1 POP SWAP2 SWAP1 POP JUMP JUMPDEST PUSH0 PUSH1 0x20 DUP3 ADD SWAP1 POP DUP2 DUP2 SUB PUSH0 DUP4 ADD MSTORE PUSH2 0x2FE5 DUP2 PUSH2 0x2FAC JUMP JUMPDEST SWAP1 POP SWAP2 SWAP1 POP JUMP JUMPDEST PUSH32 0x4E487B7100000000000000000000000000000000000000000000000000000000 PUSH0 MSTORE PUSH1 0x41 PUSH1 0x4 MSTORE PUSH1 0x24 PUSH0 REVERT JUMPDEST PUSH0 PUSH2 0x3023 DUP3 PUSH2 0x2569 JUMP JUMPDEST SWAP2 POP PUSH32 0xFFFFFFFFFFFFFFFFFFFFFFFFFFFFFFFFFFFFFFFFFFFFFFFFFFFFFFFFFFFFFFFF DUP3 SUB PUSH2 0x3055 JUMPI PUSH2 0x3054 PUSH2 0x2BA1 JUMP JUMPDEST JUMPDEST PUSH1 0x1 DUP3 ADD SWAP1 POP SWAP2 SWAP1 POP JUMP INVALID LOG2 PUSH5 0x6970667358 0x22 SLT KECCAK256 0xB5 PUSH16 0x3ACC20FCDD5F864EF8BDA7515055BF98 0xB3 0xB7 DUP7 0xD8 SWAP14 ORIGIN INVALID PUSH16 0xDD937F0107E364736F6C634300081800 CALLER "
		},
		"gasEstimates": {
			"creation": {
				"codeDepositCost": "2487600",
				"executionCost": "infinite",
				"totalCost": "infinite"
			},
			"external": {
				"checkDuplicateCheckIn(address)": "infinite",
				"doDailyCheckIn()": "infinite",
				"getHistory(address)": "infinite",
				"getHistory(address,uint256)": "infinite",
				"getHistory(address,uint256,uint256)": "infinite",
				"getHistoryLength(address)": "2881",
				"getLastHistory(address)": "infinite",
				"getMyRank()": "2609",
				"getMyRank(address)": "2918",
				"getRank()": "infinite",
				"getRewardRates()": "infinite",
				"getWhiteListContract()": "infinite",
				"owner()": "2582",
				"renounceOwnership()": "infinite",
				"setDepositActivity(address,uint256,uint256,uint256)": "infinite",
				"setGenCodeActivity(address,uint256)": "infinite",
				"setInviteeActivity(address,uint256)": "infinite",
				"setInviterActivity(address,uint256)": "infinite",
				"setRewardRate(uint8,uint16)": "infinite",
				"setThroneActivity(address,uint256)": "infinite",
				"setUsurpActivity(address,uint256)": "infinite",
				"setWhiteListContract(address)": "infinite",
				"setWithdrawActivity(address,uint256,uint256,uint256)": "infinite",
				"transferOwnership(address)": "infinite"
			},
			"internal": {
				"_AllActivity(address,uint256,enum UserHistory.ActType,uint256,uint256)": "infinite",
				"_calcRank(address)": "infinite",
				"_getLastAct(address,uint256)": "infinite",
				"_holdTorPoint(uint256,uint256,uint256)": "infinite"
			}
		},
		"methodIdentifiers": {
			"checkDuplicateCheckIn(address)": "5ae0e952",
			"doDailyCheckIn()": "9e39b806",
			"getHistory(address)": "80396811",
			"getHistory(address,uint256)": "8bdf5803",
			"getHistory(address,uint256,uint256)": "ec29f4e9",
			"getHistoryLength(address)": "b14e52e8",
			"getLastHistory(address)": "4867080e",
			"getMyRank()": "1d9ff429",
			"getMyRank(address)": "9452185f",
			"getRank()": "d303e7b2",
			"getRewardRates()": "0c056a31",
			"getWhiteListContract()": "091c42cc",
			"owner()": "8da5cb5b",
			"renounceOwnership()": "715018a6",
			"setDepositActivity(address,uint256,uint256,uint256)": "4233d880",
			"setGenCodeActivity(address,uint256)": "4bf29b97",
			"setInviteeActivity(address,uint256)": "9f8c6bcd",
			"setInviterActivity(address,uint256)": "96240b68",
			"setRewardRate(uint8,uint16)": "718da67d",
			"setThroneActivity(address,uint256)": "72316ef3",
			"setUsurpActivity(address,uint256)": "19e9ee75",
			"setWhiteListContract(address)": "ef947afc",
			"setWithdrawActivity(address,uint256,uint256,uint256)": "793a298e",
			"transferOwnership(address)": "f2fde38b"
		}
	},
	"abi": [
		{
			"inputs": [],
			"stateMutability": "nonpayable",
			"type": "constructor"
		},
		{
			"inputs": [
				{
					"internalType": "address",
					"name": "owner",
					"type": "address"
				}
			],
			"name": "OwnableInvalidOwner",
			"type": "error"
		},
		{
			"inputs": [
				{
					"internalType": "address",
					"name": "account",
					"type": "address"
				}
			],
			"name": "OwnableUnauthorizedAccount",
			"type": "error"
		},
		{
			"anonymous": false,
			"inputs": [
				{
					"indexed": true,
					"internalType": "address",
					"name": "previousOwner",
					"type": "address"
				},
				{
					"indexed": true,
					"internalType": "address",
					"name": "newOwner",
					"type": "address"
				}
			],
			"name": "OwnershipTransferred",
			"type": "event"
		},
		{
			"inputs": [
				{
					"internalType": "address",
					"name": "account",
					"type": "address"
				}
			],
			"name": "checkDuplicateCheckIn",
			"outputs": [
				{
					"internalType": "bool",
					"name": "",
					"type": "bool"
				}
			],
			"stateMutability": "view",
			"type": "function"
		},
		{
			"inputs": [],
			"name": "doDailyCheckIn",
			"outputs": [],
			"stateMutability": "nonpayable",
			"type": "function"
		},
		{
			"inputs": [
				{
					"internalType": "address",
					"name": "account",
					"type": "address"
				}
			],
			"name": "getHistory",
			"outputs": [
				{
					"components": [
						{
							"internalType": "uint256",
							"name": "timestamp",
							"type": "uint256"
						},
						{
							"internalType": "enum UserHistory.ActType",
							"name": "act_type",
							"type": "uint8"
						},
						{
							"internalType": "uint256",
							"name": "tor_changes",
							"type": "uint256"
						},
						{
							"internalType": "uint256",
							"name": "tor_balance",
							"type": "uint256"
						},
						{
							"internalType": "uint256",
							"name": "count_invitee",
							"type": "uint256"
						},
						{
							"internalType": "uint256",
							"name": "activity_points",
							"type": "uint256"
						},
						{
							"internalType": "uint256",
							"name": "deposit_points",
							"type": "uint256"
						},
						{
							"internalType": "uint256",
							"name": "total_points",
							"type": "uint256"
						}
					],
					"internalType": "struct UserHistory.ActVals[]",
					"name": "",
					"type": "tuple[]"
				}
			],
			"stateMutability": "view",
			"type": "function"
		},
		{
			"inputs": [
				{
					"internalType": "address",
					"name": "account",
					"type": "address"
				},
				{
					"internalType": "uint256",
					"name": "page",
					"type": "uint256"
				}
			],
			"name": "getHistory",
			"outputs": [
				{
					"components": [
						{
							"internalType": "uint256",
							"name": "timestamp",
							"type": "uint256"
						},
						{
							"internalType": "enum UserHistory.ActType",
							"name": "act_type",
							"type": "uint8"
						},
						{
							"internalType": "uint256",
							"name": "tor_changes",
							"type": "uint256"
						},
						{
							"internalType": "uint256",
							"name": "tor_balance",
							"type": "uint256"
						},
						{
							"internalType": "uint256",
							"name": "count_invitee",
							"type": "uint256"
						},
						{
							"internalType": "uint256",
							"name": "activity_points",
							"type": "uint256"
						},
						{
							"internalType": "uint256",
							"name": "deposit_points",
							"type": "uint256"
						},
						{
							"internalType": "uint256",
							"name": "total_points",
							"type": "uint256"
						}
					],
					"internalType": "struct UserHistory.ActVals[]",
					"name": "",
					"type": "tuple[]"
				}
			],
			"stateMutability": "view",
			"type": "function"
		},
		{
			"inputs": [
				{
					"internalType": "address",
					"name": "account",
					"type": "address"
				},
				{
					"internalType": "uint256",
					"name": "page",
					"type": "uint256"
				},
				{
					"internalType": "uint256",
					"name": "count_per_page",
					"type": "uint256"
				}
			],
			"name": "getHistory",
			"outputs": [
				{
					"components": [
						{
							"internalType": "uint256",
							"name": "timestamp",
							"type": "uint256"
						},
						{
							"internalType": "enum UserHistory.ActType",
							"name": "act_type",
							"type": "uint8"
						},
						{
							"internalType": "uint256",
							"name": "tor_changes",
							"type": "uint256"
						},
						{
							"internalType": "uint256",
							"name": "tor_balance",
							"type": "uint256"
						},
						{
							"internalType": "uint256",
							"name": "count_invitee",
							"type": "uint256"
						},
						{
							"internalType": "uint256",
							"name": "activity_points",
							"type": "uint256"
						},
						{
							"internalType": "uint256",
							"name": "deposit_points",
							"type": "uint256"
						},
						{
							"internalType": "uint256",
							"name": "total_points",
							"type": "uint256"
						}
					],
					"internalType": "struct UserHistory.ActVals[]",
					"name": "",
					"type": "tuple[]"
				}
			],
			"stateMutability": "view",
			"type": "function"
		},
		{
			"inputs": [
				{
					"internalType": "address",
					"name": "account",
					"type": "address"
				}
			],
			"name": "getHistoryLength",
			"outputs": [
				{
					"internalType": "uint256",
					"name": "",
					"type": "uint256"
				}
			],
			"stateMutability": "view",
			"type": "function"
		},
		{
			"inputs": [
				{
					"internalType": "address",
					"name": "account",
					"type": "address"
				}
			],
			"name": "getLastHistory",
			"outputs": [
				{
					"components": [
						{
							"internalType": "uint256",
							"name": "timestamp",
							"type": "uint256"
						},
						{
							"internalType": "enum UserHistory.ActType",
							"name": "act_type",
							"type": "uint8"
						},
						{
							"internalType": "uint256",
							"name": "tor_changes",
							"type": "uint256"
						},
						{
							"internalType": "uint256",
							"name": "tor_balance",
							"type": "uint256"
						},
						{
							"internalType": "uint256",
							"name": "count_invitee",
							"type": "uint256"
						},
						{
							"internalType": "uint256",
							"name": "activity_points",
							"type": "uint256"
						},
						{
							"internalType": "uint256",
							"name": "deposit_points",
							"type": "uint256"
						},
						{
							"internalType": "uint256",
							"name": "total_points",
							"type": "uint256"
						}
					],
					"internalType": "struct UserHistory.ActVals",
					"name": "",
					"type": "tuple"
				}
			],
			"stateMutability": "view",
			"type": "function"
		},
		{
			"inputs": [],
			"name": "getMyRank",
			"outputs": [
				{
					"internalType": "uint256",
					"name": "",
					"type": "uint256"
				}
			],
			"stateMutability": "view",
			"type": "function"
		},
		{
			"inputs": [
				{
					"internalType": "address",
					"name": "account",
					"type": "address"
				}
			],
			"name": "getMyRank",
			"outputs": [
				{
					"internalType": "uint256",
					"name": "",
					"type": "uint256"
				}
			],
			"stateMutability": "view",
			"type": "function"
		},
		{
			"inputs": [],
			"name": "getRank",
			"outputs": [
				{
					"components": [
						{
							"internalType": "address",
							"name": "account",
							"type": "address"
						},
						{
							"internalType": "uint256",
							"name": "timestamp",
							"type": "uint256"
						},
						{
							"internalType": "uint256",
							"name": "point",
							"type": "uint256"
						}
					],
					"internalType": "struct UserHistory.RankVals[]",
					"name": "",
					"type": "tuple[]"
				}
			],
			"stateMutability": "view",
			"type": "function"
		},
		{
			"inputs": [],
			"name": "getRewardRates",
			"outputs": [
				{
					"internalType": "uint16[8]",
					"name": "",
					"type": "uint16[8]"
				}
			],
			"stateMutability": "view",
			"type": "function"
		},
		{
			"inputs": [],
			"name": "getWhiteListContract",
			"outputs": [
				{
					"internalType": "address[]",
					"name": "",
					"type": "address[]"
				}
			],
			"stateMutability": "view",
			"type": "function"
		},
		{
			"inputs": [],
			"name": "owner",
			"outputs": [
				{
					"internalType": "address",
					"name": "",
					"type": "address"
				}
			],
			"stateMutability": "view",
			"type": "function"
		},
		{
			"inputs": [],
			"name": "renounceOwnership",
			"outputs": [],
			"stateMutability": "nonpayable",
			"type": "function"
		},
		{
			"inputs": [
				{
					"internalType": "address",
					"name": "account",
					"type": "address"
				},
				{
					"internalType": "uint256",
					"name": "timestamp",
					"type": "uint256"
				},
				{
					"internalType": "uint256",
					"name": "tor_changes",
					"type": "uint256"
				},
				{
					"internalType": "uint256",
					"name": "tor_balance",
					"type": "uint256"
				}
			],
			"name": "setDepositActivity",
			"outputs": [],
			"stateMutability": "nonpayable",
			"type": "function"
		},
		{
			"inputs": [
				{
					"internalType": "address",
					"name": "account",
					"type": "address"
				},
				{
					"internalType": "uint256",
					"name": "timestamp",
					"type": "uint256"
				}
			],
			"name": "setGenCodeActivity",
			"outputs": [],
			"stateMutability": "nonpayable",
			"type": "function"
		},
		{
			"inputs": [
				{
					"internalType": "address",
					"name": "account",
					"type": "address"
				},
				{
					"internalType": "uint256",
					"name": "timestamp",
					"type": "uint256"
				}
			],
			"name": "setInviteeActivity",
			"outputs": [],
			"stateMutability": "nonpayable",
			"type": "function"
		},
		{
			"inputs": [
				{
					"internalType": "address",
					"name": "account",
					"type": "address"
				},
				{
					"internalType": "uint256",
					"name": "timestamp",
					"type": "uint256"
				}
			],
			"name": "setInviterActivity",
			"outputs": [],
			"stateMutability": "nonpayable",
			"type": "function"
		},
		{
			"inputs": [
				{
					"internalType": "enum UserHistory.ActType",
					"name": "act_type",
					"type": "uint8"
				},
				{
					"internalType": "uint16",
					"name": "rate_value",
					"type": "uint16"
				}
			],
			"name": "setRewardRate",
			"outputs": [],
			"stateMutability": "nonpayable",
			"type": "function"
		},
		{
			"inputs": [
				{
					"internalType": "address",
					"name": "account",
					"type": "address"
				},
				{
					"internalType": "uint256",
					"name": "timestamp",
					"type": "uint256"
				}
			],
			"name": "setThroneActivity",
			"outputs": [],
			"stateMutability": "nonpayable",
			"type": "function"
		},
		{
			"inputs": [
				{
					"internalType": "address",
					"name": "account",
					"type": "address"
				},
				{
					"internalType": "uint256",
					"name": "timestamp",
					"type": "uint256"
				}
			],
			"name": "setUsurpActivity",
			"outputs": [],
			"stateMutability": "nonpayable",
			"type": "function"
		},
		{
			"inputs": [
				{
					"internalType": "address",
					"name": "ref_contract",
					"type": "address"
				}
			],
			"name": "setWhiteListContract",
			"outputs": [],
			"stateMutability": "nonpayable",
			"type": "function"
		},
		{
			"inputs": [
				{
					"internalType": "address",
					"name": "account",
					"type": "address"
				},
				{
					"internalType": "uint256",
					"name": "timestamp",
					"type": "uint256"
				},
				{
					"internalType": "uint256",
					"name": "tor_changes",
					"type": "uint256"
				},
				{
					"internalType": "uint256",
					"name": "tor_balance",
					"type": "uint256"
				}
			],
			"name": "setWithdrawActivity",
			"outputs": [],
			"stateMutability": "nonpayable",
			"type": "function"
		},
		{
			"inputs": [
				{
					"internalType": "address",
					"name": "newOwner",
					"type": "address"
				}
			],
			"name": "transferOwnership",
			"outputs": [],
			"stateMutability": "nonpayable",
			"type": "function"
		}
	]
}