{
  "_format": "hh-sol-artifact-1",
  "contractName": "UserContract",
  "sourceName": "contracts/UserContract.sol",
  "abi": [
    {
      "inputs": [
        {
          "internalType": "address",
          "name": "historyToken",
          "type": "address"
        },
        {
          "internalType": "address",
          "name": "ownerGroupContractAddress",
          "type": "address"
        },
        {
          "internalType": "address",
          "name": "blastPointAddress",
          "type": "address"
        },
        {
          "internalType": "address",
          "name": "operatorAddress",
          "type": "address"
        }
      ],
      "stateMutability": "nonpayable",
      "type": "constructor"
    },
    {
      "anonymous": false,
      "inputs": [
        {
          "indexed": true,
          "internalType": "address",
          "name": "inviter",
          "type": "address"
        },
        {
          "indexed": true,
          "internalType": "address",
          "name": "invitee",
          "type": "address"
        },
        {
          "indexed": false,
          "internalType": "string",
          "name": "code",
          "type": "string"
        }
      ],
      "name": "AddInvitee",
      "type": "event"
    },
    {
      "anonymous": false,
      "inputs": [
        {
          "indexed": true,
          "internalType": "address",
          "name": "_address",
          "type": "address"
        },
        {
          "indexed": false,
          "internalType": "bool",
          "name": "_isBlacklisted",
          "type": "bool"
        }
      ],
      "name": "BlacklistUpdated",
      "type": "event"
    },
    {
      "anonymous": false,
      "inputs": [
        {
          "indexed": true,
          "internalType": "address",
          "name": "_address",
          "type": "address"
        },
        {
          "indexed": false,
          "internalType": "string",
          "name": "code",
          "type": "string"
        }
      ],
      "name": "GenerateInvitaionCode",
      "type": "event"
    },
    {
      "anonymous": false,
      "inputs": [
        {
          "indexed": true,
          "internalType": "address",
          "name": "_address",
          "type": "address"
        },
        {
          "indexed": false,
          "internalType": "string",
          "name": "nickName",
          "type": "string"
        },
        {
          "indexed": false,
          "internalType": "string",
          "name": "xUrl",
          "type": "string"
        },
        {
          "indexed": false,
          "internalType": "string",
          "name": "uTubeUrl",
          "type": "string"
        },
        {
          "indexed": false,
          "internalType": "string",
          "name": "telegramUrl",
          "type": "string"
        },
        {
          "indexed": false,
          "internalType": "string",
          "name": "discordUrl",
          "type": "string"
        }
      ],
      "name": "UserCreated",
      "type": "event"
    },
    {
      "inputs": [
        {
          "internalType": "string",
          "name": "code",
          "type": "string"
        }
      ],
      "name": "addInvitee",
      "outputs": [
        {
          "internalType": "bool",
          "name": "",
          "type": "bool"
        }
      ],
      "stateMutability": "nonpayable",
      "type": "function"
    },
    {
      "inputs": [
        {
          "internalType": "address",
          "name": "",
          "type": "address"
        }
      ],
      "name": "blacklist",
      "outputs": [
        {
          "internalType": "bool",
          "name": "",
          "type": "bool"
        }
      ],
      "stateMutability": "view",
      "type": "function"
    },
    {
      "inputs": [],
      "name": "claimAllGas",
      "outputs": [
        {
          "internalType": "uint256",
          "name": "",
          "type": "uint256"
        }
      ],
      "stateMutability": "nonpayable",
      "type": "function"
    },
    {
      "inputs": [],
      "name": "generateInvitationCode",
      "outputs": [
        {
          "internalType": "string",
          "name": "",
          "type": "string"
        }
      ],
      "stateMutability": "nonpayable",
      "type": "function"
    },
    {
      "inputs": [],
      "name": "getGeneratedCodeCount",
      "outputs": [
        {
          "internalType": "uint256",
          "name": "",
          "type": "uint256"
        }
      ],
      "stateMutability": "view",
      "type": "function"
    },
    {
      "inputs": [],
      "name": "getGeneratedCodes",
      "outputs": [
        {
          "internalType": "string[]",
          "name": "",
          "type": "string[]"
        }
      ],
      "stateMutability": "view",
      "type": "function"
    },
    {
      "inputs": [
        {
          "internalType": "address",
          "name": "account",
          "type": "address"
        }
      ],
      "name": "getInvitaionCode",
      "outputs": [
        {
          "internalType": "string",
          "name": "",
          "type": "string"
        }
      ],
      "stateMutability": "view",
      "type": "function"
    },
    {
      "inputs": [],
      "name": "getInvitees",
      "outputs": [
        {
          "internalType": "address[]",
          "name": "",
          "type": "address[]"
        }
      ],
      "stateMutability": "view",
      "type": "function"
    },
    {
      "inputs": [],
      "name": "getMyInviterCode",
      "outputs": [
        {
          "internalType": "string",
          "name": "",
          "type": "string"
        }
      ],
      "stateMutability": "view",
      "type": "function"
    },
    {
      "inputs": [],
      "name": "getUserHistoryContractAddress",
      "outputs": [
        {
          "internalType": "address",
          "name": "",
          "type": "address"
        }
      ],
      "stateMutability": "view",
      "type": "function"
    },
    {
      "inputs": [],
      "name": "getUserInfo",
      "outputs": [
        {
          "components": [
            {
              "internalType": "string",
              "name": "nickName",
              "type": "string"
            },
            {
              "internalType": "string",
              "name": "xUrl",
              "type": "string"
            },
            {
              "internalType": "string",
              "name": "uTubeUrl",
              "type": "string"
            },
            {
              "internalType": "string",
              "name": "telegramUrl",
              "type": "string"
            },
            {
              "internalType": "string",
              "name": "discordUrl",
              "type": "string"
            }
          ],
          "internalType": "struct UserContract.User",
          "name": "",
          "type": "tuple"
        }
      ],
      "stateMutability": "view",
      "type": "function"
    },
    {
      "inputs": [
        {
          "internalType": "address",
          "name": "account",
          "type": "address"
        }
      ],
      "name": "isUserInBlackList",
      "outputs": [
        {
          "internalType": "bool",
          "name": "",
          "type": "bool"
        }
      ],
      "stateMutability": "view",
      "type": "function"
    },
    {
      "inputs": [],
      "name": "readGasParams",
      "outputs": [
        {
          "internalType": "uint256",
          "name": "etherSeconds",
          "type": "uint256"
        },
        {
          "internalType": "uint256",
          "name": "etherBalance",
          "type": "uint256"
        },
        {
          "internalType": "uint256",
          "name": "lastUpdated",
          "type": "uint256"
        },
        {
          "internalType": "enum GasMode",
          "name": "",
          "type": "uint8"
        }
      ],
      "stateMutability": "view",
      "type": "function"
    },
    {
      "inputs": [
        {
          "internalType": "string",
          "name": "nickName",
          "type": "string"
        },
        {
          "internalType": "string",
          "name": "xUrl",
          "type": "string"
        },
        {
          "internalType": "string",
          "name": "uTubeUrl",
          "type": "string"
        },
        {
          "internalType": "string",
          "name": "telegramUrl",
          "type": "string"
        },
        {
          "internalType": "string",
          "name": "discordUrl",
          "type": "string"
        }
      ],
      "name": "setUserInfo",
      "outputs": [
        {
          "internalType": "bool",
          "name": "",
          "type": "bool"
        }
      ],
      "stateMutability": "nonpayable",
      "type": "function"
    },
    {
      "inputs": [
        {
          "internalType": "address",
          "name": "account",
          "type": "address"
        }
      ],
      "name": "updateBlackList",
      "outputs": [
        {
          "internalType": "bool",
          "name": "",
          "type": "bool"
        }
      ],
      "stateMutability": "nonpayable",
      "type": "function"
    },
    {
      "inputs": [
        {
          "internalType": "address",
          "name": "historyToken",
          "type": "address"
        }
      ],
      "name": "updateUserHistoryContractAddress",
      "outputs": [
        {
          "internalType": "bool",
          "name": "",
          "type": "bool"
        }
      ],
      "stateMutability": "nonpayable",
      "type": "function"
    }
  ],
  "bytecode": "0x60806040526040518060400160405280600581526020017f3030303030000000000000000000000000000000000000000000000000000000815250600090816200004a9190620004f0565b5060006002553480156200005d57600080fd5b506040516200468e3803806200468e833981810160405281019062000083919062000641565b33600160006101000a81548173ffffffffffffffffffffffffffffffffffffffff021916908373ffffffffffffffffffffffffffffffffffffffff16021790555083600360006101000a81548173ffffffffffffffffffffffffffffffffffffffff021916908373ffffffffffffffffffffffffffffffffffffffff16021790555082600460006101000a81548173ffffffffffffffffffffffffffffffffffffffff021916908373ffffffffffffffffffffffffffffffffffffffff16021790555082600b60006101000a81548173ffffffffffffffffffffffffffffffffffffffff021916908373ffffffffffffffffffffffffffffffffffffffff16021790555073430000000000000000000000000000000000000273ffffffffffffffffffffffffffffffffffffffff16634e606c476040518163ffffffff1660e01b8152600401600060405180830381600087803b158015620001e457600080fd5b505af1158015620001f9573d6000803e3d6000fd5b505050508173ffffffffffffffffffffffffffffffffffffffff166336b91f2b826040518263ffffffff1660e01b8152600401620002389190620006c4565b600060405180830381600087803b1580156200025357600080fd5b505af115801562000268573d6000803e3d6000fd5b5050505050505050620006e1565b600081519050919050565b7f4e487b7100000000000000000000000000000000000000000000000000000000600052604160045260246000fd5b7f4e487b7100000000000000000000000000000000000000000000000000000000600052602260045260246000fd5b60006002820490506001821680620002f857607f821691505b6020821081036200030e576200030d620002b0565b5b50919050565b60008190508160005260206000209050919050565b60006020601f8301049050919050565b600082821b905092915050565b600060088302620003787fffffffffffffffffffffffffffffffffffffffffffffffffffffffffffffffff8262000339565b62000384868362000339565b95508019841693508086168417925050509392505050565b6000819050919050565b6000819050919050565b6000620003d1620003cb620003c5846200039c565b620003a6565b6200039c565b9050919050565b6000819050919050565b620003ed83620003b0565b62000405620003fc82620003d8565b84845462000346565b825550505050565b600090565b6200041c6200040d565b62000429818484620003e2565b505050565b5b8181101562000451576200044560008262000412565b6001810190506200042f565b5050565b601f821115620004a0576200046a8162000314565b620004758462000329565b8101602085101562000485578190505b6200049d620004948562000329565b8301826200042e565b50505b505050565b600082821c905092915050565b6000620004c560001984600802620004a5565b1980831691505092915050565b6000620004e08383620004b2565b9150826002028217905092915050565b620004fb8262000276565b67ffffffffffffffff81111562000517576200051662000281565b5b620005238254620002df565b6200053082828562000455565b600060209050601f83116001811462000568576000841562000553578287015190505b6200055f8582620004d2565b865550620005cf565b601f198416620005788662000314565b60005b82811015620005a2578489015182556001820191506020850194506020810190506200057b565b86831015620005c25784890151620005be601f891682620004b2565b8355505b6001600288020188555050505b505050505050565b600080fd5b600073ffffffffffffffffffffffffffffffffffffffff82169050919050565b60006200060982620005dc565b9050919050565b6200061b81620005fc565b81146200062757600080fd5b50565b6000815190506200063b8162000610565b92915050565b600080600080608085870312156200065e576200065d620005d7565b5b60006200066e878288016200062a565b945050602062000681878288016200062a565b935050604062000694878288016200062a565b9250506060620006a7878288016200062a565b91505092959194509250565b620006be81620005fc565b82525050565b6000602082019050620006db6000830184620006b3565b92915050565b613f9d80620006f16000396000f3fe608060405234801561001057600080fd5b50600436106101005760003560e01c80637770f8c411610097578063aa9d8b9011610066578063aa9d8b90146102ca578063cdb219c5146102e8578063d76d49b814610306578063f9f92be41461033657610100565b80637770f8c41461021c578063855b842d1461024c578063860de2471461027c5780639768ff5b1461029a57610100565b8063491ae348116100d3578063491ae348146101a15780635d8d1585146101c2578063645dd1fa146101e0578063750afc80146101fe57610100565b80631a024cec14610105578063217b4c1b146101235780633b42fc40146101535780633efc11d114610171575b600080fd5b61010d610366565b60405161011a9190612c65565b60405180910390f35b61013d60048036038101906101389190612cc7565b6104be565b60405161014a9190612d84565b60405180910390f35b61015b61061c565b6040516101689190612d84565b60405180910390f35b61018b60048036038101906101869190612edb565b6109f1565b6040516101989190612ffd565b60405180910390f35b6101a9610d02565b6040516101b994939291906130a8565b60405180910390f35b6101ca610e7f565b6040516101d791906131c9565b60405180910390f35b6101e861123d565b6040516101f591906131eb565b60405180910390f35b6102066113d3565b60405161021391906132c8565b60405180910390f35b61023660048036038101906102319190612cc7565b611698565b6040516102439190612ffd565b60405180910390f35b61026660048036038101906102619190612cc7565b6117bf565b6040516102739190612ffd565b60405180910390f35b610284611815565b60405161029191906131eb565b60405180910390f35b6102b460048036038101906102af9190612cc7565b6118fa565b6040516102c19190612ffd565b60405180910390f35b6102d2611ad8565b6040516102df9190612d84565b60405180910390f35b6102f0611c34565b6040516102fd91906132f9565b60405180910390f35b610320600480360381019061031b9190613314565b611d39565b60405161032d9190612ffd565b60405180910390f35b610350600480360381019061034b9190612cc7565b612354565b60405161035d9190612ffd565b60405180910390f35b6060600660003373ffffffffffffffffffffffffffffffffffffffff1673ffffffffffffffffffffffffffffffffffffffff16815260200190815260200160002060009054906101000a900460ff16156103f5576040517f08c379a00000000000000000000000000000000000000000000000000000000081526004016103ec906133a9565b60405180910390fd5b600a60003373ffffffffffffffffffffffffffffffffffffffff1673ffffffffffffffffffffffffffffffffffffffff1681526020019081526020016000208054806020026020016040519081016040528092919081815260200182805480156104b457602002820191906000526020600020905b8160009054906101000a900473ffffffffffffffffffffffffffffffffffffffff1673ffffffffffffffffffffffffffffffffffffffff168152602001906001019080831161046a575b5050505050905090565b6060600660003373ffffffffffffffffffffffffffffffffffffffff1673ffffffffffffffffffffffffffffffffffffffff16815260200190815260200160002060009054906101000a900460ff161561054d576040517f08c379a0000000000000000000000000000000000000000000000000000000008152600401610544906133a9565b60405180910390fd5b600760008373ffffffffffffffffffffffffffffffffffffffff1673ffffffffffffffffffffffffffffffffffffffff1681526020019081526020016000208054610597906133f8565b80601f01602080910402602001604051908101604052809291908181526020018280546105c3906133f8565b80156106105780601f106105e557610100808354040283529160200191610610565b820191906000526020600020905b8154815290600101906020018083116105f357829003601f168201915b50505050509050919050565b6060600660003373ffffffffffffffffffffffffffffffffffffffff1673ffffffffffffffffffffffffffffffffffffffff16815260200190815260200160002060009054906101000a900460ff16156106ab576040517f08c379a00000000000000000000000000000000000000000000000000000000081526004016106a2906133a9565b60405180910390fd5b6000600760003373ffffffffffffffffffffffffffffffffffffffff1673ffffffffffffffffffffffffffffffffffffffff16815260200190815260200160002080546106f7906133f8565b9050111561073a576040517f08c379a000000000000000000000000000000000000000000000000000000000815260040161073190613475565b60405180910390fd5b6002600081548092919061074d906134c4565b919050555061075a612374565b600760003373ffffffffffffffffffffffffffffffffffffffff1673ffffffffffffffffffffffffffffffffffffffff16815260200190815260200160002090816107a591906136b8565b506009339080600181540180825580915050600190039060005260206000200160009091909190916101000a81548173ffffffffffffffffffffffffffffffffffffffff021916908373ffffffffffffffffffffffffffffffffffffffff160217905550600360009054906101000a900473ffffffffffffffffffffffffffffffffffffffff1673ffffffffffffffffffffffffffffffffffffffff16634bf29b9733426040518363ffffffff1660e01b815260040161086692919061378a565b600060405180830381600087803b15801561088057600080fd5b505af1158015610894573d6000803e3d6000fd5b505050503373ffffffffffffffffffffffffffffffffffffffff167ff3fcc1b5ac11ad503eced9fa36c28dac62153c9fc624aa257a915449e36d8ce2600760003373ffffffffffffffffffffffffffffffffffffffff1673ffffffffffffffffffffffffffffffffffffffff16815260200190815260200160002060405161091c9190613837565b60405180910390a2600760003373ffffffffffffffffffffffffffffffffffffffff1673ffffffffffffffffffffffffffffffffffffffff168152602001908152602001600020805461096e906133f8565b80601f016020809104026020016040519081016040528092919081815260200182805461099a906133f8565b80156109e75780601f106109bc576101008083540402835291602001916109e7565b820191906000526020600020905b8154815290600101906020018083116109ca57829003601f168201915b5050505050905090565b6000600660003373ffffffffffffffffffffffffffffffffffffffff1673ffffffffffffffffffffffffffffffffffffffff16815260200190815260200160002060009054906101000a900460ff1615610a80576040517f08c379a0000000000000000000000000000000000000000000000000000000008152600401610a77906133a9565b60405180910390fd5b85600560003373ffffffffffffffffffffffffffffffffffffffff1673ffffffffffffffffffffffffffffffffffffffff1681526020019081526020016000206000019081610acf91906136b8565b5084600560003373ffffffffffffffffffffffffffffffffffffffff1673ffffffffffffffffffffffffffffffffffffffff1681526020019081526020016000206001019081610b1f91906136b8565b5083600560003373ffffffffffffffffffffffffffffffffffffffff1673ffffffffffffffffffffffffffffffffffffffff1681526020019081526020016000206002019081610b6f91906136b8565b5082600560003373ffffffffffffffffffffffffffffffffffffffff1673ffffffffffffffffffffffffffffffffffffffff1681526020019081526020016000206003019081610bbf91906136b8565b5081600560003373ffffffffffffffffffffffffffffffffffffffff1673ffffffffffffffffffffffffffffffffffffffff1681526020019081526020016000206004019081610c0f91906136b8565b50600360009054906101000a900473ffffffffffffffffffffffffffffffffffffffff1673ffffffffffffffffffffffffffffffffffffffff166319e9ee7533426040518363ffffffff1660e01b8152600401610c6d92919061378a565b600060405180830381600087803b158015610c8757600080fd5b505af1158015610c9b573d6000803e3d6000fd5b505050503373ffffffffffffffffffffffffffffffffffffffff167f28603f9832342eff00cc75d53a46aa4ea2873fbf0fb9572f6bb70f84589d13478787878787604051610ced959493929190613859565b60405180910390a26001905095945050505050565b600080600080600460009054906101000a900473ffffffffffffffffffffffffffffffffffffffff1673ffffffffffffffffffffffffffffffffffffffff16632f54bf6e336040518263ffffffff1660e01b8152600401610d6391906132f9565b602060405180830381865afa158015610d80573d6000803e3d6000fd5b505050506040513d601f19601f82011682018060405250810190610da491906138fb565b610de3576040517f08c379a0000000000000000000000000000000000000000000000000000000008152600401610dda90613974565b60405180910390fd5b73430000000000000000000000000000000000000273ffffffffffffffffffffffffffffffffffffffff1663dde798a4306040518263ffffffff1660e01b8152600401610e3091906132f9565b608060405180830381865afa158015610e4d573d6000803e3d6000fd5b505050506040513d601f19601f82011682018060405250810190610e7191906139e5565b935093509350935090919293565b610e87612b46565b600660003373ffffffffffffffffffffffffffffffffffffffff1673ffffffffffffffffffffffffffffffffffffffff16815260200190815260200160002060009054906101000a900460ff1615610f14576040517f08c379a0000000000000000000000000000000000000000000000000000000008152600401610f0b906133a9565b60405180910390fd5b600560003373ffffffffffffffffffffffffffffffffffffffff1673ffffffffffffffffffffffffffffffffffffffff1681526020019081526020016000206040518060a0016040529081600082018054610f6e906133f8565b80601f0160208091040260200160405190810160405280929190818152602001828054610f9a906133f8565b8015610fe75780601f10610fbc57610100808354040283529160200191610fe7565b820191906000526020600020905b815481529060010190602001808311610fca57829003601f168201915b50505050508152602001600182018054611000906133f8565b80601f016020809104026020016040519081016040528092919081815260200182805461102c906133f8565b80156110795780601f1061104e57610100808354040283529160200191611079565b820191906000526020600020905b81548152906001019060200180831161105c57829003601f168201915b50505050508152602001600282018054611092906133f8565b80601f01602080910402602001604051908101604052809291908181526020018280546110be906133f8565b801561110b5780601f106110e05761010080835404028352916020019161110b565b820191906000526020600020905b8154815290600101906020018083116110ee57829003601f168201915b50505050508152602001600382018054611124906133f8565b80601f0160208091040260200160405190810160405280929190818152602001828054611150906133f8565b801561119d5780601f106111725761010080835404028352916020019161119d565b820191906000526020600020905b81548152906001019060200180831161118057829003601f168201915b505050505081526020016004820180546111b6906133f8565b80601f01602080910402602001604051908101604052809291908181526020018280546111e2906133f8565b801561122f5780601f106112045761010080835404028352916020019161122f565b820191906000526020600020905b81548152906001019060200180831161121257829003601f168201915b505050505081525050905090565b6000600460009054906101000a900473ffffffffffffffffffffffffffffffffffffffff1673ffffffffffffffffffffffffffffffffffffffff16632f54bf6e336040518263ffffffff1660e01b815260040161129a91906132f9565b602060405180830381865afa1580156112b7573d6000803e3d6000fd5b505050506040513d601f19601f820116820180604052508101906112db91906138fb565b61131a576040517f08c379a000000000000000000000000000000000000000000000000000000000815260040161131190613974565b60405180910390fd5b73430000000000000000000000000000000000000273ffffffffffffffffffffffffffffffffffffffff1663954fa5ee30600b60009054906101000a900473ffffffffffffffffffffffffffffffffffffffff166040518363ffffffff1660e01b815260040161138b929190613a4c565b6020604051808303816000875af11580156113aa573d6000803e3d6000fd5b505050506040513d601f19601f820116820180604052508101906113ce9190613a75565b905090565b6060600460009054906101000a900473ffffffffffffffffffffffffffffffffffffffff1673ffffffffffffffffffffffffffffffffffffffff16632f54bf6e336040518263ffffffff1660e01b815260040161143091906132f9565b602060405180830381865afa15801561144d573d6000803e3d6000fd5b505050506040513d601f19601f8201168201806040525081019061147191906138fb565b6114b0576040517f08c379a00000000000000000000000000000000000000000000000000000000081526004016114a790613974565b60405180910390fd5b6000600980549050116114f8576040517f08c379a00000000000000000000000000000000000000000000000000000000081526004016114ef90613aee565b60405180910390fd5b600060098054905067ffffffffffffffff81111561151957611518612db0565b5b60405190808252806020026020018201604052801561154c57816020015b60608152602001906001900390816115375790505b50905060005b60098054905081101561169057600760006009838154811061157757611576613b0e565b5b9060005260206000200160009054906101000a900473ffffffffffffffffffffffffffffffffffffffff1673ffffffffffffffffffffffffffffffffffffffff1673ffffffffffffffffffffffffffffffffffffffff16815260200190815260200160002080546115e7906133f8565b80601f0160208091040260200160405190810160405280929190818152602001828054611613906133f8565b80156116605780601f1061163557610100808354040283529160200191611660565b820191906000526020600020905b81548152906001019060200180831161164357829003601f168201915b505050505082828151811061167857611677613b0e565b5b60200260200101819052508080600101915050611552565b508091505090565b6000600460009054906101000a900473ffffffffffffffffffffffffffffffffffffffff1673ffffffffffffffffffffffffffffffffffffffff16632f54bf6e336040518263ffffffff1660e01b81526004016116f591906132f9565b602060405180830381865afa158015611712573d6000803e3d6000fd5b505050506040513d601f19601f8201168201806040525081019061173691906138fb565b611775576040517f08c379a000000000000000000000000000000000000000000000000000000000815260040161176c90613974565b60405180910390fd5b81600360006101000a81548173ffffffffffffffffffffffffffffffffffffffff021916908373ffffffffffffffffffffffffffffffffffffffff16021790555060019050919050565b6000600660008373ffffffffffffffffffffffffffffffffffffffff1673ffffffffffffffffffffffffffffffffffffffff16815260200190815260200160002060009054906101000a900460ff169050919050565b6000600460009054906101000a900473ffffffffffffffffffffffffffffffffffffffff1673ffffffffffffffffffffffffffffffffffffffff16632f54bf6e336040518263ffffffff1660e01b815260040161187291906132f9565b602060405180830381865afa15801561188f573d6000803e3d6000fd5b505050506040513d601f19601f820116820180604052508101906118b391906138fb565b6118f2576040517f08c379a00000000000000000000000000000000000000000000000000000000081526004016118e990613974565b60405180910390fd5b600254905090565b6000600460009054906101000a900473ffffffffffffffffffffffffffffffffffffffff1673ffffffffffffffffffffffffffffffffffffffff16632f54bf6e336040518263ffffffff1660e01b815260040161195791906132f9565b602060405180830381865afa158015611974573d6000803e3d6000fd5b505050506040513d601f19601f8201168201806040525081019061199891906138fb565b6119d7576040517f08c379a00000000000000000000000000000000000000000000000000000000081526004016119ce90613974565b60405180910390fd5b6000600660008473ffffffffffffffffffffffffffffffffffffffff1673ffffffffffffffffffffffffffffffffffffffff16815260200190815260200160002060009054906101000a900460ff1615905080600660008573ffffffffffffffffffffffffffffffffffffffff1673ffffffffffffffffffffffffffffffffffffffff16815260200190815260200160002060006101000a81548160ff0219169083151502179055508273ffffffffffffffffffffffffffffffffffffffff167f6a12b3df6cba4203bd7fd06b816789f87de8c594299aed5717ae070fac781bac82604051611ac69190612ffd565b60405180910390a26001915050919050565b6060600660003373ffffffffffffffffffffffffffffffffffffffff1673ffffffffffffffffffffffffffffffffffffffff16815260200190815260200160002060009054906101000a900460ff1615611b67576040517f08c379a0000000000000000000000000000000000000000000000000000000008152600401611b5e906133a9565b60405180910390fd5b600860003373ffffffffffffffffffffffffffffffffffffffff1673ffffffffffffffffffffffffffffffffffffffff1681526020019081526020016000208054611bb1906133f8565b80601f0160208091040260200160405190810160405280929190818152602001828054611bdd906133f8565b8015611c2a5780601f10611bff57610100808354040283529160200191611c2a565b820191906000526020600020905b815481529060010190602001808311611c0d57829003601f168201915b5050505050905090565b6000600460009054906101000a900473ffffffffffffffffffffffffffffffffffffffff1673ffffffffffffffffffffffffffffffffffffffff16632f54bf6e336040518263ffffffff1660e01b8152600401611c9191906132f9565b602060405180830381865afa158015611cae573d6000803e3d6000fd5b505050506040513d601f19601f82011682018060405250810190611cd291906138fb565b611d11576040517f08c379a0000000000000000000000000000000000000000000000000000000008152600401611d0890613974565b60405180910390fd5b600360009054906101000a900473ffffffffffffffffffffffffffffffffffffffff16905090565b6000600660003373ffffffffffffffffffffffffffffffffffffffff1673ffffffffffffffffffffffffffffffffffffffff16815260200190815260200160002060009054906101000a900460ff1615611dc8576040517f08c379a0000000000000000000000000000000000000000000000000000000008152600401611dbf906133a9565b60405180910390fd5b81604051602001611dd99190613b79565b60405160208183030381529060405280519060200120600760003373ffffffffffffffffffffffffffffffffffffffff1673ffffffffffffffffffffffffffffffffffffffff168152602001908152602001600020604051602001611e3e9190613c13565b6040516020818303038152906040528051906020012003611e94576040517f08c379a0000000000000000000000000000000000000000000000000000000008152600401611e8b90613c76565b60405180910390fd5b6000600860003373ffffffffffffffffffffffffffffffffffffffff1673ffffffffffffffffffffffffffffffffffffffff1681526020019081526020016000208054611ee0906133f8565b905014611f22576040517f08c379a0000000000000000000000000000000000000000000000000000000008152600401611f1990613ce2565b60405180910390fd5b6000600980549050905060005b818110156123485783604051602001611f489190613b79565b604051602081830303815290604052805190602001206007600060098481548110611f7657611f75613b0e565b5b9060005260206000200160009054906101000a900473ffffffffffffffffffffffffffffffffffffffff1673ffffffffffffffffffffffffffffffffffffffff1673ffffffffffffffffffffffffffffffffffffffff168152602001908152602001600020604051602001611feb9190613c13565b604051602081830303815290604052805190602001200361233b57600a60006009838154811061201e5761201d613b0e565b5b9060005260206000200160009054906101000a900473ffffffffffffffffffffffffffffffffffffffff1673ffffffffffffffffffffffffffffffffffffffff1673ffffffffffffffffffffffffffffffffffffffff168152602001908152602001600020339080600181540180825580915050600190039060005260206000200160009091909190916101000a81548173ffffffffffffffffffffffffffffffffffffffff021916908373ffffffffffffffffffffffffffffffffffffffff16021790555083600860003373ffffffffffffffffffffffffffffffffffffffff1673ffffffffffffffffffffffffffffffffffffffff168152602001908152602001600020908161213091906136b8565b50600360009054906101000a900473ffffffffffffffffffffffffffffffffffffffff1673ffffffffffffffffffffffffffffffffffffffff16639f8c6bcd33426040518363ffffffff1660e01b815260040161218e92919061378a565b600060405180830381600087803b1580156121a857600080fd5b505af11580156121bc573d6000803e3d6000fd5b50505050600360009054906101000a900473ffffffffffffffffffffffffffffffffffffffff1673ffffffffffffffffffffffffffffffffffffffff166396240b686009838154811061221257612211613b0e565b5b9060005260206000200160009054906101000a900473ffffffffffffffffffffffffffffffffffffffff16426040518363ffffffff1660e01b815260040161225b92919061378a565b600060405180830381600087803b15801561227557600080fd5b505af1158015612289573d6000803e3d6000fd5b505050503373ffffffffffffffffffffffffffffffffffffffff16600982815481106122b8576122b7613b0e565b5b9060005260206000200160009054906101000a900473ffffffffffffffffffffffffffffffffffffffff1673ffffffffffffffffffffffffffffffffffffffff167f0ba98961da854c6f7f70a06d69ff2425a79fc222984d787ace43a50f3eb4ba03866040516123289190612d84565b60405180910390a360019250505061234f565b8080600101915050611f2f565b5060009150505b919050565b60066020528060005260406000206000915054906101000a900460ff1681565b606061238661238161238b565b612472565b905090565b60606123956126d3565b156123d5576040517f08c379a00000000000000000000000000000000000000000000000000000000081526004016123cc90613d4e565b60405180910390fd5b60008080546123e3906133f8565b80601f016020809104026020016040519081016040528092919081815260200182805461240f906133f8565b801561245c5780601f106124315761010080835404028352916020019161245c565b820191906000526020600020905b81548152906001019060200180831161243f57829003601f168201915b5050505050905061246b61272f565b8091505090565b6060600082905060058151146124bd576040517f08c379a00000000000000000000000000000000000000000000000000000000081526004016124b490613dba565b60405180910390fd5b6000600867ffffffffffffffff8111156124da576124d9612db0565b5b6040519080825280601f01601f19166020018201604052801561250c5781602001600182028036833780820191505090505b5090506000806000805b85518110156126185785818151811061253257612531613b0e565b5b602001015160f81c60f81b60f81c60ff16600884901b1792506008826125589190613dda565b91505b6005821061260b576005826125709190613e0e565b91506000601f8385901c1690507f31323334353637383941424344454647484a4b4c4d4e5051525455565758595a8160ff16602081106125b3576125b2613b0e565b5b1a60f81b8686806125c3906134c4565b9750815181106125d6576125d5613b0e565b5b60200101907effffffffffffffffffffffffffffffffffffffffffffffffffffffffffffff1916908160001a9053505061255b565b8080600101915050612516565b5060008111156126c65780600561262f9190613e0e565b82901b91506000601f831690507f31323334353637383941424344454647484a4b4c4d4e5051525455565758595a8160ff166020811061267257612671613b0e565b5b1a60f81b858580612682906134c4565b96508151811061269557612694613b0e565b5b60200101907effffffffffffffffffffffffffffffffffffffffffffffffffffffffffffff1916908160001a905350505b8395505050505050919050565b60006040518060400160405280600581526020017f5a5a5a5a5a0000000000000000000000000000000000000000000000000000008152508051906020012060006040516127219190613ee5565b604051809103902014905090565b600080805461273d906133f8565b80601f0160208091040260200160405190810160405280929190818152602001828054612769906133f8565b80156127b65780601f1061278b576101008083540402835291602001916127b6565b820191906000526020600020905b81548152906001019060200180831161279957829003601f168201915b505050505090506000600182516127cd9190613e0e565b90505b60008110612b32577f39000000000000000000000000000000000000000000000000000000000000007effffffffffffffffffffffffffffffffffffffffffffffffffffffffffffff191682828151811061282e5761282d613b0e565b5b602001015160f81c60f81b7effffffffffffffffffffffffffffffffffffffffffffffffffffffffffffff1916036128c8577f610000000000000000000000000000000000000000000000000000000000000082828151811061289457612893613b0e565b5b60200101907effffffffffffffffffffffffffffffffffffffffffffffffffffffffffffff1916908160001a905350612b32565b7f7a000000000000000000000000000000000000000000000000000000000000007effffffffffffffffffffffffffffffffffffffffffffffffffffffffffffff191682828151811061291e5761291d613b0e565b5b602001015160f81c60f81b7effffffffffffffffffffffffffffffffffffffffffffffffffffffffffffff1916036129b8577f410000000000000000000000000000000000000000000000000000000000000082828151811061298457612983613b0e565b5b60200101907effffffffffffffffffffffffffffffffffffffffffffffffffffffffffffff1916908160001a905350612b32565b7f5a000000000000000000000000000000000000000000000000000000000000007effffffffffffffffffffffffffffffffffffffffffffffffffffffffffffff1916828281518110612a0e57612a0d613b0e565b5b602001015160f81c60f81b7effffffffffffffffffffffffffffffffffffffffffffffffffffffffffffff191603612aa8577f3000000000000000000000000000000000000000000000000000000000000000828281518110612a7457612a73613b0e565b5b60200101907effffffffffffffffffffffffffffffffffffffffffffffffffffffffffffff1916908160001a905350612b1f565b6001828281518110612abd57612abc613b0e565b5b602001015160f81c60f81b60f81c612ad59190613f09565b60f81b828281518110612aeb57612aea613b0e565b5b60200101907effffffffffffffffffffffffffffffffffffffffffffffffffffffffffffff1916908160001a905350612b32565b8080612b2a90613f3e565b9150506127d0565b508060009081612b4291906136b8565b5050565b6040518060a0016040528060608152602001606081526020016060815260200160608152602001606081525090565b600081519050919050565b600082825260208201905092915050565b6000819050602082019050919050565b600073ffffffffffffffffffffffffffffffffffffffff82169050919050565b6000612bcc82612ba1565b9050919050565b612bdc81612bc1565b82525050565b6000612bee8383612bd3565b60208301905092915050565b6000602082019050919050565b6000612c1282612b75565b612c1c8185612b80565b9350612c2783612b91565b8060005b83811015612c58578151612c3f8882612be2565b9750612c4a83612bfa565b925050600181019050612c2b565b5085935050505092915050565b60006020820190508181036000830152612c7f8184612c07565b905092915050565b6000604051905090565b600080fd5b600080fd5b612ca481612bc1565b8114612caf57600080fd5b50565b600081359050612cc181612c9b565b92915050565b600060208284031215612cdd57612cdc612c91565b5b6000612ceb84828501612cb2565b91505092915050565b600081519050919050565b600082825260208201905092915050565b60005b83811015612d2e578082015181840152602081019050612d13565b60008484015250505050565b6000601f19601f8301169050919050565b6000612d5682612cf4565b612d608185612cff565b9350612d70818560208601612d10565b612d7981612d3a565b840191505092915050565b60006020820190508181036000830152612d9e8184612d4b565b905092915050565b600080fd5b600080fd5b7f4e487b7100000000000000000000000000000000000000000000000000000000600052604160045260246000fd5b612de882612d3a565b810181811067ffffffffffffffff82111715612e0757612e06612db0565b5b80604052505050565b6000612e1a612c87565b9050612e268282612ddf565b919050565b600067ffffffffffffffff821115612e4657612e45612db0565b5b612e4f82612d3a565b9050602081019050919050565b82818337600083830152505050565b6000612e7e612e7984612e2b565b612e10565b905082815260208101848484011115612e9a57612e99612dab565b5b612ea5848285612e5c565b509392505050565b600082601f830112612ec257612ec1612da6565b5b8135612ed2848260208601612e6b565b91505092915050565b600080600080600060a08688031215612ef757612ef6612c91565b5b600086013567ffffffffffffffff811115612f1557612f14612c96565b5b612f2188828901612ead565b955050602086013567ffffffffffffffff811115612f4257612f41612c96565b5b612f4e88828901612ead565b945050604086013567ffffffffffffffff811115612f6f57612f6e612c96565b5b612f7b88828901612ead565b935050606086013567ffffffffffffffff811115612f9c57612f9b612c96565b5b612fa888828901612ead565b925050608086013567ffffffffffffffff811115612fc957612fc8612c96565b5b612fd588828901612ead565b9150509295509295909350565b60008115159050919050565b612ff781612fe2565b82525050565b60006020820190506130126000830184612fee565b92915050565b6000819050919050565b61302b81613018565b82525050565b7f4e487b7100000000000000000000000000000000000000000000000000000000600052602160045260246000fd5b6002811061307157613070613031565b5b50565b600081905061308282613060565b919050565b600061309282613074565b9050919050565b6130a281613087565b82525050565b60006080820190506130bd6000830187613022565b6130ca6020830186613022565b6130d76040830185613022565b6130e46060830184613099565b95945050505050565b600082825260208201905092915050565b600061310982612cf4565b61311381856130ed565b9350613123818560208601612d10565b61312c81612d3a565b840191505092915050565b600060a083016000830151848203600086015261315482826130fe565b9150506020830151848203602086015261316e82826130fe565b9150506040830151848203604086015261318882826130fe565b915050606083015184820360608601526131a282826130fe565b915050608083015184820360808601526131bc82826130fe565b9150508091505092915050565b600060208201905081810360008301526131e38184613137565b905092915050565b60006020820190506132006000830184613022565b92915050565b600081519050919050565b600082825260208201905092915050565b6000819050602082019050919050565b600061323e83836130fe565b905092915050565b6000602082019050919050565b600061325e82613206565b6132688185613211565b93508360208202850161327a85613222565b8060005b858110156132b657848403895281516132978582613232565b94506132a283613246565b925060208a0199505060018101905061327e565b50829750879550505050505092915050565b600060208201905081810360008301526132e28184613253565b905092915050565b6132f381612bc1565b82525050565b600060208201905061330e60008301846132ea565b92915050565b60006020828403121561332a57613329612c91565b5b600082013567ffffffffffffffff81111561334857613347612c96565b5b61335484828501612ead565b91505092915050565b7f596f752061726520626c61636b6c697374656400000000000000000000000000600082015250565b6000613393601383612cff565b915061339e8261335d565b602082019050919050565b600060208201905081810360008301526133c281613386565b9050919050565b7f4e487b7100000000000000000000000000000000000000000000000000000000600052602260045260246000fd5b6000600282049050600182168061341057607f821691505b602082108103613423576134226133c9565b5b50919050565b7f4941470000000000000000000000000000000000000000000000000000000000600082015250565b600061345f600383612cff565b915061346a82613429565b602082019050919050565b6000602082019050818103600083015261348e81613452565b9050919050565b7f4e487b7100000000000000000000000000000000000000000000000000000000600052601160045260246000fd5b60006134cf82613018565b91507fffffffffffffffffffffffffffffffffffffffffffffffffffffffffffffffff820361350157613500613495565b5b600182019050919050565b60008190508160005260206000209050919050565b60006020601f8301049050919050565b600082821b905092915050565b60006008830261356e7fffffffffffffffffffffffffffffffffffffffffffffffffffffffffffffffff82613531565b6135788683613531565b95508019841693508086168417925050509392505050565b6000819050919050565b60006135b56135b06135ab84613018565b613590565b613018565b9050919050565b6000819050919050565b6135cf8361359a565b6135e36135db826135bc565b84845461353e565b825550505050565b600090565b6135f86135eb565b6136038184846135c6565b505050565b5b818110156136275761361c6000826135f0565b600181019050613609565b5050565b601f82111561366c5761363d8161350c565b61364684613521565b81016020851015613655578190505b61366961366185613521565b830182613608565b50505b505050565b600082821c905092915050565b600061368f60001984600802613671565b1980831691505092915050565b60006136a8838361367e565b9150826002028217905092915050565b6136c182612cf4565b67ffffffffffffffff8111156136da576136d9612db0565b5b6136e482546133f8565b6136ef82828561362b565b600060209050601f8311600181146137225760008415613710578287015190505b61371a858261369c565b865550613782565b601f1984166137308661350c565b60005b8281101561375857848901518255600182019150602085019450602081019050613733565b868310156137755784890151613771601f89168261367e565b8355505b6001600288020188555050505b505050505050565b600060408201905061379f60008301856132ea565b6137ac6020830184613022565b9392505050565b600081546137c0816133f8565b6137ca8186612cff565b945060018216600081146137e557600181146137fb5761382e565b60ff19831686528115156020028601935061382e565b6138048561350c565b60005b8381101561382657815481890152600182019150602081019050613807565b808801955050505b50505092915050565b6000602082019050818103600083015261385181846137b3565b905092915050565b600060a08201905081810360008301526138738188612d4b565b905081810360208301526138878187612d4b565b9050818103604083015261389b8186612d4b565b905081810360608301526138af8185612d4b565b905081810360808301526138c38184612d4b565b90509695505050505050565b6138d881612fe2565b81146138e357600080fd5b50565b6000815190506138f5816138cf565b92915050565b60006020828403121561391157613910612c91565b5b600061391f848285016138e6565b91505092915050565b7f4f6e6c79204f776e657220686176652061207065726d697373696f6e2e000000600082015250565b600061395e601d83612cff565b915061396982613928565b602082019050919050565b6000602082019050818103600083015261398d81613951565b9050919050565b61399d81613018565b81146139a857600080fd5b50565b6000815190506139ba81613994565b92915050565b600281106139cd57600080fd5b50565b6000815190506139df816139c0565b92915050565b600080600080608085870312156139ff576139fe612c91565b5b6000613a0d878288016139ab565b9450506020613a1e878288016139ab565b9350506040613a2f878288016139ab565b9250506060613a40878288016139d0565b91505092959194509250565b6000604082019050613a6160008301856132ea565b613a6e60208301846132ea565b9392505050565b600060208284031215613a8b57613a8a612c91565b5b6000613a99848285016139ab565b91505092915050565b7f4e41000000000000000000000000000000000000000000000000000000000000600082015250565b6000613ad8600283612cff565b9150613ae382613aa2565b602082019050919050565b60006020820190508181036000830152613b0781613acb565b9050919050565b7f4e487b7100000000000000000000000000000000000000000000000000000000600052603260045260246000fd5b600081905092915050565b6000613b5382612cf4565b613b5d8185613b3d565b9350613b6d818560208601612d10565b80840191505092915050565b6000613b858284613b48565b915081905092915050565b60008154613b9d816133f8565b613ba78186613b3d565b94506001821660008114613bc25760018114613bd757613c0a565b60ff1983168652811515820286019350613c0a565b613be08561350c565b60005b83811015613c0257815481890152600182019150602081019050613be3565b838801955050505b50505092915050565b6000613c1f8284613b90565b915081905092915050565b7f636f6465206572726f7200000000000000000000000000000000000000000000600082015250565b6000613c60600a83612cff565b9150613c6b82613c2a565b602082019050919050565b60006020820190508181036000830152613c8f81613c53565b9050919050565b7f4152000000000000000000000000000000000000000000000000000000000000600082015250565b6000613ccc600283612cff565b9150613cd782613c96565b602082019050919050565b60006020820190508181036000830152613cfb81613cbf565b9050919050565b7f52656163686564206d6178696d756d2076616c75650000000000000000000000600082015250565b6000613d38601583612cff565b9150613d4382613d02565b602082019050919050565b60006020820190508181036000830152613d6781613d2b565b9050919050565b7f496e707574206c656e6774682073686f756c6420626520350000000000000000600082015250565b6000613da4601883612cff565b9150613daf82613d6e565b602082019050919050565b60006020820190508181036000830152613dd381613d97565b9050919050565b6000613de582613018565b9150613df083613018565b9250828201905080821115613e0857613e07613495565b5b92915050565b6000613e1982613018565b9150613e2483613018565b9250828203905081811115613e3c57613e3b613495565b5b92915050565b600081905092915050565b60008190508160005260206000209050919050565b60008154613e6f816133f8565b613e798186613e42565b94506001821660008114613e945760018114613ea957613edc565b60ff1983168652811515820286019350613edc565b613eb285613e4d565b60005b83811015613ed457815481890152600182019150602081019050613eb5565b838801955050505b50505092915050565b6000613ef18284613e62565b915081905092915050565b600060ff82169050919050565b6000613f1482613efc565b9150613f1f83613efc565b9250828201905060ff811115613f3857613f37613495565b5b92915050565b6000613f4982613018565b915060008203613f5c57613f5b613495565b5b60018203905091905056fea26469706673582212207d9e4cc7b6d3dc3f53397bca46b693eac9e1da10f63313f3d41881034d715b5b64736f6c63430008180033",
  "linkReferences": {},
  "deployedLinkReferences": {}
}