{
  "data": {
    "bytecode": {
      "linkReferences": {},
      "object": "608060405234801561000f575f80fd5b5060405161494038038061494083398181016040528101906100319190610254565b5f600360106101000a81548160ff021916908315150217905550825f806101000a81548173ffffffffffffffffffffffffffffffffffffffff021916908373ffffffffffffffffffffffffffffffffffffffff160217905550606460035f6101000a81548161ffff021916908361ffff1602179055506014600360026101000a81548161ffff021916908361ffff16021790555060fa600360046101000a81548161ffff021916908361ffff1602179055506101f4600360066101000a81548161ffff021916908361ffff1602179055506032600360086101000a81548161ffff021916908361ffff16021790555060146003600a6101000a81548161ffff021916908361ffff16021790555060646003600c6101000a81548161ffff021916908361ffff16021790555060c86003600e6101000a81548161ffff021916908361ffff1602179055505f6009819055505f600a819055508173ffffffffffffffffffffffffffffffffffffffff166336b91f2b826040518263ffffffff1660e01b81526004016101c191906102b3565b5f604051808303815f87803b1580156101d8575f80fd5b505af11580156101ea573d5f803e3d5ffd5b505050505050506102cc565b5f80fd5b5f73ffffffffffffffffffffffffffffffffffffffff82169050919050565b5f610223826101fa565b9050919050565b61023381610219565b811461023d575f80fd5b50565b5f8151905061024e8161022a565b92915050565b5f805f6060848603121561026b5761026a6101f6565b5b5f61027886828701610240565b935050602061028986828701610240565b925050604061029a86828701610240565b9150509250925092565b6102ad81610219565b82525050565b5f6020820190506102c65f8301846102a4565b92915050565b614667806102d95f395ff3fe608060405234801561000f575f80fd5b506004361061018c575f3560e01c806372870132116100dc5780639be572f611610095578063b14e52e81161006f578063b14e52e814610454578063ca7e006214610484578063d303e7b2146104a2578063ec29f4e9146104c05761018c565b80639be572f6146104105780639e39b8061461042e5780639f8c6bcd146104385761018c565b8063728701321461032a578063793a298e1461034857806380396811146103645780638bdf5803146103945780639452185f146103c457806396240b68146103f45761018c565b80634233d88011610149578063525b881f11610123578063525b881f146102a65780635ae0e952146102c25780635b8dc8e7146102f257806372316ef31461030e5761018c565b80634233d8801461023e5780634867080e1461025a5780634bf29b971461028a5761018c565b8063127b90151461019057806319e9ee75146101ac5780631d9ff429146101c85780632722673f146101e6578063326bfcc11461020257806336df3c2614610220575b5f80fd5b6101aa60048036038101906101a5919061366b565b6104f0565b005b6101c660048036038101906101c19190613723565b6105e3565b005b6101d06106e1565b6040516101dd9190613770565b60405180910390f35b61020060048036038101906101fb91906137e3565b610725565b005b61020a610a6f565b6040516102179190613770565b60405180910390f35b610228610a78565b60405161023591906138d8565b60405180910390f35b610258600480360381019061025391906138f8565b610bd9565b005b610274600480360381019061026f919061395c565b610cd8565b6040516102819190613aa9565b60405180910390f35b6102a4600480360381019061029f9190613723565b610daf565b005b6102c060048036038101906102bb919061395c565b610ead565b005b6102dc60048036038101906102d7919061395c565b61103a565b6040516102e99190613ad2565b60405180910390f35b61030c60048036038101906103079190613c3b565b611241565b005b61032860048036038101906103239190613723565b6116f7565b005b6103326117f5565b60405161033f9190613dde565b60405180910390f35b610362600480360381019061035d91906138f8565b611a66565b005b61037e6004803603810190610379919061395c565b611b66565b60405161038b9190613dde565b60405180910390f35b6103ae60048036038101906103a99190613723565b611b7c565b6040516103bb9190613dde565b60405180910390f35b6103de60048036038101906103d9919061395c565b611b92565b6040516103eb9190613770565b60405180910390f35b61040e60048036038101906104099190613723565b611bd8565b005b610418611cd6565b6040516104259190613770565b60405180910390f35b610436611cdf565b005b610452600480360381019061044d9190613723565b611fb6565b005b61046e6004803603810190610469919061395c565b6120b4565b60405161047b9190613770565b60405180910390f35b61048c6120fd565b6040516104999190613ea3565b60405180910390f35b6104aa6122d9565b6040516104b79190613fa5565b60405180910390f35b6104da60048036038101906104d59190613fc5565b61239d565b6040516104e79190613dde565b60405180910390f35b5f8054906101000a900473ffffffffffffffffffffffffffffffffffffffff1673ffffffffffffffffffffffffffffffffffffffff16632f54bf6e336040518263ffffffff1660e01b81526004016105489190614024565b602060405180830381865afa158015610563573d5f803e3d5ffd5b505050506040513d601f19601f820116820180604052508101906105879190614051565b6105c6576040517f08c379a00000000000000000000000000000000000000000000000000000000081526004016105bd906140d6565b60405180910390fd5b80600360106101000a81548160ff02191690831515021790555050565b600360109054906101000a900460ff16156106cf575f8054906101000a900473ffffffffffffffffffffffffffffffffffffffff1673ffffffffffffffffffffffffffffffffffffffff16635bf3a315336040518263ffffffff1660e01b81526004016106509190614024565b602060405180830381865afa15801561066b573d5f803e3d5ffd5b505050506040513d601f19601f8201168201806040525081019061068f9190614051565b6106ce576040517f08c379a00000000000000000000000000000000000000000000000000000000081526004016106c590614164565b60405180910390fd5b5b6106dd828260075f80612677565b5050565b5f60075f3373ffffffffffffffffffffffffffffffffffffffff1673ffffffffffffffffffffffffffffffffffffffff1681526020019081526020015f2054905090565b5f8054906101000a900473ffffffffffffffffffffffffffffffffffffffff1673ffffffffffffffffffffffffffffffffffffffff16632f54bf6e336040518263ffffffff1660e01b815260040161077d9190614024565b602060405180830381865afa158015610798573d5f803e3d5ffd5b505050506040513d601f19601f820116820180604052508101906107bc9190614051565b6107fb576040517f08c379a00000000000000000000000000000000000000000000000000000000081526004016107f2906140d6565b60405180910390fd5b5f600781111561080e5761080d613996565b5b82600781111561082157610820613996565b5b03610847578060035f6101000a81548161ffff021916908361ffff160217905550610a6b565b6001600781111561085b5761085a613996565b5b82600781111561086e5761086d613996565b5b036108955780600360026101000a81548161ffff021916908361ffff160217905550610a6a565b600260078111156108a9576108a8613996565b5b8260078111156108bc576108bb613996565b5b036108e35780600360046101000a81548161ffff021916908361ffff160217905550610a69565b600360078111156108f7576108f6613996565b5b82600781111561090a57610909613996565b5b036109315780600360066101000a81548161ffff021916908361ffff160217905550610a68565b6004600781111561094557610944613996565b5b82600781111561095857610957613996565b5b0361097f5780600360086101000a81548161ffff021916908361ffff160217905550610a67565b6005600781111561099357610992613996565b5b8260078111156109a6576109a5613996565b5b036109cd57806003600a6101000a81548161ffff021916908361ffff160217905550610a66565b600660078111156109e1576109e0613996565b5b8260078111156109f4576109f3613996565b5b03610a1b57806003600c6101000a81548161ffff021916908361ffff160217905550610a65565b600780811115610a2e57610a2d613996565b5b826007811115610a4157610a40613996565b5b03610a6457806003600e6101000a81548161ffff021916908361ffff1602179055505b5b5b5b5b5b5b5b5050565b5f600a54905090565b60605f8054906101000a900473ffffffffffffffffffffffffffffffffffffffff1673ffffffffffffffffffffffffffffffffffffffff16632f54bf6e336040518263ffffffff1660e01b8152600401610ad29190614024565b602060405180830381865afa158015610aed573d5f803e3d5ffd5b505050506040513d601f19601f82011682018060405250810190610b119190614051565b610b50576040517f08c379a0000000000000000000000000000000000000000000000000000000008152600401610b47906140d6565b60405180910390fd5b6002805480602002602001604051908101604052809291908181526020018280548015610bcf57602002820191905f5260205f20905b815f9054906101000a900473ffffffffffffffffffffffffffffffffffffffff1673ffffffffffffffffffffffffffffffffffffffff1681526020019060010190808311610b86575b5050505050905090565b600360109054906101000a900460ff1615610cc5575f8054906101000a900473ffffffffffffffffffffffffffffffffffffffff1673ffffffffffffffffffffffffffffffffffffffff16635bf3a315336040518263ffffffff1660e01b8152600401610c469190614024565b602060405180830381865afa158015610c61573d5f803e3d5ffd5b505050506040513d601f19601f82011682018060405250810190610c859190614051565b610cc4576040517f08c379a0000000000000000000000000000000000000000000000000000000008152600401610cbb90614164565b60405180910390fd5b5b610cd284845f8585612677565b50505050565b610ce061357f565b60055f8373ffffffffffffffffffffffffffffffffffffffff1673ffffffffffffffffffffffffffffffffffffffff1681526020019081526020015f20604051806101000160405290815f8201548152602001600182015f9054906101000a900460ff166007811115610d5657610d55613996565b5b6007811115610d6857610d67613996565b5b815260200160028201548152602001600382015481526020016004820154815260200160058201548152602001600682015481526020016007820154815250509050919050565b600360109054906101000a900460ff1615610e9b575f8054906101000a900473ffffffffffffffffffffffffffffffffffffffff1673ffffffffffffffffffffffffffffffffffffffff16635bf3a315336040518263ffffffff1660e01b8152600401610e1c9190614024565b602060405180830381865afa158015610e37573d5f803e3d5ffd5b505050506040513d601f19601f82011682018060405250810190610e5b9190614051565b610e9a576040517f08c379a0000000000000000000000000000000000000000000000000000000008152600401610e9190614164565b60405180910390fd5b5b610ea9828260045f80612677565b5050565b5f8054906101000a900473ffffffffffffffffffffffffffffffffffffffff1673ffffffffffffffffffffffffffffffffffffffff16632f54bf6e336040518263ffffffff1660e01b8152600401610f059190614024565b602060405180830381865afa158015610f20573d5f803e3d5ffd5b505050506040513d601f19601f82011682018060405250810190610f449190614051565b610f83576040517f08c379a0000000000000000000000000000000000000000000000000000000008152600401610f7a906140d6565b60405180910390fd5b6001805f8373ffffffffffffffffffffffffffffffffffffffff1673ffffffffffffffffffffffffffffffffffffffff1681526020019081526020015f205f6101000a81548160ff021916908315150217905550600281908060018154018082558091505060019003905f5260205f20015f9091909190916101000a81548173ffffffffffffffffffffffffffffffffffffffff021916908373ffffffffffffffffffffffffffffffffffffffff16021790555050565b5f80620151804261104b91906141dc565b90505f8060045f8673ffffffffffffffffffffffffffffffffffffffff1673ffffffffffffffffffffffffffffffffffffffff1681526020019081526020015f20805480602002602001604051908101604052809291908181526020015f905b8282101561115b578382905f5260205f209060080201604051806101000160405290815f8201548152602001600182015f9054906101000a900460ff1660078111156110fa576110f9613996565b5b600781111561110c5761110b613996565b5b81526020016002820154815260200160038201548152602001600482015481526020016005820154815260200160068201548152602001600782015481525050815260200190600101906110ab565b5050505090505f815190505f8190505b5f811115611233576201518083600183611185919061420c565b815181106111965761119561423f565b5b60200260200101515f01516111ab91906141dc565b935084840361121d57600560078111156111c8576111c7613996565b5b836001836111d6919061420c565b815181106111e7576111e661423f565b5b602002602001015160200151600781111561120557611204613996565b5b036112185760019550505050505061123c565b611222565b611233565b8061122c9061426c565b905061116b565b505f9450505050505b919050565b5f8054906101000a900473ffffffffffffffffffffffffffffffffffffffff1673ffffffffffffffffffffffffffffffffffffffff16632f54bf6e336040518263ffffffff1660e01b81526004016112999190614024565b602060405180830381865afa1580156112b4573d5f803e3d5ffd5b505050506040513d601f19601f820116820180604052508101906112d89190614051565b611317576040517f08c379a000000000000000000000000000000000000000000000000000000000815260040161130e906140d6565b60405180910390fd5b5f6008825161132691906141dc565b90505b5f8111156116f2575f604051806101000160405280846008808661134d9190614293565b611357919061420c565b815181106113685761136761423f565b5b602002602001015181526020018460076008866113859190614293565b61138f919061420c565b815181106113a05761139f61423f565b5b602002602001015160078111156113ba576113b9613996565b5b60078111156113cc576113cb613996565b5b81526020018460066008866113e19190614293565b6113eb919061420c565b815181106113fc576113fb61423f565b5b602002602001015181526020018460056008866114199190614293565b611423919061420c565b815181106114345761143361423f565b5b602002602001015181526020018460046008866114519190614293565b61145b919061420c565b8151811061146c5761146b61423f565b5b602002602001015181526020018460036008866114899190614293565b611493919061420c565b815181106114a4576114a361423f565b5b602002602001015181526020018460026008866114c19190614293565b6114cb919061420c565b815181106114dc576114db61423f565b5b602002602001015181526020018460016008866114f99190614293565b611503919061420c565b815181106115145761151361423f565b5b602002602001015181525090508060c001518160a00151600a5461153891906142d4565b61154291906142d4565b600a8190555060045f8573ffffffffffffffffffffffffffffffffffffffff1673ffffffffffffffffffffffffffffffffffffffff1681526020019081526020015f2081908060018154018082558091505060019003905f5260205f2090600802015f909190919091505f820151815f01556020820151816001015f6101000a81548160ff021916908360078111156115de576115dd613996565b5b021790555060408201518160020155606082015181600301556080820151816004015560a0820151816005015560c0820151816006015560e0820151816007015550508060055f8673ffffffffffffffffffffffffffffffffffffffff1673ffffffffffffffffffffffffffffffffffffffff1681526020019081526020015f205f820151815f01556020820151816001015f6101000a81548160ff0219169083600781111561169157611690613996565b5b021790555060408201518160020155606082015181600301556080820151816004015560a0820151816005015560c0820151816006015560e082015181600701559050506116de84612b4a565b5080806116ea9061426c565b915050611329565b505050565b600360109054906101000a900460ff16156117e3575f8054906101000a900473ffffffffffffffffffffffffffffffffffffffff1673ffffffffffffffffffffffffffffffffffffffff16635bf3a315336040518263ffffffff1660e01b81526004016117649190614024565b602060405180830381865afa15801561177f573d5f803e3d5ffd5b505050506040513d601f19601f820116820180604052508101906117a39190614051565b6117e2576040517f08c379a00000000000000000000000000000000000000000000000000000000081526004016117d990614164565b60405180910390fd5b5b6117f1828260065f80612677565b5050565b60605f8054906101000a900473ffffffffffffffffffffffffffffffffffffffff1673ffffffffffffffffffffffffffffffffffffffff16632f54bf6e336040518263ffffffff1660e01b815260040161184f9190614024565b602060405180830381865afa15801561186a573d5f803e3d5ffd5b505050506040513d601f19601f8201168201806040525081019061188e9190614051565b6118cd576040517f08c379a00000000000000000000000000000000000000000000000000000000081526004016118c4906140d6565b60405180910390fd5b5f60095467ffffffffffffffff8111156118ea576118e9613aff565b5b60405190808252806020026020018201604052801561192357816020015b61191061357f565b8152602001906001900390816119085790505b5090505f5b600954811015611a5e5760055f600883815481106119495761194861423f565b5b905f5260205f20015f9054906101000a900473ffffffffffffffffffffffffffffffffffffffff1673ffffffffffffffffffffffffffffffffffffffff1673ffffffffffffffffffffffffffffffffffffffff1681526020019081526020015f20604051806101000160405290815f8201548152602001600182015f9054906101000a900460ff1660078111156119e3576119e2613996565b5b60078111156119f5576119f4613996565b5b81526020016002820154815260200160038201548152602001600482015481526020016005820154815260200160068201548152602001600782015481525050828281518110611a4857611a4761423f565b5b6020026020010181905250806001019050611928565b508091505090565b600360109054906101000a900460ff1615611b52575f8054906101000a900473ffffffffffffffffffffffffffffffffffffffff1673ffffffffffffffffffffffffffffffffffffffff16635bf3a315336040518263ffffffff1660e01b8152600401611ad39190614024565b602060405180830381865afa158015611aee573d5f803e3d5ffd5b505050506040513d601f19601f82011682018060405250810190611b129190614051565b611b51576040517f08c379a0000000000000000000000000000000000000000000000000000000008152600401611b4890614164565b60405180910390fd5b5b611b60848460018585612677565b50505050565b6060611b75826001606461239d565b9050919050565b6060611b8a8383606461239d565b905092915050565b5f60075f8373ffffffffffffffffffffffffffffffffffffffff1673ffffffffffffffffffffffffffffffffffffffff1681526020019081526020015f20549050919050565b600360109054906101000a900460ff1615611cc4575f8054906101000a900473ffffffffffffffffffffffffffffffffffffffff1673ffffffffffffffffffffffffffffffffffffffff16635bf3a315336040518263ffffffff1660e01b8152600401611c459190614024565b602060405180830381865afa158015611c60573d5f803e3d5ffd5b505050506040513d601f19601f82011682018060405250810190611c849190614051565b611cc3576040517f08c379a0000000000000000000000000000000000000000000000000000000008152600401611cba90614164565b60405180910390fd5b5b611cd2828260025f80612677565b5050565b5f600954905090565b5f339050611cec8161103a565b15611d2c576040517f08c379a0000000000000000000000000000000000000000000000000000000008152600401611d2390614351565b60405180910390fd5b5f4290505f611d3b8383613414565b90505f6012600a611d4c91906144aa565b6003600a9054906101000a900461ffff1661ffff16611d6b9190614293565b90505f611d8084845f01518560600151613550565b90505f81838560e00151611d9491906142d4565b611d9e91906142d4565b90508183600a54611daf91906142d4565b611db991906142d4565b600a819055505f60405180610100016040528042815260200160056007811115611de657611de5613996565b5b81526020015f8152602001866060015181526020018660800151815260200185815260200184815260200183815250905060045f8873ffffffffffffffffffffffffffffffffffffffff1673ffffffffffffffffffffffffffffffffffffffff1681526020019081526020015f2081908060018154018082558091505060019003905f5260205f2090600802015f909190919091505f820151815f01556020820151816001015f6101000a81548160ff02191690836007811115611ead57611eac613996565b5b021790555060408201518160020155606082015181600301556080820151816004015560a0820151816005015560c0820151816006015560e0820151816007015550508060055f8973ffffffffffffffffffffffffffffffffffffffff1673ffffffffffffffffffffffffffffffffffffffff1681526020019081526020015f205f820151815f01556020820151816001015f6101000a81548160ff02191690836007811115611f6057611f5f613996565b5b021790555060408201518160020155606082015181600301556080820151816004015560a0820151816005015560c0820151816006015560e08201518160070155905050611fad87612b4a565b50505050505050565b600360109054906101000a900460ff16156120a2575f8054906101000a900473ffffffffffffffffffffffffffffffffffffffff1673ffffffffffffffffffffffffffffffffffffffff16635bf3a315336040518263ffffffff1660e01b81526004016120239190614024565b602060405180830381865afa15801561203e573d5f803e3d5ffd5b505050506040513d601f19601f820116820180604052508101906120629190614051565b6120a1576040517f08c379a000000000000000000000000000000000000000000000000000000000815260040161209890614164565b60405180910390fd5b5b6120b0828260035f80612677565b5050565b5f60045f8373ffffffffffffffffffffffffffffffffffffffff1673ffffffffffffffffffffffffffffffffffffffff1681526020019081526020015f20805490509050919050565b6121056135ce565b5f8054906101000a900473ffffffffffffffffffffffffffffffffffffffff1673ffffffffffffffffffffffffffffffffffffffff16632f54bf6e336040518263ffffffff1660e01b815260040161215d9190614024565b602060405180830381865afa158015612178573d5f803e3d5ffd5b505050506040513d601f19601f8201168201806040525081019061219c9190614051565b6121db576040517f08c379a00000000000000000000000000000000000000000000000000000000081526004016121d2906140d6565b60405180910390fd5b60405180610100016040528060035f9054906101000a900461ffff1661ffff1661ffff168152602001600360029054906101000a900461ffff1661ffff1661ffff168152602001600360049054906101000a900461ffff1661ffff1661ffff168152602001600360069054906101000a900461ffff1661ffff1661ffff168152602001600360089054906101000a900461ffff1661ffff1661ffff1681526020016003600a9054906101000a900461ffff1661ffff1661ffff1681526020016003600c9054906101000a900461ffff1661ffff1661ffff1681526020016003600e9054906101000a900461ffff1661ffff1661ffff16815250905090565b60606006805480602002602001604051908101604052809291908181526020015f905b82821015612394578382905f5260205f2090600302016040518060600160405290815f82015f9054906101000a900473ffffffffffffffffffffffffffffffffffffffff1673ffffffffffffffffffffffffffffffffffffffff1673ffffffffffffffffffffffffffffffffffffffff16815260200160018201548152602001600282015481525050815260200190600101906122fc565b50505050905090565b60605f60045f8673ffffffffffffffffffffffffffffffffffffffff1673ffffffffffffffffffffffffffffffffffffffff1681526020019081526020015f20805480602002602001604051908101604052809291908181526020015f905b828210156124ac578382905f5260205f209060080201604051806101000160405290815f8201548152602001600182015f9054906101000a900460ff16600781111561244b5761244a613996565b5b600781111561245d5761245c613996565b5b81526020016002820154815260200160038201548152602001600482015481526020016005820154815260200160068201548152602001600782015481525050815260200190600101906123fc565b5050505090505f815190505f81116124f9576040517f08c379a00000000000000000000000000000000000000000000000000000000081526004016124f09061453e565b60405180910390fd5b600185612506919061420c565b846125119190614293565b8111612552576040517f08c379a0000000000000000000000000000000000000000000000000000000008152600401612549906145cc565b60405180910390fd5b5f80600187612561919061420c565b8661256c9190614293565b83612577919061420c565b9150858211612588575f9050612597565b8582612594919061420c565b90505b5f81836125a4919061420c565b67ffffffffffffffff8111156125bd576125bc613aff565b5b6040519080825280602002602001820160405280156125f657816020015b6125e361357f565b8152602001906001900390816125db5790505b5090505f8390505b828111156126675785600182612614919061420c565b815181106126255761262461423f565b5b602002602001015182828661263a919061420c565b8151811061264b5761264a61423f565b5b6020026020010181905250806126609061426c565b90506125fe565b5080955050505050509392505050565b5f6126828686613414565b90505f816080015190505f8060078111156126a05761269f613996565b5b8660078111156126b3576126b2613996565b5b036126eb5760035f9054906101000a900461ffff1661ffff16611388866126da91906141dc565b6126e49190614293565b9050612906565b6012600a6126f991906144aa565b90506001600781111561270f5761270e613996565b5b86600781111561272257612721613996565b5b0361274e57600360029054906101000a900461ffff1661ffff16816127479190614293565b9050612905565b5f9450826060015193506002600781111561276c5761276b613996565b5b86600781111561277f5761277e613996565b5b036127b957600360049054906101000a900461ffff1661ffff16816127a49190614293565b905081806127b1906145ea565b925050612904565b600360078111156127cd576127cc613996565b5b8660078111156127e0576127df613996565b5b0361280c57600360069054906101000a900461ffff1661ffff16816128059190614293565b9050612903565b600460078111156128205761281f613996565b5b86600781111561283357612832613996565b5b0361285f57600360089054906101000a900461ffff1661ffff16816128589190614293565b9050612902565b6006600781111561287357612872613996565b5b86600781111561288657612885613996565b5b036128b2576003600c9054906101000a900461ffff1661ffff16816128ab9190614293565b9050612901565b6007808111156128c5576128c4613996565b5b8660078111156128d8576128d7613996565b5b03612900576003600e9054906101000a900461ffff1661ffff16816128fd9190614293565b90505b5b5b5b5b5b5b5f61291988855f01518660600151613550565b90505f81838660e0015161292d91906142d4565b61293791906142d4565b90508183600a5461294891906142d4565b61295291906142d4565b600a819055505f6040518061010001604052808b81526020018a600781111561297e5761297d613996565b5b815260200189815260200188815260200186815260200185815260200184815260200183815250905060045f8c73ffffffffffffffffffffffffffffffffffffffff1673ffffffffffffffffffffffffffffffffffffffff1681526020019081526020015f2081908060018154018082558091505060019003905f5260205f2090600802015f909190919091505f820151815f01556020820151816001015f6101000a81548160ff02191690836007811115612a3d57612a3c613996565b5b021790555060408201518160020155606082015181600301556080820151816004015560a0820151816005015560c0820151816006015560e0820151816007015550508060055f8d73ffffffffffffffffffffffffffffffffffffffff1673ffffffffffffffffffffffffffffffffffffffff1681526020019081526020015f205f820151815f01556020820151816001015f6101000a81548160ff02191690836007811115612af057612aef613996565b5b021790555060408201518160020155606082015181600301556080820151816004015560a0820151816005015560c0820151816006015560e08201518160070155905050612b3d8b612b4a565b5050505050505050505050565b5f60055f8373ffffffffffffffffffffffffffffffffffffffff1673ffffffffffffffffffffffffffffffffffffffff1681526020019081526020015f20604051806101000160405290815f8201548152602001600182015f9054906101000a900460ff166007811115612bc157612bc0613996565b5b6007811115612bd357612bd2613996565b5b815260200160028201548152602001600382015481526020016004820154815260200160058201548152602001600682015481526020016007820154815250509050612c1d6135f1565b5f60075f8573ffffffffffffffffffffffffffffffffffffffff1673ffffffffffffffffffffffffffffffffffffffff1681526020019081526020015f205490505f8103612e0b576001600680549050612c7791906142d4565b60075f8673ffffffffffffffffffffffffffffffffffffffff1673ffffffffffffffffffffffffffffffffffffffff1681526020019081526020015f20819055506001600680549050612cca91906142d4565b905060c86006805490501015612d9557600660405180606001604052808673ffffffffffffffffffffffffffffffffffffffff168152602001855f015181526020018560e00151815250908060018154018082558091505060019003905f5260205f2090600302015f909190919091505f820151815f015f6101000a81548173ffffffffffffffffffffffffffffffffffffffff021916908373ffffffffffffffffffffffffffffffffffffffff160217905550602082015181600101556040820151816002015550505b600884908060018154018082558091505060019003905f5260205f20015f9091909190916101000a81548173ffffffffffffffffffffffffffffffffffffffff021916908373ffffffffffffffffffffffffffffffffffffffff1602179055506001600954612e0491906142d4565b6009819055505b60c88111612ed75760405180606001604052808573ffffffffffffffffffffffffffffffffffffffff168152602001845f015181526020018460e001518152506006600183612e5a919061420c565b81548110612e6b57612e6a61423f565b5b905f5260205f2090600302015f820151815f015f6101000a81548173ffffffffffffffffffffffffffffffffffffffff021916908373ffffffffffffffffffffffffffffffffffffffff160217905550602082015181600101556040820151816002015590505061307e565b8260e0015160066001600680549050612ef0919061420c565b81548110612f0157612f0061423f565b5b905f5260205f2090600302016002015410156130795760c960075f60066001600680549050612f30919061420c565b81548110612f4157612f4061423f565b5b905f5260205f2090600302015f015f9054906101000a900473ffffffffffffffffffffffffffffffffffffffff1673ffffffffffffffffffffffffffffffffffffffff1673ffffffffffffffffffffffffffffffffffffffff1681526020019081526020015f208190555060405180606001604052808573ffffffffffffffffffffffffffffffffffffffff168152602001845f015181526020018460e0015181525060066001600680549050612ff8919061420c565b815481106130095761300861423f565b5b905f5260205f2090600302015f820151815f015f6101000a81548173ffffffffffffffffffffffffffffffffffffffff021916908373ffffffffffffffffffffffffffffffffffffffff160217905550602082015181600101556040820151816002015590505060c8905061307d565b5f90505b5b5f60018261308c919061420c565b90505b5f81111561340d57600681815481106130ab576130aa61423f565b5b905f5260205f2090600302016002015460066001836130ca919061420c565b815481106130db576130da61423f565b5b905f5260205f2090600302016002015410156133f757600681815481106131055761310461423f565b5b905f5260205f2090600302016040518060600160405290815f82015f9054906101000a900473ffffffffffffffffffffffffffffffffffffffff1673ffffffffffffffffffffffffffffffffffffffff1673ffffffffffffffffffffffffffffffffffffffff1681526020016001820154815260200160028201548152505092506006600182613195919061420c565b815481106131a6576131a561423f565b5b905f5260205f209060030201600682815481106131c6576131c561423f565b5b905f5260205f2090600302015f82015f9054906101000a900473ffffffffffffffffffffffffffffffffffffffff16815f015f6101000a81548173ffffffffffffffffffffffffffffffffffffffff021916908373ffffffffffffffffffffffffffffffffffffffff160217905550600182015481600101556002820154816002015590505082600660018361325c919061420c565b8154811061326d5761326c61423f565b5b905f5260205f2090600302015f820151815f015f6101000a81548173ffffffffffffffffffffffffffffffffffffffff021916908373ffffffffffffffffffffffffffffffffffffffff16021790555060208201518160010155604082015181600201559050508060075f60066001856132e7919061420c565b815481106132f8576132f761423f565b5b905f5260205f2090600302015f015f9054906101000a900473ffffffffffffffffffffffffffffffffffffffff1673ffffffffffffffffffffffffffffffffffffffff1673ffffffffffffffffffffffffffffffffffffffff1681526020019081526020015f208190555060018161337091906142d4565b60075f600684815481106133875761338661423f565b5b905f5260205f2090600302015f015f9054906101000a900473ffffffffffffffffffffffffffffffffffffffff1673ffffffffffffffffffffffffffffffffffffffff1673ffffffffffffffffffffffffffffffffffffffff1681526020019081526020015f20819055506133fc565b61340d565b806134069061426c565b905061308f565b5050505050565b61341c61357f565b5f60055f8573ffffffffffffffffffffffffffffffffffffffff1673ffffffffffffffffffffffffffffffffffffffff1681526020019081526020015f20604051806101000160405290815f8201548152602001600182015f9054906101000a900460ff16600781111561349357613492613996565b5b60078111156134a5576134a4613996565b5b8152602001600282015481526020016003820154815260200160048201548152602001600582015481526020016006820154815260200160078201548152505090505f815f0151146134fa578091505061354a565b6040518061010001604052808481526020015f600781111561351f5761351e613996565b5b81526020015f81526020015f81526020015f81526020015f81526020015f81526020015f8152509150505b92915050565b5f621e8480828486613562919061420c565b61356c9190614293565b61357691906141dc565b90509392505050565b6040518061010001604052805f81526020015f60078111156135a4576135a3613996565b5b81526020015f81526020015f81526020015f81526020015f81526020015f81526020015f81525090565b604051806101000160405280600890602082028036833780820191505090505090565b60405180606001604052805f73ffffffffffffffffffffffffffffffffffffffff1681526020015f81526020015f81525090565b5f604051905090565b5f80fd5b5f80fd5b5f8115159050919050565b61364a81613636565b8114613654575f80fd5b50565b5f8135905061366581613641565b92915050565b5f602082840312156136805761367f61362e565b5b5f61368d84828501613657565b91505092915050565b5f73ffffffffffffffffffffffffffffffffffffffff82169050919050565b5f6136bf82613696565b9050919050565b6136cf816136b5565b81146136d9575f80fd5b50565b5f813590506136ea816136c6565b92915050565b5f819050919050565b613702816136f0565b811461370c575f80fd5b50565b5f8135905061371d816136f9565b92915050565b5f80604083850312156137395761373861362e565b5b5f613746858286016136dc565b92505060206137578582860161370f565b9150509250929050565b61376a816136f0565b82525050565b5f6020820190506137835f830184613761565b92915050565b60088110613795575f80fd5b50565b5f813590506137a681613789565b92915050565b5f61ffff82169050919050565b6137c2816137ac565b81146137cc575f80fd5b50565b5f813590506137dd816137b9565b92915050565b5f80604083850312156137f9576137f861362e565b5b5f61380685828601613798565b9250506020613817858286016137cf565b9150509250929050565b5f81519050919050565b5f82825260208201905092915050565b5f819050602082019050919050565b613853816136b5565b82525050565b5f613864838361384a565b60208301905092915050565b5f602082019050919050565b5f61388682613821565b613890818561382b565b935061389b8361383b565b805f5b838110156138cb5781516138b28882613859565b97506138bd83613870565b92505060018101905061389e565b5085935050505092915050565b5f6020820190508181035f8301526138f0818461387c565b905092915050565b5f805f80608085870312156139105761390f61362e565b5b5f61391d878288016136dc565b945050602061392e8782880161370f565b935050604061393f8782880161370f565b92505060606139508782880161370f565b91505092959194509250565b5f602082840312156139715761397061362e565b5b5f61397e848285016136dc565b91505092915050565b613990816136f0565b82525050565b7f4e487b71000000000000000000000000000000000000000000000000000000005f52602160045260245ffd5b600881106139d4576139d3613996565b5b50565b5f8190506139e4826139c3565b919050565b5f6139f3826139d7565b9050919050565b613a03816139e9565b82525050565b61010082015f820151613a1e5f850182613987565b506020820151613a3160208501826139fa565b506040820151613a446040850182613987565b506060820151613a576060850182613987565b506080820151613a6a6080850182613987565b5060a0820151613a7d60a0850182613987565b5060c0820151613a9060c0850182613987565b5060e0820151613aa360e0850182613987565b50505050565b5f61010082019050613abd5f830184613a09565b92915050565b613acc81613636565b82525050565b5f602082019050613ae55f830184613ac3565b92915050565b5f80fd5b5f601f19601f8301169050919050565b7f4e487b71000000000000000000000000000000000000000000000000000000005f52604160045260245ffd5b613b3582613aef565b810181811067ffffffffffffffff82111715613b5457613b53613aff565b5b80604052505050565b5f613b66613625565b9050613b728282613b2c565b919050565b5f67ffffffffffffffff821115613b9157613b90613aff565b5b602082029050602081019050919050565b5f80fd5b5f613bb8613bb384613b77565b613b5d565b90508083825260208201905060208402830185811115613bdb57613bda613ba2565b5b835b81811015613c045780613bf0888261370f565b845260208401935050602081019050613bdd565b5050509392505050565b5f82601f830112613c2257613c21613aeb565b5b8135613c32848260208601613ba6565b91505092915050565b5f8060408385031215613c5157613c5061362e565b5b5f613c5e858286016136dc565b925050602083013567ffffffffffffffff811115613c7f57613c7e613632565b5b613c8b85828601613c0e565b9150509250929050565b5f81519050919050565b5f82825260208201905092915050565b5f819050602082019050919050565b61010082015f820151613cd35f850182613987565b506020820151613ce660208501826139fa565b506040820151613cf96040850182613987565b506060820151613d0c6060850182613987565b506080820151613d1f6080850182613987565b5060a0820151613d3260a0850182613987565b5060c0820151613d4560c0850182613987565b5060e0820151613d5860e0850182613987565b50505050565b5f613d698383613cbe565b6101008301905092915050565b5f602082019050919050565b5f613d8c82613c95565b613d968185613c9f565b9350613da183613caf565b805f5b83811015613dd1578151613db88882613d5e565b9750613dc383613d76565b925050600181019050613da4565b5085935050505092915050565b5f6020820190508181035f830152613df68184613d82565b905092915050565b5f60089050919050565b5f81905092915050565b5f819050919050565b613e24816137ac565b82525050565b5f613e358383613e1b565b60208301905092915050565b5f602082019050919050565b613e5681613dfe565b613e608184613e08565b9250613e6b82613e12565b805f5b83811015613e9b578151613e828782613e2a565b9650613e8d83613e41565b925050600181019050613e6e565b505050505050565b5f61010082019050613eb75f830184613e4d565b92915050565b5f81519050919050565b5f82825260208201905092915050565b5f819050602082019050919050565b606082015f820151613efa5f85018261384a565b506020820151613f0d6020850182613987565b506040820151613f206040850182613987565b50505050565b5f613f318383613ee6565b60608301905092915050565b5f602082019050919050565b5f613f5382613ebd565b613f5d8185613ec7565b9350613f6883613ed7565b805f5b83811015613f98578151613f7f8882613f26565b9750613f8a83613f3d565b925050600181019050613f6b565b5085935050505092915050565b5f6020820190508181035f830152613fbd8184613f49565b905092915050565b5f805f60608486031215613fdc57613fdb61362e565b5b5f613fe9868287016136dc565b9350506020613ffa8682870161370f565b925050604061400b8682870161370f565b9150509250925092565b61401e816136b5565b82525050565b5f6020820190506140375f830184614015565b92915050565b5f8151905061404b81613641565b92915050565b5f602082840312156140665761406561362e565b5b5f6140738482850161403d565b91505092915050565b5f82825260208201905092915050565b7f4f6e6c79204f776e657220686176652061207065726d697373696f6e2e0000005f82015250565b5f6140c0601d8361407c565b91506140cb8261408c565b602082019050919050565b5f6020820190508181035f8301526140ed816140b4565b9050919050565b7f4f6e6c792054727573746564436f6e747261637420686176652061207065726d5f8201527f697373696f6e2e00000000000000000000000000000000000000000000000000602082015250565b5f61414e60278361407c565b9150614159826140f4565b604082019050919050565b5f6020820190508181035f83015261417b81614142565b9050919050565b7f4e487b71000000000000000000000000000000000000000000000000000000005f52601260045260245ffd5b7f4e487b71000000000000000000000000000000000000000000000000000000005f52601160045260245ffd5b5f6141e6826136f0565b91506141f1836136f0565b92508261420157614200614182565b5b828204905092915050565b5f614216826136f0565b9150614221836136f0565b9250828203905081811115614239576142386141af565b5b92915050565b7f4e487b71000000000000000000000000000000000000000000000000000000005f52603260045260245ffd5b5f614276826136f0565b91505f8203614288576142876141af565b5b600182039050919050565b5f61429d826136f0565b91506142a8836136f0565b92508282026142b6816136f0565b915082820484148315176142cd576142cc6141af565b5b5092915050565b5f6142de826136f0565b91506142e9836136f0565b9250828201905080821115614301576143006141af565b5b92915050565b7f416c726561647920436865636b65642d696e00000000000000000000000000005f82015250565b5f61433b60128361407c565b915061434682614307565b602082019050919050565b5f6020820190508181035f8301526143688161432f565b9050919050565b5f8160011c9050919050565b5f808291508390505b60018511156143c4578086048111156143a05761439f6141af565b5b60018516156143af5780820291505b80810290506143bd8561436f565b9450614384565b94509492505050565b5f826143dc5760019050614497565b816143e9575f9050614497565b81600181146143ff576002811461440957614438565b6001915050614497565b60ff84111561441b5761441a6141af565b5b8360020a915084821115614432576144316141af565b5b50614497565b5060208310610133831016604e8410600b841016171561446d5782820a905083811115614468576144676141af565b5b614497565b61447a848484600161437b565b92509050818404811115614491576144906141af565b5b81810290505b9392505050565b5f60ff82169050919050565b5f6144b4826136f0565b91506144bf8361449e565b92506144ec7fffffffffffffffffffffffffffffffffffffffffffffffffffffffffffffffff84846143cd565b905092915050565b7f4e4f5f44415441000000000000000000000000000000000000000000000000005f82015250565b5f61452860078361407c565b9150614533826144f4565b602082019050919050565b5f6020820190508181035f8301526145558161451c565b9050919050565b7f494e56414c49445f50414745203a206e6f204461746120696e207468697320705f8201527f6167650000000000000000000000000000000000000000000000000000000000602082015250565b5f6145b660238361407c565b91506145c18261455c565b604082019050919050565b5f6020820190508181035f8301526145e3816145aa565b9050919050565b5f6145f4826136f0565b91507fffffffffffffffffffffffffffffffffffffffffffffffffffffffffffffffff8203614626576146256141af565b5b60018201905091905056fea2646970667358221220793a17cd3bcd96d5b920c8251700c6d3309fba421f2f7a0cd400d79cfe51569164736f6c63430008190033",
      "opcodes": "PUSH1 0x80 PUSH1 0x40 MSTORE CALLVALUE DUP1 ISZERO PUSH2 0xF JUMPI PUSH0 DUP1 REVERT JUMPDEST POP PUSH1 0x40 MLOAD PUSH2 0x4940 CODESIZE SUB DUP1 PUSH2 0x4940 DUP4 CODECOPY DUP2 DUP2 ADD PUSH1 0x40 MSTORE DUP2 ADD SWAP1 PUSH2 0x31 SWAP2 SWAP1 PUSH2 0x254 JUMP JUMPDEST PUSH0 PUSH1 0x3 PUSH1 0x10 PUSH2 0x100 EXP DUP2 SLOAD DUP2 PUSH1 0xFF MUL NOT AND SWAP1 DUP4 ISZERO ISZERO MUL OR SWAP1 SSTORE POP DUP3 PUSH0 DUP1 PUSH2 0x100 EXP DUP2 SLOAD DUP2 PUSH20 0xFFFFFFFFFFFFFFFFFFFFFFFFFFFFFFFFFFFFFFFF MUL NOT AND SWAP1 DUP4 PUSH20 0xFFFFFFFFFFFFFFFFFFFFFFFFFFFFFFFFFFFFFFFF AND MUL OR SWAP1 SSTORE POP PUSH1 0x64 PUSH1 0x3 PUSH0 PUSH2 0x100 EXP DUP2 SLOAD DUP2 PUSH2 0xFFFF MUL NOT AND SWAP1 DUP4 PUSH2 0xFFFF AND MUL OR SWAP1 SSTORE POP PUSH1 0x14 PUSH1 0x3 PUSH1 0x2 PUSH2 0x100 EXP DUP2 SLOAD DUP2 PUSH2 0xFFFF MUL NOT AND SWAP1 DUP4 PUSH2 0xFFFF AND MUL OR SWAP1 SSTORE POP PUSH1 0xFA PUSH1 0x3 PUSH1 0x4 PUSH2 0x100 EXP DUP2 SLOAD DUP2 PUSH2 0xFFFF MUL NOT AND SWAP1 DUP4 PUSH2 0xFFFF AND MUL OR SWAP1 SSTORE POP PUSH2 0x1F4 PUSH1 0x3 PUSH1 0x6 PUSH2 0x100 EXP DUP2 SLOAD DUP2 PUSH2 0xFFFF MUL NOT AND SWAP1 DUP4 PUSH2 0xFFFF AND MUL OR SWAP1 SSTORE POP PUSH1 0x32 PUSH1 0x3 PUSH1 0x8 PUSH2 0x100 EXP DUP2 SLOAD DUP2 PUSH2 0xFFFF MUL NOT AND SWAP1 DUP4 PUSH2 0xFFFF AND MUL OR SWAP1 SSTORE POP PUSH1 0x14 PUSH1 0x3 PUSH1 0xA PUSH2 0x100 EXP DUP2 SLOAD DUP2 PUSH2 0xFFFF MUL NOT AND SWAP1 DUP4 PUSH2 0xFFFF AND MUL OR SWAP1 SSTORE POP PUSH1 0x64 PUSH1 0x3 PUSH1 0xC PUSH2 0x100 EXP DUP2 SLOAD DUP2 PUSH2 0xFFFF MUL NOT AND SWAP1 DUP4 PUSH2 0xFFFF AND MUL OR SWAP1 SSTORE POP PUSH1 0xC8 PUSH1 0x3 PUSH1 0xE PUSH2 0x100 EXP DUP2 SLOAD DUP2 PUSH2 0xFFFF MUL NOT AND SWAP1 DUP4 PUSH2 0xFFFF AND MUL OR SWAP1 SSTORE POP PUSH0 PUSH1 0x9 DUP2 SWAP1 SSTORE POP PUSH0 PUSH1 0xA DUP2 SWAP1 SSTORE POP DUP2 PUSH20 0xFFFFFFFFFFFFFFFFFFFFFFFFFFFFFFFFFFFFFFFF AND PUSH4 0x36B91F2B DUP3 PUSH1 0x40 MLOAD DUP3 PUSH4 0xFFFFFFFF AND PUSH1 0xE0 SHL DUP2 MSTORE PUSH1 0x4 ADD PUSH2 0x1C1 SWAP2 SWAP1 PUSH2 0x2B3 JUMP JUMPDEST PUSH0 PUSH1 0x40 MLOAD DUP1 DUP4 SUB DUP2 PUSH0 DUP8 DUP1 EXTCODESIZE ISZERO DUP1 ISZERO PUSH2 0x1D8 JUMPI PUSH0 DUP1 REVERT JUMPDEST POP GAS CALL ISZERO DUP1 ISZERO PUSH2 0x1EA JUMPI RETURNDATASIZE PUSH0 DUP1 RETURNDATACOPY RETURNDATASIZE PUSH0 REVERT JUMPDEST POP POP POP POP POP POP POP PUSH2 0x2CC JUMP JUMPDEST PUSH0 DUP1 REVERT JUMPDEST PUSH0 PUSH20 0xFFFFFFFFFFFFFFFFFFFFFFFFFFFFFFFFFFFFFFFF DUP3 AND SWAP1 POP SWAP2 SWAP1 POP JUMP JUMPDEST PUSH0 PUSH2 0x223 DUP3 PUSH2 0x1FA JUMP JUMPDEST SWAP1 POP SWAP2 SWAP1 POP JUMP JUMPDEST PUSH2 0x233 DUP2 PUSH2 0x219 JUMP JUMPDEST DUP2 EQ PUSH2 0x23D JUMPI PUSH0 DUP1 REVERT JUMPDEST POP JUMP JUMPDEST PUSH0 DUP2 MLOAD SWAP1 POP PUSH2 0x24E DUP2 PUSH2 0x22A JUMP JUMPDEST SWAP3 SWAP2 POP POP JUMP JUMPDEST PUSH0 DUP1 PUSH0 PUSH1 0x60 DUP5 DUP7 SUB SLT ISZERO PUSH2 0x26B JUMPI PUSH2 0x26A PUSH2 0x1F6 JUMP JUMPDEST JUMPDEST PUSH0 PUSH2 0x278 DUP7 DUP3 DUP8 ADD PUSH2 0x240 JUMP JUMPDEST SWAP4 POP POP PUSH1 0x20 PUSH2 0x289 DUP7 DUP3 DUP8 ADD PUSH2 0x240 JUMP JUMPDEST SWAP3 POP POP PUSH1 0x40 PUSH2 0x29A DUP7 DUP3 DUP8 ADD PUSH2 0x240 JUMP JUMPDEST SWAP2 POP POP SWAP3 POP SWAP3 POP SWAP3 JUMP JUMPDEST PUSH2 0x2AD DUP2 PUSH2 0x219 JUMP JUMPDEST DUP3 MSTORE POP POP JUMP JUMPDEST PUSH0 PUSH1 0x20 DUP3 ADD SWAP1 POP PUSH2 0x2C6 PUSH0 DUP4 ADD DUP5 PUSH2 0x2A4 JUMP JUMPDEST SWAP3 SWAP2 POP POP JUMP JUMPDEST PUSH2 0x4667 DUP1 PUSH2 0x2D9 PUSH0 CODECOPY PUSH0 RETURN INVALID PUSH1 0x80 PUSH1 0x40 MSTORE CALLVALUE DUP1 ISZERO PUSH2 0xF JUMPI PUSH0 DUP1 REVERT JUMPDEST POP PUSH1 0x4 CALLDATASIZE LT PUSH2 0x18C JUMPI PUSH0 CALLDATALOAD PUSH1 0xE0 SHR DUP1 PUSH4 0x72870132 GT PUSH2 0xDC JUMPI DUP1 PUSH4 0x9BE572F6 GT PUSH2 0x95 JUMPI DUP1 PUSH4 0xB14E52E8 GT PUSH2 0x6F JUMPI DUP1 PUSH4 0xB14E52E8 EQ PUSH2 0x454 JUMPI DUP1 PUSH4 0xCA7E0062 EQ PUSH2 0x484 JUMPI DUP1 PUSH4 0xD303E7B2 EQ PUSH2 0x4A2 JUMPI DUP1 PUSH4 0xEC29F4E9 EQ PUSH2 0x4C0 JUMPI PUSH2 0x18C JUMP JUMPDEST DUP1 PUSH4 0x9BE572F6 EQ PUSH2 0x410 JUMPI DUP1 PUSH4 0x9E39B806 EQ PUSH2 0x42E JUMPI DUP1 PUSH4 0x9F8C6BCD EQ PUSH2 0x438 JUMPI PUSH2 0x18C JUMP JUMPDEST DUP1 PUSH4 0x72870132 EQ PUSH2 0x32A JUMPI DUP1 PUSH4 0x793A298E EQ PUSH2 0x348 JUMPI DUP1 PUSH4 0x80396811 EQ PUSH2 0x364 JUMPI DUP1 PUSH4 0x8BDF5803 EQ PUSH2 0x394 JUMPI DUP1 PUSH4 0x9452185F EQ PUSH2 0x3C4 JUMPI DUP1 PUSH4 0x96240B68 EQ PUSH2 0x3F4 JUMPI PUSH2 0x18C JUMP JUMPDEST DUP1 PUSH4 0x4233D880 GT PUSH2 0x149 JUMPI DUP1 PUSH4 0x525B881F GT PUSH2 0x123 JUMPI DUP1 PUSH4 0x525B881F EQ PUSH2 0x2A6 JUMPI DUP1 PUSH4 0x5AE0E952 EQ PUSH2 0x2C2 JUMPI DUP1 PUSH4 0x5B8DC8E7 EQ PUSH2 0x2F2 JUMPI DUP1 PUSH4 0x72316EF3 EQ PUSH2 0x30E JUMPI PUSH2 0x18C JUMP JUMPDEST DUP1 PUSH4 0x4233D880 EQ PUSH2 0x23E JUMPI DUP1 PUSH4 0x4867080E EQ PUSH2 0x25A JUMPI DUP1 PUSH4 0x4BF29B97 EQ PUSH2 0x28A JUMPI PUSH2 0x18C JUMP JUMPDEST DUP1 PUSH4 0x127B9015 EQ PUSH2 0x190 JUMPI DUP1 PUSH4 0x19E9EE75 EQ PUSH2 0x1AC JUMPI DUP1 PUSH4 0x1D9FF429 EQ PUSH2 0x1C8 JUMPI DUP1 PUSH4 0x2722673F EQ PUSH2 0x1E6 JUMPI DUP1 PUSH4 0x326BFCC1 EQ PUSH2 0x202 JUMPI DUP1 PUSH4 0x36DF3C26 EQ PUSH2 0x220 JUMPI JUMPDEST PUSH0 DUP1 REVERT JUMPDEST PUSH2 0x1AA PUSH1 0x4 DUP1 CALLDATASIZE SUB DUP2 ADD SWAP1 PUSH2 0x1A5 SWAP2 SWAP1 PUSH2 0x366B JUMP JUMPDEST PUSH2 0x4F0 JUMP JUMPDEST STOP JUMPDEST PUSH2 0x1C6 PUSH1 0x4 DUP1 CALLDATASIZE SUB DUP2 ADD SWAP1 PUSH2 0x1C1 SWAP2 SWAP1 PUSH2 0x3723 JUMP JUMPDEST PUSH2 0x5E3 JUMP JUMPDEST STOP JUMPDEST PUSH2 0x1D0 PUSH2 0x6E1 JUMP JUMPDEST PUSH1 0x40 MLOAD PUSH2 0x1DD SWAP2 SWAP1 PUSH2 0x3770 JUMP JUMPDEST PUSH1 0x40 MLOAD DUP1 SWAP2 SUB SWAP1 RETURN JUMPDEST PUSH2 0x200 PUSH1 0x4 DUP1 CALLDATASIZE SUB DUP2 ADD SWAP1 PUSH2 0x1FB SWAP2 SWAP1 PUSH2 0x37E3 JUMP JUMPDEST PUSH2 0x725 JUMP JUMPDEST STOP JUMPDEST PUSH2 0x20A PUSH2 0xA6F JUMP JUMPDEST PUSH1 0x40 MLOAD PUSH2 0x217 SWAP2 SWAP1 PUSH2 0x3770 JUMP JUMPDEST PUSH1 0x40 MLOAD DUP1 SWAP2 SUB SWAP1 RETURN JUMPDEST PUSH2 0x228 PUSH2 0xA78 JUMP JUMPDEST PUSH1 0x40 MLOAD PUSH2 0x235 SWAP2 SWAP1 PUSH2 0x38D8 JUMP JUMPDEST PUSH1 0x40 MLOAD DUP1 SWAP2 SUB SWAP1 RETURN JUMPDEST PUSH2 0x258 PUSH1 0x4 DUP1 CALLDATASIZE SUB DUP2 ADD SWAP1 PUSH2 0x253 SWAP2 SWAP1 PUSH2 0x38F8 JUMP JUMPDEST PUSH2 0xBD9 JUMP JUMPDEST STOP JUMPDEST PUSH2 0x274 PUSH1 0x4 DUP1 CALLDATASIZE SUB DUP2 ADD SWAP1 PUSH2 0x26F SWAP2 SWAP1 PUSH2 0x395C JUMP JUMPDEST PUSH2 0xCD8 JUMP JUMPDEST PUSH1 0x40 MLOAD PUSH2 0x281 SWAP2 SWAP1 PUSH2 0x3AA9 JUMP JUMPDEST PUSH1 0x40 MLOAD DUP1 SWAP2 SUB SWAP1 RETURN JUMPDEST PUSH2 0x2A4 PUSH1 0x4 DUP1 CALLDATASIZE SUB DUP2 ADD SWAP1 PUSH2 0x29F SWAP2 SWAP1 PUSH2 0x3723 JUMP JUMPDEST PUSH2 0xDAF JUMP JUMPDEST STOP JUMPDEST PUSH2 0x2C0 PUSH1 0x4 DUP1 CALLDATASIZE SUB DUP2 ADD SWAP1 PUSH2 0x2BB SWAP2 SWAP1 PUSH2 0x395C JUMP JUMPDEST PUSH2 0xEAD JUMP JUMPDEST STOP JUMPDEST PUSH2 0x2DC PUSH1 0x4 DUP1 CALLDATASIZE SUB DUP2 ADD SWAP1 PUSH2 0x2D7 SWAP2 SWAP1 PUSH2 0x395C JUMP JUMPDEST PUSH2 0x103A JUMP JUMPDEST PUSH1 0x40 MLOAD PUSH2 0x2E9 SWAP2 SWAP1 PUSH2 0x3AD2 JUMP JUMPDEST PUSH1 0x40 MLOAD DUP1 SWAP2 SUB SWAP1 RETURN JUMPDEST PUSH2 0x30C PUSH1 0x4 DUP1 CALLDATASIZE SUB DUP2 ADD SWAP1 PUSH2 0x307 SWAP2 SWAP1 PUSH2 0x3C3B JUMP JUMPDEST PUSH2 0x1241 JUMP JUMPDEST STOP JUMPDEST PUSH2 0x328 PUSH1 0x4 DUP1 CALLDATASIZE SUB DUP2 ADD SWAP1 PUSH2 0x323 SWAP2 SWAP1 PUSH2 0x3723 JUMP JUMPDEST PUSH2 0x16F7 JUMP JUMPDEST STOP JUMPDEST PUSH2 0x332 PUSH2 0x17F5 JUMP JUMPDEST PUSH1 0x40 MLOAD PUSH2 0x33F SWAP2 SWAP1 PUSH2 0x3DDE JUMP JUMPDEST PUSH1 0x40 MLOAD DUP1 SWAP2 SUB SWAP1 RETURN JUMPDEST PUSH2 0x362 PUSH1 0x4 DUP1 CALLDATASIZE SUB DUP2 ADD SWAP1 PUSH2 0x35D SWAP2 SWAP1 PUSH2 0x38F8 JUMP JUMPDEST PUSH2 0x1A66 JUMP JUMPDEST STOP JUMPDEST PUSH2 0x37E PUSH1 0x4 DUP1 CALLDATASIZE SUB DUP2 ADD SWAP1 PUSH2 0x379 SWAP2 SWAP1 PUSH2 0x395C JUMP JUMPDEST PUSH2 0x1B66 JUMP JUMPDEST PUSH1 0x40 MLOAD PUSH2 0x38B SWAP2 SWAP1 PUSH2 0x3DDE JUMP JUMPDEST PUSH1 0x40 MLOAD DUP1 SWAP2 SUB SWAP1 RETURN JUMPDEST PUSH2 0x3AE PUSH1 0x4 DUP1 CALLDATASIZE SUB DUP2 ADD SWAP1 PUSH2 0x3A9 SWAP2 SWAP1 PUSH2 0x3723 JUMP JUMPDEST PUSH2 0x1B7C JUMP JUMPDEST PUSH1 0x40 MLOAD PUSH2 0x3BB SWAP2 SWAP1 PUSH2 0x3DDE JUMP JUMPDEST PUSH1 0x40 MLOAD DUP1 SWAP2 SUB SWAP1 RETURN JUMPDEST PUSH2 0x3DE PUSH1 0x4 DUP1 CALLDATASIZE SUB DUP2 ADD SWAP1 PUSH2 0x3D9 SWAP2 SWAP1 PUSH2 0x395C JUMP JUMPDEST PUSH2 0x1B92 JUMP JUMPDEST PUSH1 0x40 MLOAD PUSH2 0x3EB SWAP2 SWAP1 PUSH2 0x3770 JUMP JUMPDEST PUSH1 0x40 MLOAD DUP1 SWAP2 SUB SWAP1 RETURN JUMPDEST PUSH2 0x40E PUSH1 0x4 DUP1 CALLDATASIZE SUB DUP2 ADD SWAP1 PUSH2 0x409 SWAP2 SWAP1 PUSH2 0x3723 JUMP JUMPDEST PUSH2 0x1BD8 JUMP JUMPDEST STOP JUMPDEST PUSH2 0x418 PUSH2 0x1CD6 JUMP JUMPDEST PUSH1 0x40 MLOAD PUSH2 0x425 SWAP2 SWAP1 PUSH2 0x3770 JUMP JUMPDEST PUSH1 0x40 MLOAD DUP1 SWAP2 SUB SWAP1 RETURN JUMPDEST PUSH2 0x436 PUSH2 0x1CDF JUMP JUMPDEST STOP JUMPDEST PUSH2 0x452 PUSH1 0x4 DUP1 CALLDATASIZE SUB DUP2 ADD SWAP1 PUSH2 0x44D SWAP2 SWAP1 PUSH2 0x3723 JUMP JUMPDEST PUSH2 0x1FB6 JUMP JUMPDEST STOP JUMPDEST PUSH2 0x46E PUSH1 0x4 DUP1 CALLDATASIZE SUB DUP2 ADD SWAP1 PUSH2 0x469 SWAP2 SWAP1 PUSH2 0x395C JUMP JUMPDEST PUSH2 0x20B4 JUMP JUMPDEST PUSH1 0x40 MLOAD PUSH2 0x47B SWAP2 SWAP1 PUSH2 0x3770 JUMP JUMPDEST PUSH1 0x40 MLOAD DUP1 SWAP2 SUB SWAP1 RETURN JUMPDEST PUSH2 0x48C PUSH2 0x20FD JUMP JUMPDEST PUSH1 0x40 MLOAD PUSH2 0x499 SWAP2 SWAP1 PUSH2 0x3EA3 JUMP JUMPDEST PUSH1 0x40 MLOAD DUP1 SWAP2 SUB SWAP1 RETURN JUMPDEST PUSH2 0x4AA PUSH2 0x22D9 JUMP JUMPDEST PUSH1 0x40 MLOAD PUSH2 0x4B7 SWAP2 SWAP1 PUSH2 0x3FA5 JUMP JUMPDEST PUSH1 0x40 MLOAD DUP1 SWAP2 SUB SWAP1 RETURN JUMPDEST PUSH2 0x4DA PUSH1 0x4 DUP1 CALLDATASIZE SUB DUP2 ADD SWAP1 PUSH2 0x4D5 SWAP2 SWAP1 PUSH2 0x3FC5 JUMP JUMPDEST PUSH2 0x239D JUMP JUMPDEST PUSH1 0x40 MLOAD PUSH2 0x4E7 SWAP2 SWAP1 PUSH2 0x3DDE JUMP JUMPDEST PUSH1 0x40 MLOAD DUP1 SWAP2 SUB SWAP1 RETURN JUMPDEST PUSH0 DUP1 SLOAD SWAP1 PUSH2 0x100 EXP SWAP1 DIV PUSH20 0xFFFFFFFFFFFFFFFFFFFFFFFFFFFFFFFFFFFFFFFF AND PUSH20 0xFFFFFFFFFFFFFFFFFFFFFFFFFFFFFFFFFFFFFFFF AND PUSH4 0x2F54BF6E CALLER PUSH1 0x40 MLOAD DUP3 PUSH4 0xFFFFFFFF AND PUSH1 0xE0 SHL DUP2 MSTORE PUSH1 0x4 ADD PUSH2 0x548 SWAP2 SWAP1 PUSH2 0x4024 JUMP JUMPDEST PUSH1 0x20 PUSH1 0x40 MLOAD DUP1 DUP4 SUB DUP2 DUP7 GAS STATICCALL ISZERO DUP1 ISZERO PUSH2 0x563 JUMPI RETURNDATASIZE PUSH0 DUP1 RETURNDATACOPY RETURNDATASIZE PUSH0 REVERT JUMPDEST POP POP POP POP PUSH1 0x40 MLOAD RETURNDATASIZE PUSH1 0x1F NOT PUSH1 0x1F DUP3 ADD AND DUP3 ADD DUP1 PUSH1 0x40 MSTORE POP DUP2 ADD SWAP1 PUSH2 0x587 SWAP2 SWAP1 PUSH2 0x4051 JUMP JUMPDEST PUSH2 0x5C6 JUMPI PUSH1 0x40 MLOAD PUSH32 0x8C379A000000000000000000000000000000000000000000000000000000000 DUP2 MSTORE PUSH1 0x4 ADD PUSH2 0x5BD SWAP1 PUSH2 0x40D6 JUMP JUMPDEST PUSH1 0x40 MLOAD DUP1 SWAP2 SUB SWAP1 REVERT JUMPDEST DUP1 PUSH1 0x3 PUSH1 0x10 PUSH2 0x100 EXP DUP2 SLOAD DUP2 PUSH1 0xFF MUL NOT AND SWAP1 DUP4 ISZERO ISZERO MUL OR SWAP1 SSTORE POP POP JUMP JUMPDEST PUSH1 0x3 PUSH1 0x10 SWAP1 SLOAD SWAP1 PUSH2 0x100 EXP SWAP1 DIV PUSH1 0xFF AND ISZERO PUSH2 0x6CF JUMPI PUSH0 DUP1 SLOAD SWAP1 PUSH2 0x100 EXP SWAP1 DIV PUSH20 0xFFFFFFFFFFFFFFFFFFFFFFFFFFFFFFFFFFFFFFFF AND PUSH20 0xFFFFFFFFFFFFFFFFFFFFFFFFFFFFFFFFFFFFFFFF AND PUSH4 0x5BF3A315 CALLER PUSH1 0x40 MLOAD DUP3 PUSH4 0xFFFFFFFF AND PUSH1 0xE0 SHL DUP2 MSTORE PUSH1 0x4 ADD PUSH2 0x650 SWAP2 SWAP1 PUSH2 0x4024 JUMP JUMPDEST PUSH1 0x20 PUSH1 0x40 MLOAD DUP1 DUP4 SUB DUP2 DUP7 GAS STATICCALL ISZERO DUP1 ISZERO PUSH2 0x66B JUMPI RETURNDATASIZE PUSH0 DUP1 RETURNDATACOPY RETURNDATASIZE PUSH0 REVERT JUMPDEST POP POP POP POP PUSH1 0x40 MLOAD RETURNDATASIZE PUSH1 0x1F NOT PUSH1 0x1F DUP3 ADD AND DUP3 ADD DUP1 PUSH1 0x40 MSTORE POP DUP2 ADD SWAP1 PUSH2 0x68F SWAP2 SWAP1 PUSH2 0x4051 JUMP JUMPDEST PUSH2 0x6CE JUMPI PUSH1 0x40 MLOAD PUSH32 0x8C379A000000000000000000000000000000000000000000000000000000000 DUP2 MSTORE PUSH1 0x4 ADD PUSH2 0x6C5 SWAP1 PUSH2 0x4164 JUMP JUMPDEST PUSH1 0x40 MLOAD DUP1 SWAP2 SUB SWAP1 REVERT JUMPDEST JUMPDEST PUSH2 0x6DD DUP3 DUP3 PUSH1 0x7 PUSH0 DUP1 PUSH2 0x2677 JUMP JUMPDEST POP POP JUMP JUMPDEST PUSH0 PUSH1 0x7 PUSH0 CALLER PUSH20 0xFFFFFFFFFFFFFFFFFFFFFFFFFFFFFFFFFFFFFFFF AND PUSH20 0xFFFFFFFFFFFFFFFFFFFFFFFFFFFFFFFFFFFFFFFF AND DUP2 MSTORE PUSH1 0x20 ADD SWAP1 DUP2 MSTORE PUSH1 0x20 ADD PUSH0 KECCAK256 SLOAD SWAP1 POP SWAP1 JUMP JUMPDEST PUSH0 DUP1 SLOAD SWAP1 PUSH2 0x100 EXP SWAP1 DIV PUSH20 0xFFFFFFFFFFFFFFFFFFFFFFFFFFFFFFFFFFFFFFFF AND PUSH20 0xFFFFFFFFFFFFFFFFFFFFFFFFFFFFFFFFFFFFFFFF AND PUSH4 0x2F54BF6E CALLER PUSH1 0x40 MLOAD DUP3 PUSH4 0xFFFFFFFF AND PUSH1 0xE0 SHL DUP2 MSTORE PUSH1 0x4 ADD PUSH2 0x77D SWAP2 SWAP1 PUSH2 0x4024 JUMP JUMPDEST PUSH1 0x20 PUSH1 0x40 MLOAD DUP1 DUP4 SUB DUP2 DUP7 GAS STATICCALL ISZERO DUP1 ISZERO PUSH2 0x798 JUMPI RETURNDATASIZE PUSH0 DUP1 RETURNDATACOPY RETURNDATASIZE PUSH0 REVERT JUMPDEST POP POP POP POP PUSH1 0x40 MLOAD RETURNDATASIZE PUSH1 0x1F NOT PUSH1 0x1F DUP3 ADD AND DUP3 ADD DUP1 PUSH1 0x40 MSTORE POP DUP2 ADD SWAP1 PUSH2 0x7BC SWAP2 SWAP1 PUSH2 0x4051 JUMP JUMPDEST PUSH2 0x7FB JUMPI PUSH1 0x40 MLOAD PUSH32 0x8C379A000000000000000000000000000000000000000000000000000000000 DUP2 MSTORE PUSH1 0x4 ADD PUSH2 0x7F2 SWAP1 PUSH2 0x40D6 JUMP JUMPDEST PUSH1 0x40 MLOAD DUP1 SWAP2 SUB SWAP1 REVERT JUMPDEST PUSH0 PUSH1 0x7 DUP2 GT ISZERO PUSH2 0x80E JUMPI PUSH2 0x80D PUSH2 0x3996 JUMP JUMPDEST JUMPDEST DUP3 PUSH1 0x7 DUP2 GT ISZERO PUSH2 0x821 JUMPI PUSH2 0x820 PUSH2 0x3996 JUMP JUMPDEST JUMPDEST SUB PUSH2 0x847 JUMPI DUP1 PUSH1 0x3 PUSH0 PUSH2 0x100 EXP DUP2 SLOAD DUP2 PUSH2 0xFFFF MUL NOT AND SWAP1 DUP4 PUSH2 0xFFFF AND MUL OR SWAP1 SSTORE POP PUSH2 0xA6B JUMP JUMPDEST PUSH1 0x1 PUSH1 0x7 DUP2 GT ISZERO PUSH2 0x85B JUMPI PUSH2 0x85A PUSH2 0x3996 JUMP JUMPDEST JUMPDEST DUP3 PUSH1 0x7 DUP2 GT ISZERO PUSH2 0x86E JUMPI PUSH2 0x86D PUSH2 0x3996 JUMP JUMPDEST JUMPDEST SUB PUSH2 0x895 JUMPI DUP1 PUSH1 0x3 PUSH1 0x2 PUSH2 0x100 EXP DUP2 SLOAD DUP2 PUSH2 0xFFFF MUL NOT AND SWAP1 DUP4 PUSH2 0xFFFF AND MUL OR SWAP1 SSTORE POP PUSH2 0xA6A JUMP JUMPDEST PUSH1 0x2 PUSH1 0x7 DUP2 GT ISZERO PUSH2 0x8A9 JUMPI PUSH2 0x8A8 PUSH2 0x3996 JUMP JUMPDEST JUMPDEST DUP3 PUSH1 0x7 DUP2 GT ISZERO PUSH2 0x8BC JUMPI PUSH2 0x8BB PUSH2 0x3996 JUMP JUMPDEST JUMPDEST SUB PUSH2 0x8E3 JUMPI DUP1 PUSH1 0x3 PUSH1 0x4 PUSH2 0x100 EXP DUP2 SLOAD DUP2 PUSH2 0xFFFF MUL NOT AND SWAP1 DUP4 PUSH2 0xFFFF AND MUL OR SWAP1 SSTORE POP PUSH2 0xA69 JUMP JUMPDEST PUSH1 0x3 PUSH1 0x7 DUP2 GT ISZERO PUSH2 0x8F7 JUMPI PUSH2 0x8F6 PUSH2 0x3996 JUMP JUMPDEST JUMPDEST DUP3 PUSH1 0x7 DUP2 GT ISZERO PUSH2 0x90A JUMPI PUSH2 0x909 PUSH2 0x3996 JUMP JUMPDEST JUMPDEST SUB PUSH2 0x931 JUMPI DUP1 PUSH1 0x3 PUSH1 0x6 PUSH2 0x100 EXP DUP2 SLOAD DUP2 PUSH2 0xFFFF MUL NOT AND SWAP1 DUP4 PUSH2 0xFFFF AND MUL OR SWAP1 SSTORE POP PUSH2 0xA68 JUMP JUMPDEST PUSH1 0x4 PUSH1 0x7 DUP2 GT ISZERO PUSH2 0x945 JUMPI PUSH2 0x944 PUSH2 0x3996 JUMP JUMPDEST JUMPDEST DUP3 PUSH1 0x7 DUP2 GT ISZERO PUSH2 0x958 JUMPI PUSH2 0x957 PUSH2 0x3996 JUMP JUMPDEST JUMPDEST SUB PUSH2 0x97F JUMPI DUP1 PUSH1 0x3 PUSH1 0x8 PUSH2 0x100 EXP DUP2 SLOAD DUP2 PUSH2 0xFFFF MUL NOT AND SWAP1 DUP4 PUSH2 0xFFFF AND MUL OR SWAP1 SSTORE POP PUSH2 0xA67 JUMP JUMPDEST PUSH1 0x5 PUSH1 0x7 DUP2 GT ISZERO PUSH2 0x993 JUMPI PUSH2 0x992 PUSH2 0x3996 JUMP JUMPDEST JUMPDEST DUP3 PUSH1 0x7 DUP2 GT ISZERO PUSH2 0x9A6 JUMPI PUSH2 0x9A5 PUSH2 0x3996 JUMP JUMPDEST JUMPDEST SUB PUSH2 0x9CD JUMPI DUP1 PUSH1 0x3 PUSH1 0xA PUSH2 0x100 EXP DUP2 SLOAD DUP2 PUSH2 0xFFFF MUL NOT AND SWAP1 DUP4 PUSH2 0xFFFF AND MUL OR SWAP1 SSTORE POP PUSH2 0xA66 JUMP JUMPDEST PUSH1 0x6 PUSH1 0x7 DUP2 GT ISZERO PUSH2 0x9E1 JUMPI PUSH2 0x9E0 PUSH2 0x3996 JUMP JUMPDEST JUMPDEST DUP3 PUSH1 0x7 DUP2 GT ISZERO PUSH2 0x9F4 JUMPI PUSH2 0x9F3 PUSH2 0x3996 JUMP JUMPDEST JUMPDEST SUB PUSH2 0xA1B JUMPI DUP1 PUSH1 0x3 PUSH1 0xC PUSH2 0x100 EXP DUP2 SLOAD DUP2 PUSH2 0xFFFF MUL NOT AND SWAP1 DUP4 PUSH2 0xFFFF AND MUL OR SWAP1 SSTORE POP PUSH2 0xA65 JUMP JUMPDEST PUSH1 0x7 DUP1 DUP2 GT ISZERO PUSH2 0xA2E JUMPI PUSH2 0xA2D PUSH2 0x3996 JUMP JUMPDEST JUMPDEST DUP3 PUSH1 0x7 DUP2 GT ISZERO PUSH2 0xA41 JUMPI PUSH2 0xA40 PUSH2 0x3996 JUMP JUMPDEST JUMPDEST SUB PUSH2 0xA64 JUMPI DUP1 PUSH1 0x3 PUSH1 0xE PUSH2 0x100 EXP DUP2 SLOAD DUP2 PUSH2 0xFFFF MUL NOT AND SWAP1 DUP4 PUSH2 0xFFFF AND MUL OR SWAP1 SSTORE POP JUMPDEST JUMPDEST JUMPDEST JUMPDEST JUMPDEST JUMPDEST JUMPDEST JUMPDEST POP POP JUMP JUMPDEST PUSH0 PUSH1 0xA SLOAD SWAP1 POP SWAP1 JUMP JUMPDEST PUSH1 0x60 PUSH0 DUP1 SLOAD SWAP1 PUSH2 0x100 EXP SWAP1 DIV PUSH20 0xFFFFFFFFFFFFFFFFFFFFFFFFFFFFFFFFFFFFFFFF AND PUSH20 0xFFFFFFFFFFFFFFFFFFFFFFFFFFFFFFFFFFFFFFFF AND PUSH4 0x2F54BF6E CALLER PUSH1 0x40 MLOAD DUP3 PUSH4 0xFFFFFFFF AND PUSH1 0xE0 SHL DUP2 MSTORE PUSH1 0x4 ADD PUSH2 0xAD2 SWAP2 SWAP1 PUSH2 0x4024 JUMP JUMPDEST PUSH1 0x20 PUSH1 0x40 MLOAD DUP1 DUP4 SUB DUP2 DUP7 GAS STATICCALL ISZERO DUP1 ISZERO PUSH2 0xAED JUMPI RETURNDATASIZE PUSH0 DUP1 RETURNDATACOPY RETURNDATASIZE PUSH0 REVERT JUMPDEST POP POP POP POP PUSH1 0x40 MLOAD RETURNDATASIZE PUSH1 0x1F NOT PUSH1 0x1F DUP3 ADD AND DUP3 ADD DUP1 PUSH1 0x40 MSTORE POP DUP2 ADD SWAP1 PUSH2 0xB11 SWAP2 SWAP1 PUSH2 0x4051 JUMP JUMPDEST PUSH2 0xB50 JUMPI PUSH1 0x40 MLOAD PUSH32 0x8C379A000000000000000000000000000000000000000000000000000000000 DUP2 MSTORE PUSH1 0x4 ADD PUSH2 0xB47 SWAP1 PUSH2 0x40D6 JUMP JUMPDEST PUSH1 0x40 MLOAD DUP1 SWAP2 SUB SWAP1 REVERT JUMPDEST PUSH1 0x2 DUP1 SLOAD DUP1 PUSH1 0x20 MUL PUSH1 0x20 ADD PUSH1 0x40 MLOAD SWAP1 DUP2 ADD PUSH1 0x40 MSTORE DUP1 SWAP3 SWAP2 SWAP1 DUP2 DUP2 MSTORE PUSH1 0x20 ADD DUP3 DUP1 SLOAD DUP1 ISZERO PUSH2 0xBCF JUMPI PUSH1 0x20 MUL DUP3 ADD SWAP2 SWAP1 PUSH0 MSTORE PUSH1 0x20 PUSH0 KECCAK256 SWAP1 JUMPDEST DUP2 PUSH0 SWAP1 SLOAD SWAP1 PUSH2 0x100 EXP SWAP1 DIV PUSH20 0xFFFFFFFFFFFFFFFFFFFFFFFFFFFFFFFFFFFFFFFF AND PUSH20 0xFFFFFFFFFFFFFFFFFFFFFFFFFFFFFFFFFFFFFFFF AND DUP2 MSTORE PUSH1 0x20 ADD SWAP1 PUSH1 0x1 ADD SWAP1 DUP1 DUP4 GT PUSH2 0xB86 JUMPI JUMPDEST POP POP POP POP POP SWAP1 POP SWAP1 JUMP JUMPDEST PUSH1 0x3 PUSH1 0x10 SWAP1 SLOAD SWAP1 PUSH2 0x100 EXP SWAP1 DIV PUSH1 0xFF AND ISZERO PUSH2 0xCC5 JUMPI PUSH0 DUP1 SLOAD SWAP1 PUSH2 0x100 EXP SWAP1 DIV PUSH20 0xFFFFFFFFFFFFFFFFFFFFFFFFFFFFFFFFFFFFFFFF AND PUSH20 0xFFFFFFFFFFFFFFFFFFFFFFFFFFFFFFFFFFFFFFFF AND PUSH4 0x5BF3A315 CALLER PUSH1 0x40 MLOAD DUP3 PUSH4 0xFFFFFFFF AND PUSH1 0xE0 SHL DUP2 MSTORE PUSH1 0x4 ADD PUSH2 0xC46 SWAP2 SWAP1 PUSH2 0x4024 JUMP JUMPDEST PUSH1 0x20 PUSH1 0x40 MLOAD DUP1 DUP4 SUB DUP2 DUP7 GAS STATICCALL ISZERO DUP1 ISZERO PUSH2 0xC61 JUMPI RETURNDATASIZE PUSH0 DUP1 RETURNDATACOPY RETURNDATASIZE PUSH0 REVERT JUMPDEST POP POP POP POP PUSH1 0x40 MLOAD RETURNDATASIZE PUSH1 0x1F NOT PUSH1 0x1F DUP3 ADD AND DUP3 ADD DUP1 PUSH1 0x40 MSTORE POP DUP2 ADD SWAP1 PUSH2 0xC85 SWAP2 SWAP1 PUSH2 0x4051 JUMP JUMPDEST PUSH2 0xCC4 JUMPI PUSH1 0x40 MLOAD PUSH32 0x8C379A000000000000000000000000000000000000000000000000000000000 DUP2 MSTORE PUSH1 0x4 ADD PUSH2 0xCBB SWAP1 PUSH2 0x4164 JUMP JUMPDEST PUSH1 0x40 MLOAD DUP1 SWAP2 SUB SWAP1 REVERT JUMPDEST JUMPDEST PUSH2 0xCD2 DUP5 DUP5 PUSH0 DUP6 DUP6 PUSH2 0x2677 JUMP JUMPDEST POP POP POP POP JUMP JUMPDEST PUSH2 0xCE0 PUSH2 0x357F JUMP JUMPDEST PUSH1 0x5 PUSH0 DUP4 PUSH20 0xFFFFFFFFFFFFFFFFFFFFFFFFFFFFFFFFFFFFFFFF AND PUSH20 0xFFFFFFFFFFFFFFFFFFFFFFFFFFFFFFFFFFFFFFFF AND DUP2 MSTORE PUSH1 0x20 ADD SWAP1 DUP2 MSTORE PUSH1 0x20 ADD PUSH0 KECCAK256 PUSH1 0x40 MLOAD DUP1 PUSH2 0x100 ADD PUSH1 0x40 MSTORE SWAP1 DUP2 PUSH0 DUP3 ADD SLOAD DUP2 MSTORE PUSH1 0x20 ADD PUSH1 0x1 DUP3 ADD PUSH0 SWAP1 SLOAD SWAP1 PUSH2 0x100 EXP SWAP1 DIV PUSH1 0xFF AND PUSH1 0x7 DUP2 GT ISZERO PUSH2 0xD56 JUMPI PUSH2 0xD55 PUSH2 0x3996 JUMP JUMPDEST JUMPDEST PUSH1 0x7 DUP2 GT ISZERO PUSH2 0xD68 JUMPI PUSH2 0xD67 PUSH2 0x3996 JUMP JUMPDEST JUMPDEST DUP2 MSTORE PUSH1 0x20 ADD PUSH1 0x2 DUP3 ADD SLOAD DUP2 MSTORE PUSH1 0x20 ADD PUSH1 0x3 DUP3 ADD SLOAD DUP2 MSTORE PUSH1 0x20 ADD PUSH1 0x4 DUP3 ADD SLOAD DUP2 MSTORE PUSH1 0x20 ADD PUSH1 0x5 DUP3 ADD SLOAD DUP2 MSTORE PUSH1 0x20 ADD PUSH1 0x6 DUP3 ADD SLOAD DUP2 MSTORE PUSH1 0x20 ADD PUSH1 0x7 DUP3 ADD SLOAD DUP2 MSTORE POP POP SWAP1 POP SWAP2 SWAP1 POP JUMP JUMPDEST PUSH1 0x3 PUSH1 0x10 SWAP1 SLOAD SWAP1 PUSH2 0x100 EXP SWAP1 DIV PUSH1 0xFF AND ISZERO PUSH2 0xE9B JUMPI PUSH0 DUP1 SLOAD SWAP1 PUSH2 0x100 EXP SWAP1 DIV PUSH20 0xFFFFFFFFFFFFFFFFFFFFFFFFFFFFFFFFFFFFFFFF AND PUSH20 0xFFFFFFFFFFFFFFFFFFFFFFFFFFFFFFFFFFFFFFFF AND PUSH4 0x5BF3A315 CALLER PUSH1 0x40 MLOAD DUP3 PUSH4 0xFFFFFFFF AND PUSH1 0xE0 SHL DUP2 MSTORE PUSH1 0x4 ADD PUSH2 0xE1C SWAP2 SWAP1 PUSH2 0x4024 JUMP JUMPDEST PUSH1 0x20 PUSH1 0x40 MLOAD DUP1 DUP4 SUB DUP2 DUP7 GAS STATICCALL ISZERO DUP1 ISZERO PUSH2 0xE37 JUMPI RETURNDATASIZE PUSH0 DUP1 RETURNDATACOPY RETURNDATASIZE PUSH0 REVERT JUMPDEST POP POP POP POP PUSH1 0x40 MLOAD RETURNDATASIZE PUSH1 0x1F NOT PUSH1 0x1F DUP3 ADD AND DUP3 ADD DUP1 PUSH1 0x40 MSTORE POP DUP2 ADD SWAP1 PUSH2 0xE5B SWAP2 SWAP1 PUSH2 0x4051 JUMP JUMPDEST PUSH2 0xE9A JUMPI PUSH1 0x40 MLOAD PUSH32 0x8C379A000000000000000000000000000000000000000000000000000000000 DUP2 MSTORE PUSH1 0x4 ADD PUSH2 0xE91 SWAP1 PUSH2 0x4164 JUMP JUMPDEST PUSH1 0x40 MLOAD DUP1 SWAP2 SUB SWAP1 REVERT JUMPDEST JUMPDEST PUSH2 0xEA9 DUP3 DUP3 PUSH1 0x4 PUSH0 DUP1 PUSH2 0x2677 JUMP JUMPDEST POP POP JUMP JUMPDEST PUSH0 DUP1 SLOAD SWAP1 PUSH2 0x100 EXP SWAP1 DIV PUSH20 0xFFFFFFFFFFFFFFFFFFFFFFFFFFFFFFFFFFFFFFFF AND PUSH20 0xFFFFFFFFFFFFFFFFFFFFFFFFFFFFFFFFFFFFFFFF AND PUSH4 0x2F54BF6E CALLER PUSH1 0x40 MLOAD DUP3 PUSH4 0xFFFFFFFF AND PUSH1 0xE0 SHL DUP2 MSTORE PUSH1 0x4 ADD PUSH2 0xF05 SWAP2 SWAP1 PUSH2 0x4024 JUMP JUMPDEST PUSH1 0x20 PUSH1 0x40 MLOAD DUP1 DUP4 SUB DUP2 DUP7 GAS STATICCALL ISZERO DUP1 ISZERO PUSH2 0xF20 JUMPI RETURNDATASIZE PUSH0 DUP1 RETURNDATACOPY RETURNDATASIZE PUSH0 REVERT JUMPDEST POP POP POP POP PUSH1 0x40 MLOAD RETURNDATASIZE PUSH1 0x1F NOT PUSH1 0x1F DUP3 ADD AND DUP3 ADD DUP1 PUSH1 0x40 MSTORE POP DUP2 ADD SWAP1 PUSH2 0xF44 SWAP2 SWAP1 PUSH2 0x4051 JUMP JUMPDEST PUSH2 0xF83 JUMPI PUSH1 0x40 MLOAD PUSH32 0x8C379A000000000000000000000000000000000000000000000000000000000 DUP2 MSTORE PUSH1 0x4 ADD PUSH2 0xF7A SWAP1 PUSH2 0x40D6 JUMP JUMPDEST PUSH1 0x40 MLOAD DUP1 SWAP2 SUB SWAP1 REVERT JUMPDEST PUSH1 0x1 DUP1 PUSH0 DUP4 PUSH20 0xFFFFFFFFFFFFFFFFFFFFFFFFFFFFFFFFFFFFFFFF AND PUSH20 0xFFFFFFFFFFFFFFFFFFFFFFFFFFFFFFFFFFFFFFFF AND DUP2 MSTORE PUSH1 0x20 ADD SWAP1 DUP2 MSTORE PUSH1 0x20 ADD PUSH0 KECCAK256 PUSH0 PUSH2 0x100 EXP DUP2 SLOAD DUP2 PUSH1 0xFF MUL NOT AND SWAP1 DUP4 ISZERO ISZERO MUL OR SWAP1 SSTORE POP PUSH1 0x2 DUP2 SWAP1 DUP1 PUSH1 0x1 DUP2 SLOAD ADD DUP1 DUP3 SSTORE DUP1 SWAP2 POP POP PUSH1 0x1 SWAP1 SUB SWAP1 PUSH0 MSTORE PUSH1 0x20 PUSH0 KECCAK256 ADD PUSH0 SWAP1 SWAP2 SWAP1 SWAP2 SWAP1 SWAP2 PUSH2 0x100 EXP DUP2 SLOAD DUP2 PUSH20 0xFFFFFFFFFFFFFFFFFFFFFFFFFFFFFFFFFFFFFFFF MUL NOT AND SWAP1 DUP4 PUSH20 0xFFFFFFFFFFFFFFFFFFFFFFFFFFFFFFFFFFFFFFFF AND MUL OR SWAP1 SSTORE POP POP JUMP JUMPDEST PUSH0 DUP1 PUSH3 0x15180 TIMESTAMP PUSH2 0x104B SWAP2 SWAP1 PUSH2 0x41DC JUMP JUMPDEST SWAP1 POP PUSH0 DUP1 PUSH1 0x4 PUSH0 DUP7 PUSH20 0xFFFFFFFFFFFFFFFFFFFFFFFFFFFFFFFFFFFFFFFF AND PUSH20 0xFFFFFFFFFFFFFFFFFFFFFFFFFFFFFFFFFFFFFFFF AND DUP2 MSTORE PUSH1 0x20 ADD SWAP1 DUP2 MSTORE PUSH1 0x20 ADD PUSH0 KECCAK256 DUP1 SLOAD DUP1 PUSH1 0x20 MUL PUSH1 0x20 ADD PUSH1 0x40 MLOAD SWAP1 DUP2 ADD PUSH1 0x40 MSTORE DUP1 SWAP3 SWAP2 SWAP1 DUP2 DUP2 MSTORE PUSH1 0x20 ADD PUSH0 SWAP1 JUMPDEST DUP3 DUP3 LT ISZERO PUSH2 0x115B JUMPI DUP4 DUP3 SWAP1 PUSH0 MSTORE PUSH1 0x20 PUSH0 KECCAK256 SWAP1 PUSH1 0x8 MUL ADD PUSH1 0x40 MLOAD DUP1 PUSH2 0x100 ADD PUSH1 0x40 MSTORE SWAP1 DUP2 PUSH0 DUP3 ADD SLOAD DUP2 MSTORE PUSH1 0x20 ADD PUSH1 0x1 DUP3 ADD PUSH0 SWAP1 SLOAD SWAP1 PUSH2 0x100 EXP SWAP1 DIV PUSH1 0xFF AND PUSH1 0x7 DUP2 GT ISZERO PUSH2 0x10FA JUMPI PUSH2 0x10F9 PUSH2 0x3996 JUMP JUMPDEST JUMPDEST PUSH1 0x7 DUP2 GT ISZERO PUSH2 0x110C JUMPI PUSH2 0x110B PUSH2 0x3996 JUMP JUMPDEST JUMPDEST DUP2 MSTORE PUSH1 0x20 ADD PUSH1 0x2 DUP3 ADD SLOAD DUP2 MSTORE PUSH1 0x20 ADD PUSH1 0x3 DUP3 ADD SLOAD DUP2 MSTORE PUSH1 0x20 ADD PUSH1 0x4 DUP3 ADD SLOAD DUP2 MSTORE PUSH1 0x20 ADD PUSH1 0x5 DUP3 ADD SLOAD DUP2 MSTORE PUSH1 0x20 ADD PUSH1 0x6 DUP3 ADD SLOAD DUP2 MSTORE PUSH1 0x20 ADD PUSH1 0x7 DUP3 ADD SLOAD DUP2 MSTORE POP POP DUP2 MSTORE PUSH1 0x20 ADD SWAP1 PUSH1 0x1 ADD SWAP1 PUSH2 0x10AB JUMP JUMPDEST POP POP POP POP SWAP1 POP PUSH0 DUP2 MLOAD SWAP1 POP PUSH0 DUP2 SWAP1 POP JUMPDEST PUSH0 DUP2 GT ISZERO PUSH2 0x1233 JUMPI PUSH3 0x15180 DUP4 PUSH1 0x1 DUP4 PUSH2 0x1185 SWAP2 SWAP1 PUSH2 0x420C JUMP JUMPDEST DUP2 MLOAD DUP2 LT PUSH2 0x1196 JUMPI PUSH2 0x1195 PUSH2 0x423F JUMP JUMPDEST JUMPDEST PUSH1 0x20 MUL PUSH1 0x20 ADD ADD MLOAD PUSH0 ADD MLOAD PUSH2 0x11AB SWAP2 SWAP1 PUSH2 0x41DC JUMP JUMPDEST SWAP4 POP DUP5 DUP5 SUB PUSH2 0x121D JUMPI PUSH1 0x5 PUSH1 0x7 DUP2 GT ISZERO PUSH2 0x11C8 JUMPI PUSH2 0x11C7 PUSH2 0x3996 JUMP JUMPDEST JUMPDEST DUP4 PUSH1 0x1 DUP4 PUSH2 0x11D6 SWAP2 SWAP1 PUSH2 0x420C JUMP JUMPDEST DUP2 MLOAD DUP2 LT PUSH2 0x11E7 JUMPI PUSH2 0x11E6 PUSH2 0x423F JUMP JUMPDEST JUMPDEST PUSH1 0x20 MUL PUSH1 0x20 ADD ADD MLOAD PUSH1 0x20 ADD MLOAD PUSH1 0x7 DUP2 GT ISZERO PUSH2 0x1205 JUMPI PUSH2 0x1204 PUSH2 0x3996 JUMP JUMPDEST JUMPDEST SUB PUSH2 0x1218 JUMPI PUSH1 0x1 SWAP6 POP POP POP POP POP POP PUSH2 0x123C JUMP JUMPDEST PUSH2 0x1222 JUMP JUMPDEST PUSH2 0x1233 JUMP JUMPDEST DUP1 PUSH2 0x122C SWAP1 PUSH2 0x426C JUMP JUMPDEST SWAP1 POP PUSH2 0x116B JUMP JUMPDEST POP PUSH0 SWAP5 POP POP POP POP POP JUMPDEST SWAP2 SWAP1 POP JUMP JUMPDEST PUSH0 DUP1 SLOAD SWAP1 PUSH2 0x100 EXP SWAP1 DIV PUSH20 0xFFFFFFFFFFFFFFFFFFFFFFFFFFFFFFFFFFFFFFFF AND PUSH20 0xFFFFFFFFFFFFFFFFFFFFFFFFFFFFFFFFFFFFFFFF AND PUSH4 0x2F54BF6E CALLER PUSH1 0x40 MLOAD DUP3 PUSH4 0xFFFFFFFF AND PUSH1 0xE0 SHL DUP2 MSTORE PUSH1 0x4 ADD PUSH2 0x1299 SWAP2 SWAP1 PUSH2 0x4024 JUMP JUMPDEST PUSH1 0x20 PUSH1 0x40 MLOAD DUP1 DUP4 SUB DUP2 DUP7 GAS STATICCALL ISZERO DUP1 ISZERO PUSH2 0x12B4 JUMPI RETURNDATASIZE PUSH0 DUP1 RETURNDATACOPY RETURNDATASIZE PUSH0 REVERT JUMPDEST POP POP POP POP PUSH1 0x40 MLOAD RETURNDATASIZE PUSH1 0x1F NOT PUSH1 0x1F DUP3 ADD AND DUP3 ADD DUP1 PUSH1 0x40 MSTORE POP DUP2 ADD SWAP1 PUSH2 0x12D8 SWAP2 SWAP1 PUSH2 0x4051 JUMP JUMPDEST PUSH2 0x1317 JUMPI PUSH1 0x40 MLOAD PUSH32 0x8C379A000000000000000000000000000000000000000000000000000000000 DUP2 MSTORE PUSH1 0x4 ADD PUSH2 0x130E SWAP1 PUSH2 0x40D6 JUMP JUMPDEST PUSH1 0x40 MLOAD DUP1 SWAP2 SUB SWAP1 REVERT JUMPDEST PUSH0 PUSH1 0x8 DUP3 MLOAD PUSH2 0x1326 SWAP2 SWAP1 PUSH2 0x41DC JUMP JUMPDEST SWAP1 POP JUMPDEST PUSH0 DUP2 GT ISZERO PUSH2 0x16F2 JUMPI PUSH0 PUSH1 0x40 MLOAD DUP1 PUSH2 0x100 ADD PUSH1 0x40 MSTORE DUP1 DUP5 PUSH1 0x8 DUP1 DUP7 PUSH2 0x134D SWAP2 SWAP1 PUSH2 0x4293 JUMP JUMPDEST PUSH2 0x1357 SWAP2 SWAP1 PUSH2 0x420C JUMP JUMPDEST DUP2 MLOAD DUP2 LT PUSH2 0x1368 JUMPI PUSH2 0x1367 PUSH2 0x423F JUMP JUMPDEST JUMPDEST PUSH1 0x20 MUL PUSH1 0x20 ADD ADD MLOAD DUP2 MSTORE PUSH1 0x20 ADD DUP5 PUSH1 0x7 PUSH1 0x8 DUP7 PUSH2 0x1385 SWAP2 SWAP1 PUSH2 0x4293 JUMP JUMPDEST PUSH2 0x138F SWAP2 SWAP1 PUSH2 0x420C JUMP JUMPDEST DUP2 MLOAD DUP2 LT PUSH2 0x13A0 JUMPI PUSH2 0x139F PUSH2 0x423F JUMP JUMPDEST JUMPDEST PUSH1 0x20 MUL PUSH1 0x20 ADD ADD MLOAD PUSH1 0x7 DUP2 GT ISZERO PUSH2 0x13BA JUMPI PUSH2 0x13B9 PUSH2 0x3996 JUMP JUMPDEST JUMPDEST PUSH1 0x7 DUP2 GT ISZERO PUSH2 0x13CC JUMPI PUSH2 0x13CB PUSH2 0x3996 JUMP JUMPDEST JUMPDEST DUP2 MSTORE PUSH1 0x20 ADD DUP5 PUSH1 0x6 PUSH1 0x8 DUP7 PUSH2 0x13E1 SWAP2 SWAP1 PUSH2 0x4293 JUMP JUMPDEST PUSH2 0x13EB SWAP2 SWAP1 PUSH2 0x420C JUMP JUMPDEST DUP2 MLOAD DUP2 LT PUSH2 0x13FC JUMPI PUSH2 0x13FB PUSH2 0x423F JUMP JUMPDEST JUMPDEST PUSH1 0x20 MUL PUSH1 0x20 ADD ADD MLOAD DUP2 MSTORE PUSH1 0x20 ADD DUP5 PUSH1 0x5 PUSH1 0x8 DUP7 PUSH2 0x1419 SWAP2 SWAP1 PUSH2 0x4293 JUMP JUMPDEST PUSH2 0x1423 SWAP2 SWAP1 PUSH2 0x420C JUMP JUMPDEST DUP2 MLOAD DUP2 LT PUSH2 0x1434 JUMPI PUSH2 0x1433 PUSH2 0x423F JUMP JUMPDEST JUMPDEST PUSH1 0x20 MUL PUSH1 0x20 ADD ADD MLOAD DUP2 MSTORE PUSH1 0x20 ADD DUP5 PUSH1 0x4 PUSH1 0x8 DUP7 PUSH2 0x1451 SWAP2 SWAP1 PUSH2 0x4293 JUMP JUMPDEST PUSH2 0x145B SWAP2 SWAP1 PUSH2 0x420C JUMP JUMPDEST DUP2 MLOAD DUP2 LT PUSH2 0x146C JUMPI PUSH2 0x146B PUSH2 0x423F JUMP JUMPDEST JUMPDEST PUSH1 0x20 MUL PUSH1 0x20 ADD ADD MLOAD DUP2 MSTORE PUSH1 0x20 ADD DUP5 PUSH1 0x3 PUSH1 0x8 DUP7 PUSH2 0x1489 SWAP2 SWAP1 PUSH2 0x4293 JUMP JUMPDEST PUSH2 0x1493 SWAP2 SWAP1 PUSH2 0x420C JUMP JUMPDEST DUP2 MLOAD DUP2 LT PUSH2 0x14A4 JUMPI PUSH2 0x14A3 PUSH2 0x423F JUMP JUMPDEST JUMPDEST PUSH1 0x20 MUL PUSH1 0x20 ADD ADD MLOAD DUP2 MSTORE PUSH1 0x20 ADD DUP5 PUSH1 0x2 PUSH1 0x8 DUP7 PUSH2 0x14C1 SWAP2 SWAP1 PUSH2 0x4293 JUMP JUMPDEST PUSH2 0x14CB SWAP2 SWAP1 PUSH2 0x420C JUMP JUMPDEST DUP2 MLOAD DUP2 LT PUSH2 0x14DC JUMPI PUSH2 0x14DB PUSH2 0x423F JUMP JUMPDEST JUMPDEST PUSH1 0x20 MUL PUSH1 0x20 ADD ADD MLOAD DUP2 MSTORE PUSH1 0x20 ADD DUP5 PUSH1 0x1 PUSH1 0x8 DUP7 PUSH2 0x14F9 SWAP2 SWAP1 PUSH2 0x4293 JUMP JUMPDEST PUSH2 0x1503 SWAP2 SWAP1 PUSH2 0x420C JUMP JUMPDEST DUP2 MLOAD DUP2 LT PUSH2 0x1514 JUMPI PUSH2 0x1513 PUSH2 0x423F JUMP JUMPDEST JUMPDEST PUSH1 0x20 MUL PUSH1 0x20 ADD ADD MLOAD DUP2 MSTORE POP SWAP1 POP DUP1 PUSH1 0xC0 ADD MLOAD DUP2 PUSH1 0xA0 ADD MLOAD PUSH1 0xA SLOAD PUSH2 0x1538 SWAP2 SWAP1 PUSH2 0x42D4 JUMP JUMPDEST PUSH2 0x1542 SWAP2 SWAP1 PUSH2 0x42D4 JUMP JUMPDEST PUSH1 0xA DUP2 SWAP1 SSTORE POP PUSH1 0x4 PUSH0 DUP6 PUSH20 0xFFFFFFFFFFFFFFFFFFFFFFFFFFFFFFFFFFFFFFFF AND PUSH20 0xFFFFFFFFFFFFFFFFFFFFFFFFFFFFFFFFFFFFFFFF AND DUP2 MSTORE PUSH1 0x20 ADD SWAP1 DUP2 MSTORE PUSH1 0x20 ADD PUSH0 KECCAK256 DUP2 SWAP1 DUP1 PUSH1 0x1 DUP2 SLOAD ADD DUP1 DUP3 SSTORE DUP1 SWAP2 POP POP PUSH1 0x1 SWAP1 SUB SWAP1 PUSH0 MSTORE PUSH1 0x20 PUSH0 KECCAK256 SWAP1 PUSH1 0x8 MUL ADD PUSH0 SWAP1 SWAP2 SWAP1 SWAP2 SWAP1 SWAP2 POP PUSH0 DUP3 ADD MLOAD DUP2 PUSH0 ADD SSTORE PUSH1 0x20 DUP3 ADD MLOAD DUP2 PUSH1 0x1 ADD PUSH0 PUSH2 0x100 EXP DUP2 SLOAD DUP2 PUSH1 0xFF MUL NOT AND SWAP1 DUP4 PUSH1 0x7 DUP2 GT ISZERO PUSH2 0x15DE JUMPI PUSH2 0x15DD PUSH2 0x3996 JUMP JUMPDEST JUMPDEST MUL OR SWAP1 SSTORE POP PUSH1 0x40 DUP3 ADD MLOAD DUP2 PUSH1 0x2 ADD SSTORE PUSH1 0x60 DUP3 ADD MLOAD DUP2 PUSH1 0x3 ADD SSTORE PUSH1 0x80 DUP3 ADD MLOAD DUP2 PUSH1 0x4 ADD SSTORE PUSH1 0xA0 DUP3 ADD MLOAD DUP2 PUSH1 0x5 ADD SSTORE PUSH1 0xC0 DUP3 ADD MLOAD DUP2 PUSH1 0x6 ADD SSTORE PUSH1 0xE0 DUP3 ADD MLOAD DUP2 PUSH1 0x7 ADD SSTORE POP POP DUP1 PUSH1 0x5 PUSH0 DUP7 PUSH20 0xFFFFFFFFFFFFFFFFFFFFFFFFFFFFFFFFFFFFFFFF AND PUSH20 0xFFFFFFFFFFFFFFFFFFFFFFFFFFFFFFFFFFFFFFFF AND DUP2 MSTORE PUSH1 0x20 ADD SWAP1 DUP2 MSTORE PUSH1 0x20 ADD PUSH0 KECCAK256 PUSH0 DUP3 ADD MLOAD DUP2 PUSH0 ADD SSTORE PUSH1 0x20 DUP3 ADD MLOAD DUP2 PUSH1 0x1 ADD PUSH0 PUSH2 0x100 EXP DUP2 SLOAD DUP2 PUSH1 0xFF MUL NOT AND SWAP1 DUP4 PUSH1 0x7 DUP2 GT ISZERO PUSH2 0x1691 JUMPI PUSH2 0x1690 PUSH2 0x3996 JUMP JUMPDEST JUMPDEST MUL OR SWAP1 SSTORE POP PUSH1 0x40 DUP3 ADD MLOAD DUP2 PUSH1 0x2 ADD SSTORE PUSH1 0x60 DUP3 ADD MLOAD DUP2 PUSH1 0x3 ADD SSTORE PUSH1 0x80 DUP3 ADD MLOAD DUP2 PUSH1 0x4 ADD SSTORE PUSH1 0xA0 DUP3 ADD MLOAD DUP2 PUSH1 0x5 ADD SSTORE PUSH1 0xC0 DUP3 ADD MLOAD DUP2 PUSH1 0x6 ADD SSTORE PUSH1 0xE0 DUP3 ADD MLOAD DUP2 PUSH1 0x7 ADD SSTORE SWAP1 POP POP PUSH2 0x16DE DUP5 PUSH2 0x2B4A JUMP JUMPDEST POP DUP1 DUP1 PUSH2 0x16EA SWAP1 PUSH2 0x426C JUMP JUMPDEST SWAP2 POP POP PUSH2 0x1329 JUMP JUMPDEST POP POP POP JUMP JUMPDEST PUSH1 0x3 PUSH1 0x10 SWAP1 SLOAD SWAP1 PUSH2 0x100 EXP SWAP1 DIV PUSH1 0xFF AND ISZERO PUSH2 0x17E3 JUMPI PUSH0 DUP1 SLOAD SWAP1 PUSH2 0x100 EXP SWAP1 DIV PUSH20 0xFFFFFFFFFFFFFFFFFFFFFFFFFFFFFFFFFFFFFFFF AND PUSH20 0xFFFFFFFFFFFFFFFFFFFFFFFFFFFFFFFFFFFFFFFF AND PUSH4 0x5BF3A315 CALLER PUSH1 0x40 MLOAD DUP3 PUSH4 0xFFFFFFFF AND PUSH1 0xE0 SHL DUP2 MSTORE PUSH1 0x4 ADD PUSH2 0x1764 SWAP2 SWAP1 PUSH2 0x4024 JUMP JUMPDEST PUSH1 0x20 PUSH1 0x40 MLOAD DUP1 DUP4 SUB DUP2 DUP7 GAS STATICCALL ISZERO DUP1 ISZERO PUSH2 0x177F JUMPI RETURNDATASIZE PUSH0 DUP1 RETURNDATACOPY RETURNDATASIZE PUSH0 REVERT JUMPDEST POP POP POP POP PUSH1 0x40 MLOAD RETURNDATASIZE PUSH1 0x1F NOT PUSH1 0x1F DUP3 ADD AND DUP3 ADD DUP1 PUSH1 0x40 MSTORE POP DUP2 ADD SWAP1 PUSH2 0x17A3 SWAP2 SWAP1 PUSH2 0x4051 JUMP JUMPDEST PUSH2 0x17E2 JUMPI PUSH1 0x40 MLOAD PUSH32 0x8C379A000000000000000000000000000000000000000000000000000000000 DUP2 MSTORE PUSH1 0x4 ADD PUSH2 0x17D9 SWAP1 PUSH2 0x4164 JUMP JUMPDEST PUSH1 0x40 MLOAD DUP1 SWAP2 SUB SWAP1 REVERT JUMPDEST JUMPDEST PUSH2 0x17F1 DUP3 DUP3 PUSH1 0x6 PUSH0 DUP1 PUSH2 0x2677 JUMP JUMPDEST POP POP JUMP JUMPDEST PUSH1 0x60 PUSH0 DUP1 SLOAD SWAP1 PUSH2 0x100 EXP SWAP1 DIV PUSH20 0xFFFFFFFFFFFFFFFFFFFFFFFFFFFFFFFFFFFFFFFF AND PUSH20 0xFFFFFFFFFFFFFFFFFFFFFFFFFFFFFFFFFFFFFFFF AND PUSH4 0x2F54BF6E CALLER PUSH1 0x40 MLOAD DUP3 PUSH4 0xFFFFFFFF AND PUSH1 0xE0 SHL DUP2 MSTORE PUSH1 0x4 ADD PUSH2 0x184F SWAP2 SWAP1 PUSH2 0x4024 JUMP JUMPDEST PUSH1 0x20 PUSH1 0x40 MLOAD DUP1 DUP4 SUB DUP2 DUP7 GAS STATICCALL ISZERO DUP1 ISZERO PUSH2 0x186A JUMPI RETURNDATASIZE PUSH0 DUP1 RETURNDATACOPY RETURNDATASIZE PUSH0 REVERT JUMPDEST POP POP POP POP PUSH1 0x40 MLOAD RETURNDATASIZE PUSH1 0x1F NOT PUSH1 0x1F DUP3 ADD AND DUP3 ADD DUP1 PUSH1 0x40 MSTORE POP DUP2 ADD SWAP1 PUSH2 0x188E SWAP2 SWAP1 PUSH2 0x4051 JUMP JUMPDEST PUSH2 0x18CD JUMPI PUSH1 0x40 MLOAD PUSH32 0x8C379A000000000000000000000000000000000000000000000000000000000 DUP2 MSTORE PUSH1 0x4 ADD PUSH2 0x18C4 SWAP1 PUSH2 0x40D6 JUMP JUMPDEST PUSH1 0x40 MLOAD DUP1 SWAP2 SUB SWAP1 REVERT JUMPDEST PUSH0 PUSH1 0x9 SLOAD PUSH8 0xFFFFFFFFFFFFFFFF DUP2 GT ISZERO PUSH2 0x18EA JUMPI PUSH2 0x18E9 PUSH2 0x3AFF JUMP JUMPDEST JUMPDEST PUSH1 0x40 MLOAD SWAP1 DUP1 DUP3 MSTORE DUP1 PUSH1 0x20 MUL PUSH1 0x20 ADD DUP3 ADD PUSH1 0x40 MSTORE DUP1 ISZERO PUSH2 0x1923 JUMPI DUP2 PUSH1 0x20 ADD JUMPDEST PUSH2 0x1910 PUSH2 0x357F JUMP JUMPDEST DUP2 MSTORE PUSH1 0x20 ADD SWAP1 PUSH1 0x1 SWAP1 SUB SWAP1 DUP2 PUSH2 0x1908 JUMPI SWAP1 POP JUMPDEST POP SWAP1 POP PUSH0 JUMPDEST PUSH1 0x9 SLOAD DUP2 LT ISZERO PUSH2 0x1A5E JUMPI PUSH1 0x5 PUSH0 PUSH1 0x8 DUP4 DUP2 SLOAD DUP2 LT PUSH2 0x1949 JUMPI PUSH2 0x1948 PUSH2 0x423F JUMP JUMPDEST JUMPDEST SWAP1 PUSH0 MSTORE PUSH1 0x20 PUSH0 KECCAK256 ADD PUSH0 SWAP1 SLOAD SWAP1 PUSH2 0x100 EXP SWAP1 DIV PUSH20 0xFFFFFFFFFFFFFFFFFFFFFFFFFFFFFFFFFFFFFFFF AND PUSH20 0xFFFFFFFFFFFFFFFFFFFFFFFFFFFFFFFFFFFFFFFF AND PUSH20 0xFFFFFFFFFFFFFFFFFFFFFFFFFFFFFFFFFFFFFFFF AND DUP2 MSTORE PUSH1 0x20 ADD SWAP1 DUP2 MSTORE PUSH1 0x20 ADD PUSH0 KECCAK256 PUSH1 0x40 MLOAD DUP1 PUSH2 0x100 ADD PUSH1 0x40 MSTORE SWAP1 DUP2 PUSH0 DUP3 ADD SLOAD DUP2 MSTORE PUSH1 0x20 ADD PUSH1 0x1 DUP3 ADD PUSH0 SWAP1 SLOAD SWAP1 PUSH2 0x100 EXP SWAP1 DIV PUSH1 0xFF AND PUSH1 0x7 DUP2 GT ISZERO PUSH2 0x19E3 JUMPI PUSH2 0x19E2 PUSH2 0x3996 JUMP JUMPDEST JUMPDEST PUSH1 0x7 DUP2 GT ISZERO PUSH2 0x19F5 JUMPI PUSH2 0x19F4 PUSH2 0x3996 JUMP JUMPDEST JUMPDEST DUP2 MSTORE PUSH1 0x20 ADD PUSH1 0x2 DUP3 ADD SLOAD DUP2 MSTORE PUSH1 0x20 ADD PUSH1 0x3 DUP3 ADD SLOAD DUP2 MSTORE PUSH1 0x20 ADD PUSH1 0x4 DUP3 ADD SLOAD DUP2 MSTORE PUSH1 0x20 ADD PUSH1 0x5 DUP3 ADD SLOAD DUP2 MSTORE PUSH1 0x20 ADD PUSH1 0x6 DUP3 ADD SLOAD DUP2 MSTORE PUSH1 0x20 ADD PUSH1 0x7 DUP3 ADD SLOAD DUP2 MSTORE POP POP DUP3 DUP3 DUP2 MLOAD DUP2 LT PUSH2 0x1A48 JUMPI PUSH2 0x1A47 PUSH2 0x423F JUMP JUMPDEST JUMPDEST PUSH1 0x20 MUL PUSH1 0x20 ADD ADD DUP2 SWAP1 MSTORE POP DUP1 PUSH1 0x1 ADD SWAP1 POP PUSH2 0x1928 JUMP JUMPDEST POP DUP1 SWAP2 POP POP SWAP1 JUMP JUMPDEST PUSH1 0x3 PUSH1 0x10 SWAP1 SLOAD SWAP1 PUSH2 0x100 EXP SWAP1 DIV PUSH1 0xFF AND ISZERO PUSH2 0x1B52 JUMPI PUSH0 DUP1 SLOAD SWAP1 PUSH2 0x100 EXP SWAP1 DIV PUSH20 0xFFFFFFFFFFFFFFFFFFFFFFFFFFFFFFFFFFFFFFFF AND PUSH20 0xFFFFFFFFFFFFFFFFFFFFFFFFFFFFFFFFFFFFFFFF AND PUSH4 0x5BF3A315 CALLER PUSH1 0x40 MLOAD DUP3 PUSH4 0xFFFFFFFF AND PUSH1 0xE0 SHL DUP2 MSTORE PUSH1 0x4 ADD PUSH2 0x1AD3 SWAP2 SWAP1 PUSH2 0x4024 JUMP JUMPDEST PUSH1 0x20 PUSH1 0x40 MLOAD DUP1 DUP4 SUB DUP2 DUP7 GAS STATICCALL ISZERO DUP1 ISZERO PUSH2 0x1AEE JUMPI RETURNDATASIZE PUSH0 DUP1 RETURNDATACOPY RETURNDATASIZE PUSH0 REVERT JUMPDEST POP POP POP POP PUSH1 0x40 MLOAD RETURNDATASIZE PUSH1 0x1F NOT PUSH1 0x1F DUP3 ADD AND DUP3 ADD DUP1 PUSH1 0x40 MSTORE POP DUP2 ADD SWAP1 PUSH2 0x1B12 SWAP2 SWAP1 PUSH2 0x4051 JUMP JUMPDEST PUSH2 0x1B51 JUMPI PUSH1 0x40 MLOAD PUSH32 0x8C379A000000000000000000000000000000000000000000000000000000000 DUP2 MSTORE PUSH1 0x4 ADD PUSH2 0x1B48 SWAP1 PUSH2 0x4164 JUMP JUMPDEST PUSH1 0x40 MLOAD DUP1 SWAP2 SUB SWAP1 REVERT JUMPDEST JUMPDEST PUSH2 0x1B60 DUP5 DUP5 PUSH1 0x1 DUP6 DUP6 PUSH2 0x2677 JUMP JUMPDEST POP POP POP POP JUMP JUMPDEST PUSH1 0x60 PUSH2 0x1B75 DUP3 PUSH1 0x1 PUSH1 0x64 PUSH2 0x239D JUMP JUMPDEST SWAP1 POP SWAP2 SWAP1 POP JUMP JUMPDEST PUSH1 0x60 PUSH2 0x1B8A DUP4 DUP4 PUSH1 0x64 PUSH2 0x239D JUMP JUMPDEST SWAP1 POP SWAP3 SWAP2 POP POP JUMP JUMPDEST PUSH0 PUSH1 0x7 PUSH0 DUP4 PUSH20 0xFFFFFFFFFFFFFFFFFFFFFFFFFFFFFFFFFFFFFFFF AND PUSH20 0xFFFFFFFFFFFFFFFFFFFFFFFFFFFFFFFFFFFFFFFF AND DUP2 MSTORE PUSH1 0x20 ADD SWAP1 DUP2 MSTORE PUSH1 0x20 ADD PUSH0 KECCAK256 SLOAD SWAP1 POP SWAP2 SWAP1 POP JUMP JUMPDEST PUSH1 0x3 PUSH1 0x10 SWAP1 SLOAD SWAP1 PUSH2 0x100 EXP SWAP1 DIV PUSH1 0xFF AND ISZERO PUSH2 0x1CC4 JUMPI PUSH0 DUP1 SLOAD SWAP1 PUSH2 0x100 EXP SWAP1 DIV PUSH20 0xFFFFFFFFFFFFFFFFFFFFFFFFFFFFFFFFFFFFFFFF AND PUSH20 0xFFFFFFFFFFFFFFFFFFFFFFFFFFFFFFFFFFFFFFFF AND PUSH4 0x5BF3A315 CALLER PUSH1 0x40 MLOAD DUP3 PUSH4 0xFFFFFFFF AND PUSH1 0xE0 SHL DUP2 MSTORE PUSH1 0x4 ADD PUSH2 0x1C45 SWAP2 SWAP1 PUSH2 0x4024 JUMP JUMPDEST PUSH1 0x20 PUSH1 0x40 MLOAD DUP1 DUP4 SUB DUP2 DUP7 GAS STATICCALL ISZERO DUP1 ISZERO PUSH2 0x1C60 JUMPI RETURNDATASIZE PUSH0 DUP1 RETURNDATACOPY RETURNDATASIZE PUSH0 REVERT JUMPDEST POP POP POP POP PUSH1 0x40 MLOAD RETURNDATASIZE PUSH1 0x1F NOT PUSH1 0x1F DUP3 ADD AND DUP3 ADD DUP1 PUSH1 0x40 MSTORE POP DUP2 ADD SWAP1 PUSH2 0x1C84 SWAP2 SWAP1 PUSH2 0x4051 JUMP JUMPDEST PUSH2 0x1CC3 JUMPI PUSH1 0x40 MLOAD PUSH32 0x8C379A000000000000000000000000000000000000000000000000000000000 DUP2 MSTORE PUSH1 0x4 ADD PUSH2 0x1CBA SWAP1 PUSH2 0x4164 JUMP JUMPDEST PUSH1 0x40 MLOAD DUP1 SWAP2 SUB SWAP1 REVERT JUMPDEST JUMPDEST PUSH2 0x1CD2 DUP3 DUP3 PUSH1 0x2 PUSH0 DUP1 PUSH2 0x2677 JUMP JUMPDEST POP POP JUMP JUMPDEST PUSH0 PUSH1 0x9 SLOAD SWAP1 POP SWAP1 JUMP JUMPDEST PUSH0 CALLER SWAP1 POP PUSH2 0x1CEC DUP2 PUSH2 0x103A JUMP JUMPDEST ISZERO PUSH2 0x1D2C JUMPI PUSH1 0x40 MLOAD PUSH32 0x8C379A000000000000000000000000000000000000000000000000000000000 DUP2 MSTORE PUSH1 0x4 ADD PUSH2 0x1D23 SWAP1 PUSH2 0x4351 JUMP JUMPDEST PUSH1 0x40 MLOAD DUP1 SWAP2 SUB SWAP1 REVERT JUMPDEST PUSH0 TIMESTAMP SWAP1 POP PUSH0 PUSH2 0x1D3B DUP4 DUP4 PUSH2 0x3414 JUMP JUMPDEST SWAP1 POP PUSH0 PUSH1 0x12 PUSH1 0xA PUSH2 0x1D4C SWAP2 SWAP1 PUSH2 0x44AA JUMP JUMPDEST PUSH1 0x3 PUSH1 0xA SWAP1 SLOAD SWAP1 PUSH2 0x100 EXP SWAP1 DIV PUSH2 0xFFFF AND PUSH2 0xFFFF AND PUSH2 0x1D6B SWAP2 SWAP1 PUSH2 0x4293 JUMP JUMPDEST SWAP1 POP PUSH0 PUSH2 0x1D80 DUP5 DUP5 PUSH0 ADD MLOAD DUP6 PUSH1 0x60 ADD MLOAD PUSH2 0x3550 JUMP JUMPDEST SWAP1 POP PUSH0 DUP2 DUP4 DUP6 PUSH1 0xE0 ADD MLOAD PUSH2 0x1D94 SWAP2 SWAP1 PUSH2 0x42D4 JUMP JUMPDEST PUSH2 0x1D9E SWAP2 SWAP1 PUSH2 0x42D4 JUMP JUMPDEST SWAP1 POP DUP2 DUP4 PUSH1 0xA SLOAD PUSH2 0x1DAF SWAP2 SWAP1 PUSH2 0x42D4 JUMP JUMPDEST PUSH2 0x1DB9 SWAP2 SWAP1 PUSH2 0x42D4 JUMP JUMPDEST PUSH1 0xA DUP2 SWAP1 SSTORE POP PUSH0 PUSH1 0x40 MLOAD DUP1 PUSH2 0x100 ADD PUSH1 0x40 MSTORE DUP1 TIMESTAMP DUP2 MSTORE PUSH1 0x20 ADD PUSH1 0x5 PUSH1 0x7 DUP2 GT ISZERO PUSH2 0x1DE6 JUMPI PUSH2 0x1DE5 PUSH2 0x3996 JUMP JUMPDEST JUMPDEST DUP2 MSTORE PUSH1 0x20 ADD PUSH0 DUP2 MSTORE PUSH1 0x20 ADD DUP7 PUSH1 0x60 ADD MLOAD DUP2 MSTORE PUSH1 0x20 ADD DUP7 PUSH1 0x80 ADD MLOAD DUP2 MSTORE PUSH1 0x20 ADD DUP6 DUP2 MSTORE PUSH1 0x20 ADD DUP5 DUP2 MSTORE PUSH1 0x20 ADD DUP4 DUP2 MSTORE POP SWAP1 POP PUSH1 0x4 PUSH0 DUP9 PUSH20 0xFFFFFFFFFFFFFFFFFFFFFFFFFFFFFFFFFFFFFFFF AND PUSH20 0xFFFFFFFFFFFFFFFFFFFFFFFFFFFFFFFFFFFFFFFF AND DUP2 MSTORE PUSH1 0x20 ADD SWAP1 DUP2 MSTORE PUSH1 0x20 ADD PUSH0 KECCAK256 DUP2 SWAP1 DUP1 PUSH1 0x1 DUP2 SLOAD ADD DUP1 DUP3 SSTORE DUP1 SWAP2 POP POP PUSH1 0x1 SWAP1 SUB SWAP1 PUSH0 MSTORE PUSH1 0x20 PUSH0 KECCAK256 SWAP1 PUSH1 0x8 MUL ADD PUSH0 SWAP1 SWAP2 SWAP1 SWAP2 SWAP1 SWAP2 POP PUSH0 DUP3 ADD MLOAD DUP2 PUSH0 ADD SSTORE PUSH1 0x20 DUP3 ADD MLOAD DUP2 PUSH1 0x1 ADD PUSH0 PUSH2 0x100 EXP DUP2 SLOAD DUP2 PUSH1 0xFF MUL NOT AND SWAP1 DUP4 PUSH1 0x7 DUP2 GT ISZERO PUSH2 0x1EAD JUMPI PUSH2 0x1EAC PUSH2 0x3996 JUMP JUMPDEST JUMPDEST MUL OR SWAP1 SSTORE POP PUSH1 0x40 DUP3 ADD MLOAD DUP2 PUSH1 0x2 ADD SSTORE PUSH1 0x60 DUP3 ADD MLOAD DUP2 PUSH1 0x3 ADD SSTORE PUSH1 0x80 DUP3 ADD MLOAD DUP2 PUSH1 0x4 ADD SSTORE PUSH1 0xA0 DUP3 ADD MLOAD DUP2 PUSH1 0x5 ADD SSTORE PUSH1 0xC0 DUP3 ADD MLOAD DUP2 PUSH1 0x6 ADD SSTORE PUSH1 0xE0 DUP3 ADD MLOAD DUP2 PUSH1 0x7 ADD SSTORE POP POP DUP1 PUSH1 0x5 PUSH0 DUP10 PUSH20 0xFFFFFFFFFFFFFFFFFFFFFFFFFFFFFFFFFFFFFFFF AND PUSH20 0xFFFFFFFFFFFFFFFFFFFFFFFFFFFFFFFFFFFFFFFF AND DUP2 MSTORE PUSH1 0x20 ADD SWAP1 DUP2 MSTORE PUSH1 0x20 ADD PUSH0 KECCAK256 PUSH0 DUP3 ADD MLOAD DUP2 PUSH0 ADD SSTORE PUSH1 0x20 DUP3 ADD MLOAD DUP2 PUSH1 0x1 ADD PUSH0 PUSH2 0x100 EXP DUP2 SLOAD DUP2 PUSH1 0xFF MUL NOT AND SWAP1 DUP4 PUSH1 0x7 DUP2 GT ISZERO PUSH2 0x1F60 JUMPI PUSH2 0x1F5F PUSH2 0x3996 JUMP JUMPDEST JUMPDEST MUL OR SWAP1 SSTORE POP PUSH1 0x40 DUP3 ADD MLOAD DUP2 PUSH1 0x2 ADD SSTORE PUSH1 0x60 DUP3 ADD MLOAD DUP2 PUSH1 0x3 ADD SSTORE PUSH1 0x80 DUP3 ADD MLOAD DUP2 PUSH1 0x4 ADD SSTORE PUSH1 0xA0 DUP3 ADD MLOAD DUP2 PUSH1 0x5 ADD SSTORE PUSH1 0xC0 DUP3 ADD MLOAD DUP2 PUSH1 0x6 ADD SSTORE PUSH1 0xE0 DUP3 ADD MLOAD DUP2 PUSH1 0x7 ADD SSTORE SWAP1 POP POP PUSH2 0x1FAD DUP8 PUSH2 0x2B4A JUMP JUMPDEST POP POP POP POP POP POP POP JUMP JUMPDEST PUSH1 0x3 PUSH1 0x10 SWAP1 SLOAD SWAP1 PUSH2 0x100 EXP SWAP1 DIV PUSH1 0xFF AND ISZERO PUSH2 0x20A2 JUMPI PUSH0 DUP1 SLOAD SWAP1 PUSH2 0x100 EXP SWAP1 DIV PUSH20 0xFFFFFFFFFFFFFFFFFFFFFFFFFFFFFFFFFFFFFFFF AND PUSH20 0xFFFFFFFFFFFFFFFFFFFFFFFFFFFFFFFFFFFFFFFF AND PUSH4 0x5BF3A315 CALLER PUSH1 0x40 MLOAD DUP3 PUSH4 0xFFFFFFFF AND PUSH1 0xE0 SHL DUP2 MSTORE PUSH1 0x4 ADD PUSH2 0x2023 SWAP2 SWAP1 PUSH2 0x4024 JUMP JUMPDEST PUSH1 0x20 PUSH1 0x40 MLOAD DUP1 DUP4 SUB DUP2 DUP7 GAS STATICCALL ISZERO DUP1 ISZERO PUSH2 0x203E JUMPI RETURNDATASIZE PUSH0 DUP1 RETURNDATACOPY RETURNDATASIZE PUSH0 REVERT JUMPDEST POP POP POP POP PUSH1 0x40 MLOAD RETURNDATASIZE PUSH1 0x1F NOT PUSH1 0x1F DUP3 ADD AND DUP3 ADD DUP1 PUSH1 0x40 MSTORE POP DUP2 ADD SWAP1 PUSH2 0x2062 SWAP2 SWAP1 PUSH2 0x4051 JUMP JUMPDEST PUSH2 0x20A1 JUMPI PUSH1 0x40 MLOAD PUSH32 0x8C379A000000000000000000000000000000000000000000000000000000000 DUP2 MSTORE PUSH1 0x4 ADD PUSH2 0x2098 SWAP1 PUSH2 0x4164 JUMP JUMPDEST PUSH1 0x40 MLOAD DUP1 SWAP2 SUB SWAP1 REVERT JUMPDEST JUMPDEST PUSH2 0x20B0 DUP3 DUP3 PUSH1 0x3 PUSH0 DUP1 PUSH2 0x2677 JUMP JUMPDEST POP POP JUMP JUMPDEST PUSH0 PUSH1 0x4 PUSH0 DUP4 PUSH20 0xFFFFFFFFFFFFFFFFFFFFFFFFFFFFFFFFFFFFFFFF AND PUSH20 0xFFFFFFFFFFFFFFFFFFFFFFFFFFFFFFFFFFFFFFFF AND DUP2 MSTORE PUSH1 0x20 ADD SWAP1 DUP2 MSTORE PUSH1 0x20 ADD PUSH0 KECCAK256 DUP1 SLOAD SWAP1 POP SWAP1 POP SWAP2 SWAP1 POP JUMP JUMPDEST PUSH2 0x2105 PUSH2 0x35CE JUMP JUMPDEST PUSH0 DUP1 SLOAD SWAP1 PUSH2 0x100 EXP SWAP1 DIV PUSH20 0xFFFFFFFFFFFFFFFFFFFFFFFFFFFFFFFFFFFFFFFF AND PUSH20 0xFFFFFFFFFFFFFFFFFFFFFFFFFFFFFFFFFFFFFFFF AND PUSH4 0x2F54BF6E CALLER PUSH1 0x40 MLOAD DUP3 PUSH4 0xFFFFFFFF AND PUSH1 0xE0 SHL DUP2 MSTORE PUSH1 0x4 ADD PUSH2 0x215D SWAP2 SWAP1 PUSH2 0x4024 JUMP JUMPDEST PUSH1 0x20 PUSH1 0x40 MLOAD DUP1 DUP4 SUB DUP2 DUP7 GAS STATICCALL ISZERO DUP1 ISZERO PUSH2 0x2178 JUMPI RETURNDATASIZE PUSH0 DUP1 RETURNDATACOPY RETURNDATASIZE PUSH0 REVERT JUMPDEST POP POP POP POP PUSH1 0x40 MLOAD RETURNDATASIZE PUSH1 0x1F NOT PUSH1 0x1F DUP3 ADD AND DUP3 ADD DUP1 PUSH1 0x40 MSTORE POP DUP2 ADD SWAP1 PUSH2 0x219C SWAP2 SWAP1 PUSH2 0x4051 JUMP JUMPDEST PUSH2 0x21DB JUMPI PUSH1 0x40 MLOAD PUSH32 0x8C379A000000000000000000000000000000000000000000000000000000000 DUP2 MSTORE PUSH1 0x4 ADD PUSH2 0x21D2 SWAP1 PUSH2 0x40D6 JUMP JUMPDEST PUSH1 0x40 MLOAD DUP1 SWAP2 SUB SWAP1 REVERT JUMPDEST PUSH1 0x40 MLOAD DUP1 PUSH2 0x100 ADD PUSH1 0x40 MSTORE DUP1 PUSH1 0x3 PUSH0 SWAP1 SLOAD SWAP1 PUSH2 0x100 EXP SWAP1 DIV PUSH2 0xFFFF AND PUSH2 0xFFFF AND PUSH2 0xFFFF AND DUP2 MSTORE PUSH1 0x20 ADD PUSH1 0x3 PUSH1 0x2 SWAP1 SLOAD SWAP1 PUSH2 0x100 EXP SWAP1 DIV PUSH2 0xFFFF AND PUSH2 0xFFFF AND PUSH2 0xFFFF AND DUP2 MSTORE PUSH1 0x20 ADD PUSH1 0x3 PUSH1 0x4 SWAP1 SLOAD SWAP1 PUSH2 0x100 EXP SWAP1 DIV PUSH2 0xFFFF AND PUSH2 0xFFFF AND PUSH2 0xFFFF AND DUP2 MSTORE PUSH1 0x20 ADD PUSH1 0x3 PUSH1 0x6 SWAP1 SLOAD SWAP1 PUSH2 0x100 EXP SWAP1 DIV PUSH2 0xFFFF AND PUSH2 0xFFFF AND PUSH2 0xFFFF AND DUP2 MSTORE PUSH1 0x20 ADD PUSH1 0x3 PUSH1 0x8 SWAP1 SLOAD SWAP1 PUSH2 0x100 EXP SWAP1 DIV PUSH2 0xFFFF AND PUSH2 0xFFFF AND PUSH2 0xFFFF AND DUP2 MSTORE PUSH1 0x20 ADD PUSH1 0x3 PUSH1 0xA SWAP1 SLOAD SWAP1 PUSH2 0x100 EXP SWAP1 DIV PUSH2 0xFFFF AND PUSH2 0xFFFF AND PUSH2 0xFFFF AND DUP2 MSTORE PUSH1 0x20 ADD PUSH1 0x3 PUSH1 0xC SWAP1 SLOAD SWAP1 PUSH2 0x100 EXP SWAP1 DIV PUSH2 0xFFFF AND PUSH2 0xFFFF AND PUSH2 0xFFFF AND DUP2 MSTORE PUSH1 0x20 ADD PUSH1 0x3 PUSH1 0xE SWAP1 SLOAD SWAP1 PUSH2 0x100 EXP SWAP1 DIV PUSH2 0xFFFF AND PUSH2 0xFFFF AND PUSH2 0xFFFF AND DUP2 MSTORE POP SWAP1 POP SWAP1 JUMP JUMPDEST PUSH1 0x60 PUSH1 0x6 DUP1 SLOAD DUP1 PUSH1 0x20 MUL PUSH1 0x20 ADD PUSH1 0x40 MLOAD SWAP1 DUP2 ADD PUSH1 0x40 MSTORE DUP1 SWAP3 SWAP2 SWAP1 DUP2 DUP2 MSTORE PUSH1 0x20 ADD PUSH0 SWAP1 JUMPDEST DUP3 DUP3 LT ISZERO PUSH2 0x2394 JUMPI DUP4 DUP3 SWAP1 PUSH0 MSTORE PUSH1 0x20 PUSH0 KECCAK256 SWAP1 PUSH1 0x3 MUL ADD PUSH1 0x40 MLOAD DUP1 PUSH1 0x60 ADD PUSH1 0x40 MSTORE SWAP1 DUP2 PUSH0 DUP3 ADD PUSH0 SWAP1 SLOAD SWAP1 PUSH2 0x100 EXP SWAP1 DIV PUSH20 0xFFFFFFFFFFFFFFFFFFFFFFFFFFFFFFFFFFFFFFFF AND PUSH20 0xFFFFFFFFFFFFFFFFFFFFFFFFFFFFFFFFFFFFFFFF AND PUSH20 0xFFFFFFFFFFFFFFFFFFFFFFFFFFFFFFFFFFFFFFFF AND DUP2 MSTORE PUSH1 0x20 ADD PUSH1 0x1 DUP3 ADD SLOAD DUP2 MSTORE PUSH1 0x20 ADD PUSH1 0x2 DUP3 ADD SLOAD DUP2 MSTORE POP POP DUP2 MSTORE PUSH1 0x20 ADD SWAP1 PUSH1 0x1 ADD SWAP1 PUSH2 0x22FC JUMP JUMPDEST POP POP POP POP SWAP1 POP SWAP1 JUMP JUMPDEST PUSH1 0x60 PUSH0 PUSH1 0x4 PUSH0 DUP7 PUSH20 0xFFFFFFFFFFFFFFFFFFFFFFFFFFFFFFFFFFFFFFFF AND PUSH20 0xFFFFFFFFFFFFFFFFFFFFFFFFFFFFFFFFFFFFFFFF AND DUP2 MSTORE PUSH1 0x20 ADD SWAP1 DUP2 MSTORE PUSH1 0x20 ADD PUSH0 KECCAK256 DUP1 SLOAD DUP1 PUSH1 0x20 MUL PUSH1 0x20 ADD PUSH1 0x40 MLOAD SWAP1 DUP2 ADD PUSH1 0x40 MSTORE DUP1 SWAP3 SWAP2 SWAP1 DUP2 DUP2 MSTORE PUSH1 0x20 ADD PUSH0 SWAP1 JUMPDEST DUP3 DUP3 LT ISZERO PUSH2 0x24AC JUMPI DUP4 DUP3 SWAP1 PUSH0 MSTORE PUSH1 0x20 PUSH0 KECCAK256 SWAP1 PUSH1 0x8 MUL ADD PUSH1 0x40 MLOAD DUP1 PUSH2 0x100 ADD PUSH1 0x40 MSTORE SWAP1 DUP2 PUSH0 DUP3 ADD SLOAD DUP2 MSTORE PUSH1 0x20 ADD PUSH1 0x1 DUP3 ADD PUSH0 SWAP1 SLOAD SWAP1 PUSH2 0x100 EXP SWAP1 DIV PUSH1 0xFF AND PUSH1 0x7 DUP2 GT ISZERO PUSH2 0x244B JUMPI PUSH2 0x244A PUSH2 0x3996 JUMP JUMPDEST JUMPDEST PUSH1 0x7 DUP2 GT ISZERO PUSH2 0x245D JUMPI PUSH2 0x245C PUSH2 0x3996 JUMP JUMPDEST JUMPDEST DUP2 MSTORE PUSH1 0x20 ADD PUSH1 0x2 DUP3 ADD SLOAD DUP2 MSTORE PUSH1 0x20 ADD PUSH1 0x3 DUP3 ADD SLOAD DUP2 MSTORE PUSH1 0x20 ADD PUSH1 0x4 DUP3 ADD SLOAD DUP2 MSTORE PUSH1 0x20 ADD PUSH1 0x5 DUP3 ADD SLOAD DUP2 MSTORE PUSH1 0x20 ADD PUSH1 0x6 DUP3 ADD SLOAD DUP2 MSTORE PUSH1 0x20 ADD PUSH1 0x7 DUP3 ADD SLOAD DUP2 MSTORE POP POP DUP2 MSTORE PUSH1 0x20 ADD SWAP1 PUSH1 0x1 ADD SWAP1 PUSH2 0x23FC JUMP JUMPDEST POP POP POP POP SWAP1 POP PUSH0 DUP2 MLOAD SWAP1 POP PUSH0 DUP2 GT PUSH2 0x24F9 JUMPI PUSH1 0x40 MLOAD PUSH32 0x8C379A000000000000000000000000000000000000000000000000000000000 DUP2 MSTORE PUSH1 0x4 ADD PUSH2 0x24F0 SWAP1 PUSH2 0x453E JUMP JUMPDEST PUSH1 0x40 MLOAD DUP1 SWAP2 SUB SWAP1 REVERT JUMPDEST PUSH1 0x1 DUP6 PUSH2 0x2506 SWAP2 SWAP1 PUSH2 0x420C JUMP JUMPDEST DUP5 PUSH2 0x2511 SWAP2 SWAP1 PUSH2 0x4293 JUMP JUMPDEST DUP2 GT PUSH2 0x2552 JUMPI PUSH1 0x40 MLOAD PUSH32 0x8C379A000000000000000000000000000000000000000000000000000000000 DUP2 MSTORE PUSH1 0x4 ADD PUSH2 0x2549 SWAP1 PUSH2 0x45CC JUMP JUMPDEST PUSH1 0x40 MLOAD DUP1 SWAP2 SUB SWAP1 REVERT JUMPDEST PUSH0 DUP1 PUSH1 0x1 DUP8 PUSH2 0x2561 SWAP2 SWAP1 PUSH2 0x420C JUMP JUMPDEST DUP7 PUSH2 0x256C SWAP2 SWAP1 PUSH2 0x4293 JUMP JUMPDEST DUP4 PUSH2 0x2577 SWAP2 SWAP1 PUSH2 0x420C JUMP JUMPDEST SWAP2 POP DUP6 DUP3 GT PUSH2 0x2588 JUMPI PUSH0 SWAP1 POP PUSH2 0x2597 JUMP JUMPDEST DUP6 DUP3 PUSH2 0x2594 SWAP2 SWAP1 PUSH2 0x420C JUMP JUMPDEST SWAP1 POP JUMPDEST PUSH0 DUP2 DUP4 PUSH2 0x25A4 SWAP2 SWAP1 PUSH2 0x420C JUMP JUMPDEST PUSH8 0xFFFFFFFFFFFFFFFF DUP2 GT ISZERO PUSH2 0x25BD JUMPI PUSH2 0x25BC PUSH2 0x3AFF JUMP JUMPDEST JUMPDEST PUSH1 0x40 MLOAD SWAP1 DUP1 DUP3 MSTORE DUP1 PUSH1 0x20 MUL PUSH1 0x20 ADD DUP3 ADD PUSH1 0x40 MSTORE DUP1 ISZERO PUSH2 0x25F6 JUMPI DUP2 PUSH1 0x20 ADD JUMPDEST PUSH2 0x25E3 PUSH2 0x357F JUMP JUMPDEST DUP2 MSTORE PUSH1 0x20 ADD SWAP1 PUSH1 0x1 SWAP1 SUB SWAP1 DUP2 PUSH2 0x25DB JUMPI SWAP1 POP JUMPDEST POP SWAP1 POP PUSH0 DUP4 SWAP1 POP JUMPDEST DUP3 DUP2 GT ISZERO PUSH2 0x2667 JUMPI DUP6 PUSH1 0x1 DUP3 PUSH2 0x2614 SWAP2 SWAP1 PUSH2 0x420C JUMP JUMPDEST DUP2 MLOAD DUP2 LT PUSH2 0x2625 JUMPI PUSH2 0x2624 PUSH2 0x423F JUMP JUMPDEST JUMPDEST PUSH1 0x20 MUL PUSH1 0x20 ADD ADD MLOAD DUP3 DUP3 DUP7 PUSH2 0x263A SWAP2 SWAP1 PUSH2 0x420C JUMP JUMPDEST DUP2 MLOAD DUP2 LT PUSH2 0x264B JUMPI PUSH2 0x264A PUSH2 0x423F JUMP JUMPDEST JUMPDEST PUSH1 0x20 MUL PUSH1 0x20 ADD ADD DUP2 SWAP1 MSTORE POP DUP1 PUSH2 0x2660 SWAP1 PUSH2 0x426C JUMP JUMPDEST SWAP1 POP PUSH2 0x25FE JUMP JUMPDEST POP DUP1 SWAP6 POP POP POP POP POP POP SWAP4 SWAP3 POP POP POP JUMP JUMPDEST PUSH0 PUSH2 0x2682 DUP7 DUP7 PUSH2 0x3414 JUMP JUMPDEST SWAP1 POP PUSH0 DUP2 PUSH1 0x80 ADD MLOAD SWAP1 POP PUSH0 DUP1 PUSH1 0x7 DUP2 GT ISZERO PUSH2 0x26A0 JUMPI PUSH2 0x269F PUSH2 0x3996 JUMP JUMPDEST JUMPDEST DUP7 PUSH1 0x7 DUP2 GT ISZERO PUSH2 0x26B3 JUMPI PUSH2 0x26B2 PUSH2 0x3996 JUMP JUMPDEST JUMPDEST SUB PUSH2 0x26EB JUMPI PUSH1 0x3 PUSH0 SWAP1 SLOAD SWAP1 PUSH2 0x100 EXP SWAP1 DIV PUSH2 0xFFFF AND PUSH2 0xFFFF AND PUSH2 0x1388 DUP7 PUSH2 0x26DA SWAP2 SWAP1 PUSH2 0x41DC JUMP JUMPDEST PUSH2 0x26E4 SWAP2 SWAP1 PUSH2 0x4293 JUMP JUMPDEST SWAP1 POP PUSH2 0x2906 JUMP JUMPDEST PUSH1 0x12 PUSH1 0xA PUSH2 0x26F9 SWAP2 SWAP1 PUSH2 0x44AA JUMP JUMPDEST SWAP1 POP PUSH1 0x1 PUSH1 0x7 DUP2 GT ISZERO PUSH2 0x270F JUMPI PUSH2 0x270E PUSH2 0x3996 JUMP JUMPDEST JUMPDEST DUP7 PUSH1 0x7 DUP2 GT ISZERO PUSH2 0x2722 JUMPI PUSH2 0x2721 PUSH2 0x3996 JUMP JUMPDEST JUMPDEST SUB PUSH2 0x274E JUMPI PUSH1 0x3 PUSH1 0x2 SWAP1 SLOAD SWAP1 PUSH2 0x100 EXP SWAP1 DIV PUSH2 0xFFFF AND PUSH2 0xFFFF AND DUP2 PUSH2 0x2747 SWAP2 SWAP1 PUSH2 0x4293 JUMP JUMPDEST SWAP1 POP PUSH2 0x2905 JUMP JUMPDEST PUSH0 SWAP5 POP DUP3 PUSH1 0x60 ADD MLOAD SWAP4 POP PUSH1 0x2 PUSH1 0x7 DUP2 GT ISZERO PUSH2 0x276C JUMPI PUSH2 0x276B PUSH2 0x3996 JUMP JUMPDEST JUMPDEST DUP7 PUSH1 0x7 DUP2 GT ISZERO PUSH2 0x277F JUMPI PUSH2 0x277E PUSH2 0x3996 JUMP JUMPDEST JUMPDEST SUB PUSH2 0x27B9 JUMPI PUSH1 0x3 PUSH1 0x4 SWAP1 SLOAD SWAP1 PUSH2 0x100 EXP SWAP1 DIV PUSH2 0xFFFF AND PUSH2 0xFFFF AND DUP2 PUSH2 0x27A4 SWAP2 SWAP1 PUSH2 0x4293 JUMP JUMPDEST SWAP1 POP DUP2 DUP1 PUSH2 0x27B1 SWAP1 PUSH2 0x45EA JUMP JUMPDEST SWAP3 POP POP PUSH2 0x2904 JUMP JUMPDEST PUSH1 0x3 PUSH1 0x7 DUP2 GT ISZERO PUSH2 0x27CD JUMPI PUSH2 0x27CC PUSH2 0x3996 JUMP JUMPDEST JUMPDEST DUP7 PUSH1 0x7 DUP2 GT ISZERO PUSH2 0x27E0 JUMPI PUSH2 0x27DF PUSH2 0x3996 JUMP JUMPDEST JUMPDEST SUB PUSH2 0x280C JUMPI PUSH1 0x3 PUSH1 0x6 SWAP1 SLOAD SWAP1 PUSH2 0x100 EXP SWAP1 DIV PUSH2 0xFFFF AND PUSH2 0xFFFF AND DUP2 PUSH2 0x2805 SWAP2 SWAP1 PUSH2 0x4293 JUMP JUMPDEST SWAP1 POP PUSH2 0x2903 JUMP JUMPDEST PUSH1 0x4 PUSH1 0x7 DUP2 GT ISZERO PUSH2 0x2820 JUMPI PUSH2 0x281F PUSH2 0x3996 JUMP JUMPDEST JUMPDEST DUP7 PUSH1 0x7 DUP2 GT ISZERO PUSH2 0x2833 JUMPI PUSH2 0x2832 PUSH2 0x3996 JUMP JUMPDEST JUMPDEST SUB PUSH2 0x285F JUMPI PUSH1 0x3 PUSH1 0x8 SWAP1 SLOAD SWAP1 PUSH2 0x100 EXP SWAP1 DIV PUSH2 0xFFFF AND PUSH2 0xFFFF AND DUP2 PUSH2 0x2858 SWAP2 SWAP1 PUSH2 0x4293 JUMP JUMPDEST SWAP1 POP PUSH2 0x2902 JUMP JUMPDEST PUSH1 0x6 PUSH1 0x7 DUP2 GT ISZERO PUSH2 0x2873 JUMPI PUSH2 0x2872 PUSH2 0x3996 JUMP JUMPDEST JUMPDEST DUP7 PUSH1 0x7 DUP2 GT ISZERO PUSH2 0x2886 JUMPI PUSH2 0x2885 PUSH2 0x3996 JUMP JUMPDEST JUMPDEST SUB PUSH2 0x28B2 JUMPI PUSH1 0x3 PUSH1 0xC SWAP1 SLOAD SWAP1 PUSH2 0x100 EXP SWAP1 DIV PUSH2 0xFFFF AND PUSH2 0xFFFF AND DUP2 PUSH2 0x28AB SWAP2 SWAP1 PUSH2 0x4293 JUMP JUMPDEST SWAP1 POP PUSH2 0x2901 JUMP JUMPDEST PUSH1 0x7 DUP1 DUP2 GT ISZERO PUSH2 0x28C5 JUMPI PUSH2 0x28C4 PUSH2 0x3996 JUMP JUMPDEST JUMPDEST DUP7 PUSH1 0x7 DUP2 GT ISZERO PUSH2 0x28D8 JUMPI PUSH2 0x28D7 PUSH2 0x3996 JUMP JUMPDEST JUMPDEST SUB PUSH2 0x2900 JUMPI PUSH1 0x3 PUSH1 0xE SWAP1 SLOAD SWAP1 PUSH2 0x100 EXP SWAP1 DIV PUSH2 0xFFFF AND PUSH2 0xFFFF AND DUP2 PUSH2 0x28FD SWAP2 SWAP1 PUSH2 0x4293 JUMP JUMPDEST SWAP1 POP JUMPDEST JUMPDEST JUMPDEST JUMPDEST JUMPDEST JUMPDEST JUMPDEST PUSH0 PUSH2 0x2919 DUP9 DUP6 PUSH0 ADD MLOAD DUP7 PUSH1 0x60 ADD MLOAD PUSH2 0x3550 JUMP JUMPDEST SWAP1 POP PUSH0 DUP2 DUP4 DUP7 PUSH1 0xE0 ADD MLOAD PUSH2 0x292D SWAP2 SWAP1 PUSH2 0x42D4 JUMP JUMPDEST PUSH2 0x2937 SWAP2 SWAP1 PUSH2 0x42D4 JUMP JUMPDEST SWAP1 POP DUP2 DUP4 PUSH1 0xA SLOAD PUSH2 0x2948 SWAP2 SWAP1 PUSH2 0x42D4 JUMP JUMPDEST PUSH2 0x2952 SWAP2 SWAP1 PUSH2 0x42D4 JUMP JUMPDEST PUSH1 0xA DUP2 SWAP1 SSTORE POP PUSH0 PUSH1 0x40 MLOAD DUP1 PUSH2 0x100 ADD PUSH1 0x40 MSTORE DUP1 DUP12 DUP2 MSTORE PUSH1 0x20 ADD DUP11 PUSH1 0x7 DUP2 GT ISZERO PUSH2 0x297E JUMPI PUSH2 0x297D PUSH2 0x3996 JUMP JUMPDEST JUMPDEST DUP2 MSTORE PUSH1 0x20 ADD DUP10 DUP2 MSTORE PUSH1 0x20 ADD DUP9 DUP2 MSTORE PUSH1 0x20 ADD DUP7 DUP2 MSTORE PUSH1 0x20 ADD DUP6 DUP2 MSTORE PUSH1 0x20 ADD DUP5 DUP2 MSTORE PUSH1 0x20 ADD DUP4 DUP2 MSTORE POP SWAP1 POP PUSH1 0x4 PUSH0 DUP13 PUSH20 0xFFFFFFFFFFFFFFFFFFFFFFFFFFFFFFFFFFFFFFFF AND PUSH20 0xFFFFFFFFFFFFFFFFFFFFFFFFFFFFFFFFFFFFFFFF AND DUP2 MSTORE PUSH1 0x20 ADD SWAP1 DUP2 MSTORE PUSH1 0x20 ADD PUSH0 KECCAK256 DUP2 SWAP1 DUP1 PUSH1 0x1 DUP2 SLOAD ADD DUP1 DUP3 SSTORE DUP1 SWAP2 POP POP PUSH1 0x1 SWAP1 SUB SWAP1 PUSH0 MSTORE PUSH1 0x20 PUSH0 KECCAK256 SWAP1 PUSH1 0x8 MUL ADD PUSH0 SWAP1 SWAP2 SWAP1 SWAP2 SWAP1 SWAP2 POP PUSH0 DUP3 ADD MLOAD DUP2 PUSH0 ADD SSTORE PUSH1 0x20 DUP3 ADD MLOAD DUP2 PUSH1 0x1 ADD PUSH0 PUSH2 0x100 EXP DUP2 SLOAD DUP2 PUSH1 0xFF MUL NOT AND SWAP1 DUP4 PUSH1 0x7 DUP2 GT ISZERO PUSH2 0x2A3D JUMPI PUSH2 0x2A3C PUSH2 0x3996 JUMP JUMPDEST JUMPDEST MUL OR SWAP1 SSTORE POP PUSH1 0x40 DUP3 ADD MLOAD DUP2 PUSH1 0x2 ADD SSTORE PUSH1 0x60 DUP3 ADD MLOAD DUP2 PUSH1 0x3 ADD SSTORE PUSH1 0x80 DUP3 ADD MLOAD DUP2 PUSH1 0x4 ADD SSTORE PUSH1 0xA0 DUP3 ADD MLOAD DUP2 PUSH1 0x5 ADD SSTORE PUSH1 0xC0 DUP3 ADD MLOAD DUP2 PUSH1 0x6 ADD SSTORE PUSH1 0xE0 DUP3 ADD MLOAD DUP2 PUSH1 0x7 ADD SSTORE POP POP DUP1 PUSH1 0x5 PUSH0 DUP14 PUSH20 0xFFFFFFFFFFFFFFFFFFFFFFFFFFFFFFFFFFFFFFFF AND PUSH20 0xFFFFFFFFFFFFFFFFFFFFFFFFFFFFFFFFFFFFFFFF AND DUP2 MSTORE PUSH1 0x20 ADD SWAP1 DUP2 MSTORE PUSH1 0x20 ADD PUSH0 KECCAK256 PUSH0 DUP3 ADD MLOAD DUP2 PUSH0 ADD SSTORE PUSH1 0x20 DUP3 ADD MLOAD DUP2 PUSH1 0x1 ADD PUSH0 PUSH2 0x100 EXP DUP2 SLOAD DUP2 PUSH1 0xFF MUL NOT AND SWAP1 DUP4 PUSH1 0x7 DUP2 GT ISZERO PUSH2 0x2AF0 JUMPI PUSH2 0x2AEF PUSH2 0x3996 JUMP JUMPDEST JUMPDEST MUL OR SWAP1 SSTORE POP PUSH1 0x40 DUP3 ADD MLOAD DUP2 PUSH1 0x2 ADD SSTORE PUSH1 0x60 DUP3 ADD MLOAD DUP2 PUSH1 0x3 ADD SSTORE PUSH1 0x80 DUP3 ADD MLOAD DUP2 PUSH1 0x4 ADD SSTORE PUSH1 0xA0 DUP3 ADD MLOAD DUP2 PUSH1 0x5 ADD SSTORE PUSH1 0xC0 DUP3 ADD MLOAD DUP2 PUSH1 0x6 ADD SSTORE PUSH1 0xE0 DUP3 ADD MLOAD DUP2 PUSH1 0x7 ADD SSTORE SWAP1 POP POP PUSH2 0x2B3D DUP12 PUSH2 0x2B4A JUMP JUMPDEST POP POP POP POP POP POP POP POP POP POP POP JUMP JUMPDEST PUSH0 PUSH1 0x5 PUSH0 DUP4 PUSH20 0xFFFFFFFFFFFFFFFFFFFFFFFFFFFFFFFFFFFFFFFF AND PUSH20 0xFFFFFFFFFFFFFFFFFFFFFFFFFFFFFFFFFFFFFFFF AND DUP2 MSTORE PUSH1 0x20 ADD SWAP1 DUP2 MSTORE PUSH1 0x20 ADD PUSH0 KECCAK256 PUSH1 0x40 MLOAD DUP1 PUSH2 0x100 ADD PUSH1 0x40 MSTORE SWAP1 DUP2 PUSH0 DUP3 ADD SLOAD DUP2 MSTORE PUSH1 0x20 ADD PUSH1 0x1 DUP3 ADD PUSH0 SWAP1 SLOAD SWAP1 PUSH2 0x100 EXP SWAP1 DIV PUSH1 0xFF AND PUSH1 0x7 DUP2 GT ISZERO PUSH2 0x2BC1 JUMPI PUSH2 0x2BC0 PUSH2 0x3996 JUMP JUMPDEST JUMPDEST PUSH1 0x7 DUP2 GT ISZERO PUSH2 0x2BD3 JUMPI PUSH2 0x2BD2 PUSH2 0x3996 JUMP JUMPDEST JUMPDEST DUP2 MSTORE PUSH1 0x20 ADD PUSH1 0x2 DUP3 ADD SLOAD DUP2 MSTORE PUSH1 0x20 ADD PUSH1 0x3 DUP3 ADD SLOAD DUP2 MSTORE PUSH1 0x20 ADD PUSH1 0x4 DUP3 ADD SLOAD DUP2 MSTORE PUSH1 0x20 ADD PUSH1 0x5 DUP3 ADD SLOAD DUP2 MSTORE PUSH1 0x20 ADD PUSH1 0x6 DUP3 ADD SLOAD DUP2 MSTORE PUSH1 0x20 ADD PUSH1 0x7 DUP3 ADD SLOAD DUP2 MSTORE POP POP SWAP1 POP PUSH2 0x2C1D PUSH2 0x35F1 JUMP JUMPDEST PUSH0 PUSH1 0x7 PUSH0 DUP6 PUSH20 0xFFFFFFFFFFFFFFFFFFFFFFFFFFFFFFFFFFFFFFFF AND PUSH20 0xFFFFFFFFFFFFFFFFFFFFFFFFFFFFFFFFFFFFFFFF AND DUP2 MSTORE PUSH1 0x20 ADD SWAP1 DUP2 MSTORE PUSH1 0x20 ADD PUSH0 KECCAK256 SLOAD SWAP1 POP PUSH0 DUP2 SUB PUSH2 0x2E0B JUMPI PUSH1 0x1 PUSH1 0x6 DUP1 SLOAD SWAP1 POP PUSH2 0x2C77 SWAP2 SWAP1 PUSH2 0x42D4 JUMP JUMPDEST PUSH1 0x7 PUSH0 DUP7 PUSH20 0xFFFFFFFFFFFFFFFFFFFFFFFFFFFFFFFFFFFFFFFF AND PUSH20 0xFFFFFFFFFFFFFFFFFFFFFFFFFFFFFFFFFFFFFFFF AND DUP2 MSTORE PUSH1 0x20 ADD SWAP1 DUP2 MSTORE PUSH1 0x20 ADD PUSH0 KECCAK256 DUP2 SWAP1 SSTORE POP PUSH1 0x1 PUSH1 0x6 DUP1 SLOAD SWAP1 POP PUSH2 0x2CCA SWAP2 SWAP1 PUSH2 0x42D4 JUMP JUMPDEST SWAP1 POP PUSH1 0xC8 PUSH1 0x6 DUP1 SLOAD SWAP1 POP LT ISZERO PUSH2 0x2D95 JUMPI PUSH1 0x6 PUSH1 0x40 MLOAD DUP1 PUSH1 0x60 ADD PUSH1 0x40 MSTORE DUP1 DUP7 PUSH20 0xFFFFFFFFFFFFFFFFFFFFFFFFFFFFFFFFFFFFFFFF AND DUP2 MSTORE PUSH1 0x20 ADD DUP6 PUSH0 ADD MLOAD DUP2 MSTORE PUSH1 0x20 ADD DUP6 PUSH1 0xE0 ADD MLOAD DUP2 MSTORE POP SWAP1 DUP1 PUSH1 0x1 DUP2 SLOAD ADD DUP1 DUP3 SSTORE DUP1 SWAP2 POP POP PUSH1 0x1 SWAP1 SUB SWAP1 PUSH0 MSTORE PUSH1 0x20 PUSH0 KECCAK256 SWAP1 PUSH1 0x3 MUL ADD PUSH0 SWAP1 SWAP2 SWAP1 SWAP2 SWAP1 SWAP2 POP PUSH0 DUP3 ADD MLOAD DUP2 PUSH0 ADD PUSH0 PUSH2 0x100 EXP DUP2 SLOAD DUP2 PUSH20 0xFFFFFFFFFFFFFFFFFFFFFFFFFFFFFFFFFFFFFFFF MUL NOT AND SWAP1 DUP4 PUSH20 0xFFFFFFFFFFFFFFFFFFFFFFFFFFFFFFFFFFFFFFFF AND MUL OR SWAP1 SSTORE POP PUSH1 0x20 DUP3 ADD MLOAD DUP2 PUSH1 0x1 ADD SSTORE PUSH1 0x40 DUP3 ADD MLOAD DUP2 PUSH1 0x2 ADD SSTORE POP POP JUMPDEST PUSH1 0x8 DUP5 SWAP1 DUP1 PUSH1 0x1 DUP2 SLOAD ADD DUP1 DUP3 SSTORE DUP1 SWAP2 POP POP PUSH1 0x1 SWAP1 SUB SWAP1 PUSH0 MSTORE PUSH1 0x20 PUSH0 KECCAK256 ADD PUSH0 SWAP1 SWAP2 SWAP1 SWAP2 SWAP1 SWAP2 PUSH2 0x100 EXP DUP2 SLOAD DUP2 PUSH20 0xFFFFFFFFFFFFFFFFFFFFFFFFFFFFFFFFFFFFFFFF MUL NOT AND SWAP1 DUP4 PUSH20 0xFFFFFFFFFFFFFFFFFFFFFFFFFFFFFFFFFFFFFFFF AND MUL OR SWAP1 SSTORE POP PUSH1 0x1 PUSH1 0x9 SLOAD PUSH2 0x2E04 SWAP2 SWAP1 PUSH2 0x42D4 JUMP JUMPDEST PUSH1 0x9 DUP2 SWAP1 SSTORE POP JUMPDEST PUSH1 0xC8 DUP2 GT PUSH2 0x2ED7 JUMPI PUSH1 0x40 MLOAD DUP1 PUSH1 0x60 ADD PUSH1 0x40 MSTORE DUP1 DUP6 PUSH20 0xFFFFFFFFFFFFFFFFFFFFFFFFFFFFFFFFFFFFFFFF AND DUP2 MSTORE PUSH1 0x20 ADD DUP5 PUSH0 ADD MLOAD DUP2 MSTORE PUSH1 0x20 ADD DUP5 PUSH1 0xE0 ADD MLOAD DUP2 MSTORE POP PUSH1 0x6 PUSH1 0x1 DUP4 PUSH2 0x2E5A SWAP2 SWAP1 PUSH2 0x420C JUMP JUMPDEST DUP2 SLOAD DUP2 LT PUSH2 0x2E6B JUMPI PUSH2 0x2E6A PUSH2 0x423F JUMP JUMPDEST JUMPDEST SWAP1 PUSH0 MSTORE PUSH1 0x20 PUSH0 KECCAK256 SWAP1 PUSH1 0x3 MUL ADD PUSH0 DUP3 ADD MLOAD DUP2 PUSH0 ADD PUSH0 PUSH2 0x100 EXP DUP2 SLOAD DUP2 PUSH20 0xFFFFFFFFFFFFFFFFFFFFFFFFFFFFFFFFFFFFFFFF MUL NOT AND SWAP1 DUP4 PUSH20 0xFFFFFFFFFFFFFFFFFFFFFFFFFFFFFFFFFFFFFFFF AND MUL OR SWAP1 SSTORE POP PUSH1 0x20 DUP3 ADD MLOAD DUP2 PUSH1 0x1 ADD SSTORE PUSH1 0x40 DUP3 ADD MLOAD DUP2 PUSH1 0x2 ADD SSTORE SWAP1 POP POP PUSH2 0x307E JUMP JUMPDEST DUP3 PUSH1 0xE0 ADD MLOAD PUSH1 0x6 PUSH1 0x1 PUSH1 0x6 DUP1 SLOAD SWAP1 POP PUSH2 0x2EF0 SWAP2 SWAP1 PUSH2 0x420C JUMP JUMPDEST DUP2 SLOAD DUP2 LT PUSH2 0x2F01 JUMPI PUSH2 0x2F00 PUSH2 0x423F JUMP JUMPDEST JUMPDEST SWAP1 PUSH0 MSTORE PUSH1 0x20 PUSH0 KECCAK256 SWAP1 PUSH1 0x3 MUL ADD PUSH1 0x2 ADD SLOAD LT ISZERO PUSH2 0x3079 JUMPI PUSH1 0xC9 PUSH1 0x7 PUSH0 PUSH1 0x6 PUSH1 0x1 PUSH1 0x6 DUP1 SLOAD SWAP1 POP PUSH2 0x2F30 SWAP2 SWAP1 PUSH2 0x420C JUMP JUMPDEST DUP2 SLOAD DUP2 LT PUSH2 0x2F41 JUMPI PUSH2 0x2F40 PUSH2 0x423F JUMP JUMPDEST JUMPDEST SWAP1 PUSH0 MSTORE PUSH1 0x20 PUSH0 KECCAK256 SWAP1 PUSH1 0x3 MUL ADD PUSH0 ADD PUSH0 SWAP1 SLOAD SWAP1 PUSH2 0x100 EXP SWAP1 DIV PUSH20 0xFFFFFFFFFFFFFFFFFFFFFFFFFFFFFFFFFFFFFFFF AND PUSH20 0xFFFFFFFFFFFFFFFFFFFFFFFFFFFFFFFFFFFFFFFF AND PUSH20 0xFFFFFFFFFFFFFFFFFFFFFFFFFFFFFFFFFFFFFFFF AND DUP2 MSTORE PUSH1 0x20 ADD SWAP1 DUP2 MSTORE PUSH1 0x20 ADD PUSH0 KECCAK256 DUP2 SWAP1 SSTORE POP PUSH1 0x40 MLOAD DUP1 PUSH1 0x60 ADD PUSH1 0x40 MSTORE DUP1 DUP6 PUSH20 0xFFFFFFFFFFFFFFFFFFFFFFFFFFFFFFFFFFFFFFFF AND DUP2 MSTORE PUSH1 0x20 ADD DUP5 PUSH0 ADD MLOAD DUP2 MSTORE PUSH1 0x20 ADD DUP5 PUSH1 0xE0 ADD MLOAD DUP2 MSTORE POP PUSH1 0x6 PUSH1 0x1 PUSH1 0x6 DUP1 SLOAD SWAP1 POP PUSH2 0x2FF8 SWAP2 SWAP1 PUSH2 0x420C JUMP JUMPDEST DUP2 SLOAD DUP2 LT PUSH2 0x3009 JUMPI PUSH2 0x3008 PUSH2 0x423F JUMP JUMPDEST JUMPDEST SWAP1 PUSH0 MSTORE PUSH1 0x20 PUSH0 KECCAK256 SWAP1 PUSH1 0x3 MUL ADD PUSH0 DUP3 ADD MLOAD DUP2 PUSH0 ADD PUSH0 PUSH2 0x100 EXP DUP2 SLOAD DUP2 PUSH20 0xFFFFFFFFFFFFFFFFFFFFFFFFFFFFFFFFFFFFFFFF MUL NOT AND SWAP1 DUP4 PUSH20 0xFFFFFFFFFFFFFFFFFFFFFFFFFFFFFFFFFFFFFFFF AND MUL OR SWAP1 SSTORE POP PUSH1 0x20 DUP3 ADD MLOAD DUP2 PUSH1 0x1 ADD SSTORE PUSH1 0x40 DUP3 ADD MLOAD DUP2 PUSH1 0x2 ADD SSTORE SWAP1 POP POP PUSH1 0xC8 SWAP1 POP PUSH2 0x307D JUMP JUMPDEST PUSH0 SWAP1 POP JUMPDEST JUMPDEST PUSH0 PUSH1 0x1 DUP3 PUSH2 0x308C SWAP2 SWAP1 PUSH2 0x420C JUMP JUMPDEST SWAP1 POP JUMPDEST PUSH0 DUP2 GT ISZERO PUSH2 0x340D JUMPI PUSH1 0x6 DUP2 DUP2 SLOAD DUP2 LT PUSH2 0x30AB JUMPI PUSH2 0x30AA PUSH2 0x423F JUMP JUMPDEST JUMPDEST SWAP1 PUSH0 MSTORE PUSH1 0x20 PUSH0 KECCAK256 SWAP1 PUSH1 0x3 MUL ADD PUSH1 0x2 ADD SLOAD PUSH1 0x6 PUSH1 0x1 DUP4 PUSH2 0x30CA SWAP2 SWAP1 PUSH2 0x420C JUMP JUMPDEST DUP2 SLOAD DUP2 LT PUSH2 0x30DB JUMPI PUSH2 0x30DA PUSH2 0x423F JUMP JUMPDEST JUMPDEST SWAP1 PUSH0 MSTORE PUSH1 0x20 PUSH0 KECCAK256 SWAP1 PUSH1 0x3 MUL ADD PUSH1 0x2 ADD SLOAD LT ISZERO PUSH2 0x33F7 JUMPI PUSH1 0x6 DUP2 DUP2 SLOAD DUP2 LT PUSH2 0x3105 JUMPI PUSH2 0x3104 PUSH2 0x423F JUMP JUMPDEST JUMPDEST SWAP1 PUSH0 MSTORE PUSH1 0x20 PUSH0 KECCAK256 SWAP1 PUSH1 0x3 MUL ADD PUSH1 0x40 MLOAD DUP1 PUSH1 0x60 ADD PUSH1 0x40 MSTORE SWAP1 DUP2 PUSH0 DUP3 ADD PUSH0 SWAP1 SLOAD SWAP1 PUSH2 0x100 EXP SWAP1 DIV PUSH20 0xFFFFFFFFFFFFFFFFFFFFFFFFFFFFFFFFFFFFFFFF AND PUSH20 0xFFFFFFFFFFFFFFFFFFFFFFFFFFFFFFFFFFFFFFFF AND PUSH20 0xFFFFFFFFFFFFFFFFFFFFFFFFFFFFFFFFFFFFFFFF AND DUP2 MSTORE PUSH1 0x20 ADD PUSH1 0x1 DUP3 ADD SLOAD DUP2 MSTORE PUSH1 0x20 ADD PUSH1 0x2 DUP3 ADD SLOAD DUP2 MSTORE POP POP SWAP3 POP PUSH1 0x6 PUSH1 0x1 DUP3 PUSH2 0x3195 SWAP2 SWAP1 PUSH2 0x420C JUMP JUMPDEST DUP2 SLOAD DUP2 LT PUSH2 0x31A6 JUMPI PUSH2 0x31A5 PUSH2 0x423F JUMP JUMPDEST JUMPDEST SWAP1 PUSH0 MSTORE PUSH1 0x20 PUSH0 KECCAK256 SWAP1 PUSH1 0x3 MUL ADD PUSH1 0x6 DUP3 DUP2 SLOAD DUP2 LT PUSH2 0x31C6 JUMPI PUSH2 0x31C5 PUSH2 0x423F JUMP JUMPDEST JUMPDEST SWAP1 PUSH0 MSTORE PUSH1 0x20 PUSH0 KECCAK256 SWAP1 PUSH1 0x3 MUL ADD PUSH0 DUP3 ADD PUSH0 SWAP1 SLOAD SWAP1 PUSH2 0x100 EXP SWAP1 DIV PUSH20 0xFFFFFFFFFFFFFFFFFFFFFFFFFFFFFFFFFFFFFFFF AND DUP2 PUSH0 ADD PUSH0 PUSH2 0x100 EXP DUP2 SLOAD DUP2 PUSH20 0xFFFFFFFFFFFFFFFFFFFFFFFFFFFFFFFFFFFFFFFF MUL NOT AND SWAP1 DUP4 PUSH20 0xFFFFFFFFFFFFFFFFFFFFFFFFFFFFFFFFFFFFFFFF AND MUL OR SWAP1 SSTORE POP PUSH1 0x1 DUP3 ADD SLOAD DUP2 PUSH1 0x1 ADD SSTORE PUSH1 0x2 DUP3 ADD SLOAD DUP2 PUSH1 0x2 ADD SSTORE SWAP1 POP POP DUP3 PUSH1 0x6 PUSH1 0x1 DUP4 PUSH2 0x325C SWAP2 SWAP1 PUSH2 0x420C JUMP JUMPDEST DUP2 SLOAD DUP2 LT PUSH2 0x326D JUMPI PUSH2 0x326C PUSH2 0x423F JUMP JUMPDEST JUMPDEST SWAP1 PUSH0 MSTORE PUSH1 0x20 PUSH0 KECCAK256 SWAP1 PUSH1 0x3 MUL ADD PUSH0 DUP3 ADD MLOAD DUP2 PUSH0 ADD PUSH0 PUSH2 0x100 EXP DUP2 SLOAD DUP2 PUSH20 0xFFFFFFFFFFFFFFFFFFFFFFFFFFFFFFFFFFFFFFFF MUL NOT AND SWAP1 DUP4 PUSH20 0xFFFFFFFFFFFFFFFFFFFFFFFFFFFFFFFFFFFFFFFF AND MUL OR SWAP1 SSTORE POP PUSH1 0x20 DUP3 ADD MLOAD DUP2 PUSH1 0x1 ADD SSTORE PUSH1 0x40 DUP3 ADD MLOAD DUP2 PUSH1 0x2 ADD SSTORE SWAP1 POP POP DUP1 PUSH1 0x7 PUSH0 PUSH1 0x6 PUSH1 0x1 DUP6 PUSH2 0x32E7 SWAP2 SWAP1 PUSH2 0x420C JUMP JUMPDEST DUP2 SLOAD DUP2 LT PUSH2 0x32F8 JUMPI PUSH2 0x32F7 PUSH2 0x423F JUMP JUMPDEST JUMPDEST SWAP1 PUSH0 MSTORE PUSH1 0x20 PUSH0 KECCAK256 SWAP1 PUSH1 0x3 MUL ADD PUSH0 ADD PUSH0 SWAP1 SLOAD SWAP1 PUSH2 0x100 EXP SWAP1 DIV PUSH20 0xFFFFFFFFFFFFFFFFFFFFFFFFFFFFFFFFFFFFFFFF AND PUSH20 0xFFFFFFFFFFFFFFFFFFFFFFFFFFFFFFFFFFFFFFFF AND PUSH20 0xFFFFFFFFFFFFFFFFFFFFFFFFFFFFFFFFFFFFFFFF AND DUP2 MSTORE PUSH1 0x20 ADD SWAP1 DUP2 MSTORE PUSH1 0x20 ADD PUSH0 KECCAK256 DUP2 SWAP1 SSTORE POP PUSH1 0x1 DUP2 PUSH2 0x3370 SWAP2 SWAP1 PUSH2 0x42D4 JUMP JUMPDEST PUSH1 0x7 PUSH0 PUSH1 0x6 DUP5 DUP2 SLOAD DUP2 LT PUSH2 0x3387 JUMPI PUSH2 0x3386 PUSH2 0x423F JUMP JUMPDEST JUMPDEST SWAP1 PUSH0 MSTORE PUSH1 0x20 PUSH0 KECCAK256 SWAP1 PUSH1 0x3 MUL ADD PUSH0 ADD PUSH0 SWAP1 SLOAD SWAP1 PUSH2 0x100 EXP SWAP1 DIV PUSH20 0xFFFFFFFFFFFFFFFFFFFFFFFFFFFFFFFFFFFFFFFF AND PUSH20 0xFFFFFFFFFFFFFFFFFFFFFFFFFFFFFFFFFFFFFFFF AND PUSH20 0xFFFFFFFFFFFFFFFFFFFFFFFFFFFFFFFFFFFFFFFF AND DUP2 MSTORE PUSH1 0x20 ADD SWAP1 DUP2 MSTORE PUSH1 0x20 ADD PUSH0 KECCAK256 DUP2 SWAP1 SSTORE POP PUSH2 0x33FC JUMP JUMPDEST PUSH2 0x340D JUMP JUMPDEST DUP1 PUSH2 0x3406 SWAP1 PUSH2 0x426C JUMP JUMPDEST SWAP1 POP PUSH2 0x308F JUMP JUMPDEST POP POP POP POP POP JUMP JUMPDEST PUSH2 0x341C PUSH2 0x357F JUMP JUMPDEST PUSH0 PUSH1 0x5 PUSH0 DUP6 PUSH20 0xFFFFFFFFFFFFFFFFFFFFFFFFFFFFFFFFFFFFFFFF AND PUSH20 0xFFFFFFFFFFFFFFFFFFFFFFFFFFFFFFFFFFFFFFFF AND DUP2 MSTORE PUSH1 0x20 ADD SWAP1 DUP2 MSTORE PUSH1 0x20 ADD PUSH0 KECCAK256 PUSH1 0x40 MLOAD DUP1 PUSH2 0x100 ADD PUSH1 0x40 MSTORE SWAP1 DUP2 PUSH0 DUP3 ADD SLOAD DUP2 MSTORE PUSH1 0x20 ADD PUSH1 0x1 DUP3 ADD PUSH0 SWAP1 SLOAD SWAP1 PUSH2 0x100 EXP SWAP1 DIV PUSH1 0xFF AND PUSH1 0x7 DUP2 GT ISZERO PUSH2 0x3493 JUMPI PUSH2 0x3492 PUSH2 0x3996 JUMP JUMPDEST JUMPDEST PUSH1 0x7 DUP2 GT ISZERO PUSH2 0x34A5 JUMPI PUSH2 0x34A4 PUSH2 0x3996 JUMP JUMPDEST JUMPDEST DUP2 MSTORE PUSH1 0x20 ADD PUSH1 0x2 DUP3 ADD SLOAD DUP2 MSTORE PUSH1 0x20 ADD PUSH1 0x3 DUP3 ADD SLOAD DUP2 MSTORE PUSH1 0x20 ADD PUSH1 0x4 DUP3 ADD SLOAD DUP2 MSTORE PUSH1 0x20 ADD PUSH1 0x5 DUP3 ADD SLOAD DUP2 MSTORE PUSH1 0x20 ADD PUSH1 0x6 DUP3 ADD SLOAD DUP2 MSTORE PUSH1 0x20 ADD PUSH1 0x7 DUP3 ADD SLOAD DUP2 MSTORE POP POP SWAP1 POP PUSH0 DUP2 PUSH0 ADD MLOAD EQ PUSH2 0x34FA JUMPI DUP1 SWAP2 POP POP PUSH2 0x354A JUMP JUMPDEST PUSH1 0x40 MLOAD DUP1 PUSH2 0x100 ADD PUSH1 0x40 MSTORE DUP1 DUP5 DUP2 MSTORE PUSH1 0x20 ADD PUSH0 PUSH1 0x7 DUP2 GT ISZERO PUSH2 0x351F JUMPI PUSH2 0x351E PUSH2 0x3996 JUMP JUMPDEST JUMPDEST DUP2 MSTORE PUSH1 0x20 ADD PUSH0 DUP2 MSTORE PUSH1 0x20 ADD PUSH0 DUP2 MSTORE PUSH1 0x20 ADD PUSH0 DUP2 MSTORE PUSH1 0x20 ADD PUSH0 DUP2 MSTORE PUSH1 0x20 ADD PUSH0 DUP2 MSTORE PUSH1 0x20 ADD PUSH0 DUP2 MSTORE POP SWAP2 POP POP JUMPDEST SWAP3 SWAP2 POP POP JUMP JUMPDEST PUSH0 PUSH3 0x1E8480 DUP3 DUP5 DUP7 PUSH2 0x3562 SWAP2 SWAP1 PUSH2 0x420C JUMP JUMPDEST PUSH2 0x356C SWAP2 SWAP1 PUSH2 0x4293 JUMP JUMPDEST PUSH2 0x3576 SWAP2 SWAP1 PUSH2 0x41DC JUMP JUMPDEST SWAP1 POP SWAP4 SWAP3 POP POP POP JUMP JUMPDEST PUSH1 0x40 MLOAD DUP1 PUSH2 0x100 ADD PUSH1 0x40 MSTORE DUP1 PUSH0 DUP2 MSTORE PUSH1 0x20 ADD PUSH0 PUSH1 0x7 DUP2 GT ISZERO PUSH2 0x35A4 JUMPI PUSH2 0x35A3 PUSH2 0x3996 JUMP JUMPDEST JUMPDEST DUP2 MSTORE PUSH1 0x20 ADD PUSH0 DUP2 MSTORE PUSH1 0x20 ADD PUSH0 DUP2 MSTORE PUSH1 0x20 ADD PUSH0 DUP2 MSTORE PUSH1 0x20 ADD PUSH0 DUP2 MSTORE PUSH1 0x20 ADD PUSH0 DUP2 MSTORE PUSH1 0x20 ADD PUSH0 DUP2 MSTORE POP SWAP1 JUMP JUMPDEST PUSH1 0x40 MLOAD DUP1 PUSH2 0x100 ADD PUSH1 0x40 MSTORE DUP1 PUSH1 0x8 SWAP1 PUSH1 0x20 DUP3 MUL DUP1 CALLDATASIZE DUP4 CALLDATACOPY DUP1 DUP3 ADD SWAP2 POP POP SWAP1 POP POP SWAP1 JUMP JUMPDEST PUSH1 0x40 MLOAD DUP1 PUSH1 0x60 ADD PUSH1 0x40 MSTORE DUP1 PUSH0 PUSH20 0xFFFFFFFFFFFFFFFFFFFFFFFFFFFFFFFFFFFFFFFF AND DUP2 MSTORE PUSH1 0x20 ADD PUSH0 DUP2 MSTORE PUSH1 0x20 ADD PUSH0 DUP2 MSTORE POP SWAP1 JUMP JUMPDEST PUSH0 PUSH1 0x40 MLOAD SWAP1 POP SWAP1 JUMP JUMPDEST PUSH0 DUP1 REVERT JUMPDEST PUSH0 DUP1 REVERT JUMPDEST PUSH0 DUP2 ISZERO ISZERO SWAP1 POP SWAP2 SWAP1 POP JUMP JUMPDEST PUSH2 0x364A DUP2 PUSH2 0x3636 JUMP JUMPDEST DUP2 EQ PUSH2 0x3654 JUMPI PUSH0 DUP1 REVERT JUMPDEST POP JUMP JUMPDEST PUSH0 DUP2 CALLDATALOAD SWAP1 POP PUSH2 0x3665 DUP2 PUSH2 0x3641 JUMP JUMPDEST SWAP3 SWAP2 POP POP JUMP JUMPDEST PUSH0 PUSH1 0x20 DUP3 DUP5 SUB SLT ISZERO PUSH2 0x3680 JUMPI PUSH2 0x367F PUSH2 0x362E JUMP JUMPDEST JUMPDEST PUSH0 PUSH2 0x368D DUP5 DUP3 DUP6 ADD PUSH2 0x3657 JUMP JUMPDEST SWAP2 POP POP SWAP3 SWAP2 POP POP JUMP JUMPDEST PUSH0 PUSH20 0xFFFFFFFFFFFFFFFFFFFFFFFFFFFFFFFFFFFFFFFF DUP3 AND SWAP1 POP SWAP2 SWAP1 POP JUMP JUMPDEST PUSH0 PUSH2 0x36BF DUP3 PUSH2 0x3696 JUMP JUMPDEST SWAP1 POP SWAP2 SWAP1 POP JUMP JUMPDEST PUSH2 0x36CF DUP2 PUSH2 0x36B5 JUMP JUMPDEST DUP2 EQ PUSH2 0x36D9 JUMPI PUSH0 DUP1 REVERT JUMPDEST POP JUMP JUMPDEST PUSH0 DUP2 CALLDATALOAD SWAP1 POP PUSH2 0x36EA DUP2 PUSH2 0x36C6 JUMP JUMPDEST SWAP3 SWAP2 POP POP JUMP JUMPDEST PUSH0 DUP2 SWAP1 POP SWAP2 SWAP1 POP JUMP JUMPDEST PUSH2 0x3702 DUP2 PUSH2 0x36F0 JUMP JUMPDEST DUP2 EQ PUSH2 0x370C JUMPI PUSH0 DUP1 REVERT JUMPDEST POP JUMP JUMPDEST PUSH0 DUP2 CALLDATALOAD SWAP1 POP PUSH2 0x371D DUP2 PUSH2 0x36F9 JUMP JUMPDEST SWAP3 SWAP2 POP POP JUMP JUMPDEST PUSH0 DUP1 PUSH1 0x40 DUP4 DUP6 SUB SLT ISZERO PUSH2 0x3739 JUMPI PUSH2 0x3738 PUSH2 0x362E JUMP JUMPDEST JUMPDEST PUSH0 PUSH2 0x3746 DUP6 DUP3 DUP7 ADD PUSH2 0x36DC JUMP JUMPDEST SWAP3 POP POP PUSH1 0x20 PUSH2 0x3757 DUP6 DUP3 DUP7 ADD PUSH2 0x370F JUMP JUMPDEST SWAP2 POP POP SWAP3 POP SWAP3 SWAP1 POP JUMP JUMPDEST PUSH2 0x376A DUP2 PUSH2 0x36F0 JUMP JUMPDEST DUP3 MSTORE POP POP JUMP JUMPDEST PUSH0 PUSH1 0x20 DUP3 ADD SWAP1 POP PUSH2 0x3783 PUSH0 DUP4 ADD DUP5 PUSH2 0x3761 JUMP JUMPDEST SWAP3 SWAP2 POP POP JUMP JUMPDEST PUSH1 0x8 DUP2 LT PUSH2 0x3795 JUMPI PUSH0 DUP1 REVERT JUMPDEST POP JUMP JUMPDEST PUSH0 DUP2 CALLDATALOAD SWAP1 POP PUSH2 0x37A6 DUP2 PUSH2 0x3789 JUMP JUMPDEST SWAP3 SWAP2 POP POP JUMP JUMPDEST PUSH0 PUSH2 0xFFFF DUP3 AND SWAP1 POP SWAP2 SWAP1 POP JUMP JUMPDEST PUSH2 0x37C2 DUP2 PUSH2 0x37AC JUMP JUMPDEST DUP2 EQ PUSH2 0x37CC JUMPI PUSH0 DUP1 REVERT JUMPDEST POP JUMP JUMPDEST PUSH0 DUP2 CALLDATALOAD SWAP1 POP PUSH2 0x37DD DUP2 PUSH2 0x37B9 JUMP JUMPDEST SWAP3 SWAP2 POP POP JUMP JUMPDEST PUSH0 DUP1 PUSH1 0x40 DUP4 DUP6 SUB SLT ISZERO PUSH2 0x37F9 JUMPI PUSH2 0x37F8 PUSH2 0x362E JUMP JUMPDEST JUMPDEST PUSH0 PUSH2 0x3806 DUP6 DUP3 DUP7 ADD PUSH2 0x3798 JUMP JUMPDEST SWAP3 POP POP PUSH1 0x20 PUSH2 0x3817 DUP6 DUP3 DUP7 ADD PUSH2 0x37CF JUMP JUMPDEST SWAP2 POP POP SWAP3 POP SWAP3 SWAP1 POP JUMP JUMPDEST PUSH0 DUP2 MLOAD SWAP1 POP SWAP2 SWAP1 POP JUMP JUMPDEST PUSH0 DUP3 DUP3 MSTORE PUSH1 0x20 DUP3 ADD SWAP1 POP SWAP3 SWAP2 POP POP JUMP JUMPDEST PUSH0 DUP2 SWAP1 POP PUSH1 0x20 DUP3 ADD SWAP1 POP SWAP2 SWAP1 POP JUMP JUMPDEST PUSH2 0x3853 DUP2 PUSH2 0x36B5 JUMP JUMPDEST DUP3 MSTORE POP POP JUMP JUMPDEST PUSH0 PUSH2 0x3864 DUP4 DUP4 PUSH2 0x384A JUMP JUMPDEST PUSH1 0x20 DUP4 ADD SWAP1 POP SWAP3 SWAP2 POP POP JUMP JUMPDEST PUSH0 PUSH1 0x20 DUP3 ADD SWAP1 POP SWAP2 SWAP1 POP JUMP JUMPDEST PUSH0 PUSH2 0x3886 DUP3 PUSH2 0x3821 JUMP JUMPDEST PUSH2 0x3890 DUP2 DUP6 PUSH2 0x382B JUMP JUMPDEST SWAP4 POP PUSH2 0x389B DUP4 PUSH2 0x383B JUMP JUMPDEST DUP1 PUSH0 JUMPDEST DUP4 DUP2 LT ISZERO PUSH2 0x38CB JUMPI DUP2 MLOAD PUSH2 0x38B2 DUP9 DUP3 PUSH2 0x3859 JUMP JUMPDEST SWAP8 POP PUSH2 0x38BD DUP4 PUSH2 0x3870 JUMP JUMPDEST SWAP3 POP POP PUSH1 0x1 DUP2 ADD SWAP1 POP PUSH2 0x389E JUMP JUMPDEST POP DUP6 SWAP4 POP POP POP POP SWAP3 SWAP2 POP POP JUMP JUMPDEST PUSH0 PUSH1 0x20 DUP3 ADD SWAP1 POP DUP2 DUP2 SUB PUSH0 DUP4 ADD MSTORE PUSH2 0x38F0 DUP2 DUP5 PUSH2 0x387C JUMP JUMPDEST SWAP1 POP SWAP3 SWAP2 POP POP JUMP JUMPDEST PUSH0 DUP1 PUSH0 DUP1 PUSH1 0x80 DUP6 DUP8 SUB SLT ISZERO PUSH2 0x3910 JUMPI PUSH2 0x390F PUSH2 0x362E JUMP JUMPDEST JUMPDEST PUSH0 PUSH2 0x391D DUP8 DUP3 DUP9 ADD PUSH2 0x36DC JUMP JUMPDEST SWAP5 POP POP PUSH1 0x20 PUSH2 0x392E DUP8 DUP3 DUP9 ADD PUSH2 0x370F JUMP JUMPDEST SWAP4 POP POP PUSH1 0x40 PUSH2 0x393F DUP8 DUP3 DUP9 ADD PUSH2 0x370F JUMP JUMPDEST SWAP3 POP POP PUSH1 0x60 PUSH2 0x3950 DUP8 DUP3 DUP9 ADD PUSH2 0x370F JUMP JUMPDEST SWAP2 POP POP SWAP3 SWAP6 SWAP2 SWAP5 POP SWAP3 POP JUMP JUMPDEST PUSH0 PUSH1 0x20 DUP3 DUP5 SUB SLT ISZERO PUSH2 0x3971 JUMPI PUSH2 0x3970 PUSH2 0x362E JUMP JUMPDEST JUMPDEST PUSH0 PUSH2 0x397E DUP5 DUP3 DUP6 ADD PUSH2 0x36DC JUMP JUMPDEST SWAP2 POP POP SWAP3 SWAP2 POP POP JUMP JUMPDEST PUSH2 0x3990 DUP2 PUSH2 0x36F0 JUMP JUMPDEST DUP3 MSTORE POP POP JUMP JUMPDEST PUSH32 0x4E487B7100000000000000000000000000000000000000000000000000000000 PUSH0 MSTORE PUSH1 0x21 PUSH1 0x4 MSTORE PUSH1 0x24 PUSH0 REVERT JUMPDEST PUSH1 0x8 DUP2 LT PUSH2 0x39D4 JUMPI PUSH2 0x39D3 PUSH2 0x3996 JUMP JUMPDEST JUMPDEST POP JUMP JUMPDEST PUSH0 DUP2 SWAP1 POP PUSH2 0x39E4 DUP3 PUSH2 0x39C3 JUMP JUMPDEST SWAP2 SWAP1 POP JUMP JUMPDEST PUSH0 PUSH2 0x39F3 DUP3 PUSH2 0x39D7 JUMP JUMPDEST SWAP1 POP SWAP2 SWAP1 POP JUMP JUMPDEST PUSH2 0x3A03 DUP2 PUSH2 0x39E9 JUMP JUMPDEST DUP3 MSTORE POP POP JUMP JUMPDEST PUSH2 0x100 DUP3 ADD PUSH0 DUP3 ADD MLOAD PUSH2 0x3A1E PUSH0 DUP6 ADD DUP3 PUSH2 0x3987 JUMP JUMPDEST POP PUSH1 0x20 DUP3 ADD MLOAD PUSH2 0x3A31 PUSH1 0x20 DUP6 ADD DUP3 PUSH2 0x39FA JUMP JUMPDEST POP PUSH1 0x40 DUP3 ADD MLOAD PUSH2 0x3A44 PUSH1 0x40 DUP6 ADD DUP3 PUSH2 0x3987 JUMP JUMPDEST POP PUSH1 0x60 DUP3 ADD MLOAD PUSH2 0x3A57 PUSH1 0x60 DUP6 ADD DUP3 PUSH2 0x3987 JUMP JUMPDEST POP PUSH1 0x80 DUP3 ADD MLOAD PUSH2 0x3A6A PUSH1 0x80 DUP6 ADD DUP3 PUSH2 0x3987 JUMP JUMPDEST POP PUSH1 0xA0 DUP3 ADD MLOAD PUSH2 0x3A7D PUSH1 0xA0 DUP6 ADD DUP3 PUSH2 0x3987 JUMP JUMPDEST POP PUSH1 0xC0 DUP3 ADD MLOAD PUSH2 0x3A90 PUSH1 0xC0 DUP6 ADD DUP3 PUSH2 0x3987 JUMP JUMPDEST POP PUSH1 0xE0 DUP3 ADD MLOAD PUSH2 0x3AA3 PUSH1 0xE0 DUP6 ADD DUP3 PUSH2 0x3987 JUMP JUMPDEST POP POP POP POP JUMP JUMPDEST PUSH0 PUSH2 0x100 DUP3 ADD SWAP1 POP PUSH2 0x3ABD PUSH0 DUP4 ADD DUP5 PUSH2 0x3A09 JUMP JUMPDEST SWAP3 SWAP2 POP POP JUMP JUMPDEST PUSH2 0x3ACC DUP2 PUSH2 0x3636 JUMP JUMPDEST DUP3 MSTORE POP POP JUMP JUMPDEST PUSH0 PUSH1 0x20 DUP3 ADD SWAP1 POP PUSH2 0x3AE5 PUSH0 DUP4 ADD DUP5 PUSH2 0x3AC3 JUMP JUMPDEST SWAP3 SWAP2 POP POP JUMP JUMPDEST PUSH0 DUP1 REVERT JUMPDEST PUSH0 PUSH1 0x1F NOT PUSH1 0x1F DUP4 ADD AND SWAP1 POP SWAP2 SWAP1 POP JUMP JUMPDEST PUSH32 0x4E487B7100000000000000000000000000000000000000000000000000000000 PUSH0 MSTORE PUSH1 0x41 PUSH1 0x4 MSTORE PUSH1 0x24 PUSH0 REVERT JUMPDEST PUSH2 0x3B35 DUP3 PUSH2 0x3AEF JUMP JUMPDEST DUP2 ADD DUP2 DUP2 LT PUSH8 0xFFFFFFFFFFFFFFFF DUP3 GT OR ISZERO PUSH2 0x3B54 JUMPI PUSH2 0x3B53 PUSH2 0x3AFF JUMP JUMPDEST JUMPDEST DUP1 PUSH1 0x40 MSTORE POP POP POP JUMP JUMPDEST PUSH0 PUSH2 0x3B66 PUSH2 0x3625 JUMP JUMPDEST SWAP1 POP PUSH2 0x3B72 DUP3 DUP3 PUSH2 0x3B2C JUMP JUMPDEST SWAP2 SWAP1 POP JUMP JUMPDEST PUSH0 PUSH8 0xFFFFFFFFFFFFFFFF DUP3 GT ISZERO PUSH2 0x3B91 JUMPI PUSH2 0x3B90 PUSH2 0x3AFF JUMP JUMPDEST JUMPDEST PUSH1 0x20 DUP3 MUL SWAP1 POP PUSH1 0x20 DUP2 ADD SWAP1 POP SWAP2 SWAP1 POP JUMP JUMPDEST PUSH0 DUP1 REVERT JUMPDEST PUSH0 PUSH2 0x3BB8 PUSH2 0x3BB3 DUP5 PUSH2 0x3B77 JUMP JUMPDEST PUSH2 0x3B5D JUMP JUMPDEST SWAP1 POP DUP1 DUP4 DUP3 MSTORE PUSH1 0x20 DUP3 ADD SWAP1 POP PUSH1 0x20 DUP5 MUL DUP4 ADD DUP6 DUP2 GT ISZERO PUSH2 0x3BDB JUMPI PUSH2 0x3BDA PUSH2 0x3BA2 JUMP JUMPDEST JUMPDEST DUP4 JUMPDEST DUP2 DUP2 LT ISZERO PUSH2 0x3C04 JUMPI DUP1 PUSH2 0x3BF0 DUP9 DUP3 PUSH2 0x370F JUMP JUMPDEST DUP5 MSTORE PUSH1 0x20 DUP5 ADD SWAP4 POP POP PUSH1 0x20 DUP2 ADD SWAP1 POP PUSH2 0x3BDD JUMP JUMPDEST POP POP POP SWAP4 SWAP3 POP POP POP JUMP JUMPDEST PUSH0 DUP3 PUSH1 0x1F DUP4 ADD SLT PUSH2 0x3C22 JUMPI PUSH2 0x3C21 PUSH2 0x3AEB JUMP JUMPDEST JUMPDEST DUP2 CALLDATALOAD PUSH2 0x3C32 DUP5 DUP3 PUSH1 0x20 DUP7 ADD PUSH2 0x3BA6 JUMP JUMPDEST SWAP2 POP POP SWAP3 SWAP2 POP POP JUMP JUMPDEST PUSH0 DUP1 PUSH1 0x40 DUP4 DUP6 SUB SLT ISZERO PUSH2 0x3C51 JUMPI PUSH2 0x3C50 PUSH2 0x362E JUMP JUMPDEST JUMPDEST PUSH0 PUSH2 0x3C5E DUP6 DUP3 DUP7 ADD PUSH2 0x36DC JUMP JUMPDEST SWAP3 POP POP PUSH1 0x20 DUP4 ADD CALLDATALOAD PUSH8 0xFFFFFFFFFFFFFFFF DUP2 GT ISZERO PUSH2 0x3C7F JUMPI PUSH2 0x3C7E PUSH2 0x3632 JUMP JUMPDEST JUMPDEST PUSH2 0x3C8B DUP6 DUP3 DUP7 ADD PUSH2 0x3C0E JUMP JUMPDEST SWAP2 POP POP SWAP3 POP SWAP3 SWAP1 POP JUMP JUMPDEST PUSH0 DUP2 MLOAD SWAP1 POP SWAP2 SWAP1 POP JUMP JUMPDEST PUSH0 DUP3 DUP3 MSTORE PUSH1 0x20 DUP3 ADD SWAP1 POP SWAP3 SWAP2 POP POP JUMP JUMPDEST PUSH0 DUP2 SWAP1 POP PUSH1 0x20 DUP3 ADD SWAP1 POP SWAP2 SWAP1 POP JUMP JUMPDEST PUSH2 0x100 DUP3 ADD PUSH0 DUP3 ADD MLOAD PUSH2 0x3CD3 PUSH0 DUP6 ADD DUP3 PUSH2 0x3987 JUMP JUMPDEST POP PUSH1 0x20 DUP3 ADD MLOAD PUSH2 0x3CE6 PUSH1 0x20 DUP6 ADD DUP3 PUSH2 0x39FA JUMP JUMPDEST POP PUSH1 0x40 DUP3 ADD MLOAD PUSH2 0x3CF9 PUSH1 0x40 DUP6 ADD DUP3 PUSH2 0x3987 JUMP JUMPDEST POP PUSH1 0x60 DUP3 ADD MLOAD PUSH2 0x3D0C PUSH1 0x60 DUP6 ADD DUP3 PUSH2 0x3987 JUMP JUMPDEST POP PUSH1 0x80 DUP3 ADD MLOAD PUSH2 0x3D1F PUSH1 0x80 DUP6 ADD DUP3 PUSH2 0x3987 JUMP JUMPDEST POP PUSH1 0xA0 DUP3 ADD MLOAD PUSH2 0x3D32 PUSH1 0xA0 DUP6 ADD DUP3 PUSH2 0x3987 JUMP JUMPDEST POP PUSH1 0xC0 DUP3 ADD MLOAD PUSH2 0x3D45 PUSH1 0xC0 DUP6 ADD DUP3 PUSH2 0x3987 JUMP JUMPDEST POP PUSH1 0xE0 DUP3 ADD MLOAD PUSH2 0x3D58 PUSH1 0xE0 DUP6 ADD DUP3 PUSH2 0x3987 JUMP JUMPDEST POP POP POP POP JUMP JUMPDEST PUSH0 PUSH2 0x3D69 DUP4 DUP4 PUSH2 0x3CBE JUMP JUMPDEST PUSH2 0x100 DUP4 ADD SWAP1 POP SWAP3 SWAP2 POP POP JUMP JUMPDEST PUSH0 PUSH1 0x20 DUP3 ADD SWAP1 POP SWAP2 SWAP1 POP JUMP JUMPDEST PUSH0 PUSH2 0x3D8C DUP3 PUSH2 0x3C95 JUMP JUMPDEST PUSH2 0x3D96 DUP2 DUP6 PUSH2 0x3C9F JUMP JUMPDEST SWAP4 POP PUSH2 0x3DA1 DUP4 PUSH2 0x3CAF JUMP JUMPDEST DUP1 PUSH0 JUMPDEST DUP4 DUP2 LT ISZERO PUSH2 0x3DD1 JUMPI DUP2 MLOAD PUSH2 0x3DB8 DUP9 DUP3 PUSH2 0x3D5E JUMP JUMPDEST SWAP8 POP PUSH2 0x3DC3 DUP4 PUSH2 0x3D76 JUMP JUMPDEST SWAP3 POP POP PUSH1 0x1 DUP2 ADD SWAP1 POP PUSH2 0x3DA4 JUMP JUMPDEST POP DUP6 SWAP4 POP POP POP POP SWAP3 SWAP2 POP POP JUMP JUMPDEST PUSH0 PUSH1 0x20 DUP3 ADD SWAP1 POP DUP2 DUP2 SUB PUSH0 DUP4 ADD MSTORE PUSH2 0x3DF6 DUP2 DUP5 PUSH2 0x3D82 JUMP JUMPDEST SWAP1 POP SWAP3 SWAP2 POP POP JUMP JUMPDEST PUSH0 PUSH1 0x8 SWAP1 POP SWAP2 SWAP1 POP JUMP JUMPDEST PUSH0 DUP2 SWAP1 POP SWAP3 SWAP2 POP POP JUMP JUMPDEST PUSH0 DUP2 SWAP1 POP SWAP2 SWAP1 POP JUMP JUMPDEST PUSH2 0x3E24 DUP2 PUSH2 0x37AC JUMP JUMPDEST DUP3 MSTORE POP POP JUMP JUMPDEST PUSH0 PUSH2 0x3E35 DUP4 DUP4 PUSH2 0x3E1B JUMP JUMPDEST PUSH1 0x20 DUP4 ADD SWAP1 POP SWAP3 SWAP2 POP POP JUMP JUMPDEST PUSH0 PUSH1 0x20 DUP3 ADD SWAP1 POP SWAP2 SWAP1 POP JUMP JUMPDEST PUSH2 0x3E56 DUP2 PUSH2 0x3DFE JUMP JUMPDEST PUSH2 0x3E60 DUP2 DUP5 PUSH2 0x3E08 JUMP JUMPDEST SWAP3 POP PUSH2 0x3E6B DUP3 PUSH2 0x3E12 JUMP JUMPDEST DUP1 PUSH0 JUMPDEST DUP4 DUP2 LT ISZERO PUSH2 0x3E9B JUMPI DUP2 MLOAD PUSH2 0x3E82 DUP8 DUP3 PUSH2 0x3E2A JUMP JUMPDEST SWAP7 POP PUSH2 0x3E8D DUP4 PUSH2 0x3E41 JUMP JUMPDEST SWAP3 POP POP PUSH1 0x1 DUP2 ADD SWAP1 POP PUSH2 0x3E6E JUMP JUMPDEST POP POP POP POP POP POP JUMP JUMPDEST PUSH0 PUSH2 0x100 DUP3 ADD SWAP1 POP PUSH2 0x3EB7 PUSH0 DUP4 ADD DUP5 PUSH2 0x3E4D JUMP JUMPDEST SWAP3 SWAP2 POP POP JUMP JUMPDEST PUSH0 DUP2 MLOAD SWAP1 POP SWAP2 SWAP1 POP JUMP JUMPDEST PUSH0 DUP3 DUP3 MSTORE PUSH1 0x20 DUP3 ADD SWAP1 POP SWAP3 SWAP2 POP POP JUMP JUMPDEST PUSH0 DUP2 SWAP1 POP PUSH1 0x20 DUP3 ADD SWAP1 POP SWAP2 SWAP1 POP JUMP JUMPDEST PUSH1 0x60 DUP3 ADD PUSH0 DUP3 ADD MLOAD PUSH2 0x3EFA PUSH0 DUP6 ADD DUP3 PUSH2 0x384A JUMP JUMPDEST POP PUSH1 0x20 DUP3 ADD MLOAD PUSH2 0x3F0D PUSH1 0x20 DUP6 ADD DUP3 PUSH2 0x3987 JUMP JUMPDEST POP PUSH1 0x40 DUP3 ADD MLOAD PUSH2 0x3F20 PUSH1 0x40 DUP6 ADD DUP3 PUSH2 0x3987 JUMP JUMPDEST POP POP POP POP JUMP JUMPDEST PUSH0 PUSH2 0x3F31 DUP4 DUP4 PUSH2 0x3EE6 JUMP JUMPDEST PUSH1 0x60 DUP4 ADD SWAP1 POP SWAP3 SWAP2 POP POP JUMP JUMPDEST PUSH0 PUSH1 0x20 DUP3 ADD SWAP1 POP SWAP2 SWAP1 POP JUMP JUMPDEST PUSH0 PUSH2 0x3F53 DUP3 PUSH2 0x3EBD JUMP JUMPDEST PUSH2 0x3F5D DUP2 DUP6 PUSH2 0x3EC7 JUMP JUMPDEST SWAP4 POP PUSH2 0x3F68 DUP4 PUSH2 0x3ED7 JUMP JUMPDEST DUP1 PUSH0 JUMPDEST DUP4 DUP2 LT ISZERO PUSH2 0x3F98 JUMPI DUP2 MLOAD PUSH2 0x3F7F DUP9 DUP3 PUSH2 0x3F26 JUMP JUMPDEST SWAP8 POP PUSH2 0x3F8A DUP4 PUSH2 0x3F3D JUMP JUMPDEST SWAP3 POP POP PUSH1 0x1 DUP2 ADD SWAP1 POP PUSH2 0x3F6B JUMP JUMPDEST POP DUP6 SWAP4 POP POP POP POP SWAP3 SWAP2 POP POP JUMP JUMPDEST PUSH0 PUSH1 0x20 DUP3 ADD SWAP1 POP DUP2 DUP2 SUB PUSH0 DUP4 ADD MSTORE PUSH2 0x3FBD DUP2 DUP5 PUSH2 0x3F49 JUMP JUMPDEST SWAP1 POP SWAP3 SWAP2 POP POP JUMP JUMPDEST PUSH0 DUP1 PUSH0 PUSH1 0x60 DUP5 DUP7 SUB SLT ISZERO PUSH2 0x3FDC JUMPI PUSH2 0x3FDB PUSH2 0x362E JUMP JUMPDEST JUMPDEST PUSH0 PUSH2 0x3FE9 DUP7 DUP3 DUP8 ADD PUSH2 0x36DC JUMP JUMPDEST SWAP4 POP POP PUSH1 0x20 PUSH2 0x3FFA DUP7 DUP3 DUP8 ADD PUSH2 0x370F JUMP JUMPDEST SWAP3 POP POP PUSH1 0x40 PUSH2 0x400B DUP7 DUP3 DUP8 ADD PUSH2 0x370F JUMP JUMPDEST SWAP2 POP POP SWAP3 POP SWAP3 POP SWAP3 JUMP JUMPDEST PUSH2 0x401E DUP2 PUSH2 0x36B5 JUMP JUMPDEST DUP3 MSTORE POP POP JUMP JUMPDEST PUSH0 PUSH1 0x20 DUP3 ADD SWAP1 POP PUSH2 0x4037 PUSH0 DUP4 ADD DUP5 PUSH2 0x4015 JUMP JUMPDEST SWAP3 SWAP2 POP POP JUMP JUMPDEST PUSH0 DUP2 MLOAD SWAP1 POP PUSH2 0x404B DUP2 PUSH2 0x3641 JUMP JUMPDEST SWAP3 SWAP2 POP POP JUMP JUMPDEST PUSH0 PUSH1 0x20 DUP3 DUP5 SUB SLT ISZERO PUSH2 0x4066 JUMPI PUSH2 0x4065 PUSH2 0x362E JUMP JUMPDEST JUMPDEST PUSH0 PUSH2 0x4073 DUP5 DUP3 DUP6 ADD PUSH2 0x403D JUMP JUMPDEST SWAP2 POP POP SWAP3 SWAP2 POP POP JUMP JUMPDEST PUSH0 DUP3 DUP3 MSTORE PUSH1 0x20 DUP3 ADD SWAP1 POP SWAP3 SWAP2 POP POP JUMP JUMPDEST PUSH32 0x4F6E6C79204F776E657220686176652061207065726D697373696F6E2E000000 PUSH0 DUP3 ADD MSTORE POP JUMP JUMPDEST PUSH0 PUSH2 0x40C0 PUSH1 0x1D DUP4 PUSH2 0x407C JUMP JUMPDEST SWAP2 POP PUSH2 0x40CB DUP3 PUSH2 0x408C JUMP JUMPDEST PUSH1 0x20 DUP3 ADD SWAP1 POP SWAP2 SWAP1 POP JUMP JUMPDEST PUSH0 PUSH1 0x20 DUP3 ADD SWAP1 POP DUP2 DUP2 SUB PUSH0 DUP4 ADD MSTORE PUSH2 0x40ED DUP2 PUSH2 0x40B4 JUMP JUMPDEST SWAP1 POP SWAP2 SWAP1 POP JUMP JUMPDEST PUSH32 0x4F6E6C792054727573746564436F6E747261637420686176652061207065726D PUSH0 DUP3 ADD MSTORE PUSH32 0x697373696F6E2E00000000000000000000000000000000000000000000000000 PUSH1 0x20 DUP3 ADD MSTORE POP JUMP JUMPDEST PUSH0 PUSH2 0x414E PUSH1 0x27 DUP4 PUSH2 0x407C JUMP JUMPDEST SWAP2 POP PUSH2 0x4159 DUP3 PUSH2 0x40F4 JUMP JUMPDEST PUSH1 0x40 DUP3 ADD SWAP1 POP SWAP2 SWAP1 POP JUMP JUMPDEST PUSH0 PUSH1 0x20 DUP3 ADD SWAP1 POP DUP2 DUP2 SUB PUSH0 DUP4 ADD MSTORE PUSH2 0x417B DUP2 PUSH2 0x4142 JUMP JUMPDEST SWAP1 POP SWAP2 SWAP1 POP JUMP JUMPDEST PUSH32 0x4E487B7100000000000000000000000000000000000000000000000000000000 PUSH0 MSTORE PUSH1 0x12 PUSH1 0x4 MSTORE PUSH1 0x24 PUSH0 REVERT JUMPDEST PUSH32 0x4E487B7100000000000000000000000000000000000000000000000000000000 PUSH0 MSTORE PUSH1 0x11 PUSH1 0x4 MSTORE PUSH1 0x24 PUSH0 REVERT JUMPDEST PUSH0 PUSH2 0x41E6 DUP3 PUSH2 0x36F0 JUMP JUMPDEST SWAP2 POP PUSH2 0x41F1 DUP4 PUSH2 0x36F0 JUMP JUMPDEST SWAP3 POP DUP3 PUSH2 0x4201 JUMPI PUSH2 0x4200 PUSH2 0x4182 JUMP JUMPDEST JUMPDEST DUP3 DUP3 DIV SWAP1 POP SWAP3 SWAP2 POP POP JUMP JUMPDEST PUSH0 PUSH2 0x4216 DUP3 PUSH2 0x36F0 JUMP JUMPDEST SWAP2 POP PUSH2 0x4221 DUP4 PUSH2 0x36F0 JUMP JUMPDEST SWAP3 POP DUP3 DUP3 SUB SWAP1 POP DUP2 DUP2 GT ISZERO PUSH2 0x4239 JUMPI PUSH2 0x4238 PUSH2 0x41AF JUMP JUMPDEST JUMPDEST SWAP3 SWAP2 POP POP JUMP JUMPDEST PUSH32 0x4E487B7100000000000000000000000000000000000000000000000000000000 PUSH0 MSTORE PUSH1 0x32 PUSH1 0x4 MSTORE PUSH1 0x24 PUSH0 REVERT JUMPDEST PUSH0 PUSH2 0x4276 DUP3 PUSH2 0x36F0 JUMP JUMPDEST SWAP2 POP PUSH0 DUP3 SUB PUSH2 0x4288 JUMPI PUSH2 0x4287 PUSH2 0x41AF JUMP JUMPDEST JUMPDEST PUSH1 0x1 DUP3 SUB SWAP1 POP SWAP2 SWAP1 POP JUMP JUMPDEST PUSH0 PUSH2 0x429D DUP3 PUSH2 0x36F0 JUMP JUMPDEST SWAP2 POP PUSH2 0x42A8 DUP4 PUSH2 0x36F0 JUMP JUMPDEST SWAP3 POP DUP3 DUP3 MUL PUSH2 0x42B6 DUP2 PUSH2 0x36F0 JUMP JUMPDEST SWAP2 POP DUP3 DUP3 DIV DUP5 EQ DUP4 ISZERO OR PUSH2 0x42CD JUMPI PUSH2 0x42CC PUSH2 0x41AF JUMP JUMPDEST JUMPDEST POP SWAP3 SWAP2 POP POP JUMP JUMPDEST PUSH0 PUSH2 0x42DE DUP3 PUSH2 0x36F0 JUMP JUMPDEST SWAP2 POP PUSH2 0x42E9 DUP4 PUSH2 0x36F0 JUMP JUMPDEST SWAP3 POP DUP3 DUP3 ADD SWAP1 POP DUP1 DUP3 GT ISZERO PUSH2 0x4301 JUMPI PUSH2 0x4300 PUSH2 0x41AF JUMP JUMPDEST JUMPDEST SWAP3 SWAP2 POP POP JUMP JUMPDEST PUSH32 0x416C726561647920436865636B65642D696E0000000000000000000000000000 PUSH0 DUP3 ADD MSTORE POP JUMP JUMPDEST PUSH0 PUSH2 0x433B PUSH1 0x12 DUP4 PUSH2 0x407C JUMP JUMPDEST SWAP2 POP PUSH2 0x4346 DUP3 PUSH2 0x4307 JUMP JUMPDEST PUSH1 0x20 DUP3 ADD SWAP1 POP SWAP2 SWAP1 POP JUMP JUMPDEST PUSH0 PUSH1 0x20 DUP3 ADD SWAP1 POP DUP2 DUP2 SUB PUSH0 DUP4 ADD MSTORE PUSH2 0x4368 DUP2 PUSH2 0x432F JUMP JUMPDEST SWAP1 POP SWAP2 SWAP1 POP JUMP JUMPDEST PUSH0 DUP2 PUSH1 0x1 SHR SWAP1 POP SWAP2 SWAP1 POP JUMP JUMPDEST PUSH0 DUP1 DUP3 SWAP2 POP DUP4 SWAP1 POP JUMPDEST PUSH1 0x1 DUP6 GT ISZERO PUSH2 0x43C4 JUMPI DUP1 DUP7 DIV DUP2 GT ISZERO PUSH2 0x43A0 JUMPI PUSH2 0x439F PUSH2 0x41AF JUMP JUMPDEST JUMPDEST PUSH1 0x1 DUP6 AND ISZERO PUSH2 0x43AF JUMPI DUP1 DUP3 MUL SWAP2 POP JUMPDEST DUP1 DUP2 MUL SWAP1 POP PUSH2 0x43BD DUP6 PUSH2 0x436F JUMP JUMPDEST SWAP5 POP PUSH2 0x4384 JUMP JUMPDEST SWAP5 POP SWAP5 SWAP3 POP POP POP JUMP JUMPDEST PUSH0 DUP3 PUSH2 0x43DC JUMPI PUSH1 0x1 SWAP1 POP PUSH2 0x4497 JUMP JUMPDEST DUP2 PUSH2 0x43E9 JUMPI PUSH0 SWAP1 POP PUSH2 0x4497 JUMP JUMPDEST DUP2 PUSH1 0x1 DUP2 EQ PUSH2 0x43FF JUMPI PUSH1 0x2 DUP2 EQ PUSH2 0x4409 JUMPI PUSH2 0x4438 JUMP JUMPDEST PUSH1 0x1 SWAP2 POP POP PUSH2 0x4497 JUMP JUMPDEST PUSH1 0xFF DUP5 GT ISZERO PUSH2 0x441B JUMPI PUSH2 0x441A PUSH2 0x41AF JUMP JUMPDEST JUMPDEST DUP4 PUSH1 0x2 EXP SWAP2 POP DUP5 DUP3 GT ISZERO PUSH2 0x4432 JUMPI PUSH2 0x4431 PUSH2 0x41AF JUMP JUMPDEST JUMPDEST POP PUSH2 0x4497 JUMP JUMPDEST POP PUSH1 0x20 DUP4 LT PUSH2 0x133 DUP4 LT AND PUSH1 0x4E DUP5 LT PUSH1 0xB DUP5 LT AND OR ISZERO PUSH2 0x446D JUMPI DUP3 DUP3 EXP SWAP1 POP DUP4 DUP2 GT ISZERO PUSH2 0x4468 JUMPI PUSH2 0x4467 PUSH2 0x41AF JUMP JUMPDEST JUMPDEST PUSH2 0x4497 JUMP JUMPDEST PUSH2 0x447A DUP5 DUP5 DUP5 PUSH1 0x1 PUSH2 0x437B JUMP JUMPDEST SWAP3 POP SWAP1 POP DUP2 DUP5 DIV DUP2 GT ISZERO PUSH2 0x4491 JUMPI PUSH2 0x4490 PUSH2 0x41AF JUMP JUMPDEST JUMPDEST DUP2 DUP2 MUL SWAP1 POP JUMPDEST SWAP4 SWAP3 POP POP POP JUMP JUMPDEST PUSH0 PUSH1 0xFF DUP3 AND SWAP1 POP SWAP2 SWAP1 POP JUMP JUMPDEST PUSH0 PUSH2 0x44B4 DUP3 PUSH2 0x36F0 JUMP JUMPDEST SWAP2 POP PUSH2 0x44BF DUP4 PUSH2 0x449E JUMP JUMPDEST SWAP3 POP PUSH2 0x44EC PUSH32 0xFFFFFFFFFFFFFFFFFFFFFFFFFFFFFFFFFFFFFFFFFFFFFFFFFFFFFFFFFFFFFFFF DUP5 DUP5 PUSH2 0x43CD JUMP JUMPDEST SWAP1 POP SWAP3 SWAP2 POP POP JUMP JUMPDEST PUSH32 0x4E4F5F4441544100000000000000000000000000000000000000000000000000 PUSH0 DUP3 ADD MSTORE POP JUMP JUMPDEST PUSH0 PUSH2 0x4528 PUSH1 0x7 DUP4 PUSH2 0x407C JUMP JUMPDEST SWAP2 POP PUSH2 0x4533 DUP3 PUSH2 0x44F4 JUMP JUMPDEST PUSH1 0x20 DUP3 ADD SWAP1 POP SWAP2 SWAP1 POP JUMP JUMPDEST PUSH0 PUSH1 0x20 DUP3 ADD SWAP1 POP DUP2 DUP2 SUB PUSH0 DUP4 ADD MSTORE PUSH2 0x4555 DUP2 PUSH2 0x451C JUMP JUMPDEST SWAP1 POP SWAP2 SWAP1 POP JUMP JUMPDEST PUSH32 0x494E56414C49445F50414745203A206E6F204461746120696E20746869732070 PUSH0 DUP3 ADD MSTORE PUSH32 0x6167650000000000000000000000000000000000000000000000000000000000 PUSH1 0x20 DUP3 ADD MSTORE POP JUMP JUMPDEST PUSH0 PUSH2 0x45B6 PUSH1 0x23 DUP4 PUSH2 0x407C JUMP JUMPDEST SWAP2 POP PUSH2 0x45C1 DUP3 PUSH2 0x455C JUMP JUMPDEST PUSH1 0x40 DUP3 ADD SWAP1 POP SWAP2 SWAP1 POP JUMP JUMPDEST PUSH0 PUSH1 0x20 DUP3 ADD SWAP1 POP DUP2 DUP2 SUB PUSH0 DUP4 ADD MSTORE PUSH2 0x45E3 DUP2 PUSH2 0x45AA JUMP JUMPDEST SWAP1 POP SWAP2 SWAP1 POP JUMP JUMPDEST PUSH0 PUSH2 0x45F4 DUP3 PUSH2 0x36F0 JUMP JUMPDEST SWAP2 POP PUSH32 0xFFFFFFFFFFFFFFFFFFFFFFFFFFFFFFFFFFFFFFFFFFFFFFFFFFFFFFFFFFFFFFFF DUP3 SUB PUSH2 0x4626 JUMPI PUSH2 0x4625 PUSH2 0x41AF JUMP JUMPDEST JUMPDEST PUSH1 0x1 DUP3 ADD SWAP1 POP SWAP2 SWAP1 POP JUMP INVALID LOG2 PUSH5 0x6970667358 0x22 SLT KECCAK256 PUSH26 0x3A17CD3BCD96D5B920C8251700C6D3309FBA421F2F7A0CD400D7 SWAP13 INVALID MLOAD JUMP SWAP2 PUSH5 0x736F6C6343 STOP ADDMOD NOT STOP CALLER "
    },
    "gasEstimates": {
      "creation": {
        "codeDepositCost": "3604600",
        "executionCost": "infinite",
        "totalCost": "infinite"
      },
      "external": {
        "_getAllUsers()": "infinite",
        "_getRewardRates()": "infinite",
        "_getWhiteListContract()": "infinite",
        "_initialHistory(address,uint256[])": "infinite",
        "_isContractCheck(bool)": "infinite",
        "_setRewardRate(uint8,uint16)": "infinite",
        "_setWhiteListContract(address)": "infinite",
        "checkDuplicateCheckIn(address)": "infinite",
        "doDailyCheckIn()": "infinite",
        "getHistory(address)": "infinite",
        "getHistory(address,uint256)": "infinite",
        "getHistory(address,uint256,uint256)": "infinite",
        "getHistoryLength(address)": "2881",
        "getLastHistory(address)": "infinite",
        "getMyRank()": "2587",
        "getMyRank(address)": "2940",
        "getRank()": "infinite",
        "getTotalPoints()": "2544",
        "getTotalUsers()": "2477",
        "setDepositActivity(address,uint256,uint256,uint256)": "infinite",
        "setGenCodeActivity(address,uint256)": "infinite",
        "setInviteeActivity(address,uint256)": "infinite",
        "setInviterActivity(address,uint256)": "infinite",
        "setThroneActivity(address,uint256)": "infinite",
        "setUsurpActivity(address,uint256)": "infinite",
        "setWithdrawActivity(address,uint256,uint256,uint256)": "infinite"
      },
      "internal": {
        "_AllActivity(address,uint256,enum UserHistory.ActType,uint256,uint256)": "infinite",
        "_calcRank(address)": "infinite",
        "_getLastAct(address,uint256)": "infinite",
        "_holdTorPoint(uint256,uint256,uint256)": "infinite"
      }
    },
    "methodIdentifiers": {
      "_getAllUsers()": "72870132",
      "_getRewardRates()": "ca7e0062",
      "_getWhiteListContract()": "36df3c26",
      "_initialHistory(address,uint256[])": "5b8dc8e7",
      "_isContractCheck(bool)": "127b9015",
      "_setRewardRate(uint8,uint16)": "2722673f",
      "_setWhiteListContract(address)": "525b881f",
      "checkDuplicateCheckIn(address)": "5ae0e952",
      "doDailyCheckIn()": "9e39b806",
      "getHistory(address)": "80396811",
      "getHistory(address,uint256)": "8bdf5803",
      "getHistory(address,uint256,uint256)": "ec29f4e9",
      "getHistoryLength(address)": "b14e52e8",
      "getLastHistory(address)": "4867080e",
      "getMyRank()": "1d9ff429",
      "getMyRank(address)": "9452185f",
      "getRank()": "d303e7b2",
      "getTotalPoints()": "326bfcc1",
      "getTotalUsers()": "9be572f6",
      "setDepositActivity(address,uint256,uint256,uint256)": "4233d880",
      "setGenCodeActivity(address,uint256)": "4bf29b97",
      "setInviteeActivity(address,uint256)": "9f8c6bcd",
      "setInviterActivity(address,uint256)": "96240b68",
      "setThroneActivity(address,uint256)": "72316ef3",
      "setUsurpActivity(address,uint256)": "19e9ee75",
      "setWithdrawActivity(address,uint256,uint256,uint256)": "793a298e"
    }
  },
  "abi": [
    {
      "inputs": [
        {
          "internalType": "address",
          "name": "ownerGroupContractAddress",
          "type": "address"
        },
        {
          "internalType": "address",
          "name": "blastPointAddress",
          "type": "address"
        },
        {
          "internalType": "address",
          "name": "operatorAddress",
          "type": "address"
        }
      ],
      "stateMutability": "nonpayable",
      "type": "constructor"
    },
    {
      "inputs": [],
      "name": "_getAllUsers",
      "outputs": [
        {
          "components": [
            {
              "internalType": "uint256",
              "name": "timestamp",
              "type": "uint256"
            },
            {
              "internalType": "enum UserHistory.ActType",
              "name": "act_type",
              "type": "uint8"
            },
            {
              "internalType": "uint256",
              "name": "tor_changes",
              "type": "uint256"
            },
            {
              "internalType": "uint256",
              "name": "tor_balance",
              "type": "uint256"
            },
            {
              "internalType": "uint256",
              "name": "count_invitee",
              "type": "uint256"
            },
            {
              "internalType": "uint256",
              "name": "activity_points",
              "type": "uint256"
            },
            {
              "internalType": "uint256",
              "name": "deposit_points",
              "type": "uint256"
            },
            {
              "internalType": "uint256",
              "name": "total_points",
              "type": "uint256"
            }
          ],
          "internalType": "struct UserHistory.ActVals[]",
          "name": "",
          "type": "tuple[]"
        }
      ],
      "stateMutability": "view",
      "type": "function"
    },
    {
      "inputs": [],
      "name": "_getRewardRates",
      "outputs": [
        {
          "internalType": "uint16[8]",
          "name": "",
          "type": "uint16[8]"
        }
      ],
      "stateMutability": "view",
      "type": "function"
    },
    {
      "inputs": [],
      "name": "_getWhiteListContract",
      "outputs": [
        {
          "internalType": "address[]",
          "name": "",
          "type": "address[]"
        }
      ],
      "stateMutability": "view",
      "type": "function"
    },
    {
      "inputs": [
        {
          "internalType": "address",
          "name": "account",
          "type": "address"
        },
        {
          "internalType": "uint256[]",
          "name": "account_history",
          "type": "uint256[]"
        }
      ],
      "name": "_initialHistory",
      "outputs": [],
      "stateMutability": "nonpayable",
      "type": "function"
    },
    {
      "inputs": [
        {
          "internalType": "bool",
          "name": "flag",
          "type": "bool"
        }
      ],
      "name": "_isContractCheck",
      "outputs": [],
      "stateMutability": "nonpayable",
      "type": "function"
    },
    {
      "inputs": [
        {
          "internalType": "enum UserHistory.ActType",
          "name": "act_type",
          "type": "uint8"
        },
        {
          "internalType": "uint16",
          "name": "rate_value",
          "type": "uint16"
        }
      ],
      "name": "_setRewardRate",
      "outputs": [],
      "stateMutability": "nonpayable",
      "type": "function"
    },
    {
      "inputs": [
        {
          "internalType": "address",
          "name": "ref_contract",
          "type": "address"
        }
      ],
      "name": "_setWhiteListContract",
      "outputs": [],
      "stateMutability": "nonpayable",
      "type": "function"
    },
    {
      "inputs": [
        {
          "internalType": "address",
          "name": "account",
          "type": "address"
        }
      ],
      "name": "checkDuplicateCheckIn",
      "outputs": [
        {
          "internalType": "bool",
          "name": "",
          "type": "bool"
        }
      ],
      "stateMutability": "view",
      "type": "function"
    },
    {
      "inputs": [],
      "name": "doDailyCheckIn",
      "outputs": [],
      "stateMutability": "nonpayable",
      "type": "function"
    },
    {
      "inputs": [
        {
          "internalType": "address",
          "name": "account",
          "type": "address"
        }
      ],
      "name": "getHistory",
      "outputs": [
        {
          "components": [
            {
              "internalType": "uint256",
              "name": "timestamp",
              "type": "uint256"
            },
            {
              "internalType": "enum UserHistory.ActType",
              "name": "act_type",
              "type": "uint8"
            },
            {
              "internalType": "uint256",
              "name": "tor_changes",
              "type": "uint256"
            },
            {
              "internalType": "uint256",
              "name": "tor_balance",
              "type": "uint256"
            },
            {
              "internalType": "uint256",
              "name": "count_invitee",
              "type": "uint256"
            },
            {
              "internalType": "uint256",
              "name": "activity_points",
              "type": "uint256"
            },
            {
              "internalType": "uint256",
              "name": "deposit_points",
              "type": "uint256"
            },
            {
              "internalType": "uint256",
              "name": "total_points",
              "type": "uint256"
            }
          ],
          "internalType": "struct UserHistory.ActVals[]",
          "name": "",
          "type": "tuple[]"
        }
      ],
      "stateMutability": "view",
      "type": "function"
    },
    {
      "inputs": [
        {
          "internalType": "address",
          "name": "account",
          "type": "address"
        },
        {
          "internalType": "uint256",
          "name": "page",
          "type": "uint256"
        }
      ],
      "name": "getHistory",
      "outputs": [
        {
          "components": [
            {
              "internalType": "uint256",
              "name": "timestamp",
              "type": "uint256"
            },
            {
              "internalType": "enum UserHistory.ActType",
              "name": "act_type",
              "type": "uint8"
            },
            {
              "internalType": "uint256",
              "name": "tor_changes",
              "type": "uint256"
            },
            {
              "internalType": "uint256",
              "name": "tor_balance",
              "type": "uint256"
            },
            {
              "internalType": "uint256",
              "name": "count_invitee",
              "type": "uint256"
            },
            {
              "internalType": "uint256",
              "name": "activity_points",
              "type": "uint256"
            },
            {
              "internalType": "uint256",
              "name": "deposit_points",
              "type": "uint256"
            },
            {
              "internalType": "uint256",
              "name": "total_points",
              "type": "uint256"
            }
          ],
          "internalType": "struct UserHistory.ActVals[]",
          "name": "",
          "type": "tuple[]"
        }
      ],
      "stateMutability": "view",
      "type": "function"
    },
    {
      "inputs": [
        {
          "internalType": "address",
          "name": "account",
          "type": "address"
        },
        {
          "internalType": "uint256",
          "name": "page",
          "type": "uint256"
        },
        {
          "internalType": "uint256",
          "name": "count_per_page",
          "type": "uint256"
        }
      ],
      "name": "getHistory",
      "outputs": [
        {
          "components": [
            {
              "internalType": "uint256",
              "name": "timestamp",
              "type": "uint256"
            },
            {
              "internalType": "enum UserHistory.ActType",
              "name": "act_type",
              "type": "uint8"
            },
            {
              "internalType": "uint256",
              "name": "tor_changes",
              "type": "uint256"
            },
            {
              "internalType": "uint256",
              "name": "tor_balance",
              "type": "uint256"
            },
            {
              "internalType": "uint256",
              "name": "count_invitee",
              "type": "uint256"
            },
            {
              "internalType": "uint256",
              "name": "activity_points",
              "type": "uint256"
            },
            {
              "internalType": "uint256",
              "name": "deposit_points",
              "type": "uint256"
            },
            {
              "internalType": "uint256",
              "name": "total_points",
              "type": "uint256"
            }
          ],
          "internalType": "struct UserHistory.ActVals[]",
          "name": "",
          "type": "tuple[]"
        }
      ],
      "stateMutability": "view",
      "type": "function"
    },
    {
      "inputs": [
        {
          "internalType": "address",
          "name": "account",
          "type": "address"
        }
      ],
      "name": "getHistoryLength",
      "outputs": [
        {
          "internalType": "uint256",
          "name": "",
          "type": "uint256"
        }
      ],
      "stateMutability": "view",
      "type": "function"
    },
    {
      "inputs": [
        {
          "internalType": "address",
          "name": "account",
          "type": "address"
        }
      ],
      "name": "getLastHistory",
      "outputs": [
        {
          "components": [
            {
              "internalType": "uint256",
              "name": "timestamp",
              "type": "uint256"
            },
            {
              "internalType": "enum UserHistory.ActType",
              "name": "act_type",
              "type": "uint8"
            },
            {
              "internalType": "uint256",
              "name": "tor_changes",
              "type": "uint256"
            },
            {
              "internalType": "uint256",
              "name": "tor_balance",
              "type": "uint256"
            },
            {
              "internalType": "uint256",
              "name": "count_invitee",
              "type": "uint256"
            },
            {
              "internalType": "uint256",
              "name": "activity_points",
              "type": "uint256"
            },
            {
              "internalType": "uint256",
              "name": "deposit_points",
              "type": "uint256"
            },
            {
              "internalType": "uint256",
              "name": "total_points",
              "type": "uint256"
            }
          ],
          "internalType": "struct UserHistory.ActVals",
          "name": "",
          "type": "tuple"
        }
      ],
      "stateMutability": "view",
      "type": "function"
    },
    {
      "inputs": [],
      "name": "getMyRank",
      "outputs": [
        {
          "internalType": "uint256",
          "name": "",
          "type": "uint256"
        }
      ],
      "stateMutability": "view",
      "type": "function"
    },
    {
      "inputs": [
        {
          "internalType": "address",
          "name": "account",
          "type": "address"
        }
      ],
      "name": "getMyRank",
      "outputs": [
        {
          "internalType": "uint256",
          "name": "",
          "type": "uint256"
        }
      ],
      "stateMutability": "view",
      "type": "function"
    },
    {
      "inputs": [],
      "name": "getRank",
      "outputs": [
        {
          "components": [
            {
              "internalType": "address",
              "name": "account",
              "type": "address"
            },
            {
              "internalType": "uint256",
              "name": "timestamp",
              "type": "uint256"
            },
            {
              "internalType": "uint256",
              "name": "point",
              "type": "uint256"
            }
          ],
          "internalType": "struct UserHistory.RankVals[]",
          "name": "",
          "type": "tuple[]"
        }
      ],
      "stateMutability": "view",
      "type": "function"
    },
    {
      "inputs": [],
      "name": "getTotalPoints",
      "outputs": [
        {
          "internalType": "uint256",
          "name": "",
          "type": "uint256"
        }
      ],
      "stateMutability": "view",
      "type": "function"
    },
    {
      "inputs": [],
      "name": "getTotalUsers",
      "outputs": [
        {
          "internalType": "uint256",
          "name": "",
          "type": "uint256"
        }
      ],
      "stateMutability": "view",
      "type": "function"
    },
    {
      "inputs": [
        {
          "internalType": "address",
          "name": "account",
          "type": "address"
        },
        {
          "internalType": "uint256",
          "name": "timestamp",
          "type": "uint256"
        },
        {
          "internalType": "uint256",
          "name": "tor_changes",
          "type": "uint256"
        },
        {
          "internalType": "uint256",
          "name": "tor_balance",
          "type": "uint256"
        }
      ],
      "name": "setDepositActivity",
      "outputs": [],
      "stateMutability": "nonpayable",
      "type": "function"
    },
    {
      "inputs": [
        {
          "internalType": "address",
          "name": "account",
          "type": "address"
        },
        {
          "internalType": "uint256",
          "name": "timestamp",
          "type": "uint256"
        }
      ],
      "name": "setGenCodeActivity",
      "outputs": [],
      "stateMutability": "nonpayable",
      "type": "function"
    },
    {
      "inputs": [
        {
          "internalType": "address",
          "name": "account",
          "type": "address"
        },
        {
          "internalType": "uint256",
          "name": "timestamp",
          "type": "uint256"
        }
      ],
      "name": "setInviteeActivity",
      "outputs": [],
      "stateMutability": "nonpayable",
      "type": "function"
    },
    {
      "inputs": [
        {
          "internalType": "address",
          "name": "account",
          "type": "address"
        },
        {
          "internalType": "uint256",
          "name": "timestamp",
          "type": "uint256"
        }
      ],
      "name": "setInviterActivity",
      "outputs": [],
      "stateMutability": "nonpayable",
      "type": "function"
    },
    {
      "inputs": [
        {
          "internalType": "address",
          "name": "account",
          "type": "address"
        },
        {
          "internalType": "uint256",
          "name": "timestamp",
          "type": "uint256"
        }
      ],
      "name": "setThroneActivity",
      "outputs": [],
      "stateMutability": "nonpayable",
      "type": "function"
    },
    {
      "inputs": [
        {
          "internalType": "address",
          "name": "account",
          "type": "address"
        },
        {
          "internalType": "uint256",
          "name": "timestamp",
          "type": "uint256"
        }
      ],
      "name": "setUsurpActivity",
      "outputs": [],
      "stateMutability": "nonpayable",
      "type": "function"
    },
    {
      "inputs": [
        {
          "internalType": "address",
          "name": "account",
          "type": "address"
        },
        {
          "internalType": "uint256",
          "name": "timestamp",
          "type": "uint256"
        },
        {
          "internalType": "uint256",
          "name": "tor_changes",
          "type": "uint256"
        },
        {
          "internalType": "uint256",
          "name": "tor_balance",
          "type": "uint256"
        }
      ],
      "name": "setWithdrawActivity",
      "outputs": [],
      "stateMutability": "nonpayable",
      "type": "function"
    }
  ]
}